{"contracts/GovernmentFunds.sol":{"GovernmentFunds":{"abi":[{"anonymous":false,"inputs":[{"indexed":true,"internalType":"uint256","name":"tenderId","type":"uint256"},{"indexed":true,"internalType":"uint256","name":"bidId","type":"uint256"},{"indexed":true,"internalType":"address","name":"bidder","type":"address"},{"indexed":false,"internalType":"uint256","name":"amount","type":"uint256"}],"name":"BidPlaced","type":"event"},{"anonymous":false,"inputs":[{"indexed":true,"internalType":"uint256","name":"tenderId","type":"uint256"},{"indexed":true,"internalType":"uint256","name":"bidId","type":"uint256"},{"indexed":true,"internalType":"address","name":"bidder","type":"address"}],"name":"BidWithdrawn","type":"event"},{"anonymous":false,"inputs":[{"indexed":true,"internalType":"uint256","name":"id","type":"uint256"},{"indexed":true,"internalType":"address","name":"entity","type":"address"},{"indexed":false,"internalType":"uint256","name":"amount","type":"uint256"}],"name":"SpendingRecorded","type":"event"},{"anonymous":false,"inputs":[{"indexed":true,"internalType":"uint256","name":"tenderId","type":"uint256"},{"indexed":true,"internalType":"address","name":"winner","type":"address"},{"indexed":false,"internalType":"uint256","name":"amount","type":"uint256"}],"name":"TenderAwarded","type":"event"},{"anonymous":false,"inputs":[{"indexed":true,"internalType":"uint256","name":"tenderId","type":"uint256"},{"indexed":true,"internalType":"address","name":"issuer","type":"address"}],"name":"TenderCancelled","type":"event"},{"anonymous":false,"inputs":[{"indexed":true,"internalType":"uint256","name":"id","type":"uint256"},{"indexed":true,"internalType":"address","name":"issuer","type":"address"},{"indexed":false,"internalType":"string","name":"title","type":"string"},{"indexed":false,"internalType":"uint256","name":"amount","type":"uint256"},{"indexed":false,"internalType":"uint256","name":"deadline","type":"uint256"}],"name":"TenderIssued","type":"event"},{"anonymous":false,"inputs":[{"indexed":true,"internalType":"address","name":"voter","type":"address"},{"indexed":true,"internalType":"address","name":"entity","type":"address"}],"name":"Voted","type":"event"},{"inputs":[{"internalType":"uint256","name":"tenderId","type":"uint256"}],"name":"awardTender","outputs":[],"stateMutability":"nonpayable","type":"function"},{"inputs":[{"internalType":"uint256","name":"","type":"uint256"},{"internalType":"uint256","name":"","type":"uint256"}],"name":"bids","outputs":[{"internalType":"uint256","name":"id","type":"uint256"},{"internalType":"address","name":"bidder","type":"address"},{"internalType":"uint256","name":"amount","type":"uint256"},{"internalType":"uint256","name":"timestamp","type":"uint256"},{"internalType":"bool","name":"isWithdrawn","type":"bool"}],"stateMutability":"view","type":"function"},{"inputs":[{"internalType":"uint256","name":"tenderId","type":"uint256"}],"name":"cancelTender","outputs":[],"stateMutability":"nonpayable","type":"function"},{"inputs":[{"internalType":"address","name":"","type":"address"}],"name":"entities","outputs":[{"internalType":"bool","name":"isActive","type":"bool"},{"internalType":"uint256","name":"totalVotes","type":"uint256"},{"internalType":"uint256","name":"toBeSpent","type":"uint256"},{"internalType":"uint256","name":"balance","type":"uint256"}],"stateMutability":"view","type":"function"},{"inputs":[{"internalType":"uint256","name":"tenderId","type":"uint256"}],"name":"getBids","outputs":[{"components":[{"internalType":"uint256","name":"id","type":"uint256"},{"internalType":"address","name":"bidder","type":"address"},{"internalType":"uint256","name":"amount","type":"uint256"},{"internalType":"uint256","name":"timestamp","type":"uint256"},{"internalType":"bool","name":"isWithdrawn","type":"bool"}],"internalType":"struct GovernmentFunds.Bid[]","name":"","type":"tuple[]"}],"stateMutability":"view","type":"function"},{"inputs":[{"internalType":"address","name":"entityAddress","type":"address"}],"name":"getSpendingRecords","outputs":[{"components":[{"internalType":"uint256","name":"id","type":"uint256"},{"internalType":"address","name":"entity","type":"address"},{"internalType":"uint256","name":"amount","type":"uint256"},{"internalType":"uint256","name":"timestamp","type":"uint256"}],"internalType":"struct GovernmentFunds.SpendingRecord[]","name":"","type":"tuple[]"}],"stateMutability":"view","type":"function"},{"inputs":[{"internalType":"uint256","name":"tenderId","type":"uint256"}],"name":"getTenderDetails","outputs":[{"components":[{"internalType":"uint256","name":"id","type":"uint256"},{"internalType":"string","name":"title","type":"string"},{"internalType":"string","name":"description","type":"string"},{"internalType":"uint256","name":"amount","type":"uint256"},{"internalType":"uint256","name":"deadline","type":"uint256"},{"internalType":"address","name":"issuer","type":"address"},{"internalType":"bool","name":"isActive","type":"bool"},{"internalType":"address","name":"winner","type":"address"},{"internalType":"uint256","name":"winningBid","type":"uint256"},{"internalType":"uint256","name":"minBidAmount","type":"uint256"},{"internalType":"uint256","name":"maxBidAmount","type":"uint256"},{"internalType":"uint256","name":"bidCount","type":"uint256"}],"internalType":"struct GovernmentFunds.Tender","name":"","type":"tuple"}],"stateMutability":"view","type":"function"},{"inputs":[{"internalType":"uint256","name":"offset","type":"uint256"},{"internalType":"uint256","name":"limit","type":"uint256"}],"name":"getTenders","outputs":[{"components":[{"internalType":"uint256","name":"id","type":"uint256"},{"internalType":"string","name":"title","type":"string"},{"internalType":"string","name":"description","type":"string"},{"internalType":"uint256","name":"amount","type":"uint256"},{"internalType":"uint256","name":"deadline","type":"uint256"},{"internalType":"address","name":"issuer","type":"address"},{"internalType":"bool","name":"isActive","type":"bool"},{"internalType":"address","name":"winner","type":"address"},{"internalType":"uint256","name":"winningBid","type":"uint256"},{"internalType":"uint256","name":"minBidAmount","type":"uint256"},{"internalType":"uint256","name":"maxBidAmount","type":"uint256"},{"internalType":"uint256","name":"bidCount","type":"uint256"}],"internalType":"struct GovernmentFunds.Tender[]","name":"","type":"tuple[]"}],"stateMutability":"view","type":"function"},{"inputs":[{"internalType":"address","name":"","type":"address"},{"internalType":"address","name":"","type":"address"}],"name":"hasVoted","outputs":[{"internalType":"bool","name":"","type":"bool"}],"stateMutability":"view","type":"function"},{"inputs":[{"internalType":"string","name":"title","type":"string"},{"internalType":"string","name":"description","type":"string"},{"internalType":"uint256","name":"amount","type":"uint256"},{"internalType":"uint256","name":"deadline","type":"uint256"},{"internalType":"uint256","name":"minBidAmount","type":"uint256"},{"internalType":"uint256","name":"maxBidAmount","type":"uint256"}],"name":"issueTender","outputs":[],"stateMutability":"nonpayable","type":"function"},{"inputs":[{"internalType":"uint256","name":"tenderId","type":"uint256"},{"internalType":"uint256","name":"amount","type":"uint256"}],"name":"placeBid","outputs":[],"stateMutability":"nonpayable","type":"function"},{"inputs":[{"internalType":"uint256","name":"amount","type":"uint256"}],"name":"recordSpending","outputs":[],"stateMutability":"nonpayable","type":"function"},{"inputs":[],"name":"spendingCount","outputs":[{"internalType":"uint256","name":"","type":"uint256"}],"stateMutability":"view","type":"function"},{"inputs":[{"internalType":"uint256","name":"","type":"uint256"}],"name":"spendingRecords","outputs":[{"internalType":"uint256","name":"id","type":"uint256"},{"internalType":"address","name":"entity","type":"address"},{"internalType":"uint256","name":"amount","type":"uint256"},{"internalType":"uint256","name":"timestamp","type":"uint256"}],"stateMutability":"view","type":"function"},{"inputs":[{"internalType":"uint256","name":"","type":"uint256"}],"name":"tenderBidCount","outputs":[{"internalType":"uint256","name":"","type":"uint256"}],"stateMutability":"view","type":"function"},{"inputs":[],"name":"tenderCount","outputs":[{"internalType":"uint256","name":"","type":"uint256"}],"stateMutability":"view","type":"function"},{"inputs":[{"internalType":"uint256","name":"","type":"uint256"}],"name":"tenders","outputs":[{"internalType":"uint256","name":"id","type":"uint256"},{"internalType":"string","name":"title","type":"string"},{"internalType":"string","name":"description","type":"string"},{"internalType":"uint256","name":"amount","type":"uint256"},{"internalType":"uint256","name":"deadline","type":"uint256"},{"internalType":"address","name":"issuer","type":"address"},{"internalType":"bool","name":"isActive","type":"bool"},{"internalType":"address","name":"winner","type":"address"},{"internalType":"uint256","name":"winningBid","type":"uint256"},{"internalType":"uint256","name":"minBidAmount","type":"uint256"},{"internalType":"uint256","name":"maxBidAmount","type":"uint256"},{"internalType":"uint256","name":"bidCount","type":"uint256"}],"stateMutability":"view","type":"function"},{"inputs":[{"internalType":"address","name":"entityAddress","type":"address"}],"name":"vote","outputs":[],"stateMutability":"nonpayable","type":"function"},{"inputs":[{"internalType":"uint256","name":"tenderId","type":"uint256"},{"internalType":"uint256","name":"bidId","type":"uint256"}],"name":"withdrawBid","outputs":[],"stateMutability":"nonpayable","type":"function"}],"evm":{"bytecode":{"linkReferences":{},"object":"608080604052346100165761216c908161001c8239f35b600080fdfe6080604052600436101561001257600080fd5b60003560e01c8063131d9a2714611b1b57806315cf4b6e14611aef5780631d8ee48a14611a8e5780631dfd95421461182b5780631f0587761461180d5780633a74e070146116f0578063465e1def1461160e5780634d4d2b1c146115b45780634f7311ad1461159657806353ee895d1461146257806357c90de5146111bf5780636dd7d8ea146110285780637b3c4baa14610fbd5780638fdee0c514610dfe578063a573566214610b41578063a9bba44314610a49578063bac5d8f9146109f3578063c4bce418146102c15763fb116b58146100ed57600080fd5b346102bc576020806003193601126102bc57610107611c97565b6006546001600160a01b03929160009190841660015b8281111561027f575061012f83612098565b9261013d6040519485611e32565b80845261014c601f1991612098565b018460005b82811061024d57505050600060015b838111156101c95750505050604051918083018184528251809152816040850193019160005b8281106101935785850386f35b83518051865280830151881686840152604080820151908701526060908101519086015260809094019392810192600101610186565b806000526002808752604060002088600182015416918583146101f8575b5050506101f390611fe0565b610160565b9160036101f3949592610244946040519361021285611e16565b825485528c85015281015460408401520154606082015261023382896120b0565b5261023e81886120b0565b50611fe0565b919038806101e7565b60405161025981611e16565b600081526000838201526000604082015260006060820152828288010152018590610151565b8060005260028552818660016040600020015416146102a7575b6102a290611fe0565b61011d565b926102b46102a291611fe0565b939050610299565b600080fd5b346102bc5760c03660031901126102bc5760043567ffffffffffffffff81116102bc576102f2903690600401611efa565b60243567ffffffffffffffff81116102bc57610312903690600401611efa565b9033600052600060205261032d60ff60406000205416611f51565b60449061033c82351515611f94565b60649042823511156109b057600381511061096157600a84511061090b57608435156108b65760843560a435111561084d57823560a435116107f3573360005260006020528235600460406000200154106107a45761039c600754611fe0565b80600755604051946103ad86611df9565b818652826020870152604086015283356060860152823560808601523360a0860152600160c0860152600060e0860152600061010086015260843561012086015260a43561014086015260006101608601526000526003602052604060002084518155602085015180519067ffffffffffffffff82116106be5781906104366001850154611da3565b601f8111610751575b50602090601f83116001146106df576000926106d4575b50508160011b916000199060031b1c19161760018201555b604085015194855167ffffffffffffffff81116106be576104926002840154611da3565b601f8111610677575b506020601f82116001146105df57918161016092600a947fa57590356b27448860a006f0265445002790351fe29648717df7ec7481c9e4df98999a6000926105d4575b50508160011b916000199060031b1c19161760028501555b60608101516003850155608081015160048501556005840160018060a01b03908160a08401511681549060ff60a01b60c0860151151560a01b16916affffffffffffffffffffff60a81b1617179055600685019060e0830151166001600160601b0360a01b825416179055610100810151600785015561012081015160088501556101408101516009850155015191015533600052600060205260046040600020016105a485358254611ffc565b9055600754926105bf60405192606084526060840190611cc3565b943560208301523560408201528033940390a3005b015190508a806104de565b6002840160005260206000209760005b601f198416811061065f5750827fa57590356b27448860a006f0265445002790351fe29648717df7ec7481c9e4df979899600a959360019361016096601f19811610610646575b505050811b0160028501556104f6565b015160001960f88460031b161c191690558a8080610636565b828201518a55600190990198602092830192016105ef565b600284016000526020600020601f830160051c8101602084106106b7575b601f830160051c820181106106ab57505061049b565b60008155600101610695565b5080610695565b634e487b7160e01b600052604160045260246000fd5b015190508780610456565b9250600184016000526020600020906000935b601f1984168510610736576001945083601f1981161061071d575b505050811b01600182015561046e565b015160001960f88460031b161c1916905587808061070d565b818101518355602094850194600190930192909101906106f2565b909150600184016000526020600020601f840160051c81016020851061079d575b90849392915b601f830160051c8201811061078e57505061043f565b60008155859450600101610778565b5080610772565b60405162461bcd60e51b8152602060048201526024808201527f496e73756666696369656e742062616c616e636520746f2069737375652074658185015263373232b960e11b81840152608490fd5b60405162461bcd60e51b815260206004820152602e60248201527f4d6178696d756d2062696420616d6f756e742063616e6e6f7420657863656564818501526d081d195b99195c88185b5bdd5b9d60921b81840152608490fd5b60405162461bcd60e51b815260206004820152603a60248201527f4d6178696d756d2062696420616d6f756e74206d757374206265206772656174818501527f6572207468616e206d696e696d756d2062696420616d6f756e7400000000000081840152608490fd5b60405162461bcd60e51b815260206004820152602960248201527f4d696e696d756d2062696420616d6f756e74206d757374206265206772656174818501526806572207468616e20360bc1b81840152608490fd5b60405162461bcd60e51b815260206004820152602a60248201527f4465736372697074696f6e206d757374206265206174206c656173742031302081850152696368617261637465727360b01b81840152608490fd5b60405162461bcd60e51b815260206004820152602360248201527f5469746c65206d757374206265206174206c6561737420332063686172616374818501526265727360e81b81840152608490fd5b50907f446561646c696e65206d75737420626520696e207468652066757475726500006040519162461bcd60e51b835260206004840152601e6024840152820152fd5b346102bc5760203660031901126102bc5760043560005260026020526080604060002080549060018060a01b03600182015416906003600282015491015491604051938452602084015260408301526060820152f35b346102bc576020806003193601126102bc57600435903360005260008152610a7860ff60406000205416611f51565b610a83821515611f94565b610a8e600654611fe0565b80600655600360405191610aa183611e16565b8083528383013381526040840190868252606085019242845260005260028652604060002094518555600185019060018060a01b039051166001600160601b0360a01b8254161790555160028401555191015533600052600081526003604060002001610b0f838254611fef565b90557fd26743b74d62dd5ad8e62c8de6634906adc90975c3bf8085f74d522960d2eb5d600654916040519384523393a3005b346102bc57610b4f36611cad565b8160005260206003815260ff90600591610b7481846040600020015460a01c16612009565b8460005260038252610b8f600460406000200154421061204c565b8460005260048252604060002084600052825260018060a01b03916001838160406000200154163303610db957866000526004825260406000208660005282528260046040600020015416610d7c578660005260048252604060002086600052825260046040600020018160ff198254161790558660005260038252600a60406000200180548015610d6657600019019055866000526003825283600660406000200154163314610c65575b3386887fb41c9b05054be45850ccc1da7d90c7b819cff855cfe0d14f16427398b286c9b6600080a4005b600092600095826000905b610cad575b50505050906003600692876000525260406000209060078201550191166001600160601b0360a01b8254161790558280808080610c3b565b89600052818552604060002054811015610d615760048552604060002081600052855282600460406000200154161580610d35575b610cfb575b90610cf3849392611fe0565b909192610c70565b60008a8152600480875260408083208484528852808320600201548d84529188528083208484528852909120850154881698509550610ce7565b50851580610ce25750896000526004855260406000208160005285528560026040600020015410610ce2565b610c75565b634e487b7160e01b600052601160045260246000fd5b60405162461bcd60e51b81526004810183905260156024820152742134b21030b63932b0b23c903bb4ba34323930bbb760591b6044820152606490fd5b60405162461bcd60e51b815260048101839052601c60248201527f4f6e6c79206269646465722063616e20776974686472617720626964000000006044820152606490fd5b346102bc576020806003193601126102bc5760043580600052600391828152610e3460ff60056040600020015460a01c16612009565b816000528281526004604060002001544210610f7957600082815283825260409020600601546001600160a01b0390811615610f3e578260005283825280600560406000200154163303610ef9579060077fb6da2d97c7be1b795c416cc5e17d479a1a6fb59b6e95214ee25aaaf42796c80292846000528583526040600020956005870160ff60a01b19815416905586015460068701908282541660005260008552610ee96004604060002001918254611fef565b90555416940154604051908152a3005b60405162461bcd60e51b815260048101839052601c60248201527f4f6e6c79206973737565722063616e2061776172642074656e646572000000006044820152606490fd5b60405162461bcd60e51b8152600481018390526013602482015272139bc81d985b1a5908189a591cc8199bdd5b99606a1b6044820152606490fd5b6064906040519062461bcd60e51b82526004820152601e60248201527f54656e64657220646561646c696e6520686173206e6f742070617373656400006044820152fd5b346102bc57610fcb36611cad565b90600052600460205260406000209060005260205260a06040600020805490600180841b0360018201541690600281015460ff60046003840154930154169260405194855260208501526040840152606083015215156080820152f35b346102bc576020806003193601126102bc57611042611c97565b903360005260019081815260406000209260018060a01b03169283600052815260ff6040600020541661116c57826000526000815261108860ff60406000205416611f51565b8260005260008152816040600020013360005281526040600020546111285782600052600081528160406000200133600052815281604060002055826000526000815260026040600020016110dd8154611fe0565b905533600052818152604060002090836000525260406000209060ff19825416179055337fce0c7a2a940807f7dc2ce7a615c2532e915e6c0ac9a08bc4ed9d515a710a53e2600080a3005b6064906040519062461bcd60e51b82526004820152601d60248201527f416c726561647920766f74656420666f72207468697320656e746974790000006044820152fd5b6084906040519062461bcd60e51b82526004820152602660248201527f596f75206861766520616c726561647920766f74656420666f72207468697320604482015265656e7469747960d01b6064820152fd5b346102bc576111cd36611cad565b336000526020600081526111e860ff60406000205416611f51565b8260005260039081815261120960ff60056040600020015460a01c16612009565b83600052818152611223600460406000200154421061204c565b600084815282825260409020600501546001600160a01b0394908516331461141d578060005282825260086040600020015484106113d857806000528282526009604060002001548411611393578060005260058252604060002080549061128a82611fe0565b90556040519561129987611ddd565b818752600484880197338952604081018881526060820190428252608083019460008652876000528489526040600020876000528952604060002093518455600184019b51169a6001600160601b0360a01b9b8c8254161790555160028301555187820155019051151560ff8019835416911617905581600052838352600a6040600020016113288154611fe0565b905560405190858252827f6f7e354ea3ab5c288aea37fce29c603f9a98a3b040f6d8f32f10e192ec47ff6a853394a4600052526040600020600781019182548015908115611389575b5061137857005b909155600601805490911633179055005b9050811085611371565b60405162461bcd60e51b815260048101839052601860248201527f42696420616d6f756e742061626f7665206d6178696d756d00000000000000006044820152606490fd5b60405162461bcd60e51b815260048101839052601860248201527f42696420616d6f756e742062656c6f77206d696e696d756d00000000000000006044820152606490fd5b60405162461bcd60e51b815260048101839052601760248201527f4973737565722063616e6e6f7420706c616365206269640000000000000000006044820152606490fd5b346102bc576020806003193601126102bc5760043561147f6120da565b508015158061158a575b156115515760005260038152604060002090600a604051926114aa84611df9565b805484526114ba60018201611e54565b838501526114ca60028201611e54565b60408501526003810154606085015260048101546080850152600581015460ff60018060a01b039182811660a088015260a01c16151560c086015260068201541660e0850152600781015461010085015260088101546101208501526009810154610140850152015461016083015261154d604051928284938452830190611d03565b0390f35b60405162461bcd60e51b8152600481018390526011602482015270125b9d985b1a59081d195b99195c881251607a1b6044820152606490fd5b50600754811115611489565b346102bc5760003660031901126102bc576020600654604051908152f35b346102bc5760403660031901126102bc576115cd611c97565b6001600160a01b0360243581811692908390036102bc57166000526001602052604060002090600052602052602060ff604060002054166040519015158152f35b346102bc5760203660031901126102bc5760043560005260036020526040600020805461163d60018301611e54565b9161164a60028201611e54565b6003820154916004810154600582015460018060a01b039060ff82600686015416916007860154936008870154956116b2600a60098a0154990154996116a46040519e8f9e8f908152610180908160208201520190611cc3565b8d810360408f015290611cc3565b9960608c015260808b0152811660a08a015260a01c16151560c088015260e08701526101008601526101208501526101408401526101608301520390f35b346102bc576020806003193601126102bc5760043590816000526003815261172560ff60056040600020015460a01c16612009565b60008281526003825260409020600501546001600160a01b039190821633036117c957600090838252600381526117646004604084200154421061204c565b8382526003815260408220926003600585019485549560ff60a01b19871690550154931682525261179e6004604060002001918254611fef565b905533907f116bcf29f123d8a1761e1b9bebbc345a1f08879dafde27b887a89e6e0b7af019600080a3005b6064906040519062461bcd60e51b82526004820152601d60248201527f4f6e6c79206973737565722063616e2063616e63656c2074656e6465720000006044820152fd5b346102bc5760003660031901126102bc576020600754604051908152f35b346102bc5761183936611cad565b6007805480841015611a49578215611a04578084916118588584611fef565b116119f1575b505061186982612098565b926118776040519485611e32565b828452601f1961188684612098565b0160005b8181106119da57505060005b8381106118fc576040805160208082528751818301819052600093600582901b8401810192808b01929185015b8287106118d05785850386f35b9091929382806118ec600193603f198a82030186528851611d03565b96019201960195929190926118c3565b6119068183611fef565b906001808301809311610d66576119d592600052600a60036020908082526040600020916119456040519561193a87611df9565b845487528401611e54565b9085015261195560028301611e54565b6040850152810154606084015260048101546080840152600581015460ff60018060a01b039160a0838216818801521c16151560c085015260068201541660e0840152868101546101008401526008810154610120840152600981015461014084015201546101608201526119ca82886120b0565b5261023e81876120b0565b611896565b6020906119e56120da565b8282890101520161188a565b6119fc929350611ffc565b90828461185e565b60405162461bcd60e51b815260206004820152601f60248201527f4c696d6974206d7573742062652067726561746572207468616e207a65726f006044820152606490fd5b60405162461bcd60e51b815260206004820152601b60248201527f4f666673657420657863656564732074656e64657220636f756e7400000000006044820152606490fd5b346102bc5760203660031901126102bc576001600160a01b03611aaf611c97565b1660005260006020526080604060002060ff8154169060028101549060046003820154910154916040519315158452602084015260408301526060820152f35b346102bc5760203660031901126102bc5760043560005260056020526020604060002054604051908152f35b346102bc576020806003193601126102bc57600435908160005260058152604060002054611b4881612098565b92611b566040519485611e32565b818452601f19611b6583612098565b018360005b828110611c5e5750505060005b828110611bee57604080518581528651818701819052878701928201908760005b828110611ba55784840385f35b855180518552808301516001600160a01b03168584015260408082015190860152606080820151908601526080908101511515908501529481019460a090930192600101611b98565b611c599082600052600485526040600020816000528552604060002060ff600460405192611c1b84611ddd565b8054845260018101546001600160a01b0316898501526002810154604085015260038101546060850152015416151560808201526119ca82886120b0565b611b77565b604051611c6a81611ddd565b60008152600083820152600060408201526000606082015260006080820152828289010152018490611b6a565b600435906001600160a01b03821682036102bc57565b60409060031901126102bc576004359060243590565b919082519283825260005b848110611cef575050826000602080949584010152601f8019910116010190565b602081830181015184830182015201611cce565b9081518152611d36611d246020840151610180806020860152840190611cc3565b60408401518382036040850152611cc3565b91606081015160608301526080810151608083015260018060a01b038060a08301511660a084015260c0820151151560c084015260e08201511660e08301526101008082015190830152610120808201519083015261014080820151908301526101608091015191015290565b90600182811c92168015611dd3575b6020831014611dbd57565b634e487b7160e01b600052602260045260246000fd5b91607f1691611db2565b60a0810190811067ffffffffffffffff8211176106be57604052565b610180810190811067ffffffffffffffff8211176106be57604052565b6080810190811067ffffffffffffffff8211176106be57604052565b90601f8019910116810190811067ffffffffffffffff8211176106be57604052565b9060405191826000825492611e6884611da3565b908184526001948581169081600014611ed75750600114611e94575b5050611e9292500383611e32565b565b9093915060005260209081600020936000915b818310611ebf575050611e9293508201013880611e84565b85548884018501529485019487945091830191611ea7565b915050611e9294506020925060ff191682840152151560051b8201013880611e84565b81601f820112156102bc5780359067ffffffffffffffff82116106be5760405192611f2f601f8401601f191660200185611e32565b828452602083830101116102bc57816000926020809301838601378301015290565b15611f5857565b60405162461bcd60e51b8152602060048201526014602482015273456e74697479206973206e6f742061637469766560601b6044820152606490fd5b15611f9b57565b60405162461bcd60e51b815260206004820152601d60248201527f416d6f756e74206d7573742062652067726561746572207468616e20300000006044820152606490fd5b6000198114610d665760010190565b91908201809211610d6657565b91908203918211610d6657565b1561201057565b60405162461bcd60e51b815260206004820152601460248201527354656e646572206973206e6f742061637469766560601b6044820152606490fd5b1561205357565b60405162461bcd60e51b815260206004820152601a60248201527f54656e64657220646561646c696e6520686173207061737365640000000000006044820152606490fd5b67ffffffffffffffff81116106be5760051b60200190565b80518210156120c45760209160051b010190565b634e487b7160e01b600052603260045260246000fd5b604051906120e782611df9565b8161016060009182815260606020820152606060408201528260608201528260808201528260a08201528260c08201528260e0820152826101008201528261012082015282610140820152015256fea26469706673582212208a4bc292d04ed3725b8669d835f9dd9707825ede23ba277337ced992ecebc95c64736f6c63430008130033","opcodes":"PUSH1 0x80 DUP1 PUSH1 0x40 MSTORE CALLVALUE PUSH2 0x16 JUMPI PUSH2 0x216C SWAP1 DUP2 PUSH2 0x1C DUP3 CODECOPY RETURN JUMPDEST PUSH1 0x0 DUP1 REVERT INVALID PUSH1 0x80 PUSH1 0x40 MSTORE PUSH1 0x4 CALLDATASIZE LT ISZERO PUSH2 0x12 JUMPI PUSH1 0x0 DUP1 REVERT JUMPDEST PUSH1 0x0 CALLDATALOAD PUSH1 0xE0 SHR DUP1 PUSH4 0x131D9A27 EQ PUSH2 0x1B1B JUMPI DUP1 PUSH4 0x15CF4B6E EQ PUSH2 0x1AEF JUMPI DUP1 PUSH4 0x1D8EE48A EQ PUSH2 0x1A8E JUMPI DUP1 PUSH4 0x1DFD9542 EQ PUSH2 0x182B JUMPI DUP1 PUSH4 0x1F058776 EQ PUSH2 0x180D JUMPI DUP1 PUSH4 0x3A74E070 EQ PUSH2 0x16F0 JUMPI DUP1 PUSH4 0x465E1DEF EQ PUSH2 0x160E JUMPI DUP1 PUSH4 0x4D4D2B1C EQ PUSH2 0x15B4 JUMPI DUP1 PUSH4 0x4F7311AD EQ PUSH2 0x1596 JUMPI DUP1 PUSH4 0x53EE895D EQ PUSH2 0x1462 JUMPI DUP1 PUSH4 0x57C90DE5 EQ PUSH2 0x11BF JUMPI DUP1 PUSH4 0x6DD7D8EA EQ PUSH2 0x1028 JUMPI DUP1 PUSH4 0x7B3C4BAA EQ PUSH2 0xFBD JUMPI DUP1 PUSH4 0x8FDEE0C5 EQ PUSH2 0xDFE JUMPI DUP1 PUSH4 0xA5735662 EQ PUSH2 0xB41 JUMPI DUP1 PUSH4 0xA9BBA443 EQ PUSH2 0xA49 JUMPI DUP1 PUSH4 0xBAC5D8F9 EQ PUSH2 0x9F3 JUMPI DUP1 PUSH4 0xC4BCE418 EQ PUSH2 0x2C1 JUMPI PUSH4 0xFB116B58 EQ PUSH2 0xED JUMPI PUSH1 0x0 DUP1 REVERT JUMPDEST CALLVALUE PUSH2 0x2BC JUMPI PUSH1 0x20 DUP1 PUSH1 0x3 NOT CALLDATASIZE ADD SLT PUSH2 0x2BC JUMPI PUSH2 0x107 PUSH2 0x1C97 JUMP JUMPDEST PUSH1 0x6 SLOAD PUSH1 0x1 PUSH1 0x1 PUSH1 0xA0 SHL SUB SWAP3 SWAP2 PUSH1 0x0 SWAP2 SWAP1 DUP5 AND PUSH1 0x1 JUMPDEST DUP3 DUP2 GT ISZERO PUSH2 0x27F JUMPI POP PUSH2 0x12F DUP4 PUSH2 0x2098 JUMP JUMPDEST SWAP3 PUSH2 0x13D PUSH1 0x40 MLOAD SWAP5 DUP6 PUSH2 0x1E32 JUMP JUMPDEST DUP1 DUP5 MSTORE PUSH2 0x14C PUSH1 0x1F NOT SWAP2 PUSH2 0x2098 JUMP JUMPDEST ADD DUP5 PUSH1 0x0 JUMPDEST DUP3 DUP2 LT PUSH2 0x24D JUMPI POP POP POP PUSH1 0x0 PUSH1 0x1 JUMPDEST DUP4 DUP2 GT ISZERO PUSH2 0x1C9 JUMPI POP POP POP POP PUSH1 0x40 MLOAD SWAP2 DUP1 DUP4 ADD DUP2 DUP5 MSTORE DUP3 MLOAD DUP1 SWAP2 MSTORE DUP2 PUSH1 0x40 DUP6 ADD SWAP4 ADD SWAP2 PUSH1 0x0 JUMPDEST DUP3 DUP2 LT PUSH2 0x193 JUMPI DUP6 DUP6 SUB DUP7 RETURN JUMPDEST DUP4 MLOAD DUP1 MLOAD DUP7 MSTORE DUP1 DUP4 ADD MLOAD DUP9 AND DUP7 DUP5 ADD MSTORE PUSH1 0x40 DUP1 DUP3 ADD MLOAD SWAP1 DUP8 ADD MSTORE PUSH1 0x60 SWAP1 DUP2 ADD MLOAD SWAP1 DUP7 ADD MSTORE PUSH1 0x80 SWAP1 SWAP5 ADD SWAP4 SWAP3 DUP2 ADD SWAP3 PUSH1 0x1 ADD PUSH2 0x186 JUMP JUMPDEST DUP1 PUSH1 0x0 MSTORE PUSH1 0x2 DUP1 DUP8 MSTORE PUSH1 0x40 PUSH1 0x0 KECCAK256 DUP9 PUSH1 0x1 DUP3 ADD SLOAD AND SWAP2 DUP6 DUP4 EQ PUSH2 0x1F8 JUMPI JUMPDEST POP POP POP PUSH2 0x1F3 SWAP1 PUSH2 0x1FE0 JUMP JUMPDEST PUSH2 0x160 JUMP JUMPDEST SWAP2 PUSH1 0x3 PUSH2 0x1F3 SWAP5 SWAP6 SWAP3 PUSH2 0x244 SWAP5 PUSH1 0x40 MLOAD SWAP4 PUSH2 0x212 DUP6 PUSH2 0x1E16 JUMP JUMPDEST DUP3 SLOAD DUP6 MSTORE DUP13 DUP6 ADD MSTORE DUP2 ADD SLOAD PUSH1 0x40 DUP5 ADD MSTORE ADD SLOAD PUSH1 0x60 DUP3 ADD MSTORE PUSH2 0x233 DUP3 DUP10 PUSH2 0x20B0 JUMP JUMPDEST MSTORE PUSH2 0x23E DUP2 DUP9 PUSH2 0x20B0 JUMP JUMPDEST POP PUSH2 0x1FE0 JUMP JUMPDEST SWAP2 SWAP1 CODESIZE DUP1 PUSH2 0x1E7 JUMP JUMPDEST PUSH1 0x40 MLOAD PUSH2 0x259 DUP2 PUSH2 0x1E16 JUMP JUMPDEST PUSH1 0x0 DUP2 MSTORE PUSH1 0x0 DUP4 DUP3 ADD MSTORE PUSH1 0x0 PUSH1 0x40 DUP3 ADD MSTORE PUSH1 0x0 PUSH1 0x60 DUP3 ADD MSTORE DUP3 DUP3 DUP9 ADD ADD MSTORE ADD DUP6 SWAP1 PUSH2 0x151 JUMP JUMPDEST DUP1 PUSH1 0x0 MSTORE PUSH1 0x2 DUP6 MSTORE DUP2 DUP7 PUSH1 0x1 PUSH1 0x40 PUSH1 0x0 KECCAK256 ADD SLOAD AND EQ PUSH2 0x2A7 JUMPI JUMPDEST PUSH2 0x2A2 SWAP1 PUSH2 0x1FE0 JUMP JUMPDEST PUSH2 0x11D JUMP JUMPDEST SWAP3 PUSH2 0x2B4 PUSH2 0x2A2 SWAP2 PUSH2 0x1FE0 JUMP JUMPDEST SWAP4 SWAP1 POP PUSH2 0x299 JUMP JUMPDEST PUSH1 0x0 DUP1 REVERT JUMPDEST CALLVALUE PUSH2 0x2BC JUMPI PUSH1 0xC0 CALLDATASIZE PUSH1 0x3 NOT ADD SLT PUSH2 0x2BC JUMPI PUSH1 0x4 CALLDATALOAD PUSH8 0xFFFFFFFFFFFFFFFF DUP2 GT PUSH2 0x2BC JUMPI PUSH2 0x2F2 SWAP1 CALLDATASIZE SWAP1 PUSH1 0x4 ADD PUSH2 0x1EFA JUMP JUMPDEST PUSH1 0x24 CALLDATALOAD PUSH8 0xFFFFFFFFFFFFFFFF DUP2 GT PUSH2 0x2BC JUMPI PUSH2 0x312 SWAP1 CALLDATASIZE SWAP1 PUSH1 0x4 ADD PUSH2 0x1EFA JUMP JUMPDEST SWAP1 CALLER PUSH1 0x0 MSTORE PUSH1 0x0 PUSH1 0x20 MSTORE PUSH2 0x32D PUSH1 0xFF PUSH1 0x40 PUSH1 0x0 KECCAK256 SLOAD AND PUSH2 0x1F51 JUMP JUMPDEST PUSH1 0x44 SWAP1 PUSH2 0x33C DUP3 CALLDATALOAD ISZERO ISZERO PUSH2 0x1F94 JUMP JUMPDEST PUSH1 0x64 SWAP1 TIMESTAMP DUP3 CALLDATALOAD GT ISZERO PUSH2 0x9B0 JUMPI PUSH1 0x3 DUP2 MLOAD LT PUSH2 0x961 JUMPI PUSH1 0xA DUP5 MLOAD LT PUSH2 0x90B JUMPI PUSH1 0x84 CALLDATALOAD ISZERO PUSH2 0x8B6 JUMPI PUSH1 0x84 CALLDATALOAD PUSH1 0xA4 CALLDATALOAD GT ISZERO PUSH2 0x84D JUMPI DUP3 CALLDATALOAD PUSH1 0xA4 CALLDATALOAD GT PUSH2 0x7F3 JUMPI CALLER PUSH1 0x0 MSTORE PUSH1 0x0 PUSH1 0x20 MSTORE DUP3 CALLDATALOAD PUSH1 0x4 PUSH1 0x40 PUSH1 0x0 KECCAK256 ADD SLOAD LT PUSH2 0x7A4 JUMPI PUSH2 0x39C PUSH1 0x7 SLOAD PUSH2 0x1FE0 JUMP JUMPDEST DUP1 PUSH1 0x7 SSTORE PUSH1 0x40 MLOAD SWAP5 PUSH2 0x3AD DUP7 PUSH2 0x1DF9 JUMP JUMPDEST DUP2 DUP7 MSTORE DUP3 PUSH1 0x20 DUP8 ADD MSTORE PUSH1 0x40 DUP7 ADD MSTORE DUP4 CALLDATALOAD PUSH1 0x60 DUP7 ADD MSTORE DUP3 CALLDATALOAD PUSH1 0x80 DUP7 ADD MSTORE CALLER PUSH1 0xA0 DUP7 ADD MSTORE PUSH1 0x1 PUSH1 0xC0 DUP7 ADD MSTORE PUSH1 0x0 PUSH1 0xE0 DUP7 ADD MSTORE PUSH1 0x0 PUSH2 0x100 DUP7 ADD MSTORE PUSH1 0x84 CALLDATALOAD PUSH2 0x120 DUP7 ADD MSTORE PUSH1 0xA4 CALLDATALOAD PUSH2 0x140 DUP7 ADD MSTORE PUSH1 0x0 PUSH2 0x160 DUP7 ADD MSTORE PUSH1 0x0 MSTORE PUSH1 0x3 PUSH1 0x20 MSTORE PUSH1 0x40 PUSH1 0x0 KECCAK256 DUP5 MLOAD DUP2 SSTORE PUSH1 0x20 DUP6 ADD MLOAD DUP1 MLOAD SWAP1 PUSH8 0xFFFFFFFFFFFFFFFF DUP3 GT PUSH2 0x6BE JUMPI DUP2 SWAP1 PUSH2 0x436 PUSH1 0x1 DUP6 ADD SLOAD PUSH2 0x1DA3 JUMP JUMPDEST PUSH1 0x1F DUP2 GT PUSH2 0x751 JUMPI JUMPDEST POP PUSH1 0x20 SWAP1 PUSH1 0x1F DUP4 GT PUSH1 0x1 EQ PUSH2 0x6DF JUMPI PUSH1 0x0 SWAP3 PUSH2 0x6D4 JUMPI JUMPDEST POP POP DUP2 PUSH1 0x1 SHL SWAP2 PUSH1 0x0 NOT SWAP1 PUSH1 0x3 SHL SHR NOT AND OR PUSH1 0x1 DUP3 ADD SSTORE JUMPDEST PUSH1 0x40 DUP6 ADD MLOAD SWAP5 DUP6 MLOAD PUSH8 0xFFFFFFFFFFFFFFFF DUP2 GT PUSH2 0x6BE JUMPI PUSH2 0x492 PUSH1 0x2 DUP5 ADD SLOAD PUSH2 0x1DA3 JUMP JUMPDEST PUSH1 0x1F DUP2 GT PUSH2 0x677 JUMPI JUMPDEST POP PUSH1 0x20 PUSH1 0x1F DUP3 GT PUSH1 0x1 EQ PUSH2 0x5DF JUMPI SWAP2 DUP2 PUSH2 0x160 SWAP3 PUSH1 0xA SWAP5 PUSH32 0xA57590356B27448860A006F0265445002790351FE29648717DF7EC7481C9E4DF SWAP9 SWAP10 SWAP11 PUSH1 0x0 SWAP3 PUSH2 0x5D4 JUMPI JUMPDEST POP POP DUP2 PUSH1 0x1 SHL SWAP2 PUSH1 0x0 NOT SWAP1 PUSH1 0x3 SHL SHR NOT AND OR PUSH1 0x2 DUP6 ADD SSTORE JUMPDEST PUSH1 0x60 DUP2 ADD MLOAD PUSH1 0x3 DUP6 ADD SSTORE PUSH1 0x80 DUP2 ADD MLOAD PUSH1 0x4 DUP6 ADD SSTORE PUSH1 0x5 DUP5 ADD PUSH1 0x1 DUP1 PUSH1 0xA0 SHL SUB SWAP1 DUP2 PUSH1 0xA0 DUP5 ADD MLOAD AND DUP2 SLOAD SWAP1 PUSH1 0xFF PUSH1 0xA0 SHL PUSH1 0xC0 DUP7 ADD MLOAD ISZERO ISZERO PUSH1 0xA0 SHL AND SWAP2 PUSH11 0xFFFFFFFFFFFFFFFFFFFFFF PUSH1 0xA8 SHL AND OR OR SWAP1 SSTORE PUSH1 0x6 DUP6 ADD SWAP1 PUSH1 0xE0 DUP4 ADD MLOAD AND PUSH1 0x1 PUSH1 0x1 PUSH1 0x60 SHL SUB PUSH1 0xA0 SHL DUP3 SLOAD AND OR SWAP1 SSTORE PUSH2 0x100 DUP2 ADD MLOAD PUSH1 0x7 DUP6 ADD SSTORE PUSH2 0x120 DUP2 ADD MLOAD PUSH1 0x8 DUP6 ADD SSTORE PUSH2 0x140 DUP2 ADD MLOAD PUSH1 0x9 DUP6 ADD SSTORE ADD MLOAD SWAP2 ADD SSTORE CALLER PUSH1 0x0 MSTORE PUSH1 0x0 PUSH1 0x20 MSTORE PUSH1 0x4 PUSH1 0x40 PUSH1 0x0 KECCAK256 ADD PUSH2 0x5A4 DUP6 CALLDATALOAD DUP3 SLOAD PUSH2 0x1FFC JUMP JUMPDEST SWAP1 SSTORE PUSH1 0x7 SLOAD SWAP3 PUSH2 0x5BF PUSH1 0x40 MLOAD SWAP3 PUSH1 0x60 DUP5 MSTORE PUSH1 0x60 DUP5 ADD SWAP1 PUSH2 0x1CC3 JUMP JUMPDEST SWAP5 CALLDATALOAD PUSH1 0x20 DUP4 ADD MSTORE CALLDATALOAD PUSH1 0x40 DUP3 ADD MSTORE DUP1 CALLER SWAP5 SUB SWAP1 LOG3 STOP JUMPDEST ADD MLOAD SWAP1 POP DUP11 DUP1 PUSH2 0x4DE JUMP JUMPDEST PUSH1 0x2 DUP5 ADD PUSH1 0x0 MSTORE PUSH1 0x20 PUSH1 0x0 KECCAK256 SWAP8 PUSH1 0x0 JUMPDEST PUSH1 0x1F NOT DUP5 AND DUP2 LT PUSH2 0x65F JUMPI POP DUP3 PUSH32 0xA57590356B27448860A006F0265445002790351FE29648717DF7EC7481C9E4DF SWAP8 SWAP9 SWAP10 PUSH1 0xA SWAP6 SWAP4 PUSH1 0x1 SWAP4 PUSH2 0x160 SWAP7 PUSH1 0x1F NOT DUP2 AND LT PUSH2 0x646 JUMPI JUMPDEST POP POP POP DUP2 SHL ADD PUSH1 0x2 DUP6 ADD SSTORE PUSH2 0x4F6 JUMP JUMPDEST ADD MLOAD PUSH1 0x0 NOT PUSH1 0xF8 DUP5 PUSH1 0x3 SHL AND SHR NOT AND SWAP1 SSTORE DUP11 DUP1 DUP1 PUSH2 0x636 JUMP JUMPDEST DUP3 DUP3 ADD MLOAD DUP11 SSTORE PUSH1 0x1 SWAP1 SWAP10 ADD SWAP9 PUSH1 0x20 SWAP3 DUP4 ADD SWAP3 ADD PUSH2 0x5EF JUMP JUMPDEST PUSH1 0x2 DUP5 ADD PUSH1 0x0 MSTORE PUSH1 0x20 PUSH1 0x0 KECCAK256 PUSH1 0x1F DUP4 ADD PUSH1 0x5 SHR DUP2 ADD PUSH1 0x20 DUP5 LT PUSH2 0x6B7 JUMPI JUMPDEST PUSH1 0x1F DUP4 ADD PUSH1 0x5 SHR DUP3 ADD DUP2 LT PUSH2 0x6AB JUMPI POP POP PUSH2 0x49B JUMP JUMPDEST PUSH1 0x0 DUP2 SSTORE PUSH1 0x1 ADD PUSH2 0x695 JUMP JUMPDEST POP DUP1 PUSH2 0x695 JUMP JUMPDEST PUSH4 0x4E487B71 PUSH1 0xE0 SHL PUSH1 0x0 MSTORE PUSH1 0x41 PUSH1 0x4 MSTORE PUSH1 0x24 PUSH1 0x0 REVERT JUMPDEST ADD MLOAD SWAP1 POP DUP8 DUP1 PUSH2 0x456 JUMP JUMPDEST SWAP3 POP PUSH1 0x1 DUP5 ADD PUSH1 0x0 MSTORE PUSH1 0x20 PUSH1 0x0 KECCAK256 SWAP1 PUSH1 0x0 SWAP4 JUMPDEST PUSH1 0x1F NOT DUP5 AND DUP6 LT PUSH2 0x736 JUMPI PUSH1 0x1 SWAP5 POP DUP4 PUSH1 0x1F NOT DUP2 AND LT PUSH2 0x71D JUMPI JUMPDEST POP POP POP DUP2 SHL ADD PUSH1 0x1 DUP3 ADD SSTORE PUSH2 0x46E JUMP JUMPDEST ADD MLOAD PUSH1 0x0 NOT PUSH1 0xF8 DUP5 PUSH1 0x3 SHL AND SHR NOT AND SWAP1 SSTORE DUP8 DUP1 DUP1 PUSH2 0x70D JUMP JUMPDEST DUP2 DUP2 ADD MLOAD DUP4 SSTORE PUSH1 0x20 SWAP5 DUP6 ADD SWAP5 PUSH1 0x1 SWAP1 SWAP4 ADD SWAP3 SWAP1 SWAP2 ADD SWAP1 PUSH2 0x6F2 JUMP JUMPDEST SWAP1 SWAP2 POP PUSH1 0x1 DUP5 ADD PUSH1 0x0 MSTORE PUSH1 0x20 PUSH1 0x0 KECCAK256 PUSH1 0x1F DUP5 ADD PUSH1 0x5 SHR DUP2 ADD PUSH1 0x20 DUP6 LT PUSH2 0x79D JUMPI JUMPDEST SWAP1 DUP5 SWAP4 SWAP3 SWAP2 JUMPDEST PUSH1 0x1F DUP4 ADD PUSH1 0x5 SHR DUP3 ADD DUP2 LT PUSH2 0x78E JUMPI POP POP PUSH2 0x43F JUMP JUMPDEST PUSH1 0x0 DUP2 SSTORE DUP6 SWAP5 POP PUSH1 0x1 ADD PUSH2 0x778 JUMP JUMPDEST POP DUP1 PUSH2 0x772 JUMP JUMPDEST PUSH1 0x40 MLOAD PUSH3 0x461BCD PUSH1 0xE5 SHL DUP2 MSTORE PUSH1 0x20 PUSH1 0x4 DUP3 ADD MSTORE PUSH1 0x24 DUP1 DUP3 ADD MSTORE PUSH32 0x496E73756666696369656E742062616C616E636520746F206973737565207465 DUP2 DUP6 ADD MSTORE PUSH4 0x373232B9 PUSH1 0xE1 SHL DUP2 DUP5 ADD MSTORE PUSH1 0x84 SWAP1 REVERT JUMPDEST PUSH1 0x40 MLOAD PUSH3 0x461BCD PUSH1 0xE5 SHL DUP2 MSTORE PUSH1 0x20 PUSH1 0x4 DUP3 ADD MSTORE PUSH1 0x2E PUSH1 0x24 DUP3 ADD MSTORE PUSH32 0x4D6178696D756D2062696420616D6F756E742063616E6E6F7420657863656564 DUP2 DUP6 ADD MSTORE PUSH14 0x81D195B99195C88185B5BDD5B9D PUSH1 0x92 SHL DUP2 DUP5 ADD MSTORE PUSH1 0x84 SWAP1 REVERT JUMPDEST PUSH1 0x40 MLOAD PUSH3 0x461BCD PUSH1 0xE5 SHL DUP2 MSTORE PUSH1 0x20 PUSH1 0x4 DUP3 ADD MSTORE PUSH1 0x3A PUSH1 0x24 DUP3 ADD MSTORE PUSH32 0x4D6178696D756D2062696420616D6F756E74206D757374206265206772656174 DUP2 DUP6 ADD MSTORE PUSH32 0x6572207468616E206D696E696D756D2062696420616D6F756E74000000000000 DUP2 DUP5 ADD MSTORE PUSH1 0x84 SWAP1 REVERT JUMPDEST PUSH1 0x40 MLOAD PUSH3 0x461BCD PUSH1 0xE5 SHL DUP2 MSTORE PUSH1 0x20 PUSH1 0x4 DUP3 ADD MSTORE PUSH1 0x29 PUSH1 0x24 DUP3 ADD MSTORE PUSH32 0x4D696E696D756D2062696420616D6F756E74206D757374206265206772656174 DUP2 DUP6 ADD MSTORE PUSH9 0x6572207468616E203 PUSH1 0xBC SHL DUP2 DUP5 ADD MSTORE PUSH1 0x84 SWAP1 REVERT JUMPDEST PUSH1 0x40 MLOAD PUSH3 0x461BCD PUSH1 0xE5 SHL DUP2 MSTORE PUSH1 0x20 PUSH1 0x4 DUP3 ADD MSTORE PUSH1 0x2A PUSH1 0x24 DUP3 ADD MSTORE PUSH32 0x4465736372697074696F6E206D757374206265206174206C6561737420313020 DUP2 DUP6 ADD MSTORE PUSH10 0x63686172616374657273 PUSH1 0xB0 SHL DUP2 DUP5 ADD MSTORE PUSH1 0x84 SWAP1 REVERT JUMPDEST PUSH1 0x40 MLOAD PUSH3 0x461BCD PUSH1 0xE5 SHL DUP2 MSTORE PUSH1 0x20 PUSH1 0x4 DUP3 ADD MSTORE PUSH1 0x23 PUSH1 0x24 DUP3 ADD MSTORE PUSH32 0x5469746C65206D757374206265206174206C6561737420332063686172616374 DUP2 DUP6 ADD MSTORE PUSH3 0x657273 PUSH1 0xE8 SHL DUP2 DUP5 ADD MSTORE PUSH1 0x84 SWAP1 REVERT JUMPDEST POP SWAP1 PUSH32 0x446561646C696E65206D75737420626520696E20746865206675747572650000 PUSH1 0x40 MLOAD SWAP2 PUSH3 0x461BCD PUSH1 0xE5 SHL DUP4 MSTORE PUSH1 0x20 PUSH1 0x4 DUP5 ADD MSTORE PUSH1 0x1E PUSH1 0x24 DUP5 ADD MSTORE DUP3 ADD MSTORE REVERT JUMPDEST CALLVALUE PUSH2 0x2BC JUMPI PUSH1 0x20 CALLDATASIZE PUSH1 0x3 NOT ADD SLT PUSH2 0x2BC JUMPI PUSH1 0x4 CALLDATALOAD PUSH1 0x0 MSTORE PUSH1 0x2 PUSH1 0x20 MSTORE PUSH1 0x80 PUSH1 0x40 PUSH1 0x0 KECCAK256 DUP1 SLOAD SWAP1 PUSH1 0x1 DUP1 PUSH1 0xA0 SHL SUB PUSH1 0x1 DUP3 ADD SLOAD AND SWAP1 PUSH1 0x3 PUSH1 0x2 DUP3 ADD SLOAD SWAP2 ADD SLOAD SWAP2 PUSH1 0x40 MLOAD SWAP4 DUP5 MSTORE PUSH1 0x20 DUP5 ADD MSTORE PUSH1 0x40 DUP4 ADD MSTORE PUSH1 0x60 DUP3 ADD MSTORE RETURN JUMPDEST CALLVALUE PUSH2 0x2BC JUMPI PUSH1 0x20 DUP1 PUSH1 0x3 NOT CALLDATASIZE ADD SLT PUSH2 0x2BC JUMPI PUSH1 0x4 CALLDATALOAD SWAP1 CALLER PUSH1 0x0 MSTORE PUSH1 0x0 DUP2 MSTORE PUSH2 0xA78 PUSH1 0xFF PUSH1 0x40 PUSH1 0x0 KECCAK256 SLOAD AND PUSH2 0x1F51 JUMP JUMPDEST PUSH2 0xA83 DUP3 ISZERO ISZERO PUSH2 0x1F94 JUMP JUMPDEST PUSH2 0xA8E PUSH1 0x6 SLOAD PUSH2 0x1FE0 JUMP JUMPDEST DUP1 PUSH1 0x6 SSTORE PUSH1 0x3 PUSH1 0x40 MLOAD SWAP2 PUSH2 0xAA1 DUP4 PUSH2 0x1E16 JUMP JUMPDEST DUP1 DUP4 MSTORE DUP4 DUP4 ADD CALLER DUP2 MSTORE PUSH1 0x40 DUP5 ADD SWAP1 DUP7 DUP3 MSTORE PUSH1 0x60 DUP6 ADD SWAP3 TIMESTAMP DUP5 MSTORE PUSH1 0x0 MSTORE PUSH1 0x2 DUP7 MSTORE PUSH1 0x40 PUSH1 0x0 KECCAK256 SWAP5 MLOAD DUP6 SSTORE PUSH1 0x1 DUP6 ADD SWAP1 PUSH1 0x1 DUP1 PUSH1 0xA0 SHL SUB SWAP1 MLOAD AND PUSH1 0x1 PUSH1 0x1 PUSH1 0x60 SHL SUB PUSH1 0xA0 SHL DUP3 SLOAD AND OR SWAP1 SSTORE MLOAD PUSH1 0x2 DUP5 ADD SSTORE MLOAD SWAP2 ADD SSTORE CALLER PUSH1 0x0 MSTORE PUSH1 0x0 DUP2 MSTORE PUSH1 0x3 PUSH1 0x40 PUSH1 0x0 KECCAK256 ADD PUSH2 0xB0F DUP4 DUP3 SLOAD PUSH2 0x1FEF JUMP JUMPDEST SWAP1 SSTORE PUSH32 0xD26743B74D62DD5AD8E62C8DE6634906ADC90975C3BF8085F74D522960D2EB5D PUSH1 0x6 SLOAD SWAP2 PUSH1 0x40 MLOAD SWAP4 DUP5 MSTORE CALLER SWAP4 LOG3 STOP JUMPDEST CALLVALUE PUSH2 0x2BC JUMPI PUSH2 0xB4F CALLDATASIZE PUSH2 0x1CAD JUMP JUMPDEST DUP2 PUSH1 0x0 MSTORE PUSH1 0x20 PUSH1 0x3 DUP2 MSTORE PUSH1 0xFF SWAP1 PUSH1 0x5 SWAP2 PUSH2 0xB74 DUP2 DUP5 PUSH1 0x40 PUSH1 0x0 KECCAK256 ADD SLOAD PUSH1 0xA0 SHR AND PUSH2 0x2009 JUMP JUMPDEST DUP5 PUSH1 0x0 MSTORE PUSH1 0x3 DUP3 MSTORE PUSH2 0xB8F PUSH1 0x4 PUSH1 0x40 PUSH1 0x0 KECCAK256 ADD SLOAD TIMESTAMP LT PUSH2 0x204C JUMP JUMPDEST DUP5 PUSH1 0x0 MSTORE PUSH1 0x4 DUP3 MSTORE PUSH1 0x40 PUSH1 0x0 KECCAK256 DUP5 PUSH1 0x0 MSTORE DUP3 MSTORE PUSH1 0x1 DUP1 PUSH1 0xA0 SHL SUB SWAP2 PUSH1 0x1 DUP4 DUP2 PUSH1 0x40 PUSH1 0x0 KECCAK256 ADD SLOAD AND CALLER SUB PUSH2 0xDB9 JUMPI DUP7 PUSH1 0x0 MSTORE PUSH1 0x4 DUP3 MSTORE PUSH1 0x40 PUSH1 0x0 KECCAK256 DUP7 PUSH1 0x0 MSTORE DUP3 MSTORE DUP3 PUSH1 0x4 PUSH1 0x40 PUSH1 0x0 KECCAK256 ADD SLOAD AND PUSH2 0xD7C JUMPI DUP7 PUSH1 0x0 MSTORE PUSH1 0x4 DUP3 MSTORE PUSH1 0x40 PUSH1 0x0 KECCAK256 DUP7 PUSH1 0x0 MSTORE DUP3 MSTORE PUSH1 0x4 PUSH1 0x40 PUSH1 0x0 KECCAK256 ADD DUP2 PUSH1 0xFF NOT DUP3 SLOAD AND OR SWAP1 SSTORE DUP7 PUSH1 0x0 MSTORE PUSH1 0x3 DUP3 MSTORE PUSH1 0xA PUSH1 0x40 PUSH1 0x0 KECCAK256 ADD DUP1 SLOAD DUP1 ISZERO PUSH2 0xD66 JUMPI PUSH1 0x0 NOT ADD SWAP1 SSTORE DUP7 PUSH1 0x0 MSTORE PUSH1 0x3 DUP3 MSTORE DUP4 PUSH1 0x6 PUSH1 0x40 PUSH1 0x0 KECCAK256 ADD SLOAD AND CALLER EQ PUSH2 0xC65 JUMPI JUMPDEST CALLER DUP7 DUP9 PUSH32 0xB41C9B05054BE45850CCC1DA7D90C7B819CFF855CFE0D14F16427398B286C9B6 PUSH1 0x0 DUP1 LOG4 STOP JUMPDEST PUSH1 0x0 SWAP3 PUSH1 0x0 SWAP6 DUP3 PUSH1 0x0 SWAP1 JUMPDEST PUSH2 0xCAD JUMPI JUMPDEST POP POP POP POP SWAP1 PUSH1 0x3 PUSH1 0x6 SWAP3 DUP8 PUSH1 0x0 MSTORE MSTORE PUSH1 0x40 PUSH1 0x0 KECCAK256 SWAP1 PUSH1 0x7 DUP3 ADD SSTORE ADD SWAP2 AND PUSH1 0x1 PUSH1 0x1 PUSH1 0x60 SHL SUB PUSH1 0xA0 SHL DUP3 SLOAD AND OR SWAP1 SSTORE DUP3 DUP1 DUP1 DUP1 DUP1 PUSH2 0xC3B JUMP JUMPDEST DUP10 PUSH1 0x0 MSTORE DUP2 DUP6 MSTORE PUSH1 0x40 PUSH1 0x0 KECCAK256 SLOAD DUP2 LT ISZERO PUSH2 0xD61 JUMPI PUSH1 0x4 DUP6 MSTORE PUSH1 0x40 PUSH1 0x0 KECCAK256 DUP2 PUSH1 0x0 MSTORE DUP6 MSTORE DUP3 PUSH1 0x4 PUSH1 0x40 PUSH1 0x0 KECCAK256 ADD SLOAD AND ISZERO DUP1 PUSH2 0xD35 JUMPI JUMPDEST PUSH2 0xCFB JUMPI JUMPDEST SWAP1 PUSH2 0xCF3 DUP5 SWAP4 SWAP3 PUSH2 0x1FE0 JUMP JUMPDEST SWAP1 SWAP2 SWAP3 PUSH2 0xC70 JUMP JUMPDEST PUSH1 0x0 DUP11 DUP2 MSTORE PUSH1 0x4 DUP1 DUP8 MSTORE PUSH1 0x40 DUP1 DUP4 KECCAK256 DUP5 DUP5 MSTORE DUP9 MSTORE DUP1 DUP4 KECCAK256 PUSH1 0x2 ADD SLOAD DUP14 DUP5 MSTORE SWAP2 DUP9 MSTORE DUP1 DUP4 KECCAK256 DUP5 DUP5 MSTORE DUP9 MSTORE SWAP1 SWAP2 KECCAK256 DUP6 ADD SLOAD DUP9 AND SWAP9 POP SWAP6 POP PUSH2 0xCE7 JUMP JUMPDEST POP DUP6 ISZERO DUP1 PUSH2 0xCE2 JUMPI POP DUP10 PUSH1 0x0 MSTORE PUSH1 0x4 DUP6 MSTORE PUSH1 0x40 PUSH1 0x0 KECCAK256 DUP2 PUSH1 0x0 MSTORE DUP6 MSTORE DUP6 PUSH1 0x2 PUSH1 0x40 PUSH1 0x0 KECCAK256 ADD SLOAD LT PUSH2 0xCE2 JUMP JUMPDEST PUSH2 0xC75 JUMP JUMPDEST PUSH4 0x4E487B71 PUSH1 0xE0 SHL PUSH1 0x0 MSTORE PUSH1 0x11 PUSH1 0x4 MSTORE PUSH1 0x24 PUSH1 0x0 REVERT JUMPDEST PUSH1 0x40 MLOAD PUSH3 0x461BCD PUSH1 0xE5 SHL DUP2 MSTORE PUSH1 0x4 DUP2 ADD DUP4 SWAP1 MSTORE PUSH1 0x15 PUSH1 0x24 DUP3 ADD MSTORE PUSH21 0x2134B21030B63932B0B23C903BB4BA34323930BBB7 PUSH1 0x59 SHL PUSH1 0x44 DUP3 ADD MSTORE PUSH1 0x64 SWAP1 REVERT JUMPDEST PUSH1 0x40 MLOAD PUSH3 0x461BCD PUSH1 0xE5 SHL DUP2 MSTORE PUSH1 0x4 DUP2 ADD DUP4 SWAP1 MSTORE PUSH1 0x1C PUSH1 0x24 DUP3 ADD MSTORE PUSH32 0x4F6E6C79206269646465722063616E2077697468647261772062696400000000 PUSH1 0x44 DUP3 ADD MSTORE PUSH1 0x64 SWAP1 REVERT JUMPDEST CALLVALUE PUSH2 0x2BC JUMPI PUSH1 0x20 DUP1 PUSH1 0x3 NOT CALLDATASIZE ADD SLT PUSH2 0x2BC JUMPI PUSH1 0x4 CALLDATALOAD DUP1 PUSH1 0x0 MSTORE PUSH1 0x3 SWAP2 DUP3 DUP2 MSTORE PUSH2 0xE34 PUSH1 0xFF PUSH1 0x5 PUSH1 0x40 PUSH1 0x0 KECCAK256 ADD SLOAD PUSH1 0xA0 SHR AND PUSH2 0x2009 JUMP JUMPDEST DUP2 PUSH1 0x0 MSTORE DUP3 DUP2 MSTORE PUSH1 0x4 PUSH1 0x40 PUSH1 0x0 KECCAK256 ADD SLOAD TIMESTAMP LT PUSH2 0xF79 JUMPI PUSH1 0x0 DUP3 DUP2 MSTORE DUP4 DUP3 MSTORE PUSH1 0x40 SWAP1 KECCAK256 PUSH1 0x6 ADD SLOAD PUSH1 0x1 PUSH1 0x1 PUSH1 0xA0 SHL SUB SWAP1 DUP2 AND ISZERO PUSH2 0xF3E JUMPI DUP3 PUSH1 0x0 MSTORE DUP4 DUP3 MSTORE DUP1 PUSH1 0x5 PUSH1 0x40 PUSH1 0x0 KECCAK256 ADD SLOAD AND CALLER SUB PUSH2 0xEF9 JUMPI SWAP1 PUSH1 0x7 PUSH32 0xB6DA2D97C7BE1B795C416CC5E17D479A1A6FB59B6E95214EE25AAAF42796C802 SWAP3 DUP5 PUSH1 0x0 MSTORE DUP6 DUP4 MSTORE PUSH1 0x40 PUSH1 0x0 KECCAK256 SWAP6 PUSH1 0x5 DUP8 ADD PUSH1 0xFF PUSH1 0xA0 SHL NOT DUP2 SLOAD AND SWAP1 SSTORE DUP7 ADD SLOAD PUSH1 0x6 DUP8 ADD SWAP1 DUP3 DUP3 SLOAD AND PUSH1 0x0 MSTORE PUSH1 0x0 DUP6 MSTORE PUSH2 0xEE9 PUSH1 0x4 PUSH1 0x40 PUSH1 0x0 KECCAK256 ADD SWAP2 DUP3 SLOAD PUSH2 0x1FEF JUMP JUMPDEST SWAP1 SSTORE SLOAD AND SWAP5 ADD SLOAD PUSH1 0x40 MLOAD SWAP1 DUP2 MSTORE LOG3 STOP JUMPDEST PUSH1 0x40 MLOAD PUSH3 0x461BCD PUSH1 0xE5 SHL DUP2 MSTORE PUSH1 0x4 DUP2 ADD DUP4 SWAP1 MSTORE PUSH1 0x1C PUSH1 0x24 DUP3 ADD MSTORE PUSH32 0x4F6E6C79206973737565722063616E2061776172642074656E64657200000000 PUSH1 0x44 DUP3 ADD MSTORE PUSH1 0x64 SWAP1 REVERT JUMPDEST PUSH1 0x40 MLOAD PUSH3 0x461BCD PUSH1 0xE5 SHL DUP2 MSTORE PUSH1 0x4 DUP2 ADD DUP4 SWAP1 MSTORE PUSH1 0x13 PUSH1 0x24 DUP3 ADD MSTORE PUSH19 0x139BC81D985B1A5908189A591CC8199BDD5B99 PUSH1 0x6A SHL PUSH1 0x44 DUP3 ADD MSTORE PUSH1 0x64 SWAP1 REVERT JUMPDEST PUSH1 0x64 SWAP1 PUSH1 0x40 MLOAD SWAP1 PUSH3 0x461BCD PUSH1 0xE5 SHL DUP3 MSTORE PUSH1 0x4 DUP3 ADD MSTORE PUSH1 0x1E PUSH1 0x24 DUP3 ADD MSTORE PUSH32 0x54656E64657220646561646C696E6520686173206E6F74207061737365640000 PUSH1 0x44 DUP3 ADD MSTORE REVERT JUMPDEST CALLVALUE PUSH2 0x2BC JUMPI PUSH2 0xFCB CALLDATASIZE PUSH2 0x1CAD JUMP JUMPDEST SWAP1 PUSH1 0x0 MSTORE PUSH1 0x4 PUSH1 0x20 MSTORE PUSH1 0x40 PUSH1 0x0 KECCAK256 SWAP1 PUSH1 0x0 MSTORE PUSH1 0x20 MSTORE PUSH1 0xA0 PUSH1 0x40 PUSH1 0x0 KECCAK256 DUP1 SLOAD SWAP1 PUSH1 0x1 DUP1 DUP5 SHL SUB PUSH1 0x1 DUP3 ADD SLOAD AND SWAP1 PUSH1 0x2 DUP2 ADD SLOAD PUSH1 0xFF PUSH1 0x4 PUSH1 0x3 DUP5 ADD SLOAD SWAP4 ADD SLOAD AND SWAP3 PUSH1 0x40 MLOAD SWAP5 DUP6 MSTORE PUSH1 0x20 DUP6 ADD MSTORE PUSH1 0x40 DUP5 ADD MSTORE PUSH1 0x60 DUP4 ADD MSTORE ISZERO ISZERO PUSH1 0x80 DUP3 ADD MSTORE RETURN JUMPDEST CALLVALUE PUSH2 0x2BC JUMPI PUSH1 0x20 DUP1 PUSH1 0x3 NOT CALLDATASIZE ADD SLT PUSH2 0x2BC JUMPI PUSH2 0x1042 PUSH2 0x1C97 JUMP JUMPDEST SWAP1 CALLER PUSH1 0x0 MSTORE PUSH1 0x1 SWAP1 DUP2 DUP2 MSTORE PUSH1 0x40 PUSH1 0x0 KECCAK256 SWAP3 PUSH1 0x1 DUP1 PUSH1 0xA0 SHL SUB AND SWAP3 DUP4 PUSH1 0x0 MSTORE DUP2 MSTORE PUSH1 0xFF PUSH1 0x40 PUSH1 0x0 KECCAK256 SLOAD AND PUSH2 0x116C JUMPI DUP3 PUSH1 0x0 MSTORE PUSH1 0x0 DUP2 MSTORE PUSH2 0x1088 PUSH1 0xFF PUSH1 0x40 PUSH1 0x0 KECCAK256 SLOAD AND PUSH2 0x1F51 JUMP JUMPDEST DUP3 PUSH1 0x0 MSTORE PUSH1 0x0 DUP2 MSTORE DUP2 PUSH1 0x40 PUSH1 0x0 KECCAK256 ADD CALLER PUSH1 0x0 MSTORE DUP2 MSTORE PUSH1 0x40 PUSH1 0x0 KECCAK256 SLOAD PUSH2 0x1128 JUMPI DUP3 PUSH1 0x0 MSTORE PUSH1 0x0 DUP2 MSTORE DUP2 PUSH1 0x40 PUSH1 0x0 KECCAK256 ADD CALLER PUSH1 0x0 MSTORE DUP2 MSTORE DUP2 PUSH1 0x40 PUSH1 0x0 KECCAK256 SSTORE DUP3 PUSH1 0x0 MSTORE PUSH1 0x0 DUP2 MSTORE PUSH1 0x2 PUSH1 0x40 PUSH1 0x0 KECCAK256 ADD PUSH2 0x10DD DUP2 SLOAD PUSH2 0x1FE0 JUMP JUMPDEST SWAP1 SSTORE CALLER PUSH1 0x0 MSTORE DUP2 DUP2 MSTORE PUSH1 0x40 PUSH1 0x0 KECCAK256 SWAP1 DUP4 PUSH1 0x0 MSTORE MSTORE PUSH1 0x40 PUSH1 0x0 KECCAK256 SWAP1 PUSH1 0xFF NOT DUP3 SLOAD AND OR SWAP1 SSTORE CALLER PUSH32 0xCE0C7A2A940807F7DC2CE7A615C2532E915E6C0AC9A08BC4ED9D515A710A53E2 PUSH1 0x0 DUP1 LOG3 STOP JUMPDEST PUSH1 0x64 SWAP1 PUSH1 0x40 MLOAD SWAP1 PUSH3 0x461BCD PUSH1 0xE5 SHL DUP3 MSTORE PUSH1 0x4 DUP3 ADD MSTORE PUSH1 0x1D PUSH1 0x24 DUP3 ADD MSTORE PUSH32 0x416C726561647920766F74656420666F72207468697320656E74697479000000 PUSH1 0x44 DUP3 ADD MSTORE REVERT JUMPDEST PUSH1 0x84 SWAP1 PUSH1 0x40 MLOAD SWAP1 PUSH3 0x461BCD PUSH1 0xE5 SHL DUP3 MSTORE PUSH1 0x4 DUP3 ADD MSTORE PUSH1 0x26 PUSH1 0x24 DUP3 ADD MSTORE PUSH32 0x596F75206861766520616C726561647920766F74656420666F72207468697320 PUSH1 0x44 DUP3 ADD MSTORE PUSH6 0x656E74697479 PUSH1 0xD0 SHL PUSH1 0x64 DUP3 ADD MSTORE REVERT JUMPDEST CALLVALUE PUSH2 0x2BC JUMPI PUSH2 0x11CD CALLDATASIZE PUSH2 0x1CAD JUMP JUMPDEST CALLER PUSH1 0x0 MSTORE PUSH1 0x20 PUSH1 0x0 DUP2 MSTORE PUSH2 0x11E8 PUSH1 0xFF PUSH1 0x40 PUSH1 0x0 KECCAK256 SLOAD AND PUSH2 0x1F51 JUMP JUMPDEST DUP3 PUSH1 0x0 MSTORE PUSH1 0x3 SWAP1 DUP2 DUP2 MSTORE PUSH2 0x1209 PUSH1 0xFF PUSH1 0x5 PUSH1 0x40 PUSH1 0x0 KECCAK256 ADD SLOAD PUSH1 0xA0 SHR AND PUSH2 0x2009 JUMP JUMPDEST DUP4 PUSH1 0x0 MSTORE DUP2 DUP2 MSTORE PUSH2 0x1223 PUSH1 0x4 PUSH1 0x40 PUSH1 0x0 KECCAK256 ADD SLOAD TIMESTAMP LT PUSH2 0x204C JUMP JUMPDEST PUSH1 0x0 DUP5 DUP2 MSTORE DUP3 DUP3 MSTORE PUSH1 0x40 SWAP1 KECCAK256 PUSH1 0x5 ADD SLOAD PUSH1 0x1 PUSH1 0x1 PUSH1 0xA0 SHL SUB SWAP5 SWAP1 DUP6 AND CALLER EQ PUSH2 0x141D JUMPI DUP1 PUSH1 0x0 MSTORE DUP3 DUP3 MSTORE PUSH1 0x8 PUSH1 0x40 PUSH1 0x0 KECCAK256 ADD SLOAD DUP5 LT PUSH2 0x13D8 JUMPI DUP1 PUSH1 0x0 MSTORE DUP3 DUP3 MSTORE PUSH1 0x9 PUSH1 0x40 PUSH1 0x0 KECCAK256 ADD SLOAD DUP5 GT PUSH2 0x1393 JUMPI DUP1 PUSH1 0x0 MSTORE PUSH1 0x5 DUP3 MSTORE PUSH1 0x40 PUSH1 0x0 KECCAK256 DUP1 SLOAD SWAP1 PUSH2 0x128A DUP3 PUSH2 0x1FE0 JUMP JUMPDEST SWAP1 SSTORE PUSH1 0x40 MLOAD SWAP6 PUSH2 0x1299 DUP8 PUSH2 0x1DDD JUMP JUMPDEST DUP2 DUP8 MSTORE PUSH1 0x4 DUP5 DUP9 ADD SWAP8 CALLER DUP10 MSTORE PUSH1 0x40 DUP2 ADD DUP9 DUP2 MSTORE PUSH1 0x60 DUP3 ADD SWAP1 TIMESTAMP DUP3 MSTORE PUSH1 0x80 DUP4 ADD SWAP5 PUSH1 0x0 DUP7 MSTORE DUP8 PUSH1 0x0 MSTORE DUP5 DUP10 MSTORE PUSH1 0x40 PUSH1 0x0 KECCAK256 DUP8 PUSH1 0x0 MSTORE DUP10 MSTORE PUSH1 0x40 PUSH1 0x0 KECCAK256 SWAP4 MLOAD DUP5 SSTORE PUSH1 0x1 DUP5 ADD SWAP12 MLOAD AND SWAP11 PUSH1 0x1 PUSH1 0x1 PUSH1 0x60 SHL SUB PUSH1 0xA0 SHL SWAP12 DUP13 DUP3 SLOAD AND OR SWAP1 SSTORE MLOAD PUSH1 0x2 DUP4 ADD SSTORE MLOAD DUP8 DUP3 ADD SSTORE ADD SWAP1 MLOAD ISZERO ISZERO PUSH1 0xFF DUP1 NOT DUP4 SLOAD AND SWAP2 AND OR SWAP1 SSTORE DUP2 PUSH1 0x0 MSTORE DUP4 DUP4 MSTORE PUSH1 0xA PUSH1 0x40 PUSH1 0x0 KECCAK256 ADD PUSH2 0x1328 DUP2 SLOAD PUSH2 0x1FE0 JUMP JUMPDEST SWAP1 SSTORE PUSH1 0x40 MLOAD SWAP1 DUP6 DUP3 MSTORE DUP3 PUSH32 0x6F7E354EA3AB5C288AEA37FCE29C603F9A98A3B040F6D8F32F10E192EC47FF6A DUP6 CALLER SWAP5 LOG4 PUSH1 0x0 MSTORE MSTORE PUSH1 0x40 PUSH1 0x0 KECCAK256 PUSH1 0x7 DUP2 ADD SWAP2 DUP3 SLOAD DUP1 ISZERO SWAP1 DUP2 ISZERO PUSH2 0x1389 JUMPI JUMPDEST POP PUSH2 0x1378 JUMPI STOP JUMPDEST SWAP1 SWAP2 SSTORE PUSH1 0x6 ADD DUP1 SLOAD SWAP1 SWAP2 AND CALLER OR SWAP1 SSTORE STOP JUMPDEST SWAP1 POP DUP2 LT DUP6 PUSH2 0x1371 JUMP JUMPDEST PUSH1 0x40 MLOAD PUSH3 0x461BCD PUSH1 0xE5 SHL DUP2 MSTORE PUSH1 0x4 DUP2 ADD DUP4 SWAP1 MSTORE PUSH1 0x18 PUSH1 0x24 DUP3 ADD MSTORE PUSH32 0x42696420616D6F756E742061626F7665206D6178696D756D0000000000000000 PUSH1 0x44 DUP3 ADD MSTORE PUSH1 0x64 SWAP1 REVERT JUMPDEST PUSH1 0x40 MLOAD PUSH3 0x461BCD PUSH1 0xE5 SHL DUP2 MSTORE PUSH1 0x4 DUP2 ADD DUP4 SWAP1 MSTORE PUSH1 0x18 PUSH1 0x24 DUP3 ADD MSTORE PUSH32 0x42696420616D6F756E742062656C6F77206D696E696D756D0000000000000000 PUSH1 0x44 DUP3 ADD MSTORE PUSH1 0x64 SWAP1 REVERT JUMPDEST PUSH1 0x40 MLOAD PUSH3 0x461BCD PUSH1 0xE5 SHL DUP2 MSTORE PUSH1 0x4 DUP2 ADD DUP4 SWAP1 MSTORE PUSH1 0x17 PUSH1 0x24 DUP3 ADD MSTORE PUSH32 0x4973737565722063616E6E6F7420706C61636520626964000000000000000000 PUSH1 0x44 DUP3 ADD MSTORE PUSH1 0x64 SWAP1 REVERT JUMPDEST CALLVALUE PUSH2 0x2BC JUMPI PUSH1 0x20 DUP1 PUSH1 0x3 NOT CALLDATASIZE ADD SLT PUSH2 0x2BC JUMPI PUSH1 0x4 CALLDATALOAD PUSH2 0x147F PUSH2 0x20DA JUMP JUMPDEST POP DUP1 ISZERO ISZERO DUP1 PUSH2 0x158A JUMPI JUMPDEST ISZERO PUSH2 0x1551 JUMPI PUSH1 0x0 MSTORE PUSH1 0x3 DUP2 MSTORE PUSH1 0x40 PUSH1 0x0 KECCAK256 SWAP1 PUSH1 0xA PUSH1 0x40 MLOAD SWAP3 PUSH2 0x14AA DUP5 PUSH2 0x1DF9 JUMP JUMPDEST DUP1 SLOAD DUP5 MSTORE PUSH2 0x14BA PUSH1 0x1 DUP3 ADD PUSH2 0x1E54 JUMP JUMPDEST DUP4 DUP6 ADD MSTORE PUSH2 0x14CA PUSH1 0x2 DUP3 ADD PUSH2 0x1E54 JUMP JUMPDEST PUSH1 0x40 DUP6 ADD MSTORE PUSH1 0x3 DUP2 ADD SLOAD PUSH1 0x60 DUP6 ADD MSTORE PUSH1 0x4 DUP2 ADD SLOAD PUSH1 0x80 DUP6 ADD MSTORE PUSH1 0x5 DUP2 ADD SLOAD PUSH1 0xFF PUSH1 0x1 DUP1 PUSH1 0xA0 SHL SUB SWAP2 DUP3 DUP2 AND PUSH1 0xA0 DUP9 ADD MSTORE PUSH1 0xA0 SHR AND ISZERO ISZERO PUSH1 0xC0 DUP7 ADD MSTORE PUSH1 0x6 DUP3 ADD SLOAD AND PUSH1 0xE0 DUP6 ADD MSTORE PUSH1 0x7 DUP2 ADD SLOAD PUSH2 0x100 DUP6 ADD MSTORE PUSH1 0x8 DUP2 ADD SLOAD PUSH2 0x120 DUP6 ADD MSTORE PUSH1 0x9 DUP2 ADD SLOAD PUSH2 0x140 DUP6 ADD MSTORE ADD SLOAD PUSH2 0x160 DUP4 ADD MSTORE PUSH2 0x154D PUSH1 0x40 MLOAD SWAP3 DUP3 DUP5 SWAP4 DUP5 MSTORE DUP4 ADD SWAP1 PUSH2 0x1D03 JUMP JUMPDEST SUB SWAP1 RETURN JUMPDEST PUSH1 0x40 MLOAD PUSH3 0x461BCD PUSH1 0xE5 SHL DUP2 MSTORE PUSH1 0x4 DUP2 ADD DUP4 SWAP1 MSTORE PUSH1 0x11 PUSH1 0x24 DUP3 ADD MSTORE PUSH17 0x125B9D985B1A59081D195B99195C881251 PUSH1 0x7A SHL PUSH1 0x44 DUP3 ADD MSTORE PUSH1 0x64 SWAP1 REVERT JUMPDEST POP PUSH1 0x7 SLOAD DUP2 GT ISZERO PUSH2 0x1489 JUMP JUMPDEST CALLVALUE PUSH2 0x2BC JUMPI PUSH1 0x0 CALLDATASIZE PUSH1 0x3 NOT ADD SLT PUSH2 0x2BC JUMPI PUSH1 0x20 PUSH1 0x6 SLOAD PUSH1 0x40 MLOAD SWAP1 DUP2 MSTORE RETURN JUMPDEST CALLVALUE PUSH2 0x2BC JUMPI PUSH1 0x40 CALLDATASIZE PUSH1 0x3 NOT ADD SLT PUSH2 0x2BC JUMPI PUSH2 0x15CD PUSH2 0x1C97 JUMP JUMPDEST PUSH1 0x1 PUSH1 0x1 PUSH1 0xA0 SHL SUB PUSH1 0x24 CALLDATALOAD DUP2 DUP2 AND SWAP3 SWAP1 DUP4 SWAP1 SUB PUSH2 0x2BC JUMPI AND PUSH1 0x0 MSTORE PUSH1 0x1 PUSH1 0x20 MSTORE PUSH1 0x40 PUSH1 0x0 KECCAK256 SWAP1 PUSH1 0x0 MSTORE PUSH1 0x20 MSTORE PUSH1 0x20 PUSH1 0xFF PUSH1 0x40 PUSH1 0x0 KECCAK256 SLOAD AND PUSH1 0x40 MLOAD SWAP1 ISZERO ISZERO DUP2 MSTORE RETURN JUMPDEST CALLVALUE PUSH2 0x2BC JUMPI PUSH1 0x20 CALLDATASIZE PUSH1 0x3 NOT ADD SLT PUSH2 0x2BC JUMPI PUSH1 0x4 CALLDATALOAD PUSH1 0x0 MSTORE PUSH1 0x3 PUSH1 0x20 MSTORE PUSH1 0x40 PUSH1 0x0 KECCAK256 DUP1 SLOAD PUSH2 0x163D PUSH1 0x1 DUP4 ADD PUSH2 0x1E54 JUMP JUMPDEST SWAP2 PUSH2 0x164A PUSH1 0x2 DUP3 ADD PUSH2 0x1E54 JUMP JUMPDEST PUSH1 0x3 DUP3 ADD SLOAD SWAP2 PUSH1 0x4 DUP2 ADD SLOAD PUSH1 0x5 DUP3 ADD SLOAD PUSH1 0x1 DUP1 PUSH1 0xA0 SHL SUB SWAP1 PUSH1 0xFF DUP3 PUSH1 0x6 DUP7 ADD SLOAD AND SWAP2 PUSH1 0x7 DUP7 ADD SLOAD SWAP4 PUSH1 0x8 DUP8 ADD SLOAD SWAP6 PUSH2 0x16B2 PUSH1 0xA PUSH1 0x9 DUP11 ADD SLOAD SWAP10 ADD SLOAD SWAP10 PUSH2 0x16A4 PUSH1 0x40 MLOAD SWAP15 DUP16 SWAP15 DUP16 SWAP1 DUP2 MSTORE PUSH2 0x180 SWAP1 DUP2 PUSH1 0x20 DUP3 ADD MSTORE ADD SWAP1 PUSH2 0x1CC3 JUMP JUMPDEST DUP14 DUP2 SUB PUSH1 0x40 DUP16 ADD MSTORE SWAP1 PUSH2 0x1CC3 JUMP JUMPDEST SWAP10 PUSH1 0x60 DUP13 ADD MSTORE PUSH1 0x80 DUP12 ADD MSTORE DUP2 AND PUSH1 0xA0 DUP11 ADD MSTORE PUSH1 0xA0 SHR AND ISZERO ISZERO PUSH1 0xC0 DUP9 ADD MSTORE PUSH1 0xE0 DUP8 ADD MSTORE PUSH2 0x100 DUP7 ADD MSTORE PUSH2 0x120 DUP6 ADD MSTORE PUSH2 0x140 DUP5 ADD MSTORE PUSH2 0x160 DUP4 ADD MSTORE SUB SWAP1 RETURN JUMPDEST CALLVALUE PUSH2 0x2BC JUMPI PUSH1 0x20 DUP1 PUSH1 0x3 NOT CALLDATASIZE ADD SLT PUSH2 0x2BC JUMPI PUSH1 0x4 CALLDATALOAD SWAP1 DUP2 PUSH1 0x0 MSTORE PUSH1 0x3 DUP2 MSTORE PUSH2 0x1725 PUSH1 0xFF PUSH1 0x5 PUSH1 0x40 PUSH1 0x0 KECCAK256 ADD SLOAD PUSH1 0xA0 SHR AND PUSH2 0x2009 JUMP JUMPDEST PUSH1 0x0 DUP3 DUP2 MSTORE PUSH1 0x3 DUP3 MSTORE PUSH1 0x40 SWAP1 KECCAK256 PUSH1 0x5 ADD SLOAD PUSH1 0x1 PUSH1 0x1 PUSH1 0xA0 SHL SUB SWAP2 SWAP1 DUP3 AND CALLER SUB PUSH2 0x17C9 JUMPI PUSH1 0x0 SWAP1 DUP4 DUP3 MSTORE PUSH1 0x3 DUP2 MSTORE PUSH2 0x1764 PUSH1 0x4 PUSH1 0x40 DUP5 KECCAK256 ADD SLOAD TIMESTAMP LT PUSH2 0x204C JUMP JUMPDEST DUP4 DUP3 MSTORE PUSH1 0x3 DUP2 MSTORE PUSH1 0x40 DUP3 KECCAK256 SWAP3 PUSH1 0x3 PUSH1 0x5 DUP6 ADD SWAP5 DUP6 SLOAD SWAP6 PUSH1 0xFF PUSH1 0xA0 SHL NOT DUP8 AND SWAP1 SSTORE ADD SLOAD SWAP4 AND DUP3 MSTORE MSTORE PUSH2 0x179E PUSH1 0x4 PUSH1 0x40 PUSH1 0x0 KECCAK256 ADD SWAP2 DUP3 SLOAD PUSH2 0x1FEF JUMP JUMPDEST SWAP1 SSTORE CALLER SWAP1 PUSH32 0x116BCF29F123D8A1761E1B9BEBBC345A1F08879DAFDE27B887A89E6E0B7AF019 PUSH1 0x0 DUP1 LOG3 STOP JUMPDEST PUSH1 0x64 SWAP1 PUSH1 0x40 MLOAD SWAP1 PUSH3 0x461BCD PUSH1 0xE5 SHL DUP3 MSTORE PUSH1 0x4 DUP3 ADD MSTORE PUSH1 0x1D PUSH1 0x24 DUP3 ADD MSTORE PUSH32 0x4F6E6C79206973737565722063616E2063616E63656C2074656E646572000000 PUSH1 0x44 DUP3 ADD MSTORE REVERT JUMPDEST CALLVALUE PUSH2 0x2BC JUMPI PUSH1 0x0 CALLDATASIZE PUSH1 0x3 NOT ADD SLT PUSH2 0x2BC JUMPI PUSH1 0x20 PUSH1 0x7 SLOAD PUSH1 0x40 MLOAD SWAP1 DUP2 MSTORE RETURN JUMPDEST CALLVALUE PUSH2 0x2BC JUMPI PUSH2 0x1839 CALLDATASIZE PUSH2 0x1CAD JUMP JUMPDEST PUSH1 0x7 DUP1 SLOAD DUP1 DUP5 LT ISZERO PUSH2 0x1A49 JUMPI DUP3 ISZERO PUSH2 0x1A04 JUMPI DUP1 DUP5 SWAP2 PUSH2 0x1858 DUP6 DUP5 PUSH2 0x1FEF JUMP JUMPDEST GT PUSH2 0x19F1 JUMPI JUMPDEST POP POP PUSH2 0x1869 DUP3 PUSH2 0x2098 JUMP JUMPDEST SWAP3 PUSH2 0x1877 PUSH1 0x40 MLOAD SWAP5 DUP6 PUSH2 0x1E32 JUMP JUMPDEST DUP3 DUP5 MSTORE PUSH1 0x1F NOT PUSH2 0x1886 DUP5 PUSH2 0x2098 JUMP JUMPDEST ADD PUSH1 0x0 JUMPDEST DUP2 DUP2 LT PUSH2 0x19DA JUMPI POP POP PUSH1 0x0 JUMPDEST DUP4 DUP2 LT PUSH2 0x18FC JUMPI PUSH1 0x40 DUP1 MLOAD PUSH1 0x20 DUP1 DUP3 MSTORE DUP8 MLOAD DUP2 DUP4 ADD DUP2 SWAP1 MSTORE PUSH1 0x0 SWAP4 PUSH1 0x5 DUP3 SWAP1 SHL DUP5 ADD DUP2 ADD SWAP3 DUP1 DUP12 ADD SWAP3 SWAP2 DUP6 ADD JUMPDEST DUP3 DUP8 LT PUSH2 0x18D0 JUMPI DUP6 DUP6 SUB DUP7 RETURN JUMPDEST SWAP1 SWAP2 SWAP3 SWAP4 DUP3 DUP1 PUSH2 0x18EC PUSH1 0x1 SWAP4 PUSH1 0x3F NOT DUP11 DUP3 SUB ADD DUP7 MSTORE DUP9 MLOAD PUSH2 0x1D03 JUMP JUMPDEST SWAP7 ADD SWAP3 ADD SWAP7 ADD SWAP6 SWAP3 SWAP2 SWAP1 SWAP3 PUSH2 0x18C3 JUMP JUMPDEST PUSH2 0x1906 DUP2 DUP4 PUSH2 0x1FEF JUMP JUMPDEST SWAP1 PUSH1 0x1 DUP1 DUP4 ADD DUP1 SWAP4 GT PUSH2 0xD66 JUMPI PUSH2 0x19D5 SWAP3 PUSH1 0x0 MSTORE PUSH1 0xA PUSH1 0x3 PUSH1 0x20 SWAP1 DUP1 DUP3 MSTORE PUSH1 0x40 PUSH1 0x0 KECCAK256 SWAP2 PUSH2 0x1945 PUSH1 0x40 MLOAD SWAP6 PUSH2 0x193A DUP8 PUSH2 0x1DF9 JUMP JUMPDEST DUP5 SLOAD DUP8 MSTORE DUP5 ADD PUSH2 0x1E54 JUMP JUMPDEST SWAP1 DUP6 ADD MSTORE PUSH2 0x1955 PUSH1 0x2 DUP4 ADD PUSH2 0x1E54 JUMP JUMPDEST PUSH1 0x40 DUP6 ADD MSTORE DUP2 ADD SLOAD PUSH1 0x60 DUP5 ADD MSTORE PUSH1 0x4 DUP2 ADD SLOAD PUSH1 0x80 DUP5 ADD MSTORE PUSH1 0x5 DUP2 ADD SLOAD PUSH1 0xFF PUSH1 0x1 DUP1 PUSH1 0xA0 SHL SUB SWAP2 PUSH1 0xA0 DUP4 DUP3 AND DUP2 DUP9 ADD MSTORE SHR AND ISZERO ISZERO PUSH1 0xC0 DUP6 ADD MSTORE PUSH1 0x6 DUP3 ADD SLOAD AND PUSH1 0xE0 DUP5 ADD MSTORE DUP7 DUP2 ADD SLOAD PUSH2 0x100 DUP5 ADD MSTORE PUSH1 0x8 DUP2 ADD SLOAD PUSH2 0x120 DUP5 ADD MSTORE PUSH1 0x9 DUP2 ADD SLOAD PUSH2 0x140 DUP5 ADD MSTORE ADD SLOAD PUSH2 0x160 DUP3 ADD MSTORE PUSH2 0x19CA DUP3 DUP9 PUSH2 0x20B0 JUMP JUMPDEST MSTORE PUSH2 0x23E DUP2 DUP8 PUSH2 0x20B0 JUMP JUMPDEST PUSH2 0x1896 JUMP JUMPDEST PUSH1 0x20 SWAP1 PUSH2 0x19E5 PUSH2 0x20DA JUMP JUMPDEST DUP3 DUP3 DUP10 ADD ADD MSTORE ADD PUSH2 0x188A JUMP JUMPDEST PUSH2 0x19FC SWAP3 SWAP4 POP PUSH2 0x1FFC JUMP JUMPDEST SWAP1 DUP3 DUP5 PUSH2 0x185E JUMP JUMPDEST PUSH1 0x40 MLOAD PUSH3 0x461BCD PUSH1 0xE5 SHL DUP2 MSTORE PUSH1 0x20 PUSH1 0x4 DUP3 ADD MSTORE PUSH1 0x1F PUSH1 0x24 DUP3 ADD MSTORE PUSH32 0x4C696D6974206D7573742062652067726561746572207468616E207A65726F00 PUSH1 0x44 DUP3 ADD MSTORE PUSH1 0x64 SWAP1 REVERT JUMPDEST PUSH1 0x40 MLOAD PUSH3 0x461BCD PUSH1 0xE5 SHL DUP2 MSTORE PUSH1 0x20 PUSH1 0x4 DUP3 ADD MSTORE PUSH1 0x1B PUSH1 0x24 DUP3 ADD MSTORE PUSH32 0x4F666673657420657863656564732074656E64657220636F756E740000000000 PUSH1 0x44 DUP3 ADD MSTORE PUSH1 0x64 SWAP1 REVERT JUMPDEST CALLVALUE PUSH2 0x2BC JUMPI PUSH1 0x20 CALLDATASIZE PUSH1 0x3 NOT ADD SLT PUSH2 0x2BC JUMPI PUSH1 0x1 PUSH1 0x1 PUSH1 0xA0 SHL SUB PUSH2 0x1AAF PUSH2 0x1C97 JUMP JUMPDEST AND PUSH1 0x0 MSTORE PUSH1 0x0 PUSH1 0x20 MSTORE PUSH1 0x80 PUSH1 0x40 PUSH1 0x0 KECCAK256 PUSH1 0xFF DUP2 SLOAD AND SWAP1 PUSH1 0x2 DUP2 ADD SLOAD SWAP1 PUSH1 0x4 PUSH1 0x3 DUP3 ADD SLOAD SWAP2 ADD SLOAD SWAP2 PUSH1 0x40 MLOAD SWAP4 ISZERO ISZERO DUP5 MSTORE PUSH1 0x20 DUP5 ADD MSTORE PUSH1 0x40 DUP4 ADD MSTORE PUSH1 0x60 DUP3 ADD MSTORE RETURN JUMPDEST CALLVALUE PUSH2 0x2BC JUMPI PUSH1 0x20 CALLDATASIZE PUSH1 0x3 NOT ADD SLT PUSH2 0x2BC JUMPI PUSH1 0x4 CALLDATALOAD PUSH1 0x0 MSTORE PUSH1 0x5 PUSH1 0x20 MSTORE PUSH1 0x20 PUSH1 0x40 PUSH1 0x0 KECCAK256 SLOAD PUSH1 0x40 MLOAD SWAP1 DUP2 MSTORE RETURN JUMPDEST CALLVALUE PUSH2 0x2BC JUMPI PUSH1 0x20 DUP1 PUSH1 0x3 NOT CALLDATASIZE ADD SLT PUSH2 0x2BC JUMPI PUSH1 0x4 CALLDATALOAD SWAP1 DUP2 PUSH1 0x0 MSTORE PUSH1 0x5 DUP2 MSTORE PUSH1 0x40 PUSH1 0x0 KECCAK256 SLOAD PUSH2 0x1B48 DUP2 PUSH2 0x2098 JUMP JUMPDEST SWAP3 PUSH2 0x1B56 PUSH1 0x40 MLOAD SWAP5 DUP6 PUSH2 0x1E32 JUMP JUMPDEST DUP2 DUP5 MSTORE PUSH1 0x1F NOT PUSH2 0x1B65 DUP4 PUSH2 0x2098 JUMP JUMPDEST ADD DUP4 PUSH1 0x0 JUMPDEST DUP3 DUP2 LT PUSH2 0x1C5E JUMPI POP POP POP PUSH1 0x0 JUMPDEST DUP3 DUP2 LT PUSH2 0x1BEE JUMPI PUSH1 0x40 DUP1 MLOAD DUP6 DUP2 MSTORE DUP7 MLOAD DUP2 DUP8 ADD DUP2 SWAP1 MSTORE DUP8 DUP8 ADD SWAP3 DUP3 ADD SWAP1 DUP8 PUSH1 0x0 JUMPDEST DUP3 DUP2 LT PUSH2 0x1BA5 JUMPI DUP5 DUP5 SUB DUP6 RETURN JUMPDEST DUP6 MLOAD DUP1 MLOAD DUP6 MSTORE DUP1 DUP4 ADD MLOAD PUSH1 0x1 PUSH1 0x1 PUSH1 0xA0 SHL SUB AND DUP6 DUP5 ADD MSTORE PUSH1 0x40 DUP1 DUP3 ADD MLOAD SWAP1 DUP7 ADD MSTORE PUSH1 0x60 DUP1 DUP3 ADD MLOAD SWAP1 DUP7 ADD MSTORE PUSH1 0x80 SWAP1 DUP2 ADD MLOAD ISZERO ISZERO SWAP1 DUP6 ADD MSTORE SWAP5 DUP2 ADD SWAP5 PUSH1 0xA0 SWAP1 SWAP4 ADD SWAP3 PUSH1 0x1 ADD PUSH2 0x1B98 JUMP JUMPDEST PUSH2 0x1C59 SWAP1 DUP3 PUSH1 0x0 MSTORE PUSH1 0x4 DUP6 MSTORE PUSH1 0x40 PUSH1 0x0 KECCAK256 DUP2 PUSH1 0x0 MSTORE DUP6 MSTORE PUSH1 0x40 PUSH1 0x0 KECCAK256 PUSH1 0xFF PUSH1 0x4 PUSH1 0x40 MLOAD SWAP3 PUSH2 0x1C1B DUP5 PUSH2 0x1DDD JUMP JUMPDEST DUP1 SLOAD DUP5 MSTORE PUSH1 0x1 DUP2 ADD SLOAD PUSH1 0x1 PUSH1 0x1 PUSH1 0xA0 SHL SUB AND DUP10 DUP6 ADD MSTORE PUSH1 0x2 DUP2 ADD SLOAD PUSH1 0x40 DUP6 ADD MSTORE PUSH1 0x3 DUP2 ADD SLOAD PUSH1 0x60 DUP6 ADD MSTORE ADD SLOAD AND ISZERO ISZERO PUSH1 0x80 DUP3 ADD MSTORE PUSH2 0x19CA DUP3 DUP9 PUSH2 0x20B0 JUMP JUMPDEST PUSH2 0x1B77 JUMP JUMPDEST PUSH1 0x40 MLOAD PUSH2 0x1C6A DUP2 PUSH2 0x1DDD JUMP JUMPDEST PUSH1 0x0 DUP2 MSTORE PUSH1 0x0 DUP4 DUP3 ADD MSTORE PUSH1 0x0 PUSH1 0x40 DUP3 ADD MSTORE PUSH1 0x0 PUSH1 0x60 DUP3 ADD MSTORE PUSH1 0x0 PUSH1 0x80 DUP3 ADD MSTORE DUP3 DUP3 DUP10 ADD ADD MSTORE ADD DUP5 SWAP1 PUSH2 0x1B6A JUMP JUMPDEST PUSH1 0x4 CALLDATALOAD SWAP1 PUSH1 0x1 PUSH1 0x1 PUSH1 0xA0 SHL SUB DUP3 AND DUP3 SUB PUSH2 0x2BC JUMPI JUMP JUMPDEST PUSH1 0x40 SWAP1 PUSH1 0x3 NOT ADD SLT PUSH2 0x2BC JUMPI PUSH1 0x4 CALLDATALOAD SWAP1 PUSH1 0x24 CALLDATALOAD SWAP1 JUMP JUMPDEST SWAP2 SWAP1 DUP3 MLOAD SWAP3 DUP4 DUP3 MSTORE PUSH1 0x0 JUMPDEST DUP5 DUP2 LT PUSH2 0x1CEF JUMPI POP POP DUP3 PUSH1 0x0 PUSH1 0x20 DUP1 SWAP5 SWAP6 DUP5 ADD ADD MSTORE PUSH1 0x1F DUP1 NOT SWAP2 ADD AND ADD ADD SWAP1 JUMP JUMPDEST PUSH1 0x20 DUP2 DUP4 ADD DUP2 ADD MLOAD DUP5 DUP4 ADD DUP3 ADD MSTORE ADD PUSH2 0x1CCE JUMP JUMPDEST SWAP1 DUP2 MLOAD DUP2 MSTORE PUSH2 0x1D36 PUSH2 0x1D24 PUSH1 0x20 DUP5 ADD MLOAD PUSH2 0x180 DUP1 PUSH1 0x20 DUP7 ADD MSTORE DUP5 ADD SWAP1 PUSH2 0x1CC3 JUMP JUMPDEST PUSH1 0x40 DUP5 ADD MLOAD DUP4 DUP3 SUB PUSH1 0x40 DUP6 ADD MSTORE PUSH2 0x1CC3 JUMP JUMPDEST SWAP2 PUSH1 0x60 DUP2 ADD MLOAD PUSH1 0x60 DUP4 ADD MSTORE PUSH1 0x80 DUP2 ADD MLOAD PUSH1 0x80 DUP4 ADD MSTORE PUSH1 0x1 DUP1 PUSH1 0xA0 SHL SUB DUP1 PUSH1 0xA0 DUP4 ADD MLOAD AND PUSH1 0xA0 DUP5 ADD MSTORE PUSH1 0xC0 DUP3 ADD MLOAD ISZERO ISZERO PUSH1 0xC0 DUP5 ADD MSTORE PUSH1 0xE0 DUP3 ADD MLOAD AND PUSH1 0xE0 DUP4 ADD MSTORE PUSH2 0x100 DUP1 DUP3 ADD MLOAD SWAP1 DUP4 ADD MSTORE PUSH2 0x120 DUP1 DUP3 ADD MLOAD SWAP1 DUP4 ADD MSTORE PUSH2 0x140 DUP1 DUP3 ADD MLOAD SWAP1 DUP4 ADD MSTORE PUSH2 0x160 DUP1 SWAP2 ADD MLOAD SWAP2 ADD MSTORE SWAP1 JUMP JUMPDEST SWAP1 PUSH1 0x1 DUP3 DUP2 SHR SWAP3 AND DUP1 ISZERO PUSH2 0x1DD3 JUMPI JUMPDEST PUSH1 0x20 DUP4 LT EQ PUSH2 0x1DBD JUMPI JUMP JUMPDEST PUSH4 0x4E487B71 PUSH1 0xE0 SHL PUSH1 0x0 MSTORE PUSH1 0x22 PUSH1 0x4 MSTORE PUSH1 0x24 PUSH1 0x0 REVERT JUMPDEST SWAP2 PUSH1 0x7F AND SWAP2 PUSH2 0x1DB2 JUMP JUMPDEST PUSH1 0xA0 DUP2 ADD SWAP1 DUP2 LT PUSH8 0xFFFFFFFFFFFFFFFF DUP3 GT OR PUSH2 0x6BE JUMPI PUSH1 0x40 MSTORE JUMP JUMPDEST PUSH2 0x180 DUP2 ADD SWAP1 DUP2 LT PUSH8 0xFFFFFFFFFFFFFFFF DUP3 GT OR PUSH2 0x6BE JUMPI PUSH1 0x40 MSTORE JUMP JUMPDEST PUSH1 0x80 DUP2 ADD SWAP1 DUP2 LT PUSH8 0xFFFFFFFFFFFFFFFF DUP3 GT OR PUSH2 0x6BE JUMPI PUSH1 0x40 MSTORE JUMP JUMPDEST SWAP1 PUSH1 0x1F DUP1 NOT SWAP2 ADD AND DUP2 ADD SWAP1 DUP2 LT PUSH8 0xFFFFFFFFFFFFFFFF DUP3 GT OR PUSH2 0x6BE JUMPI PUSH1 0x40 MSTORE JUMP JUMPDEST SWAP1 PUSH1 0x40 MLOAD SWAP2 DUP3 PUSH1 0x0 DUP3 SLOAD SWAP3 PUSH2 0x1E68 DUP5 PUSH2 0x1DA3 JUMP JUMPDEST SWAP1 DUP2 DUP5 MSTORE PUSH1 0x1 SWAP5 DUP6 DUP2 AND SWAP1 DUP2 PUSH1 0x0 EQ PUSH2 0x1ED7 JUMPI POP PUSH1 0x1 EQ PUSH2 0x1E94 JUMPI JUMPDEST POP POP PUSH2 0x1E92 SWAP3 POP SUB DUP4 PUSH2 0x1E32 JUMP JUMPDEST JUMP JUMPDEST SWAP1 SWAP4 SWAP2 POP PUSH1 0x0 MSTORE PUSH1 0x20 SWAP1 DUP2 PUSH1 0x0 KECCAK256 SWAP4 PUSH1 0x0 SWAP2 JUMPDEST DUP2 DUP4 LT PUSH2 0x1EBF JUMPI POP POP PUSH2 0x1E92 SWAP4 POP DUP3 ADD ADD CODESIZE DUP1 PUSH2 0x1E84 JUMP JUMPDEST DUP6 SLOAD DUP9 DUP5 ADD DUP6 ADD MSTORE SWAP5 DUP6 ADD SWAP5 DUP8 SWAP5 POP SWAP2 DUP4 ADD SWAP2 PUSH2 0x1EA7 JUMP JUMPDEST SWAP2 POP POP PUSH2 0x1E92 SWAP5 POP PUSH1 0x20 SWAP3 POP PUSH1 0xFF NOT AND DUP3 DUP5 ADD MSTORE ISZERO ISZERO PUSH1 0x5 SHL DUP3 ADD ADD CODESIZE DUP1 PUSH2 0x1E84 JUMP JUMPDEST DUP2 PUSH1 0x1F DUP3 ADD SLT ISZERO PUSH2 0x2BC JUMPI DUP1 CALLDATALOAD SWAP1 PUSH8 0xFFFFFFFFFFFFFFFF DUP3 GT PUSH2 0x6BE JUMPI PUSH1 0x40 MLOAD SWAP3 PUSH2 0x1F2F PUSH1 0x1F DUP5 ADD PUSH1 0x1F NOT AND PUSH1 0x20 ADD DUP6 PUSH2 0x1E32 JUMP JUMPDEST DUP3 DUP5 MSTORE PUSH1 0x20 DUP4 DUP4 ADD ADD GT PUSH2 0x2BC JUMPI DUP2 PUSH1 0x0 SWAP3 PUSH1 0x20 DUP1 SWAP4 ADD DUP4 DUP7 ADD CALLDATACOPY DUP4 ADD ADD MSTORE SWAP1 JUMP JUMPDEST ISZERO PUSH2 0x1F58 JUMPI JUMP JUMPDEST PUSH1 0x40 MLOAD PUSH3 0x461BCD PUSH1 0xE5 SHL DUP2 MSTORE PUSH1 0x20 PUSH1 0x4 DUP3 ADD MSTORE PUSH1 0x14 PUSH1 0x24 DUP3 ADD MSTORE PUSH20 0x456E74697479206973206E6F7420616374697665 PUSH1 0x60 SHL PUSH1 0x44 DUP3 ADD MSTORE PUSH1 0x64 SWAP1 REVERT JUMPDEST ISZERO PUSH2 0x1F9B JUMPI JUMP JUMPDEST PUSH1 0x40 MLOAD PUSH3 0x461BCD PUSH1 0xE5 SHL DUP2 MSTORE PUSH1 0x20 PUSH1 0x4 DUP3 ADD MSTORE PUSH1 0x1D PUSH1 0x24 DUP3 ADD MSTORE PUSH32 0x416D6F756E74206D7573742062652067726561746572207468616E2030000000 PUSH1 0x44 DUP3 ADD MSTORE PUSH1 0x64 SWAP1 REVERT JUMPDEST PUSH1 0x0 NOT DUP2 EQ PUSH2 0xD66 JUMPI PUSH1 0x1 ADD SWAP1 JUMP JUMPDEST SWAP2 SWAP1 DUP3 ADD DUP1 SWAP3 GT PUSH2 0xD66 JUMPI JUMP JUMPDEST SWAP2 SWAP1 DUP3 SUB SWAP2 DUP3 GT PUSH2 0xD66 JUMPI JUMP JUMPDEST ISZERO PUSH2 0x2010 JUMPI JUMP JUMPDEST PUSH1 0x40 MLOAD PUSH3 0x461BCD PUSH1 0xE5 SHL DUP2 MSTORE PUSH1 0x20 PUSH1 0x4 DUP3 ADD MSTORE PUSH1 0x14 PUSH1 0x24 DUP3 ADD MSTORE PUSH20 0x54656E646572206973206E6F7420616374697665 PUSH1 0x60 SHL PUSH1 0x44 DUP3 ADD MSTORE PUSH1 0x64 SWAP1 REVERT JUMPDEST ISZERO PUSH2 0x2053 JUMPI JUMP JUMPDEST PUSH1 0x40 MLOAD PUSH3 0x461BCD PUSH1 0xE5 SHL DUP2 MSTORE PUSH1 0x20 PUSH1 0x4 DUP3 ADD MSTORE PUSH1 0x1A PUSH1 0x24 DUP3 ADD MSTORE PUSH32 0x54656E64657220646561646C696E652068617320706173736564000000000000 PUSH1 0x44 DUP3 ADD MSTORE PUSH1 0x64 SWAP1 REVERT JUMPDEST PUSH8 0xFFFFFFFFFFFFFFFF DUP2 GT PUSH2 0x6BE JUMPI PUSH1 0x5 SHL PUSH1 0x20 ADD SWAP1 JUMP JUMPDEST DUP1 MLOAD DUP3 LT ISZERO PUSH2 0x20C4 JUMPI PUSH1 0x20 SWAP2 PUSH1 0x5 SHL ADD ADD SWAP1 JUMP JUMPDEST PUSH4 0x4E487B71 PUSH1 0xE0 SHL PUSH1 0x0 MSTORE PUSH1 0x32 PUSH1 0x4 MSTORE PUSH1 0x24 PUSH1 0x0 REVERT JUMPDEST PUSH1 0x40 MLOAD SWAP1 PUSH2 0x20E7 DUP3 PUSH2 0x1DF9 JUMP JUMPDEST DUP2 PUSH2 0x160 PUSH1 0x0 SWAP2 DUP3 DUP2 MSTORE PUSH1 0x60 PUSH1 0x20 DUP3 ADD MSTORE PUSH1 0x60 PUSH1 0x40 DUP3 ADD MSTORE DUP3 PUSH1 0x60 DUP3 ADD MSTORE DUP3 PUSH1 0x80 DUP3 ADD MSTORE DUP3 PUSH1 0xA0 DUP3 ADD MSTORE DUP3 PUSH1 0xC0 DUP3 ADD MSTORE DUP3 PUSH1 0xE0 DUP3 ADD MSTORE DUP3 PUSH2 0x100 DUP3 ADD MSTORE DUP3 PUSH2 0x120 DUP3 ADD MSTORE DUP3 PUSH2 0x140 DUP3 ADD MSTORE ADD MSTORE JUMP INVALID LOG2 PUSH5 0x6970667358 0x22 SLT KECCAK256 DUP11 0x4B 0xC2 SWAP3 0xD0 0x4E 0xD3 PUSH19 0x5B8669D835F9DD9707825EDE23BA277337CED9 SWAP3 0xEC 0xEB 0xC9 0x5C PUSH5 0x736F6C6343 STOP ADDMOD SGT STOP CALLER "},"methodIdentifiers":{"awardTender(uint256)":"8fdee0c5","bids(uint256,uint256)":"7b3c4baa","cancelTender(uint256)":"3a74e070","entities(address)":"1d8ee48a","getBids(uint256)":"131d9a27","getSpendingRecords(address)":"fb116b58","getTenderDetails(uint256)":"53ee895d","getTenders(uint256,uint256)":"1dfd9542","hasVoted(address,address)":"4d4d2b1c","issueTender(string,string,uint256,uint256,uint256,uint256)":"c4bce418","placeBid(uint256,uint256)":"57c90de5","recordSpending(uint256)":"a9bba443","spendingCount()":"4f7311ad","spendingRecords(uint256)":"bac5d8f9","tenderBidCount(uint256)":"15cf4b6e","tenderCount()":"1f058776","tenders(uint256)":"465e1def","vote(address)":"6dd7d8ea","withdrawBid(uint256,uint256)":"a5735662"}}}}}