{"contracts/GovernmentFunds.sol":{"GovernmentFunds":{"abi":[{"anonymous":false,"inputs":[{"indexed":true,"internalType":"uint256","name":"tenderId","type":"uint256"},{"indexed":true,"internalType":"uint256","name":"bidId","type":"uint256"},{"indexed":true,"internalType":"address","name":"bidder","type":"address"},{"indexed":false,"internalType":"uint256","name":"amount","type":"uint256"}],"name":"BidPlaced","type":"event"},{"anonymous":false,"inputs":[{"indexed":true,"internalType":"uint256","name":"id","type":"uint256"},{"indexed":true,"internalType":"address","name":"entity","type":"address"},{"indexed":false,"internalType":"uint256","name":"amount","type":"uint256"}],"name":"SpendingRecorded","type":"event"},{"anonymous":false,"inputs":[{"indexed":true,"internalType":"uint256","name":"tenderId","type":"uint256"},{"indexed":true,"internalType":"address","name":"winner","type":"address"},{"indexed":false,"internalType":"uint256","name":"amount","type":"uint256"}],"name":"TenderAwarded","type":"event"},{"anonymous":false,"inputs":[{"indexed":true,"internalType":"uint256","name":"id","type":"uint256"},{"indexed":true,"internalType":"address","name":"issuer","type":"address"},{"indexed":false,"internalType":"string","name":"title","type":"string"},{"indexed":false,"internalType":"uint256","name":"amount","type":"uint256"},{"indexed":false,"internalType":"uint256","name":"deadline","type":"uint256"}],"name":"TenderIssued","type":"event"},{"anonymous":false,"inputs":[{"indexed":true,"internalType":"address","name":"voter","type":"address"},{"indexed":true,"internalType":"address","name":"entity","type":"address"}],"name":"Voted","type":"event"},{"inputs":[{"internalType":"uint256","name":"tenderId","type":"uint256"}],"name":"awardTender","outputs":[],"stateMutability":"nonpayable","type":"function"},{"inputs":[{"internalType":"uint256","name":"","type":"uint256"},{"internalType":"uint256","name":"","type":"uint256"}],"name":"bids","outputs":[{"internalType":"uint256","name":"id","type":"uint256"},{"internalType":"address","name":"bidder","type":"address"},{"internalType":"uint256","name":"amount","type":"uint256"},{"internalType":"uint256","name":"timestamp","type":"uint256"}],"stateMutability":"view","type":"function"},{"inputs":[{"internalType":"address","name":"","type":"address"}],"name":"entities","outputs":[{"internalType":"bool","name":"isActive","type":"bool"},{"internalType":"uint256","name":"totalVotes","type":"uint256"},{"internalType":"uint256","name":"toBeSpent","type":"uint256"}],"stateMutability":"view","type":"function"},{"inputs":[{"internalType":"uint256","name":"tenderId","type":"uint256"}],"name":"getBids","outputs":[{"components":[{"internalType":"uint256","name":"id","type":"uint256"},{"internalType":"address","name":"bidder","type":"address"},{"internalType":"uint256","name":"amount","type":"uint256"},{"internalType":"uint256","name":"timestamp","type":"uint256"}],"internalType":"struct GovernmentFunds.Bid[]","name":"","type":"tuple[]"}],"stateMutability":"view","type":"function"},{"inputs":[{"internalType":"address","name":"entityAddress","type":"address"}],"name":"getSpendingRecords","outputs":[{"components":[{"internalType":"uint256","name":"id","type":"uint256"},{"internalType":"address","name":"entity","type":"address"},{"internalType":"uint256","name":"amount","type":"uint256"},{"internalType":"uint256","name":"timestamp","type":"uint256"}],"internalType":"struct GovernmentFunds.SpendingRecord[]","name":"","type":"tuple[]"}],"stateMutability":"view","type":"function"},{"inputs":[{"internalType":"uint256","name":"tenderId","type":"uint256"}],"name":"getTenderDetails","outputs":[{"components":[{"internalType":"uint256","name":"id","type":"uint256"},{"internalType":"string","name":"title","type":"string"},{"internalType":"string","name":"description","type":"string"},{"internalType":"uint256","name":"amount","type":"uint256"},{"internalType":"uint256","name":"deadline","type":"uint256"},{"internalType":"address","name":"issuer","type":"address"},{"internalType":"bool","name":"isActive","type":"bool"},{"internalType":"address","name":"winner","type":"address"},{"internalType":"uint256","name":"winningBid","type":"uint256"}],"internalType":"struct GovernmentFunds.Tender","name":"","type":"tuple"}],"stateMutability":"view","type":"function"},{"inputs":[{"internalType":"uint256","name":"offset","type":"uint256"},{"internalType":"uint256","name":"limit","type":"uint256"}],"name":"getTenders","outputs":[{"components":[{"internalType":"uint256","name":"id","type":"uint256"},{"internalType":"string","name":"title","type":"string"},{"internalType":"string","name":"description","type":"string"},{"internalType":"uint256","name":"amount","type":"uint256"},{"internalType":"uint256","name":"deadline","type":"uint256"},{"internalType":"address","name":"issuer","type":"address"},{"internalType":"bool","name":"isActive","type":"bool"},{"internalType":"address","name":"winner","type":"address"},{"internalType":"uint256","name":"winningBid","type":"uint256"}],"internalType":"struct GovernmentFunds.Tender[]","name":"","type":"tuple[]"}],"stateMutability":"view","type":"function"},{"inputs":[{"internalType":"address","name":"","type":"address"},{"internalType":"address","name":"","type":"address"}],"name":"hasVoted","outputs":[{"internalType":"bool","name":"","type":"bool"}],"stateMutability":"view","type":"function"},{"inputs":[{"internalType":"string","name":"title","type":"string"},{"internalType":"string","name":"description","type":"string"},{"internalType":"uint256","name":"amount","type":"uint256"},{"internalType":"uint256","name":"deadline","type":"uint256"}],"name":"issueTender","outputs":[],"stateMutability":"nonpayable","type":"function"},{"inputs":[{"internalType":"uint256","name":"tenderId","type":"uint256"},{"internalType":"uint256","name":"amount","type":"uint256"}],"name":"placeBid","outputs":[],"stateMutability":"nonpayable","type":"function"},{"inputs":[{"internalType":"uint256","name":"amount","type":"uint256"}],"name":"recordSpending","outputs":[],"stateMutability":"nonpayable","type":"function"},{"inputs":[],"name":"spendingCount","outputs":[{"internalType":"uint256","name":"","type":"uint256"}],"stateMutability":"view","type":"function"},{"inputs":[{"internalType":"uint256","name":"","type":"uint256"}],"name":"spendingRecords","outputs":[{"internalType":"uint256","name":"id","type":"uint256"},{"internalType":"address","name":"entity","type":"address"},{"internalType":"uint256","name":"amount","type":"uint256"},{"internalType":"uint256","name":"timestamp","type":"uint256"}],"stateMutability":"view","type":"function"},{"inputs":[{"internalType":"uint256","name":"","type":"uint256"}],"name":"tenderBidCount","outputs":[{"internalType":"uint256","name":"","type":"uint256"}],"stateMutability":"view","type":"function"},{"inputs":[],"name":"tenderCount","outputs":[{"internalType":"uint256","name":"","type":"uint256"}],"stateMutability":"view","type":"function"},{"inputs":[{"internalType":"uint256","name":"","type":"uint256"}],"name":"tenders","outputs":[{"internalType":"uint256","name":"id","type":"uint256"},{"internalType":"string","name":"title","type":"string"},{"internalType":"string","name":"description","type":"string"},{"internalType":"uint256","name":"amount","type":"uint256"},{"internalType":"uint256","name":"deadline","type":"uint256"},{"internalType":"address","name":"issuer","type":"address"},{"internalType":"bool","name":"isActive","type":"bool"},{"internalType":"address","name":"winner","type":"address"},{"internalType":"uint256","name":"winningBid","type":"uint256"}],"stateMutability":"view","type":"function"},{"inputs":[{"internalType":"address","name":"entityAddress","type":"address"}],"name":"vote","outputs":[],"stateMutability":"nonpayable","type":"function"}],"evm":{"bytecode":{"linkReferences":{},"object":"60808060405234610016576119c9908161001c8239f35b600080fdfe6080604052600436101561001257600080fd5b60e0600035811c908163131d9a271461140b57816315cf4b6e146113df5781631d8ee48a146113895781631dfd95421461112e5781631f05877614611110578163465e1def146110505781634d4d2b1c14610ff65781634f7311ad14610fd857816353ee895d14610ecb57816357c90de514610cae5781636dd7d8ea14610b175781637b3c4baa14610ab45781638fdee0c5146108d3578163a9bba443146107d0578163bac5d8f91461076d578163d7461f401461027a575063fb116b58146100da57600080fd5b3461027557602080600319360112610275576100f4611532565b600654600092916001600160a01b0390811660015b83811115610238575061011b856118aa565b946101296040519687611690565b808652610138601f19916118aa565b018460005b8281106102225750505060009060015b848111156101c557604080518781528851818901819052898901928201908960005b82811061017c5784840385f35b909192826080826101b66001948a51606080918051845260018060a01b036020820151166020850152604081015160408501520151910152565b0196019101949291909461016f565b806000526002865260406000208285600183015416146101ef575b506101ea9061183e565b61014d565b6101ea919361020061021b92611911565b61020a828b6118e7565b52610215818a6118e7565b5061183e565b92906101e0565b61022a6118c2565b82828a01015201859061013d565b806000526002855281836001604060002001541614610260575b61025b9061183e565b610109565b9461026d61025b9161183e565b959050610252565b600080fd5b346102755760803660031901126102755760043567ffffffffffffffff8111610275576102ab903690600401611758565b9060243567ffffffffffffffff8111610275576102cc903690600401611758565b903360005260006020526102e760ff604060002054166117af565b6102f460443515156117f2565b426064351115610728578251156106eb578151156106a65761031760075461183e565b90816007556040519161032983611657565b80835260208301938585526040840152604435606084015260643560808401523360a0840152600160c084015260008284015260006101008401526000526003602052604060002092825184555180519067ffffffffffffffff82116105c0578190610398600187015461161d565b601f8111610653575b50602090601f83116001146105e1576000926105d6575b50508160011b916000199060031b1c19161760018401555b604082015180519067ffffffffffffffff82116105c0576103f4600286015461161d565b601f8111610579575b50602090601f83116001146105025791806101009492600796946000926104f7575b50508160011b916000199060031b1c19161760028601555b60608201516003860155608082015160048601556005850160018060a01b03908160a08501511681549060ff60a01b60c0870151151560a01b16916affffffffffffffffffffff60a81b16171790556006860191830151166001600160601b0360a01b82541617905501519101556007547fa57590356b27448860a006f0265445002790351fe29648717df7ec7481c9e4df6104de6040519360608552606085019061155e565b92604435602082015260643560408201528033940390a3005b01519050888061041f565b906002860160005260206000209160005b601f198516811061056157509261010094926001926007979583601f19811610610548575b505050811b016002860155610437565b015160001960f88460031b161c19169055888080610538565b91926020600181928685015181550194019201610513565b600286016000526020600020601f840160051c8101602085106105b9575b601f830160051c820181106105ad5750506103fd565b60008155600101610597565b5080610597565b634e487b7160e01b600052604160045260246000fd5b0151905086806103b8565b9250600186016000526020600020906000935b601f1984168510610638576001945083601f1981161061061f575b505050811b0160018401556103d0565b015160001960f88460031b161c1916905586808061060f565b818101518355602094850194600190930192909101906105f4565b909150600186016000526020600020601f840160051c81016020851061069f575b90849392915b601f830160051c820181106106905750506103a1565b6000815585945060010161067a565b5080610674565b60405162461bcd60e51b815260206004820152601b60248201527f4465736372697074696f6e2063616e6e6f7420626520656d70747900000000006044820152606490fd5b60405162461bcd60e51b81526020600482015260156024820152745469746c652063616e6e6f7420626520656d70747960581b6044820152606490fd5b60405162461bcd60e51b815260206004820152601e60248201527f446561646c696e65206d75737420626520696e207468652066757475726500006044820152606490fd5b3461027557602036600319011261027557600435600090815260026020818152604092839020805460018201549382015460039092015485519182526001600160a01b0390941692810192909252928101929092526060820152608090f35b0390f35b3461027557602080600319360112610275576004359033600052600081526107ff60ff604060002054166117af565b61080a8215156117f2565b61088661081860065461183e565b806006556040519061082982611674565b8082523384830152846040830152426060830152600052600283526040600020906060600391805184556001840160018060a01b036020830151166001600160601b0360a01b825416179055604081015160028501550151910155565b336000526000815260036040600020016108a183825461184d565b90557fd26743b74d62dd5ad8e62c8de6634906adc90975c3bf8085f74d522960d2eb5d600654916040519384523393a3005b3461027557602080600319360112610275576004358060005260039182815261090960ff60056040600020015460a01c1661185a565b816000528281526004604060002001544210610a7057600082815283825260409020600601546001600160a01b0390811615610a355782600052838252806005604060002001541633036109f0579060077fb6da2d97c7be1b795c416cc5e17d479a1a6fb59b6e95214ee25aaaf42796c80292846000528583526040600020956005870160ff60a01b1981541681556109e0828901928484549460068c01958287541660005260008a526109c58460406000200191825461184d565b9055549354166000526000875260406000200191825461189d565b90555416940154604051908152a3005b60405162461bcd60e51b815260048101839052601c60248201527f4f6e6c79206973737565722063616e2061776172642074656e646572000000006044820152606490fd5b60405162461bcd60e51b8152600481018390526013602482015272139bc81d985b1a5908189a591cc8199bdd5b99606a1b6044820152606490fd5b6064906040519062461bcd60e51b82526004820152601e60248201527f54656e64657220646561646c696e6520686173206e6f742070617373656400006044820152fd5b3461027557610ac236611548565b60009182526004602090815260408084209284529181529181902080546001820154600283015460039093015484519283526001600160a01b0390911694820194909452918201526060810191909152608090f35b346102755760208060031936011261027557610b31611532565b903360005260019081815260406000209260018060a01b03169283600052815260ff60406000205416610c5b578260005260008152610b7760ff604060002054166117af565b826000526000815281604060002001336000528152604060002054610c17578260005260008152816040600020013360005281528160406000205582600052600081526002604060002001610bcc815461183e565b905533600052818152604060002090836000525260406000209060ff19825416179055337fce0c7a2a940807f7dc2ce7a615c2532e915e6c0ac9a08bc4ed9d515a710a53e2600080a3005b6064906040519062461bcd60e51b82526004820152601d60248201527f416c726561647920766f74656420666f72207468697320656e746974790000006044820152fd5b6084906040519062461bcd60e51b82526004820152602660248201527f596f75206861766520616c726561647920766f74656420666f72207468697320604482015265656e7469747960d01b6064820152fd5b3461027557610cbc36611548565b903360005260209060008252610cd960ff604060002054166117af565b610ce48315156117f2565b8060005260038252610d0360ff60056040600020015460a01c1661185a565b8060005260038252600460406000200154421015610e8657806000526003825260018060a01b03600560406000200154163314610e41579081600392600052600582526040600020805490610d578261183e565b9055610dd1604051610d6881611674565b8281523385820152866040820152426060820152836000526004855260406000208360005285526040600020906060600391805184556001840160018060a01b036020830151166001600160601b0360a01b825416179055604081015160028501550151910155565b60405190858252827f6f7e354ea3ab5c288aea37fce29c603f9a98a3b040f6d8f32f10e192ec47ff6a853394a4600052526040600020600781019182548015908115610e37575b50610e1f57005b90915560060180546001600160a01b03191633179055005b9050811084610e18565b60405162461bcd60e51b815260048101839052601760248201527f4973737565722063616e6e6f7420706c616365206269640000000000000000006044820152606490fd5b60405162461bcd60e51b815260048101839052601a60248201527f54656e64657220646561646c696e6520686173207061737365640000000000006044820152606490fd5b346102755760208060031936011261027557600435610ee861194c565b5080151580610fcc575b15610f9357600052600381526007604060002060405193610f1285611657565b81548552610f22600183016116b2565b84860152610f32600283016116b2565b60408601526003820154606086015260048201546080860152600582015460ff60018060a01b039182811660a089015260a01c16151560c08701526006830154169085015201546101008301526107cc60405192828493845283019061159e565b60405162461bcd60e51b8152600481018390526011602482015270125b9d985b1a59081d195b99195c881251607a1b6044820152606490fd5b50600754811115610ef2565b34610275576000366003190112610275576020600654604051908152f35b346102755760403660031901126102755761100f611532565b6001600160a01b03602435818116929083900361027557166000526001602052604060002090600052602052602060ff604060002054166040519015158152f35b34610275576020366003190112610275576004356000526003602052604060002090815490611081600184016116b2565b9261108e600282016116b2565b9060038101549260ff600483015460058401549060018060a01b03906110e6600783600689015416970154976110d86040519c8d9c8d5260208d61012091829101528d019061155e565b908b820360408d015261155e565b9760608a01526080890152811660a088015260a01c16151560c08601528401526101008301520390f35b34610275576000366003190112610275576020600754604051908152f35b346102755761113c36611548565b6007929192918254808510156113445782156112ff5780859161115f858461184d565b116112ec575b5050611170826118aa565b9361117e6040519586611690565b828552601f1961118d846118aa565b0160005b8181106112d557505060005b838110611203576040805160208082528851818301819052600093600582901b8401810192808c01929185015b8287106111d75785850386f35b9091929382806111f3600193603f198a8203018652885161159e565b96019201960195929190926111ca565b61120d818361184d565b9060018083018093116112bf576112ba9260005286600360209080825260406000209161124b6040519561124087611657565b8454875284016116b2565b9085015261125b600283016116b2565b6040850152810154606084015260048101546080840152600581015460ff60018060a01b039160a0838216818801521c16151560c08501526006820154168784015201546101008201526112af82896118e7565b5261021581886118e7565b61119d565b634e487b7160e01b600052601160045260246000fd5b6020906112e061194c565b82828a01015201611191565b6112f792935061189d565b908385611165565b60405162461bcd60e51b815260206004820152601f60248201527f4c696d6974206d7573742062652067726561746572207468616e207a65726f006044820152606490fd5b60405162461bcd60e51b815260206004820152601b60248201527f4f666673657420657863656564732074656e64657220636f756e7400000000006044820152606490fd5b34610275576020366003190112610275576001600160a01b036113aa611532565b1660005260006020526060604060002060ff815416906003600282015491015490604051921515835260208301526040820152f35b346102755760203660031901126102755760043560005260056020526020604060002054604051908152f35b346102755760208060031936011261027557600435908160005260058152604060002054611438816118aa565b926114466040519485611690565b818452601f19611455836118aa565b018360005b82811061151c5750505060005b8281106114de57604080518581528651818701819052878701928201908760005b8281106114955784840385f35b909192826080826114cf6001948a51606080918051845260018060a01b036020820151166020850152604081015160408501520151910152565b01960191019492919094611488565b61151790826000526004855260406000208160005285526115026040600020611911565b61150c82886118e7565b5261021581876118e7565b611467565b6115246118c2565b82828901015201849061145a565b600435906001600160a01b038216820361027557565b6040906003190112610275576004359060243590565b919082519283825260005b84811061158a575050826000602080949584010152601f8019910116010190565b602081830181015184830182015201611569565b90815181526115d16115bf602084015161012080602086015284019061155e565b6040840151838203604085015261155e565b91606081015160608301526080810151608083015260018060a01b038060a08301511660a084015260c0820151151560c084015260e08201511660e08301526101008091015191015290565b90600182811c9216801561164d575b602083101461163757565b634e487b7160e01b600052602260045260246000fd5b91607f169161162c565b610120810190811067ffffffffffffffff8211176105c057604052565b6080810190811067ffffffffffffffff8211176105c057604052565b90601f8019910116810190811067ffffffffffffffff8211176105c057604052565b90604051918260008254926116c68461161d565b90818452600194858116908160001461173557506001146116f2575b50506116f092500383611690565b565b9093915060005260209081600020936000915b81831061171d5750506116f0935082010138806116e2565b85548884018501529485019487945091830191611705565b9150506116f094506020925060ff191682840152151560051b82010138806116e2565b81601f820112156102755780359067ffffffffffffffff82116105c0576040519261178d601f8401601f191660200185611690565b8284526020838301011161027557816000926020809301838601378301015290565b156117b657565b60405162461bcd60e51b8152602060048201526014602482015273456e74697479206973206e6f742061637469766560601b6044820152606490fd5b156117f957565b60405162461bcd60e51b815260206004820152601d60248201527f416d6f756e74206d7573742062652067726561746572207468616e20300000006044820152606490fd5b60001981146112bf5760010190565b919082018092116112bf57565b1561186157565b60405162461bcd60e51b815260206004820152601460248201527354656e646572206973206e6f742061637469766560601b6044820152606490fd5b919082039182116112bf57565b67ffffffffffffffff81116105c05760051b60200190565b604051906118cf82611674565b60006060838281528260208201528260408201520152565b80518210156118fb5760209160051b010190565b634e487b7160e01b600052603260045260246000fd5b9060405161191e81611674565b8254815260018301546001600160a01b03166020820152600283015460408201526003909201546060830152565b6040519061195982611657565b8161010060009182815260606020820152606060408201528260608201528260808201528260a08201528260c08201528260e0820152015256fea2646970667358221220862e37d72dacd628d18de378c63d1614b1eec55bee68ff0c8fef6243c8ac54f464736f6c63430008130033","opcodes":"PUSH1 0x80 DUP1 PUSH1 0x40 MSTORE CALLVALUE PUSH2 0x16 JUMPI PUSH2 0x19C9 SWAP1 DUP2 PUSH2 0x1C DUP3 CODECOPY RETURN JUMPDEST PUSH1 0x0 DUP1 REVERT INVALID PUSH1 0x80 PUSH1 0x40 MSTORE PUSH1 0x4 CALLDATASIZE LT ISZERO PUSH2 0x12 JUMPI PUSH1 0x0 DUP1 REVERT JUMPDEST PUSH1 0xE0 PUSH1 0x0 CALLDATALOAD DUP2 SHR SWAP1 DUP2 PUSH4 0x131D9A27 EQ PUSH2 0x140B JUMPI DUP2 PUSH4 0x15CF4B6E EQ PUSH2 0x13DF JUMPI DUP2 PUSH4 0x1D8EE48A EQ PUSH2 0x1389 JUMPI DUP2 PUSH4 0x1DFD9542 EQ PUSH2 0x112E JUMPI DUP2 PUSH4 0x1F058776 EQ PUSH2 0x1110 JUMPI DUP2 PUSH4 0x465E1DEF EQ PUSH2 0x1050 JUMPI DUP2 PUSH4 0x4D4D2B1C EQ PUSH2 0xFF6 JUMPI DUP2 PUSH4 0x4F7311AD EQ PUSH2 0xFD8 JUMPI DUP2 PUSH4 0x53EE895D EQ PUSH2 0xECB JUMPI DUP2 PUSH4 0x57C90DE5 EQ PUSH2 0xCAE JUMPI DUP2 PUSH4 0x6DD7D8EA EQ PUSH2 0xB17 JUMPI DUP2 PUSH4 0x7B3C4BAA EQ PUSH2 0xAB4 JUMPI DUP2 PUSH4 0x8FDEE0C5 EQ PUSH2 0x8D3 JUMPI DUP2 PUSH4 0xA9BBA443 EQ PUSH2 0x7D0 JUMPI DUP2 PUSH4 0xBAC5D8F9 EQ PUSH2 0x76D JUMPI DUP2 PUSH4 0xD7461F40 EQ PUSH2 0x27A JUMPI POP PUSH4 0xFB116B58 EQ PUSH2 0xDA JUMPI PUSH1 0x0 DUP1 REVERT JUMPDEST CALLVALUE PUSH2 0x275 JUMPI PUSH1 0x20 DUP1 PUSH1 0x3 NOT CALLDATASIZE ADD SLT PUSH2 0x275 JUMPI PUSH2 0xF4 PUSH2 0x1532 JUMP JUMPDEST PUSH1 0x6 SLOAD PUSH1 0x0 SWAP3 SWAP2 PUSH1 0x1 PUSH1 0x1 PUSH1 0xA0 SHL SUB SWAP1 DUP2 AND PUSH1 0x1 JUMPDEST DUP4 DUP2 GT ISZERO PUSH2 0x238 JUMPI POP PUSH2 0x11B DUP6 PUSH2 0x18AA JUMP JUMPDEST SWAP5 PUSH2 0x129 PUSH1 0x40 MLOAD SWAP7 DUP8 PUSH2 0x1690 JUMP JUMPDEST DUP1 DUP7 MSTORE PUSH2 0x138 PUSH1 0x1F NOT SWAP2 PUSH2 0x18AA JUMP JUMPDEST ADD DUP5 PUSH1 0x0 JUMPDEST DUP3 DUP2 LT PUSH2 0x222 JUMPI POP POP POP PUSH1 0x0 SWAP1 PUSH1 0x1 JUMPDEST DUP5 DUP2 GT ISZERO PUSH2 0x1C5 JUMPI PUSH1 0x40 DUP1 MLOAD DUP8 DUP2 MSTORE DUP9 MLOAD DUP2 DUP10 ADD DUP2 SWAP1 MSTORE DUP10 DUP10 ADD SWAP3 DUP3 ADD SWAP1 DUP10 PUSH1 0x0 JUMPDEST DUP3 DUP2 LT PUSH2 0x17C JUMPI DUP5 DUP5 SUB DUP6 RETURN JUMPDEST SWAP1 SWAP2 SWAP3 DUP3 PUSH1 0x80 DUP3 PUSH2 0x1B6 PUSH1 0x1 SWAP5 DUP11 MLOAD PUSH1 0x60 DUP1 SWAP2 DUP1 MLOAD DUP5 MSTORE PUSH1 0x1 DUP1 PUSH1 0xA0 SHL SUB PUSH1 0x20 DUP3 ADD MLOAD AND PUSH1 0x20 DUP6 ADD MSTORE PUSH1 0x40 DUP2 ADD MLOAD PUSH1 0x40 DUP6 ADD MSTORE ADD MLOAD SWAP2 ADD MSTORE JUMP JUMPDEST ADD SWAP7 ADD SWAP2 ADD SWAP5 SWAP3 SWAP2 SWAP1 SWAP5 PUSH2 0x16F JUMP JUMPDEST DUP1 PUSH1 0x0 MSTORE PUSH1 0x2 DUP7 MSTORE PUSH1 0x40 PUSH1 0x0 KECCAK256 DUP3 DUP6 PUSH1 0x1 DUP4 ADD SLOAD AND EQ PUSH2 0x1EF JUMPI JUMPDEST POP PUSH2 0x1EA SWAP1 PUSH2 0x183E JUMP JUMPDEST PUSH2 0x14D JUMP JUMPDEST PUSH2 0x1EA SWAP2 SWAP4 PUSH2 0x200 PUSH2 0x21B SWAP3 PUSH2 0x1911 JUMP JUMPDEST PUSH2 0x20A DUP3 DUP12 PUSH2 0x18E7 JUMP JUMPDEST MSTORE PUSH2 0x215 DUP2 DUP11 PUSH2 0x18E7 JUMP JUMPDEST POP PUSH2 0x183E JUMP JUMPDEST SWAP3 SWAP1 PUSH2 0x1E0 JUMP JUMPDEST PUSH2 0x22A PUSH2 0x18C2 JUMP JUMPDEST DUP3 DUP3 DUP11 ADD ADD MSTORE ADD DUP6 SWAP1 PUSH2 0x13D JUMP JUMPDEST DUP1 PUSH1 0x0 MSTORE PUSH1 0x2 DUP6 MSTORE DUP2 DUP4 PUSH1 0x1 PUSH1 0x40 PUSH1 0x0 KECCAK256 ADD SLOAD AND EQ PUSH2 0x260 JUMPI JUMPDEST PUSH2 0x25B SWAP1 PUSH2 0x183E JUMP JUMPDEST PUSH2 0x109 JUMP JUMPDEST SWAP5 PUSH2 0x26D PUSH2 0x25B SWAP2 PUSH2 0x183E JUMP JUMPDEST SWAP6 SWAP1 POP PUSH2 0x252 JUMP JUMPDEST PUSH1 0x0 DUP1 REVERT JUMPDEST CALLVALUE PUSH2 0x275 JUMPI PUSH1 0x80 CALLDATASIZE PUSH1 0x3 NOT ADD SLT PUSH2 0x275 JUMPI PUSH1 0x4 CALLDATALOAD PUSH8 0xFFFFFFFFFFFFFFFF DUP2 GT PUSH2 0x275 JUMPI PUSH2 0x2AB SWAP1 CALLDATASIZE SWAP1 PUSH1 0x4 ADD PUSH2 0x1758 JUMP JUMPDEST SWAP1 PUSH1 0x24 CALLDATALOAD PUSH8 0xFFFFFFFFFFFFFFFF DUP2 GT PUSH2 0x275 JUMPI PUSH2 0x2CC SWAP1 CALLDATASIZE SWAP1 PUSH1 0x4 ADD PUSH2 0x1758 JUMP JUMPDEST SWAP1 CALLER PUSH1 0x0 MSTORE PUSH1 0x0 PUSH1 0x20 MSTORE PUSH2 0x2E7 PUSH1 0xFF PUSH1 0x40 PUSH1 0x0 KECCAK256 SLOAD AND PUSH2 0x17AF JUMP JUMPDEST PUSH2 0x2F4 PUSH1 0x44 CALLDATALOAD ISZERO ISZERO PUSH2 0x17F2 JUMP JUMPDEST TIMESTAMP PUSH1 0x64 CALLDATALOAD GT ISZERO PUSH2 0x728 JUMPI DUP3 MLOAD ISZERO PUSH2 0x6EB JUMPI DUP2 MLOAD ISZERO PUSH2 0x6A6 JUMPI PUSH2 0x317 PUSH1 0x7 SLOAD PUSH2 0x183E JUMP JUMPDEST SWAP1 DUP2 PUSH1 0x7 SSTORE PUSH1 0x40 MLOAD SWAP2 PUSH2 0x329 DUP4 PUSH2 0x1657 JUMP JUMPDEST DUP1 DUP4 MSTORE PUSH1 0x20 DUP4 ADD SWAP4 DUP6 DUP6 MSTORE PUSH1 0x40 DUP5 ADD MSTORE PUSH1 0x44 CALLDATALOAD PUSH1 0x60 DUP5 ADD MSTORE PUSH1 0x64 CALLDATALOAD PUSH1 0x80 DUP5 ADD MSTORE CALLER PUSH1 0xA0 DUP5 ADD MSTORE PUSH1 0x1 PUSH1 0xC0 DUP5 ADD MSTORE PUSH1 0x0 DUP3 DUP5 ADD MSTORE PUSH1 0x0 PUSH2 0x100 DUP5 ADD MSTORE PUSH1 0x0 MSTORE PUSH1 0x3 PUSH1 0x20 MSTORE PUSH1 0x40 PUSH1 0x0 KECCAK256 SWAP3 DUP3 MLOAD DUP5 SSTORE MLOAD DUP1 MLOAD SWAP1 PUSH8 0xFFFFFFFFFFFFFFFF DUP3 GT PUSH2 0x5C0 JUMPI DUP2 SWAP1 PUSH2 0x398 PUSH1 0x1 DUP8 ADD SLOAD PUSH2 0x161D JUMP JUMPDEST PUSH1 0x1F DUP2 GT PUSH2 0x653 JUMPI JUMPDEST POP PUSH1 0x20 SWAP1 PUSH1 0x1F DUP4 GT PUSH1 0x1 EQ PUSH2 0x5E1 JUMPI PUSH1 0x0 SWAP3 PUSH2 0x5D6 JUMPI JUMPDEST POP POP DUP2 PUSH1 0x1 SHL SWAP2 PUSH1 0x0 NOT SWAP1 PUSH1 0x3 SHL SHR NOT AND OR PUSH1 0x1 DUP5 ADD SSTORE JUMPDEST PUSH1 0x40 DUP3 ADD MLOAD DUP1 MLOAD SWAP1 PUSH8 0xFFFFFFFFFFFFFFFF DUP3 GT PUSH2 0x5C0 JUMPI PUSH2 0x3F4 PUSH1 0x2 DUP7 ADD SLOAD PUSH2 0x161D JUMP JUMPDEST PUSH1 0x1F DUP2 GT PUSH2 0x579 JUMPI JUMPDEST POP PUSH1 0x20 SWAP1 PUSH1 0x1F DUP4 GT PUSH1 0x1 EQ PUSH2 0x502 JUMPI SWAP2 DUP1 PUSH2 0x100 SWAP5 SWAP3 PUSH1 0x7 SWAP7 SWAP5 PUSH1 0x0 SWAP3 PUSH2 0x4F7 JUMPI JUMPDEST POP POP DUP2 PUSH1 0x1 SHL SWAP2 PUSH1 0x0 NOT SWAP1 PUSH1 0x3 SHL SHR NOT AND OR PUSH1 0x2 DUP7 ADD SSTORE JUMPDEST PUSH1 0x60 DUP3 ADD MLOAD PUSH1 0x3 DUP7 ADD SSTORE PUSH1 0x80 DUP3 ADD MLOAD PUSH1 0x4 DUP7 ADD SSTORE PUSH1 0x5 DUP6 ADD PUSH1 0x1 DUP1 PUSH1 0xA0 SHL SUB SWAP1 DUP2 PUSH1 0xA0 DUP6 ADD MLOAD AND DUP2 SLOAD SWAP1 PUSH1 0xFF PUSH1 0xA0 SHL PUSH1 0xC0 DUP8 ADD MLOAD ISZERO ISZERO PUSH1 0xA0 SHL AND SWAP2 PUSH11 0xFFFFFFFFFFFFFFFFFFFFFF PUSH1 0xA8 SHL AND OR OR SWAP1 SSTORE PUSH1 0x6 DUP7 ADD SWAP2 DUP4 ADD MLOAD AND PUSH1 0x1 PUSH1 0x1 PUSH1 0x60 SHL SUB PUSH1 0xA0 SHL DUP3 SLOAD AND OR SWAP1 SSTORE ADD MLOAD SWAP2 ADD SSTORE PUSH1 0x7 SLOAD PUSH32 0xA57590356B27448860A006F0265445002790351FE29648717DF7EC7481C9E4DF PUSH2 0x4DE PUSH1 0x40 MLOAD SWAP4 PUSH1 0x60 DUP6 MSTORE PUSH1 0x60 DUP6 ADD SWAP1 PUSH2 0x155E JUMP JUMPDEST SWAP3 PUSH1 0x44 CALLDATALOAD PUSH1 0x20 DUP3 ADD MSTORE PUSH1 0x64 CALLDATALOAD PUSH1 0x40 DUP3 ADD MSTORE DUP1 CALLER SWAP5 SUB SWAP1 LOG3 STOP JUMPDEST ADD MLOAD SWAP1 POP DUP9 DUP1 PUSH2 0x41F JUMP JUMPDEST SWAP1 PUSH1 0x2 DUP7 ADD PUSH1 0x0 MSTORE PUSH1 0x20 PUSH1 0x0 KECCAK256 SWAP2 PUSH1 0x0 JUMPDEST PUSH1 0x1F NOT DUP6 AND DUP2 LT PUSH2 0x561 JUMPI POP SWAP3 PUSH2 0x100 SWAP5 SWAP3 PUSH1 0x1 SWAP3 PUSH1 0x7 SWAP8 SWAP6 DUP4 PUSH1 0x1F NOT DUP2 AND LT PUSH2 0x548 JUMPI JUMPDEST POP POP POP DUP2 SHL ADD PUSH1 0x2 DUP7 ADD SSTORE PUSH2 0x437 JUMP JUMPDEST ADD MLOAD PUSH1 0x0 NOT PUSH1 0xF8 DUP5 PUSH1 0x3 SHL AND SHR NOT AND SWAP1 SSTORE DUP9 DUP1 DUP1 PUSH2 0x538 JUMP JUMPDEST SWAP2 SWAP3 PUSH1 0x20 PUSH1 0x1 DUP2 SWAP3 DUP7 DUP6 ADD MLOAD DUP2 SSTORE ADD SWAP5 ADD SWAP3 ADD PUSH2 0x513 JUMP JUMPDEST PUSH1 0x2 DUP7 ADD PUSH1 0x0 MSTORE PUSH1 0x20 PUSH1 0x0 KECCAK256 PUSH1 0x1F DUP5 ADD PUSH1 0x5 SHR DUP2 ADD PUSH1 0x20 DUP6 LT PUSH2 0x5B9 JUMPI JUMPDEST PUSH1 0x1F DUP4 ADD PUSH1 0x5 SHR DUP3 ADD DUP2 LT PUSH2 0x5AD JUMPI POP POP PUSH2 0x3FD JUMP JUMPDEST PUSH1 0x0 DUP2 SSTORE PUSH1 0x1 ADD PUSH2 0x597 JUMP JUMPDEST POP DUP1 PUSH2 0x597 JUMP JUMPDEST PUSH4 0x4E487B71 PUSH1 0xE0 SHL PUSH1 0x0 MSTORE PUSH1 0x41 PUSH1 0x4 MSTORE PUSH1 0x24 PUSH1 0x0 REVERT JUMPDEST ADD MLOAD SWAP1 POP DUP7 DUP1 PUSH2 0x3B8 JUMP JUMPDEST SWAP3 POP PUSH1 0x1 DUP7 ADD PUSH1 0x0 MSTORE PUSH1 0x20 PUSH1 0x0 KECCAK256 SWAP1 PUSH1 0x0 SWAP4 JUMPDEST PUSH1 0x1F NOT DUP5 AND DUP6 LT PUSH2 0x638 JUMPI PUSH1 0x1 SWAP5 POP DUP4 PUSH1 0x1F NOT DUP2 AND LT PUSH2 0x61F JUMPI JUMPDEST POP POP POP DUP2 SHL ADD PUSH1 0x1 DUP5 ADD SSTORE PUSH2 0x3D0 JUMP JUMPDEST ADD MLOAD PUSH1 0x0 NOT PUSH1 0xF8 DUP5 PUSH1 0x3 SHL AND SHR NOT AND SWAP1 SSTORE DUP7 DUP1 DUP1 PUSH2 0x60F JUMP JUMPDEST DUP2 DUP2 ADD MLOAD DUP4 SSTORE PUSH1 0x20 SWAP5 DUP6 ADD SWAP5 PUSH1 0x1 SWAP1 SWAP4 ADD SWAP3 SWAP1 SWAP2 ADD SWAP1 PUSH2 0x5F4 JUMP JUMPDEST SWAP1 SWAP2 POP PUSH1 0x1 DUP7 ADD PUSH1 0x0 MSTORE PUSH1 0x20 PUSH1 0x0 KECCAK256 PUSH1 0x1F DUP5 ADD PUSH1 0x5 SHR DUP2 ADD PUSH1 0x20 DUP6 LT PUSH2 0x69F JUMPI JUMPDEST SWAP1 DUP5 SWAP4 SWAP3 SWAP2 JUMPDEST PUSH1 0x1F DUP4 ADD PUSH1 0x5 SHR DUP3 ADD DUP2 LT PUSH2 0x690 JUMPI POP POP PUSH2 0x3A1 JUMP JUMPDEST PUSH1 0x0 DUP2 SSTORE DUP6 SWAP5 POP PUSH1 0x1 ADD PUSH2 0x67A JUMP JUMPDEST POP DUP1 PUSH2 0x674 JUMP JUMPDEST PUSH1 0x40 MLOAD PUSH3 0x461BCD PUSH1 0xE5 SHL DUP2 MSTORE PUSH1 0x20 PUSH1 0x4 DUP3 ADD MSTORE PUSH1 0x1B PUSH1 0x24 DUP3 ADD MSTORE PUSH32 0x4465736372697074696F6E2063616E6E6F7420626520656D7074790000000000 PUSH1 0x44 DUP3 ADD MSTORE PUSH1 0x64 SWAP1 REVERT JUMPDEST PUSH1 0x40 MLOAD PUSH3 0x461BCD PUSH1 0xE5 SHL DUP2 MSTORE PUSH1 0x20 PUSH1 0x4 DUP3 ADD MSTORE PUSH1 0x15 PUSH1 0x24 DUP3 ADD MSTORE PUSH21 0x5469746C652063616E6E6F7420626520656D707479 PUSH1 0x58 SHL PUSH1 0x44 DUP3 ADD MSTORE PUSH1 0x64 SWAP1 REVERT JUMPDEST PUSH1 0x40 MLOAD PUSH3 0x461BCD PUSH1 0xE5 SHL DUP2 MSTORE PUSH1 0x20 PUSH1 0x4 DUP3 ADD MSTORE PUSH1 0x1E PUSH1 0x24 DUP3 ADD MSTORE PUSH32 0x446561646C696E65206D75737420626520696E20746865206675747572650000 PUSH1 0x44 DUP3 ADD MSTORE PUSH1 0x64 SWAP1 REVERT JUMPDEST CALLVALUE PUSH2 0x275 JUMPI PUSH1 0x20 CALLDATASIZE PUSH1 0x3 NOT ADD SLT PUSH2 0x275 JUMPI PUSH1 0x4 CALLDATALOAD PUSH1 0x0 SWAP1 DUP2 MSTORE PUSH1 0x2 PUSH1 0x20 DUP2 DUP2 MSTORE PUSH1 0x40 SWAP3 DUP4 SWAP1 KECCAK256 DUP1 SLOAD PUSH1 0x1 DUP3 ADD SLOAD SWAP4 DUP3 ADD SLOAD PUSH1 0x3 SWAP1 SWAP3 ADD SLOAD DUP6 MLOAD SWAP2 DUP3 MSTORE PUSH1 0x1 PUSH1 0x1 PUSH1 0xA0 SHL SUB SWAP1 SWAP5 AND SWAP3 DUP2 ADD SWAP3 SWAP1 SWAP3 MSTORE SWAP3 DUP2 ADD SWAP3 SWAP1 SWAP3 MSTORE PUSH1 0x60 DUP3 ADD MSTORE PUSH1 0x80 SWAP1 RETURN JUMPDEST SUB SWAP1 RETURN JUMPDEST CALLVALUE PUSH2 0x275 JUMPI PUSH1 0x20 DUP1 PUSH1 0x3 NOT CALLDATASIZE ADD SLT PUSH2 0x275 JUMPI PUSH1 0x4 CALLDATALOAD SWAP1 CALLER PUSH1 0x0 MSTORE PUSH1 0x0 DUP2 MSTORE PUSH2 0x7FF PUSH1 0xFF PUSH1 0x40 PUSH1 0x0 KECCAK256 SLOAD AND PUSH2 0x17AF JUMP JUMPDEST PUSH2 0x80A DUP3 ISZERO ISZERO PUSH2 0x17F2 JUMP JUMPDEST PUSH2 0x886 PUSH2 0x818 PUSH1 0x6 SLOAD PUSH2 0x183E JUMP JUMPDEST DUP1 PUSH1 0x6 SSTORE PUSH1 0x40 MLOAD SWAP1 PUSH2 0x829 DUP3 PUSH2 0x1674 JUMP JUMPDEST DUP1 DUP3 MSTORE CALLER DUP5 DUP4 ADD MSTORE DUP5 PUSH1 0x40 DUP4 ADD MSTORE TIMESTAMP PUSH1 0x60 DUP4 ADD MSTORE PUSH1 0x0 MSTORE PUSH1 0x2 DUP4 MSTORE PUSH1 0x40 PUSH1 0x0 KECCAK256 SWAP1 PUSH1 0x60 PUSH1 0x3 SWAP2 DUP1 MLOAD DUP5 SSTORE PUSH1 0x1 DUP5 ADD PUSH1 0x1 DUP1 PUSH1 0xA0 SHL SUB PUSH1 0x20 DUP4 ADD MLOAD AND PUSH1 0x1 PUSH1 0x1 PUSH1 0x60 SHL SUB PUSH1 0xA0 SHL DUP3 SLOAD AND OR SWAP1 SSTORE PUSH1 0x40 DUP2 ADD MLOAD PUSH1 0x2 DUP6 ADD SSTORE ADD MLOAD SWAP2 ADD SSTORE JUMP JUMPDEST CALLER PUSH1 0x0 MSTORE PUSH1 0x0 DUP2 MSTORE PUSH1 0x3 PUSH1 0x40 PUSH1 0x0 KECCAK256 ADD PUSH2 0x8A1 DUP4 DUP3 SLOAD PUSH2 0x184D JUMP JUMPDEST SWAP1 SSTORE PUSH32 0xD26743B74D62DD5AD8E62C8DE6634906ADC90975C3BF8085F74D522960D2EB5D PUSH1 0x6 SLOAD SWAP2 PUSH1 0x40 MLOAD SWAP4 DUP5 MSTORE CALLER SWAP4 LOG3 STOP JUMPDEST CALLVALUE PUSH2 0x275 JUMPI PUSH1 0x20 DUP1 PUSH1 0x3 NOT CALLDATASIZE ADD SLT PUSH2 0x275 JUMPI PUSH1 0x4 CALLDATALOAD DUP1 PUSH1 0x0 MSTORE PUSH1 0x3 SWAP2 DUP3 DUP2 MSTORE PUSH2 0x909 PUSH1 0xFF PUSH1 0x5 PUSH1 0x40 PUSH1 0x0 KECCAK256 ADD SLOAD PUSH1 0xA0 SHR AND PUSH2 0x185A JUMP JUMPDEST DUP2 PUSH1 0x0 MSTORE DUP3 DUP2 MSTORE PUSH1 0x4 PUSH1 0x40 PUSH1 0x0 KECCAK256 ADD SLOAD TIMESTAMP LT PUSH2 0xA70 JUMPI PUSH1 0x0 DUP3 DUP2 MSTORE DUP4 DUP3 MSTORE PUSH1 0x40 SWAP1 KECCAK256 PUSH1 0x6 ADD SLOAD PUSH1 0x1 PUSH1 0x1 PUSH1 0xA0 SHL SUB SWAP1 DUP2 AND ISZERO PUSH2 0xA35 JUMPI DUP3 PUSH1 0x0 MSTORE DUP4 DUP3 MSTORE DUP1 PUSH1 0x5 PUSH1 0x40 PUSH1 0x0 KECCAK256 ADD SLOAD AND CALLER SUB PUSH2 0x9F0 JUMPI SWAP1 PUSH1 0x7 PUSH32 0xB6DA2D97C7BE1B795C416CC5E17D479A1A6FB59B6E95214EE25AAAF42796C802 SWAP3 DUP5 PUSH1 0x0 MSTORE DUP6 DUP4 MSTORE PUSH1 0x40 PUSH1 0x0 KECCAK256 SWAP6 PUSH1 0x5 DUP8 ADD PUSH1 0xFF PUSH1 0xA0 SHL NOT DUP2 SLOAD AND DUP2 SSTORE PUSH2 0x9E0 DUP3 DUP10 ADD SWAP3 DUP5 DUP5 SLOAD SWAP5 PUSH1 0x6 DUP13 ADD SWAP6 DUP3 DUP8 SLOAD AND PUSH1 0x0 MSTORE PUSH1 0x0 DUP11 MSTORE PUSH2 0x9C5 DUP5 PUSH1 0x40 PUSH1 0x0 KECCAK256 ADD SWAP2 DUP3 SLOAD PUSH2 0x184D JUMP JUMPDEST SWAP1 SSTORE SLOAD SWAP4 SLOAD AND PUSH1 0x0 MSTORE PUSH1 0x0 DUP8 MSTORE PUSH1 0x40 PUSH1 0x0 KECCAK256 ADD SWAP2 DUP3 SLOAD PUSH2 0x189D JUMP JUMPDEST SWAP1 SSTORE SLOAD AND SWAP5 ADD SLOAD PUSH1 0x40 MLOAD SWAP1 DUP2 MSTORE LOG3 STOP JUMPDEST PUSH1 0x40 MLOAD PUSH3 0x461BCD PUSH1 0xE5 SHL DUP2 MSTORE PUSH1 0x4 DUP2 ADD DUP4 SWAP1 MSTORE PUSH1 0x1C PUSH1 0x24 DUP3 ADD MSTORE PUSH32 0x4F6E6C79206973737565722063616E2061776172642074656E64657200000000 PUSH1 0x44 DUP3 ADD MSTORE PUSH1 0x64 SWAP1 REVERT JUMPDEST PUSH1 0x40 MLOAD PUSH3 0x461BCD PUSH1 0xE5 SHL DUP2 MSTORE PUSH1 0x4 DUP2 ADD DUP4 SWAP1 MSTORE PUSH1 0x13 PUSH1 0x24 DUP3 ADD MSTORE PUSH19 0x139BC81D985B1A5908189A591CC8199BDD5B99 PUSH1 0x6A SHL PUSH1 0x44 DUP3 ADD MSTORE PUSH1 0x64 SWAP1 REVERT JUMPDEST PUSH1 0x64 SWAP1 PUSH1 0x40 MLOAD SWAP1 PUSH3 0x461BCD PUSH1 0xE5 SHL DUP3 MSTORE PUSH1 0x4 DUP3 ADD MSTORE PUSH1 0x1E PUSH1 0x24 DUP3 ADD MSTORE PUSH32 0x54656E64657220646561646C696E6520686173206E6F74207061737365640000 PUSH1 0x44 DUP3 ADD MSTORE REVERT JUMPDEST CALLVALUE PUSH2 0x275 JUMPI PUSH2 0xAC2 CALLDATASIZE PUSH2 0x1548 JUMP JUMPDEST PUSH1 0x0 SWAP2 DUP3 MSTORE PUSH1 0x4 PUSH1 0x20 SWAP1 DUP2 MSTORE PUSH1 0x40 DUP1 DUP5 KECCAK256 SWAP3 DUP5 MSTORE SWAP2 DUP2 MSTORE SWAP2 DUP2 SWAP1 KECCAK256 DUP1 SLOAD PUSH1 0x1 DUP3 ADD SLOAD PUSH1 0x2 DUP4 ADD SLOAD PUSH1 0x3 SWAP1 SWAP4 ADD SLOAD DUP5 MLOAD SWAP3 DUP4 MSTORE PUSH1 0x1 PUSH1 0x1 PUSH1 0xA0 SHL SUB SWAP1 SWAP2 AND SWAP5 DUP3 ADD SWAP5 SWAP1 SWAP5 MSTORE SWAP2 DUP3 ADD MSTORE PUSH1 0x60 DUP2 ADD SWAP2 SWAP1 SWAP2 MSTORE PUSH1 0x80 SWAP1 RETURN JUMPDEST CALLVALUE PUSH2 0x275 JUMPI PUSH1 0x20 DUP1 PUSH1 0x3 NOT CALLDATASIZE ADD SLT PUSH2 0x275 JUMPI PUSH2 0xB31 PUSH2 0x1532 JUMP JUMPDEST SWAP1 CALLER PUSH1 0x0 MSTORE PUSH1 0x1 SWAP1 DUP2 DUP2 MSTORE PUSH1 0x40 PUSH1 0x0 KECCAK256 SWAP3 PUSH1 0x1 DUP1 PUSH1 0xA0 SHL SUB AND SWAP3 DUP4 PUSH1 0x0 MSTORE DUP2 MSTORE PUSH1 0xFF PUSH1 0x40 PUSH1 0x0 KECCAK256 SLOAD AND PUSH2 0xC5B JUMPI DUP3 PUSH1 0x0 MSTORE PUSH1 0x0 DUP2 MSTORE PUSH2 0xB77 PUSH1 0xFF PUSH1 0x40 PUSH1 0x0 KECCAK256 SLOAD AND PUSH2 0x17AF JUMP JUMPDEST DUP3 PUSH1 0x0 MSTORE PUSH1 0x0 DUP2 MSTORE DUP2 PUSH1 0x40 PUSH1 0x0 KECCAK256 ADD CALLER PUSH1 0x0 MSTORE DUP2 MSTORE PUSH1 0x40 PUSH1 0x0 KECCAK256 SLOAD PUSH2 0xC17 JUMPI DUP3 PUSH1 0x0 MSTORE PUSH1 0x0 DUP2 MSTORE DUP2 PUSH1 0x40 PUSH1 0x0 KECCAK256 ADD CALLER PUSH1 0x0 MSTORE DUP2 MSTORE DUP2 PUSH1 0x40 PUSH1 0x0 KECCAK256 SSTORE DUP3 PUSH1 0x0 MSTORE PUSH1 0x0 DUP2 MSTORE PUSH1 0x2 PUSH1 0x40 PUSH1 0x0 KECCAK256 ADD PUSH2 0xBCC DUP2 SLOAD PUSH2 0x183E JUMP JUMPDEST SWAP1 SSTORE CALLER PUSH1 0x0 MSTORE DUP2 DUP2 MSTORE PUSH1 0x40 PUSH1 0x0 KECCAK256 SWAP1 DUP4 PUSH1 0x0 MSTORE MSTORE PUSH1 0x40 PUSH1 0x0 KECCAK256 SWAP1 PUSH1 0xFF NOT DUP3 SLOAD AND OR SWAP1 SSTORE CALLER PUSH32 0xCE0C7A2A940807F7DC2CE7A615C2532E915E6C0AC9A08BC4ED9D515A710A53E2 PUSH1 0x0 DUP1 LOG3 STOP JUMPDEST PUSH1 0x64 SWAP1 PUSH1 0x40 MLOAD SWAP1 PUSH3 0x461BCD PUSH1 0xE5 SHL DUP3 MSTORE PUSH1 0x4 DUP3 ADD MSTORE PUSH1 0x1D PUSH1 0x24 DUP3 ADD MSTORE PUSH32 0x416C726561647920766F74656420666F72207468697320656E74697479000000 PUSH1 0x44 DUP3 ADD MSTORE REVERT JUMPDEST PUSH1 0x84 SWAP1 PUSH1 0x40 MLOAD SWAP1 PUSH3 0x461BCD PUSH1 0xE5 SHL DUP3 MSTORE PUSH1 0x4 DUP3 ADD MSTORE PUSH1 0x26 PUSH1 0x24 DUP3 ADD MSTORE PUSH32 0x596F75206861766520616C726561647920766F74656420666F72207468697320 PUSH1 0x44 DUP3 ADD MSTORE PUSH6 0x656E74697479 PUSH1 0xD0 SHL PUSH1 0x64 DUP3 ADD MSTORE REVERT JUMPDEST CALLVALUE PUSH2 0x275 JUMPI PUSH2 0xCBC CALLDATASIZE PUSH2 0x1548 JUMP JUMPDEST SWAP1 CALLER PUSH1 0x0 MSTORE PUSH1 0x20 SWAP1 PUSH1 0x0 DUP3 MSTORE PUSH2 0xCD9 PUSH1 0xFF PUSH1 0x40 PUSH1 0x0 KECCAK256 SLOAD AND PUSH2 0x17AF JUMP JUMPDEST PUSH2 0xCE4 DUP4 ISZERO ISZERO PUSH2 0x17F2 JUMP JUMPDEST DUP1 PUSH1 0x0 MSTORE PUSH1 0x3 DUP3 MSTORE PUSH2 0xD03 PUSH1 0xFF PUSH1 0x5 PUSH1 0x40 PUSH1 0x0 KECCAK256 ADD SLOAD PUSH1 0xA0 SHR AND PUSH2 0x185A JUMP JUMPDEST DUP1 PUSH1 0x0 MSTORE PUSH1 0x3 DUP3 MSTORE PUSH1 0x4 PUSH1 0x40 PUSH1 0x0 KECCAK256 ADD SLOAD TIMESTAMP LT ISZERO PUSH2 0xE86 JUMPI DUP1 PUSH1 0x0 MSTORE PUSH1 0x3 DUP3 MSTORE PUSH1 0x1 DUP1 PUSH1 0xA0 SHL SUB PUSH1 0x5 PUSH1 0x40 PUSH1 0x0 KECCAK256 ADD SLOAD AND CALLER EQ PUSH2 0xE41 JUMPI SWAP1 DUP2 PUSH1 0x3 SWAP3 PUSH1 0x0 MSTORE PUSH1 0x5 DUP3 MSTORE PUSH1 0x40 PUSH1 0x0 KECCAK256 DUP1 SLOAD SWAP1 PUSH2 0xD57 DUP3 PUSH2 0x183E JUMP JUMPDEST SWAP1 SSTORE PUSH2 0xDD1 PUSH1 0x40 MLOAD PUSH2 0xD68 DUP2 PUSH2 0x1674 JUMP JUMPDEST DUP3 DUP2 MSTORE CALLER DUP6 DUP3 ADD MSTORE DUP7 PUSH1 0x40 DUP3 ADD MSTORE TIMESTAMP PUSH1 0x60 DUP3 ADD MSTORE DUP4 PUSH1 0x0 MSTORE PUSH1 0x4 DUP6 MSTORE PUSH1 0x40 PUSH1 0x0 KECCAK256 DUP4 PUSH1 0x0 MSTORE DUP6 MSTORE PUSH1 0x40 PUSH1 0x0 KECCAK256 SWAP1 PUSH1 0x60 PUSH1 0x3 SWAP2 DUP1 MLOAD DUP5 SSTORE PUSH1 0x1 DUP5 ADD PUSH1 0x1 DUP1 PUSH1 0xA0 SHL SUB PUSH1 0x20 DUP4 ADD MLOAD AND PUSH1 0x1 PUSH1 0x1 PUSH1 0x60 SHL SUB PUSH1 0xA0 SHL DUP3 SLOAD AND OR SWAP1 SSTORE PUSH1 0x40 DUP2 ADD MLOAD PUSH1 0x2 DUP6 ADD SSTORE ADD MLOAD SWAP2 ADD SSTORE JUMP JUMPDEST PUSH1 0x40 MLOAD SWAP1 DUP6 DUP3 MSTORE DUP3 PUSH32 0x6F7E354EA3AB5C288AEA37FCE29C603F9A98A3B040F6D8F32F10E192EC47FF6A DUP6 CALLER SWAP5 LOG4 PUSH1 0x0 MSTORE MSTORE PUSH1 0x40 PUSH1 0x0 KECCAK256 PUSH1 0x7 DUP2 ADD SWAP2 DUP3 SLOAD DUP1 ISZERO SWAP1 DUP2 ISZERO PUSH2 0xE37 JUMPI JUMPDEST POP PUSH2 0xE1F JUMPI STOP JUMPDEST SWAP1 SWAP2 SSTORE PUSH1 0x6 ADD DUP1 SLOAD PUSH1 0x1 PUSH1 0x1 PUSH1 0xA0 SHL SUB NOT AND CALLER OR SWAP1 SSTORE STOP JUMPDEST SWAP1 POP DUP2 LT DUP5 PUSH2 0xE18 JUMP JUMPDEST PUSH1 0x40 MLOAD PUSH3 0x461BCD PUSH1 0xE5 SHL DUP2 MSTORE PUSH1 0x4 DUP2 ADD DUP4 SWAP1 MSTORE PUSH1 0x17 PUSH1 0x24 DUP3 ADD MSTORE PUSH32 0x4973737565722063616E6E6F7420706C61636520626964000000000000000000 PUSH1 0x44 DUP3 ADD MSTORE PUSH1 0x64 SWAP1 REVERT JUMPDEST PUSH1 0x40 MLOAD PUSH3 0x461BCD PUSH1 0xE5 SHL DUP2 MSTORE PUSH1 0x4 DUP2 ADD DUP4 SWAP1 MSTORE PUSH1 0x1A PUSH1 0x24 DUP3 ADD MSTORE PUSH32 0x54656E64657220646561646C696E652068617320706173736564000000000000 PUSH1 0x44 DUP3 ADD MSTORE PUSH1 0x64 SWAP1 REVERT JUMPDEST CALLVALUE PUSH2 0x275 JUMPI PUSH1 0x20 DUP1 PUSH1 0x3 NOT CALLDATASIZE ADD SLT PUSH2 0x275 JUMPI PUSH1 0x4 CALLDATALOAD PUSH2 0xEE8 PUSH2 0x194C JUMP JUMPDEST POP DUP1 ISZERO ISZERO DUP1 PUSH2 0xFCC JUMPI JUMPDEST ISZERO PUSH2 0xF93 JUMPI PUSH1 0x0 MSTORE PUSH1 0x3 DUP2 MSTORE PUSH1 0x7 PUSH1 0x40 PUSH1 0x0 KECCAK256 PUSH1 0x40 MLOAD SWAP4 PUSH2 0xF12 DUP6 PUSH2 0x1657 JUMP JUMPDEST DUP2 SLOAD DUP6 MSTORE PUSH2 0xF22 PUSH1 0x1 DUP4 ADD PUSH2 0x16B2 JUMP JUMPDEST DUP5 DUP7 ADD MSTORE PUSH2 0xF32 PUSH1 0x2 DUP4 ADD PUSH2 0x16B2 JUMP JUMPDEST PUSH1 0x40 DUP7 ADD MSTORE PUSH1 0x3 DUP3 ADD SLOAD PUSH1 0x60 DUP7 ADD MSTORE PUSH1 0x4 DUP3 ADD SLOAD PUSH1 0x80 DUP7 ADD MSTORE PUSH1 0x5 DUP3 ADD SLOAD PUSH1 0xFF PUSH1 0x1 DUP1 PUSH1 0xA0 SHL SUB SWAP2 DUP3 DUP2 AND PUSH1 0xA0 DUP10 ADD MSTORE PUSH1 0xA0 SHR AND ISZERO ISZERO PUSH1 0xC0 DUP8 ADD MSTORE PUSH1 0x6 DUP4 ADD SLOAD AND SWAP1 DUP6 ADD MSTORE ADD SLOAD PUSH2 0x100 DUP4 ADD MSTORE PUSH2 0x7CC PUSH1 0x40 MLOAD SWAP3 DUP3 DUP5 SWAP4 DUP5 MSTORE DUP4 ADD SWAP1 PUSH2 0x159E JUMP JUMPDEST PUSH1 0x40 MLOAD PUSH3 0x461BCD PUSH1 0xE5 SHL DUP2 MSTORE PUSH1 0x4 DUP2 ADD DUP4 SWAP1 MSTORE PUSH1 0x11 PUSH1 0x24 DUP3 ADD MSTORE PUSH17 0x125B9D985B1A59081D195B99195C881251 PUSH1 0x7A SHL PUSH1 0x44 DUP3 ADD MSTORE PUSH1 0x64 SWAP1 REVERT JUMPDEST POP PUSH1 0x7 SLOAD DUP2 GT ISZERO PUSH2 0xEF2 JUMP JUMPDEST CALLVALUE PUSH2 0x275 JUMPI PUSH1 0x0 CALLDATASIZE PUSH1 0x3 NOT ADD SLT PUSH2 0x275 JUMPI PUSH1 0x20 PUSH1 0x6 SLOAD PUSH1 0x40 MLOAD SWAP1 DUP2 MSTORE RETURN JUMPDEST CALLVALUE PUSH2 0x275 JUMPI PUSH1 0x40 CALLDATASIZE PUSH1 0x3 NOT ADD SLT PUSH2 0x275 JUMPI PUSH2 0x100F PUSH2 0x1532 JUMP JUMPDEST PUSH1 0x1 PUSH1 0x1 PUSH1 0xA0 SHL SUB PUSH1 0x24 CALLDATALOAD DUP2 DUP2 AND SWAP3 SWAP1 DUP4 SWAP1 SUB PUSH2 0x275 JUMPI AND PUSH1 0x0 MSTORE PUSH1 0x1 PUSH1 0x20 MSTORE PUSH1 0x40 PUSH1 0x0 KECCAK256 SWAP1 PUSH1 0x0 MSTORE PUSH1 0x20 MSTORE PUSH1 0x20 PUSH1 0xFF PUSH1 0x40 PUSH1 0x0 KECCAK256 SLOAD AND PUSH1 0x40 MLOAD SWAP1 ISZERO ISZERO DUP2 MSTORE RETURN JUMPDEST CALLVALUE PUSH2 0x275 JUMPI PUSH1 0x20 CALLDATASIZE PUSH1 0x3 NOT ADD SLT PUSH2 0x275 JUMPI PUSH1 0x4 CALLDATALOAD PUSH1 0x0 MSTORE PUSH1 0x3 PUSH1 0x20 MSTORE PUSH1 0x40 PUSH1 0x0 KECCAK256 SWAP1 DUP2 SLOAD SWAP1 PUSH2 0x1081 PUSH1 0x1 DUP5 ADD PUSH2 0x16B2 JUMP JUMPDEST SWAP3 PUSH2 0x108E PUSH1 0x2 DUP3 ADD PUSH2 0x16B2 JUMP JUMPDEST SWAP1 PUSH1 0x3 DUP2 ADD SLOAD SWAP3 PUSH1 0xFF PUSH1 0x4 DUP4 ADD SLOAD PUSH1 0x5 DUP5 ADD SLOAD SWAP1 PUSH1 0x1 DUP1 PUSH1 0xA0 SHL SUB SWAP1 PUSH2 0x10E6 PUSH1 0x7 DUP4 PUSH1 0x6 DUP10 ADD SLOAD AND SWAP8 ADD SLOAD SWAP8 PUSH2 0x10D8 PUSH1 0x40 MLOAD SWAP13 DUP14 SWAP13 DUP14 MSTORE PUSH1 0x20 DUP14 PUSH2 0x120 SWAP2 DUP3 SWAP2 ADD MSTORE DUP14 ADD SWAP1 PUSH2 0x155E JUMP JUMPDEST SWAP1 DUP12 DUP3 SUB PUSH1 0x40 DUP14 ADD MSTORE PUSH2 0x155E JUMP JUMPDEST SWAP8 PUSH1 0x60 DUP11 ADD MSTORE PUSH1 0x80 DUP10 ADD MSTORE DUP2 AND PUSH1 0xA0 DUP9 ADD MSTORE PUSH1 0xA0 SHR AND ISZERO ISZERO PUSH1 0xC0 DUP7 ADD MSTORE DUP5 ADD MSTORE PUSH2 0x100 DUP4 ADD MSTORE SUB SWAP1 RETURN JUMPDEST CALLVALUE PUSH2 0x275 JUMPI PUSH1 0x0 CALLDATASIZE PUSH1 0x3 NOT ADD SLT PUSH2 0x275 JUMPI PUSH1 0x20 PUSH1 0x7 SLOAD PUSH1 0x40 MLOAD SWAP1 DUP2 MSTORE RETURN JUMPDEST CALLVALUE PUSH2 0x275 JUMPI PUSH2 0x113C CALLDATASIZE PUSH2 0x1548 JUMP JUMPDEST PUSH1 0x7 SWAP3 SWAP2 SWAP3 SWAP2 DUP3 SLOAD DUP1 DUP6 LT ISZERO PUSH2 0x1344 JUMPI DUP3 ISZERO PUSH2 0x12FF JUMPI DUP1 DUP6 SWAP2 PUSH2 0x115F DUP6 DUP5 PUSH2 0x184D JUMP JUMPDEST GT PUSH2 0x12EC JUMPI JUMPDEST POP POP PUSH2 0x1170 DUP3 PUSH2 0x18AA JUMP JUMPDEST SWAP4 PUSH2 0x117E PUSH1 0x40 MLOAD SWAP6 DUP7 PUSH2 0x1690 JUMP JUMPDEST DUP3 DUP6 MSTORE PUSH1 0x1F NOT PUSH2 0x118D DUP5 PUSH2 0x18AA JUMP JUMPDEST ADD PUSH1 0x0 JUMPDEST DUP2 DUP2 LT PUSH2 0x12D5 JUMPI POP POP PUSH1 0x0 JUMPDEST DUP4 DUP2 LT PUSH2 0x1203 JUMPI PUSH1 0x40 DUP1 MLOAD PUSH1 0x20 DUP1 DUP3 MSTORE DUP9 MLOAD DUP2 DUP4 ADD DUP2 SWAP1 MSTORE PUSH1 0x0 SWAP4 PUSH1 0x5 DUP3 SWAP1 SHL DUP5 ADD DUP2 ADD SWAP3 DUP1 DUP13 ADD SWAP3 SWAP2 DUP6 ADD JUMPDEST DUP3 DUP8 LT PUSH2 0x11D7 JUMPI DUP6 DUP6 SUB DUP7 RETURN JUMPDEST SWAP1 SWAP2 SWAP3 SWAP4 DUP3 DUP1 PUSH2 0x11F3 PUSH1 0x1 SWAP4 PUSH1 0x3F NOT DUP11 DUP3 SUB ADD DUP7 MSTORE DUP9 MLOAD PUSH2 0x159E JUMP JUMPDEST SWAP7 ADD SWAP3 ADD SWAP7 ADD SWAP6 SWAP3 SWAP2 SWAP1 SWAP3 PUSH2 0x11CA JUMP JUMPDEST PUSH2 0x120D DUP2 DUP4 PUSH2 0x184D JUMP JUMPDEST SWAP1 PUSH1 0x1 DUP1 DUP4 ADD DUP1 SWAP4 GT PUSH2 0x12BF JUMPI PUSH2 0x12BA SWAP3 PUSH1 0x0 MSTORE DUP7 PUSH1 0x3 PUSH1 0x20 SWAP1 DUP1 DUP3 MSTORE PUSH1 0x40 PUSH1 0x0 KECCAK256 SWAP2 PUSH2 0x124B PUSH1 0x40 MLOAD SWAP6 PUSH2 0x1240 DUP8 PUSH2 0x1657 JUMP JUMPDEST DUP5 SLOAD DUP8 MSTORE DUP5 ADD PUSH2 0x16B2 JUMP JUMPDEST SWAP1 DUP6 ADD MSTORE PUSH2 0x125B PUSH1 0x2 DUP4 ADD PUSH2 0x16B2 JUMP JUMPDEST PUSH1 0x40 DUP6 ADD MSTORE DUP2 ADD SLOAD PUSH1 0x60 DUP5 ADD MSTORE PUSH1 0x4 DUP2 ADD SLOAD PUSH1 0x80 DUP5 ADD MSTORE PUSH1 0x5 DUP2 ADD SLOAD PUSH1 0xFF PUSH1 0x1 DUP1 PUSH1 0xA0 SHL SUB SWAP2 PUSH1 0xA0 DUP4 DUP3 AND DUP2 DUP9 ADD MSTORE SHR AND ISZERO ISZERO PUSH1 0xC0 DUP6 ADD MSTORE PUSH1 0x6 DUP3 ADD SLOAD AND DUP8 DUP5 ADD MSTORE ADD SLOAD PUSH2 0x100 DUP3 ADD MSTORE PUSH2 0x12AF DUP3 DUP10 PUSH2 0x18E7 JUMP JUMPDEST MSTORE PUSH2 0x215 DUP2 DUP9 PUSH2 0x18E7 JUMP JUMPDEST PUSH2 0x119D JUMP JUMPDEST PUSH4 0x4E487B71 PUSH1 0xE0 SHL PUSH1 0x0 MSTORE PUSH1 0x11 PUSH1 0x4 MSTORE PUSH1 0x24 PUSH1 0x0 REVERT JUMPDEST PUSH1 0x20 SWAP1 PUSH2 0x12E0 PUSH2 0x194C JUMP JUMPDEST DUP3 DUP3 DUP11 ADD ADD MSTORE ADD PUSH2 0x1191 JUMP JUMPDEST PUSH2 0x12F7 SWAP3 SWAP4 POP PUSH2 0x189D JUMP JUMPDEST SWAP1 DUP4 DUP6 PUSH2 0x1165 JUMP JUMPDEST PUSH1 0x40 MLOAD PUSH3 0x461BCD PUSH1 0xE5 SHL DUP2 MSTORE PUSH1 0x20 PUSH1 0x4 DUP3 ADD MSTORE PUSH1 0x1F PUSH1 0x24 DUP3 ADD MSTORE PUSH32 0x4C696D6974206D7573742062652067726561746572207468616E207A65726F00 PUSH1 0x44 DUP3 ADD MSTORE PUSH1 0x64 SWAP1 REVERT JUMPDEST PUSH1 0x40 MLOAD PUSH3 0x461BCD PUSH1 0xE5 SHL DUP2 MSTORE PUSH1 0x20 PUSH1 0x4 DUP3 ADD MSTORE PUSH1 0x1B PUSH1 0x24 DUP3 ADD MSTORE PUSH32 0x4F666673657420657863656564732074656E64657220636F756E740000000000 PUSH1 0x44 DUP3 ADD MSTORE PUSH1 0x64 SWAP1 REVERT JUMPDEST CALLVALUE PUSH2 0x275 JUMPI PUSH1 0x20 CALLDATASIZE PUSH1 0x3 NOT ADD SLT PUSH2 0x275 JUMPI PUSH1 0x1 PUSH1 0x1 PUSH1 0xA0 SHL SUB PUSH2 0x13AA PUSH2 0x1532 JUMP JUMPDEST AND PUSH1 0x0 MSTORE PUSH1 0x0 PUSH1 0x20 MSTORE PUSH1 0x60 PUSH1 0x40 PUSH1 0x0 KECCAK256 PUSH1 0xFF DUP2 SLOAD AND SWAP1 PUSH1 0x3 PUSH1 0x2 DUP3 ADD SLOAD SWAP2 ADD SLOAD SWAP1 PUSH1 0x40 MLOAD SWAP3 ISZERO ISZERO DUP4 MSTORE PUSH1 0x20 DUP4 ADD MSTORE PUSH1 0x40 DUP3 ADD MSTORE RETURN JUMPDEST CALLVALUE PUSH2 0x275 JUMPI PUSH1 0x20 CALLDATASIZE PUSH1 0x3 NOT ADD SLT PUSH2 0x275 JUMPI PUSH1 0x4 CALLDATALOAD PUSH1 0x0 MSTORE PUSH1 0x5 PUSH1 0x20 MSTORE PUSH1 0x20 PUSH1 0x40 PUSH1 0x0 KECCAK256 SLOAD PUSH1 0x40 MLOAD SWAP1 DUP2 MSTORE RETURN JUMPDEST CALLVALUE PUSH2 0x275 JUMPI PUSH1 0x20 DUP1 PUSH1 0x3 NOT CALLDATASIZE ADD SLT PUSH2 0x275 JUMPI PUSH1 0x4 CALLDATALOAD SWAP1 DUP2 PUSH1 0x0 MSTORE PUSH1 0x5 DUP2 MSTORE PUSH1 0x40 PUSH1 0x0 KECCAK256 SLOAD PUSH2 0x1438 DUP2 PUSH2 0x18AA JUMP JUMPDEST SWAP3 PUSH2 0x1446 PUSH1 0x40 MLOAD SWAP5 DUP6 PUSH2 0x1690 JUMP JUMPDEST DUP2 DUP5 MSTORE PUSH1 0x1F NOT PUSH2 0x1455 DUP4 PUSH2 0x18AA JUMP JUMPDEST ADD DUP4 PUSH1 0x0 JUMPDEST DUP3 DUP2 LT PUSH2 0x151C JUMPI POP POP POP PUSH1 0x0 JUMPDEST DUP3 DUP2 LT PUSH2 0x14DE JUMPI PUSH1 0x40 DUP1 MLOAD DUP6 DUP2 MSTORE DUP7 MLOAD DUP2 DUP8 ADD DUP2 SWAP1 MSTORE DUP8 DUP8 ADD SWAP3 DUP3 ADD SWAP1 DUP8 PUSH1 0x0 JUMPDEST DUP3 DUP2 LT PUSH2 0x1495 JUMPI DUP5 DUP5 SUB DUP6 RETURN JUMPDEST SWAP1 SWAP2 SWAP3 DUP3 PUSH1 0x80 DUP3 PUSH2 0x14CF PUSH1 0x1 SWAP5 DUP11 MLOAD PUSH1 0x60 DUP1 SWAP2 DUP1 MLOAD DUP5 MSTORE PUSH1 0x1 DUP1 PUSH1 0xA0 SHL SUB PUSH1 0x20 DUP3 ADD MLOAD AND PUSH1 0x20 DUP6 ADD MSTORE PUSH1 0x40 DUP2 ADD MLOAD PUSH1 0x40 DUP6 ADD MSTORE ADD MLOAD SWAP2 ADD MSTORE JUMP JUMPDEST ADD SWAP7 ADD SWAP2 ADD SWAP5 SWAP3 SWAP2 SWAP1 SWAP5 PUSH2 0x1488 JUMP JUMPDEST PUSH2 0x1517 SWAP1 DUP3 PUSH1 0x0 MSTORE PUSH1 0x4 DUP6 MSTORE PUSH1 0x40 PUSH1 0x0 KECCAK256 DUP2 PUSH1 0x0 MSTORE DUP6 MSTORE PUSH2 0x1502 PUSH1 0x40 PUSH1 0x0 KECCAK256 PUSH2 0x1911 JUMP JUMPDEST PUSH2 0x150C DUP3 DUP9 PUSH2 0x18E7 JUMP JUMPDEST MSTORE PUSH2 0x215 DUP2 DUP8 PUSH2 0x18E7 JUMP JUMPDEST PUSH2 0x1467 JUMP JUMPDEST PUSH2 0x1524 PUSH2 0x18C2 JUMP JUMPDEST DUP3 DUP3 DUP10 ADD ADD MSTORE ADD DUP5 SWAP1 PUSH2 0x145A JUMP JUMPDEST PUSH1 0x4 CALLDATALOAD SWAP1 PUSH1 0x1 PUSH1 0x1 PUSH1 0xA0 SHL SUB DUP3 AND DUP3 SUB PUSH2 0x275 JUMPI JUMP JUMPDEST PUSH1 0x40 SWAP1 PUSH1 0x3 NOT ADD SLT PUSH2 0x275 JUMPI PUSH1 0x4 CALLDATALOAD SWAP1 PUSH1 0x24 CALLDATALOAD SWAP1 JUMP JUMPDEST SWAP2 SWAP1 DUP3 MLOAD SWAP3 DUP4 DUP3 MSTORE PUSH1 0x0 JUMPDEST DUP5 DUP2 LT PUSH2 0x158A JUMPI POP POP DUP3 PUSH1 0x0 PUSH1 0x20 DUP1 SWAP5 SWAP6 DUP5 ADD ADD MSTORE PUSH1 0x1F DUP1 NOT SWAP2 ADD AND ADD ADD SWAP1 JUMP JUMPDEST PUSH1 0x20 DUP2 DUP4 ADD DUP2 ADD MLOAD DUP5 DUP4 ADD DUP3 ADD MSTORE ADD PUSH2 0x1569 JUMP JUMPDEST SWAP1 DUP2 MLOAD DUP2 MSTORE PUSH2 0x15D1 PUSH2 0x15BF PUSH1 0x20 DUP5 ADD MLOAD PUSH2 0x120 DUP1 PUSH1 0x20 DUP7 ADD MSTORE DUP5 ADD SWAP1 PUSH2 0x155E JUMP JUMPDEST PUSH1 0x40 DUP5 ADD MLOAD DUP4 DUP3 SUB PUSH1 0x40 DUP6 ADD MSTORE PUSH2 0x155E JUMP JUMPDEST SWAP2 PUSH1 0x60 DUP2 ADD MLOAD PUSH1 0x60 DUP4 ADD MSTORE PUSH1 0x80 DUP2 ADD MLOAD PUSH1 0x80 DUP4 ADD MSTORE PUSH1 0x1 DUP1 PUSH1 0xA0 SHL SUB DUP1 PUSH1 0xA0 DUP4 ADD MLOAD AND PUSH1 0xA0 DUP5 ADD MSTORE PUSH1 0xC0 DUP3 ADD MLOAD ISZERO ISZERO PUSH1 0xC0 DUP5 ADD MSTORE PUSH1 0xE0 DUP3 ADD MLOAD AND PUSH1 0xE0 DUP4 ADD MSTORE PUSH2 0x100 DUP1 SWAP2 ADD MLOAD SWAP2 ADD MSTORE SWAP1 JUMP JUMPDEST SWAP1 PUSH1 0x1 DUP3 DUP2 SHR SWAP3 AND DUP1 ISZERO PUSH2 0x164D JUMPI JUMPDEST PUSH1 0x20 DUP4 LT EQ PUSH2 0x1637 JUMPI JUMP JUMPDEST PUSH4 0x4E487B71 PUSH1 0xE0 SHL PUSH1 0x0 MSTORE PUSH1 0x22 PUSH1 0x4 MSTORE PUSH1 0x24 PUSH1 0x0 REVERT JUMPDEST SWAP2 PUSH1 0x7F AND SWAP2 PUSH2 0x162C JUMP JUMPDEST PUSH2 0x120 DUP2 ADD SWAP1 DUP2 LT PUSH8 0xFFFFFFFFFFFFFFFF DUP3 GT OR PUSH2 0x5C0 JUMPI PUSH1 0x40 MSTORE JUMP JUMPDEST PUSH1 0x80 DUP2 ADD SWAP1 DUP2 LT PUSH8 0xFFFFFFFFFFFFFFFF DUP3 GT OR PUSH2 0x5C0 JUMPI PUSH1 0x40 MSTORE JUMP JUMPDEST SWAP1 PUSH1 0x1F DUP1 NOT SWAP2 ADD AND DUP2 ADD SWAP1 DUP2 LT PUSH8 0xFFFFFFFFFFFFFFFF DUP3 GT OR PUSH2 0x5C0 JUMPI PUSH1 0x40 MSTORE JUMP JUMPDEST SWAP1 PUSH1 0x40 MLOAD SWAP2 DUP3 PUSH1 0x0 DUP3 SLOAD SWAP3 PUSH2 0x16C6 DUP5 PUSH2 0x161D JUMP JUMPDEST SWAP1 DUP2 DUP5 MSTORE PUSH1 0x1 SWAP5 DUP6 DUP2 AND SWAP1 DUP2 PUSH1 0x0 EQ PUSH2 0x1735 JUMPI POP PUSH1 0x1 EQ PUSH2 0x16F2 JUMPI JUMPDEST POP POP PUSH2 0x16F0 SWAP3 POP SUB DUP4 PUSH2 0x1690 JUMP JUMPDEST JUMP JUMPDEST SWAP1 SWAP4 SWAP2 POP PUSH1 0x0 MSTORE PUSH1 0x20 SWAP1 DUP2 PUSH1 0x0 KECCAK256 SWAP4 PUSH1 0x0 SWAP2 JUMPDEST DUP2 DUP4 LT PUSH2 0x171D JUMPI POP POP PUSH2 0x16F0 SWAP4 POP DUP3 ADD ADD CODESIZE DUP1 PUSH2 0x16E2 JUMP JUMPDEST DUP6 SLOAD DUP9 DUP5 ADD DUP6 ADD MSTORE SWAP5 DUP6 ADD SWAP5 DUP8 SWAP5 POP SWAP2 DUP4 ADD SWAP2 PUSH2 0x1705 JUMP JUMPDEST SWAP2 POP POP PUSH2 0x16F0 SWAP5 POP PUSH1 0x20 SWAP3 POP PUSH1 0xFF NOT AND DUP3 DUP5 ADD MSTORE ISZERO ISZERO PUSH1 0x5 SHL DUP3 ADD ADD CODESIZE DUP1 PUSH2 0x16E2 JUMP JUMPDEST DUP2 PUSH1 0x1F DUP3 ADD SLT ISZERO PUSH2 0x275 JUMPI DUP1 CALLDATALOAD SWAP1 PUSH8 0xFFFFFFFFFFFFFFFF DUP3 GT PUSH2 0x5C0 JUMPI PUSH1 0x40 MLOAD SWAP3 PUSH2 0x178D PUSH1 0x1F DUP5 ADD PUSH1 0x1F NOT AND PUSH1 0x20 ADD DUP6 PUSH2 0x1690 JUMP JUMPDEST DUP3 DUP5 MSTORE PUSH1 0x20 DUP4 DUP4 ADD ADD GT PUSH2 0x275 JUMPI DUP2 PUSH1 0x0 SWAP3 PUSH1 0x20 DUP1 SWAP4 ADD DUP4 DUP7 ADD CALLDATACOPY DUP4 ADD ADD MSTORE SWAP1 JUMP JUMPDEST ISZERO PUSH2 0x17B6 JUMPI JUMP JUMPDEST PUSH1 0x40 MLOAD PUSH3 0x461BCD PUSH1 0xE5 SHL DUP2 MSTORE PUSH1 0x20 PUSH1 0x4 DUP3 ADD MSTORE PUSH1 0x14 PUSH1 0x24 DUP3 ADD MSTORE PUSH20 0x456E74697479206973206E6F7420616374697665 PUSH1 0x60 SHL PUSH1 0x44 DUP3 ADD MSTORE PUSH1 0x64 SWAP1 REVERT JUMPDEST ISZERO PUSH2 0x17F9 JUMPI JUMP JUMPDEST PUSH1 0x40 MLOAD PUSH3 0x461BCD PUSH1 0xE5 SHL DUP2 MSTORE PUSH1 0x20 PUSH1 0x4 DUP3 ADD MSTORE PUSH1 0x1D PUSH1 0x24 DUP3 ADD MSTORE PUSH32 0x416D6F756E74206D7573742062652067726561746572207468616E2030000000 PUSH1 0x44 DUP3 ADD MSTORE PUSH1 0x64 SWAP1 REVERT JUMPDEST PUSH1 0x0 NOT DUP2 EQ PUSH2 0x12BF JUMPI PUSH1 0x1 ADD SWAP1 JUMP JUMPDEST SWAP2 SWAP1 DUP3 ADD DUP1 SWAP3 GT PUSH2 0x12BF JUMPI JUMP JUMPDEST ISZERO PUSH2 0x1861 JUMPI JUMP JUMPDEST PUSH1 0x40 MLOAD PUSH3 0x461BCD PUSH1 0xE5 SHL DUP2 MSTORE PUSH1 0x20 PUSH1 0x4 DUP3 ADD MSTORE PUSH1 0x14 PUSH1 0x24 DUP3 ADD MSTORE PUSH20 0x54656E646572206973206E6F7420616374697665 PUSH1 0x60 SHL PUSH1 0x44 DUP3 ADD MSTORE PUSH1 0x64 SWAP1 REVERT JUMPDEST SWAP2 SWAP1 DUP3 SUB SWAP2 DUP3 GT PUSH2 0x12BF JUMPI JUMP JUMPDEST PUSH8 0xFFFFFFFFFFFFFFFF DUP2 GT PUSH2 0x5C0 JUMPI PUSH1 0x5 SHL PUSH1 0x20 ADD SWAP1 JUMP JUMPDEST PUSH1 0x40 MLOAD SWAP1 PUSH2 0x18CF DUP3 PUSH2 0x1674 JUMP JUMPDEST PUSH1 0x0 PUSH1 0x60 DUP4 DUP3 DUP2 MSTORE DUP3 PUSH1 0x20 DUP3 ADD MSTORE DUP3 PUSH1 0x40 DUP3 ADD MSTORE ADD MSTORE JUMP JUMPDEST DUP1 MLOAD DUP3 LT ISZERO PUSH2 0x18FB JUMPI PUSH1 0x20 SWAP2 PUSH1 0x5 SHL ADD ADD SWAP1 JUMP JUMPDEST PUSH4 0x4E487B71 PUSH1 0xE0 SHL PUSH1 0x0 MSTORE PUSH1 0x32 PUSH1 0x4 MSTORE PUSH1 0x24 PUSH1 0x0 REVERT JUMPDEST SWAP1 PUSH1 0x40 MLOAD PUSH2 0x191E DUP2 PUSH2 0x1674 JUMP JUMPDEST DUP3 SLOAD DUP2 MSTORE PUSH1 0x1 DUP4 ADD SLOAD PUSH1 0x1 PUSH1 0x1 PUSH1 0xA0 SHL SUB AND PUSH1 0x20 DUP3 ADD MSTORE PUSH1 0x2 DUP4 ADD SLOAD PUSH1 0x40 DUP3 ADD MSTORE PUSH1 0x3 SWAP1 SWAP3 ADD SLOAD PUSH1 0x60 DUP4 ADD MSTORE JUMP JUMPDEST PUSH1 0x40 MLOAD SWAP1 PUSH2 0x1959 DUP3 PUSH2 0x1657 JUMP JUMPDEST DUP2 PUSH2 0x100 PUSH1 0x0 SWAP2 DUP3 DUP2 MSTORE PUSH1 0x60 PUSH1 0x20 DUP3 ADD MSTORE PUSH1 0x60 PUSH1 0x40 DUP3 ADD MSTORE DUP3 PUSH1 0x60 DUP3 ADD MSTORE DUP3 PUSH1 0x80 DUP3 ADD MSTORE DUP3 PUSH1 0xA0 DUP3 ADD MSTORE DUP3 PUSH1 0xC0 DUP3 ADD MSTORE DUP3 PUSH1 0xE0 DUP3 ADD MSTORE ADD MSTORE JUMP INVALID LOG2 PUSH5 0x6970667358 0x22 SLT KECCAK256 DUP7 0x2E CALLDATACOPY 0xD7 0x2D 0xAC 0xD6 0x28 0xD1 DUP14 0xE3 PUSH25 0xC63D1614B1EEC55BEE68FF0C8FEF6243C8AC54F464736F6C63 NUMBER STOP ADDMOD SGT STOP CALLER "},"methodIdentifiers":{"awardTender(uint256)":"8fdee0c5","bids(uint256,uint256)":"7b3c4baa","entities(address)":"1d8ee48a","getBids(uint256)":"131d9a27","getSpendingRecords(address)":"fb116b58","getTenderDetails(uint256)":"53ee895d","getTenders(uint256,uint256)":"1dfd9542","hasVoted(address,address)":"4d4d2b1c","issueTender(string,string,uint256,uint256)":"d7461f40","placeBid(uint256,uint256)":"57c90de5","recordSpending(uint256)":"a9bba443","spendingCount()":"4f7311ad","spendingRecords(uint256)":"bac5d8f9","tenderBidCount(uint256)":"15cf4b6e","tenderCount()":"1f058776","tenders(uint256)":"465e1def","vote(address)":"6dd7d8ea"}}}}}