{"contracts/SimplifiedSpendingRegistry.sol":{"SimplifiedSpendingRegistry":{"abi":[{"inputs":[],"stateMutability":"nonpayable","type":"constructor"},{"anonymous":false,"inputs":[{"indexed":true,"internalType":"address","name":"entity","type":"address"},{"indexed":false,"internalType":"uint256","name":"amount","type":"uint256"}],"name":"BonusDistributed","type":"event"},{"anonymous":false,"inputs":[{"indexed":true,"internalType":"address","name":"entityAddress","type":"address"}],"name":"EntityDeactivated","type":"event"},{"anonymous":false,"inputs":[{"indexed":true,"internalType":"address","name":"entityAddress","type":"address"},{"indexed":false,"internalType":"string","name":"name","type":"string"}],"name":"EntityRegistered","type":"event"},{"anonymous":false,"inputs":[{"indexed":true,"internalType":"uint256","name":"id","type":"uint256"},{"indexed":true,"internalType":"address","name":"entity","type":"address"}],"name":"FundRequestApproved","type":"event"},{"anonymous":false,"inputs":[{"indexed":true,"internalType":"uint256","name":"id","type":"uint256"},{"indexed":true,"internalType":"address","name":"entity","type":"address"}],"name":"FundRequestRejected","type":"event"},{"anonymous":false,"inputs":[{"indexed":true,"internalType":"uint256","name":"id","type":"uint256"},{"indexed":true,"internalType":"address","name":"entity","type":"address"},{"indexed":false,"internalType":"uint256","name":"amount","type":"uint256"},{"indexed":false,"internalType":"string","name":"reason","type":"string"},{"indexed":false,"internalType":"string","name":"documentHash","type":"string"}],"name":"FundRequested","type":"event"},{"anonymous":false,"inputs":[{"indexed":true,"internalType":"uint256","name":"id","type":"uint256"},{"indexed":true,"internalType":"address","name":"to","type":"address"},{"indexed":false,"internalType":"uint256","name":"amount","type":"uint256"}],"name":"FundsIssued","type":"event"},{"anonymous":false,"inputs":[{"indexed":true,"internalType":"uint256","name":"id","type":"uint256"},{"indexed":true,"internalType":"uint256","name":"spendingRecordId","type":"uint256"},{"indexed":true,"internalType":"address","name":"entity","type":"address"},{"indexed":false,"internalType":"string","name":"description","type":"string"},{"indexed":false,"internalType":"uint256","name":"amount","type":"uint256"}],"name":"MicroTransactionRecorded","type":"event"},{"anonymous":false,"inputs":[{"indexed":true,"internalType":"uint256","name":"id","type":"uint256"},{"indexed":true,"internalType":"address","name":"entity","type":"address"},{"indexed":false,"internalType":"uint256","name":"amount","type":"uint256"},{"indexed":false,"internalType":"string","name":"documentHash","type":"string"}],"name":"SpendingRecorded","type":"event"},{"anonymous":false,"inputs":[{"indexed":true,"internalType":"address","name":"voter","type":"address"},{"indexed":true,"internalType":"address","name":"entity","type":"address"},{"indexed":false,"internalType":"uint256","name":"rating","type":"uint256"}],"name":"Voted","type":"event"},{"inputs":[],"name":"BONUS_AMOUNT","outputs":[{"internalType":"uint256","name":"","type":"uint256"}],"stateMutability":"view","type":"function"},{"inputs":[],"name":"VOTING_COOLDOWN","outputs":[{"internalType":"uint256","name":"","type":"uint256"}],"stateMutability":"view","type":"function"},{"inputs":[{"internalType":"uint256","name":"requestId","type":"uint256"}],"name":"approveFundRequest","outputs":[],"stateMutability":"nonpayable","type":"function"},{"inputs":[],"name":"centralGovernment","outputs":[{"internalType":"address","name":"","type":"address"}],"stateMutability":"view","type":"function"},{"inputs":[{"internalType":"address","name":"voter","type":"address"}],"name":"checkVotingStatus","outputs":[{"internalType":"bool","name":"","type":"bool"}],"stateMutability":"view","type":"function"},{"inputs":[{"internalType":"address","name":"entityAddress","type":"address"}],"name":"deactivateEntity","outputs":[],"stateMutability":"nonpayable","type":"function"},{"inputs":[],"name":"distributeBonus","outputs":[],"stateMutability":"nonpayable","type":"function"},{"inputs":[{"internalType":"uint256","name":"","type":"uint256"}],"name":"entityAddresses","outputs":[{"internalType":"address","name":"","type":"address"}],"stateMutability":"view","type":"function"},{"inputs":[{"internalType":"uint256","name":"","type":"uint256"}],"name":"fundRequests","outputs":[{"internalType":"uint256","name":"id","type":"uint256"},{"internalType":"address","name":"entity","type":"address"},{"internalType":"uint256","name":"amount","type":"uint256"},{"internalType":"string","name":"reason","type":"string"},{"internalType":"string","name":"documentHash","type":"string"},{"internalType":"uint256","name":"timestamp","type":"uint256"},{"internalType":"bool","name":"isApproved","type":"bool"},{"internalType":"bool","name":"isRejected","type":"bool"}],"stateMutability":"view","type":"function"},{"inputs":[],"name":"getAllEntityAddresses","outputs":[{"internalType":"address[]","name":"","type":"address[]"}],"stateMutability":"view","type":"function"},{"inputs":[],"name":"getAllEntityRatings","outputs":[{"internalType":"address[]","name":"addresses","type":"address[]"},{"internalType":"uint256[]","name":"ratings","type":"uint256[]"},{"internalType":"uint256[]","name":"votes","type":"uint256[]"}],"stateMutability":"view","type":"function"},{"inputs":[],"name":"getContractBalance","outputs":[{"internalType":"uint256","name":"","type":"uint256"}],"stateMutability":"view","type":"function"},{"inputs":[],"name":"getEntityCount","outputs":[{"internalType":"uint256","name":"","type":"uint256"}],"stateMutability":"view","type":"function"},{"inputs":[{"internalType":"address","name":"entityAddress","type":"address"}],"name":"getEntityDetails","outputs":[{"internalType":"string","name":"name","type":"string"},{"internalType":"bool","name":"isActive","type":"bool"},{"internalType":"uint256","name":"balance","type":"uint256"},{"internalType":"uint256","name":"needToSpend","type":"uint256"}],"stateMutability":"view","type":"function"},{"inputs":[{"internalType":"address","name":"entityAddress","type":"address"},{"internalType":"uint256","name":"offset","type":"uint256"},{"internalType":"uint256","name":"limit","type":"uint256"}],"name":"getEntityFundRequests","outputs":[{"components":[{"internalType":"uint256","name":"id","type":"uint256"},{"internalType":"address","name":"entity","type":"address"},{"internalType":"uint256","name":"amount","type":"uint256"},{"internalType":"string","name":"reason","type":"string"},{"internalType":"string","name":"documentHash","type":"string"},{"internalType":"uint256","name":"timestamp","type":"uint256"},{"internalType":"bool","name":"isApproved","type":"bool"},{"internalType":"bool","name":"isRejected","type":"bool"}],"internalType":"struct SimplifiedSpendingRegistry.FundRequest[]","name":"","type":"tuple[]"}],"stateMutability":"view","type":"function"},{"inputs":[{"internalType":"address","name":"entityAddress","type":"address"}],"name":"getEntityHappinessRating","outputs":[{"internalType":"uint256","name":"rating","type":"uint256"},{"internalType":"uint256","name":"totalVotes","type":"uint256"},{"internalType":"uint256","name":"lastVoteTime","type":"uint256"}],"stateMutability":"view","type":"function"},{"inputs":[{"internalType":"address","name":"entityAddress","type":"address"},{"internalType":"uint256","name":"offset","type":"uint256"},{"internalType":"uint256","name":"limit","type":"uint256"}],"name":"getEntityIssuedFunds","outputs":[{"components":[{"internalType":"uint256","name":"id","type":"uint256"},{"internalType":"address","name":"entity","type":"address"},{"internalType":"uint256","name":"amount","type":"uint256"},{"internalType":"uint256","name":"timestamp","type":"uint256"}],"internalType":"struct SimplifiedSpendingRegistry.IssuedFund[]","name":"","type":"tuple[]"}],"stateMutability":"view","type":"function"},{"inputs":[{"internalType":"address","name":"entityAddress","type":"address"},{"internalType":"uint256","name":"offset","type":"uint256"},{"internalType":"uint256","name":"limit","type":"uint256"}],"name":"getEntitySpendingRecords","outputs":[{"components":[{"internalType":"uint256","name":"id","type":"uint256"},{"internalType":"address","name":"entity","type":"address"},{"internalType":"string","name":"purpose","type":"string"},{"internalType":"uint256","name":"amount","type":"uint256"},{"internalType":"string","name":"documentHash","type":"string"},{"internalType":"uint256","name":"timestamp","type":"uint256"}],"internalType":"struct SimplifiedSpendingRegistry.SpendingRecord[]","name":"","type":"tuple[]"}],"stateMutability":"view","type":"function"},{"inputs":[{"internalType":"uint256","name":"requestId","type":"uint256"}],"name":"getFundRequest","outputs":[{"components":[{"internalType":"uint256","name":"id","type":"uint256"},{"internalType":"address","name":"entity","type":"address"},{"internalType":"uint256","name":"amount","type":"uint256"},{"internalType":"string","name":"reason","type":"string"},{"internalType":"string","name":"documentHash","type":"string"},{"internalType":"uint256","name":"timestamp","type":"uint256"},{"internalType":"bool","name":"isApproved","type":"bool"},{"internalType":"bool","name":"isRejected","type":"bool"}],"internalType":"struct SimplifiedSpendingRegistry.FundRequest","name":"","type":"tuple"}],"stateMutability":"view","type":"function"},{"inputs":[{"internalType":"uint256","name":"offset","type":"uint256"},{"internalType":"uint256","name":"limit","type":"uint256"}],"name":"getFundRequests","outputs":[{"components":[{"internalType":"uint256","name":"id","type":"uint256"},{"internalType":"address","name":"entity","type":"address"},{"internalType":"uint256","name":"amount","type":"uint256"},{"internalType":"string","name":"reason","type":"string"},{"internalType":"string","name":"documentHash","type":"string"},{"internalType":"uint256","name":"timestamp","type":"uint256"},{"internalType":"bool","name":"isApproved","type":"bool"},{"internalType":"bool","name":"isRejected","type":"bool"}],"internalType":"struct SimplifiedSpendingRegistry.FundRequest[]","name":"","type":"tuple[]"}],"stateMutability":"view","type":"function"},{"inputs":[{"internalType":"uint256","name":"fundId","type":"uint256"}],"name":"getIssuedFund","outputs":[{"components":[{"internalType":"uint256","name":"id","type":"uint256"},{"internalType":"address","name":"entity","type":"address"},{"internalType":"uint256","name":"amount","type":"uint256"},{"internalType":"uint256","name":"timestamp","type":"uint256"}],"internalType":"struct SimplifiedSpendingRegistry.IssuedFund","name":"","type":"tuple"}],"stateMutability":"view","type":"function"},{"inputs":[{"internalType":"uint256","name":"offset","type":"uint256"},{"internalType":"uint256","name":"limit","type":"uint256"}],"name":"getIssuedFunds","outputs":[{"components":[{"internalType":"uint256","name":"id","type":"uint256"},{"internalType":"address","name":"entity","type":"address"},{"internalType":"uint256","name":"amount","type":"uint256"},{"internalType":"uint256","name":"timestamp","type":"uint256"}],"internalType":"struct SimplifiedSpendingRegistry.IssuedFund[]","name":"","type":"tuple[]"}],"stateMutability":"view","type":"function"},{"inputs":[{"internalType":"uint256","name":"offset","type":"uint256"},{"internalType":"uint256","name":"limit","type":"uint256"}],"name":"getMicroTransactions","outputs":[{"components":[{"internalType":"uint256","name":"id","type":"uint256"},{"internalType":"uint256","name":"spendingRecordId","type":"uint256"},{"internalType":"address","name":"entity","type":"address"},{"internalType":"string","name":"description","type":"string"},{"internalType":"uint256","name":"amount","type":"uint256"},{"internalType":"uint256","name":"timestamp","type":"uint256"}],"internalType":"struct SimplifiedSpendingRegistry.MicroTransaction[]","name":"","type":"tuple[]"}],"stateMutability":"view","type":"function"},{"inputs":[{"internalType":"uint256","name":"recordId","type":"uint256"}],"name":"getSpendingRecord","outputs":[{"components":[{"internalType":"uint256","name":"id","type":"uint256"},{"internalType":"address","name":"entity","type":"address"},{"internalType":"string","name":"purpose","type":"string"},{"internalType":"uint256","name":"amount","type":"uint256"},{"internalType":"string","name":"documentHash","type":"string"},{"internalType":"uint256","name":"timestamp","type":"uint256"}],"internalType":"struct SimplifiedSpendingRegistry.SpendingRecord","name":"","type":"tuple"}],"stateMutability":"view","type":"function"},{"inputs":[{"internalType":"uint256","name":"spendingRecordId","type":"uint256"}],"name":"getSpendingRecordMicroTransactions","outputs":[{"components":[{"internalType":"uint256","name":"id","type":"uint256"},{"internalType":"uint256","name":"spendingRecordId","type":"uint256"},{"internalType":"address","name":"entity","type":"address"},{"internalType":"string","name":"description","type":"string"},{"internalType":"uint256","name":"amount","type":"uint256"},{"internalType":"uint256","name":"timestamp","type":"uint256"}],"internalType":"struct SimplifiedSpendingRegistry.MicroTransaction[]","name":"","type":"tuple[]"}],"stateMutability":"view","type":"function"},{"inputs":[{"internalType":"uint256","name":"offset","type":"uint256"},{"internalType":"uint256","name":"limit","type":"uint256"}],"name":"getSpendingRecords","outputs":[{"components":[{"internalType":"uint256","name":"id","type":"uint256"},{"internalType":"address","name":"entity","type":"address"},{"internalType":"string","name":"purpose","type":"string"},{"internalType":"uint256","name":"amount","type":"uint256"},{"internalType":"string","name":"documentHash","type":"string"},{"internalType":"uint256","name":"timestamp","type":"uint256"}],"internalType":"struct SimplifiedSpendingRegistry.SpendingRecord[]","name":"","type":"tuple[]"}],"stateMutability":"view","type":"function"},{"inputs":[],"name":"getTimeUntilNextBonus","outputs":[{"internalType":"uint256","name":"","type":"uint256"}],"stateMutability":"view","type":"function"},{"inputs":[{"internalType":"address","name":"","type":"address"}],"name":"governmentEntities","outputs":[{"internalType":"string","name":"name","type":"string"},{"internalType":"bool","name":"isActive","type":"bool"},{"internalType":"uint256","name":"balance","type":"uint256"},{"internalType":"uint256","name":"needToSpend","type":"uint256"},{"internalType":"uint256","name":"happinessRating","type":"uint256"},{"internalType":"uint256","name":"totalVotes","type":"uint256"},{"internalType":"uint256","name":"lastVoteTimestamp","type":"uint256"}],"stateMutability":"view","type":"function"},{"inputs":[{"internalType":"address","name":"","type":"address"}],"name":"hasVoted","outputs":[{"internalType":"bool","name":"","type":"bool"}],"stateMutability":"view","type":"function"},{"inputs":[{"internalType":"address","name":"entityAddress","type":"address"},{"internalType":"uint256","name":"amount","type":"uint256"}],"name":"issueFunds","outputs":[],"stateMutability":"payable","type":"function"},{"inputs":[],"name":"issuedFundCount","outputs":[{"internalType":"uint256","name":"","type":"uint256"}],"stateMutability":"view","type":"function"},{"inputs":[{"internalType":"uint256","name":"","type":"uint256"}],"name":"issuedFunds","outputs":[{"internalType":"uint256","name":"id","type":"uint256"},{"internalType":"address","name":"entity","type":"address"},{"internalType":"uint256","name":"amount","type":"uint256"},{"internalType":"uint256","name":"timestamp","type":"uint256"}],"stateMutability":"view","type":"function"},{"inputs":[],"name":"lastBonusDistribution","outputs":[{"internalType":"uint256","name":"","type":"uint256"}],"stateMutability":"view","type":"function"},{"inputs":[{"internalType":"uint256","name":"","type":"uint256"}],"name":"microTransactions","outputs":[{"internalType":"uint256","name":"id","type":"uint256"},{"internalType":"uint256","name":"spendingRecordId","type":"uint256"},{"internalType":"address","name":"entity","type":"address"},{"internalType":"string","name":"description","type":"string"},{"internalType":"uint256","name":"amount","type":"uint256"},{"internalType":"uint256","name":"timestamp","type":"uint256"}],"stateMutability":"view","type":"function"},{"inputs":[],"name":"recordCount","outputs":[{"internalType":"uint256","name":"","type":"uint256"}],"stateMutability":"view","type":"function"},{"inputs":[{"internalType":"uint256","name":"spendingRecordId","type":"uint256"},{"internalType":"string","name":"description","type":"string"},{"internalType":"uint256","name":"amount","type":"uint256"}],"name":"recordMicroTransaction","outputs":[],"stateMutability":"nonpayable","type":"function"},{"inputs":[{"internalType":"string","name":"purpose","type":"string"},{"internalType":"uint256","name":"amount","type":"uint256"},{"internalType":"string","name":"documentHash","type":"string"}],"name":"recordSpending","outputs":[],"stateMutability":"nonpayable","type":"function"},{"inputs":[{"internalType":"address","name":"entityAddress","type":"address"},{"internalType":"string","name":"name","type":"string"}],"name":"registerEntity","outputs":[],"stateMutability":"nonpayable","type":"function"},{"inputs":[{"internalType":"uint256","name":"requestId","type":"uint256"}],"name":"rejectFundRequest","outputs":[],"stateMutability":"nonpayable","type":"function"},{"inputs":[],"name":"requestCount","outputs":[{"internalType":"uint256","name":"","type":"uint256"}],"stateMutability":"view","type":"function"},{"inputs":[{"internalType":"uint256","name":"amount","type":"uint256"},{"internalType":"string","name":"reason","type":"string"},{"internalType":"string","name":"documentHash","type":"string"}],"name":"requestFunds","outputs":[],"stateMutability":"nonpayable","type":"function"},{"inputs":[{"internalType":"uint256","name":"","type":"uint256"},{"internalType":"uint256","name":"","type":"uint256"}],"name":"spendingRecordMicroTransactions","outputs":[{"internalType":"uint256","name":"","type":"uint256"}],"stateMutability":"view","type":"function"},{"inputs":[{"internalType":"uint256","name":"","type":"uint256"}],"name":"spendingRecords","outputs":[{"internalType":"uint256","name":"id","type":"uint256"},{"internalType":"address","name":"entity","type":"address"},{"internalType":"string","name":"purpose","type":"string"},{"internalType":"uint256","name":"amount","type":"uint256"},{"internalType":"string","name":"documentHash","type":"string"},{"internalType":"uint256","name":"timestamp","type":"uint256"}],"stateMutability":"view","type":"function"},{"inputs":[{"internalType":"address","name":"entityAddress","type":"address"},{"internalType":"uint256","name":"rating","type":"uint256"}],"name":"voteForEntity","outputs":[],"stateMutability":"nonpayable","type":"function"}],"evm":{"bytecode":{"linkReferences":{},"object":"6080806040523461002c57600d80546001600160a01b0319163317905542600e55613ab790816100328239f35b600080fdfe6080604052600436101561001257600080fd5b60003560e01c80630241a44314612e4f57806309eef43e14611dbc5780630f780b5614612e3157806312216c0714612d1557806321464bfe14612c4d5780632a9544d714612b655780632be837ec14612a875780632c71474d14612a315780632f0b6f721461264257806332b3f568146122aa57806344c6bc77146121c55780634a572ae3146121a75780634dfa8434146121605780634fb1c4be14611f3357806358e9f12e14611e915780635badbe4c14611e735780635d1b45b514611e555780635dbe526f14611e2c5780636f9fb98a14611dfb578063709eddb014611dbc57806373236a5b14611c0a57806373901f9f146119f757806374863d90146119d457806380ee37fa1461191b578063818f994d146118995780638876ac41146117cb578063900407bc146117ad5780639a0fc036146116df5780639a35646f146114f1578063a089126d1461139c578063a30c35191461125a578063a88c113a14611170578063b041f48014610ce0578063b17972f914610c4b578063ba51f82214610b20578063bac5d8f914610a89578063c7c258f214610a4a578063dea1f5811461057a578063df619ad7146104e0578063e620f3a014610445578063ea949519146102f6578063ec10be39146102b4578063f24f8241146102235763f349c1e51461020057600080fd5b3461021e57600036600319011261021e576020600e54604051908152f35b600080fd5b3461021e57602036600319011261021e5761023c612e72565b600d546001600160a01b0391906102569083163314613483565b1680600052600060205261027460ff600160406000200154166134e7565b806000526000602052600160406000200160ff1981541690557f99fdeeec075823d23f0e1926979b27aaab3c6d7fccdbbea8914592d98896d741600080a2005b3461021e57602036600319011261021e5760043560055481101561021e576102dd602091613434565b905460405160039290921b1c6001600160a01b03168152f35b604036600319011261021e5761030a612e72565b60243560018060a01b03809261032582600d54163314613483565b1691826000526020906000825261034660ff600160406000200154166134e7565b82340361040257907f8102f9a1d31f6501d6c7e7dc50bc98598b6a71cfb3548fcb29a3bcec04b63655918460005260008252600260406000200161038b858254613527565b9055600361039a600854613534565b80600855604051926103ab84612f4c565b81845284840188815260408501918883526060860193428552600052848752604060002095518655600186019151166001600160601b0360a01b8254161790555160028401555191015560085492604051908152a3005b6064826040519062461bcd60e51b825280600483015260248201527f53656e742076616c7565206d757374206d617463682074686520616d6f756e746044820152fd5b3461021e5761046261047361045936612e88565b92819382613527565b6007548082116104d8575b50613601565b61047c816138e4565b9160005b82811061049957604051806104958682613361565b0390f35b806104b86104b26104ad6104d39486613527565b613230565b5061386c565b6104c282876136f4565b526104cd81866136f4565b50613534565b610480565b90508461046d565b3461021e57602036600319011261021e576001600160a01b03610501612e72565b166000526000602052610555604060002061051b816132bb565b9060ff600182015416906002810154906003810154600482015490600660058401549301549360405197889760e0895260e0890190612f0c565b951515602088015260408701526060860152608085015260a084015260c08301520390f35b3461021e57606036600319011261021e576004356001600160401b03811161021e576105aa903690600401612fda565b6044356001600160401b03811161021e576105c9903690600401612fda565b3360005260006020526105e660ff60016040600020015416613543565b815115610a0557602435156109c157610601815115156135b5565b336000526000602052602435600260406000200154106109855733600052600060205260026040600020016106396024358254613601565b905533600052600060205260036040600020016106596024358254613527565b9055610666600954613534565b806009556040519261067784612f82565b81845260208401913383526040850191825260243560608601528360808601524260a0860152600052600160205260406000209184518355600183019060018060a01b039051166001600160601b0360a01b825416179055519283516001600160401b0381116108ae576106ee6002840154613281565b601f811161093e575b506020601f82116001146108cf5781929394956000926108c4575b50508160011b916000199060031b1c19161760028301555b6060810151600383015560808101518051906001600160401b0382116108ae576107576004850154613281565b601f8111610863575b50602090601f83116001146107f05791806005949260a0946000926107e5575b50508160011b916000199060031b1c19161760048501555b01519101556009547f1243a0379e4e37663c88f3bc1d8bdb9a3ca74f533be3a0cf855f3f80cbf46715604051602435815260406020820152806107e033956040830190612f0c565b0390a3005b015190508780610780565b90601f198316916004860160005260206000209260005b81811061084b575092600192859260a0966005989610610832575b505050811b016004850155610798565b015160001960f88460031b161c19169055878080610822565b92936020600181928786015181550195019301610807565b600485016000526020600020601f840160051c810191602085106108a4575b601f0160051c01905b8181106108985750610760565b6000815560010161088b565b9091508190610882565b634e487b7160e01b600052604160045260246000fd5b015190508580610712565b6002840160005260206000209060005b601f1984168110610926575060019394959683601f1981161061090d575b505050811b01600283015561072a565b015160001960f88460031b161c191690558580806108fd565b9091602060018192858b0151815501930191016108df565b600284016000526020600020601f830160051c81016020841061097e575b601f830160051c820181106109725750506106f7565b6000815560010161095c565b508061095c565b60405162461bcd60e51b8152602060048201526014602482015273496e73756666696369656e742062616c616e636560601b6044820152606490fd5b606460405162461bcd60e51b815260206004820152602060248201527f416d6f756e74206d7573742062652067726561746572207468616e207a65726f6044820152fd5b60405162461bcd60e51b815260206004820152601760248201527f507572706f73652063616e6e6f7420626520656d7074790000000000000000006044820152606490fd5b3461021e57610a5836612e88565b90600052600b6020526040600020805482101561021e57602091610a7b9161346b565b90546040519160031b1c8152f35b3461021e57602036600319011261021e5760043560005260016020526040600020805460018060a01b0360018301541691610b16610ac9600283016132bb565b91600381015490610b036005610ae1600484016132bb565b920154946040519788978852602088015260c0604088015260c0870190612f0c565b9160608601528482036080860152612f0c565b9060a08301520390f35b3461021e57600036600319011261021e576005805490610b3f8261368d565b90610b4d6040519283612fb9565b828252601f19610b5c8461368d565b01926020933685850137610b6f816139a9565b90610b79816139a9565b9260005b828110610bc057610ba58661049587610bb28b896040519687966060885260608801906133c3565b9186830390870152613400565b908382036040850152613400565b80610bcd610c4692613434565b90546001600160a01b039160039190821b1c8216610beb848b6136f4565b5281610bf684613434565b905490831b1c1660005260008a52600460406000200154610c1784896136f4565b52610c2183613434565b9054911b1c16600052600088528260406000200154610c4082886136f4565b52613534565b610b7d565b3461021e57600036600319011261021e576040518060055480825282602080930160056000527f036b6384b5eca791c62761152d0c79bb0604c104a5fb6f4eb0703f3154bb3db09260005b85828210610cc157505050610cad92500383612fb9565b6104956040519282849384528301906133c3565b85546001600160a01b0316845260019586019588955093019201610c96565b3461021e57606036600319011261021e576024356001600160401b03811161021e57610d10903690600401612fda565b6044356001600160401b03811161021e57610d2f903690600401612fda565b90336000526000602052610d4d60ff60016040600020015416613543565b610d5a6004351515613754565b80511561113257610d6d825115156135b5565b60075490610d7a82613534565b600755604051610d8981612f9d565b8281526020810133815260408201600435815260608301908482528660808501524260a0850152600060c0850152600060e0850152600c54600160401b8110156108ae57806001610ddd9201600c55613230565b93909361111c5784518455516001840180546001600160a01b0319166001600160a01b0392909216919091179055516002830155518051906001600160401b0382116108ae578190610e326003850154613281565b601f81116110c9575b50602090601f83116001146110575760009261104c575b50508160011b916000199060031b1c19161760038201555b60808201518051906001600160401b0382116108ae57610e8d6004840154613281565b601f8111611005575b50602090601f8311600114610f6c577f09569327b0ebac7ebd8d677c9f6449afaf57b97a2a0d523adc4a0ad31b3f00c7959383610f52969460e094600694600092610f61575b50508160011b916000199060031b1c19161760048201555b60a084015160058201550191610f1c60c08201511515849060ff801983541691151516179055565b0151151561ff0082549160081b169061ff0019161790556107e06040519283926004358452606060208501526060840190612f0c565b82810360408401523396612f0c565b015190508b80610edc565b90601f198316916004850160005260206000209260005b818110610fed57508460e0946006947f09569327b0ebac7ebd8d677c9f6449afaf57b97a2a0d523adc4a0ad31b3f00c79a9894610f529a9860019510610fd4575b505050811b016004820155610ef4565b015160001960f88460031b161c191690558b8080610fc4565b92936020600181928786015181550195019301610f83565b600484016000526020600020601f840160051c810160208510611045575b601f830160051c82018110611039575050610e96565b60008155600101611023565b5080611023565b015190508780610e52565b9250600384016000526020600020906000935b601f19841685106110ae576001945083601f19811610611095575b505050811b016003820155610e6a565b015160001960f88460031b161c19169055878080611085565b8181015183556020948501946001909301929091019061106a565b909150600384016000526020600020601f840160051c810160208510611115575b90849392915b601f830160051c82018110611106575050610e3b565b600081558594506001016110f0565b50806110ea565b634e487b7160e01b600052600060045260246000fd5b60405162461bcd60e51b8152602060048201526016602482015275526561736f6e2063616e6e6f7420626520656d70747960501b6044820152606490fd5b3461021e5760208060031936011261021e5760043561118d61360e565b508015158061124e575b1561121557600052600181526040600020906005604051926111b884612f82565b8054845260018101546001600160a01b0316838501526111da600282016132bb565b6040850152600381015460608501526111f5600482016132bb565b6080850152015460a0830152610495604051928284938452830190613173565b60405162461bcd60e51b8152600481018390526011602482015270125b9d985b1a59081c9958dbdc99081251607a1b6044820152606490fd5b50600954811115611197565b3461021e5761126836613149565b90600081600093600754945b85811061135257509161128a6112989383613527565b9080821161134a5750613601565b6112a1816138e4565b9360009160005b85811080611341575b156113335760016112c182613230565b50818060a01b03918291015416908416146112e5575b6112e090613534565b6112a8565b926112fa81866112e093101561130257613534565b9390506112d7565b6104cd61130e87613230565b5061132261131c8a85613601565b9161386c565b61132c828d6136f4565b528a6136f4565b604051806104958982613361565b508184106112b1565b90508661046d565b909150600161136082613230565b50818060a01b0391829101541690871614611387575b61137f90613534565b908391611274565b9161139461137f91613534565b929050611376565b3461021e576113aa36612e88565b600954808310156114ac5782906113c2831515613641565b806113cd8484613527565b1161149b575b50506113de816136a4565b9160005b8281106113f7576040518061049586826131ce565b6114018183613527565b9060018083018093116114855761148092600052600560208281526040600020906040519361142f85612f82565b825485528201546001600160a01b03169084015261144f600282016132bb565b60408401526003810154606084015261146a600482016132bb565b6080840152015460a08201526104c282876136f4565b6113e2565b634e487b7160e01b600052601160045260246000fd5b6114a59250613601565b81836113d3565b60405162461bcd60e51b815260206004820152601b60248201527f4f66667365742065786365656473207265636f726420636f756e7400000000006044820152606490fd5b3461021e57600036600319011261021e57600d546001600160a01b039061151b9082163314613483565b600e5462015180810180911161148557421061169a57670de0b6b3a7640000908147106116555760055460009081805b8281106115f357505050169081156115ae578160005260006020526002604060002001805491808301809311611485577f8e3a90176f65d9f17b62ae9970b50ff21e66bba05788435310f6e12c942b0b37926020925542600e55604051908152a2005b60405162461bcd60e51b815260206004820152601a60248201527f4e6f20656c696769626c6520656e74697469657320666f756e640000000000006044820152606490fd5b846115fd82613434565b90549060031b1c16806000526000602052604060002060ff60018201541680611648575b611636575b505061163190613534565b61154b565b60040154909450915061163187611626565b5083600482015411611621565b60405162461bcd60e51b815260206004820152601d60248201527f496e73756666696369656e7420636f6e74726163742062616c616e63650000006044820152606490fd5b60405162461bcd60e51b815260206004820152601c60248201527f546f6f20736f6f6e20746f206469737472696275746520626f6e7573000000006044820152606490fd5b3461021e576116f361170361045936612e88565b600a548082116104d85750613601565b61170c81613a07565b9160005b82811061172557604051806104958682613030565b61172f8183613527565b906001808301809311611485576117a892600052600560026020908082526040600020916040519461176086612f82565b83548652830154908501528101546001600160a01b03166040840152611788600382016132bb565b606084015260048101546080840152015460a08201526104c282876136f4565b611710565b3461021e57600036600319011261021e576020600654604051908152f35b3461021e57602036600319011261021e576001600160a01b036117ec612e72565b1680600052600060205261181360ff60016040600020015416801580611891575b50613708565b60005260006020526060604060002060c06040519161183183612f67565b61183a816132bb565b835260ff600182015416151560208401526002810154604084015260038101548484015260048101549283608082015260066005830154928360a08401520154928391015260405192835260208301526040820152f35b90508361180d565b3461021e57602036600319011261021e5760043560005260026020526040600020805460018201549160018060a01b0360028201541661190c6118de600384016132bb565b600560048501549401549260405196879687526020870152604086015260c0606086015260c0850190612f0c565b91608084015260a08301520390f35b3461021e57602036600319011261021e57600435600c5481101561021e5761194290613230565b50805460018060a01b036001830154169160ff60028201546119b5611969600385016132bb565b6119a7611978600487016132bb565b916006600588015497015494604051998a998a5260208a015260408901526101008060608a0152880190612f0c565b908682036080880152612f0c565b9260a0850152818116151560c085015260081c16151560e08301520390f35b3461021e57600036600319011261021e576020604051670de0b6b3a76400008152f35b3461021e57611a0536613149565b9060018060a01b03809316918260005260209360008552600193611a3a60ff866040600020015416801580611c025750613708565b600854906000865b83811115611bc6575080861015611b835790858792611a62871515613641565b80611a6d8884613527565b11611b70575b50509050611a8084613959565b9660009460009388805b611a9d575b604051806104958d82612e9e565b8181111580611b67575b15611b625790818a959493926000528b60038086526040600020908a898301541691888314611ae8575b50505050611ade90613534565b9091929394611a8a565b8d8d959d1015611b0f575b50505050611b03611ade91613534565b9890508b8d8080611ad1565b8a611b0394611b5894611ade979d946104cd9460405192611b2f84612f4c565b815484528d8401526002810154604084015201546060820152611b5283836136f4565b526136f4565b97918d918f611af3565b611a8f565b50828610611aa7565b611b7b929650613601565b938589611a73565b6064886040519062461bcd60e51b825280600483015260248201527f4f6666736574206578636565647320656e746974792066756e6420636f756e746044820152fd5b8060005260038952828589604060002001541614611bed575b611be890613534565b611a42565b90611bfa611be891613534565b919050611bdf565b90508861180d565b3461021e57604036600319011261021e57611c23612e72565b6001600160a01b0316600081815260208181526040909120600101546024929183359160ff1615611d8257600182101580611d77575b15611d345782600052600081526040600020600560048201549101549081810290808204831490151715611d0a5783611c9191613527565b60018201809211611d0a578115611d1f5760059185600052600084526040600020910460048201550180549060018201809211611d0a57907f174ba19ba3c8bb5c679c87e51db79fff7c3f04bb84c1fd55b7dacb470b674aa69291558360005260008152426006604060002001556040519283523392a3005b85634e487b7160e01b60005260116004526000fd5b85634e487b7160e01b60005260126004526000fd5b606490601e856040519262461bcd60e51b845260048401528201527f526174696e67206d757374206265206265747765656e203120616e64203500006044820152fd5b506005821115611c59565b6064906014856040519262461bcd60e51b8452600484015282015273456e74697479206973206e6f742061637469766560601b6044820152fd5b3461021e57602036600319011261021e576001600160a01b03611ddd612e72565b166000526004602052602060ff604060002054166040519015158152f35b3461021e57600036600319011261021e57611e2160018060a01b03600d54163314613483565b602047604051908152f35b3461021e57600036600319011261021e57600d546040516001600160a01b039091168152602090f35b3461021e57600036600319011261021e576020600554604051908152f35b3461021e57600036600319011261021e576020600754604051908152f35b3461021e57602036600319011261021e5760043560018060a01b03611ebb81600d54163314613483565b611ec860075483106137a0565b6001611ed383613230565b5060068101610100815460ff81161580611f24575b611ef1906137e1565b61ff001916179055015416907f4323a3f8bbbcf284e67a4932738f0f8fe465297d522b256e4f863ffbbf22c7ee600080a3005b50600881901c60ff1615611ee8565b3461021e57611f4136613149565b9060018060a01b038093169182600052602060008152600193611f7560ff866040600020015416801580611c025750613708565b600954906000865b838111156121255750808610156120d5578590611f9b861515613641565b80611fa68784613527565b116120c2575b5050611fb7846136a4565b9660009460009388805b611fd4575b604051806104958d826131ce565b81811115806120b9575b156120b45790818a9493926000528488528b6040600020858782015416888114612018575b50505061200f90613534565b90919293611fc1565b908a918d8d959d1015612041575b5050505061203661200f91613534565b9890508b8d80612003565b8a612036946120a794600561200f989e956104cd956040519361206385612f82565b82548552840152612076600282016132bb565b604084015260038101546060840152612091600482016132bb565b6080840152015460a0820152611b5283836136f4565b979150508b888e80612026565b611fc6565b50828610611fde565b6120cd929550613601565b928488611fac565b60405162461bcd60e51b815260048101859052602260248201527f4f6666736574206578636565647320656e74697479207265636f726420636f756044820152611b9d60f21b6064820152608490fd5b8060005287855282898960406000200154161461214b575b61214690613534565b611f7d565b9061215861214691613534565b91905061213d565b3461021e57602036600319011261021e576104956121936104b260043561218561382d565b506104ad60075482106137a0565b6040519182916020835260208301906130d6565b3461021e57600036600319011261021e576020600854604051908152f35b3461021e5760208060031936011261021e57600435600052600b81526040600020604051808284829454938481520190600052846000209260005b86828210612294578461221581860382612fb9565b61221f8151613a07565b9160005b8251811015612286578061223a61228192856136f4565b516000526002808452600560406000206040519261225784612f82565b815484526001820154878501528101546001600160a01b03166040840152611788600382016132bb565b612223565b604051806104958682613030565b8554845260019586019587955093019201612200565b3461021e57604036600319011261021e576122c3612e72565b6001600160401b039060243582811161021e576122e4903690600401612fda565b916122fa60018060a01b03600d54163314613483565b6001600160a01b038216156125fd578251156125b8576001600160a01b03821660009081526020819052604090206001015460ff166125675760405161233f81612f67565b83815260016020820152600060408201526000606082015260006080820152600060a0820152600060c082015260018060a01b0383166000526000602052604060002091815180519182116108ae576123988454613281565b601f8111612523575b50602090601f83116001146124b45791806006949260c0946000926124a9575b50508160011b916000199060031b1c19161784555b6123f560208201511515600186019060ff801983541691151516179055565b60408101516002850155606081015160038501556080810151600485015560a081015160058501550151910155600554600160401b8110156108ae577f1b7e3d9f922be54960ce9bea1d47b9b6ea18bbafb4e0fdeedc5e2a668e8fdaf8916124668260016124a49401600555613434565b81549060031b9060018060a01b038416821b9160018060a01b03901b19161790556040519182916020835260018060a01b0316946020830190612f0c565b0390a2005b0151905088806123c1565b908460005260206000209160005b601f198516811061250b5750926006949260019260c09583601f198116106124f2575b505050811b0184556123d6565b015160001960f88460031b161c191690558880806124e5565b919260206001819286850151815501940192016124c2565b846000526020600020601f840160051c810160208510612560575b601f830160051c820181106125545750506123a1565b6000815560010161253e565b508061253e565b60405162461bcd60e51b8152602060048201526024808201527f456e7469747920616c7265616479207265676973746572656420616e642061636044820152637469766560e01b6064820152608490fd5b60405162461bcd60e51b815260206004820152601b60248201527f456e74697479206e616d652063616e6e6f7420626520656d70747900000000006044820152606490fd5b60405162461bcd60e51b815260206004820152601d60248201527f456e7469747920616464726573732063616e6e6f74206265207a65726f0000006044820152606490fd5b3461021e57606036600319011261021e576001600160401b0360243581811161021e57612673903690600401612fda565b9033600052600060205261269160ff60016040600020015416613543565b600435600052600160205260018060a01b0390338260016040600020015416036129c7576126c26044351515613754565b825115612982573360005260006020526044356003604060002001541061293e5733600052600060205260036040600020016127016044358254613601565b905561270e600a54613534565b9081600a556040519161272083612f82565b808352602083019360043585526040840190338252606085019287845260443560808701524260a0870152600052600260205260406000209585518755516001870155600286019151166001600160601b0360a01b8254161790555180519182116108ae576127926003850154613281565b601f81116128f7575b50602090601f83116001146128825791806005949260a094600092612877575b50508160011b916000199060031b1c19161760038501555b608081015160048501550151910155600435600052600b6020526040600020600a54908054600160401b8110156108ae576128139160018201815561346b565b819291549060031b91821b91600019901b1916179055600a5461284160405192604084526040840190612f0c565b9060443560208401527f6a6b3e9a68b09e7e4efa25d186c63204b5ceb3777d516eb58090aff71935dbc1339380600435940390a4005b0151905087806127bb565b906003850160005260206000209160005b601f19851681106128df5750926005949260019260a09583601f198116106128c6575b505050811b0160038501556127d3565b015160001960f88460031b161c191690558780806128b6565b91926020600181928685015181550194019201612893565b600385016000526020600020601f840160051c810160208510612937575b601f830160051c8201811061292b57505061279b565b60008155600101612915565b5080612915565b606460405162461bcd60e51b815260206004820152602060248201527f496e73756666696369656e74206e656564546f5370656e642062616c616e63656044820152fd5b60405162461bcd60e51b815260206004820152601b60248201527f4465736372697074696f6e2063616e6e6f7420626520656d70747900000000006044820152606490fd5b608460405162461bcd60e51b815260206004820152604060248201527f4e6f7420617574686f72697a656420746f20616464206d6963726f2d7472616e60448201527f73616374696f6e7320746f2074686973207370656e64696e67207265636f72646064820152fd5b3461021e57602036600319011261021e5760043560005260036020526080604060002080549060018060a01b03600182015416906003600282015491015491604051938452602084015260408301526060820152f35b3461021e57602036600319011261021e576001600160a01b03612aa8612e72565b16806000526000602052612ace60ff600160406000200154168015806118915750613708565b6000526000602052612b516040600020604051612aea81612f67565b612af3826132bb565b9182825260ff60018201541615159182602082015260028201549081604082015260c0600660038501549485606085015260048101546080850152600581015460a08501520154910152604051948594608086526080860190612f0c565b926020850152604084015260608301520390f35b3461021e57602036600319011261021e57600435612b81613934565b5080151580612c41575b15612c0a57600052600360205260806040600020600360405191612bae83612f4c565b8054835260018060a01b0360018201541660208401526002810154604084015201546060820152612c086040518092606080918051845260018060a01b036020820151166020850152604081015160408501520151910152565bf35b60405162461bcd60e51b815260206004820152600f60248201526e125b9d985b1a5908199d5b99081251608a1b6044820152606490fd5b50600854811115612b8b565b3461021e57602036600319011261021e5760043560018060a01b03612c7781600d54163314613483565b612c8460075483106137a0565b612c8d82613230565b50600681016001815460ff81161580612d06575b612caa906137e1565b60ff191617905560016002820154910190828254166000526000602052612cda6002604060002001918254613527565b90555416907f2f14cf4ee725545bfe00e4128e96a1c8143718c3738cb5395484377ea6743630600080a3005b50600881901c60ff1615612ca1565b3461021e57612d2336612e88565b60085480831015612ded578290612d3b831515613641565b80612d468484613527565b11612ddc575b5050612d5781613959565b9160005b828110612d7057604051806104958682612e9e565b612d7a8183613527565b90600180830180931161148557612dd7926000526003602081815260406000209060405193612da885612f4c565b825485528201546001600160a01b03169084015260028101546040840152015460608201526104c282876136f4565b612d5b565b612de69250613601565b8183612d4c565b606460405162461bcd60e51b815260206004820152602060248201527f4f66667365742065786365656473206973737565642066756e6420636f756e746044820152fd5b3461021e57600036600319011261021e576020604051620151808152f35b3461021e57600036600319011261021e576020612e6a6139db565b604051908152f35b600435906001600160a01b038216820361021e57565b604090600319011261021e576004359060243590565b6020908160408183019282815285518094520193019160005b828110612ec5575050505090565b9091929382608082612f006001948951606080918051845260018060a01b036020820151166020850152604081015160408501520151910152565b01950193929101612eb7565b919082519283825260005b848110612f38575050826000602080949584010152601f8019910116010190565b602081830181015184830182015201612f17565b608081019081106001600160401b038211176108ae57604052565b60e081019081106001600160401b038211176108ae57604052565b60c081019081106001600160401b038211176108ae57604052565b61010081019081106001600160401b038211176108ae57604052565b90601f801991011681019081106001600160401b038211176108ae57604052565b81601f8201121561021e578035906001600160401b0382116108ae576040519261300e601f8401601f191660200185612fb9565b8284526020838301011161021e57816000926020809301838601378301015290565b602080820190808352835180925260409283810182858560051b8401019601946000925b858410613065575050505050505090565b909192939495968580600192603f198582030187528a5190815181528282015183820152848060a01b038783015116878201526130b16060808401519060c08091850152830190612f0c565b916080808201519083015260a080910151910152990194019401929594939190613054565b908151815260018060a01b0360208301511660208201526040820151604082015260e0806131286131166060860151610100806060880152860190612f0c565b60808601518582036080870152612f0c565b9360a081015160a085015260c0810151151560c08501520151151591015290565b606090600319011261021e576004356001600160a01b038116810361021e57906024359060443590565b908151815260018060a01b03602083015116602082015260a0806131c56131a9604086015160c0604087015260c0860190612f0c565b6060860151606086015260808601518582036080870152612f0c565b93015191015290565b602080820190808352835180925260408301928160408460051b8301019501936000915b8483106132025750505050505090565b9091929394958480613220600193603f198682030187528a51613173565b98019301930191949392906131f2565b600c5481101561326b57600790600c600052027fdf6966c971051c3d54ec59162606531493a51404a002842f56009d7e5cf4a8c70190600090565b634e487b7160e01b600052603260045260246000fd5b90600182811c921680156132b1575b602083101461329b57565b634e487b7160e01b600052602260045260246000fd5b91607f1691613290565b90604051918260008254926132cf84613281565b90818452600194858116908160001461333e57506001146132fb575b50506132f992500383612fb9565b565b9093915060005260209081600020936000915b8183106133265750506132f9935082010138806132eb565b8554888401850152948501948794509183019161330e565b9150506132f994506020925060ff191682840152151560051b82010138806132eb565b602080820190808352835180925260408301928160408460051b8301019501936000915b8483106133955750505050505090565b90919293949584806133b3600193603f198682030187528a516130d6565b9801930193019194939290613385565b90815180825260208080930193019160005b8281106133e3575050505090565b83516001600160a01b0316855293810193928101926001016133d5565b90815180825260208080930193019160005b828110613420575050505090565b835185529381019392810192600101613412565b60055481101561326b5760056000527f036b6384b5eca791c62761152d0c79bb0604c104a5fb6f4eb0703f3154bb3db00190600090565b805482101561326b5760005260206000200190600090565b1561348a57565b60405162461bcd60e51b815260206004820152602f60248201527f4f6e6c792063656e7472616c20676f7665726e6d656e742063616e207065726660448201526e37b936903a3434b99030b1ba34b7b760891b6064820152608490fd5b156134ee57565b60405162461bcd60e51b8152602060048201526011602482015270456e74697479206e6f742061637469766560781b6044820152606490fd5b9190820180921161148557565b60001981146114855760010190565b1561354a57565b60405162461bcd60e51b815260206004820152603760248201527f4f6e6c7920616374697665207265676973746572656420656e7469746965732060448201527f63616e20706572666f726d207468697320616374696f6e0000000000000000006064820152608490fd5b156135bc57565b60405162461bcd60e51b815260206004820152601d60248201527f446f63756d656e7420686173682063616e6e6f7420626520656d7074790000006044820152606490fd5b9190820391821161148557565b6040519061361b82612f82565b600060a08382815282602082015260606040820152826060820152606060808201520152565b1561364857565b60405162461bcd60e51b815260206004820152601f60248201527f4c696d6974206d7573742062652067726561746572207468616e207a65726f006044820152606490fd5b6001600160401b0381116108ae5760051b60200190565b906136ae8261368d565b6136bb6040519182612fb9565b82815280926136cc601f199161368d565b019060005b8281106136dd57505050565b6020906136e861360e565b828285010152016136d1565b805182101561326b5760209160051b010190565b1561370f57565b60405162461bcd60e51b815260206004820152601760248201527f4e6f742061207265676973746572656420656e746974790000000000000000006044820152606490fd5b1561375b57565b60405162461bcd60e51b815260206004820152601d60248201527f416d6f756e74206d7573742062652067726561746572207468616e20300000006044820152606490fd5b156137a757565b60405162461bcd60e51b8152602060048201526012602482015271125b9d985b1a59081c995c5d595cdd08125160721b6044820152606490fd5b156137e857565b60405162461bcd60e51b815260206004820152601960248201527f5265717565737420616c72656164792070726f636573736564000000000000006044820152606490fd5b6040519061383a82612f9d565b8160e0600091828152826020820152826040820152606080820152606060808201528260a08201528260c08201520152565b9060405161387981612f9d565b60e060ff600683958054855260018060a01b036001820154166020860152600281015460408601526138ad600382016132bb565b60608601526138be600482016132bb565b6080860152600581015460a08601520154818116151560c085015260081c161515910152565b906138ee8261368d565b6138fb6040519182612fb9565b828152809261390c601f199161368d565b019060005b82811061391d57505050565b60209061392861382d565b82828501015201613911565b6040519061394182612f4c565b60006060838281528260208201528260408201520152565b906139638261368d565b6139706040519182612fb9565b8281528092613981601f199161368d565b019060005b82811061399257505050565b60209061399d613934565b82828501015201613986565b906139b38261368d565b6139c06040519182612fb9565b82815280926139d1601f199161368d565b0190602036910137565b600e546201518081018091116114855780421015613a01576139fe904290613601565b90565b50600090565b90613a118261368d565b604090613a2082519182612fb9565b8381528093613a31601f199161368d565b019160005b838110613a435750505050565b6020908251613a5181612f82565b600081528260008183015260008583015260608083015260006080830152600060a0830152828601015201613a3656fea2646970667358221220f2f2392bd69d621790b962899ce5c72dc92262524f30faf2424693381b6db1f964736f6c63430008130033","opcodes":"PUSH1 0x80 DUP1 PUSH1 0x40 MSTORE CALLVALUE PUSH2 0x2C JUMPI PUSH1 0xD DUP1 SLOAD PUSH1 0x1 PUSH1 0x1 PUSH1 0xA0 SHL SUB NOT AND CALLER OR SWAP1 SSTORE TIMESTAMP PUSH1 0xE SSTORE PUSH2 0x3AB7 SWAP1 DUP2 PUSH2 0x32 DUP3 CODECOPY RETURN JUMPDEST PUSH1 0x0 DUP1 REVERT INVALID PUSH1 0x80 PUSH1 0x40 MSTORE PUSH1 0x4 CALLDATASIZE LT ISZERO PUSH2 0x12 JUMPI PUSH1 0x0 DUP1 REVERT JUMPDEST PUSH1 0x0 CALLDATALOAD PUSH1 0xE0 SHR DUP1 PUSH4 0x241A443 EQ PUSH2 0x2E4F JUMPI DUP1 PUSH4 0x9EEF43E EQ PUSH2 0x1DBC JUMPI DUP1 PUSH4 0xF780B56 EQ PUSH2 0x2E31 JUMPI DUP1 PUSH4 0x12216C07 EQ PUSH2 0x2D15 JUMPI DUP1 PUSH4 0x21464BFE EQ PUSH2 0x2C4D JUMPI DUP1 PUSH4 0x2A9544D7 EQ PUSH2 0x2B65 JUMPI DUP1 PUSH4 0x2BE837EC EQ PUSH2 0x2A87 JUMPI DUP1 PUSH4 0x2C71474D EQ PUSH2 0x2A31 JUMPI DUP1 PUSH4 0x2F0B6F72 EQ PUSH2 0x2642 JUMPI DUP1 PUSH4 0x32B3F568 EQ PUSH2 0x22AA JUMPI DUP1 PUSH4 0x44C6BC77 EQ PUSH2 0x21C5 JUMPI DUP1 PUSH4 0x4A572AE3 EQ PUSH2 0x21A7 JUMPI DUP1 PUSH4 0x4DFA8434 EQ PUSH2 0x2160 JUMPI DUP1 PUSH4 0x4FB1C4BE EQ PUSH2 0x1F33 JUMPI DUP1 PUSH4 0x58E9F12E EQ PUSH2 0x1E91 JUMPI DUP1 PUSH4 0x5BADBE4C EQ PUSH2 0x1E73 JUMPI DUP1 PUSH4 0x5D1B45B5 EQ PUSH2 0x1E55 JUMPI DUP1 PUSH4 0x5DBE526F EQ PUSH2 0x1E2C JUMPI DUP1 PUSH4 0x6F9FB98A EQ PUSH2 0x1DFB JUMPI DUP1 PUSH4 0x709EDDB0 EQ PUSH2 0x1DBC JUMPI DUP1 PUSH4 0x73236A5B EQ PUSH2 0x1C0A JUMPI DUP1 PUSH4 0x73901F9F EQ PUSH2 0x19F7 JUMPI DUP1 PUSH4 0x74863D90 EQ PUSH2 0x19D4 JUMPI DUP1 PUSH4 0x80EE37FA EQ PUSH2 0x191B JUMPI DUP1 PUSH4 0x818F994D EQ PUSH2 0x1899 JUMPI DUP1 PUSH4 0x8876AC41 EQ PUSH2 0x17CB JUMPI DUP1 PUSH4 0x900407BC EQ PUSH2 0x17AD JUMPI DUP1 PUSH4 0x9A0FC036 EQ PUSH2 0x16DF JUMPI DUP1 PUSH4 0x9A35646F EQ PUSH2 0x14F1 JUMPI DUP1 PUSH4 0xA089126D EQ PUSH2 0x139C JUMPI DUP1 PUSH4 0xA30C3519 EQ PUSH2 0x125A JUMPI DUP1 PUSH4 0xA88C113A EQ PUSH2 0x1170 JUMPI DUP1 PUSH4 0xB041F480 EQ PUSH2 0xCE0 JUMPI DUP1 PUSH4 0xB17972F9 EQ PUSH2 0xC4B JUMPI DUP1 PUSH4 0xBA51F822 EQ PUSH2 0xB20 JUMPI DUP1 PUSH4 0xBAC5D8F9 EQ PUSH2 0xA89 JUMPI DUP1 PUSH4 0xC7C258F2 EQ PUSH2 0xA4A JUMPI DUP1 PUSH4 0xDEA1F581 EQ PUSH2 0x57A JUMPI DUP1 PUSH4 0xDF619AD7 EQ PUSH2 0x4E0 JUMPI DUP1 PUSH4 0xE620F3A0 EQ PUSH2 0x445 JUMPI DUP1 PUSH4 0xEA949519 EQ PUSH2 0x2F6 JUMPI DUP1 PUSH4 0xEC10BE39 EQ PUSH2 0x2B4 JUMPI DUP1 PUSH4 0xF24F8241 EQ PUSH2 0x223 JUMPI PUSH4 0xF349C1E5 EQ PUSH2 0x200 JUMPI PUSH1 0x0 DUP1 REVERT JUMPDEST CALLVALUE PUSH2 0x21E JUMPI PUSH1 0x0 CALLDATASIZE PUSH1 0x3 NOT ADD SLT PUSH2 0x21E JUMPI PUSH1 0x20 PUSH1 0xE SLOAD PUSH1 0x40 MLOAD SWAP1 DUP2 MSTORE RETURN JUMPDEST PUSH1 0x0 DUP1 REVERT JUMPDEST CALLVALUE PUSH2 0x21E JUMPI PUSH1 0x20 CALLDATASIZE PUSH1 0x3 NOT ADD SLT PUSH2 0x21E JUMPI PUSH2 0x23C PUSH2 0x2E72 JUMP JUMPDEST PUSH1 0xD SLOAD PUSH1 0x1 PUSH1 0x1 PUSH1 0xA0 SHL SUB SWAP2 SWAP1 PUSH2 0x256 SWAP1 DUP4 AND CALLER EQ PUSH2 0x3483 JUMP JUMPDEST AND DUP1 PUSH1 0x0 MSTORE PUSH1 0x0 PUSH1 0x20 MSTORE PUSH2 0x274 PUSH1 0xFF PUSH1 0x1 PUSH1 0x40 PUSH1 0x0 KECCAK256 ADD SLOAD AND PUSH2 0x34E7 JUMP JUMPDEST DUP1 PUSH1 0x0 MSTORE PUSH1 0x0 PUSH1 0x20 MSTORE PUSH1 0x1 PUSH1 0x40 PUSH1 0x0 KECCAK256 ADD PUSH1 0xFF NOT DUP2 SLOAD AND SWAP1 SSTORE PUSH32 0x99FDEEEC075823D23F0E1926979B27AAAB3C6D7FCCDBBEA8914592D98896D741 PUSH1 0x0 DUP1 LOG2 STOP JUMPDEST CALLVALUE PUSH2 0x21E JUMPI PUSH1 0x20 CALLDATASIZE PUSH1 0x3 NOT ADD SLT PUSH2 0x21E JUMPI PUSH1 0x4 CALLDATALOAD PUSH1 0x5 SLOAD DUP2 LT ISZERO PUSH2 0x21E JUMPI PUSH2 0x2DD PUSH1 0x20 SWAP2 PUSH2 0x3434 JUMP JUMPDEST SWAP1 SLOAD PUSH1 0x40 MLOAD PUSH1 0x3 SWAP3 SWAP1 SWAP3 SHL SHR PUSH1 0x1 PUSH1 0x1 PUSH1 0xA0 SHL SUB AND DUP2 MSTORE RETURN JUMPDEST PUSH1 0x40 CALLDATASIZE PUSH1 0x3 NOT ADD SLT PUSH2 0x21E JUMPI PUSH2 0x30A PUSH2 0x2E72 JUMP JUMPDEST PUSH1 0x24 CALLDATALOAD PUSH1 0x1 DUP1 PUSH1 0xA0 SHL SUB DUP1 SWAP3 PUSH2 0x325 DUP3 PUSH1 0xD SLOAD AND CALLER EQ PUSH2 0x3483 JUMP JUMPDEST AND SWAP2 DUP3 PUSH1 0x0 MSTORE PUSH1 0x20 SWAP1 PUSH1 0x0 DUP3 MSTORE PUSH2 0x346 PUSH1 0xFF PUSH1 0x1 PUSH1 0x40 PUSH1 0x0 KECCAK256 ADD SLOAD AND PUSH2 0x34E7 JUMP JUMPDEST DUP3 CALLVALUE SUB PUSH2 0x402 JUMPI SWAP1 PUSH32 0x8102F9A1D31F6501D6C7E7DC50BC98598B6A71CFB3548FCB29A3BCEC04B63655 SWAP2 DUP5 PUSH1 0x0 MSTORE PUSH1 0x0 DUP3 MSTORE PUSH1 0x2 PUSH1 0x40 PUSH1 0x0 KECCAK256 ADD PUSH2 0x38B DUP6 DUP3 SLOAD PUSH2 0x3527 JUMP JUMPDEST SWAP1 SSTORE PUSH1 0x3 PUSH2 0x39A PUSH1 0x8 SLOAD PUSH2 0x3534 JUMP JUMPDEST DUP1 PUSH1 0x8 SSTORE PUSH1 0x40 MLOAD SWAP3 PUSH2 0x3AB DUP5 PUSH2 0x2F4C JUMP JUMPDEST DUP2 DUP5 MSTORE DUP5 DUP5 ADD DUP9 DUP2 MSTORE PUSH1 0x40 DUP6 ADD SWAP2 DUP9 DUP4 MSTORE PUSH1 0x60 DUP7 ADD SWAP4 TIMESTAMP DUP6 MSTORE PUSH1 0x0 MSTORE DUP5 DUP8 MSTORE PUSH1 0x40 PUSH1 0x0 KECCAK256 SWAP6 MLOAD DUP7 SSTORE PUSH1 0x1 DUP7 ADD SWAP2 MLOAD AND PUSH1 0x1 PUSH1 0x1 PUSH1 0x60 SHL SUB PUSH1 0xA0 SHL DUP3 SLOAD AND OR SWAP1 SSTORE MLOAD PUSH1 0x2 DUP5 ADD SSTORE MLOAD SWAP2 ADD SSTORE PUSH1 0x8 SLOAD SWAP3 PUSH1 0x40 MLOAD SWAP1 DUP2 MSTORE LOG3 STOP JUMPDEST PUSH1 0x64 DUP3 PUSH1 0x40 MLOAD SWAP1 PUSH3 0x461BCD PUSH1 0xE5 SHL DUP3 MSTORE DUP1 PUSH1 0x4 DUP4 ADD MSTORE PUSH1 0x24 DUP3 ADD MSTORE PUSH32 0x53656E742076616C7565206D757374206D617463682074686520616D6F756E74 PUSH1 0x44 DUP3 ADD MSTORE REVERT JUMPDEST CALLVALUE PUSH2 0x21E JUMPI PUSH2 0x462 PUSH2 0x473 PUSH2 0x459 CALLDATASIZE PUSH2 0x2E88 JUMP JUMPDEST SWAP3 DUP2 SWAP4 DUP3 PUSH2 0x3527 JUMP JUMPDEST PUSH1 0x7 SLOAD DUP1 DUP3 GT PUSH2 0x4D8 JUMPI JUMPDEST POP PUSH2 0x3601 JUMP JUMPDEST PUSH2 0x47C DUP2 PUSH2 0x38E4 JUMP JUMPDEST SWAP2 PUSH1 0x0 JUMPDEST DUP3 DUP2 LT PUSH2 0x499 JUMPI PUSH1 0x40 MLOAD DUP1 PUSH2 0x495 DUP7 DUP3 PUSH2 0x3361 JUMP JUMPDEST SUB SWAP1 RETURN JUMPDEST DUP1 PUSH2 0x4B8 PUSH2 0x4B2 PUSH2 0x4AD PUSH2 0x4D3 SWAP5 DUP7 PUSH2 0x3527 JUMP JUMPDEST PUSH2 0x3230 JUMP JUMPDEST POP PUSH2 0x386C JUMP JUMPDEST PUSH2 0x4C2 DUP3 DUP8 PUSH2 0x36F4 JUMP JUMPDEST MSTORE PUSH2 0x4CD DUP2 DUP7 PUSH2 0x36F4 JUMP JUMPDEST POP PUSH2 0x3534 JUMP JUMPDEST PUSH2 0x480 JUMP JUMPDEST SWAP1 POP DUP5 PUSH2 0x46D JUMP JUMPDEST CALLVALUE PUSH2 0x21E JUMPI PUSH1 0x20 CALLDATASIZE PUSH1 0x3 NOT ADD SLT PUSH2 0x21E JUMPI PUSH1 0x1 PUSH1 0x1 PUSH1 0xA0 SHL SUB PUSH2 0x501 PUSH2 0x2E72 JUMP JUMPDEST AND PUSH1 0x0 MSTORE PUSH1 0x0 PUSH1 0x20 MSTORE PUSH2 0x555 PUSH1 0x40 PUSH1 0x0 KECCAK256 PUSH2 0x51B DUP2 PUSH2 0x32BB JUMP JUMPDEST SWAP1 PUSH1 0xFF PUSH1 0x1 DUP3 ADD SLOAD AND SWAP1 PUSH1 0x2 DUP2 ADD SLOAD SWAP1 PUSH1 0x3 DUP2 ADD SLOAD PUSH1 0x4 DUP3 ADD SLOAD SWAP1 PUSH1 0x6 PUSH1 0x5 DUP5 ADD SLOAD SWAP4 ADD SLOAD SWAP4 PUSH1 0x40 MLOAD SWAP8 DUP9 SWAP8 PUSH1 0xE0 DUP10 MSTORE PUSH1 0xE0 DUP10 ADD SWAP1 PUSH2 0x2F0C JUMP JUMPDEST SWAP6 ISZERO ISZERO PUSH1 0x20 DUP9 ADD MSTORE PUSH1 0x40 DUP8 ADD MSTORE PUSH1 0x60 DUP7 ADD MSTORE PUSH1 0x80 DUP6 ADD MSTORE PUSH1 0xA0 DUP5 ADD MSTORE PUSH1 0xC0 DUP4 ADD MSTORE SUB SWAP1 RETURN JUMPDEST CALLVALUE PUSH2 0x21E JUMPI PUSH1 0x60 CALLDATASIZE PUSH1 0x3 NOT ADD SLT PUSH2 0x21E JUMPI PUSH1 0x4 CALLDATALOAD PUSH1 0x1 PUSH1 0x1 PUSH1 0x40 SHL SUB DUP2 GT PUSH2 0x21E JUMPI PUSH2 0x5AA SWAP1 CALLDATASIZE SWAP1 PUSH1 0x4 ADD PUSH2 0x2FDA JUMP JUMPDEST PUSH1 0x44 CALLDATALOAD PUSH1 0x1 PUSH1 0x1 PUSH1 0x40 SHL SUB DUP2 GT PUSH2 0x21E JUMPI PUSH2 0x5C9 SWAP1 CALLDATASIZE SWAP1 PUSH1 0x4 ADD PUSH2 0x2FDA JUMP JUMPDEST CALLER PUSH1 0x0 MSTORE PUSH1 0x0 PUSH1 0x20 MSTORE PUSH2 0x5E6 PUSH1 0xFF PUSH1 0x1 PUSH1 0x40 PUSH1 0x0 KECCAK256 ADD SLOAD AND PUSH2 0x3543 JUMP JUMPDEST DUP2 MLOAD ISZERO PUSH2 0xA05 JUMPI PUSH1 0x24 CALLDATALOAD ISZERO PUSH2 0x9C1 JUMPI PUSH2 0x601 DUP2 MLOAD ISZERO ISZERO PUSH2 0x35B5 JUMP JUMPDEST CALLER PUSH1 0x0 MSTORE PUSH1 0x0 PUSH1 0x20 MSTORE PUSH1 0x24 CALLDATALOAD PUSH1 0x2 PUSH1 0x40 PUSH1 0x0 KECCAK256 ADD SLOAD LT PUSH2 0x985 JUMPI CALLER PUSH1 0x0 MSTORE PUSH1 0x0 PUSH1 0x20 MSTORE PUSH1 0x2 PUSH1 0x40 PUSH1 0x0 KECCAK256 ADD PUSH2 0x639 PUSH1 0x24 CALLDATALOAD DUP3 SLOAD PUSH2 0x3601 JUMP JUMPDEST SWAP1 SSTORE CALLER PUSH1 0x0 MSTORE PUSH1 0x0 PUSH1 0x20 MSTORE PUSH1 0x3 PUSH1 0x40 PUSH1 0x0 KECCAK256 ADD PUSH2 0x659 PUSH1 0x24 CALLDATALOAD DUP3 SLOAD PUSH2 0x3527 JUMP JUMPDEST SWAP1 SSTORE PUSH2 0x666 PUSH1 0x9 SLOAD PUSH2 0x3534 JUMP JUMPDEST DUP1 PUSH1 0x9 SSTORE PUSH1 0x40 MLOAD SWAP3 PUSH2 0x677 DUP5 PUSH2 0x2F82 JUMP JUMPDEST DUP2 DUP5 MSTORE PUSH1 0x20 DUP5 ADD SWAP2 CALLER DUP4 MSTORE PUSH1 0x40 DUP6 ADD SWAP2 DUP3 MSTORE PUSH1 0x24 CALLDATALOAD PUSH1 0x60 DUP7 ADD MSTORE DUP4 PUSH1 0x80 DUP7 ADD MSTORE TIMESTAMP PUSH1 0xA0 DUP7 ADD MSTORE PUSH1 0x0 MSTORE PUSH1 0x1 PUSH1 0x20 MSTORE PUSH1 0x40 PUSH1 0x0 KECCAK256 SWAP2 DUP5 MLOAD DUP4 SSTORE PUSH1 0x1 DUP4 ADD SWAP1 PUSH1 0x1 DUP1 PUSH1 0xA0 SHL SUB SWAP1 MLOAD AND PUSH1 0x1 PUSH1 0x1 PUSH1 0x60 SHL SUB PUSH1 0xA0 SHL DUP3 SLOAD AND OR SWAP1 SSTORE MLOAD SWAP3 DUP4 MLOAD PUSH1 0x1 PUSH1 0x1 PUSH1 0x40 SHL SUB DUP2 GT PUSH2 0x8AE JUMPI PUSH2 0x6EE PUSH1 0x2 DUP5 ADD SLOAD PUSH2 0x3281 JUMP JUMPDEST PUSH1 0x1F DUP2 GT PUSH2 0x93E JUMPI JUMPDEST POP PUSH1 0x20 PUSH1 0x1F DUP3 GT PUSH1 0x1 EQ PUSH2 0x8CF JUMPI DUP2 SWAP3 SWAP4 SWAP5 SWAP6 PUSH1 0x0 SWAP3 PUSH2 0x8C4 JUMPI JUMPDEST POP POP DUP2 PUSH1 0x1 SHL SWAP2 PUSH1 0x0 NOT SWAP1 PUSH1 0x3 SHL SHR NOT AND OR PUSH1 0x2 DUP4 ADD SSTORE JUMPDEST PUSH1 0x60 DUP2 ADD MLOAD PUSH1 0x3 DUP4 ADD SSTORE PUSH1 0x80 DUP2 ADD MLOAD DUP1 MLOAD SWAP1 PUSH1 0x1 PUSH1 0x1 PUSH1 0x40 SHL SUB DUP3 GT PUSH2 0x8AE JUMPI PUSH2 0x757 PUSH1 0x4 DUP6 ADD SLOAD PUSH2 0x3281 JUMP JUMPDEST PUSH1 0x1F DUP2 GT PUSH2 0x863 JUMPI JUMPDEST POP PUSH1 0x20 SWAP1 PUSH1 0x1F DUP4 GT PUSH1 0x1 EQ PUSH2 0x7F0 JUMPI SWAP2 DUP1 PUSH1 0x5 SWAP5 SWAP3 PUSH1 0xA0 SWAP5 PUSH1 0x0 SWAP3 PUSH2 0x7E5 JUMPI JUMPDEST POP POP DUP2 PUSH1 0x1 SHL SWAP2 PUSH1 0x0 NOT SWAP1 PUSH1 0x3 SHL SHR NOT AND OR PUSH1 0x4 DUP6 ADD SSTORE JUMPDEST ADD MLOAD SWAP2 ADD SSTORE PUSH1 0x9 SLOAD PUSH32 0x1243A0379E4E37663C88F3BC1D8BDB9A3CA74F533BE3A0CF855F3F80CBF46715 PUSH1 0x40 MLOAD PUSH1 0x24 CALLDATALOAD DUP2 MSTORE PUSH1 0x40 PUSH1 0x20 DUP3 ADD MSTORE DUP1 PUSH2 0x7E0 CALLER SWAP6 PUSH1 0x40 DUP4 ADD SWAP1 PUSH2 0x2F0C JUMP JUMPDEST SUB SWAP1 LOG3 STOP JUMPDEST ADD MLOAD SWAP1 POP DUP8 DUP1 PUSH2 0x780 JUMP JUMPDEST SWAP1 PUSH1 0x1F NOT DUP4 AND SWAP2 PUSH1 0x4 DUP7 ADD PUSH1 0x0 MSTORE PUSH1 0x20 PUSH1 0x0 KECCAK256 SWAP3 PUSH1 0x0 JUMPDEST DUP2 DUP2 LT PUSH2 0x84B JUMPI POP SWAP3 PUSH1 0x1 SWAP3 DUP6 SWAP3 PUSH1 0xA0 SWAP7 PUSH1 0x5 SWAP9 SWAP7 LT PUSH2 0x832 JUMPI JUMPDEST POP POP POP DUP2 SHL ADD PUSH1 0x4 DUP6 ADD SSTORE PUSH2 0x798 JUMP JUMPDEST ADD MLOAD PUSH1 0x0 NOT PUSH1 0xF8 DUP5 PUSH1 0x3 SHL AND SHR NOT AND SWAP1 SSTORE DUP8 DUP1 DUP1 PUSH2 0x822 JUMP JUMPDEST SWAP3 SWAP4 PUSH1 0x20 PUSH1 0x1 DUP2 SWAP3 DUP8 DUP7 ADD MLOAD DUP2 SSTORE ADD SWAP6 ADD SWAP4 ADD PUSH2 0x807 JUMP JUMPDEST PUSH1 0x4 DUP6 ADD PUSH1 0x0 MSTORE PUSH1 0x20 PUSH1 0x0 KECCAK256 PUSH1 0x1F DUP5 ADD PUSH1 0x5 SHR DUP2 ADD SWAP2 PUSH1 0x20 DUP6 LT PUSH2 0x8A4 JUMPI JUMPDEST PUSH1 0x1F ADD PUSH1 0x5 SHR ADD SWAP1 JUMPDEST DUP2 DUP2 LT PUSH2 0x898 JUMPI POP PUSH2 0x760 JUMP JUMPDEST PUSH1 0x0 DUP2 SSTORE PUSH1 0x1 ADD PUSH2 0x88B JUMP JUMPDEST SWAP1 SWAP2 POP DUP2 SWAP1 PUSH2 0x882 JUMP JUMPDEST PUSH4 0x4E487B71 PUSH1 0xE0 SHL PUSH1 0x0 MSTORE PUSH1 0x41 PUSH1 0x4 MSTORE PUSH1 0x24 PUSH1 0x0 REVERT JUMPDEST ADD MLOAD SWAP1 POP DUP6 DUP1 PUSH2 0x712 JUMP JUMPDEST PUSH1 0x2 DUP5 ADD PUSH1 0x0 MSTORE PUSH1 0x20 PUSH1 0x0 KECCAK256 SWAP1 PUSH1 0x0 JUMPDEST PUSH1 0x1F NOT DUP5 AND DUP2 LT PUSH2 0x926 JUMPI POP PUSH1 0x1 SWAP4 SWAP5 SWAP6 SWAP7 DUP4 PUSH1 0x1F NOT DUP2 AND LT PUSH2 0x90D JUMPI JUMPDEST POP POP POP DUP2 SHL ADD PUSH1 0x2 DUP4 ADD SSTORE PUSH2 0x72A JUMP JUMPDEST ADD MLOAD PUSH1 0x0 NOT PUSH1 0xF8 DUP5 PUSH1 0x3 SHL AND SHR NOT AND SWAP1 SSTORE DUP6 DUP1 DUP1 PUSH2 0x8FD JUMP JUMPDEST SWAP1 SWAP2 PUSH1 0x20 PUSH1 0x1 DUP2 SWAP3 DUP6 DUP12 ADD MLOAD DUP2 SSTORE ADD SWAP4 ADD SWAP2 ADD PUSH2 0x8DF JUMP JUMPDEST PUSH1 0x2 DUP5 ADD PUSH1 0x0 MSTORE PUSH1 0x20 PUSH1 0x0 KECCAK256 PUSH1 0x1F DUP4 ADD PUSH1 0x5 SHR DUP2 ADD PUSH1 0x20 DUP5 LT PUSH2 0x97E JUMPI JUMPDEST PUSH1 0x1F DUP4 ADD PUSH1 0x5 SHR DUP3 ADD DUP2 LT PUSH2 0x972 JUMPI POP POP PUSH2 0x6F7 JUMP JUMPDEST PUSH1 0x0 DUP2 SSTORE PUSH1 0x1 ADD PUSH2 0x95C JUMP JUMPDEST POP DUP1 PUSH2 0x95C JUMP JUMPDEST PUSH1 0x40 MLOAD PUSH3 0x461BCD PUSH1 0xE5 SHL DUP2 MSTORE PUSH1 0x20 PUSH1 0x4 DUP3 ADD MSTORE PUSH1 0x14 PUSH1 0x24 DUP3 ADD MSTORE PUSH20 0x496E73756666696369656E742062616C616E6365 PUSH1 0x60 SHL PUSH1 0x44 DUP3 ADD MSTORE PUSH1 0x64 SWAP1 REVERT JUMPDEST PUSH1 0x64 PUSH1 0x40 MLOAD PUSH3 0x461BCD PUSH1 0xE5 SHL DUP2 MSTORE PUSH1 0x20 PUSH1 0x4 DUP3 ADD MSTORE PUSH1 0x20 PUSH1 0x24 DUP3 ADD MSTORE PUSH32 0x416D6F756E74206D7573742062652067726561746572207468616E207A65726F PUSH1 0x44 DUP3 ADD MSTORE REVERT JUMPDEST PUSH1 0x40 MLOAD PUSH3 0x461BCD PUSH1 0xE5 SHL DUP2 MSTORE PUSH1 0x20 PUSH1 0x4 DUP3 ADD MSTORE PUSH1 0x17 PUSH1 0x24 DUP3 ADD MSTORE PUSH32 0x507572706F73652063616E6E6F7420626520656D707479000000000000000000 PUSH1 0x44 DUP3 ADD MSTORE PUSH1 0x64 SWAP1 REVERT JUMPDEST CALLVALUE PUSH2 0x21E JUMPI PUSH2 0xA58 CALLDATASIZE PUSH2 0x2E88 JUMP JUMPDEST SWAP1 PUSH1 0x0 MSTORE PUSH1 0xB PUSH1 0x20 MSTORE PUSH1 0x40 PUSH1 0x0 KECCAK256 DUP1 SLOAD DUP3 LT ISZERO PUSH2 0x21E JUMPI PUSH1 0x20 SWAP2 PUSH2 0xA7B SWAP2 PUSH2 0x346B JUMP JUMPDEST SWAP1 SLOAD PUSH1 0x40 MLOAD SWAP2 PUSH1 0x3 SHL SHR DUP2 MSTORE RETURN JUMPDEST CALLVALUE PUSH2 0x21E JUMPI PUSH1 0x20 CALLDATASIZE PUSH1 0x3 NOT ADD SLT PUSH2 0x21E JUMPI PUSH1 0x4 CALLDATALOAD PUSH1 0x0 MSTORE PUSH1 0x1 PUSH1 0x20 MSTORE PUSH1 0x40 PUSH1 0x0 KECCAK256 DUP1 SLOAD PUSH1 0x1 DUP1 PUSH1 0xA0 SHL SUB PUSH1 0x1 DUP4 ADD SLOAD AND SWAP2 PUSH2 0xB16 PUSH2 0xAC9 PUSH1 0x2 DUP4 ADD PUSH2 0x32BB JUMP JUMPDEST SWAP2 PUSH1 0x3 DUP2 ADD SLOAD SWAP1 PUSH2 0xB03 PUSH1 0x5 PUSH2 0xAE1 PUSH1 0x4 DUP5 ADD PUSH2 0x32BB JUMP JUMPDEST SWAP3 ADD SLOAD SWAP5 PUSH1 0x40 MLOAD SWAP8 DUP9 SWAP8 DUP9 MSTORE PUSH1 0x20 DUP9 ADD MSTORE PUSH1 0xC0 PUSH1 0x40 DUP9 ADD MSTORE PUSH1 0xC0 DUP8 ADD SWAP1 PUSH2 0x2F0C JUMP JUMPDEST SWAP2 PUSH1 0x60 DUP7 ADD MSTORE DUP5 DUP3 SUB PUSH1 0x80 DUP7 ADD MSTORE PUSH2 0x2F0C JUMP JUMPDEST SWAP1 PUSH1 0xA0 DUP4 ADD MSTORE SUB SWAP1 RETURN JUMPDEST CALLVALUE PUSH2 0x21E JUMPI PUSH1 0x0 CALLDATASIZE PUSH1 0x3 NOT ADD SLT PUSH2 0x21E JUMPI PUSH1 0x5 DUP1 SLOAD SWAP1 PUSH2 0xB3F DUP3 PUSH2 0x368D JUMP JUMPDEST SWAP1 PUSH2 0xB4D PUSH1 0x40 MLOAD SWAP3 DUP4 PUSH2 0x2FB9 JUMP JUMPDEST DUP3 DUP3 MSTORE PUSH1 0x1F NOT PUSH2 0xB5C DUP5 PUSH2 0x368D JUMP JUMPDEST ADD SWAP3 PUSH1 0x20 SWAP4 CALLDATASIZE DUP6 DUP6 ADD CALLDATACOPY PUSH2 0xB6F DUP2 PUSH2 0x39A9 JUMP JUMPDEST SWAP1 PUSH2 0xB79 DUP2 PUSH2 0x39A9 JUMP JUMPDEST SWAP3 PUSH1 0x0 JUMPDEST DUP3 DUP2 LT PUSH2 0xBC0 JUMPI PUSH2 0xBA5 DUP7 PUSH2 0x495 DUP8 PUSH2 0xBB2 DUP12 DUP10 PUSH1 0x40 MLOAD SWAP7 DUP8 SWAP7 PUSH1 0x60 DUP9 MSTORE PUSH1 0x60 DUP9 ADD SWAP1 PUSH2 0x33C3 JUMP JUMPDEST SWAP2 DUP7 DUP4 SUB SWAP1 DUP8 ADD MSTORE PUSH2 0x3400 JUMP JUMPDEST SWAP1 DUP4 DUP3 SUB PUSH1 0x40 DUP6 ADD MSTORE PUSH2 0x3400 JUMP JUMPDEST DUP1 PUSH2 0xBCD PUSH2 0xC46 SWAP3 PUSH2 0x3434 JUMP JUMPDEST SWAP1 SLOAD PUSH1 0x1 PUSH1 0x1 PUSH1 0xA0 SHL SUB SWAP2 PUSH1 0x3 SWAP2 SWAP1 DUP3 SHL SHR DUP3 AND PUSH2 0xBEB DUP5 DUP12 PUSH2 0x36F4 JUMP JUMPDEST MSTORE DUP2 PUSH2 0xBF6 DUP5 PUSH2 0x3434 JUMP JUMPDEST SWAP1 SLOAD SWAP1 DUP4 SHL SHR AND PUSH1 0x0 MSTORE PUSH1 0x0 DUP11 MSTORE PUSH1 0x4 PUSH1 0x40 PUSH1 0x0 KECCAK256 ADD SLOAD PUSH2 0xC17 DUP5 DUP10 PUSH2 0x36F4 JUMP JUMPDEST MSTORE PUSH2 0xC21 DUP4 PUSH2 0x3434 JUMP JUMPDEST SWAP1 SLOAD SWAP2 SHL SHR AND PUSH1 0x0 MSTORE PUSH1 0x0 DUP9 MSTORE DUP3 PUSH1 0x40 PUSH1 0x0 KECCAK256 ADD SLOAD PUSH2 0xC40 DUP3 DUP9 PUSH2 0x36F4 JUMP JUMPDEST MSTORE PUSH2 0x3534 JUMP JUMPDEST PUSH2 0xB7D JUMP JUMPDEST CALLVALUE PUSH2 0x21E JUMPI PUSH1 0x0 CALLDATASIZE PUSH1 0x3 NOT ADD SLT PUSH2 0x21E JUMPI PUSH1 0x40 MLOAD DUP1 PUSH1 0x5 SLOAD DUP1 DUP3 MSTORE DUP3 PUSH1 0x20 DUP1 SWAP4 ADD PUSH1 0x5 PUSH1 0x0 MSTORE PUSH32 0x36B6384B5ECA791C62761152D0C79BB0604C104A5FB6F4EB0703F3154BB3DB0 SWAP3 PUSH1 0x0 JUMPDEST DUP6 DUP3 DUP3 LT PUSH2 0xCC1 JUMPI POP POP POP PUSH2 0xCAD SWAP3 POP SUB DUP4 PUSH2 0x2FB9 JUMP JUMPDEST PUSH2 0x495 PUSH1 0x40 MLOAD SWAP3 DUP3 DUP5 SWAP4 DUP5 MSTORE DUP4 ADD SWAP1 PUSH2 0x33C3 JUMP JUMPDEST DUP6 SLOAD PUSH1 0x1 PUSH1 0x1 PUSH1 0xA0 SHL SUB AND DUP5 MSTORE PUSH1 0x1 SWAP6 DUP7 ADD SWAP6 DUP9 SWAP6 POP SWAP4 ADD SWAP3 ADD PUSH2 0xC96 JUMP JUMPDEST CALLVALUE PUSH2 0x21E JUMPI PUSH1 0x60 CALLDATASIZE PUSH1 0x3 NOT ADD SLT PUSH2 0x21E JUMPI PUSH1 0x24 CALLDATALOAD PUSH1 0x1 PUSH1 0x1 PUSH1 0x40 SHL SUB DUP2 GT PUSH2 0x21E JUMPI PUSH2 0xD10 SWAP1 CALLDATASIZE SWAP1 PUSH1 0x4 ADD PUSH2 0x2FDA JUMP JUMPDEST PUSH1 0x44 CALLDATALOAD PUSH1 0x1 PUSH1 0x1 PUSH1 0x40 SHL SUB DUP2 GT PUSH2 0x21E JUMPI PUSH2 0xD2F SWAP1 CALLDATASIZE SWAP1 PUSH1 0x4 ADD PUSH2 0x2FDA JUMP JUMPDEST SWAP1 CALLER PUSH1 0x0 MSTORE PUSH1 0x0 PUSH1 0x20 MSTORE PUSH2 0xD4D PUSH1 0xFF PUSH1 0x1 PUSH1 0x40 PUSH1 0x0 KECCAK256 ADD SLOAD AND PUSH2 0x3543 JUMP JUMPDEST PUSH2 0xD5A PUSH1 0x4 CALLDATALOAD ISZERO ISZERO PUSH2 0x3754 JUMP JUMPDEST DUP1 MLOAD ISZERO PUSH2 0x1132 JUMPI PUSH2 0xD6D DUP3 MLOAD ISZERO ISZERO PUSH2 0x35B5 JUMP JUMPDEST PUSH1 0x7 SLOAD SWAP1 PUSH2 0xD7A DUP3 PUSH2 0x3534 JUMP JUMPDEST PUSH1 0x7 SSTORE PUSH1 0x40 MLOAD PUSH2 0xD89 DUP2 PUSH2 0x2F9D JUMP JUMPDEST DUP3 DUP2 MSTORE PUSH1 0x20 DUP2 ADD CALLER DUP2 MSTORE PUSH1 0x40 DUP3 ADD PUSH1 0x4 CALLDATALOAD DUP2 MSTORE PUSH1 0x60 DUP4 ADD SWAP1 DUP5 DUP3 MSTORE DUP7 PUSH1 0x80 DUP6 ADD MSTORE TIMESTAMP PUSH1 0xA0 DUP6 ADD MSTORE PUSH1 0x0 PUSH1 0xC0 DUP6 ADD MSTORE PUSH1 0x0 PUSH1 0xE0 DUP6 ADD MSTORE PUSH1 0xC SLOAD PUSH1 0x1 PUSH1 0x40 SHL DUP2 LT ISZERO PUSH2 0x8AE JUMPI DUP1 PUSH1 0x1 PUSH2 0xDDD SWAP3 ADD PUSH1 0xC SSTORE PUSH2 0x3230 JUMP JUMPDEST SWAP4 SWAP1 SWAP4 PUSH2 0x111C JUMPI DUP5 MLOAD DUP5 SSTORE MLOAD PUSH1 0x1 DUP5 ADD DUP1 SLOAD PUSH1 0x1 PUSH1 0x1 PUSH1 0xA0 SHL SUB NOT AND PUSH1 0x1 PUSH1 0x1 PUSH1 0xA0 SHL SUB SWAP3 SWAP1 SWAP3 AND SWAP2 SWAP1 SWAP2 OR SWAP1 SSTORE MLOAD PUSH1 0x2 DUP4 ADD SSTORE MLOAD DUP1 MLOAD SWAP1 PUSH1 0x1 PUSH1 0x1 PUSH1 0x40 SHL SUB DUP3 GT PUSH2 0x8AE JUMPI DUP2 SWAP1 PUSH2 0xE32 PUSH1 0x3 DUP6 ADD SLOAD PUSH2 0x3281 JUMP JUMPDEST PUSH1 0x1F DUP2 GT PUSH2 0x10C9 JUMPI JUMPDEST POP PUSH1 0x20 SWAP1 PUSH1 0x1F DUP4 GT PUSH1 0x1 EQ PUSH2 0x1057 JUMPI PUSH1 0x0 SWAP3 PUSH2 0x104C JUMPI JUMPDEST POP POP DUP2 PUSH1 0x1 SHL SWAP2 PUSH1 0x0 NOT SWAP1 PUSH1 0x3 SHL SHR NOT AND OR PUSH1 0x3 DUP3 ADD SSTORE JUMPDEST PUSH1 0x80 DUP3 ADD MLOAD DUP1 MLOAD SWAP1 PUSH1 0x1 PUSH1 0x1 PUSH1 0x40 SHL SUB DUP3 GT PUSH2 0x8AE JUMPI PUSH2 0xE8D PUSH1 0x4 DUP5 ADD SLOAD PUSH2 0x3281 JUMP JUMPDEST PUSH1 0x1F DUP2 GT PUSH2 0x1005 JUMPI JUMPDEST POP PUSH1 0x20 SWAP1 PUSH1 0x1F DUP4 GT PUSH1 0x1 EQ PUSH2 0xF6C JUMPI PUSH32 0x9569327B0EBAC7EBD8D677C9F6449AFAF57B97A2A0D523ADC4A0AD31B3F00C7 SWAP6 SWAP4 DUP4 PUSH2 0xF52 SWAP7 SWAP5 PUSH1 0xE0 SWAP5 PUSH1 0x6 SWAP5 PUSH1 0x0 SWAP3 PUSH2 0xF61 JUMPI JUMPDEST POP POP DUP2 PUSH1 0x1 SHL SWAP2 PUSH1 0x0 NOT SWAP1 PUSH1 0x3 SHL SHR NOT AND OR PUSH1 0x4 DUP3 ADD SSTORE JUMPDEST PUSH1 0xA0 DUP5 ADD MLOAD PUSH1 0x5 DUP3 ADD SSTORE ADD SWAP2 PUSH2 0xF1C PUSH1 0xC0 DUP3 ADD MLOAD ISZERO ISZERO DUP5 SWAP1 PUSH1 0xFF DUP1 NOT DUP4 SLOAD AND SWAP2 ISZERO ISZERO AND OR SWAP1 SSTORE JUMP JUMPDEST ADD MLOAD ISZERO ISZERO PUSH2 0xFF00 DUP3 SLOAD SWAP2 PUSH1 0x8 SHL AND SWAP1 PUSH2 0xFF00 NOT AND OR SWAP1 SSTORE PUSH2 0x7E0 PUSH1 0x40 MLOAD SWAP3 DUP4 SWAP3 PUSH1 0x4 CALLDATALOAD DUP5 MSTORE PUSH1 0x60 PUSH1 0x20 DUP6 ADD MSTORE PUSH1 0x60 DUP5 ADD SWAP1 PUSH2 0x2F0C JUMP JUMPDEST DUP3 DUP2 SUB PUSH1 0x40 DUP5 ADD MSTORE CALLER SWAP7 PUSH2 0x2F0C JUMP JUMPDEST ADD MLOAD SWAP1 POP DUP12 DUP1 PUSH2 0xEDC JUMP JUMPDEST SWAP1 PUSH1 0x1F NOT DUP4 AND SWAP2 PUSH1 0x4 DUP6 ADD PUSH1 0x0 MSTORE PUSH1 0x20 PUSH1 0x0 KECCAK256 SWAP3 PUSH1 0x0 JUMPDEST DUP2 DUP2 LT PUSH2 0xFED JUMPI POP DUP5 PUSH1 0xE0 SWAP5 PUSH1 0x6 SWAP5 PUSH32 0x9569327B0EBAC7EBD8D677C9F6449AFAF57B97A2A0D523ADC4A0AD31B3F00C7 SWAP11 SWAP9 SWAP5 PUSH2 0xF52 SWAP11 SWAP9 PUSH1 0x1 SWAP6 LT PUSH2 0xFD4 JUMPI JUMPDEST POP POP POP DUP2 SHL ADD PUSH1 0x4 DUP3 ADD SSTORE PUSH2 0xEF4 JUMP JUMPDEST ADD MLOAD PUSH1 0x0 NOT PUSH1 0xF8 DUP5 PUSH1 0x3 SHL AND SHR NOT AND SWAP1 SSTORE DUP12 DUP1 DUP1 PUSH2 0xFC4 JUMP JUMPDEST SWAP3 SWAP4 PUSH1 0x20 PUSH1 0x1 DUP2 SWAP3 DUP8 DUP7 ADD MLOAD DUP2 SSTORE ADD SWAP6 ADD SWAP4 ADD PUSH2 0xF83 JUMP JUMPDEST PUSH1 0x4 DUP5 ADD PUSH1 0x0 MSTORE PUSH1 0x20 PUSH1 0x0 KECCAK256 PUSH1 0x1F DUP5 ADD PUSH1 0x5 SHR DUP2 ADD PUSH1 0x20 DUP6 LT PUSH2 0x1045 JUMPI JUMPDEST PUSH1 0x1F DUP4 ADD PUSH1 0x5 SHR DUP3 ADD DUP2 LT PUSH2 0x1039 JUMPI POP POP PUSH2 0xE96 JUMP JUMPDEST PUSH1 0x0 DUP2 SSTORE PUSH1 0x1 ADD PUSH2 0x1023 JUMP JUMPDEST POP DUP1 PUSH2 0x1023 JUMP JUMPDEST ADD MLOAD SWAP1 POP DUP8 DUP1 PUSH2 0xE52 JUMP JUMPDEST SWAP3 POP PUSH1 0x3 DUP5 ADD PUSH1 0x0 MSTORE PUSH1 0x20 PUSH1 0x0 KECCAK256 SWAP1 PUSH1 0x0 SWAP4 JUMPDEST PUSH1 0x1F NOT DUP5 AND DUP6 LT PUSH2 0x10AE JUMPI PUSH1 0x1 SWAP5 POP DUP4 PUSH1 0x1F NOT DUP2 AND LT PUSH2 0x1095 JUMPI JUMPDEST POP POP POP DUP2 SHL ADD PUSH1 0x3 DUP3 ADD SSTORE PUSH2 0xE6A JUMP JUMPDEST ADD MLOAD PUSH1 0x0 NOT PUSH1 0xF8 DUP5 PUSH1 0x3 SHL AND SHR NOT AND SWAP1 SSTORE DUP8 DUP1 DUP1 PUSH2 0x1085 JUMP JUMPDEST DUP2 DUP2 ADD MLOAD DUP4 SSTORE PUSH1 0x20 SWAP5 DUP6 ADD SWAP5 PUSH1 0x1 SWAP1 SWAP4 ADD SWAP3 SWAP1 SWAP2 ADD SWAP1 PUSH2 0x106A JUMP JUMPDEST SWAP1 SWAP2 POP PUSH1 0x3 DUP5 ADD PUSH1 0x0 MSTORE PUSH1 0x20 PUSH1 0x0 KECCAK256 PUSH1 0x1F DUP5 ADD PUSH1 0x5 SHR DUP2 ADD PUSH1 0x20 DUP6 LT PUSH2 0x1115 JUMPI JUMPDEST SWAP1 DUP5 SWAP4 SWAP3 SWAP2 JUMPDEST PUSH1 0x1F DUP4 ADD PUSH1 0x5 SHR DUP3 ADD DUP2 LT PUSH2 0x1106 JUMPI POP POP PUSH2 0xE3B JUMP JUMPDEST PUSH1 0x0 DUP2 SSTORE DUP6 SWAP5 POP PUSH1 0x1 ADD PUSH2 0x10F0 JUMP JUMPDEST POP DUP1 PUSH2 0x10EA JUMP JUMPDEST PUSH4 0x4E487B71 PUSH1 0xE0 SHL PUSH1 0x0 MSTORE PUSH1 0x0 PUSH1 0x4 MSTORE PUSH1 0x24 PUSH1 0x0 REVERT JUMPDEST PUSH1 0x40 MLOAD PUSH3 0x461BCD PUSH1 0xE5 SHL DUP2 MSTORE PUSH1 0x20 PUSH1 0x4 DUP3 ADD MSTORE PUSH1 0x16 PUSH1 0x24 DUP3 ADD MSTORE PUSH22 0x526561736F6E2063616E6E6F7420626520656D707479 PUSH1 0x50 SHL PUSH1 0x44 DUP3 ADD MSTORE PUSH1 0x64 SWAP1 REVERT JUMPDEST CALLVALUE PUSH2 0x21E JUMPI PUSH1 0x20 DUP1 PUSH1 0x3 NOT CALLDATASIZE ADD SLT PUSH2 0x21E JUMPI PUSH1 0x4 CALLDATALOAD PUSH2 0x118D PUSH2 0x360E JUMP JUMPDEST POP DUP1 ISZERO ISZERO DUP1 PUSH2 0x124E JUMPI JUMPDEST ISZERO PUSH2 0x1215 JUMPI PUSH1 0x0 MSTORE PUSH1 0x1 DUP2 MSTORE PUSH1 0x40 PUSH1 0x0 KECCAK256 SWAP1 PUSH1 0x5 PUSH1 0x40 MLOAD SWAP3 PUSH2 0x11B8 DUP5 PUSH2 0x2F82 JUMP JUMPDEST DUP1 SLOAD DUP5 MSTORE PUSH1 0x1 DUP2 ADD SLOAD PUSH1 0x1 PUSH1 0x1 PUSH1 0xA0 SHL SUB AND DUP4 DUP6 ADD MSTORE PUSH2 0x11DA PUSH1 0x2 DUP3 ADD PUSH2 0x32BB JUMP JUMPDEST PUSH1 0x40 DUP6 ADD MSTORE PUSH1 0x3 DUP2 ADD SLOAD PUSH1 0x60 DUP6 ADD MSTORE PUSH2 0x11F5 PUSH1 0x4 DUP3 ADD PUSH2 0x32BB JUMP JUMPDEST PUSH1 0x80 DUP6 ADD MSTORE ADD SLOAD PUSH1 0xA0 DUP4 ADD MSTORE PUSH2 0x495 PUSH1 0x40 MLOAD SWAP3 DUP3 DUP5 SWAP4 DUP5 MSTORE DUP4 ADD SWAP1 PUSH2 0x3173 JUMP JUMPDEST PUSH1 0x40 MLOAD PUSH3 0x461BCD PUSH1 0xE5 SHL DUP2 MSTORE PUSH1 0x4 DUP2 ADD DUP4 SWAP1 MSTORE PUSH1 0x11 PUSH1 0x24 DUP3 ADD MSTORE PUSH17 0x125B9D985B1A59081C9958DBDC99081251 PUSH1 0x7A SHL PUSH1 0x44 DUP3 ADD MSTORE PUSH1 0x64 SWAP1 REVERT JUMPDEST POP PUSH1 0x9 SLOAD DUP2 GT ISZERO PUSH2 0x1197 JUMP JUMPDEST CALLVALUE PUSH2 0x21E JUMPI PUSH2 0x1268 CALLDATASIZE PUSH2 0x3149 JUMP JUMPDEST SWAP1 PUSH1 0x0 DUP2 PUSH1 0x0 SWAP4 PUSH1 0x7 SLOAD SWAP5 JUMPDEST DUP6 DUP2 LT PUSH2 0x1352 JUMPI POP SWAP2 PUSH2 0x128A PUSH2 0x1298 SWAP4 DUP4 PUSH2 0x3527 JUMP JUMPDEST SWAP1 DUP1 DUP3 GT PUSH2 0x134A JUMPI POP PUSH2 0x3601 JUMP JUMPDEST PUSH2 0x12A1 DUP2 PUSH2 0x38E4 JUMP JUMPDEST SWAP4 PUSH1 0x0 SWAP2 PUSH1 0x0 JUMPDEST DUP6 DUP2 LT DUP1 PUSH2 0x1341 JUMPI JUMPDEST ISZERO PUSH2 0x1333 JUMPI PUSH1 0x1 PUSH2 0x12C1 DUP3 PUSH2 0x3230 JUMP JUMPDEST POP DUP2 DUP1 PUSH1 0xA0 SHL SUB SWAP2 DUP3 SWAP2 ADD SLOAD AND SWAP1 DUP5 AND EQ PUSH2 0x12E5 JUMPI JUMPDEST PUSH2 0x12E0 SWAP1 PUSH2 0x3534 JUMP JUMPDEST PUSH2 0x12A8 JUMP JUMPDEST SWAP3 PUSH2 0x12FA DUP2 DUP7 PUSH2 0x12E0 SWAP4 LT ISZERO PUSH2 0x1302 JUMPI PUSH2 0x3534 JUMP JUMPDEST SWAP4 SWAP1 POP PUSH2 0x12D7 JUMP JUMPDEST PUSH2 0x4CD PUSH2 0x130E DUP8 PUSH2 0x3230 JUMP JUMPDEST POP PUSH2 0x1322 PUSH2 0x131C DUP11 DUP6 PUSH2 0x3601 JUMP JUMPDEST SWAP2 PUSH2 0x386C JUMP JUMPDEST PUSH2 0x132C DUP3 DUP14 PUSH2 0x36F4 JUMP JUMPDEST MSTORE DUP11 PUSH2 0x36F4 JUMP JUMPDEST PUSH1 0x40 MLOAD DUP1 PUSH2 0x495 DUP10 DUP3 PUSH2 0x3361 JUMP JUMPDEST POP DUP2 DUP5 LT PUSH2 0x12B1 JUMP JUMPDEST SWAP1 POP DUP7 PUSH2 0x46D JUMP JUMPDEST SWAP1 SWAP2 POP PUSH1 0x1 PUSH2 0x1360 DUP3 PUSH2 0x3230 JUMP JUMPDEST POP DUP2 DUP1 PUSH1 0xA0 SHL SUB SWAP2 DUP3 SWAP2 ADD SLOAD AND SWAP1 DUP8 AND EQ PUSH2 0x1387 JUMPI JUMPDEST PUSH2 0x137F SWAP1 PUSH2 0x3534 JUMP JUMPDEST SWAP1 DUP4 SWAP2 PUSH2 0x1274 JUMP JUMPDEST SWAP2 PUSH2 0x1394 PUSH2 0x137F SWAP2 PUSH2 0x3534 JUMP JUMPDEST SWAP3 SWAP1 POP PUSH2 0x1376 JUMP JUMPDEST CALLVALUE PUSH2 0x21E JUMPI PUSH2 0x13AA CALLDATASIZE PUSH2 0x2E88 JUMP JUMPDEST PUSH1 0x9 SLOAD DUP1 DUP4 LT ISZERO PUSH2 0x14AC JUMPI DUP3 SWAP1 PUSH2 0x13C2 DUP4 ISZERO ISZERO PUSH2 0x3641 JUMP JUMPDEST DUP1 PUSH2 0x13CD DUP5 DUP5 PUSH2 0x3527 JUMP JUMPDEST GT PUSH2 0x149B JUMPI JUMPDEST POP POP PUSH2 0x13DE DUP2 PUSH2 0x36A4 JUMP JUMPDEST SWAP2 PUSH1 0x0 JUMPDEST DUP3 DUP2 LT PUSH2 0x13F7 JUMPI PUSH1 0x40 MLOAD DUP1 PUSH2 0x495 DUP7 DUP3 PUSH2 0x31CE JUMP JUMPDEST PUSH2 0x1401 DUP2 DUP4 PUSH2 0x3527 JUMP JUMPDEST SWAP1 PUSH1 0x1 DUP1 DUP4 ADD DUP1 SWAP4 GT PUSH2 0x1485 JUMPI PUSH2 0x1480 SWAP3 PUSH1 0x0 MSTORE PUSH1 0x5 PUSH1 0x20 DUP3 DUP2 MSTORE PUSH1 0x40 PUSH1 0x0 KECCAK256 SWAP1 PUSH1 0x40 MLOAD SWAP4 PUSH2 0x142F DUP6 PUSH2 0x2F82 JUMP JUMPDEST DUP3 SLOAD DUP6 MSTORE DUP3 ADD SLOAD PUSH1 0x1 PUSH1 0x1 PUSH1 0xA0 SHL SUB AND SWAP1 DUP5 ADD MSTORE PUSH2 0x144F PUSH1 0x2 DUP3 ADD PUSH2 0x32BB JUMP JUMPDEST PUSH1 0x40 DUP5 ADD MSTORE PUSH1 0x3 DUP2 ADD SLOAD PUSH1 0x60 DUP5 ADD MSTORE PUSH2 0x146A PUSH1 0x4 DUP3 ADD PUSH2 0x32BB JUMP JUMPDEST PUSH1 0x80 DUP5 ADD MSTORE ADD SLOAD PUSH1 0xA0 DUP3 ADD MSTORE PUSH2 0x4C2 DUP3 DUP8 PUSH2 0x36F4 JUMP JUMPDEST PUSH2 0x13E2 JUMP JUMPDEST PUSH4 0x4E487B71 PUSH1 0xE0 SHL PUSH1 0x0 MSTORE PUSH1 0x11 PUSH1 0x4 MSTORE PUSH1 0x24 PUSH1 0x0 REVERT JUMPDEST PUSH2 0x14A5 SWAP3 POP PUSH2 0x3601 JUMP JUMPDEST DUP2 DUP4 PUSH2 0x13D3 JUMP JUMPDEST PUSH1 0x40 MLOAD PUSH3 0x461BCD PUSH1 0xE5 SHL DUP2 MSTORE PUSH1 0x20 PUSH1 0x4 DUP3 ADD MSTORE PUSH1 0x1B PUSH1 0x24 DUP3 ADD MSTORE PUSH32 0x4F66667365742065786365656473207265636F726420636F756E740000000000 PUSH1 0x44 DUP3 ADD MSTORE PUSH1 0x64 SWAP1 REVERT JUMPDEST CALLVALUE PUSH2 0x21E JUMPI PUSH1 0x0 CALLDATASIZE PUSH1 0x3 NOT ADD SLT PUSH2 0x21E JUMPI PUSH1 0xD SLOAD PUSH1 0x1 PUSH1 0x1 PUSH1 0xA0 SHL SUB SWAP1 PUSH2 0x151B SWAP1 DUP3 AND CALLER EQ PUSH2 0x3483 JUMP JUMPDEST PUSH1 0xE SLOAD PUSH3 0x15180 DUP2 ADD DUP1 SWAP2 GT PUSH2 0x1485 JUMPI TIMESTAMP LT PUSH2 0x169A JUMPI PUSH8 0xDE0B6B3A7640000 SWAP1 DUP2 SELFBALANCE LT PUSH2 0x1655 JUMPI PUSH1 0x5 SLOAD PUSH1 0x0 SWAP1 DUP2 DUP1 JUMPDEST DUP3 DUP2 LT PUSH2 0x15F3 JUMPI POP POP POP AND SWAP1 DUP2 ISZERO PUSH2 0x15AE JUMPI DUP2 PUSH1 0x0 MSTORE PUSH1 0x0 PUSH1 0x20 MSTORE PUSH1 0x2 PUSH1 0x40 PUSH1 0x0 KECCAK256 ADD DUP1 SLOAD SWAP2 DUP1 DUP4 ADD DUP1 SWAP4 GT PUSH2 0x1485 JUMPI PUSH32 0x8E3A90176F65D9F17B62AE9970B50FF21E66BBA05788435310F6E12C942B0B37 SWAP3 PUSH1 0x20 SWAP3 SSTORE TIMESTAMP PUSH1 0xE SSTORE PUSH1 0x40 MLOAD SWAP1 DUP2 MSTORE LOG2 STOP JUMPDEST PUSH1 0x40 MLOAD PUSH3 0x461BCD PUSH1 0xE5 SHL DUP2 MSTORE PUSH1 0x20 PUSH1 0x4 DUP3 ADD MSTORE PUSH1 0x1A PUSH1 0x24 DUP3 ADD MSTORE PUSH32 0x4E6F20656C696769626C6520656E74697469657320666F756E64000000000000 PUSH1 0x44 DUP3 ADD MSTORE PUSH1 0x64 SWAP1 REVERT JUMPDEST DUP5 PUSH2 0x15FD DUP3 PUSH2 0x3434 JUMP JUMPDEST SWAP1 SLOAD SWAP1 PUSH1 0x3 SHL SHR AND DUP1 PUSH1 0x0 MSTORE PUSH1 0x0 PUSH1 0x20 MSTORE PUSH1 0x40 PUSH1 0x0 KECCAK256 PUSH1 0xFF PUSH1 0x1 DUP3 ADD SLOAD AND DUP1 PUSH2 0x1648 JUMPI JUMPDEST PUSH2 0x1636 JUMPI JUMPDEST POP POP PUSH2 0x1631 SWAP1 PUSH2 0x3534 JUMP JUMPDEST PUSH2 0x154B JUMP JUMPDEST PUSH1 0x4 ADD SLOAD SWAP1 SWAP5 POP SWAP2 POP PUSH2 0x1631 DUP8 PUSH2 0x1626 JUMP JUMPDEST POP DUP4 PUSH1 0x4 DUP3 ADD SLOAD GT PUSH2 0x1621 JUMP JUMPDEST PUSH1 0x40 MLOAD PUSH3 0x461BCD PUSH1 0xE5 SHL DUP2 MSTORE PUSH1 0x20 PUSH1 0x4 DUP3 ADD MSTORE PUSH1 0x1D PUSH1 0x24 DUP3 ADD MSTORE PUSH32 0x496E73756666696369656E7420636F6E74726163742062616C616E6365000000 PUSH1 0x44 DUP3 ADD MSTORE PUSH1 0x64 SWAP1 REVERT JUMPDEST PUSH1 0x40 MLOAD PUSH3 0x461BCD PUSH1 0xE5 SHL DUP2 MSTORE PUSH1 0x20 PUSH1 0x4 DUP3 ADD MSTORE PUSH1 0x1C PUSH1 0x24 DUP3 ADD MSTORE PUSH32 0x546F6F20736F6F6E20746F206469737472696275746520626F6E757300000000 PUSH1 0x44 DUP3 ADD MSTORE PUSH1 0x64 SWAP1 REVERT JUMPDEST CALLVALUE PUSH2 0x21E JUMPI PUSH2 0x16F3 PUSH2 0x1703 PUSH2 0x459 CALLDATASIZE PUSH2 0x2E88 JUMP JUMPDEST PUSH1 0xA SLOAD DUP1 DUP3 GT PUSH2 0x4D8 JUMPI POP PUSH2 0x3601 JUMP JUMPDEST PUSH2 0x170C DUP2 PUSH2 0x3A07 JUMP JUMPDEST SWAP2 PUSH1 0x0 JUMPDEST DUP3 DUP2 LT PUSH2 0x1725 JUMPI PUSH1 0x40 MLOAD DUP1 PUSH2 0x495 DUP7 DUP3 PUSH2 0x3030 JUMP JUMPDEST PUSH2 0x172F DUP2 DUP4 PUSH2 0x3527 JUMP JUMPDEST SWAP1 PUSH1 0x1 DUP1 DUP4 ADD DUP1 SWAP4 GT PUSH2 0x1485 JUMPI PUSH2 0x17A8 SWAP3 PUSH1 0x0 MSTORE PUSH1 0x5 PUSH1 0x2 PUSH1 0x20 SWAP1 DUP1 DUP3 MSTORE PUSH1 0x40 PUSH1 0x0 KECCAK256 SWAP2 PUSH1 0x40 MLOAD SWAP5 PUSH2 0x1760 DUP7 PUSH2 0x2F82 JUMP JUMPDEST DUP4 SLOAD DUP7 MSTORE DUP4 ADD SLOAD SWAP1 DUP6 ADD MSTORE DUP2 ADD SLOAD PUSH1 0x1 PUSH1 0x1 PUSH1 0xA0 SHL SUB AND PUSH1 0x40 DUP5 ADD MSTORE PUSH2 0x1788 PUSH1 0x3 DUP3 ADD PUSH2 0x32BB JUMP JUMPDEST PUSH1 0x60 DUP5 ADD MSTORE PUSH1 0x4 DUP2 ADD SLOAD PUSH1 0x80 DUP5 ADD MSTORE ADD SLOAD PUSH1 0xA0 DUP3 ADD MSTORE PUSH2 0x4C2 DUP3 DUP8 PUSH2 0x36F4 JUMP JUMPDEST PUSH2 0x1710 JUMP JUMPDEST CALLVALUE PUSH2 0x21E JUMPI PUSH1 0x0 CALLDATASIZE PUSH1 0x3 NOT ADD SLT PUSH2 0x21E JUMPI PUSH1 0x20 PUSH1 0x6 SLOAD PUSH1 0x40 MLOAD SWAP1 DUP2 MSTORE RETURN JUMPDEST CALLVALUE PUSH2 0x21E JUMPI PUSH1 0x20 CALLDATASIZE PUSH1 0x3 NOT ADD SLT PUSH2 0x21E JUMPI PUSH1 0x1 PUSH1 0x1 PUSH1 0xA0 SHL SUB PUSH2 0x17EC PUSH2 0x2E72 JUMP JUMPDEST AND DUP1 PUSH1 0x0 MSTORE PUSH1 0x0 PUSH1 0x20 MSTORE PUSH2 0x1813 PUSH1 0xFF PUSH1 0x1 PUSH1 0x40 PUSH1 0x0 KECCAK256 ADD SLOAD AND DUP1 ISZERO DUP1 PUSH2 0x1891 JUMPI JUMPDEST POP PUSH2 0x3708 JUMP JUMPDEST PUSH1 0x0 MSTORE PUSH1 0x0 PUSH1 0x20 MSTORE PUSH1 0x60 PUSH1 0x40 PUSH1 0x0 KECCAK256 PUSH1 0xC0 PUSH1 0x40 MLOAD SWAP2 PUSH2 0x1831 DUP4 PUSH2 0x2F67 JUMP JUMPDEST PUSH2 0x183A DUP2 PUSH2 0x32BB JUMP JUMPDEST DUP4 MSTORE PUSH1 0xFF PUSH1 0x1 DUP3 ADD SLOAD AND ISZERO ISZERO PUSH1 0x20 DUP5 ADD MSTORE PUSH1 0x2 DUP2 ADD SLOAD PUSH1 0x40 DUP5 ADD MSTORE PUSH1 0x3 DUP2 ADD SLOAD DUP5 DUP5 ADD MSTORE PUSH1 0x4 DUP2 ADD SLOAD SWAP3 DUP4 PUSH1 0x80 DUP3 ADD MSTORE PUSH1 0x6 PUSH1 0x5 DUP4 ADD SLOAD SWAP3 DUP4 PUSH1 0xA0 DUP5 ADD MSTORE ADD SLOAD SWAP3 DUP4 SWAP2 ADD MSTORE PUSH1 0x40 MLOAD SWAP3 DUP4 MSTORE PUSH1 0x20 DUP4 ADD MSTORE PUSH1 0x40 DUP3 ADD MSTORE RETURN JUMPDEST SWAP1 POP DUP4 PUSH2 0x180D JUMP JUMPDEST CALLVALUE PUSH2 0x21E JUMPI PUSH1 0x20 CALLDATASIZE PUSH1 0x3 NOT ADD SLT PUSH2 0x21E JUMPI PUSH1 0x4 CALLDATALOAD PUSH1 0x0 MSTORE PUSH1 0x2 PUSH1 0x20 MSTORE PUSH1 0x40 PUSH1 0x0 KECCAK256 DUP1 SLOAD PUSH1 0x1 DUP3 ADD SLOAD SWAP2 PUSH1 0x1 DUP1 PUSH1 0xA0 SHL SUB PUSH1 0x2 DUP3 ADD SLOAD AND PUSH2 0x190C PUSH2 0x18DE PUSH1 0x3 DUP5 ADD PUSH2 0x32BB JUMP JUMPDEST PUSH1 0x5 PUSH1 0x4 DUP6 ADD SLOAD SWAP5 ADD SLOAD SWAP3 PUSH1 0x40 MLOAD SWAP7 DUP8 SWAP7 DUP8 MSTORE PUSH1 0x20 DUP8 ADD MSTORE PUSH1 0x40 DUP7 ADD MSTORE PUSH1 0xC0 PUSH1 0x60 DUP7 ADD MSTORE PUSH1 0xC0 DUP6 ADD SWAP1 PUSH2 0x2F0C JUMP JUMPDEST SWAP2 PUSH1 0x80 DUP5 ADD MSTORE PUSH1 0xA0 DUP4 ADD MSTORE SUB SWAP1 RETURN JUMPDEST CALLVALUE PUSH2 0x21E JUMPI PUSH1 0x20 CALLDATASIZE PUSH1 0x3 NOT ADD SLT PUSH2 0x21E JUMPI PUSH1 0x4 CALLDATALOAD PUSH1 0xC SLOAD DUP2 LT ISZERO PUSH2 0x21E JUMPI PUSH2 0x1942 SWAP1 PUSH2 0x3230 JUMP JUMPDEST POP DUP1 SLOAD PUSH1 0x1 DUP1 PUSH1 0xA0 SHL SUB PUSH1 0x1 DUP4 ADD SLOAD AND SWAP2 PUSH1 0xFF PUSH1 0x2 DUP3 ADD SLOAD PUSH2 0x19B5 PUSH2 0x1969 PUSH1 0x3 DUP6 ADD PUSH2 0x32BB JUMP JUMPDEST PUSH2 0x19A7 PUSH2 0x1978 PUSH1 0x4 DUP8 ADD PUSH2 0x32BB JUMP JUMPDEST SWAP2 PUSH1 0x6 PUSH1 0x5 DUP9 ADD SLOAD SWAP8 ADD SLOAD SWAP5 PUSH1 0x40 MLOAD SWAP10 DUP11 SWAP10 DUP11 MSTORE PUSH1 0x20 DUP11 ADD MSTORE PUSH1 0x40 DUP10 ADD MSTORE PUSH2 0x100 DUP1 PUSH1 0x60 DUP11 ADD MSTORE DUP9 ADD SWAP1 PUSH2 0x2F0C JUMP JUMPDEST SWAP1 DUP7 DUP3 SUB PUSH1 0x80 DUP9 ADD MSTORE PUSH2 0x2F0C JUMP JUMPDEST SWAP3 PUSH1 0xA0 DUP6 ADD MSTORE DUP2 DUP2 AND ISZERO ISZERO PUSH1 0xC0 DUP6 ADD MSTORE PUSH1 0x8 SHR AND ISZERO ISZERO PUSH1 0xE0 DUP4 ADD MSTORE SUB SWAP1 RETURN JUMPDEST CALLVALUE PUSH2 0x21E JUMPI PUSH1 0x0 CALLDATASIZE PUSH1 0x3 NOT ADD SLT PUSH2 0x21E JUMPI PUSH1 0x20 PUSH1 0x40 MLOAD PUSH8 0xDE0B6B3A7640000 DUP2 MSTORE RETURN JUMPDEST CALLVALUE PUSH2 0x21E JUMPI PUSH2 0x1A05 CALLDATASIZE PUSH2 0x3149 JUMP JUMPDEST SWAP1 PUSH1 0x1 DUP1 PUSH1 0xA0 SHL SUB DUP1 SWAP4 AND SWAP2 DUP3 PUSH1 0x0 MSTORE PUSH1 0x20 SWAP4 PUSH1 0x0 DUP6 MSTORE PUSH1 0x1 SWAP4 PUSH2 0x1A3A PUSH1 0xFF DUP7 PUSH1 0x40 PUSH1 0x0 KECCAK256 ADD SLOAD AND DUP1 ISZERO DUP1 PUSH2 0x1C02 JUMPI POP PUSH2 0x3708 JUMP JUMPDEST PUSH1 0x8 SLOAD SWAP1 PUSH1 0x0 DUP7 JUMPDEST DUP4 DUP2 GT ISZERO PUSH2 0x1BC6 JUMPI POP DUP1 DUP7 LT ISZERO PUSH2 0x1B83 JUMPI SWAP1 DUP6 DUP8 SWAP3 PUSH2 0x1A62 DUP8 ISZERO ISZERO PUSH2 0x3641 JUMP JUMPDEST DUP1 PUSH2 0x1A6D DUP9 DUP5 PUSH2 0x3527 JUMP JUMPDEST GT PUSH2 0x1B70 JUMPI JUMPDEST POP POP SWAP1 POP PUSH2 0x1A80 DUP5 PUSH2 0x3959 JUMP JUMPDEST SWAP7 PUSH1 0x0 SWAP5 PUSH1 0x0 SWAP4 DUP9 DUP1 JUMPDEST PUSH2 0x1A9D JUMPI JUMPDEST PUSH1 0x40 MLOAD DUP1 PUSH2 0x495 DUP14 DUP3 PUSH2 0x2E9E JUMP JUMPDEST DUP2 DUP2 GT ISZERO DUP1 PUSH2 0x1B67 JUMPI JUMPDEST ISZERO PUSH2 0x1B62 JUMPI SWAP1 DUP2 DUP11 SWAP6 SWAP5 SWAP4 SWAP3 PUSH1 0x0 MSTORE DUP12 PUSH1 0x3 DUP1 DUP7 MSTORE PUSH1 0x40 PUSH1 0x0 KECCAK256 SWAP1 DUP11 DUP10 DUP4 ADD SLOAD AND SWAP2 DUP9 DUP4 EQ PUSH2 0x1AE8 JUMPI JUMPDEST POP POP POP POP PUSH2 0x1ADE SWAP1 PUSH2 0x3534 JUMP JUMPDEST SWAP1 SWAP2 SWAP3 SWAP4 SWAP5 PUSH2 0x1A8A JUMP JUMPDEST DUP14 DUP14 SWAP6 SWAP14 LT ISZERO PUSH2 0x1B0F JUMPI JUMPDEST POP POP POP POP PUSH2 0x1B03 PUSH2 0x1ADE SWAP2 PUSH2 0x3534 JUMP JUMPDEST SWAP9 SWAP1 POP DUP12 DUP14 DUP1 DUP1 PUSH2 0x1AD1 JUMP JUMPDEST DUP11 PUSH2 0x1B03 SWAP5 PUSH2 0x1B58 SWAP5 PUSH2 0x1ADE SWAP8 SWAP14 SWAP5 PUSH2 0x4CD SWAP5 PUSH1 0x40 MLOAD SWAP3 PUSH2 0x1B2F DUP5 PUSH2 0x2F4C JUMP JUMPDEST DUP2 SLOAD DUP5 MSTORE DUP14 DUP5 ADD MSTORE PUSH1 0x2 DUP2 ADD SLOAD PUSH1 0x40 DUP5 ADD MSTORE ADD SLOAD PUSH1 0x60 DUP3 ADD MSTORE PUSH2 0x1B52 DUP4 DUP4 PUSH2 0x36F4 JUMP JUMPDEST MSTORE PUSH2 0x36F4 JUMP JUMPDEST SWAP8 SWAP2 DUP14 SWAP2 DUP16 PUSH2 0x1AF3 JUMP JUMPDEST PUSH2 0x1A8F JUMP JUMPDEST POP DUP3 DUP7 LT PUSH2 0x1AA7 JUMP JUMPDEST PUSH2 0x1B7B SWAP3 SWAP7 POP PUSH2 0x3601 JUMP JUMPDEST SWAP4 DUP6 DUP10 PUSH2 0x1A73 JUMP JUMPDEST PUSH1 0x64 DUP9 PUSH1 0x40 MLOAD SWAP1 PUSH3 0x461BCD PUSH1 0xE5 SHL DUP3 MSTORE DUP1 PUSH1 0x4 DUP4 ADD MSTORE PUSH1 0x24 DUP3 ADD MSTORE PUSH32 0x4F6666736574206578636565647320656E746974792066756E6420636F756E74 PUSH1 0x44 DUP3 ADD MSTORE REVERT JUMPDEST DUP1 PUSH1 0x0 MSTORE PUSH1 0x3 DUP10 MSTORE DUP3 DUP6 DUP10 PUSH1 0x40 PUSH1 0x0 KECCAK256 ADD SLOAD AND EQ PUSH2 0x1BED JUMPI JUMPDEST PUSH2 0x1BE8 SWAP1 PUSH2 0x3534 JUMP JUMPDEST PUSH2 0x1A42 JUMP JUMPDEST SWAP1 PUSH2 0x1BFA PUSH2 0x1BE8 SWAP2 PUSH2 0x3534 JUMP JUMPDEST SWAP2 SWAP1 POP PUSH2 0x1BDF JUMP JUMPDEST SWAP1 POP DUP9 PUSH2 0x180D JUMP JUMPDEST CALLVALUE PUSH2 0x21E JUMPI PUSH1 0x40 CALLDATASIZE PUSH1 0x3 NOT ADD SLT PUSH2 0x21E JUMPI PUSH2 0x1C23 PUSH2 0x2E72 JUMP JUMPDEST PUSH1 0x1 PUSH1 0x1 PUSH1 0xA0 SHL SUB AND PUSH1 0x0 DUP2 DUP2 MSTORE PUSH1 0x20 DUP2 DUP2 MSTORE PUSH1 0x40 SWAP1 SWAP2 KECCAK256 PUSH1 0x1 ADD SLOAD PUSH1 0x24 SWAP3 SWAP2 DUP4 CALLDATALOAD SWAP2 PUSH1 0xFF AND ISZERO PUSH2 0x1D82 JUMPI PUSH1 0x1 DUP3 LT ISZERO DUP1 PUSH2 0x1D77 JUMPI JUMPDEST ISZERO PUSH2 0x1D34 JUMPI DUP3 PUSH1 0x0 MSTORE PUSH1 0x0 DUP2 MSTORE PUSH1 0x40 PUSH1 0x0 KECCAK256 PUSH1 0x5 PUSH1 0x4 DUP3 ADD SLOAD SWAP2 ADD SLOAD SWAP1 DUP2 DUP2 MUL SWAP1 DUP1 DUP3 DIV DUP4 EQ SWAP1 ISZERO OR ISZERO PUSH2 0x1D0A JUMPI DUP4 PUSH2 0x1C91 SWAP2 PUSH2 0x3527 JUMP JUMPDEST PUSH1 0x1 DUP3 ADD DUP1 SWAP3 GT PUSH2 0x1D0A JUMPI DUP2 ISZERO PUSH2 0x1D1F JUMPI PUSH1 0x5 SWAP2 DUP6 PUSH1 0x0 MSTORE PUSH1 0x0 DUP5 MSTORE PUSH1 0x40 PUSH1 0x0 KECCAK256 SWAP2 DIV PUSH1 0x4 DUP3 ADD SSTORE ADD DUP1 SLOAD SWAP1 PUSH1 0x1 DUP3 ADD DUP1 SWAP3 GT PUSH2 0x1D0A JUMPI SWAP1 PUSH32 0x174BA19BA3C8BB5C679C87E51DB79FFF7C3F04BB84C1FD55B7DACB470B674AA6 SWAP3 SWAP2 SSTORE DUP4 PUSH1 0x0 MSTORE PUSH1 0x0 DUP2 MSTORE TIMESTAMP PUSH1 0x6 PUSH1 0x40 PUSH1 0x0 KECCAK256 ADD SSTORE PUSH1 0x40 MLOAD SWAP3 DUP4 MSTORE CALLER SWAP3 LOG3 STOP JUMPDEST DUP6 PUSH4 0x4E487B71 PUSH1 0xE0 SHL PUSH1 0x0 MSTORE PUSH1 0x11 PUSH1 0x4 MSTORE PUSH1 0x0 REVERT JUMPDEST DUP6 PUSH4 0x4E487B71 PUSH1 0xE0 SHL PUSH1 0x0 MSTORE PUSH1 0x12 PUSH1 0x4 MSTORE PUSH1 0x0 REVERT JUMPDEST PUSH1 0x64 SWAP1 PUSH1 0x1E DUP6 PUSH1 0x40 MLOAD SWAP3 PUSH3 0x461BCD PUSH1 0xE5 SHL DUP5 MSTORE PUSH1 0x4 DUP5 ADD MSTORE DUP3 ADD MSTORE PUSH32 0x526174696E67206D757374206265206265747765656E203120616E6420350000 PUSH1 0x44 DUP3 ADD MSTORE REVERT JUMPDEST POP PUSH1 0x5 DUP3 GT ISZERO PUSH2 0x1C59 JUMP JUMPDEST PUSH1 0x64 SWAP1 PUSH1 0x14 DUP6 PUSH1 0x40 MLOAD SWAP3 PUSH3 0x461BCD PUSH1 0xE5 SHL DUP5 MSTORE PUSH1 0x4 DUP5 ADD MSTORE DUP3 ADD MSTORE PUSH20 0x456E74697479206973206E6F7420616374697665 PUSH1 0x60 SHL PUSH1 0x44 DUP3 ADD MSTORE REVERT JUMPDEST CALLVALUE PUSH2 0x21E JUMPI PUSH1 0x20 CALLDATASIZE PUSH1 0x3 NOT ADD SLT PUSH2 0x21E JUMPI PUSH1 0x1 PUSH1 0x1 PUSH1 0xA0 SHL SUB PUSH2 0x1DDD PUSH2 0x2E72 JUMP JUMPDEST AND PUSH1 0x0 MSTORE PUSH1 0x4 PUSH1 0x20 MSTORE PUSH1 0x20 PUSH1 0xFF PUSH1 0x40 PUSH1 0x0 KECCAK256 SLOAD AND PUSH1 0x40 MLOAD SWAP1 ISZERO ISZERO DUP2 MSTORE RETURN JUMPDEST CALLVALUE PUSH2 0x21E JUMPI PUSH1 0x0 CALLDATASIZE PUSH1 0x3 NOT ADD SLT PUSH2 0x21E JUMPI PUSH2 0x1E21 PUSH1 0x1 DUP1 PUSH1 0xA0 SHL SUB PUSH1 0xD SLOAD AND CALLER EQ PUSH2 0x3483 JUMP JUMPDEST PUSH1 0x20 SELFBALANCE PUSH1 0x40 MLOAD SWAP1 DUP2 MSTORE RETURN JUMPDEST CALLVALUE PUSH2 0x21E JUMPI PUSH1 0x0 CALLDATASIZE PUSH1 0x3 NOT ADD SLT PUSH2 0x21E JUMPI PUSH1 0xD SLOAD PUSH1 0x40 MLOAD PUSH1 0x1 PUSH1 0x1 PUSH1 0xA0 SHL SUB SWAP1 SWAP2 AND DUP2 MSTORE PUSH1 0x20 SWAP1 RETURN JUMPDEST CALLVALUE PUSH2 0x21E JUMPI PUSH1 0x0 CALLDATASIZE PUSH1 0x3 NOT ADD SLT PUSH2 0x21E JUMPI PUSH1 0x20 PUSH1 0x5 SLOAD PUSH1 0x40 MLOAD SWAP1 DUP2 MSTORE RETURN JUMPDEST CALLVALUE PUSH2 0x21E JUMPI PUSH1 0x0 CALLDATASIZE PUSH1 0x3 NOT ADD SLT PUSH2 0x21E JUMPI PUSH1 0x20 PUSH1 0x7 SLOAD PUSH1 0x40 MLOAD SWAP1 DUP2 MSTORE RETURN JUMPDEST CALLVALUE PUSH2 0x21E JUMPI PUSH1 0x20 CALLDATASIZE PUSH1 0x3 NOT ADD SLT PUSH2 0x21E JUMPI PUSH1 0x4 CALLDATALOAD PUSH1 0x1 DUP1 PUSH1 0xA0 SHL SUB PUSH2 0x1EBB DUP2 PUSH1 0xD SLOAD AND CALLER EQ PUSH2 0x3483 JUMP JUMPDEST PUSH2 0x1EC8 PUSH1 0x7 SLOAD DUP4 LT PUSH2 0x37A0 JUMP JUMPDEST PUSH1 0x1 PUSH2 0x1ED3 DUP4 PUSH2 0x3230 JUMP JUMPDEST POP PUSH1 0x6 DUP2 ADD PUSH2 0x100 DUP2 SLOAD PUSH1 0xFF DUP2 AND ISZERO DUP1 PUSH2 0x1F24 JUMPI JUMPDEST PUSH2 0x1EF1 SWAP1 PUSH2 0x37E1 JUMP JUMPDEST PUSH2 0xFF00 NOT AND OR SWAP1 SSTORE ADD SLOAD AND SWAP1 PUSH32 0x4323A3F8BBBCF284E67A4932738F0F8FE465297D522B256E4F863FFBBF22C7EE PUSH1 0x0 DUP1 LOG3 STOP JUMPDEST POP PUSH1 0x8 DUP2 SWAP1 SHR PUSH1 0xFF AND ISZERO PUSH2 0x1EE8 JUMP JUMPDEST CALLVALUE PUSH2 0x21E JUMPI PUSH2 0x1F41 CALLDATASIZE PUSH2 0x3149 JUMP JUMPDEST SWAP1 PUSH1 0x1 DUP1 PUSH1 0xA0 SHL SUB DUP1 SWAP4 AND SWAP2 DUP3 PUSH1 0x0 MSTORE PUSH1 0x20 PUSH1 0x0 DUP2 MSTORE PUSH1 0x1 SWAP4 PUSH2 0x1F75 PUSH1 0xFF DUP7 PUSH1 0x40 PUSH1 0x0 KECCAK256 ADD SLOAD AND DUP1 ISZERO DUP1 PUSH2 0x1C02 JUMPI POP PUSH2 0x3708 JUMP JUMPDEST PUSH1 0x9 SLOAD SWAP1 PUSH1 0x0 DUP7 JUMPDEST DUP4 DUP2 GT ISZERO PUSH2 0x2125 JUMPI POP DUP1 DUP7 LT ISZERO PUSH2 0x20D5 JUMPI DUP6 SWAP1 PUSH2 0x1F9B DUP7 ISZERO ISZERO PUSH2 0x3641 JUMP JUMPDEST DUP1 PUSH2 0x1FA6 DUP8 DUP5 PUSH2 0x3527 JUMP JUMPDEST GT PUSH2 0x20C2 JUMPI JUMPDEST POP POP PUSH2 0x1FB7 DUP5 PUSH2 0x36A4 JUMP JUMPDEST SWAP7 PUSH1 0x0 SWAP5 PUSH1 0x0 SWAP4 DUP9 DUP1 JUMPDEST PUSH2 0x1FD4 JUMPI JUMPDEST PUSH1 0x40 MLOAD DUP1 PUSH2 0x495 DUP14 DUP3 PUSH2 0x31CE JUMP JUMPDEST DUP2 DUP2 GT ISZERO DUP1 PUSH2 0x20B9 JUMPI JUMPDEST ISZERO PUSH2 0x20B4 JUMPI SWAP1 DUP2 DUP11 SWAP5 SWAP4 SWAP3 PUSH1 0x0 MSTORE DUP5 DUP9 MSTORE DUP12 PUSH1 0x40 PUSH1 0x0 KECCAK256 DUP6 DUP8 DUP3 ADD SLOAD AND DUP9 DUP2 EQ PUSH2 0x2018 JUMPI JUMPDEST POP POP POP PUSH2 0x200F SWAP1 PUSH2 0x3534 JUMP JUMPDEST SWAP1 SWAP2 SWAP3 SWAP4 PUSH2 0x1FC1 JUMP JUMPDEST SWAP1 DUP11 SWAP2 DUP14 DUP14 SWAP6 SWAP14 LT ISZERO PUSH2 0x2041 JUMPI JUMPDEST POP POP POP POP PUSH2 0x2036 PUSH2 0x200F SWAP2 PUSH2 0x3534 JUMP JUMPDEST SWAP9 SWAP1 POP DUP12 DUP14 DUP1 PUSH2 0x2003 JUMP JUMPDEST DUP11 PUSH2 0x2036 SWAP5 PUSH2 0x20A7 SWAP5 PUSH1 0x5 PUSH2 0x200F SWAP9 SWAP15 SWAP6 PUSH2 0x4CD SWAP6 PUSH1 0x40 MLOAD SWAP4 PUSH2 0x2063 DUP6 PUSH2 0x2F82 JUMP JUMPDEST DUP3 SLOAD DUP6 MSTORE DUP5 ADD MSTORE PUSH2 0x2076 PUSH1 0x2 DUP3 ADD PUSH2 0x32BB JUMP JUMPDEST PUSH1 0x40 DUP5 ADD MSTORE PUSH1 0x3 DUP2 ADD SLOAD PUSH1 0x60 DUP5 ADD MSTORE PUSH2 0x2091 PUSH1 0x4 DUP3 ADD PUSH2 0x32BB JUMP JUMPDEST PUSH1 0x80 DUP5 ADD MSTORE ADD SLOAD PUSH1 0xA0 DUP3 ADD MSTORE PUSH2 0x1B52 DUP4 DUP4 PUSH2 0x36F4 JUMP JUMPDEST SWAP8 SWAP2 POP POP DUP12 DUP9 DUP15 DUP1 PUSH2 0x2026 JUMP JUMPDEST PUSH2 0x1FC6 JUMP JUMPDEST POP DUP3 DUP7 LT PUSH2 0x1FDE JUMP JUMPDEST PUSH2 0x20CD SWAP3 SWAP6 POP PUSH2 0x3601 JUMP JUMPDEST SWAP3 DUP5 DUP9 PUSH2 0x1FAC JUMP JUMPDEST PUSH1 0x40 MLOAD PUSH3 0x461BCD PUSH1 0xE5 SHL DUP2 MSTORE PUSH1 0x4 DUP2 ADD DUP6 SWAP1 MSTORE PUSH1 0x22 PUSH1 0x24 DUP3 ADD MSTORE PUSH32 0x4F6666736574206578636565647320656E74697479207265636F726420636F75 PUSH1 0x44 DUP3 ADD MSTORE PUSH2 0x1B9D PUSH1 0xF2 SHL PUSH1 0x64 DUP3 ADD MSTORE PUSH1 0x84 SWAP1 REVERT JUMPDEST DUP1 PUSH1 0x0 MSTORE DUP8 DUP6 MSTORE DUP3 DUP10 DUP10 PUSH1 0x40 PUSH1 0x0 KECCAK256 ADD SLOAD AND EQ PUSH2 0x214B JUMPI JUMPDEST PUSH2 0x2146 SWAP1 PUSH2 0x3534 JUMP JUMPDEST PUSH2 0x1F7D JUMP JUMPDEST SWAP1 PUSH2 0x2158 PUSH2 0x2146 SWAP2 PUSH2 0x3534 JUMP JUMPDEST SWAP2 SWAP1 POP PUSH2 0x213D JUMP JUMPDEST CALLVALUE PUSH2 0x21E JUMPI PUSH1 0x20 CALLDATASIZE PUSH1 0x3 NOT ADD SLT PUSH2 0x21E JUMPI PUSH2 0x495 PUSH2 0x2193 PUSH2 0x4B2 PUSH1 0x4 CALLDATALOAD PUSH2 0x2185 PUSH2 0x382D JUMP JUMPDEST POP PUSH2 0x4AD PUSH1 0x7 SLOAD DUP3 LT PUSH2 0x37A0 JUMP JUMPDEST PUSH1 0x40 MLOAD SWAP2 DUP3 SWAP2 PUSH1 0x20 DUP4 MSTORE PUSH1 0x20 DUP4 ADD SWAP1 PUSH2 0x30D6 JUMP JUMPDEST CALLVALUE PUSH2 0x21E JUMPI PUSH1 0x0 CALLDATASIZE PUSH1 0x3 NOT ADD SLT PUSH2 0x21E JUMPI PUSH1 0x20 PUSH1 0x8 SLOAD PUSH1 0x40 MLOAD SWAP1 DUP2 MSTORE RETURN JUMPDEST CALLVALUE PUSH2 0x21E JUMPI PUSH1 0x20 DUP1 PUSH1 0x3 NOT CALLDATASIZE ADD SLT PUSH2 0x21E JUMPI PUSH1 0x4 CALLDATALOAD PUSH1 0x0 MSTORE PUSH1 0xB DUP2 MSTORE PUSH1 0x40 PUSH1 0x0 KECCAK256 PUSH1 0x40 MLOAD DUP1 DUP3 DUP5 DUP3 SWAP5 SLOAD SWAP4 DUP5 DUP2 MSTORE ADD SWAP1 PUSH1 0x0 MSTORE DUP5 PUSH1 0x0 KECCAK256 SWAP3 PUSH1 0x0 JUMPDEST DUP7 DUP3 DUP3 LT PUSH2 0x2294 JUMPI DUP5 PUSH2 0x2215 DUP2 DUP7 SUB DUP3 PUSH2 0x2FB9 JUMP JUMPDEST PUSH2 0x221F DUP2 MLOAD PUSH2 0x3A07 JUMP JUMPDEST SWAP2 PUSH1 0x0 JUMPDEST DUP3 MLOAD DUP2 LT ISZERO PUSH2 0x2286 JUMPI DUP1 PUSH2 0x223A PUSH2 0x2281 SWAP3 DUP6 PUSH2 0x36F4 JUMP JUMPDEST MLOAD PUSH1 0x0 MSTORE PUSH1 0x2 DUP1 DUP5 MSTORE PUSH1 0x5 PUSH1 0x40 PUSH1 0x0 KECCAK256 PUSH1 0x40 MLOAD SWAP3 PUSH2 0x2257 DUP5 PUSH2 0x2F82 JUMP JUMPDEST DUP2 SLOAD DUP5 MSTORE PUSH1 0x1 DUP3 ADD SLOAD DUP8 DUP6 ADD MSTORE DUP2 ADD SLOAD PUSH1 0x1 PUSH1 0x1 PUSH1 0xA0 SHL SUB AND PUSH1 0x40 DUP5 ADD MSTORE PUSH2 0x1788 PUSH1 0x3 DUP3 ADD PUSH2 0x32BB JUMP JUMPDEST PUSH2 0x2223 JUMP JUMPDEST PUSH1 0x40 MLOAD DUP1 PUSH2 0x495 DUP7 DUP3 PUSH2 0x3030 JUMP JUMPDEST DUP6 SLOAD DUP5 MSTORE PUSH1 0x1 SWAP6 DUP7 ADD SWAP6 DUP8 SWAP6 POP SWAP4 ADD SWAP3 ADD PUSH2 0x2200 JUMP JUMPDEST CALLVALUE PUSH2 0x21E JUMPI PUSH1 0x40 CALLDATASIZE PUSH1 0x3 NOT ADD SLT PUSH2 0x21E JUMPI PUSH2 0x22C3 PUSH2 0x2E72 JUMP JUMPDEST PUSH1 0x1 PUSH1 0x1 PUSH1 0x40 SHL SUB SWAP1 PUSH1 0x24 CALLDATALOAD DUP3 DUP2 GT PUSH2 0x21E JUMPI PUSH2 0x22E4 SWAP1 CALLDATASIZE SWAP1 PUSH1 0x4 ADD PUSH2 0x2FDA JUMP JUMPDEST SWAP2 PUSH2 0x22FA PUSH1 0x1 DUP1 PUSH1 0xA0 SHL SUB PUSH1 0xD SLOAD AND CALLER EQ PUSH2 0x3483 JUMP JUMPDEST PUSH1 0x1 PUSH1 0x1 PUSH1 0xA0 SHL SUB DUP3 AND ISZERO PUSH2 0x25FD JUMPI DUP3 MLOAD ISZERO PUSH2 0x25B8 JUMPI PUSH1 0x1 PUSH1 0x1 PUSH1 0xA0 SHL SUB DUP3 AND PUSH1 0x0 SWAP1 DUP2 MSTORE PUSH1 0x20 DUP2 SWAP1 MSTORE PUSH1 0x40 SWAP1 KECCAK256 PUSH1 0x1 ADD SLOAD PUSH1 0xFF AND PUSH2 0x2567 JUMPI PUSH1 0x40 MLOAD PUSH2 0x233F DUP2 PUSH2 0x2F67 JUMP JUMPDEST DUP4 DUP2 MSTORE PUSH1 0x1 PUSH1 0x20 DUP3 ADD MSTORE PUSH1 0x0 PUSH1 0x40 DUP3 ADD MSTORE PUSH1 0x0 PUSH1 0x60 DUP3 ADD MSTORE PUSH1 0x0 PUSH1 0x80 DUP3 ADD MSTORE PUSH1 0x0 PUSH1 0xA0 DUP3 ADD MSTORE PUSH1 0x0 PUSH1 0xC0 DUP3 ADD MSTORE PUSH1 0x1 DUP1 PUSH1 0xA0 SHL SUB DUP4 AND PUSH1 0x0 MSTORE PUSH1 0x0 PUSH1 0x20 MSTORE PUSH1 0x40 PUSH1 0x0 KECCAK256 SWAP2 DUP2 MLOAD DUP1 MLOAD SWAP2 DUP3 GT PUSH2 0x8AE JUMPI PUSH2 0x2398 DUP5 SLOAD PUSH2 0x3281 JUMP JUMPDEST PUSH1 0x1F DUP2 GT PUSH2 0x2523 JUMPI JUMPDEST POP PUSH1 0x20 SWAP1 PUSH1 0x1F DUP4 GT PUSH1 0x1 EQ PUSH2 0x24B4 JUMPI SWAP2 DUP1 PUSH1 0x6 SWAP5 SWAP3 PUSH1 0xC0 SWAP5 PUSH1 0x0 SWAP3 PUSH2 0x24A9 JUMPI JUMPDEST POP POP DUP2 PUSH1 0x1 SHL SWAP2 PUSH1 0x0 NOT SWAP1 PUSH1 0x3 SHL SHR NOT AND OR DUP5 SSTORE JUMPDEST PUSH2 0x23F5 PUSH1 0x20 DUP3 ADD MLOAD ISZERO ISZERO PUSH1 0x1 DUP7 ADD SWAP1 PUSH1 0xFF DUP1 NOT DUP4 SLOAD AND SWAP2 ISZERO ISZERO AND OR SWAP1 SSTORE JUMP JUMPDEST PUSH1 0x40 DUP2 ADD MLOAD PUSH1 0x2 DUP6 ADD SSTORE PUSH1 0x60 DUP2 ADD MLOAD PUSH1 0x3 DUP6 ADD SSTORE PUSH1 0x80 DUP2 ADD MLOAD PUSH1 0x4 DUP6 ADD SSTORE PUSH1 0xA0 DUP2 ADD MLOAD PUSH1 0x5 DUP6 ADD SSTORE ADD MLOAD SWAP2 ADD SSTORE PUSH1 0x5 SLOAD PUSH1 0x1 PUSH1 0x40 SHL DUP2 LT ISZERO PUSH2 0x8AE JUMPI PUSH32 0x1B7E3D9F922BE54960CE9BEA1D47B9B6EA18BBAFB4E0FDEEDC5E2A668E8FDAF8 SWAP2 PUSH2 0x2466 DUP3 PUSH1 0x1 PUSH2 0x24A4 SWAP5 ADD PUSH1 0x5 SSTORE PUSH2 0x3434 JUMP JUMPDEST DUP2 SLOAD SWAP1 PUSH1 0x3 SHL SWAP1 PUSH1 0x1 DUP1 PUSH1 0xA0 SHL SUB DUP5 AND DUP3 SHL SWAP2 PUSH1 0x1 DUP1 PUSH1 0xA0 SHL SUB SWAP1 SHL NOT AND OR SWAP1 SSTORE PUSH1 0x40 MLOAD SWAP2 DUP3 SWAP2 PUSH1 0x20 DUP4 MSTORE PUSH1 0x1 DUP1 PUSH1 0xA0 SHL SUB AND SWAP5 PUSH1 0x20 DUP4 ADD SWAP1 PUSH2 0x2F0C JUMP JUMPDEST SUB SWAP1 LOG2 STOP JUMPDEST ADD MLOAD SWAP1 POP DUP9 DUP1 PUSH2 0x23C1 JUMP JUMPDEST SWAP1 DUP5 PUSH1 0x0 MSTORE PUSH1 0x20 PUSH1 0x0 KECCAK256 SWAP2 PUSH1 0x0 JUMPDEST PUSH1 0x1F NOT DUP6 AND DUP2 LT PUSH2 0x250B JUMPI POP SWAP3 PUSH1 0x6 SWAP5 SWAP3 PUSH1 0x1 SWAP3 PUSH1 0xC0 SWAP6 DUP4 PUSH1 0x1F NOT DUP2 AND LT PUSH2 0x24F2 JUMPI JUMPDEST POP POP POP DUP2 SHL ADD DUP5 SSTORE PUSH2 0x23D6 JUMP JUMPDEST ADD MLOAD PUSH1 0x0 NOT PUSH1 0xF8 DUP5 PUSH1 0x3 SHL AND SHR NOT AND SWAP1 SSTORE DUP9 DUP1 DUP1 PUSH2 0x24E5 JUMP JUMPDEST SWAP2 SWAP3 PUSH1 0x20 PUSH1 0x1 DUP2 SWAP3 DUP7 DUP6 ADD MLOAD DUP2 SSTORE ADD SWAP5 ADD SWAP3 ADD PUSH2 0x24C2 JUMP JUMPDEST DUP5 PUSH1 0x0 MSTORE PUSH1 0x20 PUSH1 0x0 KECCAK256 PUSH1 0x1F DUP5 ADD PUSH1 0x5 SHR DUP2 ADD PUSH1 0x20 DUP6 LT PUSH2 0x2560 JUMPI JUMPDEST PUSH1 0x1F DUP4 ADD PUSH1 0x5 SHR DUP3 ADD DUP2 LT PUSH2 0x2554 JUMPI POP POP PUSH2 0x23A1 JUMP JUMPDEST PUSH1 0x0 DUP2 SSTORE PUSH1 0x1 ADD PUSH2 0x253E JUMP JUMPDEST POP DUP1 PUSH2 0x253E JUMP JUMPDEST PUSH1 0x40 MLOAD PUSH3 0x461BCD PUSH1 0xE5 SHL DUP2 MSTORE PUSH1 0x20 PUSH1 0x4 DUP3 ADD MSTORE PUSH1 0x24 DUP1 DUP3 ADD MSTORE PUSH32 0x456E7469747920616C7265616479207265676973746572656420616E64206163 PUSH1 0x44 DUP3 ADD MSTORE PUSH4 0x74697665 PUSH1 0xE0 SHL PUSH1 0x64 DUP3 ADD MSTORE PUSH1 0x84 SWAP1 REVERT JUMPDEST PUSH1 0x40 MLOAD PUSH3 0x461BCD PUSH1 0xE5 SHL DUP2 MSTORE PUSH1 0x20 PUSH1 0x4 DUP3 ADD MSTORE PUSH1 0x1B PUSH1 0x24 DUP3 ADD MSTORE PUSH32 0x456E74697479206E616D652063616E6E6F7420626520656D7074790000000000 PUSH1 0x44 DUP3 ADD MSTORE PUSH1 0x64 SWAP1 REVERT JUMPDEST PUSH1 0x40 MLOAD PUSH3 0x461BCD PUSH1 0xE5 SHL DUP2 MSTORE PUSH1 0x20 PUSH1 0x4 DUP3 ADD MSTORE PUSH1 0x1D PUSH1 0x24 DUP3 ADD MSTORE PUSH32 0x456E7469747920616464726573732063616E6E6F74206265207A65726F000000 PUSH1 0x44 DUP3 ADD MSTORE PUSH1 0x64 SWAP1 REVERT JUMPDEST CALLVALUE PUSH2 0x21E JUMPI PUSH1 0x60 CALLDATASIZE PUSH1 0x3 NOT ADD SLT PUSH2 0x21E JUMPI PUSH1 0x1 PUSH1 0x1 PUSH1 0x40 SHL SUB PUSH1 0x24 CALLDATALOAD DUP2 DUP2 GT PUSH2 0x21E JUMPI PUSH2 0x2673 SWAP1 CALLDATASIZE SWAP1 PUSH1 0x4 ADD PUSH2 0x2FDA JUMP JUMPDEST SWAP1 CALLER PUSH1 0x0 MSTORE PUSH1 0x0 PUSH1 0x20 MSTORE PUSH2 0x2691 PUSH1 0xFF PUSH1 0x1 PUSH1 0x40 PUSH1 0x0 KECCAK256 ADD SLOAD AND PUSH2 0x3543 JUMP JUMPDEST PUSH1 0x4 CALLDATALOAD PUSH1 0x0 MSTORE PUSH1 0x1 PUSH1 0x20 MSTORE PUSH1 0x1 DUP1 PUSH1 0xA0 SHL SUB SWAP1 CALLER DUP3 PUSH1 0x1 PUSH1 0x40 PUSH1 0x0 KECCAK256 ADD SLOAD AND SUB PUSH2 0x29C7 JUMPI PUSH2 0x26C2 PUSH1 0x44 CALLDATALOAD ISZERO ISZERO PUSH2 0x3754 JUMP JUMPDEST DUP3 MLOAD ISZERO PUSH2 0x2982 JUMPI CALLER PUSH1 0x0 MSTORE PUSH1 0x0 PUSH1 0x20 MSTORE PUSH1 0x44 CALLDATALOAD PUSH1 0x3 PUSH1 0x40 PUSH1 0x0 KECCAK256 ADD SLOAD LT PUSH2 0x293E JUMPI CALLER PUSH1 0x0 MSTORE PUSH1 0x0 PUSH1 0x20 MSTORE PUSH1 0x3 PUSH1 0x40 PUSH1 0x0 KECCAK256 ADD PUSH2 0x2701 PUSH1 0x44 CALLDATALOAD DUP3 SLOAD PUSH2 0x3601 JUMP JUMPDEST SWAP1 SSTORE PUSH2 0x270E PUSH1 0xA SLOAD PUSH2 0x3534 JUMP JUMPDEST SWAP1 DUP2 PUSH1 0xA SSTORE PUSH1 0x40 MLOAD SWAP2 PUSH2 0x2720 DUP4 PUSH2 0x2F82 JUMP JUMPDEST DUP1 DUP4 MSTORE PUSH1 0x20 DUP4 ADD SWAP4 PUSH1 0x4 CALLDATALOAD DUP6 MSTORE PUSH1 0x40 DUP5 ADD SWAP1 CALLER DUP3 MSTORE PUSH1 0x60 DUP6 ADD SWAP3 DUP8 DUP5 MSTORE PUSH1 0x44 CALLDATALOAD PUSH1 0x80 DUP8 ADD MSTORE TIMESTAMP PUSH1 0xA0 DUP8 ADD MSTORE PUSH1 0x0 MSTORE PUSH1 0x2 PUSH1 0x20 MSTORE PUSH1 0x40 PUSH1 0x0 KECCAK256 SWAP6 DUP6 MLOAD DUP8 SSTORE MLOAD PUSH1 0x1 DUP8 ADD SSTORE PUSH1 0x2 DUP7 ADD SWAP2 MLOAD AND PUSH1 0x1 PUSH1 0x1 PUSH1 0x60 SHL SUB PUSH1 0xA0 SHL DUP3 SLOAD AND OR SWAP1 SSTORE MLOAD DUP1 MLOAD SWAP2 DUP3 GT PUSH2 0x8AE JUMPI PUSH2 0x2792 PUSH1 0x3 DUP6 ADD SLOAD PUSH2 0x3281 JUMP JUMPDEST PUSH1 0x1F DUP2 GT PUSH2 0x28F7 JUMPI JUMPDEST POP PUSH1 0x20 SWAP1 PUSH1 0x1F DUP4 GT PUSH1 0x1 EQ PUSH2 0x2882 JUMPI SWAP2 DUP1 PUSH1 0x5 SWAP5 SWAP3 PUSH1 0xA0 SWAP5 PUSH1 0x0 SWAP3 PUSH2 0x2877 JUMPI JUMPDEST POP POP DUP2 PUSH1 0x1 SHL SWAP2 PUSH1 0x0 NOT SWAP1 PUSH1 0x3 SHL SHR NOT AND OR PUSH1 0x3 DUP6 ADD SSTORE JUMPDEST PUSH1 0x80 DUP2 ADD MLOAD PUSH1 0x4 DUP6 ADD SSTORE ADD MLOAD SWAP2 ADD SSTORE PUSH1 0x4 CALLDATALOAD PUSH1 0x0 MSTORE PUSH1 0xB PUSH1 0x20 MSTORE PUSH1 0x40 PUSH1 0x0 KECCAK256 PUSH1 0xA SLOAD SWAP1 DUP1 SLOAD PUSH1 0x1 PUSH1 0x40 SHL DUP2 LT ISZERO PUSH2 0x8AE JUMPI PUSH2 0x2813 SWAP2 PUSH1 0x1 DUP3 ADD DUP2 SSTORE PUSH2 0x346B JUMP JUMPDEST DUP2 SWAP3 SWAP2 SLOAD SWAP1 PUSH1 0x3 SHL SWAP2 DUP3 SHL SWAP2 PUSH1 0x0 NOT SWAP1 SHL NOT AND OR SWAP1 SSTORE PUSH1 0xA SLOAD PUSH2 0x2841 PUSH1 0x40 MLOAD SWAP3 PUSH1 0x40 DUP5 MSTORE PUSH1 0x40 DUP5 ADD SWAP1 PUSH2 0x2F0C JUMP JUMPDEST SWAP1 PUSH1 0x44 CALLDATALOAD PUSH1 0x20 DUP5 ADD MSTORE PUSH32 0x6A6B3E9A68B09E7E4EFA25D186C63204B5CEB3777D516EB58090AFF71935DBC1 CALLER SWAP4 DUP1 PUSH1 0x4 CALLDATALOAD SWAP5 SUB SWAP1 LOG4 STOP JUMPDEST ADD MLOAD SWAP1 POP DUP8 DUP1 PUSH2 0x27BB JUMP JUMPDEST SWAP1 PUSH1 0x3 DUP6 ADD PUSH1 0x0 MSTORE PUSH1 0x20 PUSH1 0x0 KECCAK256 SWAP2 PUSH1 0x0 JUMPDEST PUSH1 0x1F NOT DUP6 AND DUP2 LT PUSH2 0x28DF JUMPI POP SWAP3 PUSH1 0x5 SWAP5 SWAP3 PUSH1 0x1 SWAP3 PUSH1 0xA0 SWAP6 DUP4 PUSH1 0x1F NOT DUP2 AND LT PUSH2 0x28C6 JUMPI JUMPDEST POP POP POP DUP2 SHL ADD PUSH1 0x3 DUP6 ADD SSTORE PUSH2 0x27D3 JUMP JUMPDEST ADD MLOAD PUSH1 0x0 NOT PUSH1 0xF8 DUP5 PUSH1 0x3 SHL AND SHR NOT AND SWAP1 SSTORE DUP8 DUP1 DUP1 PUSH2 0x28B6 JUMP JUMPDEST SWAP2 SWAP3 PUSH1 0x20 PUSH1 0x1 DUP2 SWAP3 DUP7 DUP6 ADD MLOAD DUP2 SSTORE ADD SWAP5 ADD SWAP3 ADD PUSH2 0x2893 JUMP JUMPDEST PUSH1 0x3 DUP6 ADD PUSH1 0x0 MSTORE PUSH1 0x20 PUSH1 0x0 KECCAK256 PUSH1 0x1F DUP5 ADD PUSH1 0x5 SHR DUP2 ADD PUSH1 0x20 DUP6 LT PUSH2 0x2937 JUMPI JUMPDEST PUSH1 0x1F DUP4 ADD PUSH1 0x5 SHR DUP3 ADD DUP2 LT PUSH2 0x292B JUMPI POP POP PUSH2 0x279B JUMP JUMPDEST PUSH1 0x0 DUP2 SSTORE PUSH1 0x1 ADD PUSH2 0x2915 JUMP JUMPDEST POP DUP1 PUSH2 0x2915 JUMP JUMPDEST PUSH1 0x64 PUSH1 0x40 MLOAD PUSH3 0x461BCD PUSH1 0xE5 SHL DUP2 MSTORE PUSH1 0x20 PUSH1 0x4 DUP3 ADD MSTORE PUSH1 0x20 PUSH1 0x24 DUP3 ADD MSTORE PUSH32 0x496E73756666696369656E74206E656564546F5370656E642062616C616E6365 PUSH1 0x44 DUP3 ADD MSTORE REVERT JUMPDEST PUSH1 0x40 MLOAD PUSH3 0x461BCD PUSH1 0xE5 SHL DUP2 MSTORE PUSH1 0x20 PUSH1 0x4 DUP3 ADD MSTORE PUSH1 0x1B PUSH1 0x24 DUP3 ADD MSTORE PUSH32 0x4465736372697074696F6E2063616E6E6F7420626520656D7074790000000000 PUSH1 0x44 DUP3 ADD MSTORE PUSH1 0x64 SWAP1 REVERT JUMPDEST PUSH1 0x84 PUSH1 0x40 MLOAD PUSH3 0x461BCD PUSH1 0xE5 SHL DUP2 MSTORE PUSH1 0x20 PUSH1 0x4 DUP3 ADD MSTORE PUSH1 0x40 PUSH1 0x24 DUP3 ADD MSTORE PUSH32 0x4E6F7420617574686F72697A656420746F20616464206D6963726F2D7472616E PUSH1 0x44 DUP3 ADD MSTORE PUSH32 0x73616374696F6E7320746F2074686973207370656E64696E67207265636F7264 PUSH1 0x64 DUP3 ADD MSTORE REVERT JUMPDEST CALLVALUE PUSH2 0x21E JUMPI PUSH1 0x20 CALLDATASIZE PUSH1 0x3 NOT ADD SLT PUSH2 0x21E JUMPI PUSH1 0x4 CALLDATALOAD PUSH1 0x0 MSTORE PUSH1 0x3 PUSH1 0x20 MSTORE PUSH1 0x80 PUSH1 0x40 PUSH1 0x0 KECCAK256 DUP1 SLOAD SWAP1 PUSH1 0x1 DUP1 PUSH1 0xA0 SHL SUB PUSH1 0x1 DUP3 ADD SLOAD AND SWAP1 PUSH1 0x3 PUSH1 0x2 DUP3 ADD SLOAD SWAP2 ADD SLOAD SWAP2 PUSH1 0x40 MLOAD SWAP4 DUP5 MSTORE PUSH1 0x20 DUP5 ADD MSTORE PUSH1 0x40 DUP4 ADD MSTORE PUSH1 0x60 DUP3 ADD MSTORE RETURN JUMPDEST CALLVALUE PUSH2 0x21E JUMPI PUSH1 0x20 CALLDATASIZE PUSH1 0x3 NOT ADD SLT PUSH2 0x21E JUMPI PUSH1 0x1 PUSH1 0x1 PUSH1 0xA0 SHL SUB PUSH2 0x2AA8 PUSH2 0x2E72 JUMP JUMPDEST AND DUP1 PUSH1 0x0 MSTORE PUSH1 0x0 PUSH1 0x20 MSTORE PUSH2 0x2ACE PUSH1 0xFF PUSH1 0x1 PUSH1 0x40 PUSH1 0x0 KECCAK256 ADD SLOAD AND DUP1 ISZERO DUP1 PUSH2 0x1891 JUMPI POP PUSH2 0x3708 JUMP JUMPDEST PUSH1 0x0 MSTORE PUSH1 0x0 PUSH1 0x20 MSTORE PUSH2 0x2B51 PUSH1 0x40 PUSH1 0x0 KECCAK256 PUSH1 0x40 MLOAD PUSH2 0x2AEA DUP2 PUSH2 0x2F67 JUMP JUMPDEST PUSH2 0x2AF3 DUP3 PUSH2 0x32BB JUMP JUMPDEST SWAP2 DUP3 DUP3 MSTORE PUSH1 0xFF PUSH1 0x1 DUP3 ADD SLOAD AND ISZERO ISZERO SWAP2 DUP3 PUSH1 0x20 DUP3 ADD MSTORE PUSH1 0x2 DUP3 ADD SLOAD SWAP1 DUP2 PUSH1 0x40 DUP3 ADD MSTORE PUSH1 0xC0 PUSH1 0x6 PUSH1 0x3 DUP6 ADD SLOAD SWAP5 DUP6 PUSH1 0x60 DUP6 ADD MSTORE PUSH1 0x4 DUP2 ADD SLOAD PUSH1 0x80 DUP6 ADD MSTORE PUSH1 0x5 DUP2 ADD SLOAD PUSH1 0xA0 DUP6 ADD MSTORE ADD SLOAD SWAP2 ADD MSTORE PUSH1 0x40 MLOAD SWAP5 DUP6 SWAP5 PUSH1 0x80 DUP7 MSTORE PUSH1 0x80 DUP7 ADD SWAP1 PUSH2 0x2F0C JUMP JUMPDEST SWAP3 PUSH1 0x20 DUP6 ADD MSTORE PUSH1 0x40 DUP5 ADD MSTORE PUSH1 0x60 DUP4 ADD MSTORE SUB SWAP1 RETURN JUMPDEST CALLVALUE PUSH2 0x21E JUMPI PUSH1 0x20 CALLDATASIZE PUSH1 0x3 NOT ADD SLT PUSH2 0x21E JUMPI PUSH1 0x4 CALLDATALOAD PUSH2 0x2B81 PUSH2 0x3934 JUMP JUMPDEST POP DUP1 ISZERO ISZERO DUP1 PUSH2 0x2C41 JUMPI JUMPDEST ISZERO PUSH2 0x2C0A JUMPI PUSH1 0x0 MSTORE PUSH1 0x3 PUSH1 0x20 MSTORE PUSH1 0x80 PUSH1 0x40 PUSH1 0x0 KECCAK256 PUSH1 0x3 PUSH1 0x40 MLOAD SWAP2 PUSH2 0x2BAE DUP4 PUSH2 0x2F4C JUMP JUMPDEST DUP1 SLOAD DUP4 MSTORE PUSH1 0x1 DUP1 PUSH1 0xA0 SHL SUB PUSH1 0x1 DUP3 ADD SLOAD AND PUSH1 0x20 DUP5 ADD MSTORE PUSH1 0x2 DUP2 ADD SLOAD PUSH1 0x40 DUP5 ADD MSTORE ADD SLOAD PUSH1 0x60 DUP3 ADD MSTORE PUSH2 0x2C08 PUSH1 0x40 MLOAD DUP1 SWAP3 PUSH1 0x60 DUP1 SWAP2 DUP1 MLOAD DUP5 MSTORE PUSH1 0x1 DUP1 PUSH1 0xA0 SHL SUB PUSH1 0x20 DUP3 ADD MLOAD AND PUSH1 0x20 DUP6 ADD MSTORE PUSH1 0x40 DUP2 ADD MLOAD PUSH1 0x40 DUP6 ADD MSTORE ADD MLOAD SWAP2 ADD MSTORE JUMP JUMPDEST RETURN JUMPDEST PUSH1 0x40 MLOAD PUSH3 0x461BCD PUSH1 0xE5 SHL DUP2 MSTORE PUSH1 0x20 PUSH1 0x4 DUP3 ADD MSTORE PUSH1 0xF PUSH1 0x24 DUP3 ADD MSTORE PUSH15 0x125B9D985B1A5908199D5B99081251 PUSH1 0x8A SHL PUSH1 0x44 DUP3 ADD MSTORE PUSH1 0x64 SWAP1 REVERT JUMPDEST POP PUSH1 0x8 SLOAD DUP2 GT ISZERO PUSH2 0x2B8B JUMP JUMPDEST CALLVALUE PUSH2 0x21E JUMPI PUSH1 0x20 CALLDATASIZE PUSH1 0x3 NOT ADD SLT PUSH2 0x21E JUMPI PUSH1 0x4 CALLDATALOAD PUSH1 0x1 DUP1 PUSH1 0xA0 SHL SUB PUSH2 0x2C77 DUP2 PUSH1 0xD SLOAD AND CALLER EQ PUSH2 0x3483 JUMP JUMPDEST PUSH2 0x2C84 PUSH1 0x7 SLOAD DUP4 LT PUSH2 0x37A0 JUMP JUMPDEST PUSH2 0x2C8D DUP3 PUSH2 0x3230 JUMP JUMPDEST POP PUSH1 0x6 DUP2 ADD PUSH1 0x1 DUP2 SLOAD PUSH1 0xFF DUP2 AND ISZERO DUP1 PUSH2 0x2D06 JUMPI JUMPDEST PUSH2 0x2CAA SWAP1 PUSH2 0x37E1 JUMP JUMPDEST PUSH1 0xFF NOT AND OR SWAP1 SSTORE PUSH1 0x1 PUSH1 0x2 DUP3 ADD SLOAD SWAP2 ADD SWAP1 DUP3 DUP3 SLOAD AND PUSH1 0x0 MSTORE PUSH1 0x0 PUSH1 0x20 MSTORE PUSH2 0x2CDA PUSH1 0x2 PUSH1 0x40 PUSH1 0x0 KECCAK256 ADD SWAP2 DUP3 SLOAD PUSH2 0x3527 JUMP JUMPDEST SWAP1 SSTORE SLOAD AND SWAP1 PUSH32 0x2F14CF4EE725545BFE00E4128E96A1C8143718C3738CB5395484377EA6743630 PUSH1 0x0 DUP1 LOG3 STOP JUMPDEST POP PUSH1 0x8 DUP2 SWAP1 SHR PUSH1 0xFF AND ISZERO PUSH2 0x2CA1 JUMP JUMPDEST CALLVALUE PUSH2 0x21E JUMPI PUSH2 0x2D23 CALLDATASIZE PUSH2 0x2E88 JUMP JUMPDEST PUSH1 0x8 SLOAD DUP1 DUP4 LT ISZERO PUSH2 0x2DED JUMPI DUP3 SWAP1 PUSH2 0x2D3B DUP4 ISZERO ISZERO PUSH2 0x3641 JUMP JUMPDEST DUP1 PUSH2 0x2D46 DUP5 DUP5 PUSH2 0x3527 JUMP JUMPDEST GT PUSH2 0x2DDC JUMPI JUMPDEST POP POP PUSH2 0x2D57 DUP2 PUSH2 0x3959 JUMP JUMPDEST SWAP2 PUSH1 0x0 JUMPDEST DUP3 DUP2 LT PUSH2 0x2D70 JUMPI PUSH1 0x40 MLOAD DUP1 PUSH2 0x495 DUP7 DUP3 PUSH2 0x2E9E JUMP JUMPDEST PUSH2 0x2D7A DUP2 DUP4 PUSH2 0x3527 JUMP JUMPDEST SWAP1 PUSH1 0x1 DUP1 DUP4 ADD DUP1 SWAP4 GT PUSH2 0x1485 JUMPI PUSH2 0x2DD7 SWAP3 PUSH1 0x0 MSTORE PUSH1 0x3 PUSH1 0x20 DUP2 DUP2 MSTORE PUSH1 0x40 PUSH1 0x0 KECCAK256 SWAP1 PUSH1 0x40 MLOAD SWAP4 PUSH2 0x2DA8 DUP6 PUSH2 0x2F4C JUMP JUMPDEST DUP3 SLOAD DUP6 MSTORE DUP3 ADD SLOAD PUSH1 0x1 PUSH1 0x1 PUSH1 0xA0 SHL SUB AND SWAP1 DUP5 ADD MSTORE PUSH1 0x2 DUP2 ADD SLOAD PUSH1 0x40 DUP5 ADD MSTORE ADD SLOAD PUSH1 0x60 DUP3 ADD MSTORE PUSH2 0x4C2 DUP3 DUP8 PUSH2 0x36F4 JUMP JUMPDEST PUSH2 0x2D5B JUMP JUMPDEST PUSH2 0x2DE6 SWAP3 POP PUSH2 0x3601 JUMP JUMPDEST DUP2 DUP4 PUSH2 0x2D4C JUMP JUMPDEST PUSH1 0x64 PUSH1 0x40 MLOAD PUSH3 0x461BCD PUSH1 0xE5 SHL DUP2 MSTORE PUSH1 0x20 PUSH1 0x4 DUP3 ADD MSTORE PUSH1 0x20 PUSH1 0x24 DUP3 ADD MSTORE PUSH32 0x4F66667365742065786365656473206973737565642066756E6420636F756E74 PUSH1 0x44 DUP3 ADD MSTORE REVERT JUMPDEST CALLVALUE PUSH2 0x21E JUMPI PUSH1 0x0 CALLDATASIZE PUSH1 0x3 NOT ADD SLT PUSH2 0x21E JUMPI PUSH1 0x20 PUSH1 0x40 MLOAD PUSH3 0x15180 DUP2 MSTORE RETURN JUMPDEST CALLVALUE PUSH2 0x21E JUMPI PUSH1 0x0 CALLDATASIZE PUSH1 0x3 NOT ADD SLT PUSH2 0x21E JUMPI PUSH1 0x20 PUSH2 0x2E6A PUSH2 0x39DB JUMP JUMPDEST PUSH1 0x40 MLOAD SWAP1 DUP2 MSTORE RETURN JUMPDEST PUSH1 0x4 CALLDATALOAD SWAP1 PUSH1 0x1 PUSH1 0x1 PUSH1 0xA0 SHL SUB DUP3 AND DUP3 SUB PUSH2 0x21E JUMPI JUMP JUMPDEST PUSH1 0x40 SWAP1 PUSH1 0x3 NOT ADD SLT PUSH2 0x21E JUMPI PUSH1 0x4 CALLDATALOAD SWAP1 PUSH1 0x24 CALLDATALOAD SWAP1 JUMP JUMPDEST PUSH1 0x20 SWAP1 DUP2 PUSH1 0x40 DUP2 DUP4 ADD SWAP3 DUP3 DUP2 MSTORE DUP6 MLOAD DUP1 SWAP5 MSTORE ADD SWAP4 ADD SWAP2 PUSH1 0x0 JUMPDEST DUP3 DUP2 LT PUSH2 0x2EC5 JUMPI POP POP POP POP SWAP1 JUMP JUMPDEST SWAP1 SWAP2 SWAP3 SWAP4 DUP3 PUSH1 0x80 DUP3 PUSH2 0x2F00 PUSH1 0x1 SWAP5 DUP10 MLOAD PUSH1 0x60 DUP1 SWAP2 DUP1 MLOAD DUP5 MSTORE PUSH1 0x1 DUP1 PUSH1 0xA0 SHL SUB PUSH1 0x20 DUP3 ADD MLOAD AND PUSH1 0x20 DUP6 ADD MSTORE PUSH1 0x40 DUP2 ADD MLOAD PUSH1 0x40 DUP6 ADD MSTORE ADD MLOAD SWAP2 ADD MSTORE JUMP JUMPDEST ADD SWAP6 ADD SWAP4 SWAP3 SWAP2 ADD PUSH2 0x2EB7 JUMP JUMPDEST SWAP2 SWAP1 DUP3 MLOAD SWAP3 DUP4 DUP3 MSTORE PUSH1 0x0 JUMPDEST DUP5 DUP2 LT PUSH2 0x2F38 JUMPI POP POP DUP3 PUSH1 0x0 PUSH1 0x20 DUP1 SWAP5 SWAP6 DUP5 ADD ADD MSTORE PUSH1 0x1F DUP1 NOT SWAP2 ADD AND ADD ADD SWAP1 JUMP JUMPDEST PUSH1 0x20 DUP2 DUP4 ADD DUP2 ADD MLOAD DUP5 DUP4 ADD DUP3 ADD MSTORE ADD PUSH2 0x2F17 JUMP JUMPDEST PUSH1 0x80 DUP2 ADD SWAP1 DUP2 LT PUSH1 0x1 PUSH1 0x1 PUSH1 0x40 SHL SUB DUP3 GT OR PUSH2 0x8AE JUMPI PUSH1 0x40 MSTORE JUMP JUMPDEST PUSH1 0xE0 DUP2 ADD SWAP1 DUP2 LT PUSH1 0x1 PUSH1 0x1 PUSH1 0x40 SHL SUB DUP3 GT OR PUSH2 0x8AE JUMPI PUSH1 0x40 MSTORE JUMP JUMPDEST PUSH1 0xC0 DUP2 ADD SWAP1 DUP2 LT PUSH1 0x1 PUSH1 0x1 PUSH1 0x40 SHL SUB DUP3 GT OR PUSH2 0x8AE JUMPI PUSH1 0x40 MSTORE JUMP JUMPDEST PUSH2 0x100 DUP2 ADD SWAP1 DUP2 LT PUSH1 0x1 PUSH1 0x1 PUSH1 0x40 SHL SUB DUP3 GT OR PUSH2 0x8AE JUMPI PUSH1 0x40 MSTORE JUMP JUMPDEST SWAP1 PUSH1 0x1F DUP1 NOT SWAP2 ADD AND DUP2 ADD SWAP1 DUP2 LT PUSH1 0x1 PUSH1 0x1 PUSH1 0x40 SHL SUB DUP3 GT OR PUSH2 0x8AE JUMPI PUSH1 0x40 MSTORE JUMP JUMPDEST DUP2 PUSH1 0x1F DUP3 ADD SLT ISZERO PUSH2 0x21E JUMPI DUP1 CALLDATALOAD SWAP1 PUSH1 0x1 PUSH1 0x1 PUSH1 0x40 SHL SUB DUP3 GT PUSH2 0x8AE JUMPI PUSH1 0x40 MLOAD SWAP3 PUSH2 0x300E PUSH1 0x1F DUP5 ADD PUSH1 0x1F NOT AND PUSH1 0x20 ADD DUP6 PUSH2 0x2FB9 JUMP JUMPDEST DUP3 DUP5 MSTORE PUSH1 0x20 DUP4 DUP4 ADD ADD GT PUSH2 0x21E JUMPI DUP2 PUSH1 0x0 SWAP3 PUSH1 0x20 DUP1 SWAP4 ADD DUP4 DUP7 ADD CALLDATACOPY DUP4 ADD ADD MSTORE SWAP1 JUMP JUMPDEST PUSH1 0x20 DUP1 DUP3 ADD SWAP1 DUP1 DUP4 MSTORE DUP4 MLOAD DUP1 SWAP3 MSTORE PUSH1 0x40 SWAP3 DUP4 DUP2 ADD DUP3 DUP6 DUP6 PUSH1 0x5 SHL DUP5 ADD ADD SWAP7 ADD SWAP5 PUSH1 0x0 SWAP3 JUMPDEST DUP6 DUP5 LT PUSH2 0x3065 JUMPI POP POP POP POP POP POP POP SWAP1 JUMP JUMPDEST SWAP1 SWAP2 SWAP3 SWAP4 SWAP5 SWAP6 SWAP7 DUP6 DUP1 PUSH1 0x1 SWAP3 PUSH1 0x3F NOT DUP6 DUP3 SUB ADD DUP8 MSTORE DUP11 MLOAD SWAP1 DUP2 MLOAD DUP2 MSTORE DUP3 DUP3 ADD MLOAD DUP4 DUP3 ADD MSTORE DUP5 DUP1 PUSH1 0xA0 SHL SUB DUP8 DUP4 ADD MLOAD AND DUP8 DUP3 ADD MSTORE PUSH2 0x30B1 PUSH1 0x60 DUP1 DUP5 ADD MLOAD SWAP1 PUSH1 0xC0 DUP1 SWAP2 DUP6 ADD MSTORE DUP4 ADD SWAP1 PUSH2 0x2F0C JUMP JUMPDEST SWAP2 PUSH1 0x80 DUP1 DUP3 ADD MLOAD SWAP1 DUP4 ADD MSTORE PUSH1 0xA0 DUP1 SWAP2 ADD MLOAD SWAP2 ADD MSTORE SWAP10 ADD SWAP5 ADD SWAP5 ADD SWAP3 SWAP6 SWAP5 SWAP4 SWAP2 SWAP1 PUSH2 0x3054 JUMP JUMPDEST SWAP1 DUP2 MLOAD DUP2 MSTORE PUSH1 0x1 DUP1 PUSH1 0xA0 SHL SUB PUSH1 0x20 DUP4 ADD MLOAD AND PUSH1 0x20 DUP3 ADD MSTORE PUSH1 0x40 DUP3 ADD MLOAD PUSH1 0x40 DUP3 ADD MSTORE PUSH1 0xE0 DUP1 PUSH2 0x3128 PUSH2 0x3116 PUSH1 0x60 DUP7 ADD MLOAD PUSH2 0x100 DUP1 PUSH1 0x60 DUP9 ADD MSTORE DUP7 ADD SWAP1 PUSH2 0x2F0C JUMP JUMPDEST PUSH1 0x80 DUP7 ADD MLOAD DUP6 DUP3 SUB PUSH1 0x80 DUP8 ADD MSTORE PUSH2 0x2F0C JUMP JUMPDEST SWAP4 PUSH1 0xA0 DUP2 ADD MLOAD PUSH1 0xA0 DUP6 ADD MSTORE PUSH1 0xC0 DUP2 ADD MLOAD ISZERO ISZERO PUSH1 0xC0 DUP6 ADD MSTORE ADD MLOAD ISZERO ISZERO SWAP2 ADD MSTORE SWAP1 JUMP JUMPDEST PUSH1 0x60 SWAP1 PUSH1 0x3 NOT ADD SLT PUSH2 0x21E JUMPI PUSH1 0x4 CALLDATALOAD PUSH1 0x1 PUSH1 0x1 PUSH1 0xA0 SHL SUB DUP2 AND DUP2 SUB PUSH2 0x21E JUMPI SWAP1 PUSH1 0x24 CALLDATALOAD SWAP1 PUSH1 0x44 CALLDATALOAD SWAP1 JUMP JUMPDEST SWAP1 DUP2 MLOAD DUP2 MSTORE PUSH1 0x1 DUP1 PUSH1 0xA0 SHL SUB PUSH1 0x20 DUP4 ADD MLOAD AND PUSH1 0x20 DUP3 ADD MSTORE PUSH1 0xA0 DUP1 PUSH2 0x31C5 PUSH2 0x31A9 PUSH1 0x40 DUP7 ADD MLOAD PUSH1 0xC0 PUSH1 0x40 DUP8 ADD MSTORE PUSH1 0xC0 DUP7 ADD SWAP1 PUSH2 0x2F0C JUMP JUMPDEST PUSH1 0x60 DUP7 ADD MLOAD PUSH1 0x60 DUP7 ADD MSTORE PUSH1 0x80 DUP7 ADD MLOAD DUP6 DUP3 SUB PUSH1 0x80 DUP8 ADD MSTORE PUSH2 0x2F0C JUMP JUMPDEST SWAP4 ADD MLOAD SWAP2 ADD MSTORE SWAP1 JUMP JUMPDEST PUSH1 0x20 DUP1 DUP3 ADD SWAP1 DUP1 DUP4 MSTORE DUP4 MLOAD DUP1 SWAP3 MSTORE PUSH1 0x40 DUP4 ADD SWAP3 DUP2 PUSH1 0x40 DUP5 PUSH1 0x5 SHL DUP4 ADD ADD SWAP6 ADD SWAP4 PUSH1 0x0 SWAP2 JUMPDEST DUP5 DUP4 LT PUSH2 0x3202 JUMPI POP POP POP POP POP POP SWAP1 JUMP JUMPDEST SWAP1 SWAP2 SWAP3 SWAP4 SWAP5 SWAP6 DUP5 DUP1 PUSH2 0x3220 PUSH1 0x1 SWAP4 PUSH1 0x3F NOT DUP7 DUP3 SUB ADD DUP8 MSTORE DUP11 MLOAD PUSH2 0x3173 JUMP JUMPDEST SWAP9 ADD SWAP4 ADD SWAP4 ADD SWAP2 SWAP5 SWAP4 SWAP3 SWAP1 PUSH2 0x31F2 JUMP JUMPDEST PUSH1 0xC SLOAD DUP2 LT ISZERO PUSH2 0x326B JUMPI PUSH1 0x7 SWAP1 PUSH1 0xC PUSH1 0x0 MSTORE MUL PUSH32 0xDF6966C971051C3D54EC59162606531493A51404A002842F56009D7E5CF4A8C7 ADD SWAP1 PUSH1 0x0 SWAP1 JUMP JUMPDEST PUSH4 0x4E487B71 PUSH1 0xE0 SHL PUSH1 0x0 MSTORE PUSH1 0x32 PUSH1 0x4 MSTORE PUSH1 0x24 PUSH1 0x0 REVERT JUMPDEST SWAP1 PUSH1 0x1 DUP3 DUP2 SHR SWAP3 AND DUP1 ISZERO PUSH2 0x32B1 JUMPI JUMPDEST PUSH1 0x20 DUP4 LT EQ PUSH2 0x329B JUMPI JUMP JUMPDEST PUSH4 0x4E487B71 PUSH1 0xE0 SHL PUSH1 0x0 MSTORE PUSH1 0x22 PUSH1 0x4 MSTORE PUSH1 0x24 PUSH1 0x0 REVERT JUMPDEST SWAP2 PUSH1 0x7F AND SWAP2 PUSH2 0x3290 JUMP JUMPDEST SWAP1 PUSH1 0x40 MLOAD SWAP2 DUP3 PUSH1 0x0 DUP3 SLOAD SWAP3 PUSH2 0x32CF DUP5 PUSH2 0x3281 JUMP JUMPDEST SWAP1 DUP2 DUP5 MSTORE PUSH1 0x1 SWAP5 DUP6 DUP2 AND SWAP1 DUP2 PUSH1 0x0 EQ PUSH2 0x333E JUMPI POP PUSH1 0x1 EQ PUSH2 0x32FB JUMPI JUMPDEST POP POP PUSH2 0x32F9 SWAP3 POP SUB DUP4 PUSH2 0x2FB9 JUMP JUMPDEST JUMP JUMPDEST SWAP1 SWAP4 SWAP2 POP PUSH1 0x0 MSTORE PUSH1 0x20 SWAP1 DUP2 PUSH1 0x0 KECCAK256 SWAP4 PUSH1 0x0 SWAP2 JUMPDEST DUP2 DUP4 LT PUSH2 0x3326 JUMPI POP POP PUSH2 0x32F9 SWAP4 POP DUP3 ADD ADD CODESIZE DUP1 PUSH2 0x32EB JUMP JUMPDEST DUP6 SLOAD DUP9 DUP5 ADD DUP6 ADD MSTORE SWAP5 DUP6 ADD SWAP5 DUP8 SWAP5 POP SWAP2 DUP4 ADD SWAP2 PUSH2 0x330E JUMP JUMPDEST SWAP2 POP POP PUSH2 0x32F9 SWAP5 POP PUSH1 0x20 SWAP3 POP PUSH1 0xFF NOT AND DUP3 DUP5 ADD MSTORE ISZERO ISZERO PUSH1 0x5 SHL DUP3 ADD ADD CODESIZE DUP1 PUSH2 0x32EB JUMP JUMPDEST PUSH1 0x20 DUP1 DUP3 ADD SWAP1 DUP1 DUP4 MSTORE DUP4 MLOAD DUP1 SWAP3 MSTORE PUSH1 0x40 DUP4 ADD SWAP3 DUP2 PUSH1 0x40 DUP5 PUSH1 0x5 SHL DUP4 ADD ADD SWAP6 ADD SWAP4 PUSH1 0x0 SWAP2 JUMPDEST DUP5 DUP4 LT PUSH2 0x3395 JUMPI POP POP POP POP POP POP SWAP1 JUMP JUMPDEST SWAP1 SWAP2 SWAP3 SWAP4 SWAP5 SWAP6 DUP5 DUP1 PUSH2 0x33B3 PUSH1 0x1 SWAP4 PUSH1 0x3F NOT DUP7 DUP3 SUB ADD DUP8 MSTORE DUP11 MLOAD PUSH2 0x30D6 JUMP JUMPDEST SWAP9 ADD SWAP4 ADD SWAP4 ADD SWAP2 SWAP5 SWAP4 SWAP3 SWAP1 PUSH2 0x3385 JUMP JUMPDEST SWAP1 DUP2 MLOAD DUP1 DUP3 MSTORE PUSH1 0x20 DUP1 DUP1 SWAP4 ADD SWAP4 ADD SWAP2 PUSH1 0x0 JUMPDEST DUP3 DUP2 LT PUSH2 0x33E3 JUMPI POP POP POP POP SWAP1 JUMP JUMPDEST DUP4 MLOAD PUSH1 0x1 PUSH1 0x1 PUSH1 0xA0 SHL SUB AND DUP6 MSTORE SWAP4 DUP2 ADD SWAP4 SWAP3 DUP2 ADD SWAP3 PUSH1 0x1 ADD PUSH2 0x33D5 JUMP JUMPDEST SWAP1 DUP2 MLOAD DUP1 DUP3 MSTORE PUSH1 0x20 DUP1 DUP1 SWAP4 ADD SWAP4 ADD SWAP2 PUSH1 0x0 JUMPDEST DUP3 DUP2 LT PUSH2 0x3420 JUMPI POP POP POP POP SWAP1 JUMP JUMPDEST DUP4 MLOAD DUP6 MSTORE SWAP4 DUP2 ADD SWAP4 SWAP3 DUP2 ADD SWAP3 PUSH1 0x1 ADD PUSH2 0x3412 JUMP JUMPDEST PUSH1 0x5 SLOAD DUP2 LT ISZERO PUSH2 0x326B JUMPI PUSH1 0x5 PUSH1 0x0 MSTORE PUSH32 0x36B6384B5ECA791C62761152D0C79BB0604C104A5FB6F4EB0703F3154BB3DB0 ADD SWAP1 PUSH1 0x0 SWAP1 JUMP JUMPDEST DUP1 SLOAD DUP3 LT ISZERO PUSH2 0x326B JUMPI PUSH1 0x0 MSTORE PUSH1 0x20 PUSH1 0x0 KECCAK256 ADD SWAP1 PUSH1 0x0 SWAP1 JUMP JUMPDEST ISZERO PUSH2 0x348A JUMPI JUMP JUMPDEST PUSH1 0x40 MLOAD PUSH3 0x461BCD PUSH1 0xE5 SHL DUP2 MSTORE PUSH1 0x20 PUSH1 0x4 DUP3 ADD MSTORE PUSH1 0x2F PUSH1 0x24 DUP3 ADD MSTORE PUSH32 0x4F6E6C792063656E7472616C20676F7665726E6D656E742063616E2070657266 PUSH1 0x44 DUP3 ADD MSTORE PUSH15 0x37B936903A3434B99030B1BA34B7B7 PUSH1 0x89 SHL PUSH1 0x64 DUP3 ADD MSTORE PUSH1 0x84 SWAP1 REVERT JUMPDEST ISZERO PUSH2 0x34EE JUMPI JUMP JUMPDEST PUSH1 0x40 MLOAD PUSH3 0x461BCD PUSH1 0xE5 SHL DUP2 MSTORE PUSH1 0x20 PUSH1 0x4 DUP3 ADD MSTORE PUSH1 0x11 PUSH1 0x24 DUP3 ADD MSTORE PUSH17 0x456E74697479206E6F7420616374697665 PUSH1 0x78 SHL PUSH1 0x44 DUP3 ADD MSTORE PUSH1 0x64 SWAP1 REVERT JUMPDEST SWAP2 SWAP1 DUP3 ADD DUP1 SWAP3 GT PUSH2 0x1485 JUMPI JUMP JUMPDEST PUSH1 0x0 NOT DUP2 EQ PUSH2 0x1485 JUMPI PUSH1 0x1 ADD SWAP1 JUMP JUMPDEST ISZERO PUSH2 0x354A JUMPI JUMP JUMPDEST PUSH1 0x40 MLOAD PUSH3 0x461BCD PUSH1 0xE5 SHL DUP2 MSTORE PUSH1 0x20 PUSH1 0x4 DUP3 ADD MSTORE PUSH1 0x37 PUSH1 0x24 DUP3 ADD MSTORE PUSH32 0x4F6E6C7920616374697665207265676973746572656420656E74697469657320 PUSH1 0x44 DUP3 ADD MSTORE PUSH32 0x63616E20706572666F726D207468697320616374696F6E000000000000000000 PUSH1 0x64 DUP3 ADD MSTORE PUSH1 0x84 SWAP1 REVERT JUMPDEST ISZERO PUSH2 0x35BC JUMPI JUMP JUMPDEST PUSH1 0x40 MLOAD PUSH3 0x461BCD PUSH1 0xE5 SHL DUP2 MSTORE PUSH1 0x20 PUSH1 0x4 DUP3 ADD MSTORE PUSH1 0x1D PUSH1 0x24 DUP3 ADD MSTORE PUSH32 0x446F63756D656E7420686173682063616E6E6F7420626520656D707479000000 PUSH1 0x44 DUP3 ADD MSTORE PUSH1 0x64 SWAP1 REVERT JUMPDEST SWAP2 SWAP1 DUP3 SUB SWAP2 DUP3 GT PUSH2 0x1485 JUMPI JUMP JUMPDEST PUSH1 0x40 MLOAD SWAP1 PUSH2 0x361B DUP3 PUSH2 0x2F82 JUMP JUMPDEST PUSH1 0x0 PUSH1 0xA0 DUP4 DUP3 DUP2 MSTORE DUP3 PUSH1 0x20 DUP3 ADD MSTORE PUSH1 0x60 PUSH1 0x40 DUP3 ADD MSTORE DUP3 PUSH1 0x60 DUP3 ADD MSTORE PUSH1 0x60 PUSH1 0x80 DUP3 ADD MSTORE ADD MSTORE JUMP JUMPDEST ISZERO PUSH2 0x3648 JUMPI JUMP JUMPDEST PUSH1 0x40 MLOAD PUSH3 0x461BCD PUSH1 0xE5 SHL DUP2 MSTORE PUSH1 0x20 PUSH1 0x4 DUP3 ADD MSTORE PUSH1 0x1F PUSH1 0x24 DUP3 ADD MSTORE PUSH32 0x4C696D6974206D7573742062652067726561746572207468616E207A65726F00 PUSH1 0x44 DUP3 ADD MSTORE PUSH1 0x64 SWAP1 REVERT JUMPDEST PUSH1 0x1 PUSH1 0x1 PUSH1 0x40 SHL SUB DUP2 GT PUSH2 0x8AE JUMPI PUSH1 0x5 SHL PUSH1 0x20 ADD SWAP1 JUMP JUMPDEST SWAP1 PUSH2 0x36AE DUP3 PUSH2 0x368D JUMP JUMPDEST PUSH2 0x36BB PUSH1 0x40 MLOAD SWAP2 DUP3 PUSH2 0x2FB9 JUMP JUMPDEST DUP3 DUP2 MSTORE DUP1 SWAP3 PUSH2 0x36CC PUSH1 0x1F NOT SWAP2 PUSH2 0x368D JUMP JUMPDEST ADD SWAP1 PUSH1 0x0 JUMPDEST DUP3 DUP2 LT PUSH2 0x36DD JUMPI POP POP POP JUMP JUMPDEST PUSH1 0x20 SWAP1 PUSH2 0x36E8 PUSH2 0x360E JUMP JUMPDEST DUP3 DUP3 DUP6 ADD ADD MSTORE ADD PUSH2 0x36D1 JUMP JUMPDEST DUP1 MLOAD DUP3 LT ISZERO PUSH2 0x326B JUMPI PUSH1 0x20 SWAP2 PUSH1 0x5 SHL ADD ADD SWAP1 JUMP JUMPDEST ISZERO PUSH2 0x370F JUMPI JUMP JUMPDEST PUSH1 0x40 MLOAD PUSH3 0x461BCD PUSH1 0xE5 SHL DUP2 MSTORE PUSH1 0x20 PUSH1 0x4 DUP3 ADD MSTORE PUSH1 0x17 PUSH1 0x24 DUP3 ADD MSTORE PUSH32 0x4E6F742061207265676973746572656420656E74697479000000000000000000 PUSH1 0x44 DUP3 ADD MSTORE PUSH1 0x64 SWAP1 REVERT JUMPDEST ISZERO PUSH2 0x375B JUMPI JUMP JUMPDEST PUSH1 0x40 MLOAD PUSH3 0x461BCD PUSH1 0xE5 SHL DUP2 MSTORE PUSH1 0x20 PUSH1 0x4 DUP3 ADD MSTORE PUSH1 0x1D PUSH1 0x24 DUP3 ADD MSTORE PUSH32 0x416D6F756E74206D7573742062652067726561746572207468616E2030000000 PUSH1 0x44 DUP3 ADD MSTORE PUSH1 0x64 SWAP1 REVERT JUMPDEST ISZERO PUSH2 0x37A7 JUMPI JUMP JUMPDEST PUSH1 0x40 MLOAD PUSH3 0x461BCD PUSH1 0xE5 SHL DUP2 MSTORE PUSH1 0x20 PUSH1 0x4 DUP3 ADD MSTORE PUSH1 0x12 PUSH1 0x24 DUP3 ADD MSTORE PUSH18 0x125B9D985B1A59081C995C5D595CDD081251 PUSH1 0x72 SHL PUSH1 0x44 DUP3 ADD MSTORE PUSH1 0x64 SWAP1 REVERT JUMPDEST ISZERO PUSH2 0x37E8 JUMPI JUMP JUMPDEST PUSH1 0x40 MLOAD PUSH3 0x461BCD PUSH1 0xE5 SHL DUP2 MSTORE PUSH1 0x20 PUSH1 0x4 DUP3 ADD MSTORE PUSH1 0x19 PUSH1 0x24 DUP3 ADD MSTORE PUSH32 0x5265717565737420616C72656164792070726F63657373656400000000000000 PUSH1 0x44 DUP3 ADD MSTORE PUSH1 0x64 SWAP1 REVERT JUMPDEST PUSH1 0x40 MLOAD SWAP1 PUSH2 0x383A DUP3 PUSH2 0x2F9D JUMP JUMPDEST DUP2 PUSH1 0xE0 PUSH1 0x0 SWAP2 DUP3 DUP2 MSTORE DUP3 PUSH1 0x20 DUP3 ADD MSTORE DUP3 PUSH1 0x40 DUP3 ADD MSTORE PUSH1 0x60 DUP1 DUP3 ADD MSTORE PUSH1 0x60 PUSH1 0x80 DUP3 ADD MSTORE DUP3 PUSH1 0xA0 DUP3 ADD MSTORE DUP3 PUSH1 0xC0 DUP3 ADD MSTORE ADD MSTORE JUMP JUMPDEST SWAP1 PUSH1 0x40 MLOAD PUSH2 0x3879 DUP2 PUSH2 0x2F9D JUMP JUMPDEST PUSH1 0xE0 PUSH1 0xFF PUSH1 0x6 DUP4 SWAP6 DUP1 SLOAD DUP6 MSTORE PUSH1 0x1 DUP1 PUSH1 0xA0 SHL SUB PUSH1 0x1 DUP3 ADD SLOAD AND PUSH1 0x20 DUP7 ADD MSTORE PUSH1 0x2 DUP2 ADD SLOAD PUSH1 0x40 DUP7 ADD MSTORE PUSH2 0x38AD PUSH1 0x3 DUP3 ADD PUSH2 0x32BB JUMP JUMPDEST PUSH1 0x60 DUP7 ADD MSTORE PUSH2 0x38BE PUSH1 0x4 DUP3 ADD PUSH2 0x32BB JUMP JUMPDEST PUSH1 0x80 DUP7 ADD MSTORE PUSH1 0x5 DUP2 ADD SLOAD PUSH1 0xA0 DUP7 ADD MSTORE ADD SLOAD DUP2 DUP2 AND ISZERO ISZERO PUSH1 0xC0 DUP6 ADD MSTORE PUSH1 0x8 SHR AND ISZERO ISZERO SWAP2 ADD MSTORE JUMP JUMPDEST SWAP1 PUSH2 0x38EE DUP3 PUSH2 0x368D JUMP JUMPDEST PUSH2 0x38FB PUSH1 0x40 MLOAD SWAP2 DUP3 PUSH2 0x2FB9 JUMP JUMPDEST DUP3 DUP2 MSTORE DUP1 SWAP3 PUSH2 0x390C PUSH1 0x1F NOT SWAP2 PUSH2 0x368D JUMP JUMPDEST ADD SWAP1 PUSH1 0x0 JUMPDEST DUP3 DUP2 LT PUSH2 0x391D JUMPI POP POP POP JUMP JUMPDEST PUSH1 0x20 SWAP1 PUSH2 0x3928 PUSH2 0x382D JUMP JUMPDEST DUP3 DUP3 DUP6 ADD ADD MSTORE ADD PUSH2 0x3911 JUMP JUMPDEST PUSH1 0x40 MLOAD SWAP1 PUSH2 0x3941 DUP3 PUSH2 0x2F4C JUMP JUMPDEST PUSH1 0x0 PUSH1 0x60 DUP4 DUP3 DUP2 MSTORE DUP3 PUSH1 0x20 DUP3 ADD MSTORE DUP3 PUSH1 0x40 DUP3 ADD MSTORE ADD MSTORE JUMP JUMPDEST SWAP1 PUSH2 0x3963 DUP3 PUSH2 0x368D JUMP JUMPDEST PUSH2 0x3970 PUSH1 0x40 MLOAD SWAP2 DUP3 PUSH2 0x2FB9 JUMP JUMPDEST DUP3 DUP2 MSTORE DUP1 SWAP3 PUSH2 0x3981 PUSH1 0x1F NOT SWAP2 PUSH2 0x368D JUMP JUMPDEST ADD SWAP1 PUSH1 0x0 JUMPDEST DUP3 DUP2 LT PUSH2 0x3992 JUMPI POP POP POP JUMP JUMPDEST PUSH1 0x20 SWAP1 PUSH2 0x399D PUSH2 0x3934 JUMP JUMPDEST DUP3 DUP3 DUP6 ADD ADD MSTORE ADD PUSH2 0x3986 JUMP JUMPDEST SWAP1 PUSH2 0x39B3 DUP3 PUSH2 0x368D JUMP JUMPDEST PUSH2 0x39C0 PUSH1 0x40 MLOAD SWAP2 DUP3 PUSH2 0x2FB9 JUMP JUMPDEST DUP3 DUP2 MSTORE DUP1 SWAP3 PUSH2 0x39D1 PUSH1 0x1F NOT SWAP2 PUSH2 0x368D JUMP JUMPDEST ADD SWAP1 PUSH1 0x20 CALLDATASIZE SWAP2 ADD CALLDATACOPY JUMP JUMPDEST PUSH1 0xE SLOAD PUSH3 0x15180 DUP2 ADD DUP1 SWAP2 GT PUSH2 0x1485 JUMPI DUP1 TIMESTAMP LT ISZERO PUSH2 0x3A01 JUMPI PUSH2 0x39FE SWAP1 TIMESTAMP SWAP1 PUSH2 0x3601 JUMP JUMPDEST SWAP1 JUMP JUMPDEST POP PUSH1 0x0 SWAP1 JUMP JUMPDEST SWAP1 PUSH2 0x3A11 DUP3 PUSH2 0x368D JUMP JUMPDEST PUSH1 0x40 SWAP1 PUSH2 0x3A20 DUP3 MLOAD SWAP2 DUP3 PUSH2 0x2FB9 JUMP JUMPDEST DUP4 DUP2 MSTORE DUP1 SWAP4 PUSH2 0x3A31 PUSH1 0x1F NOT SWAP2 PUSH2 0x368D JUMP JUMPDEST ADD SWAP2 PUSH1 0x0 JUMPDEST DUP4 DUP2 LT PUSH2 0x3A43 JUMPI POP POP POP POP JUMP JUMPDEST PUSH1 0x20 SWAP1 DUP3 MLOAD PUSH2 0x3A51 DUP2 PUSH2 0x2F82 JUMP JUMPDEST PUSH1 0x0 DUP2 MSTORE DUP3 PUSH1 0x0 DUP2 DUP4 ADD MSTORE PUSH1 0x0 DUP6 DUP4 ADD MSTORE PUSH1 0x60 DUP1 DUP4 ADD MSTORE PUSH1 0x0 PUSH1 0x80 DUP4 ADD MSTORE PUSH1 0x0 PUSH1 0xA0 DUP4 ADD MSTORE DUP3 DUP7 ADD ADD MSTORE ADD PUSH2 0x3A36 JUMP INVALID LOG2 PUSH5 0x6970667358 0x22 SLT KECCAK256 CALLCODE CALLCODE CODECOPY 0x2B 0xD6 SWAP14 PUSH3 0x1790B9 PUSH3 0x899CE5 0xC7 0x2D 0xC9 0x22 PUSH3 0x524F30 STATICCALL CALLCODE TIMESTAMP CHAINID SWAP4 CODESIZE SHL PUSH14 0xB1F964736F6C6343000813003300 "},"methodIdentifiers":{"BONUS_AMOUNT()":"74863d90","VOTING_COOLDOWN()":"0f780b56","approveFundRequest(uint256)":"21464bfe","centralGovernment()":"5dbe526f","checkVotingStatus(address)":"709eddb0","deactivateEntity(address)":"f24f8241","distributeBonus()":"9a35646f","entityAddresses(uint256)":"ec10be39","fundRequests(uint256)":"80ee37fa","getAllEntityAddresses()":"b17972f9","getAllEntityRatings()":"ba51f822","getContractBalance()":"6f9fb98a","getEntityCount()":"5d1b45b5","getEntityDetails(address)":"2be837ec","getEntityFundRequests(address,uint256,uint256)":"a30c3519","getEntityHappinessRating(address)":"8876ac41","getEntityIssuedFunds(address,uint256,uint256)":"73901f9f","getEntitySpendingRecords(address,uint256,uint256)":"4fb1c4be","getFundRequest(uint256)":"4dfa8434","getFundRequests(uint256,uint256)":"e620f3a0","getIssuedFund(uint256)":"2a9544d7","getIssuedFunds(uint256,uint256)":"12216c07","getMicroTransactions(uint256,uint256)":"9a0fc036","getSpendingRecord(uint256)":"a88c113a","getSpendingRecordMicroTransactions(uint256)":"44c6bc77","getSpendingRecords(uint256,uint256)":"a089126d","getTimeUntilNextBonus()":"0241a443","governmentEntities(address)":"df619ad7","hasVoted(address)":"09eef43e","issueFunds(address,uint256)":"ea949519","issuedFundCount()":"4a572ae3","issuedFunds(uint256)":"2c71474d","lastBonusDistribution()":"f349c1e5","microTransactions(uint256)":"818f994d","recordCount()":"900407bc","recordMicroTransaction(uint256,string,uint256)":"2f0b6f72","recordSpending(string,uint256,string)":"dea1f581","registerEntity(address,string)":"32b3f568","rejectFundRequest(uint256)":"58e9f12e","requestCount()":"5badbe4c","requestFunds(uint256,string,string)":"b041f480","spendingRecordMicroTransactions(uint256,uint256)":"c7c258f2","spendingRecords(uint256)":"bac5d8f9","voteForEntity(address,uint256)":"73236a5b"}}}}}