{"contracts/SimplifiedSpendingRegistry.sol":{"SimplifiedSpendingRegistry":{"abi":[{"inputs":[],"stateMutability":"nonpayable","type":"constructor"},{"anonymous":false,"inputs":[{"indexed":true,"internalType":"uint256","name":"tenderId","type":"uint256"},{"indexed":true,"internalType":"uint256","name":"bidId","type":"uint256"},{"indexed":true,"internalType":"address","name":"bidder","type":"address"},{"indexed":false,"internalType":"uint256","name":"amount","type":"uint256"}],"name":"BidPlaced","type":"event"},{"anonymous":false,"inputs":[{"indexed":true,"internalType":"uint256","name":"tenderId","type":"uint256"},{"indexed":true,"internalType":"uint256","name":"bidId","type":"uint256"},{"indexed":true,"internalType":"address","name":"bidder","type":"address"}],"name":"BidWithdrawn","type":"event"},{"anonymous":false,"inputs":[{"indexed":true,"internalType":"address","name":"entity","type":"address"},{"indexed":false,"internalType":"uint256","name":"amount","type":"uint256"}],"name":"BonusDistributed","type":"event"},{"anonymous":false,"inputs":[{"indexed":true,"internalType":"address","name":"entityAddress","type":"address"}],"name":"EntityDeactivated","type":"event"},{"anonymous":false,"inputs":[{"indexed":true,"internalType":"address","name":"entityAddress","type":"address"},{"indexed":false,"internalType":"string","name":"name","type":"string"}],"name":"EntityRegistered","type":"event"},{"anonymous":false,"inputs":[{"indexed":true,"internalType":"uint256","name":"id","type":"uint256"},{"indexed":true,"internalType":"address","name":"entity","type":"address"}],"name":"FundRequestApproved","type":"event"},{"anonymous":false,"inputs":[{"indexed":true,"internalType":"uint256","name":"id","type":"uint256"},{"indexed":true,"internalType":"address","name":"entity","type":"address"}],"name":"FundRequestRejected","type":"event"},{"anonymous":false,"inputs":[{"indexed":true,"internalType":"uint256","name":"id","type":"uint256"},{"indexed":true,"internalType":"address","name":"entity","type":"address"},{"indexed":false,"internalType":"uint256","name":"amount","type":"uint256"},{"indexed":false,"internalType":"string","name":"reason","type":"string"},{"indexed":false,"internalType":"string","name":"documentHash","type":"string"}],"name":"FundRequested","type":"event"},{"anonymous":false,"inputs":[{"indexed":true,"internalType":"uint256","name":"id","type":"uint256"},{"indexed":true,"internalType":"address","name":"to","type":"address"},{"indexed":false,"internalType":"uint256","name":"amount","type":"uint256"}],"name":"FundsIssued","type":"event"},{"anonymous":false,"inputs":[{"indexed":true,"internalType":"uint256","name":"id","type":"uint256"},{"indexed":true,"internalType":"uint256","name":"spendingRecordId","type":"uint256"},{"indexed":true,"internalType":"address","name":"entity","type":"address"},{"indexed":false,"internalType":"string","name":"description","type":"string"},{"indexed":false,"internalType":"uint256","name":"amount","type":"uint256"}],"name":"MicroTransactionRecorded","type":"event"},{"anonymous":false,"inputs":[{"indexed":true,"internalType":"uint256","name":"id","type":"uint256"},{"indexed":true,"internalType":"address","name":"entity","type":"address"},{"indexed":false,"internalType":"uint256","name":"amount","type":"uint256"},{"indexed":false,"internalType":"string","name":"documentHash","type":"string"}],"name":"SpendingRecorded","type":"event"},{"anonymous":false,"inputs":[{"indexed":true,"internalType":"uint256","name":"tenderId","type":"uint256"},{"indexed":true,"internalType":"address","name":"winner","type":"address"},{"indexed":false,"internalType":"uint256","name":"amount","type":"uint256"}],"name":"TenderAwarded","type":"event"},{"anonymous":false,"inputs":[{"indexed":true,"internalType":"uint256","name":"tenderId","type":"uint256"},{"indexed":true,"internalType":"address","name":"issuer","type":"address"}],"name":"TenderCancelled","type":"event"},{"anonymous":false,"inputs":[{"indexed":true,"internalType":"uint256","name":"id","type":"uint256"},{"indexed":true,"internalType":"address","name":"issuer","type":"address"},{"indexed":false,"internalType":"string","name":"title","type":"string"},{"indexed":false,"internalType":"uint256","name":"amount","type":"uint256"},{"indexed":false,"internalType":"uint256","name":"deadline","type":"uint256"}],"name":"TenderIssued","type":"event"},{"anonymous":false,"inputs":[{"indexed":true,"internalType":"address","name":"voter","type":"address"},{"indexed":true,"internalType":"address","name":"entity","type":"address"},{"indexed":false,"internalType":"uint256","name":"rating","type":"uint256"}],"name":"Voted","type":"event"},{"inputs":[],"name":"BONUS_AMOUNT","outputs":[{"internalType":"uint256","name":"","type":"uint256"}],"stateMutability":"view","type":"function"},{"inputs":[],"name":"VOTING_COOLDOWN","outputs":[{"internalType":"uint256","name":"","type":"uint256"}],"stateMutability":"view","type":"function"},{"inputs":[{"internalType":"uint256","name":"requestId","type":"uint256"}],"name":"approveFundRequest","outputs":[],"stateMutability":"nonpayable","type":"function"},{"inputs":[{"internalType":"uint256","name":"tenderId","type":"uint256"}],"name":"awardTender","outputs":[],"stateMutability":"nonpayable","type":"function"},{"inputs":[{"internalType":"uint256","name":"","type":"uint256"},{"internalType":"uint256","name":"","type":"uint256"}],"name":"bids","outputs":[{"internalType":"uint256","name":"id","type":"uint256"},{"internalType":"address","name":"bidder","type":"address"},{"internalType":"uint256","name":"amount","type":"uint256"},{"internalType":"uint256","name":"timestamp","type":"uint256"},{"internalType":"bool","name":"isWithdrawn","type":"bool"}],"stateMutability":"view","type":"function"},{"inputs":[{"internalType":"uint256","name":"tenderId","type":"uint256"}],"name":"cancelTender","outputs":[],"stateMutability":"nonpayable","type":"function"},{"inputs":[],"name":"centralGovernment","outputs":[{"internalType":"address","name":"","type":"address"}],"stateMutability":"view","type":"function"},{"inputs":[{"internalType":"address","name":"voter","type":"address"}],"name":"checkVotingStatus","outputs":[{"internalType":"bool","name":"","type":"bool"}],"stateMutability":"view","type":"function"},{"inputs":[{"internalType":"address","name":"entityAddress","type":"address"}],"name":"deactivateEntity","outputs":[],"stateMutability":"nonpayable","type":"function"},{"inputs":[],"name":"distributeBonus","outputs":[],"stateMutability":"nonpayable","type":"function"},{"inputs":[{"internalType":"uint256","name":"","type":"uint256"}],"name":"entityAddresses","outputs":[{"internalType":"address","name":"","type":"address"}],"stateMutability":"view","type":"function"},{"inputs":[{"internalType":"uint256","name":"","type":"uint256"}],"name":"fundRequests","outputs":[{"internalType":"uint256","name":"id","type":"uint256"},{"internalType":"address","name":"entity","type":"address"},{"internalType":"uint256","name":"amount","type":"uint256"},{"internalType":"string","name":"reason","type":"string"},{"internalType":"string","name":"documentHash","type":"string"},{"internalType":"uint256","name":"timestamp","type":"uint256"},{"internalType":"bool","name":"isApproved","type":"bool"},{"internalType":"bool","name":"isRejected","type":"bool"}],"stateMutability":"view","type":"function"},{"inputs":[],"name":"getAllEntityAddresses","outputs":[{"internalType":"address[]","name":"","type":"address[]"}],"stateMutability":"view","type":"function"},{"inputs":[],"name":"getAllEntityRatings","outputs":[{"internalType":"address[]","name":"addresses","type":"address[]"},{"internalType":"uint256[]","name":"ratings","type":"uint256[]"},{"internalType":"uint256[]","name":"votes","type":"uint256[]"}],"stateMutability":"view","type":"function"},{"inputs":[{"internalType":"uint256","name":"tenderId","type":"uint256"}],"name":"getBids","outputs":[{"components":[{"internalType":"uint256","name":"id","type":"uint256"},{"internalType":"address","name":"bidder","type":"address"},{"internalType":"uint256","name":"amount","type":"uint256"},{"internalType":"uint256","name":"timestamp","type":"uint256"},{"internalType":"bool","name":"isWithdrawn","type":"bool"}],"internalType":"struct SimplifiedSpendingRegistry.Bid[]","name":"","type":"tuple[]"}],"stateMutability":"view","type":"function"},{"inputs":[],"name":"getContractBalance","outputs":[{"internalType":"uint256","name":"","type":"uint256"}],"stateMutability":"view","type":"function"},{"inputs":[],"name":"getEntityCount","outputs":[{"internalType":"uint256","name":"","type":"uint256"}],"stateMutability":"view","type":"function"},{"inputs":[{"internalType":"address","name":"entityAddress","type":"address"}],"name":"getEntityDetails","outputs":[{"internalType":"string","name":"name","type":"string"},{"internalType":"bool","name":"isActive","type":"bool"},{"internalType":"uint256","name":"balance","type":"uint256"},{"internalType":"uint256","name":"needToSpend","type":"uint256"}],"stateMutability":"view","type":"function"},{"inputs":[{"internalType":"address","name":"entityAddress","type":"address"},{"internalType":"uint256","name":"offset","type":"uint256"},{"internalType":"uint256","name":"limit","type":"uint256"}],"name":"getEntityFundRequests","outputs":[{"components":[{"internalType":"uint256","name":"id","type":"uint256"},{"internalType":"address","name":"entity","type":"address"},{"internalType":"uint256","name":"amount","type":"uint256"},{"internalType":"string","name":"reason","type":"string"},{"internalType":"string","name":"documentHash","type":"string"},{"internalType":"uint256","name":"timestamp","type":"uint256"},{"internalType":"bool","name":"isApproved","type":"bool"},{"internalType":"bool","name":"isRejected","type":"bool"}],"internalType":"struct SimplifiedSpendingRegistry.FundRequest[]","name":"","type":"tuple[]"}],"stateMutability":"view","type":"function"},{"inputs":[{"internalType":"address","name":"entityAddress","type":"address"}],"name":"getEntityHappinessRating","outputs":[{"internalType":"uint256","name":"rating","type":"uint256"},{"internalType":"uint256","name":"totalVotes","type":"uint256"},{"internalType":"uint256","name":"lastVoteTime","type":"uint256"}],"stateMutability":"view","type":"function"},{"inputs":[{"internalType":"address","name":"entityAddress","type":"address"},{"internalType":"uint256","name":"offset","type":"uint256"},{"internalType":"uint256","name":"limit","type":"uint256"}],"name":"getEntityIssuedFunds","outputs":[{"components":[{"internalType":"uint256","name":"id","type":"uint256"},{"internalType":"address","name":"entity","type":"address"},{"internalType":"uint256","name":"amount","type":"uint256"},{"internalType":"uint256","name":"timestamp","type":"uint256"}],"internalType":"struct SimplifiedSpendingRegistry.IssuedFund[]","name":"","type":"tuple[]"}],"stateMutability":"view","type":"function"},{"inputs":[{"internalType":"address","name":"entityAddress","type":"address"},{"internalType":"uint256","name":"offset","type":"uint256"},{"internalType":"uint256","name":"limit","type":"uint256"}],"name":"getEntitySpendingRecords","outputs":[{"components":[{"internalType":"uint256","name":"id","type":"uint256"},{"internalType":"address","name":"entity","type":"address"},{"internalType":"string","name":"purpose","type":"string"},{"internalType":"uint256","name":"amount","type":"uint256"},{"internalType":"string","name":"documentHash","type":"string"},{"internalType":"uint256","name":"timestamp","type":"uint256"}],"internalType":"struct SimplifiedSpendingRegistry.SpendingRecord[]","name":"","type":"tuple[]"}],"stateMutability":"view","type":"function"},{"inputs":[{"internalType":"uint256","name":"requestId","type":"uint256"}],"name":"getFundRequest","outputs":[{"components":[{"internalType":"uint256","name":"id","type":"uint256"},{"internalType":"address","name":"entity","type":"address"},{"internalType":"uint256","name":"amount","type":"uint256"},{"internalType":"string","name":"reason","type":"string"},{"internalType":"string","name":"documentHash","type":"string"},{"internalType":"uint256","name":"timestamp","type":"uint256"},{"internalType":"bool","name":"isApproved","type":"bool"},{"internalType":"bool","name":"isRejected","type":"bool"}],"internalType":"struct SimplifiedSpendingRegistry.FundRequest","name":"","type":"tuple"}],"stateMutability":"view","type":"function"},{"inputs":[{"internalType":"uint256","name":"offset","type":"uint256"},{"internalType":"uint256","name":"limit","type":"uint256"}],"name":"getFundRequests","outputs":[{"components":[{"internalType":"uint256","name":"id","type":"uint256"},{"internalType":"address","name":"entity","type":"address"},{"internalType":"uint256","name":"amount","type":"uint256"},{"internalType":"string","name":"reason","type":"string"},{"internalType":"string","name":"documentHash","type":"string"},{"internalType":"uint256","name":"timestamp","type":"uint256"},{"internalType":"bool","name":"isApproved","type":"bool"},{"internalType":"bool","name":"isRejected","type":"bool"}],"internalType":"struct SimplifiedSpendingRegistry.FundRequest[]","name":"","type":"tuple[]"}],"stateMutability":"view","type":"function"},{"inputs":[{"internalType":"uint256","name":"fundId","type":"uint256"}],"name":"getIssuedFund","outputs":[{"components":[{"internalType":"uint256","name":"id","type":"uint256"},{"internalType":"address","name":"entity","type":"address"},{"internalType":"uint256","name":"amount","type":"uint256"},{"internalType":"uint256","name":"timestamp","type":"uint256"}],"internalType":"struct SimplifiedSpendingRegistry.IssuedFund","name":"","type":"tuple"}],"stateMutability":"view","type":"function"},{"inputs":[{"internalType":"uint256","name":"offset","type":"uint256"},{"internalType":"uint256","name":"limit","type":"uint256"}],"name":"getIssuedFunds","outputs":[{"components":[{"internalType":"uint256","name":"id","type":"uint256"},{"internalType":"address","name":"entity","type":"address"},{"internalType":"uint256","name":"amount","type":"uint256"},{"internalType":"uint256","name":"timestamp","type":"uint256"}],"internalType":"struct SimplifiedSpendingRegistry.IssuedFund[]","name":"","type":"tuple[]"}],"stateMutability":"view","type":"function"},{"inputs":[{"internalType":"uint256","name":"offset","type":"uint256"},{"internalType":"uint256","name":"limit","type":"uint256"}],"name":"getMicroTransactions","outputs":[{"components":[{"internalType":"uint256","name":"id","type":"uint256"},{"internalType":"uint256","name":"spendingRecordId","type":"uint256"},{"internalType":"address","name":"entity","type":"address"},{"internalType":"string","name":"description","type":"string"},{"internalType":"uint256","name":"amount","type":"uint256"},{"internalType":"uint256","name":"timestamp","type":"uint256"}],"internalType":"struct SimplifiedSpendingRegistry.MicroTransaction[]","name":"","type":"tuple[]"}],"stateMutability":"view","type":"function"},{"inputs":[{"internalType":"uint256","name":"recordId","type":"uint256"}],"name":"getSpendingRecord","outputs":[{"components":[{"internalType":"uint256","name":"id","type":"uint256"},{"internalType":"address","name":"entity","type":"address"},{"internalType":"string","name":"purpose","type":"string"},{"internalType":"uint256","name":"amount","type":"uint256"},{"internalType":"string","name":"documentHash","type":"string"},{"internalType":"uint256","name":"timestamp","type":"uint256"}],"internalType":"struct SimplifiedSpendingRegistry.SpendingRecord","name":"","type":"tuple"}],"stateMutability":"view","type":"function"},{"inputs":[{"internalType":"uint256","name":"spendingRecordId","type":"uint256"}],"name":"getSpendingRecordMicroTransactions","outputs":[{"components":[{"internalType":"uint256","name":"id","type":"uint256"},{"internalType":"uint256","name":"spendingRecordId","type":"uint256"},{"internalType":"address","name":"entity","type":"address"},{"internalType":"string","name":"description","type":"string"},{"internalType":"uint256","name":"amount","type":"uint256"},{"internalType":"uint256","name":"timestamp","type":"uint256"}],"internalType":"struct SimplifiedSpendingRegistry.MicroTransaction[]","name":"","type":"tuple[]"}],"stateMutability":"view","type":"function"},{"inputs":[{"internalType":"uint256","name":"offset","type":"uint256"},{"internalType":"uint256","name":"limit","type":"uint256"}],"name":"getSpendingRecords","outputs":[{"components":[{"internalType":"uint256","name":"id","type":"uint256"},{"internalType":"address","name":"entity","type":"address"},{"internalType":"string","name":"purpose","type":"string"},{"internalType":"uint256","name":"amount","type":"uint256"},{"internalType":"string","name":"documentHash","type":"string"},{"internalType":"uint256","name":"timestamp","type":"uint256"}],"internalType":"struct SimplifiedSpendingRegistry.SpendingRecord[]","name":"","type":"tuple[]"}],"stateMutability":"view","type":"function"},{"inputs":[{"internalType":"uint256","name":"tenderId","type":"uint256"}],"name":"getTenderDetails","outputs":[{"components":[{"internalType":"uint256","name":"id","type":"uint256"},{"internalType":"string","name":"title","type":"string"},{"internalType":"string","name":"description","type":"string"},{"internalType":"uint256","name":"amount","type":"uint256"},{"internalType":"uint256","name":"deadline","type":"uint256"},{"internalType":"address","name":"issuer","type":"address"},{"internalType":"bool","name":"isActive","type":"bool"},{"internalType":"address","name":"winner","type":"address"},{"internalType":"uint256","name":"winningBid","type":"uint256"},{"internalType":"uint256","name":"minBidAmount","type":"uint256"},{"internalType":"uint256","name":"maxBidAmount","type":"uint256"},{"internalType":"uint256","name":"bidCount","type":"uint256"}],"internalType":"struct SimplifiedSpendingRegistry.Tender","name":"","type":"tuple"}],"stateMutability":"view","type":"function"},{"inputs":[{"internalType":"uint256","name":"offset","type":"uint256"},{"internalType":"uint256","name":"limit","type":"uint256"}],"name":"getTenders","outputs":[{"components":[{"internalType":"uint256","name":"id","type":"uint256"},{"internalType":"string","name":"title","type":"string"},{"internalType":"string","name":"description","type":"string"},{"internalType":"uint256","name":"amount","type":"uint256"},{"internalType":"uint256","name":"deadline","type":"uint256"},{"internalType":"address","name":"issuer","type":"address"},{"internalType":"bool","name":"isActive","type":"bool"},{"internalType":"address","name":"winner","type":"address"},{"internalType":"uint256","name":"winningBid","type":"uint256"},{"internalType":"uint256","name":"minBidAmount","type":"uint256"},{"internalType":"uint256","name":"maxBidAmount","type":"uint256"},{"internalType":"uint256","name":"bidCount","type":"uint256"}],"internalType":"struct SimplifiedSpendingRegistry.Tender[]","name":"","type":"tuple[]"}],"stateMutability":"view","type":"function"},{"inputs":[],"name":"getTimeUntilNextBonus","outputs":[{"internalType":"uint256","name":"","type":"uint256"}],"stateMutability":"view","type":"function"},{"inputs":[{"internalType":"address","name":"","type":"address"}],"name":"governmentEntities","outputs":[{"internalType":"string","name":"name","type":"string"},{"internalType":"bool","name":"isActive","type":"bool"},{"internalType":"uint256","name":"balance","type":"uint256"},{"internalType":"uint256","name":"needToSpend","type":"uint256"},{"internalType":"uint256","name":"happinessRating","type":"uint256"},{"internalType":"uint256","name":"totalVotes","type":"uint256"},{"internalType":"uint256","name":"lastVoteTimestamp","type":"uint256"}],"stateMutability":"view","type":"function"},{"inputs":[{"internalType":"address","name":"","type":"address"},{"internalType":"address","name":"","type":"address"}],"name":"hasVoted","outputs":[{"internalType":"bool","name":"","type":"bool"}],"stateMutability":"view","type":"function"},{"inputs":[{"internalType":"address","name":"entityAddress","type":"address"},{"internalType":"uint256","name":"amount","type":"uint256"}],"name":"issueFunds","outputs":[],"stateMutability":"payable","type":"function"},{"inputs":[{"internalType":"string","name":"title","type":"string"},{"internalType":"string","name":"description","type":"string"},{"internalType":"uint256","name":"amount","type":"uint256"},{"internalType":"uint256","name":"deadline","type":"uint256"},{"internalType":"uint256","name":"minBidAmount","type":"uint256"},{"internalType":"uint256","name":"maxBidAmount","type":"uint256"}],"name":"issueTender","outputs":[],"stateMutability":"nonpayable","type":"function"},{"inputs":[],"name":"issuedFundCount","outputs":[{"internalType":"uint256","name":"","type":"uint256"}],"stateMutability":"view","type":"function"},{"inputs":[{"internalType":"uint256","name":"","type":"uint256"}],"name":"issuedFunds","outputs":[{"internalType":"uint256","name":"id","type":"uint256"},{"internalType":"address","name":"entity","type":"address"},{"internalType":"uint256","name":"amount","type":"uint256"},{"internalType":"uint256","name":"timestamp","type":"uint256"}],"stateMutability":"view","type":"function"},{"inputs":[],"name":"lastBonusDistribution","outputs":[{"internalType":"uint256","name":"","type":"uint256"}],"stateMutability":"view","type":"function"},{"inputs":[{"internalType":"uint256","name":"","type":"uint256"}],"name":"microTransactions","outputs":[{"internalType":"uint256","name":"id","type":"uint256"},{"internalType":"uint256","name":"spendingRecordId","type":"uint256"},{"internalType":"address","name":"entity","type":"address"},{"internalType":"string","name":"description","type":"string"},{"internalType":"uint256","name":"amount","type":"uint256"},{"internalType":"uint256","name":"timestamp","type":"uint256"}],"stateMutability":"view","type":"function"},{"inputs":[{"internalType":"uint256","name":"tenderId","type":"uint256"},{"internalType":"uint256","name":"amount","type":"uint256"}],"name":"placeBid","outputs":[],"stateMutability":"payable","type":"function"},{"inputs":[],"name":"recordCount","outputs":[{"internalType":"uint256","name":"","type":"uint256"}],"stateMutability":"view","type":"function"},{"inputs":[{"internalType":"uint256","name":"spendingRecordId","type":"uint256"},{"internalType":"string","name":"description","type":"string"},{"internalType":"uint256","name":"amount","type":"uint256"}],"name":"recordMicroTransaction","outputs":[],"stateMutability":"nonpayable","type":"function"},{"inputs":[{"internalType":"string","name":"purpose","type":"string"},{"internalType":"uint256","name":"amount","type":"uint256"},{"internalType":"string","name":"documentHash","type":"string"}],"name":"recordSpending","outputs":[],"stateMutability":"nonpayable","type":"function"},{"inputs":[{"internalType":"address","name":"entityAddress","type":"address"},{"internalType":"string","name":"name","type":"string"}],"name":"registerEntity","outputs":[],"stateMutability":"nonpayable","type":"function"},{"inputs":[{"internalType":"uint256","name":"requestId","type":"uint256"}],"name":"rejectFundRequest","outputs":[],"stateMutability":"nonpayable","type":"function"},{"inputs":[],"name":"requestCount","outputs":[{"internalType":"uint256","name":"","type":"uint256"}],"stateMutability":"view","type":"function"},{"inputs":[{"internalType":"uint256","name":"amount","type":"uint256"},{"internalType":"string","name":"reason","type":"string"},{"internalType":"string","name":"documentHash","type":"string"}],"name":"requestFunds","outputs":[],"stateMutability":"nonpayable","type":"function"},{"inputs":[{"internalType":"uint256","name":"","type":"uint256"},{"internalType":"uint256","name":"","type":"uint256"}],"name":"spendingRecordMicroTransactions","outputs":[{"internalType":"uint256","name":"","type":"uint256"}],"stateMutability":"view","type":"function"},{"inputs":[{"internalType":"uint256","name":"","type":"uint256"}],"name":"spendingRecords","outputs":[{"internalType":"uint256","name":"id","type":"uint256"},{"internalType":"address","name":"entity","type":"address"},{"internalType":"string","name":"purpose","type":"string"},{"internalType":"uint256","name":"amount","type":"uint256"},{"internalType":"string","name":"documentHash","type":"string"},{"internalType":"uint256","name":"timestamp","type":"uint256"}],"stateMutability":"view","type":"function"},{"inputs":[{"internalType":"uint256","name":"","type":"uint256"}],"name":"tenderBidCount","outputs":[{"internalType":"uint256","name":"","type":"uint256"}],"stateMutability":"view","type":"function"},{"inputs":[],"name":"tenderCount","outputs":[{"internalType":"uint256","name":"","type":"uint256"}],"stateMutability":"view","type":"function"},{"inputs":[{"internalType":"uint256","name":"","type":"uint256"}],"name":"tenders","outputs":[{"internalType":"uint256","name":"id","type":"uint256"},{"internalType":"string","name":"title","type":"string"},{"internalType":"string","name":"description","type":"string"},{"internalType":"uint256","name":"amount","type":"uint256"},{"internalType":"uint256","name":"deadline","type":"uint256"},{"internalType":"address","name":"issuer","type":"address"},{"internalType":"bool","name":"isActive","type":"bool"},{"internalType":"address","name":"winner","type":"address"},{"internalType":"uint256","name":"winningBid","type":"uint256"},{"internalType":"uint256","name":"minBidAmount","type":"uint256"},{"internalType":"uint256","name":"maxBidAmount","type":"uint256"},{"internalType":"uint256","name":"bidCount","type":"uint256"}],"stateMutability":"view","type":"function"},{"inputs":[{"internalType":"address","name":"entityAddress","type":"address"},{"internalType":"uint256","name":"rating","type":"uint256"}],"name":"voteForEntity","outputs":[],"stateMutability":"nonpayable","type":"function"},{"inputs":[{"internalType":"uint256","name":"tenderId","type":"uint256"},{"internalType":"uint256","name":"bidId","type":"uint256"}],"name":"withdrawBid","outputs":[],"stateMutability":"nonpayable","type":"function"}],"evm":{"bytecode":{"linkReferences":{},"object":"6080806040523461002c57601180546001600160a01b03191633179055426012556152d290816100328239f35b600080fdfe6080604052600436101561001257600080fd5b60003560e01c80630241a443146143175780630f780b56146142f957806312216c07146141dd578063131d9a271461405657806315cf4b6e1461402a5780631dfd954214613fb25780631f05877614613f9457806321464bfe14613ecc5780632a9544d714613de45780632be837ec14613d065780632c71474d14613cb05780632f0b6f72146138c157806332b3f568146135295780633a74e070146133f057806344c6bc771461330b578063465e1def146132295780634a572ae31461320b5780634d4d2b1c146131b15780634dfa84341461316a5780634fb1c4be14612f3d57806353ee895d14612e0d57806357c90de514612b3457806358e9f12e14612a925780635badbe4c14612a745780635d1b45b514612a565780635dbe526f14612a2d5780636f9fb98a146129fc578063709eddb0146129b157806373236a5b1461276a57806373901f9f1461255757806374863d90146125345780637b3c4baa146124c957806380ee37fa14612410578063818f994d1461238e5780638876ac41146122c05780638fdee0c5146120e2578063900407bc146120c45780639a0fc03614611ff65780639a35646f14611e08578063a089126d14611cc9578063a30c351914611b87578063a5735662146118b9578063a88c113a146117cf578063b041f4801461133f578063b17972f9146112aa578063ba51f8221461117f578063bac5d8f9146110e8578063c4bce41814610b0d578063c7c258f214610ace578063dea1f581146105fe578063df619ad714610564578063e620f3a0146104c9578063ea9495191461037a578063ec10be3914610338578063f24f8241146102a75763f349c1e51461028457600080fd5b346102a25760003660031901126102a2576020601254604051908152f35b600080fd5b346102a25760203660031901126102a2576102c061449e565b6011546001600160a01b0391906102da9083163314614a22565b168060005260006020526102f860ff60016040600020015416614a86565b806000526000602052600160406000200160ff1981541690557f99fdeeec075823d23f0e1926979b27aaab3c6d7fccdbbea8914592d98896d741600080a2005b346102a25760203660031901126102a2576004356005548110156102a2576103616020916149d3565b905460405160039290921b1c6001600160a01b03168152f35b60403660031901126102a25761038e61449e565b60243560018060a01b0380926103a982601154163314614a22565b169182600052602090600082526103ca60ff60016040600020015416614a86565b82340361048657907f8102f9a1d31f6501d6c7e7dc50bc98598b6a71cfb3548fcb29a3bcec04b63655918460005260008252600260406000200161040f858254614ac6565b9055600361041e600854614ad3565b806008556040519261042f846144b4565b81845284840188815260408501918883526060860193428552600052848752604060002095518655600186019151166001600160601b0360a01b8254161790555160028401555191015560085492604051908152a3005b6064826040519062461bcd60e51b825280600483015260248201527f53656e742076616c7565206d757374206d617463682074686520616d6f756e746044820152fd5b346102a2576104e66104f76104dd3661433a565b92819382614ac6565b60075480821161055c575b50614ba0565b61050081614e83565b9160005b82811061051d57604051806105198682614900565b0390f35b8061053c6105366105316105579486614ac6565b6148af565b50614e0b565b6105468287614c93565b526105518186614c93565b50614ad3565b610504565b9050846104f1565b346102a25760203660031901126102a2576001600160a01b0361058561449e565b1660005260006020526105d9604060002061059f816146af565b9060ff600182015416906002810154906003810154600482015490600660058401549301549360405197889760e0895260e08901906143be565b951515602088015260408701526060860152608085015260a084015260c08301520390f35b346102a25760603660031901126102a2576004356001600160401b0381116102a25761062e903690600401614579565b6044356001600160401b0381116102a25761064d903690600401614579565b33600052600060205261066a60ff60016040600020015416614ae2565b815115610a895760243515610a455761068581511515614b54565b33600052600060205260243560026040600020015410610a095733600052600060205260026040600020016106bd6024358254614ba0565b905533600052600060205260036040600020016106dd6024358254614ac6565b90556106ea600954614ad3565b80600955604051926106fb84614505565b81845260208401913383526040850191825260243560608601528360808601524260a0860152600052600160205260406000209184518355600183019060018060a01b039051166001600160601b0360a01b825416179055519283516001600160401b038111610932576107726002840154614675565b601f81116109c2575b506020601f8211600114610953578192939495600092610948575b50508160011b916000199060031b1c19161760028301555b6060810151600383015560808101518051906001600160401b038211610932576107db6004850154614675565b601f81116108e7575b50602090601f83116001146108745791806005949260a094600092610869575b50508160011b916000199060031b1c19161760048501555b01519101556009547f1243a0379e4e37663c88f3bc1d8bdb9a3ca74f533be3a0cf855f3f80cbf4671560405160243581526040602082015280610864339560408301906143be565b0390a3005b015190508780610804565b90601f198316916004860160005260206000209260005b8181106108cf575092600192859260a09660059896106108b6575b505050811b01600485015561081c565b015160001960f88460031b161c191690558780806108a6565b9293602060018192878601518155019501930161088b565b600485016000526020600020601f840160051c81019160208510610928575b601f0160051c01905b81811061091c57506107e4565b6000815560010161090f565b9091508190610906565b634e487b7160e01b600052604160045260246000fd5b015190508580610796565b6002840160005260206000209060005b601f19841681106109aa575060019394959683601f19811610610991575b505050811b0160028301556107ae565b015160001960f88460031b161c19169055858080610981565b9091602060018192858b015181550193019101610963565b600284016000526020600020601f830160051c810160208410610a02575b601f830160051c820181106109f657505061077b565b600081556001016109e0565b50806109e0565b60405162461bcd60e51b8152602060048201526014602482015273496e73756666696369656e742062616c616e636560601b6044820152606490fd5b606460405162461bcd60e51b815260206004820152602060248201527f416d6f756e74206d7573742062652067726561746572207468616e207a65726f6044820152fd5b60405162461bcd60e51b815260206004820152601760248201527f507572706f73652063616e6e6f7420626520656d7074790000000000000000006044820152606490fd5b346102a257610adc3661433a565b90600052600b602052604060002080548210156102a257602091610aff91614a0a565b90546040519160031b1c8152f35b346102a25760c03660031901126102a2576004356001600160401b0381116102a257610b3d903690600401614579565b6024356001600160401b0381116102a257610b5c903690600401614579565b90336000526000602052610b7a60ff60016040600020015416614ae2565b610b876044351515614cf3565b4260643511156110a3576084351561104c5760843560a4351115610fe15733600052600060205260443560026040600020015410610f9057610bca601054614ad3565b8060105560405192610bdb84614520565b8184528260208501526040840152604435606084015260643560808401523360a0840152600160c0840152600060e0840152600061010084015260843561012084015260a4356101408401526000610160840152600052600d60205260406000208251815560208301519283516001600160401b03811161093257610c636001840154614675565b601f8111610f49575b506020601f8211600114610eda578192939495600092610ecf575b50508160011b916000199060031b1c19161760018301555b60408101518051906001600160401b03821161093257610cc26002850154614675565b601f8111610e88575b50602090601f8311600114610e12579180600a949261016094600092610e07575b50508160011b916000199060031b1c19161760028501555b60608101516003850155608081015160048501556005840160018060a01b03908160a08401511681549060ff60a01b60c0860151151560a01b16916affffffffffffffffffffff60a81b1617179055600685019060e0830151166001600160601b0360a01b82541617905561010081015160078501556101208101516008850155610140810151600985015501519101553360005260006020526002604060002001610db36044358254614ba0565b90556010547fa57590356b27448860a006f0265445002790351fe29648717df7ec7481c9e4df610dee604051936060855260608501906143be565b92604435602082015260643560408201528033940390a3005b015190508780610cec565b906002850160005260206000209160005b601f1985168110610e70575092600a94926001926101609583601f19811610610e57575b505050811b016002850155610d04565b015160001960f88460031b161c19169055878080610e47565b91926020600181928685015181550194019201610e23565b600285016000526020600020601f840160051c810160208510610ec8575b601f830160051c82018110610ebc575050610ccb565b60008155600101610ea6565b5080610ea6565b015190508580610c87565b6001840160005260206000209060005b601f1984168110610f31575060019394959683601f19811610610f18575b505050811b016001830155610c9f565b015160001960f88460031b161c19169055858080610f08565b9091602060018192858b015181550193019101610eea565b600184016000526020600020601f830160051c810160208410610f89575b601f830160051c82018110610f7d575050610c6c565b60008155600101610f67565b5080610f67565b60405162461bcd60e51b8152602060048201526024808201527f496e73756666696369656e742062616c616e636520746f206973737565207465604482015263373232b960e11b6064820152608490fd5b60405162461bcd60e51b815260206004820152603a60248201527f4d6178696d756d2062696420616d6f756e74206d75737420626520677265617460448201527f6572207468616e206d696e696d756d2062696420616d6f756e740000000000006064820152608490fd5b60405162461bcd60e51b815260206004820152602960248201527f4d696e696d756d2062696420616d6f756e74206d75737420626520677265617460448201526806572207468616e20360bc1b6064820152608490fd5b60405162461bcd60e51b815260206004820152601e60248201527f446561646c696e65206d75737420626520696e207468652066757475726500006044820152606490fd5b346102a25760203660031901126102a25760043560005260016020526040600020805460018060a01b0360018301541691611175611128600283016146af565b916003810154906111626005611140600484016146af565b920154946040519788978852602088015260c0604088015260c08701906143be565b91606086015284820360808601526143be565b9060a08301520390f35b346102a25760003660031901126102a257600580549061119e82614c2c565b906111ac6040519283614558565b828252601f196111bb84614c2c565b019260209336858501376111ce81614f48565b906111d881614f48565b9260005b82811061121f5761120486610519876112118b89604051968796606088526060880190614962565b918683039087015261499f565b90838203604085015261499f565b8061122c6112a5926149d3565b90546001600160a01b039160039190821b1c821661124a848b614c93565b5281611255846149d3565b905490831b1c1660005260008a526004604060002001546112768489614c93565b52611280836149d3565b9054911b1c1660005260008852826040600020015461129f8288614c93565b52614ad3565b6111dc565b346102a25760003660031901126102a2576040518060055480825282602080930160056000527f036b6384b5eca791c62761152d0c79bb0604c104a5fb6f4eb0703f3154bb3db09260005b858282106113205750505061130c92500383614558565b610519604051928284938452830190614962565b85546001600160a01b03168452600195860195889550930192016112f5565b346102a25760603660031901126102a2576024356001600160401b0381116102a25761136f903690600401614579565b6044356001600160401b0381116102a25761138e903690600401614579565b903360005260006020526113ac60ff60016040600020015416614ae2565b6113b96004351515614cf3565b805115611791576113cc82511515614b54565b600754906113d982614ad3565b6007556040516113e88161453c565b8281526020810133815260408201600435815260608301908482528660808501524260a0850152600060c0850152600060e0850152600c54600160401b8110156109325780600161143c9201600c556148af565b93909361177b5784518455516001840180546001600160a01b0319166001600160a01b0392909216919091179055516002830155518051906001600160401b0382116109325781906114916003850154614675565b601f8111611728575b50602090601f83116001146116b6576000926116ab575b50508160011b916000199060031b1c19161760038201555b60808201518051906001600160401b038211610932576114ec6004840154614675565b601f8111611664575b50602090601f83116001146115cb577f09569327b0ebac7ebd8d677c9f6449afaf57b97a2a0d523adc4a0ad31b3f00c79593836115b1969460e0946006946000926115c0575b50508160011b916000199060031b1c19161760048201555b60a08401516005820155019161157b60c08201511515849060ff801983541691151516179055565b0151151561ff0082549160081b169061ff00191617905561086460405192839260043584526060602085015260608401906143be565b828103604084015233966143be565b015190508b8061153b565b90601f198316916004850160005260206000209260005b81811061164c57508460e0946006947f09569327b0ebac7ebd8d677c9f6449afaf57b97a2a0d523adc4a0ad31b3f00c79a98946115b19a9860019510611633575b505050811b016004820155611553565b015160001960f88460031b161c191690558b8080611623565b929360206001819287860151815501950193016115e2565b600484016000526020600020601f840160051c8101602085106116a4575b601f830160051c820181106116985750506114f5565b60008155600101611682565b5080611682565b0151905087806114b1565b9250600384016000526020600020906000935b601f198416851061170d576001945083601f198116106116f4575b505050811b0160038201556114c9565b015160001960f88460031b161c191690558780806116e4565b818101518355602094850194600190930192909101906116c9565b909150600384016000526020600020601f840160051c810160208510611774575b90849392915b601f830160051c8201811061176557505061149a565b6000815585945060010161174f565b5080611749565b634e487b7160e01b600052600060045260246000fd5b60405162461bcd60e51b8152602060048201526016602482015275526561736f6e2063616e6e6f7420626520656d70747960501b6044820152606490fd5b346102a2576020806003193601126102a2576004356117ec614bad565b50801515806118ad575b15611874576000526001815260406000209060056040519261181784614505565b8054845260018101546001600160a01b031683850152611839600282016146af565b604085015260038101546060850152611854600482016146af565b6080850152015460a08301526105196040519282849384528301906147f2565b60405162461bcd60e51b8152600481018390526011602482015270125b9d985b1a59081c9958dbdc99081251607a1b6044820152606490fd5b506009548111156117f6565b346102a2576118c73661433a565b3360005260206000815260ff60016118e782826040600020015416614ae2565b84600052600d83526119058260056040600020015460a01c16615020565b84600052600d83526119206004604060002001544210615063565b84600052600e92838152604060002085600052815260018060a01b0392338484604060002001541603611b42578660005284825260406000208660005282528060046040600020015416611b055786600052848252604060002086600052825260046040600020018360ff1982541617905586600052600d8252600a60406000200180548015611aef5760001901905586600052600d8252836006604060002001541633146119f4575b3386887fb41c9b05054be45850ccc1da7d90c7b819cff855cfe0d14f16427398b286c9b6600080a4005b600092600095816000905b611a3c575b5050505090600d600692876000525260406000209060078201550191166001600160601b0360a01b82541617905582808080806119ca565b89600052600f8552604060002054811015611aea57818552604060002081600052855283600460406000200154161580611abf575b611a88575b90611a818392614ad3565b90916119ff565b60008a815282865260408082208383528752808220600201548c835284885281832084845288529120840154881698509550611a76565b50851580611a7157508960005281855260406000208160005285528560026040600020015410611a71565b611a04565b634e487b7160e01b600052601160045260246000fd5b60405162461bcd60e51b81526004810183905260156024820152742134b21030b63932b0b23c903bb4ba34323930bbb760591b6044820152606490fd5b60405162461bcd60e51b815260048101839052601c60248201527f4f6e6c79206269646465722063616e20776974686472617720626964000000006044820152606490fd5b346102a257611b95366147c8565b90600081600093600754945b858110611c7f575091611bb7611bc59383614ac6565b90808211611c775750614ba0565b611bce81614e83565b9360009160005b85811080611c6e575b15611c60576001611bee826148af565b50818060a01b0391829101541690841614611c12575b611c0d90614ad3565b611bd5565b92611c278186611c0d931015611c2f57614ad3565b939050611c04565b610551611c3b876148af565b50611c4f611c498a85614ba0565b91614e0b565b611c59828d614c93565b528a614c93565b604051806105198982614900565b50818410611bde565b9050866104f1565b9091506001611c8d826148af565b50818060a01b0391829101541690871614611cb4575b611cac90614ad3565b908391611ba1565b91611cc1611cac91614ad3565b929050611ca3565b346102a257611cd73661433a565b60095480831015611dc3578290611cef831515614be0565b80611cfa8484614ac6565b11611db2575b5050611d0b81614c43565b9160005b828110611d245760405180610519868261484d565b611d2e8183614ac6565b906001808301809311611aef57611dad926000526005602082815260406000209060405193611d5c85614505565b825485528201546001600160a01b031690840152611d7c600282016146af565b604084015260038101546060840152611d97600482016146af565b6080840152015460a08201526105468287614c93565b611d0f565b611dbc9250614ba0565b8183611d00565b60405162461bcd60e51b815260206004820152601b60248201527f4f66667365742065786365656473207265636f726420636f756e7400000000006044820152606490fd5b346102a25760003660031901126102a2576011546001600160a01b0390611e329082163314614a22565b601254620151808101809111611aef574210611fb157670de0b6b3a764000090814710611f6c5760055460009081805b828110611f0a5750505016908115611ec5578160005260006020526002604060002001805491808301809311611aef577f8e3a90176f65d9f17b62ae9970b50ff21e66bba05788435310f6e12c942b0b37926020925542601255604051908152a2005b60405162461bcd60e51b815260206004820152601a60248201527f4e6f20656c696769626c6520656e74697469657320666f756e640000000000006044820152606490fd5b84611f14826149d3565b90549060031b1c16806000526000602052604060002060ff60018201541680611f5f575b611f4d575b5050611f4890614ad3565b611e62565b600401549094509150611f4887611f3d565b5083600482015411611f38565b60405162461bcd60e51b815260206004820152601d60248201527f496e73756666696369656e7420636f6e74726163742062616c616e63650000006044820152606490fd5b60405162461bcd60e51b815260206004820152601c60248201527f546f6f20736f6f6e20746f206469737472696275746520626f6e7573000000006044820152606490fd5b346102a25761200a61201a6104dd3661433a565b600a5480821161055c5750614ba0565b61202381614fa6565b9160005b82811061203c576040518061051986826145cf565b6120468183614ac6565b906001808301809311611aef576120bf92600052600560026020908082526040600020916040519461207786614505565b83548652830154908501528101546001600160a01b0316604084015261209f600382016146af565b606084015260048101546080840152015460a08201526105468287614c93565b612027565b346102a25760003660031901126102a2576020600654604051908152f35b346102a2576020806003193601126102a257600435336000526000825261211360ff60016040600020015416614ae2565b80600052600d825261213260ff60056040600020015460a01c16615020565b80600052600d8252600460406000200154421061227b576000818152600d835260409020600601546001600160a01b0392908316156122415781600052600d8152826005604060002001541633036121fd577fb6da2d97c7be1b795c416cc5e17d479a1a6fb59b6e95214ee25aaaf42796c8029082600052600d815260076040600020946005860160ff60a01b1981541690556003860154600687019082825416600052600085526121ed6002604060002001918254614ac6565b90555416940154604051908152a3005b6064906040519062461bcd60e51b82526004820152601c60248201527f4f6e6c79206973737565722063616e2061776172642074656e646572000000006044820152fd5b6064906040519062461bcd60e51b825260048201526013602482015272139bc81d985b1a5908189a591cc8199bdd5b99606a1b6044820152fd5b60405162461bcd60e51b815260048101839052601e60248201527f54656e64657220646561646c696e6520686173206e6f742070617373656400006044820152606490fd5b346102a25760203660031901126102a2576001600160a01b036122e161449e565b1680600052600060205261230860ff60016040600020015416801580612386575b50614ca7565b60005260006020526060604060002060c060405191612326836144ea565b61232f816146af565b835260ff600182015416151560208401526002810154604084015260038101548484015260048101549283608082015260066005830154928360a08401520154928391015260405192835260208301526040820152f35b905083612302565b346102a25760203660031901126102a25760043560005260026020526040600020805460018201549160018060a01b036002820154166124016123d3600384016146af565b600560048501549401549260405196879687526020870152604086015260c0606086015260c08501906143be565b91608084015260a08301520390f35b346102a25760203660031901126102a257600435600c548110156102a257612437906148af565b50805460018060a01b036001830154169160ff60028201546124aa61245e600385016146af565b61249c61246d600487016146af565b916006600588015497015494604051998a998a5260208a015260408901526101008060608a01528801906143be565b9086820360808801526143be565b9260a0850152818116151560c085015260081c16151560e08301520390f35b346102a2576124d73661433a565b90600052600e60205260406000209060005260205260a06040600020805490600180841b0360018201541690600281015460ff60046003840154930154169260405194855260208501526040840152606083015215156080820152f35b346102a25760003660031901126102a2576020604051670de0b6b3a76400008152f35b346102a257612565366147c8565b9060018060a01b0380931691826000526020936000855260019361259a60ff8660406000200154168015806127625750614ca7565b600854906000865b838111156127265750808610156126e357908587926125c2871515614be0565b806125cd8884614ac6565b116126d0575b505090506125e084614ef8565b9660009460009388805b6125fd575b604051806105198d82614350565b81811115806126c7575b156126c25790818a959493926000528b60038086526040600020908a898301541691888314612648575b5050505061263e90614ad3565b90919293946125ea565b8d8d959d101561266f575b5050505061266361263e91614ad3565b9890508b8d8080612631565b8a612663946126b89461263e979d94610551946040519261268f846144b4565b815484528d84015260028101546040840152015460608201526126b28383614c93565b52614c93565b97918d918f612653565b6125ef565b50828610612607565b6126db929650614ba0565b9385896125d3565b6064886040519062461bcd60e51b825280600483015260248201527f4f6666736574206578636565647320656e746974792066756e6420636f756e746044820152fd5b806000526003895282858960406000200154161461274d575b61274890614ad3565b6125a2565b9061275a61274891614ad3565b91905061273f565b905088612302565b346102a25760403660031901126102a25761278361449e565b6001600160a01b0316600081815260208181526040909120600101546024929183359160ff16156129775760018210158061296c575b15612929573360005260048152604060002083600052815260ff604060002054166128d757826000526000815260406000206005600482015491015490818102908082048314901517156128ad578361281191614ac6565b600182018092116128ad5781156128c257600591856000526000845260406000209104600482015501805490600182018092116128ad57907f174ba19ba3c8bb5c679c87e51db79fff7c3f04bb84c1fd55b7dacb470b674aa6929155836000526000815242600660406000200155336000526004815260406000208460005281526040600020600160ff198254161790556040519283523392a3005b85634e487b7160e01b60005260116004526000fd5b85634e487b7160e01b60005260126004526000fd5b6084906026856040519262461bcd60e51b845260048401528201527f596f75206861766520616c726561647920766f74656420666f72207468697320604482015265656e7469747960d01b6064820152fd5b606490601e856040519262461bcd60e51b845260048401528201527f526174696e67206d757374206265206265747765656e203120616e64203500006044820152fd5b5060058211156127b9565b6064906014856040519262461bcd60e51b8452600484015282015273456e74697479206973206e6f742061637469766560601b6044820152fd5b346102a25760203660031901126102a2576001600160a01b036129d261449e565b166000526004602052604060002033600052602052602060ff604060002054166040519015158152f35b346102a25760003660031901126102a257612a2260018060a01b03601154163314614a22565b602047604051908152f35b346102a25760003660031901126102a2576011546040516001600160a01b039091168152602090f35b346102a25760003660031901126102a2576020600554604051908152f35b346102a25760003660031901126102a2576020600754604051908152f35b346102a25760203660031901126102a25760043560018060a01b03612abc81601154163314614a22565b612ac96007548310614d3f565b6001612ad4836148af565b5060068101610100815460ff81161580612b25575b612af290614d80565b61ff001916179055015416907f4323a3f8bbbcf284e67a4932738f0f8fe465297d522b256e4f863ffbbf22c7ee600080a3005b50600881901c60ff1615612ae9565b612b3d3661433a565b81600052600d6020818152612b5f60ff60056040600020015460a01c16615020565b83600052818152612b796004604060002001544210615063565b600084815282825260409020600501546001600160a01b03949085163314612dc857806000528282526008604060002001548410612d8357806000528282526009604060002001548411612d3e57833403612cf95780600052600f82526040600020805490612be782614ad3565b9055612c75604051612bf8816144cf565b828152600485820198338a5260408301898152606084019042825260808501926000845288600052600e8a526040600020886000528a52604060002095518655600186019c51169b6001600160601b0360a01b9c8d82541617905551600285015551600384015551151591019060ff801983541691151516179055565b81600052838352600a604060002001612c8e8154614ad3565b905560405190858252827f6f7e354ea3ab5c288aea37fce29c603f9a98a3b040f6d8f32f10e192ec47ff6a853394a4600052526040600020600781019182548015908115612cef575b50612cde57005b909155600601805490911633179055005b9050811085612cd7565b60405162461bcd60e51b815260048101839052601960248201527f496e636f72726563742045544820616d6f756e742073656e74000000000000006044820152606490fd5b60405162461bcd60e51b815260048101839052601860248201527f42696420616d6f756e742061626f7665206d6178696d756d00000000000000006044820152606490fd5b60405162461bcd60e51b815260048101839052601860248201527f42696420616d6f756e742062656c6f77206d696e696d756d00000000000000006044820152606490fd5b60405162461bcd60e51b815260048101839052601760248201527f4973737565722063616e6e6f7420706c616365206269640000000000000000006044820152606490fd5b346102a2576020806003193601126102a257600435612e2a6150af565b5080151580612f31575b15612ef857600052600d8152604060002090600a60405192612e5584614520565b80548452612e65600182016146af565b83850152612e75600282016146af565b60408501526003810154606085015260048101546080850152600581015460ff60018060a01b039182811660a088015260a01c16151560c086015260068201541660e085015260078101546101008501526008810154610120850152600981015461014085015201546101608301526105196040519282849384528301906143fe565b60405162461bcd60e51b8152600481018390526011602482015270125b9d985b1a59081d195b99195c881251607a1b6044820152606490fd5b50601054811115612e34565b346102a257612f4b366147c8565b9060018060a01b038093169182600052602060008152600193612f7f60ff8660406000200154168015806127625750614ca7565b600954906000865b8381111561312f5750808610156130df578590612fa5861515614be0565b80612fb08784614ac6565b116130cc575b5050612fc184614c43565b9660009460009388805b612fde575b604051806105198d8261484d565b81811115806130c3575b156130be5790818a9493926000528488528b6040600020858782015416888114613022575b50505061301990614ad3565b90919293612fcb565b908a918d8d959d101561304b575b5050505061304061301991614ad3565b9890508b8d8061300d565b8a613040946130b1946005613019989e95610551956040519361306d85614505565b82548552840152613080600282016146af565b60408401526003810154606084015261309b600482016146af565b6080840152015460a08201526126b28383614c93565b979150508b888e80613030565b612fd0565b50828610612fe8565b6130d7929550614ba0565b928488612fb6565b60405162461bcd60e51b815260048101859052602260248201527f4f6666736574206578636565647320656e74697479207265636f726420636f756044820152611b9d60f21b6064820152608490fd5b80600052878552828989604060002001541614613155575b61315090614ad3565b612f87565b9061316261315091614ad3565b919050613147565b346102a25760203660031901126102a25761051961319d61053660043561318f614dcc565b506105316007548210614d3f565b604051918291602083526020830190614755565b346102a25760403660031901126102a2576131ca61449e565b6001600160a01b0360243581811692908390036102a257166000526004602052604060002090600052602052602060ff604060002054166040519015158152f35b346102a25760003660031901126102a2576020600854604051908152f35b346102a25760203660031901126102a257600435600052600d60205260406000208054613258600183016146af565b91613265600282016146af565b6003820154916004810154600582015460018060a01b039060ff82600686015416916007860154936008870154956132cd600a60098a0154990154996132bf6040519e8f9e8f9081526101809081602082015201906143be565b8d810360408f0152906143be565b9960608c015260808b0152811660a08a015260a01c16151560c088015260e08701526101008601526101208501526101408401526101608301520390f35b346102a2576020806003193601126102a257600435600052600b81526040600020604051808284829454938481520190600052846000209260005b868282106133da578461335b81860382614558565b6133658151614fa6565b9160005b82518110156133cc57806133806133c79285614c93565b516000526002808452600560406000206040519261339d84614505565b815484526001820154878501528101546001600160a01b0316604084015261209f600382016146af565b613369565b6040518061051986826145cf565b8554845260019586019587955093019201613346565b346102a2576020806003193601126102a25760043590336000526000815261342260ff60016040600020015416614ae2565b81600052600d815261344160ff60056040600020015460a01c16615020565b6000828152600d825260409020600501546001600160a01b039190821633036134e557600090838252600d815261348060046040842001544210615063565b838252600d815260408220926003600585019485549560ff60a01b1987169055015493168252526134ba6002604060002001918254614ac6565b905533907f116bcf29f123d8a1761e1b9bebbc345a1f08879dafde27b887a89e6e0b7af019600080a3005b6064906040519062461bcd60e51b82526004820152601d60248201527f4f6e6c79206973737565722063616e2063616e63656c2074656e6465720000006044820152fd5b346102a25760403660031901126102a25761354261449e565b6001600160401b03906024358281116102a257613563903690600401614579565b9161357960018060a01b03601154163314614a22565b6001600160a01b0382161561387c57825115613837576001600160a01b03821660009081526020819052604090206001015460ff166137e6576040516135be816144ea565b83815260016020820152600060408201526000606082015260006080820152600060a0820152600060c082015260018060a01b038316600052600060205260406000209181518051918211610932576136178454614675565b601f81116137a2575b50602090601f83116001146137335791806006949260c094600092613728575b50508160011b916000199060031b1c19161784555b61367460208201511515600186019060ff801983541691151516179055565b60408101516002850155606081015160038501556080810151600485015560a081015160058501550151910155600554600160401b811015610932577f1b7e3d9f922be54960ce9bea1d47b9b6ea18bbafb4e0fdeedc5e2a668e8fdaf8916136e582600161372394016005556149d3565b81549060031b9060018060a01b038416821b9160018060a01b03901b19161790556040519182916020835260018060a01b03169460208301906143be565b0390a2005b015190508880613640565b908460005260206000209160005b601f198516811061378a5750926006949260019260c09583601f19811610613771575b505050811b018455613655565b015160001960f88460031b161c19169055888080613764565b91926020600181928685015181550194019201613741565b846000526020600020601f840160051c8101602085106137df575b601f830160051c820181106137d3575050613620565b600081556001016137bd565b50806137bd565b60405162461bcd60e51b8152602060048201526024808201527f456e7469747920616c7265616479207265676973746572656420616e642061636044820152637469766560e01b6064820152608490fd5b60405162461bcd60e51b815260206004820152601b60248201527f456e74697479206e616d652063616e6e6f7420626520656d70747900000000006044820152606490fd5b60405162461bcd60e51b815260206004820152601d60248201527f456e7469747920616464726573732063616e6e6f74206265207a65726f0000006044820152606490fd5b346102a25760603660031901126102a2576001600160401b036024358181116102a2576138f2903690600401614579565b9033600052600060205261391060ff60016040600020015416614ae2565b600435600052600160205260018060a01b039033826001604060002001541603613c46576139416044351515614cf3565b825115613c015733600052600060205260443560036040600020015410613bbd5733600052600060205260036040600020016139806044358254614ba0565b905561398d600a54614ad3565b9081600a556040519161399f83614505565b808352602083019360043585526040840190338252606085019287845260443560808701524260a0870152600052600260205260406000209585518755516001870155600286019151166001600160601b0360a01b82541617905551805191821161093257613a116003850154614675565b601f8111613b76575b50602090601f8311600114613b015791806005949260a094600092613af6575b50508160011b916000199060031b1c19161760038501555b608081015160048501550151910155600435600052600b6020526040600020600a54908054600160401b81101561093257613a9291600182018155614a0a565b819291549060031b91821b91600019901b1916179055600a54613ac0604051926040845260408401906143be565b9060443560208401527f6a6b3e9a68b09e7e4efa25d186c63204b5ceb3777d516eb58090aff71935dbc1339380600435940390a4005b015190508780613a3a565b906003850160005260206000209160005b601f1985168110613b5e5750926005949260019260a09583601f19811610613b45575b505050811b016003850155613a52565b015160001960f88460031b161c19169055878080613b35565b91926020600181928685015181550194019201613b12565b600385016000526020600020601f840160051c810160208510613bb6575b601f830160051c82018110613baa575050613a1a565b60008155600101613b94565b5080613b94565b606460405162461bcd60e51b815260206004820152602060248201527f496e73756666696369656e74206e656564546f5370656e642062616c616e63656044820152fd5b60405162461bcd60e51b815260206004820152601b60248201527f4465736372697074696f6e2063616e6e6f7420626520656d70747900000000006044820152606490fd5b608460405162461bcd60e51b815260206004820152604060248201527f4e6f7420617574686f72697a656420746f20616464206d6963726f2d7472616e60448201527f73616374696f6e7320746f2074686973207370656e64696e67207265636f72646064820152fd5b346102a25760203660031901126102a25760043560005260036020526080604060002080549060018060a01b03600182015416906003600282015491015491604051938452602084015260408301526060820152f35b346102a25760203660031901126102a2576001600160a01b03613d2761449e565b16806000526000602052613d4d60ff600160406000200154168015806123865750614ca7565b6000526000602052613dd06040600020604051613d69816144ea565b613d72826146af565b9182825260ff60018201541615159182602082015260028201549081604082015260c0600660038501549485606085015260048101546080850152600581015460a085015201549101526040519485946080865260808601906143be565b926020850152604084015260608301520390f35b346102a25760203660031901126102a257600435613e00614ed3565b5080151580613ec0575b15613e8957600052600360205260806040600020600360405191613e2d836144b4565b8054835260018060a01b0360018201541660208401526002810154604084015201546060820152613e876040518092606080918051845260018060a01b036020820151166020850152604081015160408501520151910152565bf35b60405162461bcd60e51b815260206004820152600f60248201526e125b9d985b1a5908199d5b99081251608a1b6044820152606490fd5b50600854811115613e0a565b346102a25760203660031901126102a25760043560018060a01b03613ef681601154163314614a22565b613f036007548310614d3f565b613f0c826148af565b50600681016001815460ff81161580613f85575b613f2990614d80565b60ff191617905560016002820154910190828254166000526000602052613f596002604060002001918254614ac6565b90555416907f2f14cf4ee725545bfe00e4128e96a1c8143718c3738cb5395484377ea6743630600080a3005b50600881901c60ff1615613f20565b346102a25760003660031901126102a2576020601054604051908152f35b346102a257613fc9613fc33661433a565b9061510b565b60405160209182820192808352815180945260408301938160408260051b8601019301916000955b828710613ffe5785850386f35b90919293828061401a600193603f198a820301865288516143fe565b9601920196019592919092613ff1565b346102a25760203660031901126102a257600435600052600f6020526020604060002054604051908152f35b346102a2576020806003193601126102a2576004359081600052600f815260406000205461408381614c2c565b926140916040519485614558565b818452601f196140a083614c2c565b018360005b8281106141a45750505060005b82811061412957604080518581528651818701819052878701928201908760005b8281106140e05784840385f35b855180518552808301516001600160a01b03168584015260408082015190860152606080820151908601526080908101511515908501529481019460a0909301926001016140d3565b61419f9082600052600e85526040600020816000528552604060002060ff600460405192614156846144cf565b8054845260018101546001600160a01b0316898501526002810154604085015260038101546060850152015416151560808201526141948288614c93565b526105518187614c93565b6140b2565b6040516141b0816144cf565b600081526000838201526000604082015260006060820152600060808201528282890101520184906140a5565b346102a2576141eb3661433a565b600854808310156142b5578290614203831515614be0565b8061420e8484614ac6565b116142a4575b505061421f81614ef8565b9160005b82811061423857604051806105198682614350565b6142428183614ac6565b906001808301809311611aef5761429f926000526003602081815260406000209060405193614270856144b4565b825485528201546001600160a01b03169084015260028101546040840152015460608201526105468287614c93565b614223565b6142ae9250614ba0565b8183614214565b606460405162461bcd60e51b815260206004820152602060248201527f4f66667365742065786365656473206973737565642066756e6420636f756e746044820152fd5b346102a25760003660031901126102a2576020604051620151808152f35b346102a25760003660031901126102a2576020614332614f7a565b604051908152f35b60409060031901126102a2576004359060243590565b6020908160408183019282815285518094520193019160005b828110614377575050505090565b90919293826080826143b26001948951606080918051845260018060a01b036020820151166020850152604081015160408501520151910152565b01950193929101614369565b919082519283825260005b8481106143ea575050826000602080949584010152601f8019910116010190565b6020818301810151848301820152016143c9565b908151815261443161441f60208401516101808060208601528401906143be565b604084015183820360408501526143be565b91606081015160608301526080810151608083015260018060a01b038060a08301511660a084015260c0820151151560c084015260e08201511660e08301526101008082015190830152610120808201519083015261014080820151908301526101608091015191015290565b600435906001600160a01b03821682036102a257565b608081019081106001600160401b0382111761093257604052565b60a081019081106001600160401b0382111761093257604052565b60e081019081106001600160401b0382111761093257604052565b60c081019081106001600160401b0382111761093257604052565b61018081019081106001600160401b0382111761093257604052565b61010081019081106001600160401b0382111761093257604052565b90601f801991011681019081106001600160401b0382111761093257604052565b81601f820112156102a2578035906001600160401b03821161093257604051926145ad601f8401601f191660200185614558565b828452602083830101116102a257816000926020809301838601378301015290565b602080820190808352835180925260409283810182858560051b8401019601946000925b858410614604575050505050505090565b909192939495968580600192603f198582030187528a5190815181528282015183820152848060a01b038783015116878201526146506060808401519060c080918501528301906143be565b916080808201519083015260a0809101519101529901940194019295949391906145f3565b90600182811c921680156146a5575b602083101461468f57565b634e487b7160e01b600052602260045260246000fd5b91607f1691614684565b90604051918260008254926146c384614675565b90818452600194858116908160001461473257506001146146ef575b50506146ed92500383614558565b565b9093915060005260209081600020936000915b81831061471a5750506146ed935082010138806146df565b85548884018501529485019487945091830191614702565b9150506146ed94506020925060ff191682840152151560051b82010138806146df565b908151815260018060a01b0360208301511660208201526040820151604082015260e0806147a761479560608601516101008060608801528601906143be565b608086015185820360808701526143be565b9360a081015160a085015260c0810151151560c08501520151151591015290565b60609060031901126102a2576004356001600160a01b03811681036102a257906024359060443590565b908151815260018060a01b03602083015116602082015260a080614844614828604086015160c0604087015260c08601906143be565b60608601516060860152608086015185820360808701526143be565b93015191015290565b602080820190808352835180925260408301928160408460051b8301019501936000915b8483106148815750505050505090565b909192939495848061489f600193603f198682030187528a516147f2565b9801930193019194939290614871565b600c548110156148ea57600790600c600052027fdf6966c971051c3d54ec59162606531493a51404a002842f56009d7e5cf4a8c70190600090565b634e487b7160e01b600052603260045260246000fd5b602080820190808352835180925260408301928160408460051b8301019501936000915b8483106149345750505050505090565b9091929394958480614952600193603f198682030187528a51614755565b9801930193019194939290614924565b90815180825260208080930193019160005b828110614982575050505090565b83516001600160a01b031685529381019392810192600101614974565b90815180825260208080930193019160005b8281106149bf575050505090565b8351855293810193928101926001016149b1565b6005548110156148ea5760056000527f036b6384b5eca791c62761152d0c79bb0604c104a5fb6f4eb0703f3154bb3db00190600090565b80548210156148ea5760005260206000200190600090565b15614a2957565b60405162461bcd60e51b815260206004820152602f60248201527f4f6e6c792063656e7472616c20676f7665726e6d656e742063616e207065726660448201526e37b936903a3434b99030b1ba34b7b760891b6064820152608490fd5b15614a8d57565b60405162461bcd60e51b8152602060048201526011602482015270456e74697479206e6f742061637469766560781b6044820152606490fd5b91908201809211611aef57565b6000198114611aef5760010190565b15614ae957565b60405162461bcd60e51b815260206004820152603760248201527f4f6e6c7920616374697665207265676973746572656420656e7469746965732060448201527f63616e20706572666f726d207468697320616374696f6e0000000000000000006064820152608490fd5b15614b5b57565b60405162461bcd60e51b815260206004820152601d60248201527f446f63756d656e7420686173682063616e6e6f7420626520656d7074790000006044820152606490fd5b91908203918211611aef57565b60405190614bba82614505565b600060a08382815282602082015260606040820152826060820152606060808201520152565b15614be757565b60405162461bcd60e51b815260206004820152601f60248201527f4c696d6974206d7573742062652067726561746572207468616e207a65726f006044820152606490fd5b6001600160401b0381116109325760051b60200190565b90614c4d82614c2c565b614c5a6040519182614558565b8281528092614c6b601f1991614c2c565b019060005b828110614c7c57505050565b602090614c87614bad565b82828501015201614c70565b80518210156148ea5760209160051b010190565b15614cae57565b60405162461bcd60e51b815260206004820152601760248201527f4e6f742061207265676973746572656420656e746974790000000000000000006044820152606490fd5b15614cfa57565b60405162461bcd60e51b815260206004820152601d60248201527f416d6f756e74206d7573742062652067726561746572207468616e20300000006044820152606490fd5b15614d4657565b60405162461bcd60e51b8152602060048201526012602482015271125b9d985b1a59081c995c5d595cdd08125160721b6044820152606490fd5b15614d8757565b60405162461bcd60e51b815260206004820152601960248201527f5265717565737420616c72656164792070726f636573736564000000000000006044820152606490fd5b60405190614dd98261453c565b8160e0600091828152826020820152826040820152606080820152606060808201528260a08201528260c08201520152565b90604051614e188161453c565b60e060ff600683958054855260018060a01b03600182015416602086015260028101546040860152614e4c600382016146af565b6060860152614e5d600482016146af565b6080860152600581015460a08601520154818116151560c085015260081c161515910152565b90614e8d82614c2c565b614e9a6040519182614558565b8281528092614eab601f1991614c2c565b019060005b828110614ebc57505050565b602090614ec7614dcc565b82828501015201614eb0565b60405190614ee0826144b4565b60006060838281528260208201528260408201520152565b90614f0282614c2c565b614f0f6040519182614558565b8281528092614f20601f1991614c2c565b019060005b828110614f3157505050565b602090614f3c614ed3565b82828501015201614f25565b90614f5282614c2c565b614f5f6040519182614558565b8281528092614f70601f1991614c2c565b0190602036910137565b601254620151808101809111611aef5780421015614fa057614f9d904290614ba0565b90565b50600090565b90614fb082614c2c565b604090614fbf82519182614558565b8381528093614fd0601f1991614c2c565b019160005b838110614fe25750505050565b6020908251614ff081614505565b600081528260008183015260008583015260608083015260006080830152600060a0830152828601015201614fd5565b1561502757565b60405162461bcd60e51b815260206004820152601460248201527354656e646572206973206e6f742061637469766560601b6044820152606490fd5b1561506a57565b60405162461bcd60e51b815260206004820152601a60248201527f54656e64657220646561646c696e6520686173207061737365640000000000006044820152606490fd5b604051906150bc82614520565b8161016060009182815260606020820152606060408201528260608201528260808201528260a08201528260c08201528260e08201528261010082015282610120820152826101408201520152565b9060105480831015615276578290615124831515614be0565b8061512f8484614ac6565b11615265575b505061514081614c2c565b9160409061515082519485614558565b828452601f1961515f84614c2c565b0160005b81811061524e57505060005b83811061517d575050505090565b6151878183614ac6565b906001808301809311611aef5761524992600052600a6020600d815286600020906151c28851946151b786614520565b8354865283016146af565b908401526151d2600282016146af565b878401526003810154606084015260048101546080840152600581015460ff60018060a01b039160a0838216818801521c16151560c085015260068201541660e084015260078101546101008401526008810154610120840152600981015461014084015201546101608201526141948288614c93565b61516f565b6020906152596150af565b82828901015201615163565b61526f9250614ba0565b8138615135565b505050604051602081018181106001600160401b0382111761093257604052600081529056fea26469706673582212206480b7b3dfc59a0469dc7f0eb2044579cd8d6c514f1d4fc4b33b455205a013e764736f6c63430008130033","opcodes":"PUSH1 0x80 DUP1 PUSH1 0x40 MSTORE CALLVALUE PUSH2 0x2C JUMPI PUSH1 0x11 DUP1 SLOAD PUSH1 0x1 PUSH1 0x1 PUSH1 0xA0 SHL SUB NOT AND CALLER OR SWAP1 SSTORE TIMESTAMP PUSH1 0x12 SSTORE PUSH2 0x52D2 SWAP1 DUP2 PUSH2 0x32 DUP3 CODECOPY RETURN JUMPDEST PUSH1 0x0 DUP1 REVERT INVALID PUSH1 0x80 PUSH1 0x40 MSTORE PUSH1 0x4 CALLDATASIZE LT ISZERO PUSH2 0x12 JUMPI PUSH1 0x0 DUP1 REVERT JUMPDEST PUSH1 0x0 CALLDATALOAD PUSH1 0xE0 SHR DUP1 PUSH4 0x241A443 EQ PUSH2 0x4317 JUMPI DUP1 PUSH4 0xF780B56 EQ PUSH2 0x42F9 JUMPI DUP1 PUSH4 0x12216C07 EQ PUSH2 0x41DD JUMPI DUP1 PUSH4 0x131D9A27 EQ PUSH2 0x4056 JUMPI DUP1 PUSH4 0x15CF4B6E EQ PUSH2 0x402A JUMPI DUP1 PUSH4 0x1DFD9542 EQ PUSH2 0x3FB2 JUMPI DUP1 PUSH4 0x1F058776 EQ PUSH2 0x3F94 JUMPI DUP1 PUSH4 0x21464BFE EQ PUSH2 0x3ECC JUMPI DUP1 PUSH4 0x2A9544D7 EQ PUSH2 0x3DE4 JUMPI DUP1 PUSH4 0x2BE837EC EQ PUSH2 0x3D06 JUMPI DUP1 PUSH4 0x2C71474D EQ PUSH2 0x3CB0 JUMPI DUP1 PUSH4 0x2F0B6F72 EQ PUSH2 0x38C1 JUMPI DUP1 PUSH4 0x32B3F568 EQ PUSH2 0x3529 JUMPI DUP1 PUSH4 0x3A74E070 EQ PUSH2 0x33F0 JUMPI DUP1 PUSH4 0x44C6BC77 EQ PUSH2 0x330B JUMPI DUP1 PUSH4 0x465E1DEF EQ PUSH2 0x3229 JUMPI DUP1 PUSH4 0x4A572AE3 EQ PUSH2 0x320B JUMPI DUP1 PUSH4 0x4D4D2B1C EQ PUSH2 0x31B1 JUMPI DUP1 PUSH4 0x4DFA8434 EQ PUSH2 0x316A JUMPI DUP1 PUSH4 0x4FB1C4BE EQ PUSH2 0x2F3D JUMPI DUP1 PUSH4 0x53EE895D EQ PUSH2 0x2E0D JUMPI DUP1 PUSH4 0x57C90DE5 EQ PUSH2 0x2B34 JUMPI DUP1 PUSH4 0x58E9F12E EQ PUSH2 0x2A92 JUMPI DUP1 PUSH4 0x5BADBE4C EQ PUSH2 0x2A74 JUMPI DUP1 PUSH4 0x5D1B45B5 EQ PUSH2 0x2A56 JUMPI DUP1 PUSH4 0x5DBE526F EQ PUSH2 0x2A2D JUMPI DUP1 PUSH4 0x6F9FB98A EQ PUSH2 0x29FC JUMPI DUP1 PUSH4 0x709EDDB0 EQ PUSH2 0x29B1 JUMPI DUP1 PUSH4 0x73236A5B EQ PUSH2 0x276A JUMPI DUP1 PUSH4 0x73901F9F EQ PUSH2 0x2557 JUMPI DUP1 PUSH4 0x74863D90 EQ PUSH2 0x2534 JUMPI DUP1 PUSH4 0x7B3C4BAA EQ PUSH2 0x24C9 JUMPI DUP1 PUSH4 0x80EE37FA EQ PUSH2 0x2410 JUMPI DUP1 PUSH4 0x818F994D EQ PUSH2 0x238E JUMPI DUP1 PUSH4 0x8876AC41 EQ PUSH2 0x22C0 JUMPI DUP1 PUSH4 0x8FDEE0C5 EQ PUSH2 0x20E2 JUMPI DUP1 PUSH4 0x900407BC EQ PUSH2 0x20C4 JUMPI DUP1 PUSH4 0x9A0FC036 EQ PUSH2 0x1FF6 JUMPI DUP1 PUSH4 0x9A35646F EQ PUSH2 0x1E08 JUMPI DUP1 PUSH4 0xA089126D EQ PUSH2 0x1CC9 JUMPI DUP1 PUSH4 0xA30C3519 EQ PUSH2 0x1B87 JUMPI DUP1 PUSH4 0xA5735662 EQ PUSH2 0x18B9 JUMPI DUP1 PUSH4 0xA88C113A EQ PUSH2 0x17CF JUMPI DUP1 PUSH4 0xB041F480 EQ PUSH2 0x133F JUMPI DUP1 PUSH4 0xB17972F9 EQ PUSH2 0x12AA JUMPI DUP1 PUSH4 0xBA51F822 EQ PUSH2 0x117F JUMPI DUP1 PUSH4 0xBAC5D8F9 EQ PUSH2 0x10E8 JUMPI DUP1 PUSH4 0xC4BCE418 EQ PUSH2 0xB0D JUMPI DUP1 PUSH4 0xC7C258F2 EQ PUSH2 0xACE JUMPI DUP1 PUSH4 0xDEA1F581 EQ PUSH2 0x5FE JUMPI DUP1 PUSH4 0xDF619AD7 EQ PUSH2 0x564 JUMPI DUP1 PUSH4 0xE620F3A0 EQ PUSH2 0x4C9 JUMPI DUP1 PUSH4 0xEA949519 EQ PUSH2 0x37A JUMPI DUP1 PUSH4 0xEC10BE39 EQ PUSH2 0x338 JUMPI DUP1 PUSH4 0xF24F8241 EQ PUSH2 0x2A7 JUMPI PUSH4 0xF349C1E5 EQ PUSH2 0x284 JUMPI PUSH1 0x0 DUP1 REVERT JUMPDEST CALLVALUE PUSH2 0x2A2 JUMPI PUSH1 0x0 CALLDATASIZE PUSH1 0x3 NOT ADD SLT PUSH2 0x2A2 JUMPI PUSH1 0x20 PUSH1 0x12 SLOAD PUSH1 0x40 MLOAD SWAP1 DUP2 MSTORE RETURN JUMPDEST PUSH1 0x0 DUP1 REVERT JUMPDEST CALLVALUE PUSH2 0x2A2 JUMPI PUSH1 0x20 CALLDATASIZE PUSH1 0x3 NOT ADD SLT PUSH2 0x2A2 JUMPI PUSH2 0x2C0 PUSH2 0x449E JUMP JUMPDEST PUSH1 0x11 SLOAD PUSH1 0x1 PUSH1 0x1 PUSH1 0xA0 SHL SUB SWAP2 SWAP1 PUSH2 0x2DA SWAP1 DUP4 AND CALLER EQ PUSH2 0x4A22 JUMP JUMPDEST AND DUP1 PUSH1 0x0 MSTORE PUSH1 0x0 PUSH1 0x20 MSTORE PUSH2 0x2F8 PUSH1 0xFF PUSH1 0x1 PUSH1 0x40 PUSH1 0x0 KECCAK256 ADD SLOAD AND PUSH2 0x4A86 JUMP JUMPDEST DUP1 PUSH1 0x0 MSTORE PUSH1 0x0 PUSH1 0x20 MSTORE PUSH1 0x1 PUSH1 0x40 PUSH1 0x0 KECCAK256 ADD PUSH1 0xFF NOT DUP2 SLOAD AND SWAP1 SSTORE PUSH32 0x99FDEEEC075823D23F0E1926979B27AAAB3C6D7FCCDBBEA8914592D98896D741 PUSH1 0x0 DUP1 LOG2 STOP JUMPDEST CALLVALUE PUSH2 0x2A2 JUMPI PUSH1 0x20 CALLDATASIZE PUSH1 0x3 NOT ADD SLT PUSH2 0x2A2 JUMPI PUSH1 0x4 CALLDATALOAD PUSH1 0x5 SLOAD DUP2 LT ISZERO PUSH2 0x2A2 JUMPI PUSH2 0x361 PUSH1 0x20 SWAP2 PUSH2 0x49D3 JUMP JUMPDEST SWAP1 SLOAD PUSH1 0x40 MLOAD PUSH1 0x3 SWAP3 SWAP1 SWAP3 SHL SHR PUSH1 0x1 PUSH1 0x1 PUSH1 0xA0 SHL SUB AND DUP2 MSTORE RETURN JUMPDEST PUSH1 0x40 CALLDATASIZE PUSH1 0x3 NOT ADD SLT PUSH2 0x2A2 JUMPI PUSH2 0x38E PUSH2 0x449E JUMP JUMPDEST PUSH1 0x24 CALLDATALOAD PUSH1 0x1 DUP1 PUSH1 0xA0 SHL SUB DUP1 SWAP3 PUSH2 0x3A9 DUP3 PUSH1 0x11 SLOAD AND CALLER EQ PUSH2 0x4A22 JUMP JUMPDEST AND SWAP2 DUP3 PUSH1 0x0 MSTORE PUSH1 0x20 SWAP1 PUSH1 0x0 DUP3 MSTORE PUSH2 0x3CA PUSH1 0xFF PUSH1 0x1 PUSH1 0x40 PUSH1 0x0 KECCAK256 ADD SLOAD AND PUSH2 0x4A86 JUMP JUMPDEST DUP3 CALLVALUE SUB PUSH2 0x486 JUMPI SWAP1 PUSH32 0x8102F9A1D31F6501D6C7E7DC50BC98598B6A71CFB3548FCB29A3BCEC04B63655 SWAP2 DUP5 PUSH1 0x0 MSTORE PUSH1 0x0 DUP3 MSTORE PUSH1 0x2 PUSH1 0x40 PUSH1 0x0 KECCAK256 ADD PUSH2 0x40F DUP6 DUP3 SLOAD PUSH2 0x4AC6 JUMP JUMPDEST SWAP1 SSTORE PUSH1 0x3 PUSH2 0x41E PUSH1 0x8 SLOAD PUSH2 0x4AD3 JUMP JUMPDEST DUP1 PUSH1 0x8 SSTORE PUSH1 0x40 MLOAD SWAP3 PUSH2 0x42F DUP5 PUSH2 0x44B4 JUMP JUMPDEST DUP2 DUP5 MSTORE DUP5 DUP5 ADD DUP9 DUP2 MSTORE PUSH1 0x40 DUP6 ADD SWAP2 DUP9 DUP4 MSTORE PUSH1 0x60 DUP7 ADD SWAP4 TIMESTAMP DUP6 MSTORE PUSH1 0x0 MSTORE DUP5 DUP8 MSTORE PUSH1 0x40 PUSH1 0x0 KECCAK256 SWAP6 MLOAD DUP7 SSTORE PUSH1 0x1 DUP7 ADD SWAP2 MLOAD AND PUSH1 0x1 PUSH1 0x1 PUSH1 0x60 SHL SUB PUSH1 0xA0 SHL DUP3 SLOAD AND OR SWAP1 SSTORE MLOAD PUSH1 0x2 DUP5 ADD SSTORE MLOAD SWAP2 ADD SSTORE PUSH1 0x8 SLOAD SWAP3 PUSH1 0x40 MLOAD SWAP1 DUP2 MSTORE LOG3 STOP JUMPDEST PUSH1 0x64 DUP3 PUSH1 0x40 MLOAD SWAP1 PUSH3 0x461BCD PUSH1 0xE5 SHL DUP3 MSTORE DUP1 PUSH1 0x4 DUP4 ADD MSTORE PUSH1 0x24 DUP3 ADD MSTORE PUSH32 0x53656E742076616C7565206D757374206D617463682074686520616D6F756E74 PUSH1 0x44 DUP3 ADD MSTORE REVERT JUMPDEST CALLVALUE PUSH2 0x2A2 JUMPI PUSH2 0x4E6 PUSH2 0x4F7 PUSH2 0x4DD CALLDATASIZE PUSH2 0x433A JUMP JUMPDEST SWAP3 DUP2 SWAP4 DUP3 PUSH2 0x4AC6 JUMP JUMPDEST PUSH1 0x7 SLOAD DUP1 DUP3 GT PUSH2 0x55C JUMPI JUMPDEST POP PUSH2 0x4BA0 JUMP JUMPDEST PUSH2 0x500 DUP2 PUSH2 0x4E83 JUMP JUMPDEST SWAP2 PUSH1 0x0 JUMPDEST DUP3 DUP2 LT PUSH2 0x51D JUMPI PUSH1 0x40 MLOAD DUP1 PUSH2 0x519 DUP7 DUP3 PUSH2 0x4900 JUMP JUMPDEST SUB SWAP1 RETURN JUMPDEST DUP1 PUSH2 0x53C PUSH2 0x536 PUSH2 0x531 PUSH2 0x557 SWAP5 DUP7 PUSH2 0x4AC6 JUMP JUMPDEST PUSH2 0x48AF JUMP JUMPDEST POP PUSH2 0x4E0B JUMP JUMPDEST PUSH2 0x546 DUP3 DUP8 PUSH2 0x4C93 JUMP JUMPDEST MSTORE PUSH2 0x551 DUP2 DUP7 PUSH2 0x4C93 JUMP JUMPDEST POP PUSH2 0x4AD3 JUMP JUMPDEST PUSH2 0x504 JUMP JUMPDEST SWAP1 POP DUP5 PUSH2 0x4F1 JUMP JUMPDEST CALLVALUE PUSH2 0x2A2 JUMPI PUSH1 0x20 CALLDATASIZE PUSH1 0x3 NOT ADD SLT PUSH2 0x2A2 JUMPI PUSH1 0x1 PUSH1 0x1 PUSH1 0xA0 SHL SUB PUSH2 0x585 PUSH2 0x449E JUMP JUMPDEST AND PUSH1 0x0 MSTORE PUSH1 0x0 PUSH1 0x20 MSTORE PUSH2 0x5D9 PUSH1 0x40 PUSH1 0x0 KECCAK256 PUSH2 0x59F DUP2 PUSH2 0x46AF JUMP JUMPDEST SWAP1 PUSH1 0xFF PUSH1 0x1 DUP3 ADD SLOAD AND SWAP1 PUSH1 0x2 DUP2 ADD SLOAD SWAP1 PUSH1 0x3 DUP2 ADD SLOAD PUSH1 0x4 DUP3 ADD SLOAD SWAP1 PUSH1 0x6 PUSH1 0x5 DUP5 ADD SLOAD SWAP4 ADD SLOAD SWAP4 PUSH1 0x40 MLOAD SWAP8 DUP9 SWAP8 PUSH1 0xE0 DUP10 MSTORE PUSH1 0xE0 DUP10 ADD SWAP1 PUSH2 0x43BE JUMP JUMPDEST SWAP6 ISZERO ISZERO PUSH1 0x20 DUP9 ADD MSTORE PUSH1 0x40 DUP8 ADD MSTORE PUSH1 0x60 DUP7 ADD MSTORE PUSH1 0x80 DUP6 ADD MSTORE PUSH1 0xA0 DUP5 ADD MSTORE PUSH1 0xC0 DUP4 ADD MSTORE SUB SWAP1 RETURN JUMPDEST CALLVALUE PUSH2 0x2A2 JUMPI PUSH1 0x60 CALLDATASIZE PUSH1 0x3 NOT ADD SLT PUSH2 0x2A2 JUMPI PUSH1 0x4 CALLDATALOAD PUSH1 0x1 PUSH1 0x1 PUSH1 0x40 SHL SUB DUP2 GT PUSH2 0x2A2 JUMPI PUSH2 0x62E SWAP1 CALLDATASIZE SWAP1 PUSH1 0x4 ADD PUSH2 0x4579 JUMP JUMPDEST PUSH1 0x44 CALLDATALOAD PUSH1 0x1 PUSH1 0x1 PUSH1 0x40 SHL SUB DUP2 GT PUSH2 0x2A2 JUMPI PUSH2 0x64D SWAP1 CALLDATASIZE SWAP1 PUSH1 0x4 ADD PUSH2 0x4579 JUMP JUMPDEST CALLER PUSH1 0x0 MSTORE PUSH1 0x0 PUSH1 0x20 MSTORE PUSH2 0x66A PUSH1 0xFF PUSH1 0x1 PUSH1 0x40 PUSH1 0x0 KECCAK256 ADD SLOAD AND PUSH2 0x4AE2 JUMP JUMPDEST DUP2 MLOAD ISZERO PUSH2 0xA89 JUMPI PUSH1 0x24 CALLDATALOAD ISZERO PUSH2 0xA45 JUMPI PUSH2 0x685 DUP2 MLOAD ISZERO ISZERO PUSH2 0x4B54 JUMP JUMPDEST CALLER PUSH1 0x0 MSTORE PUSH1 0x0 PUSH1 0x20 MSTORE PUSH1 0x24 CALLDATALOAD PUSH1 0x2 PUSH1 0x40 PUSH1 0x0 KECCAK256 ADD SLOAD LT PUSH2 0xA09 JUMPI CALLER PUSH1 0x0 MSTORE PUSH1 0x0 PUSH1 0x20 MSTORE PUSH1 0x2 PUSH1 0x40 PUSH1 0x0 KECCAK256 ADD PUSH2 0x6BD PUSH1 0x24 CALLDATALOAD DUP3 SLOAD PUSH2 0x4BA0 JUMP JUMPDEST SWAP1 SSTORE CALLER PUSH1 0x0 MSTORE PUSH1 0x0 PUSH1 0x20 MSTORE PUSH1 0x3 PUSH1 0x40 PUSH1 0x0 KECCAK256 ADD PUSH2 0x6DD PUSH1 0x24 CALLDATALOAD DUP3 SLOAD PUSH2 0x4AC6 JUMP JUMPDEST SWAP1 SSTORE PUSH2 0x6EA PUSH1 0x9 SLOAD PUSH2 0x4AD3 JUMP JUMPDEST DUP1 PUSH1 0x9 SSTORE PUSH1 0x40 MLOAD SWAP3 PUSH2 0x6FB DUP5 PUSH2 0x4505 JUMP JUMPDEST DUP2 DUP5 MSTORE PUSH1 0x20 DUP5 ADD SWAP2 CALLER DUP4 MSTORE PUSH1 0x40 DUP6 ADD SWAP2 DUP3 MSTORE PUSH1 0x24 CALLDATALOAD PUSH1 0x60 DUP7 ADD MSTORE DUP4 PUSH1 0x80 DUP7 ADD MSTORE TIMESTAMP PUSH1 0xA0 DUP7 ADD MSTORE PUSH1 0x0 MSTORE PUSH1 0x1 PUSH1 0x20 MSTORE PUSH1 0x40 PUSH1 0x0 KECCAK256 SWAP2 DUP5 MLOAD DUP4 SSTORE PUSH1 0x1 DUP4 ADD SWAP1 PUSH1 0x1 DUP1 PUSH1 0xA0 SHL SUB SWAP1 MLOAD AND PUSH1 0x1 PUSH1 0x1 PUSH1 0x60 SHL SUB PUSH1 0xA0 SHL DUP3 SLOAD AND OR SWAP1 SSTORE MLOAD SWAP3 DUP4 MLOAD PUSH1 0x1 PUSH1 0x1 PUSH1 0x40 SHL SUB DUP2 GT PUSH2 0x932 JUMPI PUSH2 0x772 PUSH1 0x2 DUP5 ADD SLOAD PUSH2 0x4675 JUMP JUMPDEST PUSH1 0x1F DUP2 GT PUSH2 0x9C2 JUMPI JUMPDEST POP PUSH1 0x20 PUSH1 0x1F DUP3 GT PUSH1 0x1 EQ PUSH2 0x953 JUMPI DUP2 SWAP3 SWAP4 SWAP5 SWAP6 PUSH1 0x0 SWAP3 PUSH2 0x948 JUMPI JUMPDEST POP POP DUP2 PUSH1 0x1 SHL SWAP2 PUSH1 0x0 NOT SWAP1 PUSH1 0x3 SHL SHR NOT AND OR PUSH1 0x2 DUP4 ADD SSTORE JUMPDEST PUSH1 0x60 DUP2 ADD MLOAD PUSH1 0x3 DUP4 ADD SSTORE PUSH1 0x80 DUP2 ADD MLOAD DUP1 MLOAD SWAP1 PUSH1 0x1 PUSH1 0x1 PUSH1 0x40 SHL SUB DUP3 GT PUSH2 0x932 JUMPI PUSH2 0x7DB PUSH1 0x4 DUP6 ADD SLOAD PUSH2 0x4675 JUMP JUMPDEST PUSH1 0x1F DUP2 GT PUSH2 0x8E7 JUMPI JUMPDEST POP PUSH1 0x20 SWAP1 PUSH1 0x1F DUP4 GT PUSH1 0x1 EQ PUSH2 0x874 JUMPI SWAP2 DUP1 PUSH1 0x5 SWAP5 SWAP3 PUSH1 0xA0 SWAP5 PUSH1 0x0 SWAP3 PUSH2 0x869 JUMPI JUMPDEST POP POP DUP2 PUSH1 0x1 SHL SWAP2 PUSH1 0x0 NOT SWAP1 PUSH1 0x3 SHL SHR NOT AND OR PUSH1 0x4 DUP6 ADD SSTORE JUMPDEST ADD MLOAD SWAP2 ADD SSTORE PUSH1 0x9 SLOAD PUSH32 0x1243A0379E4E37663C88F3BC1D8BDB9A3CA74F533BE3A0CF855F3F80CBF46715 PUSH1 0x40 MLOAD PUSH1 0x24 CALLDATALOAD DUP2 MSTORE PUSH1 0x40 PUSH1 0x20 DUP3 ADD MSTORE DUP1 PUSH2 0x864 CALLER SWAP6 PUSH1 0x40 DUP4 ADD SWAP1 PUSH2 0x43BE JUMP JUMPDEST SUB SWAP1 LOG3 STOP JUMPDEST ADD MLOAD SWAP1 POP DUP8 DUP1 PUSH2 0x804 JUMP JUMPDEST SWAP1 PUSH1 0x1F NOT DUP4 AND SWAP2 PUSH1 0x4 DUP7 ADD PUSH1 0x0 MSTORE PUSH1 0x20 PUSH1 0x0 KECCAK256 SWAP3 PUSH1 0x0 JUMPDEST DUP2 DUP2 LT PUSH2 0x8CF JUMPI POP SWAP3 PUSH1 0x1 SWAP3 DUP6 SWAP3 PUSH1 0xA0 SWAP7 PUSH1 0x5 SWAP9 SWAP7 LT PUSH2 0x8B6 JUMPI JUMPDEST POP POP POP DUP2 SHL ADD PUSH1 0x4 DUP6 ADD SSTORE PUSH2 0x81C JUMP JUMPDEST ADD MLOAD PUSH1 0x0 NOT PUSH1 0xF8 DUP5 PUSH1 0x3 SHL AND SHR NOT AND SWAP1 SSTORE DUP8 DUP1 DUP1 PUSH2 0x8A6 JUMP JUMPDEST SWAP3 SWAP4 PUSH1 0x20 PUSH1 0x1 DUP2 SWAP3 DUP8 DUP7 ADD MLOAD DUP2 SSTORE ADD SWAP6 ADD SWAP4 ADD PUSH2 0x88B JUMP JUMPDEST PUSH1 0x4 DUP6 ADD PUSH1 0x0 MSTORE PUSH1 0x20 PUSH1 0x0 KECCAK256 PUSH1 0x1F DUP5 ADD PUSH1 0x5 SHR DUP2 ADD SWAP2 PUSH1 0x20 DUP6 LT PUSH2 0x928 JUMPI JUMPDEST PUSH1 0x1F ADD PUSH1 0x5 SHR ADD SWAP1 JUMPDEST DUP2 DUP2 LT PUSH2 0x91C JUMPI POP PUSH2 0x7E4 JUMP JUMPDEST PUSH1 0x0 DUP2 SSTORE PUSH1 0x1 ADD PUSH2 0x90F JUMP JUMPDEST SWAP1 SWAP2 POP DUP2 SWAP1 PUSH2 0x906 JUMP JUMPDEST PUSH4 0x4E487B71 PUSH1 0xE0 SHL PUSH1 0x0 MSTORE PUSH1 0x41 PUSH1 0x4 MSTORE PUSH1 0x24 PUSH1 0x0 REVERT JUMPDEST ADD MLOAD SWAP1 POP DUP6 DUP1 PUSH2 0x796 JUMP JUMPDEST PUSH1 0x2 DUP5 ADD PUSH1 0x0 MSTORE PUSH1 0x20 PUSH1 0x0 KECCAK256 SWAP1 PUSH1 0x0 JUMPDEST PUSH1 0x1F NOT DUP5 AND DUP2 LT PUSH2 0x9AA JUMPI POP PUSH1 0x1 SWAP4 SWAP5 SWAP6 SWAP7 DUP4 PUSH1 0x1F NOT DUP2 AND LT PUSH2 0x991 JUMPI JUMPDEST POP POP POP DUP2 SHL ADD PUSH1 0x2 DUP4 ADD SSTORE PUSH2 0x7AE JUMP JUMPDEST ADD MLOAD PUSH1 0x0 NOT PUSH1 0xF8 DUP5 PUSH1 0x3 SHL AND SHR NOT AND SWAP1 SSTORE DUP6 DUP1 DUP1 PUSH2 0x981 JUMP JUMPDEST SWAP1 SWAP2 PUSH1 0x20 PUSH1 0x1 DUP2 SWAP3 DUP6 DUP12 ADD MLOAD DUP2 SSTORE ADD SWAP4 ADD SWAP2 ADD PUSH2 0x963 JUMP JUMPDEST PUSH1 0x2 DUP5 ADD PUSH1 0x0 MSTORE PUSH1 0x20 PUSH1 0x0 KECCAK256 PUSH1 0x1F DUP4 ADD PUSH1 0x5 SHR DUP2 ADD PUSH1 0x20 DUP5 LT PUSH2 0xA02 JUMPI JUMPDEST PUSH1 0x1F DUP4 ADD PUSH1 0x5 SHR DUP3 ADD DUP2 LT PUSH2 0x9F6 JUMPI POP POP PUSH2 0x77B JUMP JUMPDEST PUSH1 0x0 DUP2 SSTORE PUSH1 0x1 ADD PUSH2 0x9E0 JUMP JUMPDEST POP DUP1 PUSH2 0x9E0 JUMP JUMPDEST PUSH1 0x40 MLOAD PUSH3 0x461BCD PUSH1 0xE5 SHL DUP2 MSTORE PUSH1 0x20 PUSH1 0x4 DUP3 ADD MSTORE PUSH1 0x14 PUSH1 0x24 DUP3 ADD MSTORE PUSH20 0x496E73756666696369656E742062616C616E6365 PUSH1 0x60 SHL PUSH1 0x44 DUP3 ADD MSTORE PUSH1 0x64 SWAP1 REVERT JUMPDEST PUSH1 0x64 PUSH1 0x40 MLOAD PUSH3 0x461BCD PUSH1 0xE5 SHL DUP2 MSTORE PUSH1 0x20 PUSH1 0x4 DUP3 ADD MSTORE PUSH1 0x20 PUSH1 0x24 DUP3 ADD MSTORE PUSH32 0x416D6F756E74206D7573742062652067726561746572207468616E207A65726F PUSH1 0x44 DUP3 ADD MSTORE REVERT JUMPDEST PUSH1 0x40 MLOAD PUSH3 0x461BCD PUSH1 0xE5 SHL DUP2 MSTORE PUSH1 0x20 PUSH1 0x4 DUP3 ADD MSTORE PUSH1 0x17 PUSH1 0x24 DUP3 ADD MSTORE PUSH32 0x507572706F73652063616E6E6F7420626520656D707479000000000000000000 PUSH1 0x44 DUP3 ADD MSTORE PUSH1 0x64 SWAP1 REVERT JUMPDEST CALLVALUE PUSH2 0x2A2 JUMPI PUSH2 0xADC CALLDATASIZE PUSH2 0x433A JUMP JUMPDEST SWAP1 PUSH1 0x0 MSTORE PUSH1 0xB PUSH1 0x20 MSTORE PUSH1 0x40 PUSH1 0x0 KECCAK256 DUP1 SLOAD DUP3 LT ISZERO PUSH2 0x2A2 JUMPI PUSH1 0x20 SWAP2 PUSH2 0xAFF SWAP2 PUSH2 0x4A0A JUMP JUMPDEST SWAP1 SLOAD PUSH1 0x40 MLOAD SWAP2 PUSH1 0x3 SHL SHR DUP2 MSTORE RETURN JUMPDEST CALLVALUE PUSH2 0x2A2 JUMPI PUSH1 0xC0 CALLDATASIZE PUSH1 0x3 NOT ADD SLT PUSH2 0x2A2 JUMPI PUSH1 0x4 CALLDATALOAD PUSH1 0x1 PUSH1 0x1 PUSH1 0x40 SHL SUB DUP2 GT PUSH2 0x2A2 JUMPI PUSH2 0xB3D SWAP1 CALLDATASIZE SWAP1 PUSH1 0x4 ADD PUSH2 0x4579 JUMP JUMPDEST PUSH1 0x24 CALLDATALOAD PUSH1 0x1 PUSH1 0x1 PUSH1 0x40 SHL SUB DUP2 GT PUSH2 0x2A2 JUMPI PUSH2 0xB5C SWAP1 CALLDATASIZE SWAP1 PUSH1 0x4 ADD PUSH2 0x4579 JUMP JUMPDEST SWAP1 CALLER PUSH1 0x0 MSTORE PUSH1 0x0 PUSH1 0x20 MSTORE PUSH2 0xB7A PUSH1 0xFF PUSH1 0x1 PUSH1 0x40 PUSH1 0x0 KECCAK256 ADD SLOAD AND PUSH2 0x4AE2 JUMP JUMPDEST PUSH2 0xB87 PUSH1 0x44 CALLDATALOAD ISZERO ISZERO PUSH2 0x4CF3 JUMP JUMPDEST TIMESTAMP PUSH1 0x64 CALLDATALOAD GT ISZERO PUSH2 0x10A3 JUMPI PUSH1 0x84 CALLDATALOAD ISZERO PUSH2 0x104C JUMPI PUSH1 0x84 CALLDATALOAD PUSH1 0xA4 CALLDATALOAD GT ISZERO PUSH2 0xFE1 JUMPI CALLER PUSH1 0x0 MSTORE PUSH1 0x0 PUSH1 0x20 MSTORE PUSH1 0x44 CALLDATALOAD PUSH1 0x2 PUSH1 0x40 PUSH1 0x0 KECCAK256 ADD SLOAD LT PUSH2 0xF90 JUMPI PUSH2 0xBCA PUSH1 0x10 SLOAD PUSH2 0x4AD3 JUMP JUMPDEST DUP1 PUSH1 0x10 SSTORE PUSH1 0x40 MLOAD SWAP3 PUSH2 0xBDB DUP5 PUSH2 0x4520 JUMP JUMPDEST DUP2 DUP5 MSTORE DUP3 PUSH1 0x20 DUP6 ADD MSTORE PUSH1 0x40 DUP5 ADD MSTORE PUSH1 0x44 CALLDATALOAD PUSH1 0x60 DUP5 ADD MSTORE PUSH1 0x64 CALLDATALOAD PUSH1 0x80 DUP5 ADD MSTORE CALLER PUSH1 0xA0 DUP5 ADD MSTORE PUSH1 0x1 PUSH1 0xC0 DUP5 ADD MSTORE PUSH1 0x0 PUSH1 0xE0 DUP5 ADD MSTORE PUSH1 0x0 PUSH2 0x100 DUP5 ADD MSTORE PUSH1 0x84 CALLDATALOAD PUSH2 0x120 DUP5 ADD MSTORE PUSH1 0xA4 CALLDATALOAD PUSH2 0x140 DUP5 ADD MSTORE PUSH1 0x0 PUSH2 0x160 DUP5 ADD MSTORE PUSH1 0x0 MSTORE PUSH1 0xD PUSH1 0x20 MSTORE PUSH1 0x40 PUSH1 0x0 KECCAK256 DUP3 MLOAD DUP2 SSTORE PUSH1 0x20 DUP4 ADD MLOAD SWAP3 DUP4 MLOAD PUSH1 0x1 PUSH1 0x1 PUSH1 0x40 SHL SUB DUP2 GT PUSH2 0x932 JUMPI PUSH2 0xC63 PUSH1 0x1 DUP5 ADD SLOAD PUSH2 0x4675 JUMP JUMPDEST PUSH1 0x1F DUP2 GT PUSH2 0xF49 JUMPI JUMPDEST POP PUSH1 0x20 PUSH1 0x1F DUP3 GT PUSH1 0x1 EQ PUSH2 0xEDA JUMPI DUP2 SWAP3 SWAP4 SWAP5 SWAP6 PUSH1 0x0 SWAP3 PUSH2 0xECF JUMPI JUMPDEST POP POP DUP2 PUSH1 0x1 SHL SWAP2 PUSH1 0x0 NOT SWAP1 PUSH1 0x3 SHL SHR NOT AND OR PUSH1 0x1 DUP4 ADD SSTORE JUMPDEST PUSH1 0x40 DUP2 ADD MLOAD DUP1 MLOAD SWAP1 PUSH1 0x1 PUSH1 0x1 PUSH1 0x40 SHL SUB DUP3 GT PUSH2 0x932 JUMPI PUSH2 0xCC2 PUSH1 0x2 DUP6 ADD SLOAD PUSH2 0x4675 JUMP JUMPDEST PUSH1 0x1F DUP2 GT PUSH2 0xE88 JUMPI JUMPDEST POP PUSH1 0x20 SWAP1 PUSH1 0x1F DUP4 GT PUSH1 0x1 EQ PUSH2 0xE12 JUMPI SWAP2 DUP1 PUSH1 0xA SWAP5 SWAP3 PUSH2 0x160 SWAP5 PUSH1 0x0 SWAP3 PUSH2 0xE07 JUMPI JUMPDEST POP POP DUP2 PUSH1 0x1 SHL SWAP2 PUSH1 0x0 NOT SWAP1 PUSH1 0x3 SHL SHR NOT AND OR PUSH1 0x2 DUP6 ADD SSTORE JUMPDEST PUSH1 0x60 DUP2 ADD MLOAD PUSH1 0x3 DUP6 ADD SSTORE PUSH1 0x80 DUP2 ADD MLOAD PUSH1 0x4 DUP6 ADD SSTORE PUSH1 0x5 DUP5 ADD PUSH1 0x1 DUP1 PUSH1 0xA0 SHL SUB SWAP1 DUP2 PUSH1 0xA0 DUP5 ADD MLOAD AND DUP2 SLOAD SWAP1 PUSH1 0xFF PUSH1 0xA0 SHL PUSH1 0xC0 DUP7 ADD MLOAD ISZERO ISZERO PUSH1 0xA0 SHL AND SWAP2 PUSH11 0xFFFFFFFFFFFFFFFFFFFFFF PUSH1 0xA8 SHL AND OR OR SWAP1 SSTORE PUSH1 0x6 DUP6 ADD SWAP1 PUSH1 0xE0 DUP4 ADD MLOAD AND PUSH1 0x1 PUSH1 0x1 PUSH1 0x60 SHL SUB PUSH1 0xA0 SHL DUP3 SLOAD AND OR SWAP1 SSTORE PUSH2 0x100 DUP2 ADD MLOAD PUSH1 0x7 DUP6 ADD SSTORE PUSH2 0x120 DUP2 ADD MLOAD PUSH1 0x8 DUP6 ADD SSTORE PUSH2 0x140 DUP2 ADD MLOAD PUSH1 0x9 DUP6 ADD SSTORE ADD MLOAD SWAP2 ADD SSTORE CALLER PUSH1 0x0 MSTORE PUSH1 0x0 PUSH1 0x20 MSTORE PUSH1 0x2 PUSH1 0x40 PUSH1 0x0 KECCAK256 ADD PUSH2 0xDB3 PUSH1 0x44 CALLDATALOAD DUP3 SLOAD PUSH2 0x4BA0 JUMP JUMPDEST SWAP1 SSTORE PUSH1 0x10 SLOAD PUSH32 0xA57590356B27448860A006F0265445002790351FE29648717DF7EC7481C9E4DF PUSH2 0xDEE PUSH1 0x40 MLOAD SWAP4 PUSH1 0x60 DUP6 MSTORE PUSH1 0x60 DUP6 ADD SWAP1 PUSH2 0x43BE JUMP JUMPDEST SWAP3 PUSH1 0x44 CALLDATALOAD PUSH1 0x20 DUP3 ADD MSTORE PUSH1 0x64 CALLDATALOAD PUSH1 0x40 DUP3 ADD MSTORE DUP1 CALLER SWAP5 SUB SWAP1 LOG3 STOP JUMPDEST ADD MLOAD SWAP1 POP DUP8 DUP1 PUSH2 0xCEC JUMP JUMPDEST SWAP1 PUSH1 0x2 DUP6 ADD PUSH1 0x0 MSTORE PUSH1 0x20 PUSH1 0x0 KECCAK256 SWAP2 PUSH1 0x0 JUMPDEST PUSH1 0x1F NOT DUP6 AND DUP2 LT PUSH2 0xE70 JUMPI POP SWAP3 PUSH1 0xA SWAP5 SWAP3 PUSH1 0x1 SWAP3 PUSH2 0x160 SWAP6 DUP4 PUSH1 0x1F NOT DUP2 AND LT PUSH2 0xE57 JUMPI JUMPDEST POP POP POP DUP2 SHL ADD PUSH1 0x2 DUP6 ADD SSTORE PUSH2 0xD04 JUMP JUMPDEST ADD MLOAD PUSH1 0x0 NOT PUSH1 0xF8 DUP5 PUSH1 0x3 SHL AND SHR NOT AND SWAP1 SSTORE DUP8 DUP1 DUP1 PUSH2 0xE47 JUMP JUMPDEST SWAP2 SWAP3 PUSH1 0x20 PUSH1 0x1 DUP2 SWAP3 DUP7 DUP6 ADD MLOAD DUP2 SSTORE ADD SWAP5 ADD SWAP3 ADD PUSH2 0xE23 JUMP JUMPDEST PUSH1 0x2 DUP6 ADD PUSH1 0x0 MSTORE PUSH1 0x20 PUSH1 0x0 KECCAK256 PUSH1 0x1F DUP5 ADD PUSH1 0x5 SHR DUP2 ADD PUSH1 0x20 DUP6 LT PUSH2 0xEC8 JUMPI JUMPDEST PUSH1 0x1F DUP4 ADD PUSH1 0x5 SHR DUP3 ADD DUP2 LT PUSH2 0xEBC JUMPI POP POP PUSH2 0xCCB JUMP JUMPDEST PUSH1 0x0 DUP2 SSTORE PUSH1 0x1 ADD PUSH2 0xEA6 JUMP JUMPDEST POP DUP1 PUSH2 0xEA6 JUMP JUMPDEST ADD MLOAD SWAP1 POP DUP6 DUP1 PUSH2 0xC87 JUMP JUMPDEST PUSH1 0x1 DUP5 ADD PUSH1 0x0 MSTORE PUSH1 0x20 PUSH1 0x0 KECCAK256 SWAP1 PUSH1 0x0 JUMPDEST PUSH1 0x1F NOT DUP5 AND DUP2 LT PUSH2 0xF31 JUMPI POP PUSH1 0x1 SWAP4 SWAP5 SWAP6 SWAP7 DUP4 PUSH1 0x1F NOT DUP2 AND LT PUSH2 0xF18 JUMPI JUMPDEST POP POP POP DUP2 SHL ADD PUSH1 0x1 DUP4 ADD SSTORE PUSH2 0xC9F JUMP JUMPDEST ADD MLOAD PUSH1 0x0 NOT PUSH1 0xF8 DUP5 PUSH1 0x3 SHL AND SHR NOT AND SWAP1 SSTORE DUP6 DUP1 DUP1 PUSH2 0xF08 JUMP JUMPDEST SWAP1 SWAP2 PUSH1 0x20 PUSH1 0x1 DUP2 SWAP3 DUP6 DUP12 ADD MLOAD DUP2 SSTORE ADD SWAP4 ADD SWAP2 ADD PUSH2 0xEEA JUMP JUMPDEST PUSH1 0x1 DUP5 ADD PUSH1 0x0 MSTORE PUSH1 0x20 PUSH1 0x0 KECCAK256 PUSH1 0x1F DUP4 ADD PUSH1 0x5 SHR DUP2 ADD PUSH1 0x20 DUP5 LT PUSH2 0xF89 JUMPI JUMPDEST PUSH1 0x1F DUP4 ADD PUSH1 0x5 SHR DUP3 ADD DUP2 LT PUSH2 0xF7D JUMPI POP POP PUSH2 0xC6C JUMP JUMPDEST PUSH1 0x0 DUP2 SSTORE PUSH1 0x1 ADD PUSH2 0xF67 JUMP JUMPDEST POP DUP1 PUSH2 0xF67 JUMP JUMPDEST PUSH1 0x40 MLOAD PUSH3 0x461BCD PUSH1 0xE5 SHL DUP2 MSTORE PUSH1 0x20 PUSH1 0x4 DUP3 ADD MSTORE PUSH1 0x24 DUP1 DUP3 ADD MSTORE PUSH32 0x496E73756666696369656E742062616C616E636520746F206973737565207465 PUSH1 0x44 DUP3 ADD MSTORE PUSH4 0x373232B9 PUSH1 0xE1 SHL PUSH1 0x64 DUP3 ADD MSTORE PUSH1 0x84 SWAP1 REVERT JUMPDEST PUSH1 0x40 MLOAD PUSH3 0x461BCD PUSH1 0xE5 SHL DUP2 MSTORE PUSH1 0x20 PUSH1 0x4 DUP3 ADD MSTORE PUSH1 0x3A PUSH1 0x24 DUP3 ADD MSTORE PUSH32 0x4D6178696D756D2062696420616D6F756E74206D757374206265206772656174 PUSH1 0x44 DUP3 ADD MSTORE PUSH32 0x6572207468616E206D696E696D756D2062696420616D6F756E74000000000000 PUSH1 0x64 DUP3 ADD MSTORE PUSH1 0x84 SWAP1 REVERT JUMPDEST PUSH1 0x40 MLOAD PUSH3 0x461BCD PUSH1 0xE5 SHL DUP2 MSTORE PUSH1 0x20 PUSH1 0x4 DUP3 ADD MSTORE PUSH1 0x29 PUSH1 0x24 DUP3 ADD MSTORE PUSH32 0x4D696E696D756D2062696420616D6F756E74206D757374206265206772656174 PUSH1 0x44 DUP3 ADD MSTORE PUSH9 0x6572207468616E203 PUSH1 0xBC SHL PUSH1 0x64 DUP3 ADD MSTORE PUSH1 0x84 SWAP1 REVERT JUMPDEST PUSH1 0x40 MLOAD PUSH3 0x461BCD PUSH1 0xE5 SHL DUP2 MSTORE PUSH1 0x20 PUSH1 0x4 DUP3 ADD MSTORE PUSH1 0x1E PUSH1 0x24 DUP3 ADD MSTORE PUSH32 0x446561646C696E65206D75737420626520696E20746865206675747572650000 PUSH1 0x44 DUP3 ADD MSTORE PUSH1 0x64 SWAP1 REVERT JUMPDEST CALLVALUE PUSH2 0x2A2 JUMPI PUSH1 0x20 CALLDATASIZE PUSH1 0x3 NOT ADD SLT PUSH2 0x2A2 JUMPI PUSH1 0x4 CALLDATALOAD PUSH1 0x0 MSTORE PUSH1 0x1 PUSH1 0x20 MSTORE PUSH1 0x40 PUSH1 0x0 KECCAK256 DUP1 SLOAD PUSH1 0x1 DUP1 PUSH1 0xA0 SHL SUB PUSH1 0x1 DUP4 ADD SLOAD AND SWAP2 PUSH2 0x1175 PUSH2 0x1128 PUSH1 0x2 DUP4 ADD PUSH2 0x46AF JUMP JUMPDEST SWAP2 PUSH1 0x3 DUP2 ADD SLOAD SWAP1 PUSH2 0x1162 PUSH1 0x5 PUSH2 0x1140 PUSH1 0x4 DUP5 ADD PUSH2 0x46AF JUMP JUMPDEST SWAP3 ADD SLOAD SWAP5 PUSH1 0x40 MLOAD SWAP8 DUP9 SWAP8 DUP9 MSTORE PUSH1 0x20 DUP9 ADD MSTORE PUSH1 0xC0 PUSH1 0x40 DUP9 ADD MSTORE PUSH1 0xC0 DUP8 ADD SWAP1 PUSH2 0x43BE JUMP JUMPDEST SWAP2 PUSH1 0x60 DUP7 ADD MSTORE DUP5 DUP3 SUB PUSH1 0x80 DUP7 ADD MSTORE PUSH2 0x43BE JUMP JUMPDEST SWAP1 PUSH1 0xA0 DUP4 ADD MSTORE SUB SWAP1 RETURN JUMPDEST CALLVALUE PUSH2 0x2A2 JUMPI PUSH1 0x0 CALLDATASIZE PUSH1 0x3 NOT ADD SLT PUSH2 0x2A2 JUMPI PUSH1 0x5 DUP1 SLOAD SWAP1 PUSH2 0x119E DUP3 PUSH2 0x4C2C JUMP JUMPDEST SWAP1 PUSH2 0x11AC PUSH1 0x40 MLOAD SWAP3 DUP4 PUSH2 0x4558 JUMP JUMPDEST DUP3 DUP3 MSTORE PUSH1 0x1F NOT PUSH2 0x11BB DUP5 PUSH2 0x4C2C JUMP JUMPDEST ADD SWAP3 PUSH1 0x20 SWAP4 CALLDATASIZE DUP6 DUP6 ADD CALLDATACOPY PUSH2 0x11CE DUP2 PUSH2 0x4F48 JUMP JUMPDEST SWAP1 PUSH2 0x11D8 DUP2 PUSH2 0x4F48 JUMP JUMPDEST SWAP3 PUSH1 0x0 JUMPDEST DUP3 DUP2 LT PUSH2 0x121F JUMPI PUSH2 0x1204 DUP7 PUSH2 0x519 DUP8 PUSH2 0x1211 DUP12 DUP10 PUSH1 0x40 MLOAD SWAP7 DUP8 SWAP7 PUSH1 0x60 DUP9 MSTORE PUSH1 0x60 DUP9 ADD SWAP1 PUSH2 0x4962 JUMP JUMPDEST SWAP2 DUP7 DUP4 SUB SWAP1 DUP8 ADD MSTORE PUSH2 0x499F JUMP JUMPDEST SWAP1 DUP4 DUP3 SUB PUSH1 0x40 DUP6 ADD MSTORE PUSH2 0x499F JUMP JUMPDEST DUP1 PUSH2 0x122C PUSH2 0x12A5 SWAP3 PUSH2 0x49D3 JUMP JUMPDEST SWAP1 SLOAD PUSH1 0x1 PUSH1 0x1 PUSH1 0xA0 SHL SUB SWAP2 PUSH1 0x3 SWAP2 SWAP1 DUP3 SHL SHR DUP3 AND PUSH2 0x124A DUP5 DUP12 PUSH2 0x4C93 JUMP JUMPDEST MSTORE DUP2 PUSH2 0x1255 DUP5 PUSH2 0x49D3 JUMP JUMPDEST SWAP1 SLOAD SWAP1 DUP4 SHL SHR AND PUSH1 0x0 MSTORE PUSH1 0x0 DUP11 MSTORE PUSH1 0x4 PUSH1 0x40 PUSH1 0x0 KECCAK256 ADD SLOAD PUSH2 0x1276 DUP5 DUP10 PUSH2 0x4C93 JUMP JUMPDEST MSTORE PUSH2 0x1280 DUP4 PUSH2 0x49D3 JUMP JUMPDEST SWAP1 SLOAD SWAP2 SHL SHR AND PUSH1 0x0 MSTORE PUSH1 0x0 DUP9 MSTORE DUP3 PUSH1 0x40 PUSH1 0x0 KECCAK256 ADD SLOAD PUSH2 0x129F DUP3 DUP9 PUSH2 0x4C93 JUMP JUMPDEST MSTORE PUSH2 0x4AD3 JUMP JUMPDEST PUSH2 0x11DC JUMP JUMPDEST CALLVALUE PUSH2 0x2A2 JUMPI PUSH1 0x0 CALLDATASIZE PUSH1 0x3 NOT ADD SLT PUSH2 0x2A2 JUMPI PUSH1 0x40 MLOAD DUP1 PUSH1 0x5 SLOAD DUP1 DUP3 MSTORE DUP3 PUSH1 0x20 DUP1 SWAP4 ADD PUSH1 0x5 PUSH1 0x0 MSTORE PUSH32 0x36B6384B5ECA791C62761152D0C79BB0604C104A5FB6F4EB0703F3154BB3DB0 SWAP3 PUSH1 0x0 JUMPDEST DUP6 DUP3 DUP3 LT PUSH2 0x1320 JUMPI POP POP POP PUSH2 0x130C SWAP3 POP SUB DUP4 PUSH2 0x4558 JUMP JUMPDEST PUSH2 0x519 PUSH1 0x40 MLOAD SWAP3 DUP3 DUP5 SWAP4 DUP5 MSTORE DUP4 ADD SWAP1 PUSH2 0x4962 JUMP JUMPDEST DUP6 SLOAD PUSH1 0x1 PUSH1 0x1 PUSH1 0xA0 SHL SUB AND DUP5 MSTORE PUSH1 0x1 SWAP6 DUP7 ADD SWAP6 DUP9 SWAP6 POP SWAP4 ADD SWAP3 ADD PUSH2 0x12F5 JUMP JUMPDEST CALLVALUE PUSH2 0x2A2 JUMPI PUSH1 0x60 CALLDATASIZE PUSH1 0x3 NOT ADD SLT PUSH2 0x2A2 JUMPI PUSH1 0x24 CALLDATALOAD PUSH1 0x1 PUSH1 0x1 PUSH1 0x40 SHL SUB DUP2 GT PUSH2 0x2A2 JUMPI PUSH2 0x136F SWAP1 CALLDATASIZE SWAP1 PUSH1 0x4 ADD PUSH2 0x4579 JUMP JUMPDEST PUSH1 0x44 CALLDATALOAD PUSH1 0x1 PUSH1 0x1 PUSH1 0x40 SHL SUB DUP2 GT PUSH2 0x2A2 JUMPI PUSH2 0x138E SWAP1 CALLDATASIZE SWAP1 PUSH1 0x4 ADD PUSH2 0x4579 JUMP JUMPDEST SWAP1 CALLER PUSH1 0x0 MSTORE PUSH1 0x0 PUSH1 0x20 MSTORE PUSH2 0x13AC PUSH1 0xFF PUSH1 0x1 PUSH1 0x40 PUSH1 0x0 KECCAK256 ADD SLOAD AND PUSH2 0x4AE2 JUMP JUMPDEST PUSH2 0x13B9 PUSH1 0x4 CALLDATALOAD ISZERO ISZERO PUSH2 0x4CF3 JUMP JUMPDEST DUP1 MLOAD ISZERO PUSH2 0x1791 JUMPI PUSH2 0x13CC DUP3 MLOAD ISZERO ISZERO PUSH2 0x4B54 JUMP JUMPDEST PUSH1 0x7 SLOAD SWAP1 PUSH2 0x13D9 DUP3 PUSH2 0x4AD3 JUMP JUMPDEST PUSH1 0x7 SSTORE PUSH1 0x40 MLOAD PUSH2 0x13E8 DUP2 PUSH2 0x453C JUMP JUMPDEST DUP3 DUP2 MSTORE PUSH1 0x20 DUP2 ADD CALLER DUP2 MSTORE PUSH1 0x40 DUP3 ADD PUSH1 0x4 CALLDATALOAD DUP2 MSTORE PUSH1 0x60 DUP4 ADD SWAP1 DUP5 DUP3 MSTORE DUP7 PUSH1 0x80 DUP6 ADD MSTORE TIMESTAMP PUSH1 0xA0 DUP6 ADD MSTORE PUSH1 0x0 PUSH1 0xC0 DUP6 ADD MSTORE PUSH1 0x0 PUSH1 0xE0 DUP6 ADD MSTORE PUSH1 0xC SLOAD PUSH1 0x1 PUSH1 0x40 SHL DUP2 LT ISZERO PUSH2 0x932 JUMPI DUP1 PUSH1 0x1 PUSH2 0x143C SWAP3 ADD PUSH1 0xC SSTORE PUSH2 0x48AF JUMP JUMPDEST SWAP4 SWAP1 SWAP4 PUSH2 0x177B JUMPI DUP5 MLOAD DUP5 SSTORE MLOAD PUSH1 0x1 DUP5 ADD DUP1 SLOAD PUSH1 0x1 PUSH1 0x1 PUSH1 0xA0 SHL SUB NOT AND PUSH1 0x1 PUSH1 0x1 PUSH1 0xA0 SHL SUB SWAP3 SWAP1 SWAP3 AND SWAP2 SWAP1 SWAP2 OR SWAP1 SSTORE MLOAD PUSH1 0x2 DUP4 ADD SSTORE MLOAD DUP1 MLOAD SWAP1 PUSH1 0x1 PUSH1 0x1 PUSH1 0x40 SHL SUB DUP3 GT PUSH2 0x932 JUMPI DUP2 SWAP1 PUSH2 0x1491 PUSH1 0x3 DUP6 ADD SLOAD PUSH2 0x4675 JUMP JUMPDEST PUSH1 0x1F DUP2 GT PUSH2 0x1728 JUMPI JUMPDEST POP PUSH1 0x20 SWAP1 PUSH1 0x1F DUP4 GT PUSH1 0x1 EQ PUSH2 0x16B6 JUMPI PUSH1 0x0 SWAP3 PUSH2 0x16AB JUMPI JUMPDEST POP POP DUP2 PUSH1 0x1 SHL SWAP2 PUSH1 0x0 NOT SWAP1 PUSH1 0x3 SHL SHR NOT AND OR PUSH1 0x3 DUP3 ADD SSTORE JUMPDEST PUSH1 0x80 DUP3 ADD MLOAD DUP1 MLOAD SWAP1 PUSH1 0x1 PUSH1 0x1 PUSH1 0x40 SHL SUB DUP3 GT PUSH2 0x932 JUMPI PUSH2 0x14EC PUSH1 0x4 DUP5 ADD SLOAD PUSH2 0x4675 JUMP JUMPDEST PUSH1 0x1F DUP2 GT PUSH2 0x1664 JUMPI JUMPDEST POP PUSH1 0x20 SWAP1 PUSH1 0x1F DUP4 GT PUSH1 0x1 EQ PUSH2 0x15CB JUMPI PUSH32 0x9569327B0EBAC7EBD8D677C9F6449AFAF57B97A2A0D523ADC4A0AD31B3F00C7 SWAP6 SWAP4 DUP4 PUSH2 0x15B1 SWAP7 SWAP5 PUSH1 0xE0 SWAP5 PUSH1 0x6 SWAP5 PUSH1 0x0 SWAP3 PUSH2 0x15C0 JUMPI JUMPDEST POP POP DUP2 PUSH1 0x1 SHL SWAP2 PUSH1 0x0 NOT SWAP1 PUSH1 0x3 SHL SHR NOT AND OR PUSH1 0x4 DUP3 ADD SSTORE JUMPDEST PUSH1 0xA0 DUP5 ADD MLOAD PUSH1 0x5 DUP3 ADD SSTORE ADD SWAP2 PUSH2 0x157B PUSH1 0xC0 DUP3 ADD MLOAD ISZERO ISZERO DUP5 SWAP1 PUSH1 0xFF DUP1 NOT DUP4 SLOAD AND SWAP2 ISZERO ISZERO AND OR SWAP1 SSTORE JUMP JUMPDEST ADD MLOAD ISZERO ISZERO PUSH2 0xFF00 DUP3 SLOAD SWAP2 PUSH1 0x8 SHL AND SWAP1 PUSH2 0xFF00 NOT AND OR SWAP1 SSTORE PUSH2 0x864 PUSH1 0x40 MLOAD SWAP3 DUP4 SWAP3 PUSH1 0x4 CALLDATALOAD DUP5 MSTORE PUSH1 0x60 PUSH1 0x20 DUP6 ADD MSTORE PUSH1 0x60 DUP5 ADD SWAP1 PUSH2 0x43BE JUMP JUMPDEST DUP3 DUP2 SUB PUSH1 0x40 DUP5 ADD MSTORE CALLER SWAP7 PUSH2 0x43BE JUMP JUMPDEST ADD MLOAD SWAP1 POP DUP12 DUP1 PUSH2 0x153B JUMP JUMPDEST SWAP1 PUSH1 0x1F NOT DUP4 AND SWAP2 PUSH1 0x4 DUP6 ADD PUSH1 0x0 MSTORE PUSH1 0x20 PUSH1 0x0 KECCAK256 SWAP3 PUSH1 0x0 JUMPDEST DUP2 DUP2 LT PUSH2 0x164C JUMPI POP DUP5 PUSH1 0xE0 SWAP5 PUSH1 0x6 SWAP5 PUSH32 0x9569327B0EBAC7EBD8D677C9F6449AFAF57B97A2A0D523ADC4A0AD31B3F00C7 SWAP11 SWAP9 SWAP5 PUSH2 0x15B1 SWAP11 SWAP9 PUSH1 0x1 SWAP6 LT PUSH2 0x1633 JUMPI JUMPDEST POP POP POP DUP2 SHL ADD PUSH1 0x4 DUP3 ADD SSTORE PUSH2 0x1553 JUMP JUMPDEST ADD MLOAD PUSH1 0x0 NOT PUSH1 0xF8 DUP5 PUSH1 0x3 SHL AND SHR NOT AND SWAP1 SSTORE DUP12 DUP1 DUP1 PUSH2 0x1623 JUMP JUMPDEST SWAP3 SWAP4 PUSH1 0x20 PUSH1 0x1 DUP2 SWAP3 DUP8 DUP7 ADD MLOAD DUP2 SSTORE ADD SWAP6 ADD SWAP4 ADD PUSH2 0x15E2 JUMP JUMPDEST PUSH1 0x4 DUP5 ADD PUSH1 0x0 MSTORE PUSH1 0x20 PUSH1 0x0 KECCAK256 PUSH1 0x1F DUP5 ADD PUSH1 0x5 SHR DUP2 ADD PUSH1 0x20 DUP6 LT PUSH2 0x16A4 JUMPI JUMPDEST PUSH1 0x1F DUP4 ADD PUSH1 0x5 SHR DUP3 ADD DUP2 LT PUSH2 0x1698 JUMPI POP POP PUSH2 0x14F5 JUMP JUMPDEST PUSH1 0x0 DUP2 SSTORE PUSH1 0x1 ADD PUSH2 0x1682 JUMP JUMPDEST POP DUP1 PUSH2 0x1682 JUMP JUMPDEST ADD MLOAD SWAP1 POP DUP8 DUP1 PUSH2 0x14B1 JUMP JUMPDEST SWAP3 POP PUSH1 0x3 DUP5 ADD PUSH1 0x0 MSTORE PUSH1 0x20 PUSH1 0x0 KECCAK256 SWAP1 PUSH1 0x0 SWAP4 JUMPDEST PUSH1 0x1F NOT DUP5 AND DUP6 LT PUSH2 0x170D JUMPI PUSH1 0x1 SWAP5 POP DUP4 PUSH1 0x1F NOT DUP2 AND LT PUSH2 0x16F4 JUMPI JUMPDEST POP POP POP DUP2 SHL ADD PUSH1 0x3 DUP3 ADD SSTORE PUSH2 0x14C9 JUMP JUMPDEST ADD MLOAD PUSH1 0x0 NOT PUSH1 0xF8 DUP5 PUSH1 0x3 SHL AND SHR NOT AND SWAP1 SSTORE DUP8 DUP1 DUP1 PUSH2 0x16E4 JUMP JUMPDEST DUP2 DUP2 ADD MLOAD DUP4 SSTORE PUSH1 0x20 SWAP5 DUP6 ADD SWAP5 PUSH1 0x1 SWAP1 SWAP4 ADD SWAP3 SWAP1 SWAP2 ADD SWAP1 PUSH2 0x16C9 JUMP JUMPDEST SWAP1 SWAP2 POP PUSH1 0x3 DUP5 ADD PUSH1 0x0 MSTORE PUSH1 0x20 PUSH1 0x0 KECCAK256 PUSH1 0x1F DUP5 ADD PUSH1 0x5 SHR DUP2 ADD PUSH1 0x20 DUP6 LT PUSH2 0x1774 JUMPI JUMPDEST SWAP1 DUP5 SWAP4 SWAP3 SWAP2 JUMPDEST PUSH1 0x1F DUP4 ADD PUSH1 0x5 SHR DUP3 ADD DUP2 LT PUSH2 0x1765 JUMPI POP POP PUSH2 0x149A JUMP JUMPDEST PUSH1 0x0 DUP2 SSTORE DUP6 SWAP5 POP PUSH1 0x1 ADD PUSH2 0x174F JUMP JUMPDEST POP DUP1 PUSH2 0x1749 JUMP JUMPDEST PUSH4 0x4E487B71 PUSH1 0xE0 SHL PUSH1 0x0 MSTORE PUSH1 0x0 PUSH1 0x4 MSTORE PUSH1 0x24 PUSH1 0x0 REVERT JUMPDEST PUSH1 0x40 MLOAD PUSH3 0x461BCD PUSH1 0xE5 SHL DUP2 MSTORE PUSH1 0x20 PUSH1 0x4 DUP3 ADD MSTORE PUSH1 0x16 PUSH1 0x24 DUP3 ADD MSTORE PUSH22 0x526561736F6E2063616E6E6F7420626520656D707479 PUSH1 0x50 SHL PUSH1 0x44 DUP3 ADD MSTORE PUSH1 0x64 SWAP1 REVERT JUMPDEST CALLVALUE PUSH2 0x2A2 JUMPI PUSH1 0x20 DUP1 PUSH1 0x3 NOT CALLDATASIZE ADD SLT PUSH2 0x2A2 JUMPI PUSH1 0x4 CALLDATALOAD PUSH2 0x17EC PUSH2 0x4BAD JUMP JUMPDEST POP DUP1 ISZERO ISZERO DUP1 PUSH2 0x18AD JUMPI JUMPDEST ISZERO PUSH2 0x1874 JUMPI PUSH1 0x0 MSTORE PUSH1 0x1 DUP2 MSTORE PUSH1 0x40 PUSH1 0x0 KECCAK256 SWAP1 PUSH1 0x5 PUSH1 0x40 MLOAD SWAP3 PUSH2 0x1817 DUP5 PUSH2 0x4505 JUMP JUMPDEST DUP1 SLOAD DUP5 MSTORE PUSH1 0x1 DUP2 ADD SLOAD PUSH1 0x1 PUSH1 0x1 PUSH1 0xA0 SHL SUB AND DUP4 DUP6 ADD MSTORE PUSH2 0x1839 PUSH1 0x2 DUP3 ADD PUSH2 0x46AF JUMP JUMPDEST PUSH1 0x40 DUP6 ADD MSTORE PUSH1 0x3 DUP2 ADD SLOAD PUSH1 0x60 DUP6 ADD MSTORE PUSH2 0x1854 PUSH1 0x4 DUP3 ADD PUSH2 0x46AF JUMP JUMPDEST PUSH1 0x80 DUP6 ADD MSTORE ADD SLOAD PUSH1 0xA0 DUP4 ADD MSTORE PUSH2 0x519 PUSH1 0x40 MLOAD SWAP3 DUP3 DUP5 SWAP4 DUP5 MSTORE DUP4 ADD SWAP1 PUSH2 0x47F2 JUMP JUMPDEST PUSH1 0x40 MLOAD PUSH3 0x461BCD PUSH1 0xE5 SHL DUP2 MSTORE PUSH1 0x4 DUP2 ADD DUP4 SWAP1 MSTORE PUSH1 0x11 PUSH1 0x24 DUP3 ADD MSTORE PUSH17 0x125B9D985B1A59081C9958DBDC99081251 PUSH1 0x7A SHL PUSH1 0x44 DUP3 ADD MSTORE PUSH1 0x64 SWAP1 REVERT JUMPDEST POP PUSH1 0x9 SLOAD DUP2 GT ISZERO PUSH2 0x17F6 JUMP JUMPDEST CALLVALUE PUSH2 0x2A2 JUMPI PUSH2 0x18C7 CALLDATASIZE PUSH2 0x433A JUMP JUMPDEST CALLER PUSH1 0x0 MSTORE PUSH1 0x20 PUSH1 0x0 DUP2 MSTORE PUSH1 0xFF PUSH1 0x1 PUSH2 0x18E7 DUP3 DUP3 PUSH1 0x40 PUSH1 0x0 KECCAK256 ADD SLOAD AND PUSH2 0x4AE2 JUMP JUMPDEST DUP5 PUSH1 0x0 MSTORE PUSH1 0xD DUP4 MSTORE PUSH2 0x1905 DUP3 PUSH1 0x5 PUSH1 0x40 PUSH1 0x0 KECCAK256 ADD SLOAD PUSH1 0xA0 SHR AND PUSH2 0x5020 JUMP JUMPDEST DUP5 PUSH1 0x0 MSTORE PUSH1 0xD DUP4 MSTORE PUSH2 0x1920 PUSH1 0x4 PUSH1 0x40 PUSH1 0x0 KECCAK256 ADD SLOAD TIMESTAMP LT PUSH2 0x5063 JUMP JUMPDEST DUP5 PUSH1 0x0 MSTORE PUSH1 0xE SWAP3 DUP4 DUP2 MSTORE PUSH1 0x40 PUSH1 0x0 KECCAK256 DUP6 PUSH1 0x0 MSTORE DUP2 MSTORE PUSH1 0x1 DUP1 PUSH1 0xA0 SHL SUB SWAP3 CALLER DUP5 DUP5 PUSH1 0x40 PUSH1 0x0 KECCAK256 ADD SLOAD AND SUB PUSH2 0x1B42 JUMPI DUP7 PUSH1 0x0 MSTORE DUP5 DUP3 MSTORE PUSH1 0x40 PUSH1 0x0 KECCAK256 DUP7 PUSH1 0x0 MSTORE DUP3 MSTORE DUP1 PUSH1 0x4 PUSH1 0x40 PUSH1 0x0 KECCAK256 ADD SLOAD AND PUSH2 0x1B05 JUMPI DUP7 PUSH1 0x0 MSTORE DUP5 DUP3 MSTORE PUSH1 0x40 PUSH1 0x0 KECCAK256 DUP7 PUSH1 0x0 MSTORE DUP3 MSTORE PUSH1 0x4 PUSH1 0x40 PUSH1 0x0 KECCAK256 ADD DUP4 PUSH1 0xFF NOT DUP3 SLOAD AND OR SWAP1 SSTORE DUP7 PUSH1 0x0 MSTORE PUSH1 0xD DUP3 MSTORE PUSH1 0xA PUSH1 0x40 PUSH1 0x0 KECCAK256 ADD DUP1 SLOAD DUP1 ISZERO PUSH2 0x1AEF JUMPI PUSH1 0x0 NOT ADD SWAP1 SSTORE DUP7 PUSH1 0x0 MSTORE PUSH1 0xD DUP3 MSTORE DUP4 PUSH1 0x6 PUSH1 0x40 PUSH1 0x0 KECCAK256 ADD SLOAD AND CALLER EQ PUSH2 0x19F4 JUMPI JUMPDEST CALLER DUP7 DUP9 PUSH32 0xB41C9B05054BE45850CCC1DA7D90C7B819CFF855CFE0D14F16427398B286C9B6 PUSH1 0x0 DUP1 LOG4 STOP JUMPDEST PUSH1 0x0 SWAP3 PUSH1 0x0 SWAP6 DUP2 PUSH1 0x0 SWAP1 JUMPDEST PUSH2 0x1A3C JUMPI JUMPDEST POP POP POP POP SWAP1 PUSH1 0xD PUSH1 0x6 SWAP3 DUP8 PUSH1 0x0 MSTORE MSTORE PUSH1 0x40 PUSH1 0x0 KECCAK256 SWAP1 PUSH1 0x7 DUP3 ADD SSTORE ADD SWAP2 AND PUSH1 0x1 PUSH1 0x1 PUSH1 0x60 SHL SUB PUSH1 0xA0 SHL DUP3 SLOAD AND OR SWAP1 SSTORE DUP3 DUP1 DUP1 DUP1 DUP1 PUSH2 0x19CA JUMP JUMPDEST DUP10 PUSH1 0x0 MSTORE PUSH1 0xF DUP6 MSTORE PUSH1 0x40 PUSH1 0x0 KECCAK256 SLOAD DUP2 LT ISZERO PUSH2 0x1AEA JUMPI DUP2 DUP6 MSTORE PUSH1 0x40 PUSH1 0x0 KECCAK256 DUP2 PUSH1 0x0 MSTORE DUP6 MSTORE DUP4 PUSH1 0x4 PUSH1 0x40 PUSH1 0x0 KECCAK256 ADD SLOAD AND ISZERO DUP1 PUSH2 0x1ABF JUMPI JUMPDEST PUSH2 0x1A88 JUMPI JUMPDEST SWAP1 PUSH2 0x1A81 DUP4 SWAP3 PUSH2 0x4AD3 JUMP JUMPDEST SWAP1 SWAP2 PUSH2 0x19FF JUMP JUMPDEST PUSH1 0x0 DUP11 DUP2 MSTORE DUP3 DUP7 MSTORE PUSH1 0x40 DUP1 DUP3 KECCAK256 DUP4 DUP4 MSTORE DUP8 MSTORE DUP1 DUP3 KECCAK256 PUSH1 0x2 ADD SLOAD DUP13 DUP4 MSTORE DUP5 DUP9 MSTORE DUP2 DUP4 KECCAK256 DUP5 DUP5 MSTORE DUP9 MSTORE SWAP2 KECCAK256 DUP5 ADD SLOAD DUP9 AND SWAP9 POP SWAP6 POP PUSH2 0x1A76 JUMP JUMPDEST POP DUP6 ISZERO DUP1 PUSH2 0x1A71 JUMPI POP DUP10 PUSH1 0x0 MSTORE DUP2 DUP6 MSTORE PUSH1 0x40 PUSH1 0x0 KECCAK256 DUP2 PUSH1 0x0 MSTORE DUP6 MSTORE DUP6 PUSH1 0x2 PUSH1 0x40 PUSH1 0x0 KECCAK256 ADD SLOAD LT PUSH2 0x1A71 JUMP JUMPDEST PUSH2 0x1A04 JUMP JUMPDEST PUSH4 0x4E487B71 PUSH1 0xE0 SHL PUSH1 0x0 MSTORE PUSH1 0x11 PUSH1 0x4 MSTORE PUSH1 0x24 PUSH1 0x0 REVERT JUMPDEST PUSH1 0x40 MLOAD PUSH3 0x461BCD PUSH1 0xE5 SHL DUP2 MSTORE PUSH1 0x4 DUP2 ADD DUP4 SWAP1 MSTORE PUSH1 0x15 PUSH1 0x24 DUP3 ADD MSTORE PUSH21 0x2134B21030B63932B0B23C903BB4BA34323930BBB7 PUSH1 0x59 SHL PUSH1 0x44 DUP3 ADD MSTORE PUSH1 0x64 SWAP1 REVERT JUMPDEST PUSH1 0x40 MLOAD PUSH3 0x461BCD PUSH1 0xE5 SHL DUP2 MSTORE PUSH1 0x4 DUP2 ADD DUP4 SWAP1 MSTORE PUSH1 0x1C PUSH1 0x24 DUP3 ADD MSTORE PUSH32 0x4F6E6C79206269646465722063616E2077697468647261772062696400000000 PUSH1 0x44 DUP3 ADD MSTORE PUSH1 0x64 SWAP1 REVERT JUMPDEST CALLVALUE PUSH2 0x2A2 JUMPI PUSH2 0x1B95 CALLDATASIZE PUSH2 0x47C8 JUMP JUMPDEST SWAP1 PUSH1 0x0 DUP2 PUSH1 0x0 SWAP4 PUSH1 0x7 SLOAD SWAP5 JUMPDEST DUP6 DUP2 LT PUSH2 0x1C7F JUMPI POP SWAP2 PUSH2 0x1BB7 PUSH2 0x1BC5 SWAP4 DUP4 PUSH2 0x4AC6 JUMP JUMPDEST SWAP1 DUP1 DUP3 GT PUSH2 0x1C77 JUMPI POP PUSH2 0x4BA0 JUMP JUMPDEST PUSH2 0x1BCE DUP2 PUSH2 0x4E83 JUMP JUMPDEST SWAP4 PUSH1 0x0 SWAP2 PUSH1 0x0 JUMPDEST DUP6 DUP2 LT DUP1 PUSH2 0x1C6E JUMPI JUMPDEST ISZERO PUSH2 0x1C60 JUMPI PUSH1 0x1 PUSH2 0x1BEE DUP3 PUSH2 0x48AF JUMP JUMPDEST POP DUP2 DUP1 PUSH1 0xA0 SHL SUB SWAP2 DUP3 SWAP2 ADD SLOAD AND SWAP1 DUP5 AND EQ PUSH2 0x1C12 JUMPI JUMPDEST PUSH2 0x1C0D SWAP1 PUSH2 0x4AD3 JUMP JUMPDEST PUSH2 0x1BD5 JUMP JUMPDEST SWAP3 PUSH2 0x1C27 DUP2 DUP7 PUSH2 0x1C0D SWAP4 LT ISZERO PUSH2 0x1C2F JUMPI PUSH2 0x4AD3 JUMP JUMPDEST SWAP4 SWAP1 POP PUSH2 0x1C04 JUMP JUMPDEST PUSH2 0x551 PUSH2 0x1C3B DUP8 PUSH2 0x48AF JUMP JUMPDEST POP PUSH2 0x1C4F PUSH2 0x1C49 DUP11 DUP6 PUSH2 0x4BA0 JUMP JUMPDEST SWAP2 PUSH2 0x4E0B JUMP JUMPDEST PUSH2 0x1C59 DUP3 DUP14 PUSH2 0x4C93 JUMP JUMPDEST MSTORE DUP11 PUSH2 0x4C93 JUMP JUMPDEST PUSH1 0x40 MLOAD DUP1 PUSH2 0x519 DUP10 DUP3 PUSH2 0x4900 JUMP JUMPDEST POP DUP2 DUP5 LT PUSH2 0x1BDE JUMP JUMPDEST SWAP1 POP DUP7 PUSH2 0x4F1 JUMP JUMPDEST SWAP1 SWAP2 POP PUSH1 0x1 PUSH2 0x1C8D DUP3 PUSH2 0x48AF JUMP JUMPDEST POP DUP2 DUP1 PUSH1 0xA0 SHL SUB SWAP2 DUP3 SWAP2 ADD SLOAD AND SWAP1 DUP8 AND EQ PUSH2 0x1CB4 JUMPI JUMPDEST PUSH2 0x1CAC SWAP1 PUSH2 0x4AD3 JUMP JUMPDEST SWAP1 DUP4 SWAP2 PUSH2 0x1BA1 JUMP JUMPDEST SWAP2 PUSH2 0x1CC1 PUSH2 0x1CAC SWAP2 PUSH2 0x4AD3 JUMP JUMPDEST SWAP3 SWAP1 POP PUSH2 0x1CA3 JUMP JUMPDEST CALLVALUE PUSH2 0x2A2 JUMPI PUSH2 0x1CD7 CALLDATASIZE PUSH2 0x433A JUMP JUMPDEST PUSH1 0x9 SLOAD DUP1 DUP4 LT ISZERO PUSH2 0x1DC3 JUMPI DUP3 SWAP1 PUSH2 0x1CEF DUP4 ISZERO ISZERO PUSH2 0x4BE0 JUMP JUMPDEST DUP1 PUSH2 0x1CFA DUP5 DUP5 PUSH2 0x4AC6 JUMP JUMPDEST GT PUSH2 0x1DB2 JUMPI JUMPDEST POP POP PUSH2 0x1D0B DUP2 PUSH2 0x4C43 JUMP JUMPDEST SWAP2 PUSH1 0x0 JUMPDEST DUP3 DUP2 LT PUSH2 0x1D24 JUMPI PUSH1 0x40 MLOAD DUP1 PUSH2 0x519 DUP7 DUP3 PUSH2 0x484D JUMP JUMPDEST PUSH2 0x1D2E DUP2 DUP4 PUSH2 0x4AC6 JUMP JUMPDEST SWAP1 PUSH1 0x1 DUP1 DUP4 ADD DUP1 SWAP4 GT PUSH2 0x1AEF JUMPI PUSH2 0x1DAD SWAP3 PUSH1 0x0 MSTORE PUSH1 0x5 PUSH1 0x20 DUP3 DUP2 MSTORE PUSH1 0x40 PUSH1 0x0 KECCAK256 SWAP1 PUSH1 0x40 MLOAD SWAP4 PUSH2 0x1D5C DUP6 PUSH2 0x4505 JUMP JUMPDEST DUP3 SLOAD DUP6 MSTORE DUP3 ADD SLOAD PUSH1 0x1 PUSH1 0x1 PUSH1 0xA0 SHL SUB AND SWAP1 DUP5 ADD MSTORE PUSH2 0x1D7C PUSH1 0x2 DUP3 ADD PUSH2 0x46AF JUMP JUMPDEST PUSH1 0x40 DUP5 ADD MSTORE PUSH1 0x3 DUP2 ADD SLOAD PUSH1 0x60 DUP5 ADD MSTORE PUSH2 0x1D97 PUSH1 0x4 DUP3 ADD PUSH2 0x46AF JUMP JUMPDEST PUSH1 0x80 DUP5 ADD MSTORE ADD SLOAD PUSH1 0xA0 DUP3 ADD MSTORE PUSH2 0x546 DUP3 DUP8 PUSH2 0x4C93 JUMP JUMPDEST PUSH2 0x1D0F JUMP JUMPDEST PUSH2 0x1DBC SWAP3 POP PUSH2 0x4BA0 JUMP JUMPDEST DUP2 DUP4 PUSH2 0x1D00 JUMP JUMPDEST PUSH1 0x40 MLOAD PUSH3 0x461BCD PUSH1 0xE5 SHL DUP2 MSTORE PUSH1 0x20 PUSH1 0x4 DUP3 ADD MSTORE PUSH1 0x1B PUSH1 0x24 DUP3 ADD MSTORE PUSH32 0x4F66667365742065786365656473207265636F726420636F756E740000000000 PUSH1 0x44 DUP3 ADD MSTORE PUSH1 0x64 SWAP1 REVERT JUMPDEST CALLVALUE PUSH2 0x2A2 JUMPI PUSH1 0x0 CALLDATASIZE PUSH1 0x3 NOT ADD SLT PUSH2 0x2A2 JUMPI PUSH1 0x11 SLOAD PUSH1 0x1 PUSH1 0x1 PUSH1 0xA0 SHL SUB SWAP1 PUSH2 0x1E32 SWAP1 DUP3 AND CALLER EQ PUSH2 0x4A22 JUMP JUMPDEST PUSH1 0x12 SLOAD PUSH3 0x15180 DUP2 ADD DUP1 SWAP2 GT PUSH2 0x1AEF JUMPI TIMESTAMP LT PUSH2 0x1FB1 JUMPI PUSH8 0xDE0B6B3A7640000 SWAP1 DUP2 SELFBALANCE LT PUSH2 0x1F6C JUMPI PUSH1 0x5 SLOAD PUSH1 0x0 SWAP1 DUP2 DUP1 JUMPDEST DUP3 DUP2 LT PUSH2 0x1F0A JUMPI POP POP POP AND SWAP1 DUP2 ISZERO PUSH2 0x1EC5 JUMPI DUP2 PUSH1 0x0 MSTORE PUSH1 0x0 PUSH1 0x20 MSTORE PUSH1 0x2 PUSH1 0x40 PUSH1 0x0 KECCAK256 ADD DUP1 SLOAD SWAP2 DUP1 DUP4 ADD DUP1 SWAP4 GT PUSH2 0x1AEF JUMPI PUSH32 0x8E3A90176F65D9F17B62AE9970B50FF21E66BBA05788435310F6E12C942B0B37 SWAP3 PUSH1 0x20 SWAP3 SSTORE TIMESTAMP PUSH1 0x12 SSTORE PUSH1 0x40 MLOAD SWAP1 DUP2 MSTORE LOG2 STOP JUMPDEST PUSH1 0x40 MLOAD PUSH3 0x461BCD PUSH1 0xE5 SHL DUP2 MSTORE PUSH1 0x20 PUSH1 0x4 DUP3 ADD MSTORE PUSH1 0x1A PUSH1 0x24 DUP3 ADD MSTORE PUSH32 0x4E6F20656C696769626C6520656E74697469657320666F756E64000000000000 PUSH1 0x44 DUP3 ADD MSTORE PUSH1 0x64 SWAP1 REVERT JUMPDEST DUP5 PUSH2 0x1F14 DUP3 PUSH2 0x49D3 JUMP JUMPDEST SWAP1 SLOAD SWAP1 PUSH1 0x3 SHL SHR AND DUP1 PUSH1 0x0 MSTORE PUSH1 0x0 PUSH1 0x20 MSTORE PUSH1 0x40 PUSH1 0x0 KECCAK256 PUSH1 0xFF PUSH1 0x1 DUP3 ADD SLOAD AND DUP1 PUSH2 0x1F5F JUMPI JUMPDEST PUSH2 0x1F4D JUMPI JUMPDEST POP POP PUSH2 0x1F48 SWAP1 PUSH2 0x4AD3 JUMP JUMPDEST PUSH2 0x1E62 JUMP JUMPDEST PUSH1 0x4 ADD SLOAD SWAP1 SWAP5 POP SWAP2 POP PUSH2 0x1F48 DUP8 PUSH2 0x1F3D JUMP JUMPDEST POP DUP4 PUSH1 0x4 DUP3 ADD SLOAD GT PUSH2 0x1F38 JUMP JUMPDEST PUSH1 0x40 MLOAD PUSH3 0x461BCD PUSH1 0xE5 SHL DUP2 MSTORE PUSH1 0x20 PUSH1 0x4 DUP3 ADD MSTORE PUSH1 0x1D PUSH1 0x24 DUP3 ADD MSTORE PUSH32 0x496E73756666696369656E7420636F6E74726163742062616C616E6365000000 PUSH1 0x44 DUP3 ADD MSTORE PUSH1 0x64 SWAP1 REVERT JUMPDEST PUSH1 0x40 MLOAD PUSH3 0x461BCD PUSH1 0xE5 SHL DUP2 MSTORE PUSH1 0x20 PUSH1 0x4 DUP3 ADD MSTORE PUSH1 0x1C PUSH1 0x24 DUP3 ADD MSTORE PUSH32 0x546F6F20736F6F6E20746F206469737472696275746520626F6E757300000000 PUSH1 0x44 DUP3 ADD MSTORE PUSH1 0x64 SWAP1 REVERT JUMPDEST CALLVALUE PUSH2 0x2A2 JUMPI PUSH2 0x200A PUSH2 0x201A PUSH2 0x4DD CALLDATASIZE PUSH2 0x433A JUMP JUMPDEST PUSH1 0xA SLOAD DUP1 DUP3 GT PUSH2 0x55C JUMPI POP PUSH2 0x4BA0 JUMP JUMPDEST PUSH2 0x2023 DUP2 PUSH2 0x4FA6 JUMP JUMPDEST SWAP2 PUSH1 0x0 JUMPDEST DUP3 DUP2 LT PUSH2 0x203C JUMPI PUSH1 0x40 MLOAD DUP1 PUSH2 0x519 DUP7 DUP3 PUSH2 0x45CF JUMP JUMPDEST PUSH2 0x2046 DUP2 DUP4 PUSH2 0x4AC6 JUMP JUMPDEST SWAP1 PUSH1 0x1 DUP1 DUP4 ADD DUP1 SWAP4 GT PUSH2 0x1AEF JUMPI PUSH2 0x20BF SWAP3 PUSH1 0x0 MSTORE PUSH1 0x5 PUSH1 0x2 PUSH1 0x20 SWAP1 DUP1 DUP3 MSTORE PUSH1 0x40 PUSH1 0x0 KECCAK256 SWAP2 PUSH1 0x40 MLOAD SWAP5 PUSH2 0x2077 DUP7 PUSH2 0x4505 JUMP JUMPDEST DUP4 SLOAD DUP7 MSTORE DUP4 ADD SLOAD SWAP1 DUP6 ADD MSTORE DUP2 ADD SLOAD PUSH1 0x1 PUSH1 0x1 PUSH1 0xA0 SHL SUB AND PUSH1 0x40 DUP5 ADD MSTORE PUSH2 0x209F PUSH1 0x3 DUP3 ADD PUSH2 0x46AF JUMP JUMPDEST PUSH1 0x60 DUP5 ADD MSTORE PUSH1 0x4 DUP2 ADD SLOAD PUSH1 0x80 DUP5 ADD MSTORE ADD SLOAD PUSH1 0xA0 DUP3 ADD MSTORE PUSH2 0x546 DUP3 DUP8 PUSH2 0x4C93 JUMP JUMPDEST PUSH2 0x2027 JUMP JUMPDEST CALLVALUE PUSH2 0x2A2 JUMPI PUSH1 0x0 CALLDATASIZE PUSH1 0x3 NOT ADD SLT PUSH2 0x2A2 JUMPI PUSH1 0x20 PUSH1 0x6 SLOAD PUSH1 0x40 MLOAD SWAP1 DUP2 MSTORE RETURN JUMPDEST CALLVALUE PUSH2 0x2A2 JUMPI PUSH1 0x20 DUP1 PUSH1 0x3 NOT CALLDATASIZE ADD SLT PUSH2 0x2A2 JUMPI PUSH1 0x4 CALLDATALOAD CALLER PUSH1 0x0 MSTORE PUSH1 0x0 DUP3 MSTORE PUSH2 0x2113 PUSH1 0xFF PUSH1 0x1 PUSH1 0x40 PUSH1 0x0 KECCAK256 ADD SLOAD AND PUSH2 0x4AE2 JUMP JUMPDEST DUP1 PUSH1 0x0 MSTORE PUSH1 0xD DUP3 MSTORE PUSH2 0x2132 PUSH1 0xFF PUSH1 0x5 PUSH1 0x40 PUSH1 0x0 KECCAK256 ADD SLOAD PUSH1 0xA0 SHR AND PUSH2 0x5020 JUMP JUMPDEST DUP1 PUSH1 0x0 MSTORE PUSH1 0xD DUP3 MSTORE PUSH1 0x4 PUSH1 0x40 PUSH1 0x0 KECCAK256 ADD SLOAD TIMESTAMP LT PUSH2 0x227B JUMPI PUSH1 0x0 DUP2 DUP2 MSTORE PUSH1 0xD DUP4 MSTORE PUSH1 0x40 SWAP1 KECCAK256 PUSH1 0x6 ADD SLOAD PUSH1 0x1 PUSH1 0x1 PUSH1 0xA0 SHL SUB SWAP3 SWAP1 DUP4 AND ISZERO PUSH2 0x2241 JUMPI DUP2 PUSH1 0x0 MSTORE PUSH1 0xD DUP2 MSTORE DUP3 PUSH1 0x5 PUSH1 0x40 PUSH1 0x0 KECCAK256 ADD SLOAD AND CALLER SUB PUSH2 0x21FD JUMPI PUSH32 0xB6DA2D97C7BE1B795C416CC5E17D479A1A6FB59B6E95214EE25AAAF42796C802 SWAP1 DUP3 PUSH1 0x0 MSTORE PUSH1 0xD DUP2 MSTORE PUSH1 0x7 PUSH1 0x40 PUSH1 0x0 KECCAK256 SWAP5 PUSH1 0x5 DUP7 ADD PUSH1 0xFF PUSH1 0xA0 SHL NOT DUP2 SLOAD AND SWAP1 SSTORE PUSH1 0x3 DUP7 ADD SLOAD PUSH1 0x6 DUP8 ADD SWAP1 DUP3 DUP3 SLOAD AND PUSH1 0x0 MSTORE PUSH1 0x0 DUP6 MSTORE PUSH2 0x21ED PUSH1 0x2 PUSH1 0x40 PUSH1 0x0 KECCAK256 ADD SWAP2 DUP3 SLOAD PUSH2 0x4AC6 JUMP JUMPDEST SWAP1 SSTORE SLOAD AND SWAP5 ADD SLOAD PUSH1 0x40 MLOAD SWAP1 DUP2 MSTORE LOG3 STOP JUMPDEST PUSH1 0x64 SWAP1 PUSH1 0x40 MLOAD SWAP1 PUSH3 0x461BCD PUSH1 0xE5 SHL DUP3 MSTORE PUSH1 0x4 DUP3 ADD MSTORE PUSH1 0x1C PUSH1 0x24 DUP3 ADD MSTORE PUSH32 0x4F6E6C79206973737565722063616E2061776172642074656E64657200000000 PUSH1 0x44 DUP3 ADD MSTORE REVERT JUMPDEST PUSH1 0x64 SWAP1 PUSH1 0x40 MLOAD SWAP1 PUSH3 0x461BCD PUSH1 0xE5 SHL DUP3 MSTORE PUSH1 0x4 DUP3 ADD MSTORE PUSH1 0x13 PUSH1 0x24 DUP3 ADD MSTORE PUSH19 0x139BC81D985B1A5908189A591CC8199BDD5B99 PUSH1 0x6A SHL PUSH1 0x44 DUP3 ADD MSTORE REVERT JUMPDEST PUSH1 0x40 MLOAD PUSH3 0x461BCD PUSH1 0xE5 SHL DUP2 MSTORE PUSH1 0x4 DUP2 ADD DUP4 SWAP1 MSTORE PUSH1 0x1E PUSH1 0x24 DUP3 ADD MSTORE PUSH32 0x54656E64657220646561646C696E6520686173206E6F74207061737365640000 PUSH1 0x44 DUP3 ADD MSTORE PUSH1 0x64 SWAP1 REVERT JUMPDEST CALLVALUE PUSH2 0x2A2 JUMPI PUSH1 0x20 CALLDATASIZE PUSH1 0x3 NOT ADD SLT PUSH2 0x2A2 JUMPI PUSH1 0x1 PUSH1 0x1 PUSH1 0xA0 SHL SUB PUSH2 0x22E1 PUSH2 0x449E JUMP JUMPDEST AND DUP1 PUSH1 0x0 MSTORE PUSH1 0x0 PUSH1 0x20 MSTORE PUSH2 0x2308 PUSH1 0xFF PUSH1 0x1 PUSH1 0x40 PUSH1 0x0 KECCAK256 ADD SLOAD AND DUP1 ISZERO DUP1 PUSH2 0x2386 JUMPI JUMPDEST POP PUSH2 0x4CA7 JUMP JUMPDEST PUSH1 0x0 MSTORE PUSH1 0x0 PUSH1 0x20 MSTORE PUSH1 0x60 PUSH1 0x40 PUSH1 0x0 KECCAK256 PUSH1 0xC0 PUSH1 0x40 MLOAD SWAP2 PUSH2 0x2326 DUP4 PUSH2 0x44EA JUMP JUMPDEST PUSH2 0x232F DUP2 PUSH2 0x46AF JUMP JUMPDEST DUP4 MSTORE PUSH1 0xFF PUSH1 0x1 DUP3 ADD SLOAD AND ISZERO ISZERO PUSH1 0x20 DUP5 ADD MSTORE PUSH1 0x2 DUP2 ADD SLOAD PUSH1 0x40 DUP5 ADD MSTORE PUSH1 0x3 DUP2 ADD SLOAD DUP5 DUP5 ADD MSTORE PUSH1 0x4 DUP2 ADD SLOAD SWAP3 DUP4 PUSH1 0x80 DUP3 ADD MSTORE PUSH1 0x6 PUSH1 0x5 DUP4 ADD SLOAD SWAP3 DUP4 PUSH1 0xA0 DUP5 ADD MSTORE ADD SLOAD SWAP3 DUP4 SWAP2 ADD MSTORE PUSH1 0x40 MLOAD SWAP3 DUP4 MSTORE PUSH1 0x20 DUP4 ADD MSTORE PUSH1 0x40 DUP3 ADD MSTORE RETURN JUMPDEST SWAP1 POP DUP4 PUSH2 0x2302 JUMP JUMPDEST CALLVALUE PUSH2 0x2A2 JUMPI PUSH1 0x20 CALLDATASIZE PUSH1 0x3 NOT ADD SLT PUSH2 0x2A2 JUMPI PUSH1 0x4 CALLDATALOAD PUSH1 0x0 MSTORE PUSH1 0x2 PUSH1 0x20 MSTORE PUSH1 0x40 PUSH1 0x0 KECCAK256 DUP1 SLOAD PUSH1 0x1 DUP3 ADD SLOAD SWAP2 PUSH1 0x1 DUP1 PUSH1 0xA0 SHL SUB PUSH1 0x2 DUP3 ADD SLOAD AND PUSH2 0x2401 PUSH2 0x23D3 PUSH1 0x3 DUP5 ADD PUSH2 0x46AF JUMP JUMPDEST PUSH1 0x5 PUSH1 0x4 DUP6 ADD SLOAD SWAP5 ADD SLOAD SWAP3 PUSH1 0x40 MLOAD SWAP7 DUP8 SWAP7 DUP8 MSTORE PUSH1 0x20 DUP8 ADD MSTORE PUSH1 0x40 DUP7 ADD MSTORE PUSH1 0xC0 PUSH1 0x60 DUP7 ADD MSTORE PUSH1 0xC0 DUP6 ADD SWAP1 PUSH2 0x43BE JUMP JUMPDEST SWAP2 PUSH1 0x80 DUP5 ADD MSTORE PUSH1 0xA0 DUP4 ADD MSTORE SUB SWAP1 RETURN JUMPDEST CALLVALUE PUSH2 0x2A2 JUMPI PUSH1 0x20 CALLDATASIZE PUSH1 0x3 NOT ADD SLT PUSH2 0x2A2 JUMPI PUSH1 0x4 CALLDATALOAD PUSH1 0xC SLOAD DUP2 LT ISZERO PUSH2 0x2A2 JUMPI PUSH2 0x2437 SWAP1 PUSH2 0x48AF JUMP JUMPDEST POP DUP1 SLOAD PUSH1 0x1 DUP1 PUSH1 0xA0 SHL SUB PUSH1 0x1 DUP4 ADD SLOAD AND SWAP2 PUSH1 0xFF PUSH1 0x2 DUP3 ADD SLOAD PUSH2 0x24AA PUSH2 0x245E PUSH1 0x3 DUP6 ADD PUSH2 0x46AF JUMP JUMPDEST PUSH2 0x249C PUSH2 0x246D PUSH1 0x4 DUP8 ADD PUSH2 0x46AF JUMP JUMPDEST SWAP2 PUSH1 0x6 PUSH1 0x5 DUP9 ADD SLOAD SWAP8 ADD SLOAD SWAP5 PUSH1 0x40 MLOAD SWAP10 DUP11 SWAP10 DUP11 MSTORE PUSH1 0x20 DUP11 ADD MSTORE PUSH1 0x40 DUP10 ADD MSTORE PUSH2 0x100 DUP1 PUSH1 0x60 DUP11 ADD MSTORE DUP9 ADD SWAP1 PUSH2 0x43BE JUMP JUMPDEST SWAP1 DUP7 DUP3 SUB PUSH1 0x80 DUP9 ADD MSTORE PUSH2 0x43BE JUMP JUMPDEST SWAP3 PUSH1 0xA0 DUP6 ADD MSTORE DUP2 DUP2 AND ISZERO ISZERO PUSH1 0xC0 DUP6 ADD MSTORE PUSH1 0x8 SHR AND ISZERO ISZERO PUSH1 0xE0 DUP4 ADD MSTORE SUB SWAP1 RETURN JUMPDEST CALLVALUE PUSH2 0x2A2 JUMPI PUSH2 0x24D7 CALLDATASIZE PUSH2 0x433A JUMP JUMPDEST SWAP1 PUSH1 0x0 MSTORE PUSH1 0xE PUSH1 0x20 MSTORE PUSH1 0x40 PUSH1 0x0 KECCAK256 SWAP1 PUSH1 0x0 MSTORE PUSH1 0x20 MSTORE PUSH1 0xA0 PUSH1 0x40 PUSH1 0x0 KECCAK256 DUP1 SLOAD SWAP1 PUSH1 0x1 DUP1 DUP5 SHL SUB PUSH1 0x1 DUP3 ADD SLOAD AND SWAP1 PUSH1 0x2 DUP2 ADD SLOAD PUSH1 0xFF PUSH1 0x4 PUSH1 0x3 DUP5 ADD SLOAD SWAP4 ADD SLOAD AND SWAP3 PUSH1 0x40 MLOAD SWAP5 DUP6 MSTORE PUSH1 0x20 DUP6 ADD MSTORE PUSH1 0x40 DUP5 ADD MSTORE PUSH1 0x60 DUP4 ADD MSTORE ISZERO ISZERO PUSH1 0x80 DUP3 ADD MSTORE RETURN JUMPDEST CALLVALUE PUSH2 0x2A2 JUMPI PUSH1 0x0 CALLDATASIZE PUSH1 0x3 NOT ADD SLT PUSH2 0x2A2 JUMPI PUSH1 0x20 PUSH1 0x40 MLOAD PUSH8 0xDE0B6B3A7640000 DUP2 MSTORE RETURN JUMPDEST CALLVALUE PUSH2 0x2A2 JUMPI PUSH2 0x2565 CALLDATASIZE PUSH2 0x47C8 JUMP JUMPDEST SWAP1 PUSH1 0x1 DUP1 PUSH1 0xA0 SHL SUB DUP1 SWAP4 AND SWAP2 DUP3 PUSH1 0x0 MSTORE PUSH1 0x20 SWAP4 PUSH1 0x0 DUP6 MSTORE PUSH1 0x1 SWAP4 PUSH2 0x259A PUSH1 0xFF DUP7 PUSH1 0x40 PUSH1 0x0 KECCAK256 ADD SLOAD AND DUP1 ISZERO DUP1 PUSH2 0x2762 JUMPI POP PUSH2 0x4CA7 JUMP JUMPDEST PUSH1 0x8 SLOAD SWAP1 PUSH1 0x0 DUP7 JUMPDEST DUP4 DUP2 GT ISZERO PUSH2 0x2726 JUMPI POP DUP1 DUP7 LT ISZERO PUSH2 0x26E3 JUMPI SWAP1 DUP6 DUP8 SWAP3 PUSH2 0x25C2 DUP8 ISZERO ISZERO PUSH2 0x4BE0 JUMP JUMPDEST DUP1 PUSH2 0x25CD DUP9 DUP5 PUSH2 0x4AC6 JUMP JUMPDEST GT PUSH2 0x26D0 JUMPI JUMPDEST POP POP SWAP1 POP PUSH2 0x25E0 DUP5 PUSH2 0x4EF8 JUMP JUMPDEST SWAP7 PUSH1 0x0 SWAP5 PUSH1 0x0 SWAP4 DUP9 DUP1 JUMPDEST PUSH2 0x25FD JUMPI JUMPDEST PUSH1 0x40 MLOAD DUP1 PUSH2 0x519 DUP14 DUP3 PUSH2 0x4350 JUMP JUMPDEST DUP2 DUP2 GT ISZERO DUP1 PUSH2 0x26C7 JUMPI JUMPDEST ISZERO PUSH2 0x26C2 JUMPI SWAP1 DUP2 DUP11 SWAP6 SWAP5 SWAP4 SWAP3 PUSH1 0x0 MSTORE DUP12 PUSH1 0x3 DUP1 DUP7 MSTORE PUSH1 0x40 PUSH1 0x0 KECCAK256 SWAP1 DUP11 DUP10 DUP4 ADD SLOAD AND SWAP2 DUP9 DUP4 EQ PUSH2 0x2648 JUMPI JUMPDEST POP POP POP POP PUSH2 0x263E SWAP1 PUSH2 0x4AD3 JUMP JUMPDEST SWAP1 SWAP2 SWAP3 SWAP4 SWAP5 PUSH2 0x25EA JUMP JUMPDEST DUP14 DUP14 SWAP6 SWAP14 LT ISZERO PUSH2 0x266F JUMPI JUMPDEST POP POP POP POP PUSH2 0x2663 PUSH2 0x263E SWAP2 PUSH2 0x4AD3 JUMP JUMPDEST SWAP9 SWAP1 POP DUP12 DUP14 DUP1 DUP1 PUSH2 0x2631 JUMP JUMPDEST DUP11 PUSH2 0x2663 SWAP5 PUSH2 0x26B8 SWAP5 PUSH2 0x263E SWAP8 SWAP14 SWAP5 PUSH2 0x551 SWAP5 PUSH1 0x40 MLOAD SWAP3 PUSH2 0x268F DUP5 PUSH2 0x44B4 JUMP JUMPDEST DUP2 SLOAD DUP5 MSTORE DUP14 DUP5 ADD MSTORE PUSH1 0x2 DUP2 ADD SLOAD PUSH1 0x40 DUP5 ADD MSTORE ADD SLOAD PUSH1 0x60 DUP3 ADD MSTORE PUSH2 0x26B2 DUP4 DUP4 PUSH2 0x4C93 JUMP JUMPDEST MSTORE PUSH2 0x4C93 JUMP JUMPDEST SWAP8 SWAP2 DUP14 SWAP2 DUP16 PUSH2 0x2653 JUMP JUMPDEST PUSH2 0x25EF JUMP JUMPDEST POP DUP3 DUP7 LT PUSH2 0x2607 JUMP JUMPDEST PUSH2 0x26DB SWAP3 SWAP7 POP PUSH2 0x4BA0 JUMP JUMPDEST SWAP4 DUP6 DUP10 PUSH2 0x25D3 JUMP JUMPDEST PUSH1 0x64 DUP9 PUSH1 0x40 MLOAD SWAP1 PUSH3 0x461BCD PUSH1 0xE5 SHL DUP3 MSTORE DUP1 PUSH1 0x4 DUP4 ADD MSTORE PUSH1 0x24 DUP3 ADD MSTORE PUSH32 0x4F6666736574206578636565647320656E746974792066756E6420636F756E74 PUSH1 0x44 DUP3 ADD MSTORE REVERT JUMPDEST DUP1 PUSH1 0x0 MSTORE PUSH1 0x3 DUP10 MSTORE DUP3 DUP6 DUP10 PUSH1 0x40 PUSH1 0x0 KECCAK256 ADD SLOAD AND EQ PUSH2 0x274D JUMPI JUMPDEST PUSH2 0x2748 SWAP1 PUSH2 0x4AD3 JUMP JUMPDEST PUSH2 0x25A2 JUMP JUMPDEST SWAP1 PUSH2 0x275A PUSH2 0x2748 SWAP2 PUSH2 0x4AD3 JUMP JUMPDEST SWAP2 SWAP1 POP PUSH2 0x273F JUMP JUMPDEST SWAP1 POP DUP9 PUSH2 0x2302 JUMP JUMPDEST CALLVALUE PUSH2 0x2A2 JUMPI PUSH1 0x40 CALLDATASIZE PUSH1 0x3 NOT ADD SLT PUSH2 0x2A2 JUMPI PUSH2 0x2783 PUSH2 0x449E JUMP JUMPDEST PUSH1 0x1 PUSH1 0x1 PUSH1 0xA0 SHL SUB AND PUSH1 0x0 DUP2 DUP2 MSTORE PUSH1 0x20 DUP2 DUP2 MSTORE PUSH1 0x40 SWAP1 SWAP2 KECCAK256 PUSH1 0x1 ADD SLOAD PUSH1 0x24 SWAP3 SWAP2 DUP4 CALLDATALOAD SWAP2 PUSH1 0xFF AND ISZERO PUSH2 0x2977 JUMPI PUSH1 0x1 DUP3 LT ISZERO DUP1 PUSH2 0x296C JUMPI JUMPDEST ISZERO PUSH2 0x2929 JUMPI CALLER PUSH1 0x0 MSTORE PUSH1 0x4 DUP2 MSTORE PUSH1 0x40 PUSH1 0x0 KECCAK256 DUP4 PUSH1 0x0 MSTORE DUP2 MSTORE PUSH1 0xFF PUSH1 0x40 PUSH1 0x0 KECCAK256 SLOAD AND PUSH2 0x28D7 JUMPI DUP3 PUSH1 0x0 MSTORE PUSH1 0x0 DUP2 MSTORE PUSH1 0x40 PUSH1 0x0 KECCAK256 PUSH1 0x5 PUSH1 0x4 DUP3 ADD SLOAD SWAP2 ADD SLOAD SWAP1 DUP2 DUP2 MUL SWAP1 DUP1 DUP3 DIV DUP4 EQ SWAP1 ISZERO OR ISZERO PUSH2 0x28AD JUMPI DUP4 PUSH2 0x2811 SWAP2 PUSH2 0x4AC6 JUMP JUMPDEST PUSH1 0x1 DUP3 ADD DUP1 SWAP3 GT PUSH2 0x28AD JUMPI DUP2 ISZERO PUSH2 0x28C2 JUMPI PUSH1 0x5 SWAP2 DUP6 PUSH1 0x0 MSTORE PUSH1 0x0 DUP5 MSTORE PUSH1 0x40 PUSH1 0x0 KECCAK256 SWAP2 DIV PUSH1 0x4 DUP3 ADD SSTORE ADD DUP1 SLOAD SWAP1 PUSH1 0x1 DUP3 ADD DUP1 SWAP3 GT PUSH2 0x28AD JUMPI SWAP1 PUSH32 0x174BA19BA3C8BB5C679C87E51DB79FFF7C3F04BB84C1FD55B7DACB470B674AA6 SWAP3 SWAP2 SSTORE DUP4 PUSH1 0x0 MSTORE PUSH1 0x0 DUP2 MSTORE TIMESTAMP PUSH1 0x6 PUSH1 0x40 PUSH1 0x0 KECCAK256 ADD SSTORE CALLER PUSH1 0x0 MSTORE PUSH1 0x4 DUP2 MSTORE PUSH1 0x40 PUSH1 0x0 KECCAK256 DUP5 PUSH1 0x0 MSTORE DUP2 MSTORE PUSH1 0x40 PUSH1 0x0 KECCAK256 PUSH1 0x1 PUSH1 0xFF NOT DUP3 SLOAD AND OR SWAP1 SSTORE PUSH1 0x40 MLOAD SWAP3 DUP4 MSTORE CALLER SWAP3 LOG3 STOP JUMPDEST DUP6 PUSH4 0x4E487B71 PUSH1 0xE0 SHL PUSH1 0x0 MSTORE PUSH1 0x11 PUSH1 0x4 MSTORE PUSH1 0x0 REVERT JUMPDEST DUP6 PUSH4 0x4E487B71 PUSH1 0xE0 SHL PUSH1 0x0 MSTORE PUSH1 0x12 PUSH1 0x4 MSTORE PUSH1 0x0 REVERT JUMPDEST PUSH1 0x84 SWAP1 PUSH1 0x26 DUP6 PUSH1 0x40 MLOAD SWAP3 PUSH3 0x461BCD PUSH1 0xE5 SHL DUP5 MSTORE PUSH1 0x4 DUP5 ADD MSTORE DUP3 ADD MSTORE PUSH32 0x596F75206861766520616C726561647920766F74656420666F72207468697320 PUSH1 0x44 DUP3 ADD MSTORE PUSH6 0x656E74697479 PUSH1 0xD0 SHL PUSH1 0x64 DUP3 ADD MSTORE REVERT JUMPDEST PUSH1 0x64 SWAP1 PUSH1 0x1E DUP6 PUSH1 0x40 MLOAD SWAP3 PUSH3 0x461BCD PUSH1 0xE5 SHL DUP5 MSTORE PUSH1 0x4 DUP5 ADD MSTORE DUP3 ADD MSTORE PUSH32 0x526174696E67206D757374206265206265747765656E203120616E6420350000 PUSH1 0x44 DUP3 ADD MSTORE REVERT JUMPDEST POP PUSH1 0x5 DUP3 GT ISZERO PUSH2 0x27B9 JUMP JUMPDEST PUSH1 0x64 SWAP1 PUSH1 0x14 DUP6 PUSH1 0x40 MLOAD SWAP3 PUSH3 0x461BCD PUSH1 0xE5 SHL DUP5 MSTORE PUSH1 0x4 DUP5 ADD MSTORE DUP3 ADD MSTORE PUSH20 0x456E74697479206973206E6F7420616374697665 PUSH1 0x60 SHL PUSH1 0x44 DUP3 ADD MSTORE REVERT JUMPDEST CALLVALUE PUSH2 0x2A2 JUMPI PUSH1 0x20 CALLDATASIZE PUSH1 0x3 NOT ADD SLT PUSH2 0x2A2 JUMPI PUSH1 0x1 PUSH1 0x1 PUSH1 0xA0 SHL SUB PUSH2 0x29D2 PUSH2 0x449E JUMP JUMPDEST AND PUSH1 0x0 MSTORE PUSH1 0x4 PUSH1 0x20 MSTORE PUSH1 0x40 PUSH1 0x0 KECCAK256 CALLER PUSH1 0x0 MSTORE PUSH1 0x20 MSTORE PUSH1 0x20 PUSH1 0xFF PUSH1 0x40 PUSH1 0x0 KECCAK256 SLOAD AND PUSH1 0x40 MLOAD SWAP1 ISZERO ISZERO DUP2 MSTORE RETURN JUMPDEST CALLVALUE PUSH2 0x2A2 JUMPI PUSH1 0x0 CALLDATASIZE PUSH1 0x3 NOT ADD SLT PUSH2 0x2A2 JUMPI PUSH2 0x2A22 PUSH1 0x1 DUP1 PUSH1 0xA0 SHL SUB PUSH1 0x11 SLOAD AND CALLER EQ PUSH2 0x4A22 JUMP JUMPDEST PUSH1 0x20 SELFBALANCE PUSH1 0x40 MLOAD SWAP1 DUP2 MSTORE RETURN JUMPDEST CALLVALUE PUSH2 0x2A2 JUMPI PUSH1 0x0 CALLDATASIZE PUSH1 0x3 NOT ADD SLT PUSH2 0x2A2 JUMPI PUSH1 0x11 SLOAD PUSH1 0x40 MLOAD PUSH1 0x1 PUSH1 0x1 PUSH1 0xA0 SHL SUB SWAP1 SWAP2 AND DUP2 MSTORE PUSH1 0x20 SWAP1 RETURN JUMPDEST CALLVALUE PUSH2 0x2A2 JUMPI PUSH1 0x0 CALLDATASIZE PUSH1 0x3 NOT ADD SLT PUSH2 0x2A2 JUMPI PUSH1 0x20 PUSH1 0x5 SLOAD PUSH1 0x40 MLOAD SWAP1 DUP2 MSTORE RETURN JUMPDEST CALLVALUE PUSH2 0x2A2 JUMPI PUSH1 0x0 CALLDATASIZE PUSH1 0x3 NOT ADD SLT PUSH2 0x2A2 JUMPI PUSH1 0x20 PUSH1 0x7 SLOAD PUSH1 0x40 MLOAD SWAP1 DUP2 MSTORE RETURN JUMPDEST CALLVALUE PUSH2 0x2A2 JUMPI PUSH1 0x20 CALLDATASIZE PUSH1 0x3 NOT ADD SLT PUSH2 0x2A2 JUMPI PUSH1 0x4 CALLDATALOAD PUSH1 0x1 DUP1 PUSH1 0xA0 SHL SUB PUSH2 0x2ABC DUP2 PUSH1 0x11 SLOAD AND CALLER EQ PUSH2 0x4A22 JUMP JUMPDEST PUSH2 0x2AC9 PUSH1 0x7 SLOAD DUP4 LT PUSH2 0x4D3F JUMP JUMPDEST PUSH1 0x1 PUSH2 0x2AD4 DUP4 PUSH2 0x48AF JUMP JUMPDEST POP PUSH1 0x6 DUP2 ADD PUSH2 0x100 DUP2 SLOAD PUSH1 0xFF DUP2 AND ISZERO DUP1 PUSH2 0x2B25 JUMPI JUMPDEST PUSH2 0x2AF2 SWAP1 PUSH2 0x4D80 JUMP JUMPDEST PUSH2 0xFF00 NOT AND OR SWAP1 SSTORE ADD SLOAD AND SWAP1 PUSH32 0x4323A3F8BBBCF284E67A4932738F0F8FE465297D522B256E4F863FFBBF22C7EE PUSH1 0x0 DUP1 LOG3 STOP JUMPDEST POP PUSH1 0x8 DUP2 SWAP1 SHR PUSH1 0xFF AND ISZERO PUSH2 0x2AE9 JUMP JUMPDEST PUSH2 0x2B3D CALLDATASIZE PUSH2 0x433A JUMP JUMPDEST DUP2 PUSH1 0x0 MSTORE PUSH1 0xD PUSH1 0x20 DUP2 DUP2 MSTORE PUSH2 0x2B5F PUSH1 0xFF PUSH1 0x5 PUSH1 0x40 PUSH1 0x0 KECCAK256 ADD SLOAD PUSH1 0xA0 SHR AND PUSH2 0x5020 JUMP JUMPDEST DUP4 PUSH1 0x0 MSTORE DUP2 DUP2 MSTORE PUSH2 0x2B79 PUSH1 0x4 PUSH1 0x40 PUSH1 0x0 KECCAK256 ADD SLOAD TIMESTAMP LT PUSH2 0x5063 JUMP JUMPDEST PUSH1 0x0 DUP5 DUP2 MSTORE DUP3 DUP3 MSTORE PUSH1 0x40 SWAP1 KECCAK256 PUSH1 0x5 ADD SLOAD PUSH1 0x1 PUSH1 0x1 PUSH1 0xA0 SHL SUB SWAP5 SWAP1 DUP6 AND CALLER EQ PUSH2 0x2DC8 JUMPI DUP1 PUSH1 0x0 MSTORE DUP3 DUP3 MSTORE PUSH1 0x8 PUSH1 0x40 PUSH1 0x0 KECCAK256 ADD SLOAD DUP5 LT PUSH2 0x2D83 JUMPI DUP1 PUSH1 0x0 MSTORE DUP3 DUP3 MSTORE PUSH1 0x9 PUSH1 0x40 PUSH1 0x0 KECCAK256 ADD SLOAD DUP5 GT PUSH2 0x2D3E JUMPI DUP4 CALLVALUE SUB PUSH2 0x2CF9 JUMPI DUP1 PUSH1 0x0 MSTORE PUSH1 0xF DUP3 MSTORE PUSH1 0x40 PUSH1 0x0 KECCAK256 DUP1 SLOAD SWAP1 PUSH2 0x2BE7 DUP3 PUSH2 0x4AD3 JUMP JUMPDEST SWAP1 SSTORE PUSH2 0x2C75 PUSH1 0x40 MLOAD PUSH2 0x2BF8 DUP2 PUSH2 0x44CF JUMP JUMPDEST DUP3 DUP2 MSTORE PUSH1 0x4 DUP6 DUP3 ADD SWAP9 CALLER DUP11 MSTORE PUSH1 0x40 DUP4 ADD DUP10 DUP2 MSTORE PUSH1 0x60 DUP5 ADD SWAP1 TIMESTAMP DUP3 MSTORE PUSH1 0x80 DUP6 ADD SWAP3 PUSH1 0x0 DUP5 MSTORE DUP9 PUSH1 0x0 MSTORE PUSH1 0xE DUP11 MSTORE PUSH1 0x40 PUSH1 0x0 KECCAK256 DUP9 PUSH1 0x0 MSTORE DUP11 MSTORE PUSH1 0x40 PUSH1 0x0 KECCAK256 SWAP6 MLOAD DUP7 SSTORE PUSH1 0x1 DUP7 ADD SWAP13 MLOAD AND SWAP12 PUSH1 0x1 PUSH1 0x1 PUSH1 0x60 SHL SUB PUSH1 0xA0 SHL SWAP13 DUP14 DUP3 SLOAD AND OR SWAP1 SSTORE MLOAD PUSH1 0x2 DUP6 ADD SSTORE MLOAD PUSH1 0x3 DUP5 ADD SSTORE MLOAD ISZERO ISZERO SWAP2 ADD SWAP1 PUSH1 0xFF DUP1 NOT DUP4 SLOAD AND SWAP2 ISZERO ISZERO AND OR SWAP1 SSTORE JUMP JUMPDEST DUP2 PUSH1 0x0 MSTORE DUP4 DUP4 MSTORE PUSH1 0xA PUSH1 0x40 PUSH1 0x0 KECCAK256 ADD PUSH2 0x2C8E DUP2 SLOAD PUSH2 0x4AD3 JUMP JUMPDEST SWAP1 SSTORE PUSH1 0x40 MLOAD SWAP1 DUP6 DUP3 MSTORE DUP3 PUSH32 0x6F7E354EA3AB5C288AEA37FCE29C603F9A98A3B040F6D8F32F10E192EC47FF6A DUP6 CALLER SWAP5 LOG4 PUSH1 0x0 MSTORE MSTORE PUSH1 0x40 PUSH1 0x0 KECCAK256 PUSH1 0x7 DUP2 ADD SWAP2 DUP3 SLOAD DUP1 ISZERO SWAP1 DUP2 ISZERO PUSH2 0x2CEF JUMPI JUMPDEST POP PUSH2 0x2CDE JUMPI STOP JUMPDEST SWAP1 SWAP2 SSTORE PUSH1 0x6 ADD DUP1 SLOAD SWAP1 SWAP2 AND CALLER OR SWAP1 SSTORE STOP JUMPDEST SWAP1 POP DUP2 LT DUP6 PUSH2 0x2CD7 JUMP JUMPDEST PUSH1 0x40 MLOAD PUSH3 0x461BCD PUSH1 0xE5 SHL DUP2 MSTORE PUSH1 0x4 DUP2 ADD DUP4 SWAP1 MSTORE PUSH1 0x19 PUSH1 0x24 DUP3 ADD MSTORE PUSH32 0x496E636F72726563742045544820616D6F756E742073656E7400000000000000 PUSH1 0x44 DUP3 ADD MSTORE PUSH1 0x64 SWAP1 REVERT JUMPDEST PUSH1 0x40 MLOAD PUSH3 0x461BCD PUSH1 0xE5 SHL DUP2 MSTORE PUSH1 0x4 DUP2 ADD DUP4 SWAP1 MSTORE PUSH1 0x18 PUSH1 0x24 DUP3 ADD MSTORE PUSH32 0x42696420616D6F756E742061626F7665206D6178696D756D0000000000000000 PUSH1 0x44 DUP3 ADD MSTORE PUSH1 0x64 SWAP1 REVERT JUMPDEST PUSH1 0x40 MLOAD PUSH3 0x461BCD PUSH1 0xE5 SHL DUP2 MSTORE PUSH1 0x4 DUP2 ADD DUP4 SWAP1 MSTORE PUSH1 0x18 PUSH1 0x24 DUP3 ADD MSTORE PUSH32 0x42696420616D6F756E742062656C6F77206D696E696D756D0000000000000000 PUSH1 0x44 DUP3 ADD MSTORE PUSH1 0x64 SWAP1 REVERT JUMPDEST PUSH1 0x40 MLOAD PUSH3 0x461BCD PUSH1 0xE5 SHL DUP2 MSTORE PUSH1 0x4 DUP2 ADD DUP4 SWAP1 MSTORE PUSH1 0x17 PUSH1 0x24 DUP3 ADD MSTORE PUSH32 0x4973737565722063616E6E6F7420706C61636520626964000000000000000000 PUSH1 0x44 DUP3 ADD MSTORE PUSH1 0x64 SWAP1 REVERT JUMPDEST CALLVALUE PUSH2 0x2A2 JUMPI PUSH1 0x20 DUP1 PUSH1 0x3 NOT CALLDATASIZE ADD SLT PUSH2 0x2A2 JUMPI PUSH1 0x4 CALLDATALOAD PUSH2 0x2E2A PUSH2 0x50AF JUMP JUMPDEST POP DUP1 ISZERO ISZERO DUP1 PUSH2 0x2F31 JUMPI JUMPDEST ISZERO PUSH2 0x2EF8 JUMPI PUSH1 0x0 MSTORE PUSH1 0xD DUP2 MSTORE PUSH1 0x40 PUSH1 0x0 KECCAK256 SWAP1 PUSH1 0xA PUSH1 0x40 MLOAD SWAP3 PUSH2 0x2E55 DUP5 PUSH2 0x4520 JUMP JUMPDEST DUP1 SLOAD DUP5 MSTORE PUSH2 0x2E65 PUSH1 0x1 DUP3 ADD PUSH2 0x46AF JUMP JUMPDEST DUP4 DUP6 ADD MSTORE PUSH2 0x2E75 PUSH1 0x2 DUP3 ADD PUSH2 0x46AF JUMP JUMPDEST PUSH1 0x40 DUP6 ADD MSTORE PUSH1 0x3 DUP2 ADD SLOAD PUSH1 0x60 DUP6 ADD MSTORE PUSH1 0x4 DUP2 ADD SLOAD PUSH1 0x80 DUP6 ADD MSTORE PUSH1 0x5 DUP2 ADD SLOAD PUSH1 0xFF PUSH1 0x1 DUP1 PUSH1 0xA0 SHL SUB SWAP2 DUP3 DUP2 AND PUSH1 0xA0 DUP9 ADD MSTORE PUSH1 0xA0 SHR AND ISZERO ISZERO PUSH1 0xC0 DUP7 ADD MSTORE PUSH1 0x6 DUP3 ADD SLOAD AND PUSH1 0xE0 DUP6 ADD MSTORE PUSH1 0x7 DUP2 ADD SLOAD PUSH2 0x100 DUP6 ADD MSTORE PUSH1 0x8 DUP2 ADD SLOAD PUSH2 0x120 DUP6 ADD MSTORE PUSH1 0x9 DUP2 ADD SLOAD PUSH2 0x140 DUP6 ADD MSTORE ADD SLOAD PUSH2 0x160 DUP4 ADD MSTORE PUSH2 0x519 PUSH1 0x40 MLOAD SWAP3 DUP3 DUP5 SWAP4 DUP5 MSTORE DUP4 ADD SWAP1 PUSH2 0x43FE JUMP JUMPDEST PUSH1 0x40 MLOAD PUSH3 0x461BCD PUSH1 0xE5 SHL DUP2 MSTORE PUSH1 0x4 DUP2 ADD DUP4 SWAP1 MSTORE PUSH1 0x11 PUSH1 0x24 DUP3 ADD MSTORE PUSH17 0x125B9D985B1A59081D195B99195C881251 PUSH1 0x7A SHL PUSH1 0x44 DUP3 ADD MSTORE PUSH1 0x64 SWAP1 REVERT JUMPDEST POP PUSH1 0x10 SLOAD DUP2 GT ISZERO PUSH2 0x2E34 JUMP JUMPDEST CALLVALUE PUSH2 0x2A2 JUMPI PUSH2 0x2F4B CALLDATASIZE PUSH2 0x47C8 JUMP JUMPDEST SWAP1 PUSH1 0x1 DUP1 PUSH1 0xA0 SHL SUB DUP1 SWAP4 AND SWAP2 DUP3 PUSH1 0x0 MSTORE PUSH1 0x20 PUSH1 0x0 DUP2 MSTORE PUSH1 0x1 SWAP4 PUSH2 0x2F7F PUSH1 0xFF DUP7 PUSH1 0x40 PUSH1 0x0 KECCAK256 ADD SLOAD AND DUP1 ISZERO DUP1 PUSH2 0x2762 JUMPI POP PUSH2 0x4CA7 JUMP JUMPDEST PUSH1 0x9 SLOAD SWAP1 PUSH1 0x0 DUP7 JUMPDEST DUP4 DUP2 GT ISZERO PUSH2 0x312F JUMPI POP DUP1 DUP7 LT ISZERO PUSH2 0x30DF JUMPI DUP6 SWAP1 PUSH2 0x2FA5 DUP7 ISZERO ISZERO PUSH2 0x4BE0 JUMP JUMPDEST DUP1 PUSH2 0x2FB0 DUP8 DUP5 PUSH2 0x4AC6 JUMP JUMPDEST GT PUSH2 0x30CC JUMPI JUMPDEST POP POP PUSH2 0x2FC1 DUP5 PUSH2 0x4C43 JUMP JUMPDEST SWAP7 PUSH1 0x0 SWAP5 PUSH1 0x0 SWAP4 DUP9 DUP1 JUMPDEST PUSH2 0x2FDE JUMPI JUMPDEST PUSH1 0x40 MLOAD DUP1 PUSH2 0x519 DUP14 DUP3 PUSH2 0x484D JUMP JUMPDEST DUP2 DUP2 GT ISZERO DUP1 PUSH2 0x30C3 JUMPI JUMPDEST ISZERO PUSH2 0x30BE JUMPI SWAP1 DUP2 DUP11 SWAP5 SWAP4 SWAP3 PUSH1 0x0 MSTORE DUP5 DUP9 MSTORE DUP12 PUSH1 0x40 PUSH1 0x0 KECCAK256 DUP6 DUP8 DUP3 ADD SLOAD AND DUP9 DUP2 EQ PUSH2 0x3022 JUMPI JUMPDEST POP POP POP PUSH2 0x3019 SWAP1 PUSH2 0x4AD3 JUMP JUMPDEST SWAP1 SWAP2 SWAP3 SWAP4 PUSH2 0x2FCB JUMP JUMPDEST SWAP1 DUP11 SWAP2 DUP14 DUP14 SWAP6 SWAP14 LT ISZERO PUSH2 0x304B JUMPI JUMPDEST POP POP POP POP PUSH2 0x3040 PUSH2 0x3019 SWAP2 PUSH2 0x4AD3 JUMP JUMPDEST SWAP9 SWAP1 POP DUP12 DUP14 DUP1 PUSH2 0x300D JUMP JUMPDEST DUP11 PUSH2 0x3040 SWAP5 PUSH2 0x30B1 SWAP5 PUSH1 0x5 PUSH2 0x3019 SWAP9 SWAP15 SWAP6 PUSH2 0x551 SWAP6 PUSH1 0x40 MLOAD SWAP4 PUSH2 0x306D DUP6 PUSH2 0x4505 JUMP JUMPDEST DUP3 SLOAD DUP6 MSTORE DUP5 ADD MSTORE PUSH2 0x3080 PUSH1 0x2 DUP3 ADD PUSH2 0x46AF JUMP JUMPDEST PUSH1 0x40 DUP5 ADD MSTORE PUSH1 0x3 DUP2 ADD SLOAD PUSH1 0x60 DUP5 ADD MSTORE PUSH2 0x309B PUSH1 0x4 DUP3 ADD PUSH2 0x46AF JUMP JUMPDEST PUSH1 0x80 DUP5 ADD MSTORE ADD SLOAD PUSH1 0xA0 DUP3 ADD MSTORE PUSH2 0x26B2 DUP4 DUP4 PUSH2 0x4C93 JUMP JUMPDEST SWAP8 SWAP2 POP POP DUP12 DUP9 DUP15 DUP1 PUSH2 0x3030 JUMP JUMPDEST PUSH2 0x2FD0 JUMP JUMPDEST POP DUP3 DUP7 LT PUSH2 0x2FE8 JUMP JUMPDEST PUSH2 0x30D7 SWAP3 SWAP6 POP PUSH2 0x4BA0 JUMP JUMPDEST SWAP3 DUP5 DUP9 PUSH2 0x2FB6 JUMP JUMPDEST PUSH1 0x40 MLOAD PUSH3 0x461BCD PUSH1 0xE5 SHL DUP2 MSTORE PUSH1 0x4 DUP2 ADD DUP6 SWAP1 MSTORE PUSH1 0x22 PUSH1 0x24 DUP3 ADD MSTORE PUSH32 0x4F6666736574206578636565647320656E74697479207265636F726420636F75 PUSH1 0x44 DUP3 ADD MSTORE PUSH2 0x1B9D PUSH1 0xF2 SHL PUSH1 0x64 DUP3 ADD MSTORE PUSH1 0x84 SWAP1 REVERT JUMPDEST DUP1 PUSH1 0x0 MSTORE DUP8 DUP6 MSTORE DUP3 DUP10 DUP10 PUSH1 0x40 PUSH1 0x0 KECCAK256 ADD SLOAD AND EQ PUSH2 0x3155 JUMPI JUMPDEST PUSH2 0x3150 SWAP1 PUSH2 0x4AD3 JUMP JUMPDEST PUSH2 0x2F87 JUMP JUMPDEST SWAP1 PUSH2 0x3162 PUSH2 0x3150 SWAP2 PUSH2 0x4AD3 JUMP JUMPDEST SWAP2 SWAP1 POP PUSH2 0x3147 JUMP JUMPDEST CALLVALUE PUSH2 0x2A2 JUMPI PUSH1 0x20 CALLDATASIZE PUSH1 0x3 NOT ADD SLT PUSH2 0x2A2 JUMPI PUSH2 0x519 PUSH2 0x319D PUSH2 0x536 PUSH1 0x4 CALLDATALOAD PUSH2 0x318F PUSH2 0x4DCC JUMP JUMPDEST POP PUSH2 0x531 PUSH1 0x7 SLOAD DUP3 LT PUSH2 0x4D3F JUMP JUMPDEST PUSH1 0x40 MLOAD SWAP2 DUP3 SWAP2 PUSH1 0x20 DUP4 MSTORE PUSH1 0x20 DUP4 ADD SWAP1 PUSH2 0x4755 JUMP JUMPDEST CALLVALUE PUSH2 0x2A2 JUMPI PUSH1 0x40 CALLDATASIZE PUSH1 0x3 NOT ADD SLT PUSH2 0x2A2 JUMPI PUSH2 0x31CA PUSH2 0x449E JUMP JUMPDEST PUSH1 0x1 PUSH1 0x1 PUSH1 0xA0 SHL SUB PUSH1 0x24 CALLDATALOAD DUP2 DUP2 AND SWAP3 SWAP1 DUP4 SWAP1 SUB PUSH2 0x2A2 JUMPI AND PUSH1 0x0 MSTORE PUSH1 0x4 PUSH1 0x20 MSTORE PUSH1 0x40 PUSH1 0x0 KECCAK256 SWAP1 PUSH1 0x0 MSTORE PUSH1 0x20 MSTORE PUSH1 0x20 PUSH1 0xFF PUSH1 0x40 PUSH1 0x0 KECCAK256 SLOAD AND PUSH1 0x40 MLOAD SWAP1 ISZERO ISZERO DUP2 MSTORE RETURN JUMPDEST CALLVALUE PUSH2 0x2A2 JUMPI PUSH1 0x0 CALLDATASIZE PUSH1 0x3 NOT ADD SLT PUSH2 0x2A2 JUMPI PUSH1 0x20 PUSH1 0x8 SLOAD PUSH1 0x40 MLOAD SWAP1 DUP2 MSTORE RETURN JUMPDEST CALLVALUE PUSH2 0x2A2 JUMPI PUSH1 0x20 CALLDATASIZE PUSH1 0x3 NOT ADD SLT PUSH2 0x2A2 JUMPI PUSH1 0x4 CALLDATALOAD PUSH1 0x0 MSTORE PUSH1 0xD PUSH1 0x20 MSTORE PUSH1 0x40 PUSH1 0x0 KECCAK256 DUP1 SLOAD PUSH2 0x3258 PUSH1 0x1 DUP4 ADD PUSH2 0x46AF JUMP JUMPDEST SWAP2 PUSH2 0x3265 PUSH1 0x2 DUP3 ADD PUSH2 0x46AF JUMP JUMPDEST PUSH1 0x3 DUP3 ADD SLOAD SWAP2 PUSH1 0x4 DUP2 ADD SLOAD PUSH1 0x5 DUP3 ADD SLOAD PUSH1 0x1 DUP1 PUSH1 0xA0 SHL SUB SWAP1 PUSH1 0xFF DUP3 PUSH1 0x6 DUP7 ADD SLOAD AND SWAP2 PUSH1 0x7 DUP7 ADD SLOAD SWAP4 PUSH1 0x8 DUP8 ADD SLOAD SWAP6 PUSH2 0x32CD PUSH1 0xA PUSH1 0x9 DUP11 ADD SLOAD SWAP10 ADD SLOAD SWAP10 PUSH2 0x32BF PUSH1 0x40 MLOAD SWAP15 DUP16 SWAP15 DUP16 SWAP1 DUP2 MSTORE PUSH2 0x180 SWAP1 DUP2 PUSH1 0x20 DUP3 ADD MSTORE ADD SWAP1 PUSH2 0x43BE JUMP JUMPDEST DUP14 DUP2 SUB PUSH1 0x40 DUP16 ADD MSTORE SWAP1 PUSH2 0x43BE JUMP JUMPDEST SWAP10 PUSH1 0x60 DUP13 ADD MSTORE PUSH1 0x80 DUP12 ADD MSTORE DUP2 AND PUSH1 0xA0 DUP11 ADD MSTORE PUSH1 0xA0 SHR AND ISZERO ISZERO PUSH1 0xC0 DUP9 ADD MSTORE PUSH1 0xE0 DUP8 ADD MSTORE PUSH2 0x100 DUP7 ADD MSTORE PUSH2 0x120 DUP6 ADD MSTORE PUSH2 0x140 DUP5 ADD MSTORE PUSH2 0x160 DUP4 ADD MSTORE SUB SWAP1 RETURN JUMPDEST CALLVALUE PUSH2 0x2A2 JUMPI PUSH1 0x20 DUP1 PUSH1 0x3 NOT CALLDATASIZE ADD SLT PUSH2 0x2A2 JUMPI PUSH1 0x4 CALLDATALOAD PUSH1 0x0 MSTORE PUSH1 0xB DUP2 MSTORE PUSH1 0x40 PUSH1 0x0 KECCAK256 PUSH1 0x40 MLOAD DUP1 DUP3 DUP5 DUP3 SWAP5 SLOAD SWAP4 DUP5 DUP2 MSTORE ADD SWAP1 PUSH1 0x0 MSTORE DUP5 PUSH1 0x0 KECCAK256 SWAP3 PUSH1 0x0 JUMPDEST DUP7 DUP3 DUP3 LT PUSH2 0x33DA JUMPI DUP5 PUSH2 0x335B DUP2 DUP7 SUB DUP3 PUSH2 0x4558 JUMP JUMPDEST PUSH2 0x3365 DUP2 MLOAD PUSH2 0x4FA6 JUMP JUMPDEST SWAP2 PUSH1 0x0 JUMPDEST DUP3 MLOAD DUP2 LT ISZERO PUSH2 0x33CC JUMPI DUP1 PUSH2 0x3380 PUSH2 0x33C7 SWAP3 DUP6 PUSH2 0x4C93 JUMP JUMPDEST MLOAD PUSH1 0x0 MSTORE PUSH1 0x2 DUP1 DUP5 MSTORE PUSH1 0x5 PUSH1 0x40 PUSH1 0x0 KECCAK256 PUSH1 0x40 MLOAD SWAP3 PUSH2 0x339D DUP5 PUSH2 0x4505 JUMP JUMPDEST DUP2 SLOAD DUP5 MSTORE PUSH1 0x1 DUP3 ADD SLOAD DUP8 DUP6 ADD MSTORE DUP2 ADD SLOAD PUSH1 0x1 PUSH1 0x1 PUSH1 0xA0 SHL SUB AND PUSH1 0x40 DUP5 ADD MSTORE PUSH2 0x209F PUSH1 0x3 DUP3 ADD PUSH2 0x46AF JUMP JUMPDEST PUSH2 0x3369 JUMP JUMPDEST PUSH1 0x40 MLOAD DUP1 PUSH2 0x519 DUP7 DUP3 PUSH2 0x45CF JUMP JUMPDEST DUP6 SLOAD DUP5 MSTORE PUSH1 0x1 SWAP6 DUP7 ADD SWAP6 DUP8 SWAP6 POP SWAP4 ADD SWAP3 ADD PUSH2 0x3346 JUMP JUMPDEST CALLVALUE PUSH2 0x2A2 JUMPI PUSH1 0x20 DUP1 PUSH1 0x3 NOT CALLDATASIZE ADD SLT PUSH2 0x2A2 JUMPI PUSH1 0x4 CALLDATALOAD SWAP1 CALLER PUSH1 0x0 MSTORE PUSH1 0x0 DUP2 MSTORE PUSH2 0x3422 PUSH1 0xFF PUSH1 0x1 PUSH1 0x40 PUSH1 0x0 KECCAK256 ADD SLOAD AND PUSH2 0x4AE2 JUMP JUMPDEST DUP2 PUSH1 0x0 MSTORE PUSH1 0xD DUP2 MSTORE PUSH2 0x3441 PUSH1 0xFF PUSH1 0x5 PUSH1 0x40 PUSH1 0x0 KECCAK256 ADD SLOAD PUSH1 0xA0 SHR AND PUSH2 0x5020 JUMP JUMPDEST PUSH1 0x0 DUP3 DUP2 MSTORE PUSH1 0xD DUP3 MSTORE PUSH1 0x40 SWAP1 KECCAK256 PUSH1 0x5 ADD SLOAD PUSH1 0x1 PUSH1 0x1 PUSH1 0xA0 SHL SUB SWAP2 SWAP1 DUP3 AND CALLER SUB PUSH2 0x34E5 JUMPI PUSH1 0x0 SWAP1 DUP4 DUP3 MSTORE PUSH1 0xD DUP2 MSTORE PUSH2 0x3480 PUSH1 0x4 PUSH1 0x40 DUP5 KECCAK256 ADD SLOAD TIMESTAMP LT PUSH2 0x5063 JUMP JUMPDEST DUP4 DUP3 MSTORE PUSH1 0xD DUP2 MSTORE PUSH1 0x40 DUP3 KECCAK256 SWAP3 PUSH1 0x3 PUSH1 0x5 DUP6 ADD SWAP5 DUP6 SLOAD SWAP6 PUSH1 0xFF PUSH1 0xA0 SHL NOT DUP8 AND SWAP1 SSTORE ADD SLOAD SWAP4 AND DUP3 MSTORE MSTORE PUSH2 0x34BA PUSH1 0x2 PUSH1 0x40 PUSH1 0x0 KECCAK256 ADD SWAP2 DUP3 SLOAD PUSH2 0x4AC6 JUMP JUMPDEST SWAP1 SSTORE CALLER SWAP1 PUSH32 0x116BCF29F123D8A1761E1B9BEBBC345A1F08879DAFDE27B887A89E6E0B7AF019 PUSH1 0x0 DUP1 LOG3 STOP JUMPDEST PUSH1 0x64 SWAP1 PUSH1 0x40 MLOAD SWAP1 PUSH3 0x461BCD PUSH1 0xE5 SHL DUP3 MSTORE PUSH1 0x4 DUP3 ADD MSTORE PUSH1 0x1D PUSH1 0x24 DUP3 ADD MSTORE PUSH32 0x4F6E6C79206973737565722063616E2063616E63656C2074656E646572000000 PUSH1 0x44 DUP3 ADD MSTORE REVERT JUMPDEST CALLVALUE PUSH2 0x2A2 JUMPI PUSH1 0x40 CALLDATASIZE PUSH1 0x3 NOT ADD SLT PUSH2 0x2A2 JUMPI PUSH2 0x3542 PUSH2 0x449E JUMP JUMPDEST PUSH1 0x1 PUSH1 0x1 PUSH1 0x40 SHL SUB SWAP1 PUSH1 0x24 CALLDATALOAD DUP3 DUP2 GT PUSH2 0x2A2 JUMPI PUSH2 0x3563 SWAP1 CALLDATASIZE SWAP1 PUSH1 0x4 ADD PUSH2 0x4579 JUMP JUMPDEST SWAP2 PUSH2 0x3579 PUSH1 0x1 DUP1 PUSH1 0xA0 SHL SUB PUSH1 0x11 SLOAD AND CALLER EQ PUSH2 0x4A22 JUMP JUMPDEST PUSH1 0x1 PUSH1 0x1 PUSH1 0xA0 SHL SUB DUP3 AND ISZERO PUSH2 0x387C JUMPI DUP3 MLOAD ISZERO PUSH2 0x3837 JUMPI PUSH1 0x1 PUSH1 0x1 PUSH1 0xA0 SHL SUB DUP3 AND PUSH1 0x0 SWAP1 DUP2 MSTORE PUSH1 0x20 DUP2 SWAP1 MSTORE PUSH1 0x40 SWAP1 KECCAK256 PUSH1 0x1 ADD SLOAD PUSH1 0xFF AND PUSH2 0x37E6 JUMPI PUSH1 0x40 MLOAD PUSH2 0x35BE DUP2 PUSH2 0x44EA JUMP JUMPDEST DUP4 DUP2 MSTORE PUSH1 0x1 PUSH1 0x20 DUP3 ADD MSTORE PUSH1 0x0 PUSH1 0x40 DUP3 ADD MSTORE PUSH1 0x0 PUSH1 0x60 DUP3 ADD MSTORE PUSH1 0x0 PUSH1 0x80 DUP3 ADD MSTORE PUSH1 0x0 PUSH1 0xA0 DUP3 ADD MSTORE PUSH1 0x0 PUSH1 0xC0 DUP3 ADD MSTORE PUSH1 0x1 DUP1 PUSH1 0xA0 SHL SUB DUP4 AND PUSH1 0x0 MSTORE PUSH1 0x0 PUSH1 0x20 MSTORE PUSH1 0x40 PUSH1 0x0 KECCAK256 SWAP2 DUP2 MLOAD DUP1 MLOAD SWAP2 DUP3 GT PUSH2 0x932 JUMPI PUSH2 0x3617 DUP5 SLOAD PUSH2 0x4675 JUMP JUMPDEST PUSH1 0x1F DUP2 GT PUSH2 0x37A2 JUMPI JUMPDEST POP PUSH1 0x20 SWAP1 PUSH1 0x1F DUP4 GT PUSH1 0x1 EQ PUSH2 0x3733 JUMPI SWAP2 DUP1 PUSH1 0x6 SWAP5 SWAP3 PUSH1 0xC0 SWAP5 PUSH1 0x0 SWAP3 PUSH2 0x3728 JUMPI JUMPDEST POP POP DUP2 PUSH1 0x1 SHL SWAP2 PUSH1 0x0 NOT SWAP1 PUSH1 0x3 SHL SHR NOT AND OR DUP5 SSTORE JUMPDEST PUSH2 0x3674 PUSH1 0x20 DUP3 ADD MLOAD ISZERO ISZERO PUSH1 0x1 DUP7 ADD SWAP1 PUSH1 0xFF DUP1 NOT DUP4 SLOAD AND SWAP2 ISZERO ISZERO AND OR SWAP1 SSTORE JUMP JUMPDEST PUSH1 0x40 DUP2 ADD MLOAD PUSH1 0x2 DUP6 ADD SSTORE PUSH1 0x60 DUP2 ADD MLOAD PUSH1 0x3 DUP6 ADD SSTORE PUSH1 0x80 DUP2 ADD MLOAD PUSH1 0x4 DUP6 ADD SSTORE PUSH1 0xA0 DUP2 ADD MLOAD PUSH1 0x5 DUP6 ADD SSTORE ADD MLOAD SWAP2 ADD SSTORE PUSH1 0x5 SLOAD PUSH1 0x1 PUSH1 0x40 SHL DUP2 LT ISZERO PUSH2 0x932 JUMPI PUSH32 0x1B7E3D9F922BE54960CE9BEA1D47B9B6EA18BBAFB4E0FDEEDC5E2A668E8FDAF8 SWAP2 PUSH2 0x36E5 DUP3 PUSH1 0x1 PUSH2 0x3723 SWAP5 ADD PUSH1 0x5 SSTORE PUSH2 0x49D3 JUMP JUMPDEST DUP2 SLOAD SWAP1 PUSH1 0x3 SHL SWAP1 PUSH1 0x1 DUP1 PUSH1 0xA0 SHL SUB DUP5 AND DUP3 SHL SWAP2 PUSH1 0x1 DUP1 PUSH1 0xA0 SHL SUB SWAP1 SHL NOT AND OR SWAP1 SSTORE PUSH1 0x40 MLOAD SWAP2 DUP3 SWAP2 PUSH1 0x20 DUP4 MSTORE PUSH1 0x1 DUP1 PUSH1 0xA0 SHL SUB AND SWAP5 PUSH1 0x20 DUP4 ADD SWAP1 PUSH2 0x43BE JUMP JUMPDEST SUB SWAP1 LOG2 STOP JUMPDEST ADD MLOAD SWAP1 POP DUP9 DUP1 PUSH2 0x3640 JUMP JUMPDEST SWAP1 DUP5 PUSH1 0x0 MSTORE PUSH1 0x20 PUSH1 0x0 KECCAK256 SWAP2 PUSH1 0x0 JUMPDEST PUSH1 0x1F NOT DUP6 AND DUP2 LT PUSH2 0x378A JUMPI POP SWAP3 PUSH1 0x6 SWAP5 SWAP3 PUSH1 0x1 SWAP3 PUSH1 0xC0 SWAP6 DUP4 PUSH1 0x1F NOT DUP2 AND LT PUSH2 0x3771 JUMPI JUMPDEST POP POP POP DUP2 SHL ADD DUP5 SSTORE PUSH2 0x3655 JUMP JUMPDEST ADD MLOAD PUSH1 0x0 NOT PUSH1 0xF8 DUP5 PUSH1 0x3 SHL AND SHR NOT AND SWAP1 SSTORE DUP9 DUP1 DUP1 PUSH2 0x3764 JUMP JUMPDEST SWAP2 SWAP3 PUSH1 0x20 PUSH1 0x1 DUP2 SWAP3 DUP7 DUP6 ADD MLOAD DUP2 SSTORE ADD SWAP5 ADD SWAP3 ADD PUSH2 0x3741 JUMP JUMPDEST DUP5 PUSH1 0x0 MSTORE PUSH1 0x20 PUSH1 0x0 KECCAK256 PUSH1 0x1F DUP5 ADD PUSH1 0x5 SHR DUP2 ADD PUSH1 0x20 DUP6 LT PUSH2 0x37DF JUMPI JUMPDEST PUSH1 0x1F DUP4 ADD PUSH1 0x5 SHR DUP3 ADD DUP2 LT PUSH2 0x37D3 JUMPI POP POP PUSH2 0x3620 JUMP JUMPDEST PUSH1 0x0 DUP2 SSTORE PUSH1 0x1 ADD PUSH2 0x37BD JUMP JUMPDEST POP DUP1 PUSH2 0x37BD JUMP JUMPDEST PUSH1 0x40 MLOAD PUSH3 0x461BCD PUSH1 0xE5 SHL DUP2 MSTORE PUSH1 0x20 PUSH1 0x4 DUP3 ADD MSTORE PUSH1 0x24 DUP1 DUP3 ADD MSTORE PUSH32 0x456E7469747920616C7265616479207265676973746572656420616E64206163 PUSH1 0x44 DUP3 ADD MSTORE PUSH4 0x74697665 PUSH1 0xE0 SHL PUSH1 0x64 DUP3 ADD MSTORE PUSH1 0x84 SWAP1 REVERT JUMPDEST PUSH1 0x40 MLOAD PUSH3 0x461BCD PUSH1 0xE5 SHL DUP2 MSTORE PUSH1 0x20 PUSH1 0x4 DUP3 ADD MSTORE PUSH1 0x1B PUSH1 0x24 DUP3 ADD MSTORE PUSH32 0x456E74697479206E616D652063616E6E6F7420626520656D7074790000000000 PUSH1 0x44 DUP3 ADD MSTORE PUSH1 0x64 SWAP1 REVERT JUMPDEST PUSH1 0x40 MLOAD PUSH3 0x461BCD PUSH1 0xE5 SHL DUP2 MSTORE PUSH1 0x20 PUSH1 0x4 DUP3 ADD MSTORE PUSH1 0x1D PUSH1 0x24 DUP3 ADD MSTORE PUSH32 0x456E7469747920616464726573732063616E6E6F74206265207A65726F000000 PUSH1 0x44 DUP3 ADD MSTORE PUSH1 0x64 SWAP1 REVERT JUMPDEST CALLVALUE PUSH2 0x2A2 JUMPI PUSH1 0x60 CALLDATASIZE PUSH1 0x3 NOT ADD SLT PUSH2 0x2A2 JUMPI PUSH1 0x1 PUSH1 0x1 PUSH1 0x40 SHL SUB PUSH1 0x24 CALLDATALOAD DUP2 DUP2 GT PUSH2 0x2A2 JUMPI PUSH2 0x38F2 SWAP1 CALLDATASIZE SWAP1 PUSH1 0x4 ADD PUSH2 0x4579 JUMP JUMPDEST SWAP1 CALLER PUSH1 0x0 MSTORE PUSH1 0x0 PUSH1 0x20 MSTORE PUSH2 0x3910 PUSH1 0xFF PUSH1 0x1 PUSH1 0x40 PUSH1 0x0 KECCAK256 ADD SLOAD AND PUSH2 0x4AE2 JUMP JUMPDEST PUSH1 0x4 CALLDATALOAD PUSH1 0x0 MSTORE PUSH1 0x1 PUSH1 0x20 MSTORE PUSH1 0x1 DUP1 PUSH1 0xA0 SHL SUB SWAP1 CALLER DUP3 PUSH1 0x1 PUSH1 0x40 PUSH1 0x0 KECCAK256 ADD SLOAD AND SUB PUSH2 0x3C46 JUMPI PUSH2 0x3941 PUSH1 0x44 CALLDATALOAD ISZERO ISZERO PUSH2 0x4CF3 JUMP JUMPDEST DUP3 MLOAD ISZERO PUSH2 0x3C01 JUMPI CALLER PUSH1 0x0 MSTORE PUSH1 0x0 PUSH1 0x20 MSTORE PUSH1 0x44 CALLDATALOAD PUSH1 0x3 PUSH1 0x40 PUSH1 0x0 KECCAK256 ADD SLOAD LT PUSH2 0x3BBD JUMPI CALLER PUSH1 0x0 MSTORE PUSH1 0x0 PUSH1 0x20 MSTORE PUSH1 0x3 PUSH1 0x40 PUSH1 0x0 KECCAK256 ADD PUSH2 0x3980 PUSH1 0x44 CALLDATALOAD DUP3 SLOAD PUSH2 0x4BA0 JUMP JUMPDEST SWAP1 SSTORE PUSH2 0x398D PUSH1 0xA SLOAD PUSH2 0x4AD3 JUMP JUMPDEST SWAP1 DUP2 PUSH1 0xA SSTORE PUSH1 0x40 MLOAD SWAP2 PUSH2 0x399F DUP4 PUSH2 0x4505 JUMP JUMPDEST DUP1 DUP4 MSTORE PUSH1 0x20 DUP4 ADD SWAP4 PUSH1 0x4 CALLDATALOAD DUP6 MSTORE PUSH1 0x40 DUP5 ADD SWAP1 CALLER DUP3 MSTORE PUSH1 0x60 DUP6 ADD SWAP3 DUP8 DUP5 MSTORE PUSH1 0x44 CALLDATALOAD PUSH1 0x80 DUP8 ADD MSTORE TIMESTAMP PUSH1 0xA0 DUP8 ADD MSTORE PUSH1 0x0 MSTORE PUSH1 0x2 PUSH1 0x20 MSTORE PUSH1 0x40 PUSH1 0x0 KECCAK256 SWAP6 DUP6 MLOAD DUP8 SSTORE MLOAD PUSH1 0x1 DUP8 ADD SSTORE PUSH1 0x2 DUP7 ADD SWAP2 MLOAD AND PUSH1 0x1 PUSH1 0x1 PUSH1 0x60 SHL SUB PUSH1 0xA0 SHL DUP3 SLOAD AND OR SWAP1 SSTORE MLOAD DUP1 MLOAD SWAP2 DUP3 GT PUSH2 0x932 JUMPI PUSH2 0x3A11 PUSH1 0x3 DUP6 ADD SLOAD PUSH2 0x4675 JUMP JUMPDEST PUSH1 0x1F DUP2 GT PUSH2 0x3B76 JUMPI JUMPDEST POP PUSH1 0x20 SWAP1 PUSH1 0x1F DUP4 GT PUSH1 0x1 EQ PUSH2 0x3B01 JUMPI SWAP2 DUP1 PUSH1 0x5 SWAP5 SWAP3 PUSH1 0xA0 SWAP5 PUSH1 0x0 SWAP3 PUSH2 0x3AF6 JUMPI JUMPDEST POP POP DUP2 PUSH1 0x1 SHL SWAP2 PUSH1 0x0 NOT SWAP1 PUSH1 0x3 SHL SHR NOT AND OR PUSH1 0x3 DUP6 ADD SSTORE JUMPDEST PUSH1 0x80 DUP2 ADD MLOAD PUSH1 0x4 DUP6 ADD SSTORE ADD MLOAD SWAP2 ADD SSTORE PUSH1 0x4 CALLDATALOAD PUSH1 0x0 MSTORE PUSH1 0xB PUSH1 0x20 MSTORE PUSH1 0x40 PUSH1 0x0 KECCAK256 PUSH1 0xA SLOAD SWAP1 DUP1 SLOAD PUSH1 0x1 PUSH1 0x40 SHL DUP2 LT ISZERO PUSH2 0x932 JUMPI PUSH2 0x3A92 SWAP2 PUSH1 0x1 DUP3 ADD DUP2 SSTORE PUSH2 0x4A0A JUMP JUMPDEST DUP2 SWAP3 SWAP2 SLOAD SWAP1 PUSH1 0x3 SHL SWAP2 DUP3 SHL SWAP2 PUSH1 0x0 NOT SWAP1 SHL NOT AND OR SWAP1 SSTORE PUSH1 0xA SLOAD PUSH2 0x3AC0 PUSH1 0x40 MLOAD SWAP3 PUSH1 0x40 DUP5 MSTORE PUSH1 0x40 DUP5 ADD SWAP1 PUSH2 0x43BE JUMP JUMPDEST SWAP1 PUSH1 0x44 CALLDATALOAD PUSH1 0x20 DUP5 ADD MSTORE PUSH32 0x6A6B3E9A68B09E7E4EFA25D186C63204B5CEB3777D516EB58090AFF71935DBC1 CALLER SWAP4 DUP1 PUSH1 0x4 CALLDATALOAD SWAP5 SUB SWAP1 LOG4 STOP JUMPDEST ADD MLOAD SWAP1 POP DUP8 DUP1 PUSH2 0x3A3A JUMP JUMPDEST SWAP1 PUSH1 0x3 DUP6 ADD PUSH1 0x0 MSTORE PUSH1 0x20 PUSH1 0x0 KECCAK256 SWAP2 PUSH1 0x0 JUMPDEST PUSH1 0x1F NOT DUP6 AND DUP2 LT PUSH2 0x3B5E JUMPI POP SWAP3 PUSH1 0x5 SWAP5 SWAP3 PUSH1 0x1 SWAP3 PUSH1 0xA0 SWAP6 DUP4 PUSH1 0x1F NOT DUP2 AND LT PUSH2 0x3B45 JUMPI JUMPDEST POP POP POP DUP2 SHL ADD PUSH1 0x3 DUP6 ADD SSTORE PUSH2 0x3A52 JUMP JUMPDEST ADD MLOAD PUSH1 0x0 NOT PUSH1 0xF8 DUP5 PUSH1 0x3 SHL AND SHR NOT AND SWAP1 SSTORE DUP8 DUP1 DUP1 PUSH2 0x3B35 JUMP JUMPDEST SWAP2 SWAP3 PUSH1 0x20 PUSH1 0x1 DUP2 SWAP3 DUP7 DUP6 ADD MLOAD DUP2 SSTORE ADD SWAP5 ADD SWAP3 ADD PUSH2 0x3B12 JUMP JUMPDEST PUSH1 0x3 DUP6 ADD PUSH1 0x0 MSTORE PUSH1 0x20 PUSH1 0x0 KECCAK256 PUSH1 0x1F DUP5 ADD PUSH1 0x5 SHR DUP2 ADD PUSH1 0x20 DUP6 LT PUSH2 0x3BB6 JUMPI JUMPDEST PUSH1 0x1F DUP4 ADD PUSH1 0x5 SHR DUP3 ADD DUP2 LT PUSH2 0x3BAA JUMPI POP POP PUSH2 0x3A1A JUMP JUMPDEST PUSH1 0x0 DUP2 SSTORE PUSH1 0x1 ADD PUSH2 0x3B94 JUMP JUMPDEST POP DUP1 PUSH2 0x3B94 JUMP JUMPDEST PUSH1 0x64 PUSH1 0x40 MLOAD PUSH3 0x461BCD PUSH1 0xE5 SHL DUP2 MSTORE PUSH1 0x20 PUSH1 0x4 DUP3 ADD MSTORE PUSH1 0x20 PUSH1 0x24 DUP3 ADD MSTORE PUSH32 0x496E73756666696369656E74206E656564546F5370656E642062616C616E6365 PUSH1 0x44 DUP3 ADD MSTORE REVERT JUMPDEST PUSH1 0x40 MLOAD PUSH3 0x461BCD PUSH1 0xE5 SHL DUP2 MSTORE PUSH1 0x20 PUSH1 0x4 DUP3 ADD MSTORE PUSH1 0x1B PUSH1 0x24 DUP3 ADD MSTORE PUSH32 0x4465736372697074696F6E2063616E6E6F7420626520656D7074790000000000 PUSH1 0x44 DUP3 ADD MSTORE PUSH1 0x64 SWAP1 REVERT JUMPDEST PUSH1 0x84 PUSH1 0x40 MLOAD PUSH3 0x461BCD PUSH1 0xE5 SHL DUP2 MSTORE PUSH1 0x20 PUSH1 0x4 DUP3 ADD MSTORE PUSH1 0x40 PUSH1 0x24 DUP3 ADD MSTORE PUSH32 0x4E6F7420617574686F72697A656420746F20616464206D6963726F2D7472616E PUSH1 0x44 DUP3 ADD MSTORE PUSH32 0x73616374696F6E7320746F2074686973207370656E64696E67207265636F7264 PUSH1 0x64 DUP3 ADD MSTORE REVERT JUMPDEST CALLVALUE PUSH2 0x2A2 JUMPI PUSH1 0x20 CALLDATASIZE PUSH1 0x3 NOT ADD SLT PUSH2 0x2A2 JUMPI PUSH1 0x4 CALLDATALOAD PUSH1 0x0 MSTORE PUSH1 0x3 PUSH1 0x20 MSTORE PUSH1 0x80 PUSH1 0x40 PUSH1 0x0 KECCAK256 DUP1 SLOAD SWAP1 PUSH1 0x1 DUP1 PUSH1 0xA0 SHL SUB PUSH1 0x1 DUP3 ADD SLOAD AND SWAP1 PUSH1 0x3 PUSH1 0x2 DUP3 ADD SLOAD SWAP2 ADD SLOAD SWAP2 PUSH1 0x40 MLOAD SWAP4 DUP5 MSTORE PUSH1 0x20 DUP5 ADD MSTORE PUSH1 0x40 DUP4 ADD MSTORE PUSH1 0x60 DUP3 ADD MSTORE RETURN JUMPDEST CALLVALUE PUSH2 0x2A2 JUMPI PUSH1 0x20 CALLDATASIZE PUSH1 0x3 NOT ADD SLT PUSH2 0x2A2 JUMPI PUSH1 0x1 PUSH1 0x1 PUSH1 0xA0 SHL SUB PUSH2 0x3D27 PUSH2 0x449E JUMP JUMPDEST AND DUP1 PUSH1 0x0 MSTORE PUSH1 0x0 PUSH1 0x20 MSTORE PUSH2 0x3D4D PUSH1 0xFF PUSH1 0x1 PUSH1 0x40 PUSH1 0x0 KECCAK256 ADD SLOAD AND DUP1 ISZERO DUP1 PUSH2 0x2386 JUMPI POP PUSH2 0x4CA7 JUMP JUMPDEST PUSH1 0x0 MSTORE PUSH1 0x0 PUSH1 0x20 MSTORE PUSH2 0x3DD0 PUSH1 0x40 PUSH1 0x0 KECCAK256 PUSH1 0x40 MLOAD PUSH2 0x3D69 DUP2 PUSH2 0x44EA JUMP JUMPDEST PUSH2 0x3D72 DUP3 PUSH2 0x46AF JUMP JUMPDEST SWAP2 DUP3 DUP3 MSTORE PUSH1 0xFF PUSH1 0x1 DUP3 ADD SLOAD AND ISZERO ISZERO SWAP2 DUP3 PUSH1 0x20 DUP3 ADD MSTORE PUSH1 0x2 DUP3 ADD SLOAD SWAP1 DUP2 PUSH1 0x40 DUP3 ADD MSTORE PUSH1 0xC0 PUSH1 0x6 PUSH1 0x3 DUP6 ADD SLOAD SWAP5 DUP6 PUSH1 0x60 DUP6 ADD MSTORE PUSH1 0x4 DUP2 ADD SLOAD PUSH1 0x80 DUP6 ADD MSTORE PUSH1 0x5 DUP2 ADD SLOAD PUSH1 0xA0 DUP6 ADD MSTORE ADD SLOAD SWAP2 ADD MSTORE PUSH1 0x40 MLOAD SWAP5 DUP6 SWAP5 PUSH1 0x80 DUP7 MSTORE PUSH1 0x80 DUP7 ADD SWAP1 PUSH2 0x43BE JUMP JUMPDEST SWAP3 PUSH1 0x20 DUP6 ADD MSTORE PUSH1 0x40 DUP5 ADD MSTORE PUSH1 0x60 DUP4 ADD MSTORE SUB SWAP1 RETURN JUMPDEST CALLVALUE PUSH2 0x2A2 JUMPI PUSH1 0x20 CALLDATASIZE PUSH1 0x3 NOT ADD SLT PUSH2 0x2A2 JUMPI PUSH1 0x4 CALLDATALOAD PUSH2 0x3E00 PUSH2 0x4ED3 JUMP JUMPDEST POP DUP1 ISZERO ISZERO DUP1 PUSH2 0x3EC0 JUMPI JUMPDEST ISZERO PUSH2 0x3E89 JUMPI PUSH1 0x0 MSTORE PUSH1 0x3 PUSH1 0x20 MSTORE PUSH1 0x80 PUSH1 0x40 PUSH1 0x0 KECCAK256 PUSH1 0x3 PUSH1 0x40 MLOAD SWAP2 PUSH2 0x3E2D DUP4 PUSH2 0x44B4 JUMP JUMPDEST DUP1 SLOAD DUP4 MSTORE PUSH1 0x1 DUP1 PUSH1 0xA0 SHL SUB PUSH1 0x1 DUP3 ADD SLOAD AND PUSH1 0x20 DUP5 ADD MSTORE PUSH1 0x2 DUP2 ADD SLOAD PUSH1 0x40 DUP5 ADD MSTORE ADD SLOAD PUSH1 0x60 DUP3 ADD MSTORE PUSH2 0x3E87 PUSH1 0x40 MLOAD DUP1 SWAP3 PUSH1 0x60 DUP1 SWAP2 DUP1 MLOAD DUP5 MSTORE PUSH1 0x1 DUP1 PUSH1 0xA0 SHL SUB PUSH1 0x20 DUP3 ADD MLOAD AND PUSH1 0x20 DUP6 ADD MSTORE PUSH1 0x40 DUP2 ADD MLOAD PUSH1 0x40 DUP6 ADD MSTORE ADD MLOAD SWAP2 ADD MSTORE JUMP JUMPDEST RETURN JUMPDEST PUSH1 0x40 MLOAD PUSH3 0x461BCD PUSH1 0xE5 SHL DUP2 MSTORE PUSH1 0x20 PUSH1 0x4 DUP3 ADD MSTORE PUSH1 0xF PUSH1 0x24 DUP3 ADD MSTORE PUSH15 0x125B9D985B1A5908199D5B99081251 PUSH1 0x8A SHL PUSH1 0x44 DUP3 ADD MSTORE PUSH1 0x64 SWAP1 REVERT JUMPDEST POP PUSH1 0x8 SLOAD DUP2 GT ISZERO PUSH2 0x3E0A JUMP JUMPDEST CALLVALUE PUSH2 0x2A2 JUMPI PUSH1 0x20 CALLDATASIZE PUSH1 0x3 NOT ADD SLT PUSH2 0x2A2 JUMPI PUSH1 0x4 CALLDATALOAD PUSH1 0x1 DUP1 PUSH1 0xA0 SHL SUB PUSH2 0x3EF6 DUP2 PUSH1 0x11 SLOAD AND CALLER EQ PUSH2 0x4A22 JUMP JUMPDEST PUSH2 0x3F03 PUSH1 0x7 SLOAD DUP4 LT PUSH2 0x4D3F JUMP JUMPDEST PUSH2 0x3F0C DUP3 PUSH2 0x48AF JUMP JUMPDEST POP PUSH1 0x6 DUP2 ADD PUSH1 0x1 DUP2 SLOAD PUSH1 0xFF DUP2 AND ISZERO DUP1 PUSH2 0x3F85 JUMPI JUMPDEST PUSH2 0x3F29 SWAP1 PUSH2 0x4D80 JUMP JUMPDEST PUSH1 0xFF NOT AND OR SWAP1 SSTORE PUSH1 0x1 PUSH1 0x2 DUP3 ADD SLOAD SWAP2 ADD SWAP1 DUP3 DUP3 SLOAD AND PUSH1 0x0 MSTORE PUSH1 0x0 PUSH1 0x20 MSTORE PUSH2 0x3F59 PUSH1 0x2 PUSH1 0x40 PUSH1 0x0 KECCAK256 ADD SWAP2 DUP3 SLOAD PUSH2 0x4AC6 JUMP JUMPDEST SWAP1 SSTORE SLOAD AND SWAP1 PUSH32 0x2F14CF4EE725545BFE00E4128E96A1C8143718C3738CB5395484377EA6743630 PUSH1 0x0 DUP1 LOG3 STOP JUMPDEST POP PUSH1 0x8 DUP2 SWAP1 SHR PUSH1 0xFF AND ISZERO PUSH2 0x3F20 JUMP JUMPDEST CALLVALUE PUSH2 0x2A2 JUMPI PUSH1 0x0 CALLDATASIZE PUSH1 0x3 NOT ADD SLT PUSH2 0x2A2 JUMPI PUSH1 0x20 PUSH1 0x10 SLOAD PUSH1 0x40 MLOAD SWAP1 DUP2 MSTORE RETURN JUMPDEST CALLVALUE PUSH2 0x2A2 JUMPI PUSH2 0x3FC9 PUSH2 0x3FC3 CALLDATASIZE PUSH2 0x433A JUMP JUMPDEST SWAP1 PUSH2 0x510B JUMP JUMPDEST PUSH1 0x40 MLOAD PUSH1 0x20 SWAP2 DUP3 DUP3 ADD SWAP3 DUP1 DUP4 MSTORE DUP2 MLOAD DUP1 SWAP5 MSTORE PUSH1 0x40 DUP4 ADD SWAP4 DUP2 PUSH1 0x40 DUP3 PUSH1 0x5 SHL DUP7 ADD ADD SWAP4 ADD SWAP2 PUSH1 0x0 SWAP6 JUMPDEST DUP3 DUP8 LT PUSH2 0x3FFE JUMPI DUP6 DUP6 SUB DUP7 RETURN JUMPDEST SWAP1 SWAP2 SWAP3 SWAP4 DUP3 DUP1 PUSH2 0x401A PUSH1 0x1 SWAP4 PUSH1 0x3F NOT DUP11 DUP3 SUB ADD DUP7 MSTORE DUP9 MLOAD PUSH2 0x43FE JUMP JUMPDEST SWAP7 ADD SWAP3 ADD SWAP7 ADD SWAP6 SWAP3 SWAP2 SWAP1 SWAP3 PUSH2 0x3FF1 JUMP JUMPDEST CALLVALUE PUSH2 0x2A2 JUMPI PUSH1 0x20 CALLDATASIZE PUSH1 0x3 NOT ADD SLT PUSH2 0x2A2 JUMPI PUSH1 0x4 CALLDATALOAD PUSH1 0x0 MSTORE PUSH1 0xF PUSH1 0x20 MSTORE PUSH1 0x20 PUSH1 0x40 PUSH1 0x0 KECCAK256 SLOAD PUSH1 0x40 MLOAD SWAP1 DUP2 MSTORE RETURN JUMPDEST CALLVALUE PUSH2 0x2A2 JUMPI PUSH1 0x20 DUP1 PUSH1 0x3 NOT CALLDATASIZE ADD SLT PUSH2 0x2A2 JUMPI PUSH1 0x4 CALLDATALOAD SWAP1 DUP2 PUSH1 0x0 MSTORE PUSH1 0xF DUP2 MSTORE PUSH1 0x40 PUSH1 0x0 KECCAK256 SLOAD PUSH2 0x4083 DUP2 PUSH2 0x4C2C JUMP JUMPDEST SWAP3 PUSH2 0x4091 PUSH1 0x40 MLOAD SWAP5 DUP6 PUSH2 0x4558 JUMP JUMPDEST DUP2 DUP5 MSTORE PUSH1 0x1F NOT PUSH2 0x40A0 DUP4 PUSH2 0x4C2C JUMP JUMPDEST ADD DUP4 PUSH1 0x0 JUMPDEST DUP3 DUP2 LT PUSH2 0x41A4 JUMPI POP POP POP PUSH1 0x0 JUMPDEST DUP3 DUP2 LT PUSH2 0x4129 JUMPI PUSH1 0x40 DUP1 MLOAD DUP6 DUP2 MSTORE DUP7 MLOAD DUP2 DUP8 ADD DUP2 SWAP1 MSTORE DUP8 DUP8 ADD SWAP3 DUP3 ADD SWAP1 DUP8 PUSH1 0x0 JUMPDEST DUP3 DUP2 LT PUSH2 0x40E0 JUMPI DUP5 DUP5 SUB DUP6 RETURN JUMPDEST DUP6 MLOAD DUP1 MLOAD DUP6 MSTORE DUP1 DUP4 ADD MLOAD PUSH1 0x1 PUSH1 0x1 PUSH1 0xA0 SHL SUB AND DUP6 DUP5 ADD MSTORE PUSH1 0x40 DUP1 DUP3 ADD MLOAD SWAP1 DUP7 ADD MSTORE PUSH1 0x60 DUP1 DUP3 ADD MLOAD SWAP1 DUP7 ADD MSTORE PUSH1 0x80 SWAP1 DUP2 ADD MLOAD ISZERO ISZERO SWAP1 DUP6 ADD MSTORE SWAP5 DUP2 ADD SWAP5 PUSH1 0xA0 SWAP1 SWAP4 ADD SWAP3 PUSH1 0x1 ADD PUSH2 0x40D3 JUMP JUMPDEST PUSH2 0x419F SWAP1 DUP3 PUSH1 0x0 MSTORE PUSH1 0xE DUP6 MSTORE PUSH1 0x40 PUSH1 0x0 KECCAK256 DUP2 PUSH1 0x0 MSTORE DUP6 MSTORE PUSH1 0x40 PUSH1 0x0 KECCAK256 PUSH1 0xFF PUSH1 0x4 PUSH1 0x40 MLOAD SWAP3 PUSH2 0x4156 DUP5 PUSH2 0x44CF JUMP JUMPDEST DUP1 SLOAD DUP5 MSTORE PUSH1 0x1 DUP2 ADD SLOAD PUSH1 0x1 PUSH1 0x1 PUSH1 0xA0 SHL SUB AND DUP10 DUP6 ADD MSTORE PUSH1 0x2 DUP2 ADD SLOAD PUSH1 0x40 DUP6 ADD MSTORE PUSH1 0x3 DUP2 ADD SLOAD PUSH1 0x60 DUP6 ADD MSTORE ADD SLOAD AND ISZERO ISZERO PUSH1 0x80 DUP3 ADD MSTORE PUSH2 0x4194 DUP3 DUP9 PUSH2 0x4C93 JUMP JUMPDEST MSTORE PUSH2 0x551 DUP2 DUP8 PUSH2 0x4C93 JUMP JUMPDEST PUSH2 0x40B2 JUMP JUMPDEST PUSH1 0x40 MLOAD PUSH2 0x41B0 DUP2 PUSH2 0x44CF JUMP JUMPDEST PUSH1 0x0 DUP2 MSTORE PUSH1 0x0 DUP4 DUP3 ADD MSTORE PUSH1 0x0 PUSH1 0x40 DUP3 ADD MSTORE PUSH1 0x0 PUSH1 0x60 DUP3 ADD MSTORE PUSH1 0x0 PUSH1 0x80 DUP3 ADD MSTORE DUP3 DUP3 DUP10 ADD ADD MSTORE ADD DUP5 SWAP1 PUSH2 0x40A5 JUMP JUMPDEST CALLVALUE PUSH2 0x2A2 JUMPI PUSH2 0x41EB CALLDATASIZE PUSH2 0x433A JUMP JUMPDEST PUSH1 0x8 SLOAD DUP1 DUP4 LT ISZERO PUSH2 0x42B5 JUMPI DUP3 SWAP1 PUSH2 0x4203 DUP4 ISZERO ISZERO PUSH2 0x4BE0 JUMP JUMPDEST DUP1 PUSH2 0x420E DUP5 DUP5 PUSH2 0x4AC6 JUMP JUMPDEST GT PUSH2 0x42A4 JUMPI JUMPDEST POP POP PUSH2 0x421F DUP2 PUSH2 0x4EF8 JUMP JUMPDEST SWAP2 PUSH1 0x0 JUMPDEST DUP3 DUP2 LT PUSH2 0x4238 JUMPI PUSH1 0x40 MLOAD DUP1 PUSH2 0x519 DUP7 DUP3 PUSH2 0x4350 JUMP JUMPDEST PUSH2 0x4242 DUP2 DUP4 PUSH2 0x4AC6 JUMP JUMPDEST SWAP1 PUSH1 0x1 DUP1 DUP4 ADD DUP1 SWAP4 GT PUSH2 0x1AEF JUMPI PUSH2 0x429F SWAP3 PUSH1 0x0 MSTORE PUSH1 0x3 PUSH1 0x20 DUP2 DUP2 MSTORE PUSH1 0x40 PUSH1 0x0 KECCAK256 SWAP1 PUSH1 0x40 MLOAD SWAP4 PUSH2 0x4270 DUP6 PUSH2 0x44B4 JUMP JUMPDEST DUP3 SLOAD DUP6 MSTORE DUP3 ADD SLOAD PUSH1 0x1 PUSH1 0x1 PUSH1 0xA0 SHL SUB AND SWAP1 DUP5 ADD MSTORE PUSH1 0x2 DUP2 ADD SLOAD PUSH1 0x40 DUP5 ADD MSTORE ADD SLOAD PUSH1 0x60 DUP3 ADD MSTORE PUSH2 0x546 DUP3 DUP8 PUSH2 0x4C93 JUMP JUMPDEST PUSH2 0x4223 JUMP JUMPDEST PUSH2 0x42AE SWAP3 POP PUSH2 0x4BA0 JUMP JUMPDEST DUP2 DUP4 PUSH2 0x4214 JUMP JUMPDEST PUSH1 0x64 PUSH1 0x40 MLOAD PUSH3 0x461BCD PUSH1 0xE5 SHL DUP2 MSTORE PUSH1 0x20 PUSH1 0x4 DUP3 ADD MSTORE PUSH1 0x20 PUSH1 0x24 DUP3 ADD MSTORE PUSH32 0x4F66667365742065786365656473206973737565642066756E6420636F756E74 PUSH1 0x44 DUP3 ADD MSTORE REVERT JUMPDEST CALLVALUE PUSH2 0x2A2 JUMPI PUSH1 0x0 CALLDATASIZE PUSH1 0x3 NOT ADD SLT PUSH2 0x2A2 JUMPI PUSH1 0x20 PUSH1 0x40 MLOAD PUSH3 0x15180 DUP2 MSTORE RETURN JUMPDEST CALLVALUE PUSH2 0x2A2 JUMPI PUSH1 0x0 CALLDATASIZE PUSH1 0x3 NOT ADD SLT PUSH2 0x2A2 JUMPI PUSH1 0x20 PUSH2 0x4332 PUSH2 0x4F7A JUMP JUMPDEST PUSH1 0x40 MLOAD SWAP1 DUP2 MSTORE RETURN JUMPDEST PUSH1 0x40 SWAP1 PUSH1 0x3 NOT ADD SLT PUSH2 0x2A2 JUMPI PUSH1 0x4 CALLDATALOAD SWAP1 PUSH1 0x24 CALLDATALOAD SWAP1 JUMP JUMPDEST PUSH1 0x20 SWAP1 DUP2 PUSH1 0x40 DUP2 DUP4 ADD SWAP3 DUP3 DUP2 MSTORE DUP6 MLOAD DUP1 SWAP5 MSTORE ADD SWAP4 ADD SWAP2 PUSH1 0x0 JUMPDEST DUP3 DUP2 LT PUSH2 0x4377 JUMPI POP POP POP POP SWAP1 JUMP JUMPDEST SWAP1 SWAP2 SWAP3 SWAP4 DUP3 PUSH1 0x80 DUP3 PUSH2 0x43B2 PUSH1 0x1 SWAP5 DUP10 MLOAD PUSH1 0x60 DUP1 SWAP2 DUP1 MLOAD DUP5 MSTORE PUSH1 0x1 DUP1 PUSH1 0xA0 SHL SUB PUSH1 0x20 DUP3 ADD MLOAD AND PUSH1 0x20 DUP6 ADD MSTORE PUSH1 0x40 DUP2 ADD MLOAD PUSH1 0x40 DUP6 ADD MSTORE ADD MLOAD SWAP2 ADD MSTORE JUMP JUMPDEST ADD SWAP6 ADD SWAP4 SWAP3 SWAP2 ADD PUSH2 0x4369 JUMP JUMPDEST SWAP2 SWAP1 DUP3 MLOAD SWAP3 DUP4 DUP3 MSTORE PUSH1 0x0 JUMPDEST DUP5 DUP2 LT PUSH2 0x43EA JUMPI POP POP DUP3 PUSH1 0x0 PUSH1 0x20 DUP1 SWAP5 SWAP6 DUP5 ADD ADD MSTORE PUSH1 0x1F DUP1 NOT SWAP2 ADD AND ADD ADD SWAP1 JUMP JUMPDEST PUSH1 0x20 DUP2 DUP4 ADD DUP2 ADD MLOAD DUP5 DUP4 ADD DUP3 ADD MSTORE ADD PUSH2 0x43C9 JUMP JUMPDEST SWAP1 DUP2 MLOAD DUP2 MSTORE PUSH2 0x4431 PUSH2 0x441F PUSH1 0x20 DUP5 ADD MLOAD PUSH2 0x180 DUP1 PUSH1 0x20 DUP7 ADD MSTORE DUP5 ADD SWAP1 PUSH2 0x43BE JUMP JUMPDEST PUSH1 0x40 DUP5 ADD MLOAD DUP4 DUP3 SUB PUSH1 0x40 DUP6 ADD MSTORE PUSH2 0x43BE JUMP JUMPDEST SWAP2 PUSH1 0x60 DUP2 ADD MLOAD PUSH1 0x60 DUP4 ADD MSTORE PUSH1 0x80 DUP2 ADD MLOAD PUSH1 0x80 DUP4 ADD MSTORE PUSH1 0x1 DUP1 PUSH1 0xA0 SHL SUB DUP1 PUSH1 0xA0 DUP4 ADD MLOAD AND PUSH1 0xA0 DUP5 ADD MSTORE PUSH1 0xC0 DUP3 ADD MLOAD ISZERO ISZERO PUSH1 0xC0 DUP5 ADD MSTORE PUSH1 0xE0 DUP3 ADD MLOAD AND PUSH1 0xE0 DUP4 ADD MSTORE PUSH2 0x100 DUP1 DUP3 ADD MLOAD SWAP1 DUP4 ADD MSTORE PUSH2 0x120 DUP1 DUP3 ADD MLOAD SWAP1 DUP4 ADD MSTORE PUSH2 0x140 DUP1 DUP3 ADD MLOAD SWAP1 DUP4 ADD MSTORE PUSH2 0x160 DUP1 SWAP2 ADD MLOAD SWAP2 ADD MSTORE SWAP1 JUMP JUMPDEST PUSH1 0x4 CALLDATALOAD SWAP1 PUSH1 0x1 PUSH1 0x1 PUSH1 0xA0 SHL SUB DUP3 AND DUP3 SUB PUSH2 0x2A2 JUMPI JUMP JUMPDEST PUSH1 0x80 DUP2 ADD SWAP1 DUP2 LT PUSH1 0x1 PUSH1 0x1 PUSH1 0x40 SHL SUB DUP3 GT OR PUSH2 0x932 JUMPI PUSH1 0x40 MSTORE JUMP JUMPDEST PUSH1 0xA0 DUP2 ADD SWAP1 DUP2 LT PUSH1 0x1 PUSH1 0x1 PUSH1 0x40 SHL SUB DUP3 GT OR PUSH2 0x932 JUMPI PUSH1 0x40 MSTORE JUMP JUMPDEST PUSH1 0xE0 DUP2 ADD SWAP1 DUP2 LT PUSH1 0x1 PUSH1 0x1 PUSH1 0x40 SHL SUB DUP3 GT OR PUSH2 0x932 JUMPI PUSH1 0x40 MSTORE JUMP JUMPDEST PUSH1 0xC0 DUP2 ADD SWAP1 DUP2 LT PUSH1 0x1 PUSH1 0x1 PUSH1 0x40 SHL SUB DUP3 GT OR PUSH2 0x932 JUMPI PUSH1 0x40 MSTORE JUMP JUMPDEST PUSH2 0x180 DUP2 ADD SWAP1 DUP2 LT PUSH1 0x1 PUSH1 0x1 PUSH1 0x40 SHL SUB DUP3 GT OR PUSH2 0x932 JUMPI PUSH1 0x40 MSTORE JUMP JUMPDEST PUSH2 0x100 DUP2 ADD SWAP1 DUP2 LT PUSH1 0x1 PUSH1 0x1 PUSH1 0x40 SHL SUB DUP3 GT OR PUSH2 0x932 JUMPI PUSH1 0x40 MSTORE JUMP JUMPDEST SWAP1 PUSH1 0x1F DUP1 NOT SWAP2 ADD AND DUP2 ADD SWAP1 DUP2 LT PUSH1 0x1 PUSH1 0x1 PUSH1 0x40 SHL SUB DUP3 GT OR PUSH2 0x932 JUMPI PUSH1 0x40 MSTORE JUMP JUMPDEST DUP2 PUSH1 0x1F DUP3 ADD SLT ISZERO PUSH2 0x2A2 JUMPI DUP1 CALLDATALOAD SWAP1 PUSH1 0x1 PUSH1 0x1 PUSH1 0x40 SHL SUB DUP3 GT PUSH2 0x932 JUMPI PUSH1 0x40 MLOAD SWAP3 PUSH2 0x45AD PUSH1 0x1F DUP5 ADD PUSH1 0x1F NOT AND PUSH1 0x20 ADD DUP6 PUSH2 0x4558 JUMP JUMPDEST DUP3 DUP5 MSTORE PUSH1 0x20 DUP4 DUP4 ADD ADD GT PUSH2 0x2A2 JUMPI DUP2 PUSH1 0x0 SWAP3 PUSH1 0x20 DUP1 SWAP4 ADD DUP4 DUP7 ADD CALLDATACOPY DUP4 ADD ADD MSTORE SWAP1 JUMP JUMPDEST PUSH1 0x20 DUP1 DUP3 ADD SWAP1 DUP1 DUP4 MSTORE DUP4 MLOAD DUP1 SWAP3 MSTORE PUSH1 0x40 SWAP3 DUP4 DUP2 ADD DUP3 DUP6 DUP6 PUSH1 0x5 SHL DUP5 ADD ADD SWAP7 ADD SWAP5 PUSH1 0x0 SWAP3 JUMPDEST DUP6 DUP5 LT PUSH2 0x4604 JUMPI POP POP POP POP POP POP POP SWAP1 JUMP JUMPDEST SWAP1 SWAP2 SWAP3 SWAP4 SWAP5 SWAP6 SWAP7 DUP6 DUP1 PUSH1 0x1 SWAP3 PUSH1 0x3F NOT DUP6 DUP3 SUB ADD DUP8 MSTORE DUP11 MLOAD SWAP1 DUP2 MLOAD DUP2 MSTORE DUP3 DUP3 ADD MLOAD DUP4 DUP3 ADD MSTORE DUP5 DUP1 PUSH1 0xA0 SHL SUB DUP8 DUP4 ADD MLOAD AND DUP8 DUP3 ADD MSTORE PUSH2 0x4650 PUSH1 0x60 DUP1 DUP5 ADD MLOAD SWAP1 PUSH1 0xC0 DUP1 SWAP2 DUP6 ADD MSTORE DUP4 ADD SWAP1 PUSH2 0x43BE JUMP JUMPDEST SWAP2 PUSH1 0x80 DUP1 DUP3 ADD MLOAD SWAP1 DUP4 ADD MSTORE PUSH1 0xA0 DUP1 SWAP2 ADD MLOAD SWAP2 ADD MSTORE SWAP10 ADD SWAP5 ADD SWAP5 ADD SWAP3 SWAP6 SWAP5 SWAP4 SWAP2 SWAP1 PUSH2 0x45F3 JUMP JUMPDEST SWAP1 PUSH1 0x1 DUP3 DUP2 SHR SWAP3 AND DUP1 ISZERO PUSH2 0x46A5 JUMPI JUMPDEST PUSH1 0x20 DUP4 LT EQ PUSH2 0x468F JUMPI JUMP JUMPDEST PUSH4 0x4E487B71 PUSH1 0xE0 SHL PUSH1 0x0 MSTORE PUSH1 0x22 PUSH1 0x4 MSTORE PUSH1 0x24 PUSH1 0x0 REVERT JUMPDEST SWAP2 PUSH1 0x7F AND SWAP2 PUSH2 0x4684 JUMP JUMPDEST SWAP1 PUSH1 0x40 MLOAD SWAP2 DUP3 PUSH1 0x0 DUP3 SLOAD SWAP3 PUSH2 0x46C3 DUP5 PUSH2 0x4675 JUMP JUMPDEST SWAP1 DUP2 DUP5 MSTORE PUSH1 0x1 SWAP5 DUP6 DUP2 AND SWAP1 DUP2 PUSH1 0x0 EQ PUSH2 0x4732 JUMPI POP PUSH1 0x1 EQ PUSH2 0x46EF JUMPI JUMPDEST POP POP PUSH2 0x46ED SWAP3 POP SUB DUP4 PUSH2 0x4558 JUMP JUMPDEST JUMP JUMPDEST SWAP1 SWAP4 SWAP2 POP PUSH1 0x0 MSTORE PUSH1 0x20 SWAP1 DUP2 PUSH1 0x0 KECCAK256 SWAP4 PUSH1 0x0 SWAP2 JUMPDEST DUP2 DUP4 LT PUSH2 0x471A JUMPI POP POP PUSH2 0x46ED SWAP4 POP DUP3 ADD ADD CODESIZE DUP1 PUSH2 0x46DF JUMP JUMPDEST DUP6 SLOAD DUP9 DUP5 ADD DUP6 ADD MSTORE SWAP5 DUP6 ADD SWAP5 DUP8 SWAP5 POP SWAP2 DUP4 ADD SWAP2 PUSH2 0x4702 JUMP JUMPDEST SWAP2 POP POP PUSH2 0x46ED SWAP5 POP PUSH1 0x20 SWAP3 POP PUSH1 0xFF NOT AND DUP3 DUP5 ADD MSTORE ISZERO ISZERO PUSH1 0x5 SHL DUP3 ADD ADD CODESIZE DUP1 PUSH2 0x46DF JUMP JUMPDEST SWAP1 DUP2 MLOAD DUP2 MSTORE PUSH1 0x1 DUP1 PUSH1 0xA0 SHL SUB PUSH1 0x20 DUP4 ADD MLOAD AND PUSH1 0x20 DUP3 ADD MSTORE PUSH1 0x40 DUP3 ADD MLOAD PUSH1 0x40 DUP3 ADD MSTORE PUSH1 0xE0 DUP1 PUSH2 0x47A7 PUSH2 0x4795 PUSH1 0x60 DUP7 ADD MLOAD PUSH2 0x100 DUP1 PUSH1 0x60 DUP9 ADD MSTORE DUP7 ADD SWAP1 PUSH2 0x43BE JUMP JUMPDEST PUSH1 0x80 DUP7 ADD MLOAD DUP6 DUP3 SUB PUSH1 0x80 DUP8 ADD MSTORE PUSH2 0x43BE JUMP JUMPDEST SWAP4 PUSH1 0xA0 DUP2 ADD MLOAD PUSH1 0xA0 DUP6 ADD MSTORE PUSH1 0xC0 DUP2 ADD MLOAD ISZERO ISZERO PUSH1 0xC0 DUP6 ADD MSTORE ADD MLOAD ISZERO ISZERO SWAP2 ADD MSTORE SWAP1 JUMP JUMPDEST PUSH1 0x60 SWAP1 PUSH1 0x3 NOT ADD SLT PUSH2 0x2A2 JUMPI PUSH1 0x4 CALLDATALOAD PUSH1 0x1 PUSH1 0x1 PUSH1 0xA0 SHL SUB DUP2 AND DUP2 SUB PUSH2 0x2A2 JUMPI SWAP1 PUSH1 0x24 CALLDATALOAD SWAP1 PUSH1 0x44 CALLDATALOAD SWAP1 JUMP JUMPDEST SWAP1 DUP2 MLOAD DUP2 MSTORE PUSH1 0x1 DUP1 PUSH1 0xA0 SHL SUB PUSH1 0x20 DUP4 ADD MLOAD AND PUSH1 0x20 DUP3 ADD MSTORE PUSH1 0xA0 DUP1 PUSH2 0x4844 PUSH2 0x4828 PUSH1 0x40 DUP7 ADD MLOAD PUSH1 0xC0 PUSH1 0x40 DUP8 ADD MSTORE PUSH1 0xC0 DUP7 ADD SWAP1 PUSH2 0x43BE JUMP JUMPDEST PUSH1 0x60 DUP7 ADD MLOAD PUSH1 0x60 DUP7 ADD MSTORE PUSH1 0x80 DUP7 ADD MLOAD DUP6 DUP3 SUB PUSH1 0x80 DUP8 ADD MSTORE PUSH2 0x43BE JUMP JUMPDEST SWAP4 ADD MLOAD SWAP2 ADD MSTORE SWAP1 JUMP JUMPDEST PUSH1 0x20 DUP1 DUP3 ADD SWAP1 DUP1 DUP4 MSTORE DUP4 MLOAD DUP1 SWAP3 MSTORE PUSH1 0x40 DUP4 ADD SWAP3 DUP2 PUSH1 0x40 DUP5 PUSH1 0x5 SHL DUP4 ADD ADD SWAP6 ADD SWAP4 PUSH1 0x0 SWAP2 JUMPDEST DUP5 DUP4 LT PUSH2 0x4881 JUMPI POP POP POP POP POP POP SWAP1 JUMP JUMPDEST SWAP1 SWAP2 SWAP3 SWAP4 SWAP5 SWAP6 DUP5 DUP1 PUSH2 0x489F PUSH1 0x1 SWAP4 PUSH1 0x3F NOT DUP7 DUP3 SUB ADD DUP8 MSTORE DUP11 MLOAD PUSH2 0x47F2 JUMP JUMPDEST SWAP9 ADD SWAP4 ADD SWAP4 ADD SWAP2 SWAP5 SWAP4 SWAP3 SWAP1 PUSH2 0x4871 JUMP JUMPDEST PUSH1 0xC SLOAD DUP2 LT ISZERO PUSH2 0x48EA JUMPI PUSH1 0x7 SWAP1 PUSH1 0xC PUSH1 0x0 MSTORE MUL PUSH32 0xDF6966C971051C3D54EC59162606531493A51404A002842F56009D7E5CF4A8C7 ADD SWAP1 PUSH1 0x0 SWAP1 JUMP JUMPDEST PUSH4 0x4E487B71 PUSH1 0xE0 SHL PUSH1 0x0 MSTORE PUSH1 0x32 PUSH1 0x4 MSTORE PUSH1 0x24 PUSH1 0x0 REVERT JUMPDEST PUSH1 0x20 DUP1 DUP3 ADD SWAP1 DUP1 DUP4 MSTORE DUP4 MLOAD DUP1 SWAP3 MSTORE PUSH1 0x40 DUP4 ADD SWAP3 DUP2 PUSH1 0x40 DUP5 PUSH1 0x5 SHL DUP4 ADD ADD SWAP6 ADD SWAP4 PUSH1 0x0 SWAP2 JUMPDEST DUP5 DUP4 LT PUSH2 0x4934 JUMPI POP POP POP POP POP POP SWAP1 JUMP JUMPDEST SWAP1 SWAP2 SWAP3 SWAP4 SWAP5 SWAP6 DUP5 DUP1 PUSH2 0x4952 PUSH1 0x1 SWAP4 PUSH1 0x3F NOT DUP7 DUP3 SUB ADD DUP8 MSTORE DUP11 MLOAD PUSH2 0x4755 JUMP JUMPDEST SWAP9 ADD SWAP4 ADD SWAP4 ADD SWAP2 SWAP5 SWAP4 SWAP3 SWAP1 PUSH2 0x4924 JUMP JUMPDEST SWAP1 DUP2 MLOAD DUP1 DUP3 MSTORE PUSH1 0x20 DUP1 DUP1 SWAP4 ADD SWAP4 ADD SWAP2 PUSH1 0x0 JUMPDEST DUP3 DUP2 LT PUSH2 0x4982 JUMPI POP POP POP POP SWAP1 JUMP JUMPDEST DUP4 MLOAD PUSH1 0x1 PUSH1 0x1 PUSH1 0xA0 SHL SUB AND DUP6 MSTORE SWAP4 DUP2 ADD SWAP4 SWAP3 DUP2 ADD SWAP3 PUSH1 0x1 ADD PUSH2 0x4974 JUMP JUMPDEST SWAP1 DUP2 MLOAD DUP1 DUP3 MSTORE PUSH1 0x20 DUP1 DUP1 SWAP4 ADD SWAP4 ADD SWAP2 PUSH1 0x0 JUMPDEST DUP3 DUP2 LT PUSH2 0x49BF JUMPI POP POP POP POP SWAP1 JUMP JUMPDEST DUP4 MLOAD DUP6 MSTORE SWAP4 DUP2 ADD SWAP4 SWAP3 DUP2 ADD SWAP3 PUSH1 0x1 ADD PUSH2 0x49B1 JUMP JUMPDEST PUSH1 0x5 SLOAD DUP2 LT ISZERO PUSH2 0x48EA JUMPI PUSH1 0x5 PUSH1 0x0 MSTORE PUSH32 0x36B6384B5ECA791C62761152D0C79BB0604C104A5FB6F4EB0703F3154BB3DB0 ADD SWAP1 PUSH1 0x0 SWAP1 JUMP JUMPDEST DUP1 SLOAD DUP3 LT ISZERO PUSH2 0x48EA JUMPI PUSH1 0x0 MSTORE PUSH1 0x20 PUSH1 0x0 KECCAK256 ADD SWAP1 PUSH1 0x0 SWAP1 JUMP JUMPDEST ISZERO PUSH2 0x4A29 JUMPI JUMP JUMPDEST PUSH1 0x40 MLOAD PUSH3 0x461BCD PUSH1 0xE5 SHL DUP2 MSTORE PUSH1 0x20 PUSH1 0x4 DUP3 ADD MSTORE PUSH1 0x2F PUSH1 0x24 DUP3 ADD MSTORE PUSH32 0x4F6E6C792063656E7472616C20676F7665726E6D656E742063616E2070657266 PUSH1 0x44 DUP3 ADD MSTORE PUSH15 0x37B936903A3434B99030B1BA34B7B7 PUSH1 0x89 SHL PUSH1 0x64 DUP3 ADD MSTORE PUSH1 0x84 SWAP1 REVERT JUMPDEST ISZERO PUSH2 0x4A8D JUMPI JUMP JUMPDEST PUSH1 0x40 MLOAD PUSH3 0x461BCD PUSH1 0xE5 SHL DUP2 MSTORE PUSH1 0x20 PUSH1 0x4 DUP3 ADD MSTORE PUSH1 0x11 PUSH1 0x24 DUP3 ADD MSTORE PUSH17 0x456E74697479206E6F7420616374697665 PUSH1 0x78 SHL PUSH1 0x44 DUP3 ADD MSTORE PUSH1 0x64 SWAP1 REVERT JUMPDEST SWAP2 SWAP1 DUP3 ADD DUP1 SWAP3 GT PUSH2 0x1AEF JUMPI JUMP JUMPDEST PUSH1 0x0 NOT DUP2 EQ PUSH2 0x1AEF JUMPI PUSH1 0x1 ADD SWAP1 JUMP JUMPDEST ISZERO PUSH2 0x4AE9 JUMPI JUMP JUMPDEST PUSH1 0x40 MLOAD PUSH3 0x461BCD PUSH1 0xE5 SHL DUP2 MSTORE PUSH1 0x20 PUSH1 0x4 DUP3 ADD MSTORE PUSH1 0x37 PUSH1 0x24 DUP3 ADD MSTORE PUSH32 0x4F6E6C7920616374697665207265676973746572656420656E74697469657320 PUSH1 0x44 DUP3 ADD MSTORE PUSH32 0x63616E20706572666F726D207468697320616374696F6E000000000000000000 PUSH1 0x64 DUP3 ADD MSTORE PUSH1 0x84 SWAP1 REVERT JUMPDEST ISZERO PUSH2 0x4B5B JUMPI JUMP JUMPDEST PUSH1 0x40 MLOAD PUSH3 0x461BCD PUSH1 0xE5 SHL DUP2 MSTORE PUSH1 0x20 PUSH1 0x4 DUP3 ADD MSTORE PUSH1 0x1D PUSH1 0x24 DUP3 ADD MSTORE PUSH32 0x446F63756D656E7420686173682063616E6E6F7420626520656D707479000000 PUSH1 0x44 DUP3 ADD MSTORE PUSH1 0x64 SWAP1 REVERT JUMPDEST SWAP2 SWAP1 DUP3 SUB SWAP2 DUP3 GT PUSH2 0x1AEF JUMPI JUMP JUMPDEST PUSH1 0x40 MLOAD SWAP1 PUSH2 0x4BBA DUP3 PUSH2 0x4505 JUMP JUMPDEST PUSH1 0x0 PUSH1 0xA0 DUP4 DUP3 DUP2 MSTORE DUP3 PUSH1 0x20 DUP3 ADD MSTORE PUSH1 0x60 PUSH1 0x40 DUP3 ADD MSTORE DUP3 PUSH1 0x60 DUP3 ADD MSTORE PUSH1 0x60 PUSH1 0x80 DUP3 ADD MSTORE ADD MSTORE JUMP JUMPDEST ISZERO PUSH2 0x4BE7 JUMPI JUMP JUMPDEST PUSH1 0x40 MLOAD PUSH3 0x461BCD PUSH1 0xE5 SHL DUP2 MSTORE PUSH1 0x20 PUSH1 0x4 DUP3 ADD MSTORE PUSH1 0x1F PUSH1 0x24 DUP3 ADD MSTORE PUSH32 0x4C696D6974206D7573742062652067726561746572207468616E207A65726F00 PUSH1 0x44 DUP3 ADD MSTORE PUSH1 0x64 SWAP1 REVERT JUMPDEST PUSH1 0x1 PUSH1 0x1 PUSH1 0x40 SHL SUB DUP2 GT PUSH2 0x932 JUMPI PUSH1 0x5 SHL PUSH1 0x20 ADD SWAP1 JUMP JUMPDEST SWAP1 PUSH2 0x4C4D DUP3 PUSH2 0x4C2C JUMP JUMPDEST PUSH2 0x4C5A PUSH1 0x40 MLOAD SWAP2 DUP3 PUSH2 0x4558 JUMP JUMPDEST DUP3 DUP2 MSTORE DUP1 SWAP3 PUSH2 0x4C6B PUSH1 0x1F NOT SWAP2 PUSH2 0x4C2C JUMP JUMPDEST ADD SWAP1 PUSH1 0x0 JUMPDEST DUP3 DUP2 LT PUSH2 0x4C7C JUMPI POP POP POP JUMP JUMPDEST PUSH1 0x20 SWAP1 PUSH2 0x4C87 PUSH2 0x4BAD JUMP JUMPDEST DUP3 DUP3 DUP6 ADD ADD MSTORE ADD PUSH2 0x4C70 JUMP JUMPDEST DUP1 MLOAD DUP3 LT ISZERO PUSH2 0x48EA JUMPI PUSH1 0x20 SWAP2 PUSH1 0x5 SHL ADD ADD SWAP1 JUMP JUMPDEST ISZERO PUSH2 0x4CAE JUMPI JUMP JUMPDEST PUSH1 0x40 MLOAD PUSH3 0x461BCD PUSH1 0xE5 SHL DUP2 MSTORE PUSH1 0x20 PUSH1 0x4 DUP3 ADD MSTORE PUSH1 0x17 PUSH1 0x24 DUP3 ADD MSTORE PUSH32 0x4E6F742061207265676973746572656420656E74697479000000000000000000 PUSH1 0x44 DUP3 ADD MSTORE PUSH1 0x64 SWAP1 REVERT JUMPDEST ISZERO PUSH2 0x4CFA JUMPI JUMP JUMPDEST PUSH1 0x40 MLOAD PUSH3 0x461BCD PUSH1 0xE5 SHL DUP2 MSTORE PUSH1 0x20 PUSH1 0x4 DUP3 ADD MSTORE PUSH1 0x1D PUSH1 0x24 DUP3 ADD MSTORE PUSH32 0x416D6F756E74206D7573742062652067726561746572207468616E2030000000 PUSH1 0x44 DUP3 ADD MSTORE PUSH1 0x64 SWAP1 REVERT JUMPDEST ISZERO PUSH2 0x4D46 JUMPI JUMP JUMPDEST PUSH1 0x40 MLOAD PUSH3 0x461BCD PUSH1 0xE5 SHL DUP2 MSTORE PUSH1 0x20 PUSH1 0x4 DUP3 ADD MSTORE PUSH1 0x12 PUSH1 0x24 DUP3 ADD MSTORE PUSH18 0x125B9D985B1A59081C995C5D595CDD081251 PUSH1 0x72 SHL PUSH1 0x44 DUP3 ADD MSTORE PUSH1 0x64 SWAP1 REVERT JUMPDEST ISZERO PUSH2 0x4D87 JUMPI JUMP JUMPDEST PUSH1 0x40 MLOAD PUSH3 0x461BCD PUSH1 0xE5 SHL DUP2 MSTORE PUSH1 0x20 PUSH1 0x4 DUP3 ADD MSTORE PUSH1 0x19 PUSH1 0x24 DUP3 ADD MSTORE PUSH32 0x5265717565737420616C72656164792070726F63657373656400000000000000 PUSH1 0x44 DUP3 ADD MSTORE PUSH1 0x64 SWAP1 REVERT JUMPDEST PUSH1 0x40 MLOAD SWAP1 PUSH2 0x4DD9 DUP3 PUSH2 0x453C JUMP JUMPDEST DUP2 PUSH1 0xE0 PUSH1 0x0 SWAP2 DUP3 DUP2 MSTORE DUP3 PUSH1 0x20 DUP3 ADD MSTORE DUP3 PUSH1 0x40 DUP3 ADD MSTORE PUSH1 0x60 DUP1 DUP3 ADD MSTORE PUSH1 0x60 PUSH1 0x80 DUP3 ADD MSTORE DUP3 PUSH1 0xA0 DUP3 ADD MSTORE DUP3 PUSH1 0xC0 DUP3 ADD MSTORE ADD MSTORE JUMP JUMPDEST SWAP1 PUSH1 0x40 MLOAD PUSH2 0x4E18 DUP2 PUSH2 0x453C JUMP JUMPDEST PUSH1 0xE0 PUSH1 0xFF PUSH1 0x6 DUP4 SWAP6 DUP1 SLOAD DUP6 MSTORE PUSH1 0x1 DUP1 PUSH1 0xA0 SHL SUB PUSH1 0x1 DUP3 ADD SLOAD AND PUSH1 0x20 DUP7 ADD MSTORE PUSH1 0x2 DUP2 ADD SLOAD PUSH1 0x40 DUP7 ADD MSTORE PUSH2 0x4E4C PUSH1 0x3 DUP3 ADD PUSH2 0x46AF JUMP JUMPDEST PUSH1 0x60 DUP7 ADD MSTORE PUSH2 0x4E5D PUSH1 0x4 DUP3 ADD PUSH2 0x46AF JUMP JUMPDEST PUSH1 0x80 DUP7 ADD MSTORE PUSH1 0x5 DUP2 ADD SLOAD PUSH1 0xA0 DUP7 ADD MSTORE ADD SLOAD DUP2 DUP2 AND ISZERO ISZERO PUSH1 0xC0 DUP6 ADD MSTORE PUSH1 0x8 SHR AND ISZERO ISZERO SWAP2 ADD MSTORE JUMP JUMPDEST SWAP1 PUSH2 0x4E8D DUP3 PUSH2 0x4C2C JUMP JUMPDEST PUSH2 0x4E9A PUSH1 0x40 MLOAD SWAP2 DUP3 PUSH2 0x4558 JUMP JUMPDEST DUP3 DUP2 MSTORE DUP1 SWAP3 PUSH2 0x4EAB PUSH1 0x1F NOT SWAP2 PUSH2 0x4C2C JUMP JUMPDEST ADD SWAP1 PUSH1 0x0 JUMPDEST DUP3 DUP2 LT PUSH2 0x4EBC JUMPI POP POP POP JUMP JUMPDEST PUSH1 0x20 SWAP1 PUSH2 0x4EC7 PUSH2 0x4DCC JUMP JUMPDEST DUP3 DUP3 DUP6 ADD ADD MSTORE ADD PUSH2 0x4EB0 JUMP JUMPDEST PUSH1 0x40 MLOAD SWAP1 PUSH2 0x4EE0 DUP3 PUSH2 0x44B4 JUMP JUMPDEST PUSH1 0x0 PUSH1 0x60 DUP4 DUP3 DUP2 MSTORE DUP3 PUSH1 0x20 DUP3 ADD MSTORE DUP3 PUSH1 0x40 DUP3 ADD MSTORE ADD MSTORE JUMP JUMPDEST SWAP1 PUSH2 0x4F02 DUP3 PUSH2 0x4C2C JUMP JUMPDEST PUSH2 0x4F0F PUSH1 0x40 MLOAD SWAP2 DUP3 PUSH2 0x4558 JUMP JUMPDEST DUP3 DUP2 MSTORE DUP1 SWAP3 PUSH2 0x4F20 PUSH1 0x1F NOT SWAP2 PUSH2 0x4C2C JUMP JUMPDEST ADD SWAP1 PUSH1 0x0 JUMPDEST DUP3 DUP2 LT PUSH2 0x4F31 JUMPI POP POP POP JUMP JUMPDEST PUSH1 0x20 SWAP1 PUSH2 0x4F3C PUSH2 0x4ED3 JUMP JUMPDEST DUP3 DUP3 DUP6 ADD ADD MSTORE ADD PUSH2 0x4F25 JUMP JUMPDEST SWAP1 PUSH2 0x4F52 DUP3 PUSH2 0x4C2C JUMP JUMPDEST PUSH2 0x4F5F PUSH1 0x40 MLOAD SWAP2 DUP3 PUSH2 0x4558 JUMP JUMPDEST DUP3 DUP2 MSTORE DUP1 SWAP3 PUSH2 0x4F70 PUSH1 0x1F NOT SWAP2 PUSH2 0x4C2C JUMP JUMPDEST ADD SWAP1 PUSH1 0x20 CALLDATASIZE SWAP2 ADD CALLDATACOPY JUMP JUMPDEST PUSH1 0x12 SLOAD PUSH3 0x15180 DUP2 ADD DUP1 SWAP2 GT PUSH2 0x1AEF JUMPI DUP1 TIMESTAMP LT ISZERO PUSH2 0x4FA0 JUMPI PUSH2 0x4F9D SWAP1 TIMESTAMP SWAP1 PUSH2 0x4BA0 JUMP JUMPDEST SWAP1 JUMP JUMPDEST POP PUSH1 0x0 SWAP1 JUMP JUMPDEST SWAP1 PUSH2 0x4FB0 DUP3 PUSH2 0x4C2C JUMP JUMPDEST PUSH1 0x40 SWAP1 PUSH2 0x4FBF DUP3 MLOAD SWAP2 DUP3 PUSH2 0x4558 JUMP JUMPDEST DUP4 DUP2 MSTORE DUP1 SWAP4 PUSH2 0x4FD0 PUSH1 0x1F NOT SWAP2 PUSH2 0x4C2C JUMP JUMPDEST ADD SWAP2 PUSH1 0x0 JUMPDEST DUP4 DUP2 LT PUSH2 0x4FE2 JUMPI POP POP POP POP JUMP JUMPDEST PUSH1 0x20 SWAP1 DUP3 MLOAD PUSH2 0x4FF0 DUP2 PUSH2 0x4505 JUMP JUMPDEST PUSH1 0x0 DUP2 MSTORE DUP3 PUSH1 0x0 DUP2 DUP4 ADD MSTORE PUSH1 0x0 DUP6 DUP4 ADD MSTORE PUSH1 0x60 DUP1 DUP4 ADD MSTORE PUSH1 0x0 PUSH1 0x80 DUP4 ADD MSTORE PUSH1 0x0 PUSH1 0xA0 DUP4 ADD MSTORE DUP3 DUP7 ADD ADD MSTORE ADD PUSH2 0x4FD5 JUMP JUMPDEST ISZERO PUSH2 0x5027 JUMPI JUMP JUMPDEST PUSH1 0x40 MLOAD PUSH3 0x461BCD PUSH1 0xE5 SHL DUP2 MSTORE PUSH1 0x20 PUSH1 0x4 DUP3 ADD MSTORE PUSH1 0x14 PUSH1 0x24 DUP3 ADD MSTORE PUSH20 0x54656E646572206973206E6F7420616374697665 PUSH1 0x60 SHL PUSH1 0x44 DUP3 ADD MSTORE PUSH1 0x64 SWAP1 REVERT JUMPDEST ISZERO PUSH2 0x506A JUMPI JUMP JUMPDEST PUSH1 0x40 MLOAD PUSH3 0x461BCD PUSH1 0xE5 SHL DUP2 MSTORE PUSH1 0x20 PUSH1 0x4 DUP3 ADD MSTORE PUSH1 0x1A PUSH1 0x24 DUP3 ADD MSTORE PUSH32 0x54656E64657220646561646C696E652068617320706173736564000000000000 PUSH1 0x44 DUP3 ADD MSTORE PUSH1 0x64 SWAP1 REVERT JUMPDEST PUSH1 0x40 MLOAD SWAP1 PUSH2 0x50BC DUP3 PUSH2 0x4520 JUMP JUMPDEST DUP2 PUSH2 0x160 PUSH1 0x0 SWAP2 DUP3 DUP2 MSTORE PUSH1 0x60 PUSH1 0x20 DUP3 ADD MSTORE PUSH1 0x60 PUSH1 0x40 DUP3 ADD MSTORE DUP3 PUSH1 0x60 DUP3 ADD MSTORE DUP3 PUSH1 0x80 DUP3 ADD MSTORE DUP3 PUSH1 0xA0 DUP3 ADD MSTORE DUP3 PUSH1 0xC0 DUP3 ADD MSTORE DUP3 PUSH1 0xE0 DUP3 ADD MSTORE DUP3 PUSH2 0x100 DUP3 ADD MSTORE DUP3 PUSH2 0x120 DUP3 ADD MSTORE DUP3 PUSH2 0x140 DUP3 ADD MSTORE ADD MSTORE JUMP JUMPDEST SWAP1 PUSH1 0x10 SLOAD DUP1 DUP4 LT ISZERO PUSH2 0x5276 JUMPI DUP3 SWAP1 PUSH2 0x5124 DUP4 ISZERO ISZERO PUSH2 0x4BE0 JUMP JUMPDEST DUP1 PUSH2 0x512F DUP5 DUP5 PUSH2 0x4AC6 JUMP JUMPDEST GT PUSH2 0x5265 JUMPI JUMPDEST POP POP PUSH2 0x5140 DUP2 PUSH2 0x4C2C JUMP JUMPDEST SWAP2 PUSH1 0x40 SWAP1 PUSH2 0x5150 DUP3 MLOAD SWAP5 DUP6 PUSH2 0x4558 JUMP JUMPDEST DUP3 DUP5 MSTORE PUSH1 0x1F NOT PUSH2 0x515F DUP5 PUSH2 0x4C2C JUMP JUMPDEST ADD PUSH1 0x0 JUMPDEST DUP2 DUP2 LT PUSH2 0x524E JUMPI POP POP PUSH1 0x0 JUMPDEST DUP4 DUP2 LT PUSH2 0x517D JUMPI POP POP POP POP SWAP1 JUMP JUMPDEST PUSH2 0x5187 DUP2 DUP4 PUSH2 0x4AC6 JUMP JUMPDEST SWAP1 PUSH1 0x1 DUP1 DUP4 ADD DUP1 SWAP4 GT PUSH2 0x1AEF JUMPI PUSH2 0x5249 SWAP3 PUSH1 0x0 MSTORE PUSH1 0xA PUSH1 0x20 PUSH1 0xD DUP2 MSTORE DUP7 PUSH1 0x0 KECCAK256 SWAP1 PUSH2 0x51C2 DUP9 MLOAD SWAP5 PUSH2 0x51B7 DUP7 PUSH2 0x4520 JUMP JUMPDEST DUP4 SLOAD DUP7 MSTORE DUP4 ADD PUSH2 0x46AF JUMP JUMPDEST SWAP1 DUP5 ADD MSTORE PUSH2 0x51D2 PUSH1 0x2 DUP3 ADD PUSH2 0x46AF JUMP JUMPDEST DUP8 DUP5 ADD MSTORE PUSH1 0x3 DUP2 ADD SLOAD PUSH1 0x60 DUP5 ADD MSTORE PUSH1 0x4 DUP2 ADD SLOAD PUSH1 0x80 DUP5 ADD MSTORE PUSH1 0x5 DUP2 ADD SLOAD PUSH1 0xFF PUSH1 0x1 DUP1 PUSH1 0xA0 SHL SUB SWAP2 PUSH1 0xA0 DUP4 DUP3 AND DUP2 DUP9 ADD MSTORE SHR AND ISZERO ISZERO PUSH1 0xC0 DUP6 ADD MSTORE PUSH1 0x6 DUP3 ADD SLOAD AND PUSH1 0xE0 DUP5 ADD MSTORE PUSH1 0x7 DUP2 ADD SLOAD PUSH2 0x100 DUP5 ADD MSTORE PUSH1 0x8 DUP2 ADD SLOAD PUSH2 0x120 DUP5 ADD MSTORE PUSH1 0x9 DUP2 ADD SLOAD PUSH2 0x140 DUP5 ADD MSTORE ADD SLOAD PUSH2 0x160 DUP3 ADD MSTORE PUSH2 0x4194 DUP3 DUP9 PUSH2 0x4C93 JUMP JUMPDEST PUSH2 0x516F JUMP JUMPDEST PUSH1 0x20 SWAP1 PUSH2 0x5259 PUSH2 0x50AF JUMP JUMPDEST DUP3 DUP3 DUP10 ADD ADD MSTORE ADD PUSH2 0x5163 JUMP JUMPDEST PUSH2 0x526F SWAP3 POP PUSH2 0x4BA0 JUMP JUMPDEST DUP2 CODESIZE PUSH2 0x5135 JUMP JUMPDEST POP POP POP PUSH1 0x40 MLOAD PUSH1 0x20 DUP2 ADD DUP2 DUP2 LT PUSH1 0x1 PUSH1 0x1 PUSH1 0x40 SHL SUB DUP3 GT OR PUSH2 0x932 JUMPI PUSH1 0x40 MSTORE PUSH1 0x0 DUP2 MSTORE SWAP1 JUMP INVALID LOG2 PUSH5 0x6970667358 0x22 SLT KECCAK256 PUSH5 0x80B7B3DFC5 SWAP11 DIV PUSH10 0xDC7F0EB2044579CD8D6C MLOAD 0x4F SAR 0x4F 0xC4 0xB3 EXTCODESIZE GASLIMIT MSTORE SDIV LOG0 SGT 0xE7 PUSH5 0x736F6C6343 STOP ADDMOD SGT STOP CALLER "},"methodIdentifiers":{"BONUS_AMOUNT()":"74863d90","VOTING_COOLDOWN()":"0f780b56","approveFundRequest(uint256)":"21464bfe","awardTender(uint256)":"8fdee0c5","bids(uint256,uint256)":"7b3c4baa","cancelTender(uint256)":"3a74e070","centralGovernment()":"5dbe526f","checkVotingStatus(address)":"709eddb0","deactivateEntity(address)":"f24f8241","distributeBonus()":"9a35646f","entityAddresses(uint256)":"ec10be39","fundRequests(uint256)":"80ee37fa","getAllEntityAddresses()":"b17972f9","getAllEntityRatings()":"ba51f822","getBids(uint256)":"131d9a27","getContractBalance()":"6f9fb98a","getEntityCount()":"5d1b45b5","getEntityDetails(address)":"2be837ec","getEntityFundRequests(address,uint256,uint256)":"a30c3519","getEntityHappinessRating(address)":"8876ac41","getEntityIssuedFunds(address,uint256,uint256)":"73901f9f","getEntitySpendingRecords(address,uint256,uint256)":"4fb1c4be","getFundRequest(uint256)":"4dfa8434","getFundRequests(uint256,uint256)":"e620f3a0","getIssuedFund(uint256)":"2a9544d7","getIssuedFunds(uint256,uint256)":"12216c07","getMicroTransactions(uint256,uint256)":"9a0fc036","getSpendingRecord(uint256)":"a88c113a","getSpendingRecordMicroTransactions(uint256)":"44c6bc77","getSpendingRecords(uint256,uint256)":"a089126d","getTenderDetails(uint256)":"53ee895d","getTenders(uint256,uint256)":"1dfd9542","getTimeUntilNextBonus()":"0241a443","governmentEntities(address)":"df619ad7","hasVoted(address,address)":"4d4d2b1c","issueFunds(address,uint256)":"ea949519","issueTender(string,string,uint256,uint256,uint256,uint256)":"c4bce418","issuedFundCount()":"4a572ae3","issuedFunds(uint256)":"2c71474d","lastBonusDistribution()":"f349c1e5","microTransactions(uint256)":"818f994d","placeBid(uint256,uint256)":"57c90de5","recordCount()":"900407bc","recordMicroTransaction(uint256,string,uint256)":"2f0b6f72","recordSpending(string,uint256,string)":"dea1f581","registerEntity(address,string)":"32b3f568","rejectFundRequest(uint256)":"58e9f12e","requestCount()":"5badbe4c","requestFunds(uint256,string,string)":"b041f480","spendingRecordMicroTransactions(uint256,uint256)":"c7c258f2","spendingRecords(uint256)":"bac5d8f9","tenderBidCount(uint256)":"15cf4b6e","tenderCount()":"1f058776","tenders(uint256)":"465e1def","voteForEntity(address,uint256)":"73236a5b","withdrawBid(uint256,uint256)":"a5735662"}}}}}