{"contracts/GovernmentFunds.sol":{"GovernmentFunds":{"abi":[{"anonymous":false,"inputs":[{"indexed":true,"internalType":"uint256","name":"id","type":"uint256"},{"indexed":true,"internalType":"uint256","name":"spendingId","type":"uint256"},{"indexed":true,"internalType":"address","name":"entity","type":"address"},{"indexed":false,"internalType":"uint256","name":"amount","type":"uint256"}],"name":"MicroTransactionRecorded","type":"event"},{"anonymous":false,"inputs":[{"indexed":true,"internalType":"uint256","name":"id","type":"uint256"},{"indexed":true,"internalType":"address","name":"entity","type":"address"},{"indexed":false,"internalType":"uint256","name":"amount","type":"uint256"}],"name":"SpendingRecorded","type":"event"},{"anonymous":false,"inputs":[{"indexed":true,"internalType":"address","name":"voter","type":"address"},{"indexed":true,"internalType":"address","name":"entity","type":"address"}],"name":"Voted","type":"event"},{"inputs":[{"internalType":"address","name":"","type":"address"}],"name":"entities","outputs":[{"internalType":"bool","name":"isActive","type":"bool"},{"internalType":"uint256","name":"totalVotes","type":"uint256"},{"internalType":"uint256","name":"toBeSpent","type":"uint256"}],"stateMutability":"view","type":"function"},{"inputs":[{"internalType":"uint256","name":"spendingId","type":"uint256"}],"name":"getMicroTransactions","outputs":[{"components":[{"internalType":"uint256","name":"id","type":"uint256"},{"internalType":"uint256","name":"spendingId","type":"uint256"},{"internalType":"address","name":"entity","type":"address"},{"internalType":"uint256","name":"amount","type":"uint256"},{"internalType":"string","name":"description","type":"string"},{"internalType":"uint256","name":"timestamp","type":"uint256"}],"internalType":"struct GovernmentFunds.MicroTransaction[]","name":"","type":"tuple[]"}],"stateMutability":"view","type":"function"},{"inputs":[{"internalType":"address","name":"entityAddress","type":"address"}],"name":"getSpendingRecords","outputs":[{"components":[{"internalType":"uint256","name":"id","type":"uint256"},{"internalType":"address","name":"entity","type":"address"},{"internalType":"uint256","name":"amount","type":"uint256"},{"internalType":"uint256","name":"timestamp","type":"uint256"}],"internalType":"struct GovernmentFunds.SpendingRecord[]","name":"","type":"tuple[]"}],"stateMutability":"view","type":"function"},{"inputs":[{"internalType":"address","name":"","type":"address"},{"internalType":"address","name":"","type":"address"}],"name":"hasVoted","outputs":[{"internalType":"bool","name":"","type":"bool"}],"stateMutability":"view","type":"function"},{"inputs":[],"name":"microTransactionCount","outputs":[{"internalType":"uint256","name":"","type":"uint256"}],"stateMutability":"view","type":"function"},{"inputs":[{"internalType":"uint256","name":"","type":"uint256"}],"name":"microTransactions","outputs":[{"internalType":"uint256","name":"id","type":"uint256"},{"internalType":"uint256","name":"spendingId","type":"uint256"},{"internalType":"address","name":"entity","type":"address"},{"internalType":"uint256","name":"amount","type":"uint256"},{"internalType":"string","name":"description","type":"string"},{"internalType":"uint256","name":"timestamp","type":"uint256"}],"stateMutability":"view","type":"function"},{"inputs":[{"internalType":"uint256","name":"spendingId","type":"uint256"},{"internalType":"uint256","name":"amount","type":"uint256"},{"internalType":"string","name":"description","type":"string"}],"name":"recordMicroTransaction","outputs":[],"stateMutability":"nonpayable","type":"function"},{"inputs":[{"internalType":"uint256","name":"amount","type":"uint256"}],"name":"recordSpending","outputs":[],"stateMutability":"nonpayable","type":"function"},{"inputs":[],"name":"spendingCount","outputs":[{"internalType":"uint256","name":"","type":"uint256"}],"stateMutability":"view","type":"function"},{"inputs":[{"internalType":"uint256","name":"","type":"uint256"}],"name":"spendingRecords","outputs":[{"internalType":"uint256","name":"id","type":"uint256"},{"internalType":"address","name":"entity","type":"address"},{"internalType":"uint256","name":"amount","type":"uint256"},{"internalType":"uint256","name":"timestamp","type":"uint256"}],"stateMutability":"view","type":"function"},{"inputs":[{"internalType":"address","name":"entityAddress","type":"address"}],"name":"vote","outputs":[],"stateMutability":"nonpayable","type":"function"}],"evm":{"bytecode":{"linkReferences":{},"object":"6080806040523461001657610f61908161001c8239f35b600080fdfe608080604052600436101561001357600080fd5b60003560e01c9081631d8ee48a14610c68575080633657a7db14610c4a5780634d4d2b1c14610bf05780634f7311ad14610bd2578063502ae238146109b25780636dd7d8ea1461081b578063818f994d14610798578063a9bba44314610684578063bac5d8f91461062e578063f1b2b18b1461026c5763fb116b581461009857600080fd5b3461026757602080600319360112610267576100b2610cbb565b6004546001600160a01b03929160009190841660015b8281111561022a57506100da83610ee9565b926100e86040519485610d83565b8084526100f7601f1991610ee9565b018460005b8281106101f857505050600060015b838111156101745750505050604051918083018184528251809152816040850193019160005b82811061013e5785850386f35b83518051865280830151881686840152604080820151908701526060908101519086015260809094019392810192600101610131565b806000526002808752604060002088600182015416918583146101a3575b50505061019e90610eda565b61010b565b91600361019e9495926101ef94604051936101bd85610d67565b825485528c8501528101546040840152015460608201526101de8289610f01565b526101e98188610f01565b50610eda565b91903880610192565b60405161020481610d67565b6000815260008382015260006040820152600060608201528282880101520185906100fc565b806000526002855281866001604060002001541614610252575b61024d90610eda565b6100c8565b9261025f61024d91610eda565b939050610244565b600080fd5b346102675760603660031901126102675760443567ffffffffffffffff808211610267573660238301121561026757816004013581811161061857604051906102bf601f8201601f191660200183610d83565b808252602493368583830101116102675781600092866020930183860137830101523360005260006020526102fb60ff60406000205416610e4b565b61030783351515610e8e565b600435600052600260205260018060a01b0391338360016040600020015416036105ae5733600052600060205283356003604060002001541061056a5761034f600554610eda565b91826005556040519261036184610d4b565b808452602084019460043586526040850190338252606086019288358452608087019485524260a0880152600052600360205260406000209686518855516001880155600287019151166bffffffffffffffffffffffff60a01b825416179055516003850155518051918211610555576103de6004850154610d11565b601f811161050e575b50602090601f831160011461049b5791806005949260a094600092610490575b50508160011b916000199060031b1c19161760048501555b015191015533600052600060205260036040600020018054908235820391821161047b5755600554906040519035815233917f9501b07dd51f296f8817083625c8736bc5624b77f0e554aa58458fab1eea8cf5602060043593a4005b82634e487b7160e01b60005260116004526000fd5b015190508780610407565b90601f198316916004860160005260206000209260005b8181106104f6575092600192859260a09660059896106104dd575b505050811b01600485015561041f565b015160001960f88460031b161c191690558780806104cd565b929360206001819287860151815501950193016104b2565b600485016000526020600020601f840160051c81016020851061054e575b601f830160051c820181106105425750506103e7565b6000815560010161052c565b508061052c565b84634e487b7160e01b60005260416004526000fd5b60405162461bcd60e51b815260206004820152601e818601527f496e73756666696369656e7420746f42655370656e742062616c616e636500006044820152606490fd5b60405162461bcd60e51b8152602060048201526039818601527f4e6f7420617574686f72697a656420746f20616464206d6963726f2d7472616e60448201527f73616374696f6e7320746f2074686973207370656e64696e67000000000000006064820152608490fd5b634e487b7160e01b600052604160045260246000fd5b346102675760203660031901126102675760043560005260026020526080604060002080549060018060a01b03600182015416906003600282015491015491604051938452602084015260408301526060820152f35b3461026757602080600319360112610267576004359033600052600081526106b360ff60406000205416610e4b565b6106be821515610e8e565b6106c9600454610eda565b806004556003604051916106dc83610d67565b8083528383013381526040840190868252606085019242845260005260028652604060002094518555600185019060018060a01b039051166bffffffffffffffffffffffff60a01b825416179055516002840155519101553360005260008152600360406000200180549083820180921161078257557fd26743b74d62dd5ad8e62c8de6634906adc90975c3bf8085f74d522960d2eb5d600454916040519384523393a3005b634e487b7160e01b600052601160045260246000fd5b346102675760203660031901126102675760043560005260036020526040600020805460018201549161081160018060a01b0360028301541691600381015460056107e560048401610da5565b92015493604051968796875260208701526040860152606085015260c0608085015260c0840190610cd1565b9060a08301520390f35b346102675760208060031936011261026757610835610cbb565b903360005260019081815260406000209260018060a01b03169283600052815260ff6040600020541661095f57826000526000815261087b60ff60406000205416610e4b565b82600052600081528160406000200133600052815260406000205461091b5782600052600081528160406000200133600052815281604060002055826000526000815260026040600020016108d08154610eda565b905533600052818152604060002090836000525260406000209060ff19825416179055337fce0c7a2a940807f7dc2ce7a615c2532e915e6c0ac9a08bc4ed9d515a710a53e2600080a3005b6064906040519062461bcd60e51b82526004820152601d60248201527f416c726561647920766f74656420666f72207468697320656e746974790000006044820152fd5b6084906040519062461bcd60e51b82526004820152602660248201527f596f75206861766520616c726561647920766f74656420666f72207468697320604482015265656e7469747960d01b6064820152fd5b34610267576020806003193601126102675760043590600060016005938454915b82811115610b9757506109e583610ee9565b926109f36040519485610d83565b808452610a02601f1991610ee9565b018460005b828110610b585750505060009060015b83811115610ac1575050505060405191808301818452825180915281604082818701971b8601019301916000955b828710610a525785850386f35b909192938280600192603f19898203018552875190815181528282015183820152848060a01b03604083015116604082015260608083015190820152610aa76080808401519060c08091850152830190610cd1565b9160a0809101519101529601920196019592919092610a45565b806000526003808752876040600020600181015492858414610af0575b50505050610aeb90610eda565b610a17565b91610b4e9391610aeb95979360405193610b0985610d4b565b825485528c85015260028201546001600160a01b031660408501528101546060840152610b3860048201610da5565b6080840152015460a08201526101de8289610f01565b9290878980610ade565b604051610b6481610d4b565b600081526000838201526000604082015260606000818301526080820152600060a0820152828288010152018590610a07565b80600052600385528160016040600020015414610bbd575b610bb890610eda565b6109d3565b92610bca610bb891610eda565b939050610baf565b34610267576000366003190112610267576020600454604051908152f35b3461026757604036600319011261026757610c09610cbb565b6001600160a01b03602435818116929083900361026757166000526001602052604060002090600052602052602060ff604060002054166040519015158152f35b34610267576000366003190112610267576020600554604051908152f35b34610267576020366003190112610267576060906001600160a01b03610c8c610cbb565b166000526000602052604060002060ff8154169060036002820154910154911515835260208301526040820152f35b600435906001600160a01b038216820361026757565b919082519283825260005b848110610cfd575050826000602080949584010152601f8019910116010190565b602081830181015184830182015201610cdc565b90600182811c92168015610d41575b6020831014610d2b57565b634e487b7160e01b600052602260045260246000fd5b91607f1691610d20565b60c0810190811067ffffffffffffffff82111761061857604052565b6080810190811067ffffffffffffffff82111761061857604052565b90601f8019910116810190811067ffffffffffffffff82111761061857604052565b9060405191826000825492610db984610d11565b908184526001948581169081600014610e285750600114610de5575b5050610de392500383610d83565b565b9093915060005260209081600020936000915b818310610e10575050610de393508201013880610dd5565b85548884018501529485019487945091830191610df8565b915050610de394506020925060ff191682840152151560051b8201013880610dd5565b15610e5257565b60405162461bcd60e51b8152602060048201526014602482015273456e74697479206973206e6f742061637469766560601b6044820152606490fd5b15610e9557565b60405162461bcd60e51b815260206004820152601d60248201527f416d6f756e74206d7573742062652067726561746572207468616e20300000006044820152606490fd5b60001981146107825760010190565b67ffffffffffffffff81116106185760051b60200190565b8051821015610f155760209160051b010190565b634e487b7160e01b600052603260045260246000fdfea2646970667358221220c865467d7b815e4e7c11de44ea4c4619e05167da7bc2997b005a9e30b76702f464736f6c63430008130033","opcodes":"PUSH1 0x80 DUP1 PUSH1 0x40 MSTORE CALLVALUE PUSH2 0x16 JUMPI PUSH2 0xF61 SWAP1 DUP2 PUSH2 0x1C DUP3 CODECOPY RETURN JUMPDEST PUSH1 0x0 DUP1 REVERT INVALID PUSH1 0x80 DUP1 PUSH1 0x40 MSTORE PUSH1 0x4 CALLDATASIZE LT ISZERO PUSH2 0x13 JUMPI PUSH1 0x0 DUP1 REVERT JUMPDEST PUSH1 0x0 CALLDATALOAD PUSH1 0xE0 SHR SWAP1 DUP2 PUSH4 0x1D8EE48A EQ PUSH2 0xC68 JUMPI POP DUP1 PUSH4 0x3657A7DB EQ PUSH2 0xC4A JUMPI DUP1 PUSH4 0x4D4D2B1C EQ PUSH2 0xBF0 JUMPI DUP1 PUSH4 0x4F7311AD EQ PUSH2 0xBD2 JUMPI DUP1 PUSH4 0x502AE238 EQ PUSH2 0x9B2 JUMPI DUP1 PUSH4 0x6DD7D8EA EQ PUSH2 0x81B JUMPI DUP1 PUSH4 0x818F994D EQ PUSH2 0x798 JUMPI DUP1 PUSH4 0xA9BBA443 EQ PUSH2 0x684 JUMPI DUP1 PUSH4 0xBAC5D8F9 EQ PUSH2 0x62E JUMPI DUP1 PUSH4 0xF1B2B18B EQ PUSH2 0x26C JUMPI PUSH4 0xFB116B58 EQ PUSH2 0x98 JUMPI PUSH1 0x0 DUP1 REVERT JUMPDEST CALLVALUE PUSH2 0x267 JUMPI PUSH1 0x20 DUP1 PUSH1 0x3 NOT CALLDATASIZE ADD SLT PUSH2 0x267 JUMPI PUSH2 0xB2 PUSH2 0xCBB JUMP JUMPDEST PUSH1 0x4 SLOAD PUSH1 0x1 PUSH1 0x1 PUSH1 0xA0 SHL SUB SWAP3 SWAP2 PUSH1 0x0 SWAP2 SWAP1 DUP5 AND PUSH1 0x1 JUMPDEST DUP3 DUP2 GT ISZERO PUSH2 0x22A JUMPI POP PUSH2 0xDA DUP4 PUSH2 0xEE9 JUMP JUMPDEST SWAP3 PUSH2 0xE8 PUSH1 0x40 MLOAD SWAP5 DUP6 PUSH2 0xD83 JUMP JUMPDEST DUP1 DUP5 MSTORE PUSH2 0xF7 PUSH1 0x1F NOT SWAP2 PUSH2 0xEE9 JUMP JUMPDEST ADD DUP5 PUSH1 0x0 JUMPDEST DUP3 DUP2 LT PUSH2 0x1F8 JUMPI POP POP POP PUSH1 0x0 PUSH1 0x1 JUMPDEST DUP4 DUP2 GT ISZERO PUSH2 0x174 JUMPI POP POP POP POP PUSH1 0x40 MLOAD SWAP2 DUP1 DUP4 ADD DUP2 DUP5 MSTORE DUP3 MLOAD DUP1 SWAP2 MSTORE DUP2 PUSH1 0x40 DUP6 ADD SWAP4 ADD SWAP2 PUSH1 0x0 JUMPDEST DUP3 DUP2 LT PUSH2 0x13E JUMPI DUP6 DUP6 SUB DUP7 RETURN JUMPDEST DUP4 MLOAD DUP1 MLOAD DUP7 MSTORE DUP1 DUP4 ADD MLOAD DUP9 AND DUP7 DUP5 ADD MSTORE PUSH1 0x40 DUP1 DUP3 ADD MLOAD SWAP1 DUP8 ADD MSTORE PUSH1 0x60 SWAP1 DUP2 ADD MLOAD SWAP1 DUP7 ADD MSTORE PUSH1 0x80 SWAP1 SWAP5 ADD SWAP4 SWAP3 DUP2 ADD SWAP3 PUSH1 0x1 ADD PUSH2 0x131 JUMP JUMPDEST DUP1 PUSH1 0x0 MSTORE PUSH1 0x2 DUP1 DUP8 MSTORE PUSH1 0x40 PUSH1 0x0 KECCAK256 DUP9 PUSH1 0x1 DUP3 ADD SLOAD AND SWAP2 DUP6 DUP4 EQ PUSH2 0x1A3 JUMPI JUMPDEST POP POP POP PUSH2 0x19E SWAP1 PUSH2 0xEDA JUMP JUMPDEST PUSH2 0x10B JUMP JUMPDEST SWAP2 PUSH1 0x3 PUSH2 0x19E SWAP5 SWAP6 SWAP3 PUSH2 0x1EF SWAP5 PUSH1 0x40 MLOAD SWAP4 PUSH2 0x1BD DUP6 PUSH2 0xD67 JUMP JUMPDEST DUP3 SLOAD DUP6 MSTORE DUP13 DUP6 ADD MSTORE DUP2 ADD SLOAD PUSH1 0x40 DUP5 ADD MSTORE ADD SLOAD PUSH1 0x60 DUP3 ADD MSTORE PUSH2 0x1DE DUP3 DUP10 PUSH2 0xF01 JUMP JUMPDEST MSTORE PUSH2 0x1E9 DUP2 DUP9 PUSH2 0xF01 JUMP JUMPDEST POP PUSH2 0xEDA JUMP JUMPDEST SWAP2 SWAP1 CODESIZE DUP1 PUSH2 0x192 JUMP JUMPDEST PUSH1 0x40 MLOAD PUSH2 0x204 DUP2 PUSH2 0xD67 JUMP JUMPDEST PUSH1 0x0 DUP2 MSTORE PUSH1 0x0 DUP4 DUP3 ADD MSTORE PUSH1 0x0 PUSH1 0x40 DUP3 ADD MSTORE PUSH1 0x0 PUSH1 0x60 DUP3 ADD MSTORE DUP3 DUP3 DUP9 ADD ADD MSTORE ADD DUP6 SWAP1 PUSH2 0xFC JUMP JUMPDEST DUP1 PUSH1 0x0 MSTORE PUSH1 0x2 DUP6 MSTORE DUP2 DUP7 PUSH1 0x1 PUSH1 0x40 PUSH1 0x0 KECCAK256 ADD SLOAD AND EQ PUSH2 0x252 JUMPI JUMPDEST PUSH2 0x24D SWAP1 PUSH2 0xEDA JUMP JUMPDEST PUSH2 0xC8 JUMP JUMPDEST SWAP3 PUSH2 0x25F PUSH2 0x24D SWAP2 PUSH2 0xEDA JUMP JUMPDEST SWAP4 SWAP1 POP PUSH2 0x244 JUMP JUMPDEST PUSH1 0x0 DUP1 REVERT JUMPDEST CALLVALUE PUSH2 0x267 JUMPI PUSH1 0x60 CALLDATASIZE PUSH1 0x3 NOT ADD SLT PUSH2 0x267 JUMPI PUSH1 0x44 CALLDATALOAD PUSH8 0xFFFFFFFFFFFFFFFF DUP1 DUP3 GT PUSH2 0x267 JUMPI CALLDATASIZE PUSH1 0x23 DUP4 ADD SLT ISZERO PUSH2 0x267 JUMPI DUP2 PUSH1 0x4 ADD CALLDATALOAD DUP2 DUP2 GT PUSH2 0x618 JUMPI PUSH1 0x40 MLOAD SWAP1 PUSH2 0x2BF PUSH1 0x1F DUP3 ADD PUSH1 0x1F NOT AND PUSH1 0x20 ADD DUP4 PUSH2 0xD83 JUMP JUMPDEST DUP1 DUP3 MSTORE PUSH1 0x24 SWAP4 CALLDATASIZE DUP6 DUP4 DUP4 ADD ADD GT PUSH2 0x267 JUMPI DUP2 PUSH1 0x0 SWAP3 DUP7 PUSH1 0x20 SWAP4 ADD DUP4 DUP7 ADD CALLDATACOPY DUP4 ADD ADD MSTORE CALLER PUSH1 0x0 MSTORE PUSH1 0x0 PUSH1 0x20 MSTORE PUSH2 0x2FB PUSH1 0xFF PUSH1 0x40 PUSH1 0x0 KECCAK256 SLOAD AND PUSH2 0xE4B JUMP JUMPDEST PUSH2 0x307 DUP4 CALLDATALOAD ISZERO ISZERO PUSH2 0xE8E JUMP JUMPDEST PUSH1 0x4 CALLDATALOAD PUSH1 0x0 MSTORE PUSH1 0x2 PUSH1 0x20 MSTORE PUSH1 0x1 DUP1 PUSH1 0xA0 SHL SUB SWAP2 CALLER DUP4 PUSH1 0x1 PUSH1 0x40 PUSH1 0x0 KECCAK256 ADD SLOAD AND SUB PUSH2 0x5AE JUMPI CALLER PUSH1 0x0 MSTORE PUSH1 0x0 PUSH1 0x20 MSTORE DUP4 CALLDATALOAD PUSH1 0x3 PUSH1 0x40 PUSH1 0x0 KECCAK256 ADD SLOAD LT PUSH2 0x56A JUMPI PUSH2 0x34F PUSH1 0x5 SLOAD PUSH2 0xEDA JUMP JUMPDEST SWAP2 DUP3 PUSH1 0x5 SSTORE PUSH1 0x40 MLOAD SWAP3 PUSH2 0x361 DUP5 PUSH2 0xD4B JUMP JUMPDEST DUP1 DUP5 MSTORE PUSH1 0x20 DUP5 ADD SWAP5 PUSH1 0x4 CALLDATALOAD DUP7 MSTORE PUSH1 0x40 DUP6 ADD SWAP1 CALLER DUP3 MSTORE PUSH1 0x60 DUP7 ADD SWAP3 DUP9 CALLDATALOAD DUP5 MSTORE PUSH1 0x80 DUP8 ADD SWAP5 DUP6 MSTORE TIMESTAMP PUSH1 0xA0 DUP9 ADD MSTORE PUSH1 0x0 MSTORE PUSH1 0x3 PUSH1 0x20 MSTORE PUSH1 0x40 PUSH1 0x0 KECCAK256 SWAP7 DUP7 MLOAD DUP9 SSTORE MLOAD PUSH1 0x1 DUP9 ADD SSTORE PUSH1 0x2 DUP8 ADD SWAP2 MLOAD AND PUSH12 0xFFFFFFFFFFFFFFFFFFFFFFFF PUSH1 0xA0 SHL DUP3 SLOAD AND OR SWAP1 SSTORE MLOAD PUSH1 0x3 DUP6 ADD SSTORE MLOAD DUP1 MLOAD SWAP2 DUP3 GT PUSH2 0x555 JUMPI PUSH2 0x3DE PUSH1 0x4 DUP6 ADD SLOAD PUSH2 0xD11 JUMP JUMPDEST PUSH1 0x1F DUP2 GT PUSH2 0x50E JUMPI JUMPDEST POP PUSH1 0x20 SWAP1 PUSH1 0x1F DUP4 GT PUSH1 0x1 EQ PUSH2 0x49B JUMPI SWAP2 DUP1 PUSH1 0x5 SWAP5 SWAP3 PUSH1 0xA0 SWAP5 PUSH1 0x0 SWAP3 PUSH2 0x490 JUMPI JUMPDEST POP POP DUP2 PUSH1 0x1 SHL SWAP2 PUSH1 0x0 NOT SWAP1 PUSH1 0x3 SHL SHR NOT AND OR PUSH1 0x4 DUP6 ADD SSTORE JUMPDEST ADD MLOAD SWAP2 ADD SSTORE CALLER PUSH1 0x0 MSTORE PUSH1 0x0 PUSH1 0x20 MSTORE PUSH1 0x3 PUSH1 0x40 PUSH1 0x0 KECCAK256 ADD DUP1 SLOAD SWAP1 DUP3 CALLDATALOAD DUP3 SUB SWAP2 DUP3 GT PUSH2 0x47B JUMPI SSTORE PUSH1 0x5 SLOAD SWAP1 PUSH1 0x40 MLOAD SWAP1 CALLDATALOAD DUP2 MSTORE CALLER SWAP2 PUSH32 0x9501B07DD51F296F8817083625C8736BC5624B77F0E554AA58458FAB1EEA8CF5 PUSH1 0x20 PUSH1 0x4 CALLDATALOAD SWAP4 LOG4 STOP JUMPDEST DUP3 PUSH4 0x4E487B71 PUSH1 0xE0 SHL PUSH1 0x0 MSTORE PUSH1 0x11 PUSH1 0x4 MSTORE PUSH1 0x0 REVERT JUMPDEST ADD MLOAD SWAP1 POP DUP8 DUP1 PUSH2 0x407 JUMP JUMPDEST SWAP1 PUSH1 0x1F NOT DUP4 AND SWAP2 PUSH1 0x4 DUP7 ADD PUSH1 0x0 MSTORE PUSH1 0x20 PUSH1 0x0 KECCAK256 SWAP3 PUSH1 0x0 JUMPDEST DUP2 DUP2 LT PUSH2 0x4F6 JUMPI POP SWAP3 PUSH1 0x1 SWAP3 DUP6 SWAP3 PUSH1 0xA0 SWAP7 PUSH1 0x5 SWAP9 SWAP7 LT PUSH2 0x4DD JUMPI JUMPDEST POP POP POP DUP2 SHL ADD PUSH1 0x4 DUP6 ADD SSTORE PUSH2 0x41F JUMP JUMPDEST ADD MLOAD PUSH1 0x0 NOT PUSH1 0xF8 DUP5 PUSH1 0x3 SHL AND SHR NOT AND SWAP1 SSTORE DUP8 DUP1 DUP1 PUSH2 0x4CD JUMP JUMPDEST SWAP3 SWAP4 PUSH1 0x20 PUSH1 0x1 DUP2 SWAP3 DUP8 DUP7 ADD MLOAD DUP2 SSTORE ADD SWAP6 ADD SWAP4 ADD PUSH2 0x4B2 JUMP JUMPDEST PUSH1 0x4 DUP6 ADD PUSH1 0x0 MSTORE PUSH1 0x20 PUSH1 0x0 KECCAK256 PUSH1 0x1F DUP5 ADD PUSH1 0x5 SHR DUP2 ADD PUSH1 0x20 DUP6 LT PUSH2 0x54E JUMPI JUMPDEST PUSH1 0x1F DUP4 ADD PUSH1 0x5 SHR DUP3 ADD DUP2 LT PUSH2 0x542 JUMPI POP POP PUSH2 0x3E7 JUMP JUMPDEST PUSH1 0x0 DUP2 SSTORE PUSH1 0x1 ADD PUSH2 0x52C JUMP JUMPDEST POP DUP1 PUSH2 0x52C JUMP JUMPDEST DUP5 PUSH4 0x4E487B71 PUSH1 0xE0 SHL PUSH1 0x0 MSTORE PUSH1 0x41 PUSH1 0x4 MSTORE PUSH1 0x0 REVERT JUMPDEST PUSH1 0x40 MLOAD PUSH3 0x461BCD PUSH1 0xE5 SHL DUP2 MSTORE PUSH1 0x20 PUSH1 0x4 DUP3 ADD MSTORE PUSH1 0x1E DUP2 DUP7 ADD MSTORE PUSH32 0x496E73756666696369656E7420746F42655370656E742062616C616E63650000 PUSH1 0x44 DUP3 ADD MSTORE PUSH1 0x64 SWAP1 REVERT JUMPDEST PUSH1 0x40 MLOAD PUSH3 0x461BCD PUSH1 0xE5 SHL DUP2 MSTORE PUSH1 0x20 PUSH1 0x4 DUP3 ADD MSTORE PUSH1 0x39 DUP2 DUP7 ADD MSTORE PUSH32 0x4E6F7420617574686F72697A656420746F20616464206D6963726F2D7472616E PUSH1 0x44 DUP3 ADD MSTORE PUSH32 0x73616374696F6E7320746F2074686973207370656E64696E6700000000000000 PUSH1 0x64 DUP3 ADD MSTORE PUSH1 0x84 SWAP1 REVERT JUMPDEST PUSH4 0x4E487B71 PUSH1 0xE0 SHL PUSH1 0x0 MSTORE PUSH1 0x41 PUSH1 0x4 MSTORE PUSH1 0x24 PUSH1 0x0 REVERT JUMPDEST CALLVALUE PUSH2 0x267 JUMPI PUSH1 0x20 CALLDATASIZE PUSH1 0x3 NOT ADD SLT PUSH2 0x267 JUMPI PUSH1 0x4 CALLDATALOAD PUSH1 0x0 MSTORE PUSH1 0x2 PUSH1 0x20 MSTORE PUSH1 0x80 PUSH1 0x40 PUSH1 0x0 KECCAK256 DUP1 SLOAD SWAP1 PUSH1 0x1 DUP1 PUSH1 0xA0 SHL SUB PUSH1 0x1 DUP3 ADD SLOAD AND SWAP1 PUSH1 0x3 PUSH1 0x2 DUP3 ADD SLOAD SWAP2 ADD SLOAD SWAP2 PUSH1 0x40 MLOAD SWAP4 DUP5 MSTORE PUSH1 0x20 DUP5 ADD MSTORE PUSH1 0x40 DUP4 ADD MSTORE PUSH1 0x60 DUP3 ADD MSTORE RETURN JUMPDEST CALLVALUE PUSH2 0x267 JUMPI PUSH1 0x20 DUP1 PUSH1 0x3 NOT CALLDATASIZE ADD SLT PUSH2 0x267 JUMPI PUSH1 0x4 CALLDATALOAD SWAP1 CALLER PUSH1 0x0 MSTORE PUSH1 0x0 DUP2 MSTORE PUSH2 0x6B3 PUSH1 0xFF PUSH1 0x40 PUSH1 0x0 KECCAK256 SLOAD AND PUSH2 0xE4B JUMP JUMPDEST PUSH2 0x6BE DUP3 ISZERO ISZERO PUSH2 0xE8E JUMP JUMPDEST PUSH2 0x6C9 PUSH1 0x4 SLOAD PUSH2 0xEDA JUMP JUMPDEST DUP1 PUSH1 0x4 SSTORE PUSH1 0x3 PUSH1 0x40 MLOAD SWAP2 PUSH2 0x6DC DUP4 PUSH2 0xD67 JUMP JUMPDEST DUP1 DUP4 MSTORE DUP4 DUP4 ADD CALLER DUP2 MSTORE PUSH1 0x40 DUP5 ADD SWAP1 DUP7 DUP3 MSTORE PUSH1 0x60 DUP6 ADD SWAP3 TIMESTAMP DUP5 MSTORE PUSH1 0x0 MSTORE PUSH1 0x2 DUP7 MSTORE PUSH1 0x40 PUSH1 0x0 KECCAK256 SWAP5 MLOAD DUP6 SSTORE PUSH1 0x1 DUP6 ADD SWAP1 PUSH1 0x1 DUP1 PUSH1 0xA0 SHL SUB SWAP1 MLOAD AND PUSH12 0xFFFFFFFFFFFFFFFFFFFFFFFF PUSH1 0xA0 SHL DUP3 SLOAD AND OR SWAP1 SSTORE MLOAD PUSH1 0x2 DUP5 ADD SSTORE MLOAD SWAP2 ADD SSTORE CALLER PUSH1 0x0 MSTORE PUSH1 0x0 DUP2 MSTORE PUSH1 0x3 PUSH1 0x40 PUSH1 0x0 KECCAK256 ADD DUP1 SLOAD SWAP1 DUP4 DUP3 ADD DUP1 SWAP3 GT PUSH2 0x782 JUMPI SSTORE PUSH32 0xD26743B74D62DD5AD8E62C8DE6634906ADC90975C3BF8085F74D522960D2EB5D PUSH1 0x4 SLOAD SWAP2 PUSH1 0x40 MLOAD SWAP4 DUP5 MSTORE CALLER SWAP4 LOG3 STOP JUMPDEST PUSH4 0x4E487B71 PUSH1 0xE0 SHL PUSH1 0x0 MSTORE PUSH1 0x11 PUSH1 0x4 MSTORE PUSH1 0x24 PUSH1 0x0 REVERT JUMPDEST CALLVALUE PUSH2 0x267 JUMPI PUSH1 0x20 CALLDATASIZE PUSH1 0x3 NOT ADD SLT PUSH2 0x267 JUMPI PUSH1 0x4 CALLDATALOAD PUSH1 0x0 MSTORE PUSH1 0x3 PUSH1 0x20 MSTORE PUSH1 0x40 PUSH1 0x0 KECCAK256 DUP1 SLOAD PUSH1 0x1 DUP3 ADD SLOAD SWAP2 PUSH2 0x811 PUSH1 0x1 DUP1 PUSH1 0xA0 SHL SUB PUSH1 0x2 DUP4 ADD SLOAD AND SWAP2 PUSH1 0x3 DUP2 ADD SLOAD PUSH1 0x5 PUSH2 0x7E5 PUSH1 0x4 DUP5 ADD PUSH2 0xDA5 JUMP JUMPDEST SWAP3 ADD SLOAD SWAP4 PUSH1 0x40 MLOAD SWAP7 DUP8 SWAP7 DUP8 MSTORE PUSH1 0x20 DUP8 ADD MSTORE PUSH1 0x40 DUP7 ADD MSTORE PUSH1 0x60 DUP6 ADD MSTORE PUSH1 0xC0 PUSH1 0x80 DUP6 ADD MSTORE PUSH1 0xC0 DUP5 ADD SWAP1 PUSH2 0xCD1 JUMP JUMPDEST SWAP1 PUSH1 0xA0 DUP4 ADD MSTORE SUB SWAP1 RETURN JUMPDEST CALLVALUE PUSH2 0x267 JUMPI PUSH1 0x20 DUP1 PUSH1 0x3 NOT CALLDATASIZE ADD SLT PUSH2 0x267 JUMPI PUSH2 0x835 PUSH2 0xCBB JUMP JUMPDEST SWAP1 CALLER PUSH1 0x0 MSTORE PUSH1 0x1 SWAP1 DUP2 DUP2 MSTORE PUSH1 0x40 PUSH1 0x0 KECCAK256 SWAP3 PUSH1 0x1 DUP1 PUSH1 0xA0 SHL SUB AND SWAP3 DUP4 PUSH1 0x0 MSTORE DUP2 MSTORE PUSH1 0xFF PUSH1 0x40 PUSH1 0x0 KECCAK256 SLOAD AND PUSH2 0x95F JUMPI DUP3 PUSH1 0x0 MSTORE PUSH1 0x0 DUP2 MSTORE PUSH2 0x87B PUSH1 0xFF PUSH1 0x40 PUSH1 0x0 KECCAK256 SLOAD AND PUSH2 0xE4B JUMP JUMPDEST DUP3 PUSH1 0x0 MSTORE PUSH1 0x0 DUP2 MSTORE DUP2 PUSH1 0x40 PUSH1 0x0 KECCAK256 ADD CALLER PUSH1 0x0 MSTORE DUP2 MSTORE PUSH1 0x40 PUSH1 0x0 KECCAK256 SLOAD PUSH2 0x91B JUMPI DUP3 PUSH1 0x0 MSTORE PUSH1 0x0 DUP2 MSTORE DUP2 PUSH1 0x40 PUSH1 0x0 KECCAK256 ADD CALLER PUSH1 0x0 MSTORE DUP2 MSTORE DUP2 PUSH1 0x40 PUSH1 0x0 KECCAK256 SSTORE DUP3 PUSH1 0x0 MSTORE PUSH1 0x0 DUP2 MSTORE PUSH1 0x2 PUSH1 0x40 PUSH1 0x0 KECCAK256 ADD PUSH2 0x8D0 DUP2 SLOAD PUSH2 0xEDA JUMP JUMPDEST SWAP1 SSTORE CALLER PUSH1 0x0 MSTORE DUP2 DUP2 MSTORE PUSH1 0x40 PUSH1 0x0 KECCAK256 SWAP1 DUP4 PUSH1 0x0 MSTORE MSTORE PUSH1 0x40 PUSH1 0x0 KECCAK256 SWAP1 PUSH1 0xFF NOT DUP3 SLOAD AND OR SWAP1 SSTORE CALLER PUSH32 0xCE0C7A2A940807F7DC2CE7A615C2532E915E6C0AC9A08BC4ED9D515A710A53E2 PUSH1 0x0 DUP1 LOG3 STOP JUMPDEST PUSH1 0x64 SWAP1 PUSH1 0x40 MLOAD SWAP1 PUSH3 0x461BCD PUSH1 0xE5 SHL DUP3 MSTORE PUSH1 0x4 DUP3 ADD MSTORE PUSH1 0x1D PUSH1 0x24 DUP3 ADD MSTORE PUSH32 0x416C726561647920766F74656420666F72207468697320656E74697479000000 PUSH1 0x44 DUP3 ADD MSTORE REVERT JUMPDEST PUSH1 0x84 SWAP1 PUSH1 0x40 MLOAD SWAP1 PUSH3 0x461BCD PUSH1 0xE5 SHL DUP3 MSTORE PUSH1 0x4 DUP3 ADD MSTORE PUSH1 0x26 PUSH1 0x24 DUP3 ADD MSTORE PUSH32 0x596F75206861766520616C726561647920766F74656420666F72207468697320 PUSH1 0x44 DUP3 ADD MSTORE PUSH6 0x656E74697479 PUSH1 0xD0 SHL PUSH1 0x64 DUP3 ADD MSTORE REVERT JUMPDEST CALLVALUE PUSH2 0x267 JUMPI PUSH1 0x20 DUP1 PUSH1 0x3 NOT CALLDATASIZE ADD SLT PUSH2 0x267 JUMPI PUSH1 0x4 CALLDATALOAD SWAP1 PUSH1 0x0 PUSH1 0x1 PUSH1 0x5 SWAP4 DUP5 SLOAD SWAP2 JUMPDEST DUP3 DUP2 GT ISZERO PUSH2 0xB97 JUMPI POP PUSH2 0x9E5 DUP4 PUSH2 0xEE9 JUMP JUMPDEST SWAP3 PUSH2 0x9F3 PUSH1 0x40 MLOAD SWAP5 DUP6 PUSH2 0xD83 JUMP JUMPDEST DUP1 DUP5 MSTORE PUSH2 0xA02 PUSH1 0x1F NOT SWAP2 PUSH2 0xEE9 JUMP JUMPDEST ADD DUP5 PUSH1 0x0 JUMPDEST DUP3 DUP2 LT PUSH2 0xB58 JUMPI POP POP POP PUSH1 0x0 SWAP1 PUSH1 0x1 JUMPDEST DUP4 DUP2 GT ISZERO PUSH2 0xAC1 JUMPI POP POP POP POP PUSH1 0x40 MLOAD SWAP2 DUP1 DUP4 ADD DUP2 DUP5 MSTORE DUP3 MLOAD DUP1 SWAP2 MSTORE DUP2 PUSH1 0x40 DUP3 DUP2 DUP8 ADD SWAP8 SHL DUP7 ADD ADD SWAP4 ADD SWAP2 PUSH1 0x0 SWAP6 JUMPDEST DUP3 DUP8 LT PUSH2 0xA52 JUMPI DUP6 DUP6 SUB DUP7 RETURN JUMPDEST SWAP1 SWAP2 SWAP3 SWAP4 DUP3 DUP1 PUSH1 0x1 SWAP3 PUSH1 0x3F NOT DUP10 DUP3 SUB ADD DUP6 MSTORE DUP8 MLOAD SWAP1 DUP2 MLOAD DUP2 MSTORE DUP3 DUP3 ADD MLOAD DUP4 DUP3 ADD MSTORE DUP5 DUP1 PUSH1 0xA0 SHL SUB PUSH1 0x40 DUP4 ADD MLOAD AND PUSH1 0x40 DUP3 ADD MSTORE PUSH1 0x60 DUP1 DUP4 ADD MLOAD SWAP1 DUP3 ADD MSTORE PUSH2 0xAA7 PUSH1 0x80 DUP1 DUP5 ADD MLOAD SWAP1 PUSH1 0xC0 DUP1 SWAP2 DUP6 ADD MSTORE DUP4 ADD SWAP1 PUSH2 0xCD1 JUMP JUMPDEST SWAP2 PUSH1 0xA0 DUP1 SWAP2 ADD MLOAD SWAP2 ADD MSTORE SWAP7 ADD SWAP3 ADD SWAP7 ADD SWAP6 SWAP3 SWAP2 SWAP1 SWAP3 PUSH2 0xA45 JUMP JUMPDEST DUP1 PUSH1 0x0 MSTORE PUSH1 0x3 DUP1 DUP8 MSTORE DUP8 PUSH1 0x40 PUSH1 0x0 KECCAK256 PUSH1 0x1 DUP2 ADD SLOAD SWAP3 DUP6 DUP5 EQ PUSH2 0xAF0 JUMPI JUMPDEST POP POP POP POP PUSH2 0xAEB SWAP1 PUSH2 0xEDA JUMP JUMPDEST PUSH2 0xA17 JUMP JUMPDEST SWAP2 PUSH2 0xB4E SWAP4 SWAP2 PUSH2 0xAEB SWAP6 SWAP8 SWAP4 PUSH1 0x40 MLOAD SWAP4 PUSH2 0xB09 DUP6 PUSH2 0xD4B JUMP JUMPDEST DUP3 SLOAD DUP6 MSTORE DUP13 DUP6 ADD MSTORE PUSH1 0x2 DUP3 ADD SLOAD PUSH1 0x1 PUSH1 0x1 PUSH1 0xA0 SHL SUB AND PUSH1 0x40 DUP6 ADD MSTORE DUP2 ADD SLOAD PUSH1 0x60 DUP5 ADD MSTORE PUSH2 0xB38 PUSH1 0x4 DUP3 ADD PUSH2 0xDA5 JUMP JUMPDEST PUSH1 0x80 DUP5 ADD MSTORE ADD SLOAD PUSH1 0xA0 DUP3 ADD MSTORE PUSH2 0x1DE DUP3 DUP10 PUSH2 0xF01 JUMP JUMPDEST SWAP3 SWAP1 DUP8 DUP10 DUP1 PUSH2 0xADE JUMP JUMPDEST PUSH1 0x40 MLOAD PUSH2 0xB64 DUP2 PUSH2 0xD4B JUMP JUMPDEST PUSH1 0x0 DUP2 MSTORE PUSH1 0x0 DUP4 DUP3 ADD MSTORE PUSH1 0x0 PUSH1 0x40 DUP3 ADD MSTORE PUSH1 0x60 PUSH1 0x0 DUP2 DUP4 ADD MSTORE PUSH1 0x80 DUP3 ADD MSTORE PUSH1 0x0 PUSH1 0xA0 DUP3 ADD MSTORE DUP3 DUP3 DUP9 ADD ADD MSTORE ADD DUP6 SWAP1 PUSH2 0xA07 JUMP JUMPDEST DUP1 PUSH1 0x0 MSTORE PUSH1 0x3 DUP6 MSTORE DUP2 PUSH1 0x1 PUSH1 0x40 PUSH1 0x0 KECCAK256 ADD SLOAD EQ PUSH2 0xBBD JUMPI JUMPDEST PUSH2 0xBB8 SWAP1 PUSH2 0xEDA JUMP JUMPDEST PUSH2 0x9D3 JUMP JUMPDEST SWAP3 PUSH2 0xBCA PUSH2 0xBB8 SWAP2 PUSH2 0xEDA JUMP JUMPDEST SWAP4 SWAP1 POP PUSH2 0xBAF JUMP JUMPDEST CALLVALUE PUSH2 0x267 JUMPI PUSH1 0x0 CALLDATASIZE PUSH1 0x3 NOT ADD SLT PUSH2 0x267 JUMPI PUSH1 0x20 PUSH1 0x4 SLOAD PUSH1 0x40 MLOAD SWAP1 DUP2 MSTORE RETURN JUMPDEST CALLVALUE PUSH2 0x267 JUMPI PUSH1 0x40 CALLDATASIZE PUSH1 0x3 NOT ADD SLT PUSH2 0x267 JUMPI PUSH2 0xC09 PUSH2 0xCBB JUMP JUMPDEST PUSH1 0x1 PUSH1 0x1 PUSH1 0xA0 SHL SUB PUSH1 0x24 CALLDATALOAD DUP2 DUP2 AND SWAP3 SWAP1 DUP4 SWAP1 SUB PUSH2 0x267 JUMPI AND PUSH1 0x0 MSTORE PUSH1 0x1 PUSH1 0x20 MSTORE PUSH1 0x40 PUSH1 0x0 KECCAK256 SWAP1 PUSH1 0x0 MSTORE PUSH1 0x20 MSTORE PUSH1 0x20 PUSH1 0xFF PUSH1 0x40 PUSH1 0x0 KECCAK256 SLOAD AND PUSH1 0x40 MLOAD SWAP1 ISZERO ISZERO DUP2 MSTORE RETURN JUMPDEST CALLVALUE PUSH2 0x267 JUMPI PUSH1 0x0 CALLDATASIZE PUSH1 0x3 NOT ADD SLT PUSH2 0x267 JUMPI PUSH1 0x20 PUSH1 0x5 SLOAD PUSH1 0x40 MLOAD SWAP1 DUP2 MSTORE RETURN JUMPDEST CALLVALUE PUSH2 0x267 JUMPI PUSH1 0x20 CALLDATASIZE PUSH1 0x3 NOT ADD SLT PUSH2 0x267 JUMPI PUSH1 0x60 SWAP1 PUSH1 0x1 PUSH1 0x1 PUSH1 0xA0 SHL SUB PUSH2 0xC8C PUSH2 0xCBB JUMP JUMPDEST AND PUSH1 0x0 MSTORE PUSH1 0x0 PUSH1 0x20 MSTORE PUSH1 0x40 PUSH1 0x0 KECCAK256 PUSH1 0xFF DUP2 SLOAD AND SWAP1 PUSH1 0x3 PUSH1 0x2 DUP3 ADD SLOAD SWAP2 ADD SLOAD SWAP2 ISZERO ISZERO DUP4 MSTORE PUSH1 0x20 DUP4 ADD MSTORE PUSH1 0x40 DUP3 ADD MSTORE RETURN JUMPDEST PUSH1 0x4 CALLDATALOAD SWAP1 PUSH1 0x1 PUSH1 0x1 PUSH1 0xA0 SHL SUB DUP3 AND DUP3 SUB PUSH2 0x267 JUMPI JUMP JUMPDEST SWAP2 SWAP1 DUP3 MLOAD SWAP3 DUP4 DUP3 MSTORE PUSH1 0x0 JUMPDEST DUP5 DUP2 LT PUSH2 0xCFD JUMPI POP POP DUP3 PUSH1 0x0 PUSH1 0x20 DUP1 SWAP5 SWAP6 DUP5 ADD ADD MSTORE PUSH1 0x1F DUP1 NOT SWAP2 ADD AND ADD ADD SWAP1 JUMP JUMPDEST PUSH1 0x20 DUP2 DUP4 ADD DUP2 ADD MLOAD DUP5 DUP4 ADD DUP3 ADD MSTORE ADD PUSH2 0xCDC JUMP JUMPDEST SWAP1 PUSH1 0x1 DUP3 DUP2 SHR SWAP3 AND DUP1 ISZERO PUSH2 0xD41 JUMPI JUMPDEST PUSH1 0x20 DUP4 LT EQ PUSH2 0xD2B JUMPI JUMP JUMPDEST PUSH4 0x4E487B71 PUSH1 0xE0 SHL PUSH1 0x0 MSTORE PUSH1 0x22 PUSH1 0x4 MSTORE PUSH1 0x24 PUSH1 0x0 REVERT JUMPDEST SWAP2 PUSH1 0x7F AND SWAP2 PUSH2 0xD20 JUMP JUMPDEST PUSH1 0xC0 DUP2 ADD SWAP1 DUP2 LT PUSH8 0xFFFFFFFFFFFFFFFF DUP3 GT OR PUSH2 0x618 JUMPI PUSH1 0x40 MSTORE JUMP JUMPDEST PUSH1 0x80 DUP2 ADD SWAP1 DUP2 LT PUSH8 0xFFFFFFFFFFFFFFFF DUP3 GT OR PUSH2 0x618 JUMPI PUSH1 0x40 MSTORE JUMP JUMPDEST SWAP1 PUSH1 0x1F DUP1 NOT SWAP2 ADD AND DUP2 ADD SWAP1 DUP2 LT PUSH8 0xFFFFFFFFFFFFFFFF DUP3 GT OR PUSH2 0x618 JUMPI PUSH1 0x40 MSTORE JUMP JUMPDEST SWAP1 PUSH1 0x40 MLOAD SWAP2 DUP3 PUSH1 0x0 DUP3 SLOAD SWAP3 PUSH2 0xDB9 DUP5 PUSH2 0xD11 JUMP JUMPDEST SWAP1 DUP2 DUP5 MSTORE PUSH1 0x1 SWAP5 DUP6 DUP2 AND SWAP1 DUP2 PUSH1 0x0 EQ PUSH2 0xE28 JUMPI POP PUSH1 0x1 EQ PUSH2 0xDE5 JUMPI JUMPDEST POP POP PUSH2 0xDE3 SWAP3 POP SUB DUP4 PUSH2 0xD83 JUMP JUMPDEST JUMP JUMPDEST SWAP1 SWAP4 SWAP2 POP PUSH1 0x0 MSTORE PUSH1 0x20 SWAP1 DUP2 PUSH1 0x0 KECCAK256 SWAP4 PUSH1 0x0 SWAP2 JUMPDEST DUP2 DUP4 LT PUSH2 0xE10 JUMPI POP POP PUSH2 0xDE3 SWAP4 POP DUP3 ADD ADD CODESIZE DUP1 PUSH2 0xDD5 JUMP JUMPDEST DUP6 SLOAD DUP9 DUP5 ADD DUP6 ADD MSTORE SWAP5 DUP6 ADD SWAP5 DUP8 SWAP5 POP SWAP2 DUP4 ADD SWAP2 PUSH2 0xDF8 JUMP JUMPDEST SWAP2 POP POP PUSH2 0xDE3 SWAP5 POP PUSH1 0x20 SWAP3 POP PUSH1 0xFF NOT AND DUP3 DUP5 ADD MSTORE ISZERO ISZERO PUSH1 0x5 SHL DUP3 ADD ADD CODESIZE DUP1 PUSH2 0xDD5 JUMP JUMPDEST ISZERO PUSH2 0xE52 JUMPI JUMP JUMPDEST PUSH1 0x40 MLOAD PUSH3 0x461BCD PUSH1 0xE5 SHL DUP2 MSTORE PUSH1 0x20 PUSH1 0x4 DUP3 ADD MSTORE PUSH1 0x14 PUSH1 0x24 DUP3 ADD MSTORE PUSH20 0x456E74697479206973206E6F7420616374697665 PUSH1 0x60 SHL PUSH1 0x44 DUP3 ADD MSTORE PUSH1 0x64 SWAP1 REVERT JUMPDEST ISZERO PUSH2 0xE95 JUMPI JUMP JUMPDEST PUSH1 0x40 MLOAD PUSH3 0x461BCD PUSH1 0xE5 SHL DUP2 MSTORE PUSH1 0x20 PUSH1 0x4 DUP3 ADD MSTORE PUSH1 0x1D PUSH1 0x24 DUP3 ADD MSTORE PUSH32 0x416D6F756E74206D7573742062652067726561746572207468616E2030000000 PUSH1 0x44 DUP3 ADD MSTORE PUSH1 0x64 SWAP1 REVERT JUMPDEST PUSH1 0x0 NOT DUP2 EQ PUSH2 0x782 JUMPI PUSH1 0x1 ADD SWAP1 JUMP JUMPDEST PUSH8 0xFFFFFFFFFFFFFFFF DUP2 GT PUSH2 0x618 JUMPI PUSH1 0x5 SHL PUSH1 0x20 ADD SWAP1 JUMP JUMPDEST DUP1 MLOAD DUP3 LT ISZERO PUSH2 0xF15 JUMPI PUSH1 0x20 SWAP2 PUSH1 0x5 SHL ADD ADD SWAP1 JUMP JUMPDEST PUSH4 0x4E487B71 PUSH1 0xE0 SHL PUSH1 0x0 MSTORE PUSH1 0x32 PUSH1 0x4 MSTORE PUSH1 0x24 PUSH1 0x0 REVERT INVALID LOG2 PUSH5 0x6970667358 0x22 SLT KECCAK256 0xC8 PUSH6 0x467D7B815E4E PUSH29 0x11DE44EA4C4619E05167DA7BC2997B005A9E30B76702F464736F6C6343 STOP ADDMOD SGT STOP CALLER "},"methodIdentifiers":{"entities(address)":"1d8ee48a","getMicroTransactions(uint256)":"502ae238","getSpendingRecords(address)":"fb116b58","hasVoted(address,address)":"4d4d2b1c","microTransactionCount()":"3657a7db","microTransactions(uint256)":"818f994d","recordMicroTransaction(uint256,uint256,string)":"f1b2b18b","recordSpending(uint256)":"a9bba443","spendingCount()":"4f7311ad","spendingRecords(uint256)":"bac5d8f9","vote(address)":"6dd7d8ea"}}}}}