{
  "_format": "hh-sol-artifact-1",
  "contractName": "GovernmentFunds",
  "sourceName": "contracts/GovernmentFunds.sol",
  "abi": [
    {
      "anonymous": false,
      "inputs": [
        {
          "indexed": true,
          "internalType": "uint256",
          "name": "tenderId",
          "type": "uint256"
        },
        {
          "indexed": true,
          "internalType": "uint256",
          "name": "bidId",
          "type": "uint256"
        },
        {
          "indexed": true,
          "internalType": "address",
          "name": "bidder",
          "type": "address"
        },
        {
          "indexed": false,
          "internalType": "uint256",
          "name": "amount",
          "type": "uint256"
        }
      ],
      "name": "BidPlaced",
      "type": "event"
    },
    {
      "anonymous": false,
      "inputs": [
        {
          "indexed": true,
          "internalType": "uint256",
          "name": "tenderId",
          "type": "uint256"
        },
        {
          "indexed": true,
          "internalType": "uint256",
          "name": "bidId",
          "type": "uint256"
        },
        {
          "indexed": true,
          "internalType": "address",
          "name": "bidder",
          "type": "address"
        }
      ],
      "name": "BidWithdrawn",
      "type": "event"
    },
    {
      "anonymous": false,
      "inputs": [
        {
          "indexed": true,
          "internalType": "uint256",
          "name": "id",
          "type": "uint256"
        },
        {
          "indexed": true,
          "internalType": "address",
          "name": "entity",
          "type": "address"
        },
        {
          "indexed": false,
          "internalType": "uint256",
          "name": "amount",
          "type": "uint256"
        }
      ],
      "name": "SpendingRecorded",
      "type": "event"
    },
    {
      "anonymous": false,
      "inputs": [
        {
          "indexed": true,
          "internalType": "uint256",
          "name": "tenderId",
          "type": "uint256"
        },
        {
          "indexed": true,
          "internalType": "address",
          "name": "winner",
          "type": "address"
        },
        {
          "indexed": false,
          "internalType": "uint256",
          "name": "amount",
          "type": "uint256"
        }
      ],
      "name": "TenderAwarded",
      "type": "event"
    },
    {
      "anonymous": false,
      "inputs": [
        {
          "indexed": true,
          "internalType": "uint256",
          "name": "tenderId",
          "type": "uint256"
        },
        {
          "indexed": true,
          "internalType": "address",
          "name": "issuer",
          "type": "address"
        }
      ],
      "name": "TenderCancelled",
      "type": "event"
    },
    {
      "anonymous": false,
      "inputs": [
        {
          "indexed": true,
          "internalType": "uint256",
          "name": "id",
          "type": "uint256"
        },
        {
          "indexed": true,
          "internalType": "address",
          "name": "issuer",
          "type": "address"
        },
        {
          "indexed": false,
          "internalType": "string",
          "name": "title",
          "type": "string"
        },
        {
          "indexed": false,
          "internalType": "uint256",
          "name": "amount",
          "type": "uint256"
        },
        {
          "indexed": false,
          "internalType": "uint256",
          "name": "deadline",
          "type": "uint256"
        }
      ],
      "name": "TenderIssued",
      "type": "event"
    },
    {
      "anonymous": false,
      "inputs": [
        {
          "indexed": true,
          "internalType": "address",
          "name": "voter",
          "type": "address"
        },
        {
          "indexed": true,
          "internalType": "address",
          "name": "entity",
          "type": "address"
        }
      ],
      "name": "Voted",
      "type": "event"
    },
    {
      "inputs": [
        {
          "internalType": "uint256",
          "name": "tenderId",
          "type": "uint256"
        }
      ],
      "name": "awardTender",
      "outputs": [],
      "stateMutability": "nonpayable",
      "type": "function"
    },
    {
      "inputs": [
        {
          "internalType": "uint256",
          "name": "",
          "type": "uint256"
        },
        {
          "internalType": "uint256",
          "name": "",
          "type": "uint256"
        }
      ],
      "name": "bids",
      "outputs": [
        {
          "internalType": "uint256",
          "name": "id",
          "type": "uint256"
        },
        {
          "internalType": "address",
          "name": "bidder",
          "type": "address"
        },
        {
          "internalType": "uint256",
          "name": "amount",
          "type": "uint256"
        },
        {
          "internalType": "uint256",
          "name": "timestamp",
          "type": "uint256"
        },
        {
          "internalType": "bool",
          "name": "isWithdrawn",
          "type": "bool"
        }
      ],
      "stateMutability": "view",
      "type": "function"
    },
    {
      "inputs": [
        {
          "internalType": "uint256",
          "name": "tenderId",
          "type": "uint256"
        }
      ],
      "name": "cancelTender",
      "outputs": [],
      "stateMutability": "nonpayable",
      "type": "function"
    },
    {
      "inputs": [
        {
          "internalType": "address",
          "name": "",
          "type": "address"
        }
      ],
      "name": "entities",
      "outputs": [
        {
          "internalType": "bool",
          "name": "isActive",
          "type": "bool"
        },
        {
          "internalType": "uint256",
          "name": "totalVotes",
          "type": "uint256"
        },
        {
          "internalType": "uint256",
          "name": "toBeSpent",
          "type": "uint256"
        },
        {
          "internalType": "uint256",
          "name": "balance",
          "type": "uint256"
        }
      ],
      "stateMutability": "view",
      "type": "function"
    },
    {
      "inputs": [
        {
          "internalType": "uint256",
          "name": "tenderId",
          "type": "uint256"
        }
      ],
      "name": "getBids",
      "outputs": [
        {
          "components": [
            {
              "internalType": "uint256",
              "name": "id",
              "type": "uint256"
            },
            {
              "internalType": "address",
              "name": "bidder",
              "type": "address"
            },
            {
              "internalType": "uint256",
              "name": "amount",
              "type": "uint256"
            },
            {
              "internalType": "uint256",
              "name": "timestamp",
              "type": "uint256"
            },
            {
              "internalType": "bool",
              "name": "isWithdrawn",
              "type": "bool"
            }
          ],
          "internalType": "struct GovernmentFunds.Bid[]",
          "name": "",
          "type": "tuple[]"
        }
      ],
      "stateMutability": "view",
      "type": "function"
    },
    {
      "inputs": [
        {
          "internalType": "address",
          "name": "entityAddress",
          "type": "address"
        }
      ],
      "name": "getSpendingRecords",
      "outputs": [
        {
          "components": [
            {
              "internalType": "uint256",
              "name": "id",
              "type": "uint256"
            },
            {
              "internalType": "address",
              "name": "entity",
              "type": "address"
            },
            {
              "internalType": "uint256",
              "name": "amount",
              "type": "uint256"
            },
            {
              "internalType": "uint256",
              "name": "timestamp",
              "type": "uint256"
            }
          ],
          "internalType": "struct GovernmentFunds.SpendingRecord[]",
          "name": "",
          "type": "tuple[]"
        }
      ],
      "stateMutability": "view",
      "type": "function"
    },
    {
      "inputs": [
        {
          "internalType": "uint256",
          "name": "tenderId",
          "type": "uint256"
        }
      ],
      "name": "getTenderDetails",
      "outputs": [
        {
          "components": [
            {
              "internalType": "uint256",
              "name": "id",
              "type": "uint256"
            },
            {
              "internalType": "string",
              "name": "title",
              "type": "string"
            },
            {
              "internalType": "string",
              "name": "description",
              "type": "string"
            },
            {
              "internalType": "uint256",
              "name": "amount",
              "type": "uint256"
            },
            {
              "internalType": "uint256",
              "name": "deadline",
              "type": "uint256"
            },
            {
              "internalType": "address",
              "name": "issuer",
              "type": "address"
            },
            {
              "internalType": "bool",
              "name": "isActive",
              "type": "bool"
            },
            {
              "internalType": "address",
              "name": "winner",
              "type": "address"
            },
            {
              "internalType": "uint256",
              "name": "winningBid",
              "type": "uint256"
            },
            {
              "internalType": "uint256",
              "name": "minBidAmount",
              "type": "uint256"
            },
            {
              "internalType": "uint256",
              "name": "maxBidAmount",
              "type": "uint256"
            },
            {
              "internalType": "uint256",
              "name": "bidCount",
              "type": "uint256"
            }
          ],
          "internalType": "struct GovernmentFunds.Tender",
          "name": "",
          "type": "tuple"
        }
      ],
      "stateMutability": "view",
      "type": "function"
    },
    {
      "inputs": [
        {
          "internalType": "uint256",
          "name": "offset",
          "type": "uint256"
        },
        {
          "internalType": "uint256",
          "name": "limit",
          "type": "uint256"
        }
      ],
      "name": "getTenders",
      "outputs": [
        {
          "components": [
            {
              "internalType": "uint256",
              "name": "id",
              "type": "uint256"
            },
            {
              "internalType": "string",
              "name": "title",
              "type": "string"
            },
            {
              "internalType": "string",
              "name": "description",
              "type": "string"
            },
            {
              "internalType": "uint256",
              "name": "amount",
              "type": "uint256"
            },
            {
              "internalType": "uint256",
              "name": "deadline",
              "type": "uint256"
            },
            {
              "internalType": "address",
              "name": "issuer",
              "type": "address"
            },
            {
              "internalType": "bool",
              "name": "isActive",
              "type": "bool"
            },
            {
              "internalType": "address",
              "name": "winner",
              "type": "address"
            },
            {
              "internalType": "uint256",
              "name": "winningBid",
              "type": "uint256"
            },
            {
              "internalType": "uint256",
              "name": "minBidAmount",
              "type": "uint256"
            },
            {
              "internalType": "uint256",
              "name": "maxBidAmount",
              "type": "uint256"
            },
            {
              "internalType": "uint256",
              "name": "bidCount",
              "type": "uint256"
            }
          ],
          "internalType": "struct GovernmentFunds.Tender[]",
          "name": "",
          "type": "tuple[]"
        }
      ],
      "stateMutability": "view",
      "type": "function"
    },
    {
      "inputs": [
        {
          "internalType": "address",
          "name": "",
          "type": "address"
        },
        {
          "internalType": "address",
          "name": "",
          "type": "address"
        }
      ],
      "name": "hasVoted",
      "outputs": [
        {
          "internalType": "bool",
          "name": "",
          "type": "bool"
        }
      ],
      "stateMutability": "view",
      "type": "function"
    },
    {
      "inputs": [
        {
          "internalType": "string",
          "name": "title",
          "type": "string"
        },
        {
          "internalType": "string",
          "name": "description",
          "type": "string"
        },
        {
          "internalType": "uint256",
          "name": "amount",
          "type": "uint256"
        },
        {
          "internalType": "uint256",
          "name": "deadline",
          "type": "uint256"
        },
        {
          "internalType": "uint256",
          "name": "minBidAmount",
          "type": "uint256"
        },
        {
          "internalType": "uint256",
          "name": "maxBidAmount",
          "type": "uint256"
        }
      ],
      "name": "issueTender",
      "outputs": [],
      "stateMutability": "nonpayable",
      "type": "function"
    },
    {
      "inputs": [
        {
          "internalType": "uint256",
          "name": "tenderId",
          "type": "uint256"
        },
        {
          "internalType": "uint256",
          "name": "amount",
          "type": "uint256"
        }
      ],
      "name": "placeBid",
      "outputs": [],
      "stateMutability": "nonpayable",
      "type": "function"
    },
    {
      "inputs": [
        {
          "internalType": "uint256",
          "name": "amount",
          "type": "uint256"
        }
      ],
      "name": "recordSpending",
      "outputs": [],
      "stateMutability": "nonpayable",
      "type": "function"
    },
    {
      "inputs": [],
      "name": "spendingCount",
      "outputs": [
        {
          "internalType": "uint256",
          "name": "",
          "type": "uint256"
        }
      ],
      "stateMutability": "view",
      "type": "function"
    },
    {
      "inputs": [
        {
          "internalType": "uint256",
          "name": "",
          "type": "uint256"
        }
      ],
      "name": "spendingRecords",
      "outputs": [
        {
          "internalType": "uint256",
          "name": "id",
          "type": "uint256"
        },
        {
          "internalType": "address",
          "name": "entity",
          "type": "address"
        },
        {
          "internalType": "uint256",
          "name": "amount",
          "type": "uint256"
        },
        {
          "internalType": "uint256",
          "name": "timestamp",
          "type": "uint256"
        }
      ],
      "stateMutability": "view",
      "type": "function"
    },
    {
      "inputs": [
        {
          "internalType": "uint256",
          "name": "",
          "type": "uint256"
        }
      ],
      "name": "tenderBidCount",
      "outputs": [
        {
          "internalType": "uint256",
          "name": "",
          "type": "uint256"
        }
      ],
      "stateMutability": "view",
      "type": "function"
    },
    {
      "inputs": [],
      "name": "tenderCount",
      "outputs": [
        {
          "internalType": "uint256",
          "name": "",
          "type": "uint256"
        }
      ],
      "stateMutability": "view",
      "type": "function"
    },
    {
      "inputs": [
        {
          "internalType": "uint256",
          "name": "",
          "type": "uint256"
        }
      ],
      "name": "tenders",
      "outputs": [
        {
          "internalType": "uint256",
          "name": "id",
          "type": "uint256"
        },
        {
          "internalType": "string",
          "name": "title",
          "type": "string"
        },
        {
          "internalType": "string",
          "name": "description",
          "type": "string"
        },
        {
          "internalType": "uint256",
          "name": "amount",
          "type": "uint256"
        },
        {
          "internalType": "uint256",
          "name": "deadline",
          "type": "uint256"
        },
        {
          "internalType": "address",
          "name": "issuer",
          "type": "address"
        },
        {
          "internalType": "bool",
          "name": "isActive",
          "type": "bool"
        },
        {
          "internalType": "address",
          "name": "winner",
          "type": "address"
        },
        {
          "internalType": "uint256",
          "name": "winningBid",
          "type": "uint256"
        },
        {
          "internalType": "uint256",
          "name": "minBidAmount",
          "type": "uint256"
        },
        {
          "internalType": "uint256",
          "name": "maxBidAmount",
          "type": "uint256"
        },
        {
          "internalType": "uint256",
          "name": "bidCount",
          "type": "uint256"
        }
      ],
      "stateMutability": "view",
      "type": "function"
    },
    {
      "inputs": [
        {
          "internalType": "address",
          "name": "entityAddress",
          "type": "address"
        }
      ],
      "name": "vote",
      "outputs": [],
      "stateMutability": "nonpayable",
      "type": "function"
    },
    {
      "inputs": [
        {
          "internalType": "uint256",
          "name": "tenderId",
          "type": "uint256"
        },
        {
          "internalType": "uint256",
          "name": "bidId",
          "type": "uint256"
        }
      ],
      "name": "withdrawBid",
      "outputs": [],
      "stateMutability": "nonpayable",
      "type": "function"
    }
  ],
  "bytecode": "0x608080604052346100165761216c908161001c8239f35b600080fdfe6080604052600436101561001257600080fd5b60003560e01c8063131d9a2714611b1b57806315cf4b6e14611aef5780631d8ee48a14611a8e5780631dfd95421461182b5780631f0587761461180d5780633a74e070146116f0578063465e1def1461160e5780634d4d2b1c146115b45780634f7311ad1461159657806353ee895d1461146257806357c90de5146111bf5780636dd7d8ea146110285780637b3c4baa14610fbd5780638fdee0c514610dfe578063a573566214610b41578063a9bba44314610a49578063bac5d8f9146109f3578063c4bce418146102c15763fb116b58146100ed57600080fd5b346102bc576020806003193601126102bc57610107611c97565b6006546001600160a01b03929160009190841660015b8281111561027f575061012f83612098565b9261013d6040519485611e32565b80845261014c601f1991612098565b018460005b82811061024d57505050600060015b838111156101c95750505050604051918083018184528251809152816040850193019160005b8281106101935785850386f35b83518051865280830151881686840152604080820151908701526060908101519086015260809094019392810192600101610186565b806000526002808752604060002088600182015416918583146101f8575b5050506101f390611fe0565b610160565b9160036101f3949592610244946040519361021285611e16565b825485528c85015281015460408401520154606082015261023382896120b0565b5261023e81886120b0565b50611fe0565b919038806101e7565b60405161025981611e16565b600081526000838201526000604082015260006060820152828288010152018590610151565b8060005260028552818660016040600020015416146102a7575b6102a290611fe0565b61011d565b926102b46102a291611fe0565b939050610299565b600080fd5b346102bc5760c03660031901126102bc5760043567ffffffffffffffff81116102bc576102f2903690600401611efa565b60243567ffffffffffffffff81116102bc57610312903690600401611efa565b9033600052600060205261032d60ff60406000205416611f51565b60449061033c82351515611f94565b60649042823511156109b057600381511061096157600a84511061090b57608435156108b65760843560a435111561084d57823560a435116107f3573360005260006020528235600460406000200154106107a45761039c600754611fe0565b80600755604051946103ad86611df9565b818652826020870152604086015283356060860152823560808601523360a0860152600160c0860152600060e0860152600061010086015260843561012086015260a43561014086015260006101608601526000526003602052604060002084518155602085015180519067ffffffffffffffff82116106be5781906104366001850154611da3565b601f8111610751575b50602090601f83116001146106df576000926106d4575b50508160011b916000199060031b1c19161760018201555b604085015194855167ffffffffffffffff81116106be576104926002840154611da3565b601f8111610677575b506020601f82116001146105df57918161016092600a947fa57590356b27448860a006f0265445002790351fe29648717df7ec7481c9e4df98999a6000926105d4575b50508160011b916000199060031b1c19161760028501555b60608101516003850155608081015160048501556005840160018060a01b03908160a08401511681549060ff60a01b60c0860151151560a01b16916affffffffffffffffffffff60a81b1617179055600685019060e0830151166001600160601b0360a01b825416179055610100810151600785015561012081015160088501556101408101516009850155015191015533600052600060205260046040600020016105a485358254611ffc565b9055600754926105bf60405192606084526060840190611cc3565b943560208301523560408201528033940390a3005b015190508a806104de565b6002840160005260206000209760005b601f198416811061065f5750827fa57590356b27448860a006f0265445002790351fe29648717df7ec7481c9e4df979899600a959360019361016096601f19811610610646575b505050811b0160028501556104f6565b015160001960f88460031b161c191690558a8080610636565b828201518a55600190990198602092830192016105ef565b600284016000526020600020601f830160051c8101602084106106b7575b601f830160051c820181106106ab57505061049b565b60008155600101610695565b5080610695565b634e487b7160e01b600052604160045260246000fd5b015190508780610456565b9250600184016000526020600020906000935b601f1984168510610736576001945083601f1981161061071d575b505050811b01600182015561046e565b015160001960f88460031b161c1916905587808061070d565b818101518355602094850194600190930192909101906106f2565b909150600184016000526020600020601f840160051c81016020851061079d575b90849392915b601f830160051c8201811061078e57505061043f565b60008155859450600101610778565b5080610772565b60405162461bcd60e51b8152602060048201526024808201527f496e73756666696369656e742062616c616e636520746f2069737375652074658185015263373232b960e11b81840152608490fd5b60405162461bcd60e51b815260206004820152602e60248201527f4d6178696d756d2062696420616d6f756e742063616e6e6f7420657863656564818501526d081d195b99195c88185b5bdd5b9d60921b81840152608490fd5b60405162461bcd60e51b815260206004820152603a60248201527f4d6178696d756d2062696420616d6f756e74206d757374206265206772656174818501527f6572207468616e206d696e696d756d2062696420616d6f756e7400000000000081840152608490fd5b60405162461bcd60e51b815260206004820152602960248201527f4d696e696d756d2062696420616d6f756e74206d757374206265206772656174818501526806572207468616e20360bc1b81840152608490fd5b60405162461bcd60e51b815260206004820152602a60248201527f4465736372697074696f6e206d757374206265206174206c656173742031302081850152696368617261637465727360b01b81840152608490fd5b60405162461bcd60e51b815260206004820152602360248201527f5469746c65206d757374206265206174206c6561737420332063686172616374818501526265727360e81b81840152608490fd5b50907f446561646c696e65206d75737420626520696e207468652066757475726500006040519162461bcd60e51b835260206004840152601e6024840152820152fd5b346102bc5760203660031901126102bc5760043560005260026020526080604060002080549060018060a01b03600182015416906003600282015491015491604051938452602084015260408301526060820152f35b346102bc576020806003193601126102bc57600435903360005260008152610a7860ff60406000205416611f51565b610a83821515611f94565b610a8e600654611fe0565b80600655600360405191610aa183611e16565b8083528383013381526040840190868252606085019242845260005260028652604060002094518555600185019060018060a01b039051166001600160601b0360a01b8254161790555160028401555191015533600052600081526003604060002001610b0f838254611fef565b90557fd26743b74d62dd5ad8e62c8de6634906adc90975c3bf8085f74d522960d2eb5d600654916040519384523393a3005b346102bc57610b4f36611cad565b8160005260206003815260ff90600591610b7481846040600020015460a01c16612009565b8460005260038252610b8f600460406000200154421061204c565b8460005260048252604060002084600052825260018060a01b03916001838160406000200154163303610db957866000526004825260406000208660005282528260046040600020015416610d7c578660005260048252604060002086600052825260046040600020018160ff198254161790558660005260038252600a60406000200180548015610d6657600019019055866000526003825283600660406000200154163314610c65575b3386887fb41c9b05054be45850ccc1da7d90c7b819cff855cfe0d14f16427398b286c9b6600080a4005b600092600095826000905b610cad575b50505050906003600692876000525260406000209060078201550191166001600160601b0360a01b8254161790558280808080610c3b565b89600052818552604060002054811015610d615760048552604060002081600052855282600460406000200154161580610d35575b610cfb575b90610cf3849392611fe0565b909192610c70565b60008a8152600480875260408083208484528852808320600201548d84529188528083208484528852909120850154881698509550610ce7565b50851580610ce25750896000526004855260406000208160005285528560026040600020015410610ce2565b610c75565b634e487b7160e01b600052601160045260246000fd5b60405162461bcd60e51b81526004810183905260156024820152742134b21030b63932b0b23c903bb4ba34323930bbb760591b6044820152606490fd5b60405162461bcd60e51b815260048101839052601c60248201527f4f6e6c79206269646465722063616e20776974686472617720626964000000006044820152606490fd5b346102bc576020806003193601126102bc5760043580600052600391828152610e3460ff60056040600020015460a01c16612009565b816000528281526004604060002001544210610f7957600082815283825260409020600601546001600160a01b0390811615610f3e578260005283825280600560406000200154163303610ef9579060077fb6da2d97c7be1b795c416cc5e17d479a1a6fb59b6e95214ee25aaaf42796c80292846000528583526040600020956005870160ff60a01b19815416905586015460068701908282541660005260008552610ee96004604060002001918254611fef565b90555416940154604051908152a3005b60405162461bcd60e51b815260048101839052601c60248201527f4f6e6c79206973737565722063616e2061776172642074656e646572000000006044820152606490fd5b60405162461bcd60e51b8152600481018390526013602482015272139bc81d985b1a5908189a591cc8199bdd5b99606a1b6044820152606490fd5b6064906040519062461bcd60e51b82526004820152601e60248201527f54656e64657220646561646c696e6520686173206e6f742070617373656400006044820152fd5b346102bc57610fcb36611cad565b90600052600460205260406000209060005260205260a06040600020805490600180841b0360018201541690600281015460ff60046003840154930154169260405194855260208501526040840152606083015215156080820152f35b346102bc576020806003193601126102bc57611042611c97565b903360005260019081815260406000209260018060a01b03169283600052815260ff6040600020541661116c57826000526000815261108860ff60406000205416611f51565b8260005260008152816040600020013360005281526040600020546111285782600052600081528160406000200133600052815281604060002055826000526000815260026040600020016110dd8154611fe0565b905533600052818152604060002090836000525260406000209060ff19825416179055337fce0c7a2a940807f7dc2ce7a615c2532e915e6c0ac9a08bc4ed9d515a710a53e2600080a3005b6064906040519062461bcd60e51b82526004820152601d60248201527f416c726561647920766f74656420666f72207468697320656e746974790000006044820152fd5b6084906040519062461bcd60e51b82526004820152602660248201527f596f75206861766520616c726561647920766f74656420666f72207468697320604482015265656e7469747960d01b6064820152fd5b346102bc576111cd36611cad565b336000526020600081526111e860ff60406000205416611f51565b8260005260039081815261120960ff60056040600020015460a01c16612009565b83600052818152611223600460406000200154421061204c565b600084815282825260409020600501546001600160a01b0394908516331461141d578060005282825260086040600020015484106113d857806000528282526009604060002001548411611393578060005260058252604060002080549061128a82611fe0565b90556040519561129987611ddd565b818752600484880197338952604081018881526060820190428252608083019460008652876000528489526040600020876000528952604060002093518455600184019b51169a6001600160601b0360a01b9b8c8254161790555160028301555187820155019051151560ff8019835416911617905581600052838352600a6040600020016113288154611fe0565b905560405190858252827f6f7e354ea3ab5c288aea37fce29c603f9a98a3b040f6d8f32f10e192ec47ff6a853394a4600052526040600020600781019182548015908115611389575b5061137857005b909155600601805490911633179055005b9050811085611371565b60405162461bcd60e51b815260048101839052601860248201527f42696420616d6f756e742061626f7665206d6178696d756d00000000000000006044820152606490fd5b60405162461bcd60e51b815260048101839052601860248201527f42696420616d6f756e742062656c6f77206d696e696d756d00000000000000006044820152606490fd5b60405162461bcd60e51b815260048101839052601760248201527f4973737565722063616e6e6f7420706c616365206269640000000000000000006044820152606490fd5b346102bc576020806003193601126102bc5760043561147f6120da565b508015158061158a575b156115515760005260038152604060002090600a604051926114aa84611df9565b805484526114ba60018201611e54565b838501526114ca60028201611e54565b60408501526003810154606085015260048101546080850152600581015460ff60018060a01b039182811660a088015260a01c16151560c086015260068201541660e0850152600781015461010085015260088101546101208501526009810154610140850152015461016083015261154d604051928284938452830190611d03565b0390f35b60405162461bcd60e51b8152600481018390526011602482015270125b9d985b1a59081d195b99195c881251607a1b6044820152606490fd5b50600754811115611489565b346102bc5760003660031901126102bc576020600654604051908152f35b346102bc5760403660031901126102bc576115cd611c97565b6001600160a01b0360243581811692908390036102bc57166000526001602052604060002090600052602052602060ff604060002054166040519015158152f35b346102bc5760203660031901126102bc5760043560005260036020526040600020805461163d60018301611e54565b9161164a60028201611e54565b6003820154916004810154600582015460018060a01b039060ff82600686015416916007860154936008870154956116b2600a60098a0154990154996116a46040519e8f9e8f908152610180908160208201520190611cc3565b8d810360408f015290611cc3565b9960608c015260808b0152811660a08a015260a01c16151560c088015260e08701526101008601526101208501526101408401526101608301520390f35b346102bc576020806003193601126102bc5760043590816000526003815261172560ff60056040600020015460a01c16612009565b60008281526003825260409020600501546001600160a01b039190821633036117c957600090838252600381526117646004604084200154421061204c565b8382526003815260408220926003600585019485549560ff60a01b19871690550154931682525261179e6004604060002001918254611fef565b905533907f116bcf29f123d8a1761e1b9bebbc345a1f08879dafde27b887a89e6e0b7af019600080a3005b6064906040519062461bcd60e51b82526004820152601d60248201527f4f6e6c79206973737565722063616e2063616e63656c2074656e6465720000006044820152fd5b346102bc5760003660031901126102bc576020600754604051908152f35b346102bc5761183936611cad565b6007805480841015611a49578215611a04578084916118588584611fef565b116119f1575b505061186982612098565b926118776040519485611e32565b828452601f1961188684612098565b0160005b8181106119da57505060005b8381106118fc576040805160208082528751818301819052600093600582901b8401810192808b01929185015b8287106118d05785850386f35b9091929382806118ec600193603f198a82030186528851611d03565b96019201960195929190926118c3565b6119068183611fef565b906001808301809311610d66576119d592600052600a60036020908082526040600020916119456040519561193a87611df9565b845487528401611e54565b9085015261195560028301611e54565b6040850152810154606084015260048101546080840152600581015460ff60018060a01b039160a0838216818801521c16151560c085015260068201541660e0840152868101546101008401526008810154610120840152600981015461014084015201546101608201526119ca82886120b0565b5261023e81876120b0565b611896565b6020906119e56120da565b8282890101520161188a565b6119fc929350611ffc565b90828461185e565b60405162461bcd60e51b815260206004820152601f60248201527f4c696d6974206d7573742062652067726561746572207468616e207a65726f006044820152606490fd5b60405162461bcd60e51b815260206004820152601b60248201527f4f666673657420657863656564732074656e64657220636f756e7400000000006044820152606490fd5b346102bc5760203660031901126102bc576001600160a01b03611aaf611c97565b1660005260006020526080604060002060ff8154169060028101549060046003820154910154916040519315158452602084015260408301526060820152f35b346102bc5760203660031901126102bc5760043560005260056020526020604060002054604051908152f35b346102bc576020806003193601126102bc57600435908160005260058152604060002054611b4881612098565b92611b566040519485611e32565b818452601f19611b6583612098565b018360005b828110611c5e5750505060005b828110611bee57604080518581528651818701819052878701928201908760005b828110611ba55784840385f35b855180518552808301516001600160a01b03168584015260408082015190860152606080820151908601526080908101511515908501529481019460a090930192600101611b98565b611c599082600052600485526040600020816000528552604060002060ff600460405192611c1b84611ddd565b8054845260018101546001600160a01b0316898501526002810154604085015260038101546060850152015416151560808201526119ca82886120b0565b611b77565b604051611c6a81611ddd565b60008152600083820152600060408201526000606082015260006080820152828289010152018490611b6a565b600435906001600160a01b03821682036102bc57565b60409060031901126102bc576004359060243590565b919082519283825260005b848110611cef575050826000602080949584010152601f8019910116010190565b602081830181015184830182015201611cce565b9081518152611d36611d246020840151610180806020860152840190611cc3565b60408401518382036040850152611cc3565b91606081015160608301526080810151608083015260018060a01b038060a08301511660a084015260c0820151151560c084015260e08201511660e08301526101008082015190830152610120808201519083015261014080820151908301526101608091015191015290565b90600182811c92168015611dd3575b6020831014611dbd57565b634e487b7160e01b600052602260045260246000fd5b91607f1691611db2565b60a0810190811067ffffffffffffffff8211176106be57604052565b610180810190811067ffffffffffffffff8211176106be57604052565b6080810190811067ffffffffffffffff8211176106be57604052565b90601f8019910116810190811067ffffffffffffffff8211176106be57604052565b9060405191826000825492611e6884611da3565b908184526001948581169081600014611ed75750600114611e94575b5050611e9292500383611e32565b565b9093915060005260209081600020936000915b818310611ebf575050611e9293508201013880611e84565b85548884018501529485019487945091830191611ea7565b915050611e9294506020925060ff191682840152151560051b8201013880611e84565b81601f820112156102bc5780359067ffffffffffffffff82116106be5760405192611f2f601f8401601f191660200185611e32565b828452602083830101116102bc57816000926020809301838601378301015290565b15611f5857565b60405162461bcd60e51b8152602060048201526014602482015273456e74697479206973206e6f742061637469766560601b6044820152606490fd5b15611f9b57565b60405162461bcd60e51b815260206004820152601d60248201527f416d6f756e74206d7573742062652067726561746572207468616e20300000006044820152606490fd5b6000198114610d665760010190565b91908201809211610d6657565b91908203918211610d6657565b1561201057565b60405162461bcd60e51b815260206004820152601460248201527354656e646572206973206e6f742061637469766560601b6044820152606490fd5b1561205357565b60405162461bcd60e51b815260206004820152601a60248201527f54656e64657220646561646c696e6520686173207061737365640000000000006044820152606490fd5b67ffffffffffffffff81116106be5760051b60200190565b80518210156120c45760209160051b010190565b634e487b7160e01b600052603260045260246000fd5b604051906120e782611df9565b8161016060009182815260606020820152606060408201528260608201528260808201528260a08201528260c08201528260e0820152826101008201528261012082015282610140820152015256fea26469706673582212208a4bc292d04ed3725b8669d835f9dd9707825ede23ba277337ced992ecebc95c64736f6c63430008130033",
  "linkReferences": {},
  "deployedLinkReferences": {}
}