{
  "_format": "hh-sol-artifact-1",
  "contractName": "GovernmentFunds",
  "sourceName": "contracts/GovernmentFunds.sol",
  "abi": [
    {
      "anonymous": false,
      "inputs": [
        {
          "indexed": true,
          "internalType": "uint256",
          "name": "tenderId",
          "type": "uint256"
        },
        {
          "indexed": true,
          "internalType": "uint256",
          "name": "bidId",
          "type": "uint256"
        },
        {
          "indexed": true,
          "internalType": "address",
          "name": "bidder",
          "type": "address"
        },
        {
          "indexed": false,
          "internalType": "uint256",
          "name": "amount",
          "type": "uint256"
        }
      ],
      "name": "BidPlaced",
      "type": "event"
    },
    {
      "anonymous": false,
      "inputs": [
        {
          "indexed": true,
          "internalType": "uint256",
          "name": "tenderId",
          "type": "uint256"
        },
        {
          "indexed": true,
          "internalType": "uint256",
          "name": "bidId",
          "type": "uint256"
        },
        {
          "indexed": true,
          "internalType": "address",
          "name": "bidder",
          "type": "address"
        }
      ],
      "name": "BidWithdrawn",
      "type": "event"
    },
    {
      "anonymous": false,
      "inputs": [
        {
          "indexed": true,
          "internalType": "uint256",
          "name": "id",
          "type": "uint256"
        },
        {
          "indexed": true,
          "internalType": "address",
          "name": "entity",
          "type": "address"
        },
        {
          "indexed": false,
          "internalType": "uint256",
          "name": "amount",
          "type": "uint256"
        }
      ],
      "name": "SpendingRecorded",
      "type": "event"
    },
    {
      "anonymous": false,
      "inputs": [
        {
          "indexed": true,
          "internalType": "uint256",
          "name": "tenderId",
          "type": "uint256"
        },
        {
          "indexed": true,
          "internalType": "address",
          "name": "winner",
          "type": "address"
        },
        {
          "indexed": false,
          "internalType": "uint256",
          "name": "amount",
          "type": "uint256"
        }
      ],
      "name": "TenderAwarded",
      "type": "event"
    },
    {
      "anonymous": false,
      "inputs": [
        {
          "indexed": true,
          "internalType": "uint256",
          "name": "tenderId",
          "type": "uint256"
        },
        {
          "indexed": true,
          "internalType": "address",
          "name": "issuer",
          "type": "address"
        }
      ],
      "name": "TenderCancelled",
      "type": "event"
    },
    {
      "anonymous": false,
      "inputs": [
        {
          "indexed": true,
          "internalType": "uint256",
          "name": "id",
          "type": "uint256"
        },
        {
          "indexed": true,
          "internalType": "address",
          "name": "issuer",
          "type": "address"
        },
        {
          "indexed": false,
          "internalType": "string",
          "name": "title",
          "type": "string"
        },
        {
          "indexed": false,
          "internalType": "uint256",
          "name": "amount",
          "type": "uint256"
        },
        {
          "indexed": false,
          "internalType": "uint256",
          "name": "deadline",
          "type": "uint256"
        }
      ],
      "name": "TenderIssued",
      "type": "event"
    },
    {
      "anonymous": false,
      "inputs": [
        {
          "indexed": true,
          "internalType": "address",
          "name": "voter",
          "type": "address"
        },
        {
          "indexed": true,
          "internalType": "address",
          "name": "entity",
          "type": "address"
        }
      ],
      "name": "Voted",
      "type": "event"
    },
    {
      "inputs": [
        {
          "internalType": "uint256",
          "name": "tenderId",
          "type": "uint256"
        }
      ],
      "name": "awardTender",
      "outputs": [],
      "stateMutability": "nonpayable",
      "type": "function"
    },
    {
      "inputs": [
        {
          "internalType": "uint256",
          "name": "",
          "type": "uint256"
        },
        {
          "internalType": "uint256",
          "name": "",
          "type": "uint256"
        }
      ],
      "name": "bids",
      "outputs": [
        {
          "internalType": "uint256",
          "name": "id",
          "type": "uint256"
        },
        {
          "internalType": "address",
          "name": "bidder",
          "type": "address"
        },
        {
          "internalType": "uint256",
          "name": "amount",
          "type": "uint256"
        },
        {
          "internalType": "uint256",
          "name": "timestamp",
          "type": "uint256"
        },
        {
          "internalType": "bool",
          "name": "isWithdrawn",
          "type": "bool"
        }
      ],
      "stateMutability": "view",
      "type": "function"
    },
    {
      "inputs": [
        {
          "internalType": "uint256",
          "name": "tenderId",
          "type": "uint256"
        }
      ],
      "name": "cancelTender",
      "outputs": [],
      "stateMutability": "nonpayable",
      "type": "function"
    },
    {
      "inputs": [
        {
          "internalType": "address",
          "name": "",
          "type": "address"
        }
      ],
      "name": "entities",
      "outputs": [
        {
          "internalType": "bool",
          "name": "isActive",
          "type": "bool"
        },
        {
          "internalType": "uint256",
          "name": "totalVotes",
          "type": "uint256"
        },
        {
          "internalType": "uint256",
          "name": "toBeSpent",
          "type": "uint256"
        },
        {
          "internalType": "uint256",
          "name": "balance",
          "type": "uint256"
        }
      ],
      "stateMutability": "view",
      "type": "function"
    },
    {
      "inputs": [
        {
          "internalType": "uint256",
          "name": "tenderId",
          "type": "uint256"
        }
      ],
      "name": "getBids",
      "outputs": [
        {
          "components": [
            {
              "internalType": "uint256",
              "name": "id",
              "type": "uint256"
            },
            {
              "internalType": "address",
              "name": "bidder",
              "type": "address"
            },
            {
              "internalType": "uint256",
              "name": "amount",
              "type": "uint256"
            },
            {
              "internalType": "uint256",
              "name": "timestamp",
              "type": "uint256"
            },
            {
              "internalType": "bool",
              "name": "isWithdrawn",
              "type": "bool"
            }
          ],
          "internalType": "struct GovernmentFunds.Bid[]",
          "name": "",
          "type": "tuple[]"
        }
      ],
      "stateMutability": "view",
      "type": "function"
    },
    {
      "inputs": [
        {
          "internalType": "address",
          "name": "entityAddress",
          "type": "address"
        }
      ],
      "name": "getSpendingRecords",
      "outputs": [
        {
          "components": [
            {
              "internalType": "uint256",
              "name": "id",
              "type": "uint256"
            },
            {
              "internalType": "address",
              "name": "entity",
              "type": "address"
            },
            {
              "internalType": "uint256",
              "name": "amount",
              "type": "uint256"
            },
            {
              "internalType": "uint256",
              "name": "timestamp",
              "type": "uint256"
            }
          ],
          "internalType": "struct GovernmentFunds.SpendingRecord[]",
          "name": "",
          "type": "tuple[]"
        }
      ],
      "stateMutability": "view",
      "type": "function"
    },
    {
      "inputs": [
        {
          "internalType": "uint256",
          "name": "tenderId",
          "type": "uint256"
        }
      ],
      "name": "getTenderDetails",
      "outputs": [
        {
          "components": [
            {
              "internalType": "uint256",
              "name": "id",
              "type": "uint256"
            },
            {
              "internalType": "string",
              "name": "title",
              "type": "string"
            },
            {
              "internalType": "string",
              "name": "description",
              "type": "string"
            },
            {
              "internalType": "uint256",
              "name": "amount",
              "type": "uint256"
            },
            {
              "internalType": "uint256",
              "name": "deadline",
              "type": "uint256"
            },
            {
              "internalType": "address",
              "name": "issuer",
              "type": "address"
            },
            {
              "internalType": "bool",
              "name": "isActive",
              "type": "bool"
            },
            {
              "internalType": "address",
              "name": "winner",
              "type": "address"
            },
            {
              "internalType": "uint256",
              "name": "winningBid",
              "type": "uint256"
            },
            {
              "internalType": "uint256",
              "name": "minBidAmount",
              "type": "uint256"
            },
            {
              "internalType": "uint256",
              "name": "maxBidAmount",
              "type": "uint256"
            },
            {
              "internalType": "uint256",
              "name": "bidCount",
              "type": "uint256"
            }
          ],
          "internalType": "struct GovernmentFunds.Tender",
          "name": "",
          "type": "tuple"
        }
      ],
      "stateMutability": "view",
      "type": "function"
    },
    {
      "inputs": [
        {
          "internalType": "uint256",
          "name": "offset",
          "type": "uint256"
        },
        {
          "internalType": "uint256",
          "name": "limit",
          "type": "uint256"
        }
      ],
      "name": "getTenders",
      "outputs": [
        {
          "components": [
            {
              "internalType": "uint256",
              "name": "id",
              "type": "uint256"
            },
            {
              "internalType": "string",
              "name": "title",
              "type": "string"
            },
            {
              "internalType": "string",
              "name": "description",
              "type": "string"
            },
            {
              "internalType": "uint256",
              "name": "amount",
              "type": "uint256"
            },
            {
              "internalType": "uint256",
              "name": "deadline",
              "type": "uint256"
            },
            {
              "internalType": "address",
              "name": "issuer",
              "type": "address"
            },
            {
              "internalType": "bool",
              "name": "isActive",
              "type": "bool"
            },
            {
              "internalType": "address",
              "name": "winner",
              "type": "address"
            },
            {
              "internalType": "uint256",
              "name": "winningBid",
              "type": "uint256"
            },
            {
              "internalType": "uint256",
              "name": "minBidAmount",
              "type": "uint256"
            },
            {
              "internalType": "uint256",
              "name": "maxBidAmount",
              "type": "uint256"
            },
            {
              "internalType": "uint256",
              "name": "bidCount",
              "type": "uint256"
            }
          ],
          "internalType": "struct GovernmentFunds.Tender[]",
          "name": "",
          "type": "tuple[]"
        }
      ],
      "stateMutability": "view",
      "type": "function"
    },
    {
      "inputs": [
        {
          "internalType": "address",
          "name": "",
          "type": "address"
        },
        {
          "internalType": "address",
          "name": "",
          "type": "address"
        }
      ],
      "name": "hasVoted",
      "outputs": [
        {
          "internalType": "bool",
          "name": "",
          "type": "bool"
        }
      ],
      "stateMutability": "view",
      "type": "function"
    },
    {
      "inputs": [
        {
          "internalType": "string",
          "name": "title",
          "type": "string"
        },
        {
          "internalType": "string",
          "name": "description",
          "type": "string"
        },
        {
          "internalType": "uint256",
          "name": "amount",
          "type": "uint256"
        },
        {
          "internalType": "uint256",
          "name": "deadline",
          "type": "uint256"
        },
        {
          "internalType": "uint256",
          "name": "minBidAmount",
          "type": "uint256"
        },
        {
          "internalType": "uint256",
          "name": "maxBidAmount",
          "type": "uint256"
        }
      ],
      "name": "issueTender",
      "outputs": [],
      "stateMutability": "nonpayable",
      "type": "function"
    },
    {
      "inputs": [
        {
          "internalType": "uint256",
          "name": "tenderId",
          "type": "uint256"
        },
        {
          "internalType": "uint256",
          "name": "amount",
          "type": "uint256"
        }
      ],
      "name": "placeBid",
      "outputs": [],
      "stateMutability": "nonpayable",
      "type": "function"
    },
    {
      "inputs": [
        {
          "internalType": "uint256",
          "name": "amount",
          "type": "uint256"
        }
      ],
      "name": "recordSpending",
      "outputs": [],
      "stateMutability": "nonpayable",
      "type": "function"
    },
    {
      "inputs": [],
      "name": "spendingCount",
      "outputs": [
        {
          "internalType": "uint256",
          "name": "",
          "type": "uint256"
        }
      ],
      "stateMutability": "view",
      "type": "function"
    },
    {
      "inputs": [
        {
          "internalType": "uint256",
          "name": "",
          "type": "uint256"
        }
      ],
      "name": "spendingRecords",
      "outputs": [
        {
          "internalType": "uint256",
          "name": "id",
          "type": "uint256"
        },
        {
          "internalType": "address",
          "name": "entity",
          "type": "address"
        },
        {
          "internalType": "uint256",
          "name": "amount",
          "type": "uint256"
        },
        {
          "internalType": "uint256",
          "name": "timestamp",
          "type": "uint256"
        }
      ],
      "stateMutability": "view",
      "type": "function"
    },
    {
      "inputs": [
        {
          "internalType": "uint256",
          "name": "",
          "type": "uint256"
        }
      ],
      "name": "tenderBidCount",
      "outputs": [
        {
          "internalType": "uint256",
          "name": "",
          "type": "uint256"
        }
      ],
      "stateMutability": "view",
      "type": "function"
    },
    {
      "inputs": [],
      "name": "tenderCount",
      "outputs": [
        {
          "internalType": "uint256",
          "name": "",
          "type": "uint256"
        }
      ],
      "stateMutability": "view",
      "type": "function"
    },
    {
      "inputs": [
        {
          "internalType": "uint256",
          "name": "",
          "type": "uint256"
        }
      ],
      "name": "tenders",
      "outputs": [
        {
          "internalType": "uint256",
          "name": "id",
          "type": "uint256"
        },
        {
          "internalType": "string",
          "name": "title",
          "type": "string"
        },
        {
          "internalType": "string",
          "name": "description",
          "type": "string"
        },
        {
          "internalType": "uint256",
          "name": "amount",
          "type": "uint256"
        },
        {
          "internalType": "uint256",
          "name": "deadline",
          "type": "uint256"
        },
        {
          "internalType": "address",
          "name": "issuer",
          "type": "address"
        },
        {
          "internalType": "bool",
          "name": "isActive",
          "type": "bool"
        },
        {
          "internalType": "address",
          "name": "winner",
          "type": "address"
        },
        {
          "internalType": "uint256",
          "name": "winningBid",
          "type": "uint256"
        },
        {
          "internalType": "uint256",
          "name": "minBidAmount",
          "type": "uint256"
        },
        {
          "internalType": "uint256",
          "name": "maxBidAmount",
          "type": "uint256"
        },
        {
          "internalType": "uint256",
          "name": "bidCount",
          "type": "uint256"
        }
      ],
      "stateMutability": "view",
      "type": "function"
    },
    {
      "inputs": [
        {
          "internalType": "address",
          "name": "entityAddress",
          "type": "address"
        }
      ],
      "name": "vote",
      "outputs": [],
      "stateMutability": "nonpayable",
      "type": "function"
    },
    {
      "inputs": [
        {
          "internalType": "uint256",
          "name": "tenderId",
          "type": "uint256"
        },
        {
          "internalType": "uint256",
          "name": "bidId",
          "type": "uint256"
        }
      ],
      "name": "withdrawBid",
      "outputs": [],
      "stateMutability": "nonpayable",
      "type": "function"
    }
  ],
  "bytecode": "0x608080604052346100165761203f908161001c8239f35b600080fdfe6080604052600436101561001257600080fd5b60e0600035811c908163131d9a27146119e357816315cf4b6e146119b75781631d8ee48a146119565781631dfd9542146116fd5781631f058776146116df5781633a74e070146115c2578163465e1def146114dc5781634d4d2b1c146114825781634f7311ad1461146457816353ee895d1461133257816357c90de51461108f5781636dd7d8ea14610ef85781637b3c4baa14610e8d5781638fdee0c514610cce578163a573566214610a11578163a9bba44314610919578163bac5d8f9146108c3578163c4bce418146102c4575063fb116b58146100f057600080fd5b346102bf576020806003193601126102bf5761010a611b6a565b6006546001600160a01b03929160009190841660015b82811115610282575061013283611f6b565b926101406040519485611d05565b80845261014f601f1991611f6b565b018460005b82811061025057505050600060015b838111156101cc5750505050604051918083018184528251809152816040850193019160005b8281106101965785850386f35b83518051865280830151881686840152604080820151908701526060908101519086015260809094019392810192600101610189565b806000526002808752604060002088600182015416918583146101fb575b5050506101f690611eb3565b610163565b9160036101f6949592610247946040519361021585611ce9565b825485528c8501528101546040840152015460608201526102368289611f83565b526102418188611f83565b50611eb3565b919038806101ea565b60405161025c81611ce9565b600081526000838201526000604082015260006060820152828288010152018590610154565b8060005260028552818660016040600020015416146102aa575b6102a590611eb3565b610120565b926102b76102a591611eb3565b93905061029c565b600080fd5b346102bf5760c03660031901126102bf5760043567ffffffffffffffff81116102bf576102f5903690600401611dcd565b9060243567ffffffffffffffff81116102bf57610316903690600401611dcd565b33600052600060205261033060ff60406000205416611e24565b61033d6044351515611e67565b42606435111561087e57608435156108275760843560a43511156107bc573360005260006020526044356004604060002001541061076b57610380600754611eb3565b806007556040519161039183611ccc565b8183528460208401526040830152604435606083015260643560808301523360a0830152600160c0830152600083830152600061010083015260843561012083015260a4356101408301526000610160830152600052600360205260406000209181518355602082015180519067ffffffffffffffff821161068557819061041c6001870154611c76565b601f8111610718575b50602090601f83116001146106a65760009261069b575b50508160011b916000199060031b1c19161760018401555b604082015180519067ffffffffffffffff8211610685576104786002860154611c76565b601f811161063e575b50602090601f83116001146105c75791806101609492600a96946000926105bc575b50508160011b916000199060031b1c19161760028601555b60608201516003860155608082015160048601556005850160018060a01b03908160a08501511681549060ff60a01b60c0870151151560a01b16916affffffffffffffffffffff60a81b16171790556006860191830151166001600160601b0360a01b825416179055610100810151600785015561012081015160088501556101408101516009850155015191015533600052600060205260046040600020016105686044358254611ecf565b90556007547fa57590356b27448860a006f0265445002790351fe29648717df7ec7481c9e4df6105a360405193606085526060850190611b96565b92604435602082015260643560408201528033940390a3005b0151905088806104a3565b906002860160005260206000209160005b601f19851681106106265750926101609492600192600a979583601f1981161061060d575b505050811b0160028601556104bb565b015160001960f88460031b161c191690558880806105fd565b919260206001819286850151815501940192016105d8565b600286016000526020600020601f840160051c81016020851061067e575b601f830160051c82018110610672575050610481565b6000815560010161065c565b508061065c565b634e487b7160e01b600052604160045260246000fd5b01519050868061043c565b9250600186016000526020600020906000935b601f19841685106106fd576001945083601f198116106106e4575b505050811b016001840155610454565b015160001960f88460031b161c191690558680806106d4565b818101518355602094850194600190930192909101906106b9565b909150600186016000526020600020601f840160051c810160208510610764575b90849392915b601f830160051c82018110610755575050610425565b6000815585945060010161073f565b5080610739565b60405162461bcd60e51b8152602060048201526024808201527f496e73756666696369656e742062616c616e636520746f206973737565207465604482015263373232b960e11b6064820152608490fd5b60405162461bcd60e51b815260206004820152603a60248201527f4d6178696d756d2062696420616d6f756e74206d75737420626520677265617460448201527f6572207468616e206d696e696d756d2062696420616d6f756e740000000000006064820152608490fd5b60405162461bcd60e51b815260206004820152602960248201527f4d696e696d756d2062696420616d6f756e74206d75737420626520677265617460448201526806572207468616e20360bc1b6064820152608490fd5b60405162461bcd60e51b815260206004820152601e60248201527f446561646c696e65206d75737420626520696e207468652066757475726500006044820152606490fd5b346102bf5760203660031901126102bf5760043560005260026020526080604060002080549060018060a01b03600182015416906003600282015491015491604051938452602084015260408301526060820152f35b346102bf576020806003193601126102bf5760043590336000526000815261094860ff60406000205416611e24565b610953821515611e67565b61095e600654611eb3565b8060065560036040519161097183611ce9565b8083528383013381526040840190868252606085019242845260005260028652604060002094518555600185019060018060a01b039051166001600160601b0360a01b82541617905551600284015551910155336000526000815260036040600020016109df838254611ec2565b90557fd26743b74d62dd5ad8e62c8de6634906adc90975c3bf8085f74d522960d2eb5d600654916040519384523393a3005b346102bf57610a1f36611b80565b8160005260206003815260ff90600591610a4481846040600020015460a01c16611edc565b8460005260038252610a5f6004604060002001544210611f1f565b8460005260048252604060002084600052825260018060a01b03916001838160406000200154163303610c8957866000526004825260406000208660005282528260046040600020015416610c4c578660005260048252604060002086600052825260046040600020018160ff198254161790558660005260038252600a60406000200180548015610c3657600019019055866000526003825283600660406000200154163314610b35575b3386887fb41c9b05054be45850ccc1da7d90c7b819cff855cfe0d14f16427398b286c9b6600080a4005b600092600095826000905b610b7d575b50505050906003600692876000525260406000209060078201550191166001600160601b0360a01b8254161790558280808080610b0b565b89600052818552604060002054811015610c315760048552604060002081600052855282600460406000200154161580610c05575b610bcb575b90610bc3849392611eb3565b909192610b40565b60008a8152600480875260408083208484528852808320600201548d84529188528083208484528852909120850154881698509550610bb7565b50851580610bb25750896000526004855260406000208160005285528560026040600020015410610bb2565b610b45565b634e487b7160e01b600052601160045260246000fd5b60405162461bcd60e51b81526004810183905260156024820152742134b21030b63932b0b23c903bb4ba34323930bbb760591b6044820152606490fd5b60405162461bcd60e51b815260048101839052601c60248201527f4f6e6c79206269646465722063616e20776974686472617720626964000000006044820152606490fd5b346102bf576020806003193601126102bf5760043580600052600391828152610d0460ff60056040600020015460a01c16611edc565b816000528281526004604060002001544210610e4957600082815283825260409020600601546001600160a01b0390811615610e0e578260005283825280600560406000200154163303610dc9579060077fb6da2d97c7be1b795c416cc5e17d479a1a6fb59b6e95214ee25aaaf42796c80292846000528583526040600020956005870160ff60a01b19815416905586015460068701908282541660005260008552610db96004604060002001918254611ec2565b90555416940154604051908152a3005b60405162461bcd60e51b815260048101839052601c60248201527f4f6e6c79206973737565722063616e2061776172642074656e646572000000006044820152606490fd5b60405162461bcd60e51b8152600481018390526013602482015272139bc81d985b1a5908189a591cc8199bdd5b99606a1b6044820152606490fd5b6064906040519062461bcd60e51b82526004820152601e60248201527f54656e64657220646561646c696e6520686173206e6f742070617373656400006044820152fd5b346102bf57610e9b36611b80565b90600052600460205260406000209060005260205260a06040600020805490600180841b0360018201541690600281015460ff60046003840154930154169260405194855260208501526040840152606083015215156080820152f35b346102bf576020806003193601126102bf57610f12611b6a565b903360005260019081815260406000209260018060a01b03169283600052815260ff6040600020541661103c578260005260008152610f5860ff60406000205416611e24565b826000526000815281604060002001336000528152604060002054610ff8578260005260008152816040600020013360005281528160406000205582600052600081526002604060002001610fad8154611eb3565b905533600052818152604060002090836000525260406000209060ff19825416179055337fce0c7a2a940807f7dc2ce7a615c2532e915e6c0ac9a08bc4ed9d515a710a53e2600080a3005b6064906040519062461bcd60e51b82526004820152601d60248201527f416c726561647920766f74656420666f72207468697320656e746974790000006044820152fd5b6084906040519062461bcd60e51b82526004820152602660248201527f596f75206861766520616c726561647920766f74656420666f72207468697320604482015265656e7469747960d01b6064820152fd5b346102bf5761109d36611b80565b336000526020600081526110b860ff60406000205416611e24565b826000526003908181526110d960ff60056040600020015460a01c16611edc565b836000528181526110f36004604060002001544210611f1f565b600084815282825260409020600501546001600160a01b039490851633146112ed578060005282825260086040600020015484106112a857806000528282526009604060002001548411611263578060005260058252604060002080549061115a82611eb3565b90556040519561116987611cb0565b818752600484880197338952604081018881526060820190428252608083019460008652876000528489526040600020876000528952604060002093518455600184019b51169a6001600160601b0360a01b9b8c8254161790555160028301555187820155019051151560ff8019835416911617905581600052838352600a6040600020016111f88154611eb3565b905560405190858252827f6f7e354ea3ab5c288aea37fce29c603f9a98a3b040f6d8f32f10e192ec47ff6a853394a4600052526040600020600781019182548015908115611259575b5061124857005b909155600601805490911633179055005b9050811085611241565b60405162461bcd60e51b815260048101839052601860248201527f42696420616d6f756e742061626f7665206d6178696d756d00000000000000006044820152606490fd5b60405162461bcd60e51b815260048101839052601860248201527f42696420616d6f756e742062656c6f77206d696e696d756d00000000000000006044820152606490fd5b60405162461bcd60e51b815260048101839052601760248201527f4973737565722063616e6e6f7420706c616365206269640000000000000000006044820152606490fd5b346102bf576020806003193601126102bf5760043561134f611fad565b5080151580611458575b1561141f5760005260038152600a60406000206040519361137985611ccc565b8154855261138960018301611d27565b8486015261139960028301611d27565b60408601526003820154606086015260048201546080860152600582015460ff60018060a01b039182811660a089015260a01c16151560c087015260068301541690850152600781015461010085015260088101546101208501526009810154610140850152015461016083015261141b604051928284938452830190611bd6565b0390f35b60405162461bcd60e51b8152600481018390526011602482015270125b9d985b1a59081d195b99195c881251607a1b6044820152606490fd5b50600754811115611359565b346102bf5760003660031901126102bf576020600654604051908152f35b346102bf5760403660031901126102bf5761149b611b6a565b6001600160a01b0360243581811692908390036102bf57166000526001602052604060002090600052602052602060ff604060002054166040519015158152f35b346102bf5760203660031901126102bf5760043560005260036020526040600020908154906001830161150e90611d27565b9261151b60028201611d27565b906003810154926004820154906005830154600160a01b60019003918260068601541691600786015493600887015495600988015497600a0154986040519c8d9c8d528c6101806020819201528d0161157391611b96565b8c810360408e015261158491611b96565b9960608c015260808b0152811660a08a015260a01c60ff16151560c08901528701526101008601526101208501526101408401526101608301520390f35b346102bf576020806003193601126102bf576004359081600052600381526115f760ff60056040600020015460a01c16611edc565b60008281526003825260409020600501546001600160a01b0391908216330361169b576000908382526003815261163660046040842001544210611f1f565b8382526003815260408220926003600585019485549560ff60a01b1987169055015493168252526116706004604060002001918254611ec2565b905533907f116bcf29f123d8a1761e1b9bebbc345a1f08879dafde27b887a89e6e0b7af019600080a3005b6064906040519062461bcd60e51b82526004820152601d60248201527f4f6e6c79206973737565722063616e2063616e63656c2074656e6465720000006044820152fd5b346102bf5760003660031901126102bf576020600754604051908152f35b346102bf5761170b36611b80565b909160078054808510156119115783156118cc5780859161172c8684611ec2565b116118b9575b505061173d83611f6b565b9361174b6040519586611d05565b838552601f1961175a85611f6b565b0160005b8181106118a257505060005b8481106117d0576040805160208082528851818301819052600093600582901b8401810192808c01929185015b8287106117a45785850386f35b9091929382806117c0600193603f198a82030186528851611bd6565b9601920196019592919092611797565b6117da8183611ec2565b906001808301809311610c365761189d92600052600a60036020908082526040600020916118196040519561180e87611ccc565b845487528401611d27565b9085015261182960028301611d27565b6040850152810154606084015260048101546080840152600581015460ff60018060a01b039160a0838216818801521c16151560c085015260068201541688840152868101546101008401526008810154610120840152600981015461014084015201546101608201526102368289611f83565b61176a565b6020906118ad611fad565b82828a0101520161175e565b6118c4929450611ecf565b918385611732565b60405162461bcd60e51b815260206004820152601f60248201527f4c696d6974206d7573742062652067726561746572207468616e207a65726f006044820152606490fd5b60405162461bcd60e51b815260206004820152601b60248201527f4f666673657420657863656564732074656e64657220636f756e7400000000006044820152606490fd5b346102bf5760203660031901126102bf576001600160a01b03611977611b6a565b1660005260006020526080604060002060ff8154169060028101549060046003820154910154916040519315158452602084015260408301526060820152f35b346102bf5760203660031901126102bf5760043560005260056020526020604060002054604051908152f35b346102bf576020806003193601126102bf57600435908160005260058152604060002054611a1081611f6b565b92611a1e6040519485611d05565b818452601f19611a2d83611f6b565b018360005b828110611b315750505060005b828110611ab657604080518581528651818701819052878701928201908760005b828110611a6d5784840385f35b855180518552808301516001600160a01b03168584015260408082015190860152606080820151908601526080908101511515908501529481019460a090930192600101611a60565b611b2c9082600052600485526040600020816000528552604060002060ff600460405192611ae384611cb0565b8054845260018101546001600160a01b031689850152600281015460408501526003810154606085015201541615156080820152611b218288611f83565b526102418187611f83565b611a3f565b604051611b3d81611cb0565b60008152600083820152600060408201526000606082015260006080820152828289010152018490611a32565b600435906001600160a01b03821682036102bf57565b60409060031901126102bf576004359060243590565b919082519283825260005b848110611bc2575050826000602080949584010152601f8019910116010190565b602081830181015184830182015201611ba1565b9081518152611c09611bf76020840151610180806020860152840190611b96565b60408401518382036040850152611b96565b91606081015160608301526080810151608083015260018060a01b038060a08301511660a084015260c0820151151560c084015260e08201511660e08301526101008082015190830152610120808201519083015261014080820151908301526101608091015191015290565b90600182811c92168015611ca6575b6020831014611c9057565b634e487b7160e01b600052602260045260246000fd5b91607f1691611c85565b60a0810190811067ffffffffffffffff82111761068557604052565b610180810190811067ffffffffffffffff82111761068557604052565b6080810190811067ffffffffffffffff82111761068557604052565b90601f8019910116810190811067ffffffffffffffff82111761068557604052565b9060405191826000825492611d3b84611c76565b908184526001948581169081600014611daa5750600114611d67575b5050611d6592500383611d05565b565b9093915060005260209081600020936000915b818310611d92575050611d6593508201013880611d57565b85548884018501529485019487945091830191611d7a565b915050611d6594506020925060ff191682840152151560051b8201013880611d57565b81601f820112156102bf5780359067ffffffffffffffff82116106855760405192611e02601f8401601f191660200185611d05565b828452602083830101116102bf57816000926020809301838601378301015290565b15611e2b57565b60405162461bcd60e51b8152602060048201526014602482015273456e74697479206973206e6f742061637469766560601b6044820152606490fd5b15611e6e57565b60405162461bcd60e51b815260206004820152601d60248201527f416d6f756e74206d7573742062652067726561746572207468616e20300000006044820152606490fd5b6000198114610c365760010190565b91908201809211610c3657565b91908203918211610c3657565b15611ee357565b60405162461bcd60e51b815260206004820152601460248201527354656e646572206973206e6f742061637469766560601b6044820152606490fd5b15611f2657565b60405162461bcd60e51b815260206004820152601a60248201527f54656e64657220646561646c696e6520686173207061737365640000000000006044820152606490fd5b67ffffffffffffffff81116106855760051b60200190565b8051821015611f975760209160051b010190565b634e487b7160e01b600052603260045260246000fd5b60405190611fba82611ccc565b8161016060009182815260606020820152606060408201528260608201528260808201528260a08201528260c08201528260e0820152826101008201528261012082015282610140820152015256fea2646970667358221220cbc5a2b68dc9e9722c2d6a028ff3b53ffb35ad8d8f5f91f913a02161bd1ddd5464736f6c63430008130033",
  "linkReferences": {},
  "deployedLinkReferences": {}
}