{
  "_format": "hh-sol-artifact-1",
  "contractName": "GovernmentFunds",
  "sourceName": "contracts/GovernmentFunds.sol",
  "abi": [
    {
      "anonymous": false,
      "inputs": [
        {
          "indexed": true,
          "internalType": "uint256",
          "name": "id",
          "type": "uint256"
        },
        {
          "indexed": true,
          "internalType": "uint256",
          "name": "spendingId",
          "type": "uint256"
        },
        {
          "indexed": true,
          "internalType": "address",
          "name": "entity",
          "type": "address"
        },
        {
          "indexed": false,
          "internalType": "uint256",
          "name": "amount",
          "type": "uint256"
        }
      ],
      "name": "MicroTransactionRecorded",
      "type": "event"
    },
    {
      "anonymous": false,
      "inputs": [
        {
          "indexed": true,
          "internalType": "uint256",
          "name": "id",
          "type": "uint256"
        },
        {
          "indexed": true,
          "internalType": "address",
          "name": "entity",
          "type": "address"
        },
        {
          "indexed": false,
          "internalType": "uint256",
          "name": "amount",
          "type": "uint256"
        }
      ],
      "name": "SpendingRecorded",
      "type": "event"
    },
    {
      "anonymous": false,
      "inputs": [
        {
          "indexed": true,
          "internalType": "address",
          "name": "voter",
          "type": "address"
        },
        {
          "indexed": true,
          "internalType": "address",
          "name": "entity",
          "type": "address"
        }
      ],
      "name": "Voted",
      "type": "event"
    },
    {
      "inputs": [
        {
          "internalType": "address",
          "name": "",
          "type": "address"
        }
      ],
      "name": "entities",
      "outputs": [
        {
          "internalType": "bool",
          "name": "isActive",
          "type": "bool"
        },
        {
          "internalType": "uint256",
          "name": "totalVotes",
          "type": "uint256"
        },
        {
          "internalType": "uint256",
          "name": "toBeSpent",
          "type": "uint256"
        }
      ],
      "stateMutability": "view",
      "type": "function"
    },
    {
      "inputs": [
        {
          "internalType": "uint256",
          "name": "spendingId",
          "type": "uint256"
        }
      ],
      "name": "getMicroTransactions",
      "outputs": [
        {
          "components": [
            {
              "internalType": "uint256",
              "name": "id",
              "type": "uint256"
            },
            {
              "internalType": "uint256",
              "name": "spendingId",
              "type": "uint256"
            },
            {
              "internalType": "address",
              "name": "entity",
              "type": "address"
            },
            {
              "internalType": "uint256",
              "name": "amount",
              "type": "uint256"
            },
            {
              "internalType": "string",
              "name": "description",
              "type": "string"
            },
            {
              "internalType": "uint256",
              "name": "timestamp",
              "type": "uint256"
            }
          ],
          "internalType": "struct GovernmentFunds.MicroTransaction[]",
          "name": "",
          "type": "tuple[]"
        }
      ],
      "stateMutability": "view",
      "type": "function"
    },
    {
      "inputs": [
        {
          "internalType": "address",
          "name": "entityAddress",
          "type": "address"
        }
      ],
      "name": "getSpendingRecords",
      "outputs": [
        {
          "components": [
            {
              "internalType": "uint256",
              "name": "id",
              "type": "uint256"
            },
            {
              "internalType": "address",
              "name": "entity",
              "type": "address"
            },
            {
              "internalType": "uint256",
              "name": "amount",
              "type": "uint256"
            },
            {
              "internalType": "uint256",
              "name": "timestamp",
              "type": "uint256"
            }
          ],
          "internalType": "struct GovernmentFunds.SpendingRecord[]",
          "name": "",
          "type": "tuple[]"
        }
      ],
      "stateMutability": "view",
      "type": "function"
    },
    {
      "inputs": [
        {
          "internalType": "address",
          "name": "",
          "type": "address"
        },
        {
          "internalType": "address",
          "name": "",
          "type": "address"
        }
      ],
      "name": "hasVoted",
      "outputs": [
        {
          "internalType": "bool",
          "name": "",
          "type": "bool"
        }
      ],
      "stateMutability": "view",
      "type": "function"
    },
    {
      "inputs": [],
      "name": "microTransactionCount",
      "outputs": [
        {
          "internalType": "uint256",
          "name": "",
          "type": "uint256"
        }
      ],
      "stateMutability": "view",
      "type": "function"
    },
    {
      "inputs": [
        {
          "internalType": "uint256",
          "name": "",
          "type": "uint256"
        }
      ],
      "name": "microTransactions",
      "outputs": [
        {
          "internalType": "uint256",
          "name": "id",
          "type": "uint256"
        },
        {
          "internalType": "uint256",
          "name": "spendingId",
          "type": "uint256"
        },
        {
          "internalType": "address",
          "name": "entity",
          "type": "address"
        },
        {
          "internalType": "uint256",
          "name": "amount",
          "type": "uint256"
        },
        {
          "internalType": "string",
          "name": "description",
          "type": "string"
        },
        {
          "internalType": "uint256",
          "name": "timestamp",
          "type": "uint256"
        }
      ],
      "stateMutability": "view",
      "type": "function"
    },
    {
      "inputs": [
        {
          "internalType": "uint256",
          "name": "spendingId",
          "type": "uint256"
        },
        {
          "internalType": "uint256",
          "name": "amount",
          "type": "uint256"
        },
        {
          "internalType": "string",
          "name": "description",
          "type": "string"
        }
      ],
      "name": "recordMicroTransaction",
      "outputs": [],
      "stateMutability": "nonpayable",
      "type": "function"
    },
    {
      "inputs": [
        {
          "internalType": "uint256",
          "name": "amount",
          "type": "uint256"
        }
      ],
      "name": "recordSpending",
      "outputs": [],
      "stateMutability": "nonpayable",
      "type": "function"
    },
    {
      "inputs": [],
      "name": "spendingCount",
      "outputs": [
        {
          "internalType": "uint256",
          "name": "",
          "type": "uint256"
        }
      ],
      "stateMutability": "view",
      "type": "function"
    },
    {
      "inputs": [
        {
          "internalType": "uint256",
          "name": "",
          "type": "uint256"
        }
      ],
      "name": "spendingRecords",
      "outputs": [
        {
          "internalType": "uint256",
          "name": "id",
          "type": "uint256"
        },
        {
          "internalType": "address",
          "name": "entity",
          "type": "address"
        },
        {
          "internalType": "uint256",
          "name": "amount",
          "type": "uint256"
        },
        {
          "internalType": "uint256",
          "name": "timestamp",
          "type": "uint256"
        }
      ],
      "stateMutability": "view",
      "type": "function"
    },
    {
      "inputs": [
        {
          "internalType": "address",
          "name": "entityAddress",
          "type": "address"
        }
      ],
      "name": "vote",
      "outputs": [],
      "stateMutability": "nonpayable",
      "type": "function"
    }
  ],
  "bytecode": "0x6080806040523461001657610f61908161001c8239f35b600080fdfe608080604052600436101561001357600080fd5b60003560e01c9081631d8ee48a14610c68575080633657a7db14610c4a5780634d4d2b1c14610bf05780634f7311ad14610bd2578063502ae238146109b25780636dd7d8ea1461081b578063818f994d14610798578063a9bba44314610684578063bac5d8f91461062e578063f1b2b18b1461026c5763fb116b581461009857600080fd5b3461026757602080600319360112610267576100b2610cbb565b6004546001600160a01b03929160009190841660015b8281111561022a57506100da83610ee9565b926100e86040519485610d83565b8084526100f7601f1991610ee9565b018460005b8281106101f857505050600060015b838111156101745750505050604051918083018184528251809152816040850193019160005b82811061013e5785850386f35b83518051865280830151881686840152604080820151908701526060908101519086015260809094019392810192600101610131565b806000526002808752604060002088600182015416918583146101a3575b50505061019e90610eda565b61010b565b91600361019e9495926101ef94604051936101bd85610d67565b825485528c8501528101546040840152015460608201526101de8289610f01565b526101e98188610f01565b50610eda565b91903880610192565b60405161020481610d67565b6000815260008382015260006040820152600060608201528282880101520185906100fc565b806000526002855281866001604060002001541614610252575b61024d90610eda565b6100c8565b9261025f61024d91610eda565b939050610244565b600080fd5b346102675760603660031901126102675760443567ffffffffffffffff808211610267573660238301121561026757816004013581811161061857604051906102bf601f8201601f191660200183610d83565b808252602493368583830101116102675781600092866020930183860137830101523360005260006020526102fb60ff60406000205416610e4b565b61030783351515610e8e565b600435600052600260205260018060a01b0391338360016040600020015416036105ae5733600052600060205283356003604060002001541061056a5761034f600554610eda565b91826005556040519261036184610d4b565b808452602084019460043586526040850190338252606086019288358452608087019485524260a0880152600052600360205260406000209686518855516001880155600287019151166bffffffffffffffffffffffff60a01b825416179055516003850155518051918211610555576103de6004850154610d11565b601f811161050e575b50602090601f831160011461049b5791806005949260a094600092610490575b50508160011b916000199060031b1c19161760048501555b015191015533600052600060205260036040600020018054908235820391821161047b5755600554906040519035815233917f9501b07dd51f296f8817083625c8736bc5624b77f0e554aa58458fab1eea8cf5602060043593a4005b82634e487b7160e01b60005260116004526000fd5b015190508780610407565b90601f198316916004860160005260206000209260005b8181106104f6575092600192859260a09660059896106104dd575b505050811b01600485015561041f565b015160001960f88460031b161c191690558780806104cd565b929360206001819287860151815501950193016104b2565b600485016000526020600020601f840160051c81016020851061054e575b601f830160051c820181106105425750506103e7565b6000815560010161052c565b508061052c565b84634e487b7160e01b60005260416004526000fd5b60405162461bcd60e51b815260206004820152601e818601527f496e73756666696369656e7420746f42655370656e742062616c616e636500006044820152606490fd5b60405162461bcd60e51b8152602060048201526039818601527f4e6f7420617574686f72697a656420746f20616464206d6963726f2d7472616e60448201527f73616374696f6e7320746f2074686973207370656e64696e67000000000000006064820152608490fd5b634e487b7160e01b600052604160045260246000fd5b346102675760203660031901126102675760043560005260026020526080604060002080549060018060a01b03600182015416906003600282015491015491604051938452602084015260408301526060820152f35b3461026757602080600319360112610267576004359033600052600081526106b360ff60406000205416610e4b565b6106be821515610e8e565b6106c9600454610eda565b806004556003604051916106dc83610d67565b8083528383013381526040840190868252606085019242845260005260028652604060002094518555600185019060018060a01b039051166bffffffffffffffffffffffff60a01b825416179055516002840155519101553360005260008152600360406000200180549083820180921161078257557fd26743b74d62dd5ad8e62c8de6634906adc90975c3bf8085f74d522960d2eb5d600454916040519384523393a3005b634e487b7160e01b600052601160045260246000fd5b346102675760203660031901126102675760043560005260036020526040600020805460018201549161081160018060a01b0360028301541691600381015460056107e560048401610da5565b92015493604051968796875260208701526040860152606085015260c0608085015260c0840190610cd1565b9060a08301520390f35b346102675760208060031936011261026757610835610cbb565b903360005260019081815260406000209260018060a01b03169283600052815260ff6040600020541661095f57826000526000815261087b60ff60406000205416610e4b565b82600052600081528160406000200133600052815260406000205461091b5782600052600081528160406000200133600052815281604060002055826000526000815260026040600020016108d08154610eda565b905533600052818152604060002090836000525260406000209060ff19825416179055337fce0c7a2a940807f7dc2ce7a615c2532e915e6c0ac9a08bc4ed9d515a710a53e2600080a3005b6064906040519062461bcd60e51b82526004820152601d60248201527f416c726561647920766f74656420666f72207468697320656e746974790000006044820152fd5b6084906040519062461bcd60e51b82526004820152602660248201527f596f75206861766520616c726561647920766f74656420666f72207468697320604482015265656e7469747960d01b6064820152fd5b34610267576020806003193601126102675760043590600060016005938454915b82811115610b9757506109e583610ee9565b926109f36040519485610d83565b808452610a02601f1991610ee9565b018460005b828110610b585750505060009060015b83811115610ac1575050505060405191808301818452825180915281604082818701971b8601019301916000955b828710610a525785850386f35b909192938280600192603f19898203018552875190815181528282015183820152848060a01b03604083015116604082015260608083015190820152610aa76080808401519060c08091850152830190610cd1565b9160a0809101519101529601920196019592919092610a45565b806000526003808752876040600020600181015492858414610af0575b50505050610aeb90610eda565b610a17565b91610b4e9391610aeb95979360405193610b0985610d4b565b825485528c85015260028201546001600160a01b031660408501528101546060840152610b3860048201610da5565b6080840152015460a08201526101de8289610f01565b9290878980610ade565b604051610b6481610d4b565b600081526000838201526000604082015260606000818301526080820152600060a0820152828288010152018590610a07565b80600052600385528160016040600020015414610bbd575b610bb890610eda565b6109d3565b92610bca610bb891610eda565b939050610baf565b34610267576000366003190112610267576020600454604051908152f35b3461026757604036600319011261026757610c09610cbb565b6001600160a01b03602435818116929083900361026757166000526001602052604060002090600052602052602060ff604060002054166040519015158152f35b34610267576000366003190112610267576020600554604051908152f35b34610267576020366003190112610267576060906001600160a01b03610c8c610cbb565b166000526000602052604060002060ff8154169060036002820154910154911515835260208301526040820152f35b600435906001600160a01b038216820361026757565b919082519283825260005b848110610cfd575050826000602080949584010152601f8019910116010190565b602081830181015184830182015201610cdc565b90600182811c92168015610d41575b6020831014610d2b57565b634e487b7160e01b600052602260045260246000fd5b91607f1691610d20565b60c0810190811067ffffffffffffffff82111761061857604052565b6080810190811067ffffffffffffffff82111761061857604052565b90601f8019910116810190811067ffffffffffffffff82111761061857604052565b9060405191826000825492610db984610d11565b908184526001948581169081600014610e285750600114610de5575b5050610de392500383610d83565b565b9093915060005260209081600020936000915b818310610e10575050610de393508201013880610dd5565b85548884018501529485019487945091830191610df8565b915050610de394506020925060ff191682840152151560051b8201013880610dd5565b15610e5257565b60405162461bcd60e51b8152602060048201526014602482015273456e74697479206973206e6f742061637469766560601b6044820152606490fd5b15610e9557565b60405162461bcd60e51b815260206004820152601d60248201527f416d6f756e74206d7573742062652067726561746572207468616e20300000006044820152606490fd5b60001981146107825760010190565b67ffffffffffffffff81116106185760051b60200190565b8051821015610f155760209160051b010190565b634e487b7160e01b600052603260045260246000fdfea2646970667358221220c865467d7b815e4e7c11de44ea4c4619e05167da7bc2997b005a9e30b76702f464736f6c63430008130033",
  "linkReferences": {},
  "deployedLinkReferences": {}
}