{
  "_format": "hh-sol-artifact-1",
  "contractName": "SimplifiedSpendingRegistry",
  "sourceName": "contracts/SimplifiedSpendingRegistry.sol",
  "abi": [
    {
      "inputs": [],
      "stateMutability": "nonpayable",
      "type": "constructor"
    },
    {
      "anonymous": false,
      "inputs": [
        {
          "indexed": true,
          "internalType": "address",
          "name": "entity",
          "type": "address"
        },
        {
          "indexed": false,
          "internalType": "uint256",
          "name": "amount",
          "type": "uint256"
        }
      ],
      "name": "BonusDistributed",
      "type": "event"
    },
    {
      "anonymous": false,
      "inputs": [
        {
          "indexed": true,
          "internalType": "address",
          "name": "entityAddress",
          "type": "address"
        }
      ],
      "name": "EntityDeactivated",
      "type": "event"
    },
    {
      "anonymous": false,
      "inputs": [
        {
          "indexed": true,
          "internalType": "address",
          "name": "entityAddress",
          "type": "address"
        },
        {
          "indexed": false,
          "internalType": "string",
          "name": "name",
          "type": "string"
        }
      ],
      "name": "EntityRegistered",
      "type": "event"
    },
    {
      "anonymous": false,
      "inputs": [
        {
          "indexed": true,
          "internalType": "uint256",
          "name": "id",
          "type": "uint256"
        },
        {
          "indexed": true,
          "internalType": "address",
          "name": "entity",
          "type": "address"
        }
      ],
      "name": "FundRequestApproved",
      "type": "event"
    },
    {
      "anonymous": false,
      "inputs": [
        {
          "indexed": true,
          "internalType": "uint256",
          "name": "id",
          "type": "uint256"
        },
        {
          "indexed": true,
          "internalType": "address",
          "name": "entity",
          "type": "address"
        }
      ],
      "name": "FundRequestRejected",
      "type": "event"
    },
    {
      "anonymous": false,
      "inputs": [
        {
          "indexed": true,
          "internalType": "uint256",
          "name": "id",
          "type": "uint256"
        },
        {
          "indexed": true,
          "internalType": "address",
          "name": "entity",
          "type": "address"
        },
        {
          "indexed": false,
          "internalType": "uint256",
          "name": "amount",
          "type": "uint256"
        },
        {
          "indexed": false,
          "internalType": "string",
          "name": "reason",
          "type": "string"
        },
        {
          "indexed": false,
          "internalType": "string",
          "name": "documentHash",
          "type": "string"
        }
      ],
      "name": "FundRequested",
      "type": "event"
    },
    {
      "anonymous": false,
      "inputs": [
        {
          "indexed": true,
          "internalType": "uint256",
          "name": "id",
          "type": "uint256"
        },
        {
          "indexed": true,
          "internalType": "address",
          "name": "to",
          "type": "address"
        },
        {
          "indexed": false,
          "internalType": "uint256",
          "name": "amount",
          "type": "uint256"
        }
      ],
      "name": "FundsIssued",
      "type": "event"
    },
    {
      "anonymous": false,
      "inputs": [
        {
          "indexed": true,
          "internalType": "uint256",
          "name": "id",
          "type": "uint256"
        },
        {
          "indexed": true,
          "internalType": "uint256",
          "name": "spendingRecordId",
          "type": "uint256"
        },
        {
          "indexed": true,
          "internalType": "address",
          "name": "entity",
          "type": "address"
        },
        {
          "indexed": false,
          "internalType": "string",
          "name": "description",
          "type": "string"
        },
        {
          "indexed": false,
          "internalType": "uint256",
          "name": "amount",
          "type": "uint256"
        }
      ],
      "name": "MicroTransactionRecorded",
      "type": "event"
    },
    {
      "anonymous": false,
      "inputs": [
        {
          "indexed": true,
          "internalType": "uint256",
          "name": "id",
          "type": "uint256"
        },
        {
          "indexed": true,
          "internalType": "address",
          "name": "entity",
          "type": "address"
        },
        {
          "indexed": false,
          "internalType": "uint256",
          "name": "amount",
          "type": "uint256"
        },
        {
          "indexed": false,
          "internalType": "string",
          "name": "documentHash",
          "type": "string"
        }
      ],
      "name": "SpendingRecorded",
      "type": "event"
    },
    {
      "anonymous": false,
      "inputs": [
        {
          "indexed": true,
          "internalType": "address",
          "name": "voter",
          "type": "address"
        },
        {
          "indexed": true,
          "internalType": "address",
          "name": "entity",
          "type": "address"
        },
        {
          "indexed": false,
          "internalType": "uint256",
          "name": "rating",
          "type": "uint256"
        }
      ],
      "name": "Voted",
      "type": "event"
    },
    {
      "inputs": [],
      "name": "BONUS_AMOUNT",
      "outputs": [
        {
          "internalType": "uint256",
          "name": "",
          "type": "uint256"
        }
      ],
      "stateMutability": "view",
      "type": "function"
    },
    {
      "inputs": [],
      "name": "VOTING_COOLDOWN",
      "outputs": [
        {
          "internalType": "uint256",
          "name": "",
          "type": "uint256"
        }
      ],
      "stateMutability": "view",
      "type": "function"
    },
    {
      "inputs": [
        {
          "internalType": "uint256",
          "name": "requestId",
          "type": "uint256"
        }
      ],
      "name": "approveFundRequest",
      "outputs": [],
      "stateMutability": "nonpayable",
      "type": "function"
    },
    {
      "inputs": [],
      "name": "centralGovernment",
      "outputs": [
        {
          "internalType": "address",
          "name": "",
          "type": "address"
        }
      ],
      "stateMutability": "view",
      "type": "function"
    },
    {
      "inputs": [
        {
          "internalType": "address",
          "name": "voter",
          "type": "address"
        }
      ],
      "name": "checkVotingStatus",
      "outputs": [
        {
          "internalType": "bool",
          "name": "",
          "type": "bool"
        }
      ],
      "stateMutability": "view",
      "type": "function"
    },
    {
      "inputs": [
        {
          "internalType": "address",
          "name": "entityAddress",
          "type": "address"
        }
      ],
      "name": "deactivateEntity",
      "outputs": [],
      "stateMutability": "nonpayable",
      "type": "function"
    },
    {
      "inputs": [],
      "name": "distributeBonus",
      "outputs": [],
      "stateMutability": "nonpayable",
      "type": "function"
    },
    {
      "inputs": [
        {
          "internalType": "uint256",
          "name": "",
          "type": "uint256"
        }
      ],
      "name": "entityAddresses",
      "outputs": [
        {
          "internalType": "address",
          "name": "",
          "type": "address"
        }
      ],
      "stateMutability": "view",
      "type": "function"
    },
    {
      "inputs": [
        {
          "internalType": "uint256",
          "name": "",
          "type": "uint256"
        }
      ],
      "name": "fundRequests",
      "outputs": [
        {
          "internalType": "uint256",
          "name": "id",
          "type": "uint256"
        },
        {
          "internalType": "address",
          "name": "entity",
          "type": "address"
        },
        {
          "internalType": "uint256",
          "name": "amount",
          "type": "uint256"
        },
        {
          "internalType": "string",
          "name": "reason",
          "type": "string"
        },
        {
          "internalType": "string",
          "name": "documentHash",
          "type": "string"
        },
        {
          "internalType": "uint256",
          "name": "timestamp",
          "type": "uint256"
        },
        {
          "internalType": "bool",
          "name": "isApproved",
          "type": "bool"
        },
        {
          "internalType": "bool",
          "name": "isRejected",
          "type": "bool"
        }
      ],
      "stateMutability": "view",
      "type": "function"
    },
    {
      "inputs": [],
      "name": "getAllEntityAddresses",
      "outputs": [
        {
          "internalType": "address[]",
          "name": "",
          "type": "address[]"
        }
      ],
      "stateMutability": "view",
      "type": "function"
    },
    {
      "inputs": [],
      "name": "getAllEntityRatings",
      "outputs": [
        {
          "internalType": "address[]",
          "name": "addresses",
          "type": "address[]"
        },
        {
          "internalType": "uint256[]",
          "name": "ratings",
          "type": "uint256[]"
        },
        {
          "internalType": "uint256[]",
          "name": "votes",
          "type": "uint256[]"
        }
      ],
      "stateMutability": "view",
      "type": "function"
    },
    {
      "inputs": [],
      "name": "getContractBalance",
      "outputs": [
        {
          "internalType": "uint256",
          "name": "",
          "type": "uint256"
        }
      ],
      "stateMutability": "view",
      "type": "function"
    },
    {
      "inputs": [],
      "name": "getEntityCount",
      "outputs": [
        {
          "internalType": "uint256",
          "name": "",
          "type": "uint256"
        }
      ],
      "stateMutability": "view",
      "type": "function"
    },
    {
      "inputs": [
        {
          "internalType": "address",
          "name": "entityAddress",
          "type": "address"
        }
      ],
      "name": "getEntityDetails",
      "outputs": [
        {
          "internalType": "string",
          "name": "name",
          "type": "string"
        },
        {
          "internalType": "bool",
          "name": "isActive",
          "type": "bool"
        },
        {
          "internalType": "uint256",
          "name": "balance",
          "type": "uint256"
        },
        {
          "internalType": "uint256",
          "name": "needToSpend",
          "type": "uint256"
        }
      ],
      "stateMutability": "view",
      "type": "function"
    },
    {
      "inputs": [
        {
          "internalType": "address",
          "name": "entityAddress",
          "type": "address"
        },
        {
          "internalType": "uint256",
          "name": "offset",
          "type": "uint256"
        },
        {
          "internalType": "uint256",
          "name": "limit",
          "type": "uint256"
        }
      ],
      "name": "getEntityFundRequests",
      "outputs": [
        {
          "components": [
            {
              "internalType": "uint256",
              "name": "id",
              "type": "uint256"
            },
            {
              "internalType": "address",
              "name": "entity",
              "type": "address"
            },
            {
              "internalType": "uint256",
              "name": "amount",
              "type": "uint256"
            },
            {
              "internalType": "string",
              "name": "reason",
              "type": "string"
            },
            {
              "internalType": "string",
              "name": "documentHash",
              "type": "string"
            },
            {
              "internalType": "uint256",
              "name": "timestamp",
              "type": "uint256"
            },
            {
              "internalType": "bool",
              "name": "isApproved",
              "type": "bool"
            },
            {
              "internalType": "bool",
              "name": "isRejected",
              "type": "bool"
            }
          ],
          "internalType": "struct SimplifiedSpendingRegistry.FundRequest[]",
          "name": "",
          "type": "tuple[]"
        }
      ],
      "stateMutability": "view",
      "type": "function"
    },
    {
      "inputs": [
        {
          "internalType": "address",
          "name": "entityAddress",
          "type": "address"
        }
      ],
      "name": "getEntityHappinessRating",
      "outputs": [
        {
          "internalType": "uint256",
          "name": "rating",
          "type": "uint256"
        },
        {
          "internalType": "uint256",
          "name": "totalVotes",
          "type": "uint256"
        },
        {
          "internalType": "uint256",
          "name": "lastVoteTime",
          "type": "uint256"
        }
      ],
      "stateMutability": "view",
      "type": "function"
    },
    {
      "inputs": [
        {
          "internalType": "address",
          "name": "entityAddress",
          "type": "address"
        },
        {
          "internalType": "uint256",
          "name": "offset",
          "type": "uint256"
        },
        {
          "internalType": "uint256",
          "name": "limit",
          "type": "uint256"
        }
      ],
      "name": "getEntityIssuedFunds",
      "outputs": [
        {
          "components": [
            {
              "internalType": "uint256",
              "name": "id",
              "type": "uint256"
            },
            {
              "internalType": "address",
              "name": "entity",
              "type": "address"
            },
            {
              "internalType": "uint256",
              "name": "amount",
              "type": "uint256"
            },
            {
              "internalType": "uint256",
              "name": "timestamp",
              "type": "uint256"
            }
          ],
          "internalType": "struct SimplifiedSpendingRegistry.IssuedFund[]",
          "name": "",
          "type": "tuple[]"
        }
      ],
      "stateMutability": "view",
      "type": "function"
    },
    {
      "inputs": [
        {
          "internalType": "address",
          "name": "entityAddress",
          "type": "address"
        },
        {
          "internalType": "uint256",
          "name": "offset",
          "type": "uint256"
        },
        {
          "internalType": "uint256",
          "name": "limit",
          "type": "uint256"
        }
      ],
      "name": "getEntitySpendingRecords",
      "outputs": [
        {
          "components": [
            {
              "internalType": "uint256",
              "name": "id",
              "type": "uint256"
            },
            {
              "internalType": "address",
              "name": "entity",
              "type": "address"
            },
            {
              "internalType": "string",
              "name": "purpose",
              "type": "string"
            },
            {
              "internalType": "uint256",
              "name": "amount",
              "type": "uint256"
            },
            {
              "internalType": "string",
              "name": "documentHash",
              "type": "string"
            },
            {
              "internalType": "uint256",
              "name": "timestamp",
              "type": "uint256"
            }
          ],
          "internalType": "struct SimplifiedSpendingRegistry.SpendingRecord[]",
          "name": "",
          "type": "tuple[]"
        }
      ],
      "stateMutability": "view",
      "type": "function"
    },
    {
      "inputs": [
        {
          "internalType": "uint256",
          "name": "requestId",
          "type": "uint256"
        }
      ],
      "name": "getFundRequest",
      "outputs": [
        {
          "components": [
            {
              "internalType": "uint256",
              "name": "id",
              "type": "uint256"
            },
            {
              "internalType": "address",
              "name": "entity",
              "type": "address"
            },
            {
              "internalType": "uint256",
              "name": "amount",
              "type": "uint256"
            },
            {
              "internalType": "string",
              "name": "reason",
              "type": "string"
            },
            {
              "internalType": "string",
              "name": "documentHash",
              "type": "string"
            },
            {
              "internalType": "uint256",
              "name": "timestamp",
              "type": "uint256"
            },
            {
              "internalType": "bool",
              "name": "isApproved",
              "type": "bool"
            },
            {
              "internalType": "bool",
              "name": "isRejected",
              "type": "bool"
            }
          ],
          "internalType": "struct SimplifiedSpendingRegistry.FundRequest",
          "name": "",
          "type": "tuple"
        }
      ],
      "stateMutability": "view",
      "type": "function"
    },
    {
      "inputs": [
        {
          "internalType": "uint256",
          "name": "offset",
          "type": "uint256"
        },
        {
          "internalType": "uint256",
          "name": "limit",
          "type": "uint256"
        }
      ],
      "name": "getFundRequests",
      "outputs": [
        {
          "components": [
            {
              "internalType": "uint256",
              "name": "id",
              "type": "uint256"
            },
            {
              "internalType": "address",
              "name": "entity",
              "type": "address"
            },
            {
              "internalType": "uint256",
              "name": "amount",
              "type": "uint256"
            },
            {
              "internalType": "string",
              "name": "reason",
              "type": "string"
            },
            {
              "internalType": "string",
              "name": "documentHash",
              "type": "string"
            },
            {
              "internalType": "uint256",
              "name": "timestamp",
              "type": "uint256"
            },
            {
              "internalType": "bool",
              "name": "isApproved",
              "type": "bool"
            },
            {
              "internalType": "bool",
              "name": "isRejected",
              "type": "bool"
            }
          ],
          "internalType": "struct SimplifiedSpendingRegistry.FundRequest[]",
          "name": "",
          "type": "tuple[]"
        }
      ],
      "stateMutability": "view",
      "type": "function"
    },
    {
      "inputs": [
        {
          "internalType": "uint256",
          "name": "fundId",
          "type": "uint256"
        }
      ],
      "name": "getIssuedFund",
      "outputs": [
        {
          "components": [
            {
              "internalType": "uint256",
              "name": "id",
              "type": "uint256"
            },
            {
              "internalType": "address",
              "name": "entity",
              "type": "address"
            },
            {
              "internalType": "uint256",
              "name": "amount",
              "type": "uint256"
            },
            {
              "internalType": "uint256",
              "name": "timestamp",
              "type": "uint256"
            }
          ],
          "internalType": "struct SimplifiedSpendingRegistry.IssuedFund",
          "name": "",
          "type": "tuple"
        }
      ],
      "stateMutability": "view",
      "type": "function"
    },
    {
      "inputs": [
        {
          "internalType": "uint256",
          "name": "offset",
          "type": "uint256"
        },
        {
          "internalType": "uint256",
          "name": "limit",
          "type": "uint256"
        }
      ],
      "name": "getIssuedFunds",
      "outputs": [
        {
          "components": [
            {
              "internalType": "uint256",
              "name": "id",
              "type": "uint256"
            },
            {
              "internalType": "address",
              "name": "entity",
              "type": "address"
            },
            {
              "internalType": "uint256",
              "name": "amount",
              "type": "uint256"
            },
            {
              "internalType": "uint256",
              "name": "timestamp",
              "type": "uint256"
            }
          ],
          "internalType": "struct SimplifiedSpendingRegistry.IssuedFund[]",
          "name": "",
          "type": "tuple[]"
        }
      ],
      "stateMutability": "view",
      "type": "function"
    },
    {
      "inputs": [
        {
          "internalType": "uint256",
          "name": "offset",
          "type": "uint256"
        },
        {
          "internalType": "uint256",
          "name": "limit",
          "type": "uint256"
        }
      ],
      "name": "getMicroTransactions",
      "outputs": [
        {
          "components": [
            {
              "internalType": "uint256",
              "name": "id",
              "type": "uint256"
            },
            {
              "internalType": "uint256",
              "name": "spendingRecordId",
              "type": "uint256"
            },
            {
              "internalType": "address",
              "name": "entity",
              "type": "address"
            },
            {
              "internalType": "string",
              "name": "description",
              "type": "string"
            },
            {
              "internalType": "uint256",
              "name": "amount",
              "type": "uint256"
            },
            {
              "internalType": "uint256",
              "name": "timestamp",
              "type": "uint256"
            }
          ],
          "internalType": "struct SimplifiedSpendingRegistry.MicroTransaction[]",
          "name": "",
          "type": "tuple[]"
        }
      ],
      "stateMutability": "view",
      "type": "function"
    },
    {
      "inputs": [
        {
          "internalType": "uint256",
          "name": "recordId",
          "type": "uint256"
        }
      ],
      "name": "getSpendingRecord",
      "outputs": [
        {
          "components": [
            {
              "internalType": "uint256",
              "name": "id",
              "type": "uint256"
            },
            {
              "internalType": "address",
              "name": "entity",
              "type": "address"
            },
            {
              "internalType": "string",
              "name": "purpose",
              "type": "string"
            },
            {
              "internalType": "uint256",
              "name": "amount",
              "type": "uint256"
            },
            {
              "internalType": "string",
              "name": "documentHash",
              "type": "string"
            },
            {
              "internalType": "uint256",
              "name": "timestamp",
              "type": "uint256"
            }
          ],
          "internalType": "struct SimplifiedSpendingRegistry.SpendingRecord",
          "name": "",
          "type": "tuple"
        }
      ],
      "stateMutability": "view",
      "type": "function"
    },
    {
      "inputs": [
        {
          "internalType": "uint256",
          "name": "spendingRecordId",
          "type": "uint256"
        }
      ],
      "name": "getSpendingRecordMicroTransactions",
      "outputs": [
        {
          "components": [
            {
              "internalType": "uint256",
              "name": "id",
              "type": "uint256"
            },
            {
              "internalType": "uint256",
              "name": "spendingRecordId",
              "type": "uint256"
            },
            {
              "internalType": "address",
              "name": "entity",
              "type": "address"
            },
            {
              "internalType": "string",
              "name": "description",
              "type": "string"
            },
            {
              "internalType": "uint256",
              "name": "amount",
              "type": "uint256"
            },
            {
              "internalType": "uint256",
              "name": "timestamp",
              "type": "uint256"
            }
          ],
          "internalType": "struct SimplifiedSpendingRegistry.MicroTransaction[]",
          "name": "",
          "type": "tuple[]"
        }
      ],
      "stateMutability": "view",
      "type": "function"
    },
    {
      "inputs": [
        {
          "internalType": "uint256",
          "name": "offset",
          "type": "uint256"
        },
        {
          "internalType": "uint256",
          "name": "limit",
          "type": "uint256"
        }
      ],
      "name": "getSpendingRecords",
      "outputs": [
        {
          "components": [
            {
              "internalType": "uint256",
              "name": "id",
              "type": "uint256"
            },
            {
              "internalType": "address",
              "name": "entity",
              "type": "address"
            },
            {
              "internalType": "string",
              "name": "purpose",
              "type": "string"
            },
            {
              "internalType": "uint256",
              "name": "amount",
              "type": "uint256"
            },
            {
              "internalType": "string",
              "name": "documentHash",
              "type": "string"
            },
            {
              "internalType": "uint256",
              "name": "timestamp",
              "type": "uint256"
            }
          ],
          "internalType": "struct SimplifiedSpendingRegistry.SpendingRecord[]",
          "name": "",
          "type": "tuple[]"
        }
      ],
      "stateMutability": "view",
      "type": "function"
    },
    {
      "inputs": [],
      "name": "getTimeUntilNextBonus",
      "outputs": [
        {
          "internalType": "uint256",
          "name": "",
          "type": "uint256"
        }
      ],
      "stateMutability": "view",
      "type": "function"
    },
    {
      "inputs": [
        {
          "internalType": "address",
          "name": "",
          "type": "address"
        }
      ],
      "name": "governmentEntities",
      "outputs": [
        {
          "internalType": "string",
          "name": "name",
          "type": "string"
        },
        {
          "internalType": "bool",
          "name": "isActive",
          "type": "bool"
        },
        {
          "internalType": "uint256",
          "name": "balance",
          "type": "uint256"
        },
        {
          "internalType": "uint256",
          "name": "needToSpend",
          "type": "uint256"
        },
        {
          "internalType": "uint256",
          "name": "happinessRating",
          "type": "uint256"
        },
        {
          "internalType": "uint256",
          "name": "totalVotes",
          "type": "uint256"
        },
        {
          "internalType": "uint256",
          "name": "lastVoteTimestamp",
          "type": "uint256"
        }
      ],
      "stateMutability": "view",
      "type": "function"
    },
    {
      "inputs": [
        {
          "internalType": "address",
          "name": "",
          "type": "address"
        },
        {
          "internalType": "address",
          "name": "",
          "type": "address"
        }
      ],
      "name": "hasVoted",
      "outputs": [
        {
          "internalType": "bool",
          "name": "",
          "type": "bool"
        }
      ],
      "stateMutability": "view",
      "type": "function"
    },
    {
      "inputs": [
        {
          "internalType": "address",
          "name": "entityAddress",
          "type": "address"
        },
        {
          "internalType": "uint256",
          "name": "amount",
          "type": "uint256"
        }
      ],
      "name": "issueFunds",
      "outputs": [],
      "stateMutability": "payable",
      "type": "function"
    },
    {
      "inputs": [],
      "name": "issuedFundCount",
      "outputs": [
        {
          "internalType": "uint256",
          "name": "",
          "type": "uint256"
        }
      ],
      "stateMutability": "view",
      "type": "function"
    },
    {
      "inputs": [
        {
          "internalType": "uint256",
          "name": "",
          "type": "uint256"
        }
      ],
      "name": "issuedFunds",
      "outputs": [
        {
          "internalType": "uint256",
          "name": "id",
          "type": "uint256"
        },
        {
          "internalType": "address",
          "name": "entity",
          "type": "address"
        },
        {
          "internalType": "uint256",
          "name": "amount",
          "type": "uint256"
        },
        {
          "internalType": "uint256",
          "name": "timestamp",
          "type": "uint256"
        }
      ],
      "stateMutability": "view",
      "type": "function"
    },
    {
      "inputs": [],
      "name": "lastBonusDistribution",
      "outputs": [
        {
          "internalType": "uint256",
          "name": "",
          "type": "uint256"
        }
      ],
      "stateMutability": "view",
      "type": "function"
    },
    {
      "inputs": [
        {
          "internalType": "uint256",
          "name": "",
          "type": "uint256"
        }
      ],
      "name": "microTransactions",
      "outputs": [
        {
          "internalType": "uint256",
          "name": "id",
          "type": "uint256"
        },
        {
          "internalType": "uint256",
          "name": "spendingRecordId",
          "type": "uint256"
        },
        {
          "internalType": "address",
          "name": "entity",
          "type": "address"
        },
        {
          "internalType": "string",
          "name": "description",
          "type": "string"
        },
        {
          "internalType": "uint256",
          "name": "amount",
          "type": "uint256"
        },
        {
          "internalType": "uint256",
          "name": "timestamp",
          "type": "uint256"
        }
      ],
      "stateMutability": "view",
      "type": "function"
    },
    {
      "inputs": [],
      "name": "recordCount",
      "outputs": [
        {
          "internalType": "uint256",
          "name": "",
          "type": "uint256"
        }
      ],
      "stateMutability": "view",
      "type": "function"
    },
    {
      "inputs": [
        {
          "internalType": "uint256",
          "name": "spendingRecordId",
          "type": "uint256"
        },
        {
          "internalType": "string",
          "name": "description",
          "type": "string"
        },
        {
          "internalType": "uint256",
          "name": "amount",
          "type": "uint256"
        }
      ],
      "name": "recordMicroTransaction",
      "outputs": [],
      "stateMutability": "nonpayable",
      "type": "function"
    },
    {
      "inputs": [
        {
          "internalType": "string",
          "name": "purpose",
          "type": "string"
        },
        {
          "internalType": "uint256",
          "name": "amount",
          "type": "uint256"
        },
        {
          "internalType": "string",
          "name": "documentHash",
          "type": "string"
        }
      ],
      "name": "recordSpending",
      "outputs": [],
      "stateMutability": "nonpayable",
      "type": "function"
    },
    {
      "inputs": [
        {
          "internalType": "address",
          "name": "entityAddress",
          "type": "address"
        },
        {
          "internalType": "string",
          "name": "name",
          "type": "string"
        }
      ],
      "name": "registerEntity",
      "outputs": [],
      "stateMutability": "nonpayable",
      "type": "function"
    },
    {
      "inputs": [
        {
          "internalType": "uint256",
          "name": "requestId",
          "type": "uint256"
        }
      ],
      "name": "rejectFundRequest",
      "outputs": [],
      "stateMutability": "nonpayable",
      "type": "function"
    },
    {
      "inputs": [],
      "name": "requestCount",
      "outputs": [
        {
          "internalType": "uint256",
          "name": "",
          "type": "uint256"
        }
      ],
      "stateMutability": "view",
      "type": "function"
    },
    {
      "inputs": [
        {
          "internalType": "uint256",
          "name": "amount",
          "type": "uint256"
        },
        {
          "internalType": "string",
          "name": "reason",
          "type": "string"
        },
        {
          "internalType": "string",
          "name": "documentHash",
          "type": "string"
        }
      ],
      "name": "requestFunds",
      "outputs": [],
      "stateMutability": "nonpayable",
      "type": "function"
    },
    {
      "inputs": [
        {
          "internalType": "uint256",
          "name": "",
          "type": "uint256"
        },
        {
          "internalType": "uint256",
          "name": "",
          "type": "uint256"
        }
      ],
      "name": "spendingRecordMicroTransactions",
      "outputs": [
        {
          "internalType": "uint256",
          "name": "",
          "type": "uint256"
        }
      ],
      "stateMutability": "view",
      "type": "function"
    },
    {
      "inputs": [
        {
          "internalType": "uint256",
          "name": "",
          "type": "uint256"
        }
      ],
      "name": "spendingRecords",
      "outputs": [
        {
          "internalType": "uint256",
          "name": "id",
          "type": "uint256"
        },
        {
          "internalType": "address",
          "name": "entity",
          "type": "address"
        },
        {
          "internalType": "string",
          "name": "purpose",
          "type": "string"
        },
        {
          "internalType": "uint256",
          "name": "amount",
          "type": "uint256"
        },
        {
          "internalType": "string",
          "name": "documentHash",
          "type": "string"
        },
        {
          "internalType": "uint256",
          "name": "timestamp",
          "type": "uint256"
        }
      ],
      "stateMutability": "view",
      "type": "function"
    },
    {
      "inputs": [
        {
          "internalType": "address",
          "name": "entityAddress",
          "type": "address"
        },
        {
          "internalType": "uint256",
          "name": "rating",
          "type": "uint256"
        }
      ],
      "name": "voteForEntity",
      "outputs": [],
      "stateMutability": "nonpayable",
      "type": "function"
    }
  ],
  "bytecode": "0x6080806040523461002c57600d80546001600160a01b0319163317905542600e55613bb290816100328239f35b600080fdfe6080604052600436101561001257600080fd5b60003560e01c80630241a44314612f4a5780630f780b5614612f2c57806312216c0714612e1057806321464bfe14612d485780632a9544d714612c605780632be837ec14612b825780632c71474d14612b2c5780632f0b6f721461273d57806332b3f568146123a557806344c6bc77146122c05780634a572ae3146122a25780634d4d2b1c146122485780634dfa8434146122015780634fb1c4be14611fd457806358e9f12e14611f325780635badbe4c14611f145780635d1b45b514611ef65780635dbe526f14611ecd5780636f9fb98a14611e9c578063709eddb014611e5157806373236a5b14611c0a57806373901f9f146119f757806374863d90146119d457806380ee37fa1461191b578063818f994d146118995780638876ac41146117cb578063900407bc146117ad5780639a0fc036146116df5780639a35646f146114f1578063a089126d1461139c578063a30c35191461125a578063a88c113a14611170578063b041f48014610ce0578063b17972f914610c4b578063ba51f82214610b20578063bac5d8f914610a89578063c7c258f214610a4a578063dea1f5811461057a578063df619ad7146104e0578063e620f3a014610445578063ea949519146102f6578063ec10be39146102b4578063f24f8241146102235763f349c1e51461020057600080fd5b3461021e57600036600319011261021e576020600e54604051908152f35b600080fd5b3461021e57602036600319011261021e5761023c612ff1565b600d546001600160a01b039190610256908316331461357e565b1680600052600060205261027460ff600160406000200154166135e2565b806000526000602052600160406000200160ff1981541690557f99fdeeec075823d23f0e1926979b27aaab3c6d7fccdbbea8914592d98896d741600080a2005b3461021e57602036600319011261021e5760043560055481101561021e576102dd60209161352f565b905460405160039290921b1c6001600160a01b03168152f35b604036600319011261021e5761030a612ff1565b60243560018060a01b03809261032582600d5416331461357e565b1691826000526020906000825261034660ff600160406000200154166135e2565b82340361040257907f8102f9a1d31f6501d6c7e7dc50bc98598b6a71cfb3548fcb29a3bcec04b63655918460005260008252600260406000200161038b858254613622565b9055600361039a60085461362f565b80600855604051926103ab84613047565b81845284840188815260408501918883526060860193428552600052848752604060002095518655600186019151166001600160601b0360a01b8254161790555160028401555191015560085492604051908152a3005b6064826040519062461bcd60e51b825280600483015260248201527f53656e742076616c7565206d757374206d617463682074686520616d6f756e746044820152fd5b3461021e5761046261047361045936612f6d565b92819382613622565b6007548082116104d8575b506136fc565b61047c816139df565b9160005b8281106104995760405180610495868261345c565b0390f35b806104b86104b26104ad6104d39486613622565b61332b565b50613967565b6104c282876137ef565b526104cd81866137ef565b5061362f565b610480565b90508461046d565b3461021e57602036600319011261021e576001600160a01b03610501612ff1565b166000526000602052610555604060002061051b816133b6565b9060ff600182015416906002810154906003810154600482015490600660058401549301549360405197889760e0895260e0890190613007565b951515602088015260408701526060860152608085015260a084015260c08301520390f35b3461021e57606036600319011261021e576004356001600160401b03811161021e576105aa9036906004016130d5565b6044356001600160401b03811161021e576105c99036906004016130d5565b3360005260006020526105e660ff6001604060002001541661363e565b815115610a0557602435156109c157610601815115156136b0565b3360005260006020526024356002604060002001541061098557336000526000602052600260406000200161063960243582546136fc565b905533600052600060205260036040600020016106596024358254613622565b905561066660095461362f565b80600955604051926106778461307d565b81845260208401913383526040850191825260243560608601528360808601524260a0860152600052600160205260406000209184518355600183019060018060a01b039051166001600160601b0360a01b825416179055519283516001600160401b0381116108ae576106ee600284015461337c565b601f811161093e575b506020601f82116001146108cf5781929394956000926108c4575b50508160011b916000199060031b1c19161760028301555b6060810151600383015560808101518051906001600160401b0382116108ae57610757600485015461337c565b601f8111610863575b50602090601f83116001146107f05791806005949260a0946000926107e5575b50508160011b916000199060031b1c19161760048501555b01519101556009547f1243a0379e4e37663c88f3bc1d8bdb9a3ca74f533be3a0cf855f3f80cbf46715604051602435815260406020820152806107e033956040830190613007565b0390a3005b015190508780610780565b90601f198316916004860160005260206000209260005b81811061084b575092600192859260a0966005989610610832575b505050811b016004850155610798565b015160001960f88460031b161c19169055878080610822565b92936020600181928786015181550195019301610807565b600485016000526020600020601f840160051c810191602085106108a4575b601f0160051c01905b8181106108985750610760565b6000815560010161088b565b9091508190610882565b634e487b7160e01b600052604160045260246000fd5b015190508580610712565b6002840160005260206000209060005b601f1984168110610926575060019394959683601f1981161061090d575b505050811b01600283015561072a565b015160001960f88460031b161c191690558580806108fd565b9091602060018192858b0151815501930191016108df565b600284016000526020600020601f830160051c81016020841061097e575b601f830160051c820181106109725750506106f7565b6000815560010161095c565b508061095c565b60405162461bcd60e51b8152602060048201526014602482015273496e73756666696369656e742062616c616e636560601b6044820152606490fd5b606460405162461bcd60e51b815260206004820152602060248201527f416d6f756e74206d7573742062652067726561746572207468616e207a65726f6044820152fd5b60405162461bcd60e51b815260206004820152601760248201527f507572706f73652063616e6e6f7420626520656d7074790000000000000000006044820152606490fd5b3461021e57610a5836612f6d565b90600052600b6020526040600020805482101561021e57602091610a7b91613566565b90546040519160031b1c8152f35b3461021e57602036600319011261021e5760043560005260016020526040600020805460018060a01b0360018301541691610b16610ac9600283016133b6565b91600381015490610b036005610ae1600484016133b6565b920154946040519788978852602088015260c0604088015260c0870190613007565b9160608601528482036080860152613007565b9060a08301520390f35b3461021e57600036600319011261021e576005805490610b3f82613788565b90610b4d60405192836130b4565b828252601f19610b5c84613788565b01926020933685850137610b6f81613aa4565b90610b7981613aa4565b9260005b828110610bc057610ba58661049587610bb28b896040519687966060885260608801906134be565b91868303908701526134fb565b9083820360408501526134fb565b80610bcd610c469261352f565b90546001600160a01b039160039190821b1c8216610beb848b6137ef565b5281610bf68461352f565b905490831b1c1660005260008a52600460406000200154610c1784896137ef565b52610c218361352f565b9054911b1c16600052600088528260406000200154610c4082886137ef565b5261362f565b610b7d565b3461021e57600036600319011261021e576040518060055480825282602080930160056000527f036b6384b5eca791c62761152d0c79bb0604c104a5fb6f4eb0703f3154bb3db09260005b85828210610cc157505050610cad925003836130b4565b6104956040519282849384528301906134be565b85546001600160a01b0316845260019586019588955093019201610c96565b3461021e57606036600319011261021e576024356001600160401b03811161021e57610d109036906004016130d5565b6044356001600160401b03811161021e57610d2f9036906004016130d5565b90336000526000602052610d4d60ff6001604060002001541661363e565b610d5a600435151561384f565b80511561113257610d6d825115156136b0565b60075490610d7a8261362f565b600755604051610d8981613098565b8281526020810133815260408201600435815260608301908482528660808501524260a0850152600060c0850152600060e0850152600c54600160401b8110156108ae57806001610ddd9201600c5561332b565b93909361111c5784518455516001840180546001600160a01b0319166001600160a01b0392909216919091179055516002830155518051906001600160401b0382116108ae578190610e32600385015461337c565b601f81116110c9575b50602090601f83116001146110575760009261104c575b50508160011b916000199060031b1c19161760038201555b60808201518051906001600160401b0382116108ae57610e8d600484015461337c565b601f8111611005575b50602090601f8311600114610f6c577f09569327b0ebac7ebd8d677c9f6449afaf57b97a2a0d523adc4a0ad31b3f00c7959383610f52969460e094600694600092610f61575b50508160011b916000199060031b1c19161760048201555b60a084015160058201550191610f1c60c08201511515849060ff801983541691151516179055565b0151151561ff0082549160081b169061ff0019161790556107e06040519283926004358452606060208501526060840190613007565b82810360408401523396613007565b015190508b80610edc565b90601f198316916004850160005260206000209260005b818110610fed57508460e0946006947f09569327b0ebac7ebd8d677c9f6449afaf57b97a2a0d523adc4a0ad31b3f00c79a9894610f529a9860019510610fd4575b505050811b016004820155610ef4565b015160001960f88460031b161c191690558b8080610fc4565b92936020600181928786015181550195019301610f83565b600484016000526020600020601f840160051c810160208510611045575b601f830160051c82018110611039575050610e96565b60008155600101611023565b5080611023565b015190508780610e52565b9250600384016000526020600020906000935b601f19841685106110ae576001945083601f19811610611095575b505050811b016003820155610e6a565b015160001960f88460031b161c19169055878080611085565b8181015183556020948501946001909301929091019061106a565b909150600384016000526020600020601f840160051c810160208510611115575b90849392915b601f830160051c82018110611106575050610e3b565b600081558594506001016110f0565b50806110ea565b634e487b7160e01b600052600060045260246000fd5b60405162461bcd60e51b8152602060048201526016602482015275526561736f6e2063616e6e6f7420626520656d70747960501b6044820152606490fd5b3461021e5760208060031936011261021e5760043561118d613709565b508015158061124e575b1561121557600052600181526040600020906005604051926111b88461307d565b8054845260018101546001600160a01b0316838501526111da600282016133b6565b6040850152600381015460608501526111f5600482016133b6565b6080850152015460a083015261049560405192828493845283019061326e565b60405162461bcd60e51b8152600481018390526011602482015270125b9d985b1a59081c9958dbdc99081251607a1b6044820152606490fd5b50600954811115611197565b3461021e5761126836613244565b90600081600093600754945b85811061135257509161128a6112989383613622565b9080821161134a57506136fc565b6112a1816139df565b9360009160005b85811080611341575b156113335760016112c18261332b565b50818060a01b03918291015416908416146112e5575b6112e09061362f565b6112a8565b926112fa81866112e09310156113025761362f565b9390506112d7565b6104cd61130e8761332b565b5061132261131c8a856136fc565b91613967565b61132c828d6137ef565b528a6137ef565b60405180610495898261345c565b508184106112b1565b90508661046d565b90915060016113608261332b565b50818060a01b0391829101541690871614611387575b61137f9061362f565b908391611274565b9161139461137f9161362f565b929050611376565b3461021e576113aa36612f6d565b600954808310156114ac5782906113c283151561373c565b806113cd8484613622565b1161149b575b50506113de8161379f565b9160005b8281106113f7576040518061049586826132c9565b6114018183613622565b9060018083018093116114855761148092600052600560208281526040600020906040519361142f8561307d565b825485528201546001600160a01b03169084015261144f600282016133b6565b60408401526003810154606084015261146a600482016133b6565b6080840152015460a08201526104c282876137ef565b6113e2565b634e487b7160e01b600052601160045260246000fd5b6114a592506136fc565b81836113d3565b60405162461bcd60e51b815260206004820152601b60248201527f4f66667365742065786365656473207265636f726420636f756e7400000000006044820152606490fd5b3461021e57600036600319011261021e57600d546001600160a01b039061151b908216331461357e565b600e5462015180810180911161148557421061169a57670de0b6b3a7640000908147106116555760055460009081805b8281106115f357505050169081156115ae578160005260006020526002604060002001805491808301809311611485577f8e3a90176f65d9f17b62ae9970b50ff21e66bba05788435310f6e12c942b0b37926020925542600e55604051908152a2005b60405162461bcd60e51b815260206004820152601a60248201527f4e6f20656c696769626c6520656e74697469657320666f756e640000000000006044820152606490fd5b846115fd8261352f565b90549060031b1c16806000526000602052604060002060ff60018201541680611648575b611636575b50506116319061362f565b61154b565b60040154909450915061163187611626565b5083600482015411611621565b60405162461bcd60e51b815260206004820152601d60248201527f496e73756666696369656e7420636f6e74726163742062616c616e63650000006044820152606490fd5b60405162461bcd60e51b815260206004820152601c60248201527f546f6f20736f6f6e20746f206469737472696275746520626f6e7573000000006044820152606490fd5b3461021e576116f361170361045936612f6d565b600a548082116104d857506136fc565b61170c81613b02565b9160005b8281106117255760405180610495868261312b565b61172f8183613622565b906001808301809311611485576117a89260005260056002602090808252604060002091604051946117608661307d565b83548652830154908501528101546001600160a01b03166040840152611788600382016133b6565b606084015260048101546080840152015460a08201526104c282876137ef565b611710565b3461021e57600036600319011261021e576020600654604051908152f35b3461021e57602036600319011261021e576001600160a01b036117ec612ff1565b1680600052600060205261181360ff60016040600020015416801580611891575b50613803565b60005260006020526060604060002060c06040519161183183613062565b61183a816133b6565b835260ff600182015416151560208401526002810154604084015260038101548484015260048101549283608082015260066005830154928360a08401520154928391015260405192835260208301526040820152f35b90508361180d565b3461021e57602036600319011261021e5760043560005260026020526040600020805460018201549160018060a01b0360028201541661190c6118de600384016133b6565b600560048501549401549260405196879687526020870152604086015260c0606086015260c0850190613007565b91608084015260a08301520390f35b3461021e57602036600319011261021e57600435600c5481101561021e576119429061332b565b50805460018060a01b036001830154169160ff60028201546119b5611969600385016133b6565b6119a7611978600487016133b6565b916006600588015497015494604051998a998a5260208a015260408901526101008060608a0152880190613007565b908682036080880152613007565b9260a0850152818116151560c085015260081c16151560e08301520390f35b3461021e57600036600319011261021e576020604051670de0b6b3a76400008152f35b3461021e57611a0536613244565b9060018060a01b03809316918260005260209360008552600193611a3a60ff866040600020015416801580611c025750613803565b600854906000865b83811115611bc6575080861015611b835790858792611a6287151561373c565b80611a6d8884613622565b11611b70575b50509050611a8084613a54565b9660009460009388805b611a9d575b604051806104958d82612f83565b8181111580611b67575b15611b625790818a959493926000528b60038086526040600020908a898301541691888314611ae8575b50505050611ade9061362f565b9091929394611a8a565b8d8d959d1015611b0f575b50505050611b03611ade9161362f565b9890508b8d8080611ad1565b8a611b0394611b5894611ade979d946104cd9460405192611b2f84613047565b815484528d8401526002810154604084015201546060820152611b5283836137ef565b526137ef565b97918d918f611af3565b611a8f565b50828610611aa7565b611b7b9296506136fc565b938589611a73565b6064886040519062461bcd60e51b825280600483015260248201527f4f6666736574206578636565647320656e746974792066756e6420636f756e746044820152fd5b8060005260038952828589604060002001541614611bed575b611be89061362f565b611a42565b90611bfa611be89161362f565b919050611bdf565b90508861180d565b3461021e57604036600319011261021e57611c23612ff1565b6001600160a01b0316600081815260208181526040909120600101546024929183359160ff1615611e1757600182101580611e0c575b15611dc9573360005260048152604060002083600052815260ff60406000205416611d775782600052600081526040600020600560048201549101549081810290808204831490151715611d4d5783611cb191613622565b60018201809211611d4d578115611d625760059185600052600084526040600020910460048201550180549060018201809211611d4d57907f174ba19ba3c8bb5c679c87e51db79fff7c3f04bb84c1fd55b7dacb470b674aa6929155836000526000815242600660406000200155336000526004815260406000208460005281526040600020600160ff198254161790556040519283523392a3005b85634e487b7160e01b60005260116004526000fd5b85634e487b7160e01b60005260126004526000fd5b6084906026856040519262461bcd60e51b845260048401528201527f596f75206861766520616c726561647920766f74656420666f72207468697320604482015265656e7469747960d01b6064820152fd5b606490601e856040519262461bcd60e51b845260048401528201527f526174696e67206d757374206265206265747765656e203120616e64203500006044820152fd5b506005821115611c59565b6064906014856040519262461bcd60e51b8452600484015282015273456e74697479206973206e6f742061637469766560601b6044820152fd5b3461021e57602036600319011261021e576001600160a01b03611e72612ff1565b166000526004602052604060002033600052602052602060ff604060002054166040519015158152f35b3461021e57600036600319011261021e57611ec260018060a01b03600d5416331461357e565b602047604051908152f35b3461021e57600036600319011261021e57600d546040516001600160a01b039091168152602090f35b3461021e57600036600319011261021e576020600554604051908152f35b3461021e57600036600319011261021e576020600754604051908152f35b3461021e57602036600319011261021e5760043560018060a01b03611f5c81600d5416331461357e565b611f69600754831061389b565b6001611f748361332b565b5060068101610100815460ff81161580611fc5575b611f92906138dc565b61ff001916179055015416907f4323a3f8bbbcf284e67a4932738f0f8fe465297d522b256e4f863ffbbf22c7ee600080a3005b50600881901c60ff1615611f89565b3461021e57611fe236613244565b9060018060a01b03809316918260005260206000815260019361201660ff866040600020015416801580611c025750613803565b600954906000865b838111156121c657508086101561217657859061203c86151561373c565b806120478784613622565b11612163575b50506120588461379f565b9660009460009388805b612075575b604051806104958d826132c9565b818111158061215a575b156121555790818a9493926000528488528b60406000208587820154168881146120b9575b5050506120b09061362f565b90919293612062565b908a918d8d959d10156120e2575b505050506120d76120b09161362f565b9890508b8d806120a4565b8a6120d7946121489460056120b0989e956104cd95604051936121048561307d565b82548552840152612117600282016133b6565b604084015260038101546060840152612132600482016133b6565b6080840152015460a0820152611b5283836137ef565b979150508b888e806120c7565b612067565b5082861061207f565b61216e9295506136fc565b92848861204d565b60405162461bcd60e51b815260048101859052602260248201527f4f6666736574206578636565647320656e74697479207265636f726420636f756044820152611b9d60f21b6064820152608490fd5b806000528785528289896040600020015416146121ec575b6121e79061362f565b61201e565b906121f96121e79161362f565b9190506121de565b3461021e57602036600319011261021e576104956122346104b2600435612226613928565b506104ad600754821061389b565b6040519182916020835260208301906131d1565b3461021e57604036600319011261021e57612261612ff1565b6001600160a01b03602435818116929083900361021e57166000526004602052604060002090600052602052602060ff604060002054166040519015158152f35b3461021e57600036600319011261021e576020600854604051908152f35b3461021e5760208060031936011261021e57600435600052600b81526040600020604051808284829454938481520190600052846000209260005b8682821061238f5784612310818603826130b4565b61231a8151613b02565b9160005b8251811015612381578061233561237c92856137ef565b51600052600280845260056040600020604051926123528461307d565b815484526001820154878501528101546001600160a01b03166040840152611788600382016133b6565b61231e565b60405180610495868261312b565b85548452600195860195879550930192016122fb565b3461021e57604036600319011261021e576123be612ff1565b6001600160401b039060243582811161021e576123df9036906004016130d5565b916123f560018060a01b03600d5416331461357e565b6001600160a01b038216156126f8578251156126b3576001600160a01b03821660009081526020819052604090206001015460ff166126625760405161243a81613062565b83815260016020820152600060408201526000606082015260006080820152600060a0820152600060c082015260018060a01b0383166000526000602052604060002091815180519182116108ae57612493845461337c565b601f811161261e575b50602090601f83116001146125af5791806006949260c0946000926125a4575b50508160011b916000199060031b1c19161784555b6124f060208201511515600186019060ff801983541691151516179055565b60408101516002850155606081015160038501556080810151600485015560a081015160058501550151910155600554600160401b8110156108ae577f1b7e3d9f922be54960ce9bea1d47b9b6ea18bbafb4e0fdeedc5e2a668e8fdaf89161256182600161259f940160055561352f565b81549060031b9060018060a01b038416821b9160018060a01b03901b19161790556040519182916020835260018060a01b0316946020830190613007565b0390a2005b0151905088806124bc565b908460005260206000209160005b601f19851681106126065750926006949260019260c09583601f198116106125ed575b505050811b0184556124d1565b015160001960f88460031b161c191690558880806125e0565b919260206001819286850151815501940192016125bd565b846000526020600020601f840160051c81016020851061265b575b601f830160051c8201811061264f57505061249c565b60008155600101612639565b5080612639565b60405162461bcd60e51b8152602060048201526024808201527f456e7469747920616c7265616479207265676973746572656420616e642061636044820152637469766560e01b6064820152608490fd5b60405162461bcd60e51b815260206004820152601b60248201527f456e74697479206e616d652063616e6e6f7420626520656d70747900000000006044820152606490fd5b60405162461bcd60e51b815260206004820152601d60248201527f456e7469747920616464726573732063616e6e6f74206265207a65726f0000006044820152606490fd5b3461021e57606036600319011261021e576001600160401b0360243581811161021e5761276e9036906004016130d5565b9033600052600060205261278c60ff6001604060002001541661363e565b600435600052600160205260018060a01b039033826001604060002001541603612ac2576127bd604435151561384f565b825115612a7d5733600052600060205260443560036040600020015410612a395733600052600060205260036040600020016127fc60443582546136fc565b9055612809600a5461362f565b9081600a556040519161281b8361307d565b808352602083019360043585526040840190338252606085019287845260443560808701524260a0870152600052600260205260406000209585518755516001870155600286019151166001600160601b0360a01b8254161790555180519182116108ae5761288d600385015461337c565b601f81116129f2575b50602090601f831160011461297d5791806005949260a094600092612972575b50508160011b916000199060031b1c19161760038501555b608081015160048501550151910155600435600052600b6020526040600020600a54908054600160401b8110156108ae5761290e91600182018155613566565b819291549060031b91821b91600019901b1916179055600a5461293c60405192604084526040840190613007565b9060443560208401527f6a6b3e9a68b09e7e4efa25d186c63204b5ceb3777d516eb58090aff71935dbc1339380600435940390a4005b0151905087806128b6565b906003850160005260206000209160005b601f19851681106129da5750926005949260019260a09583601f198116106129c1575b505050811b0160038501556128ce565b015160001960f88460031b161c191690558780806129b1565b9192602060018192868501518155019401920161298e565b600385016000526020600020601f840160051c810160208510612a32575b601f830160051c82018110612a26575050612896565b60008155600101612a10565b5080612a10565b606460405162461bcd60e51b815260206004820152602060248201527f496e73756666696369656e74206e656564546f5370656e642062616c616e63656044820152fd5b60405162461bcd60e51b815260206004820152601b60248201527f4465736372697074696f6e2063616e6e6f7420626520656d70747900000000006044820152606490fd5b608460405162461bcd60e51b815260206004820152604060248201527f4e6f7420617574686f72697a656420746f20616464206d6963726f2d7472616e60448201527f73616374696f6e7320746f2074686973207370656e64696e67207265636f72646064820152fd5b3461021e57602036600319011261021e5760043560005260036020526080604060002080549060018060a01b03600182015416906003600282015491015491604051938452602084015260408301526060820152f35b3461021e57602036600319011261021e576001600160a01b03612ba3612ff1565b16806000526000602052612bc960ff600160406000200154168015806118915750613803565b6000526000602052612c4c6040600020604051612be581613062565b612bee826133b6565b9182825260ff60018201541615159182602082015260028201549081604082015260c0600660038501549485606085015260048101546080850152600581015460a08501520154910152604051948594608086526080860190613007565b926020850152604084015260608301520390f35b3461021e57602036600319011261021e57600435612c7c613a2f565b5080151580612d3c575b15612d0557600052600360205260806040600020600360405191612ca983613047565b8054835260018060a01b0360018201541660208401526002810154604084015201546060820152612d036040518092606080918051845260018060a01b036020820151166020850152604081015160408501520151910152565bf35b60405162461bcd60e51b815260206004820152600f60248201526e125b9d985b1a5908199d5b99081251608a1b6044820152606490fd5b50600854811115612c86565b3461021e57602036600319011261021e5760043560018060a01b03612d7281600d5416331461357e565b612d7f600754831061389b565b612d888261332b565b50600681016001815460ff81161580612e01575b612da5906138dc565b60ff191617905560016002820154910190828254166000526000602052612dd56002604060002001918254613622565b90555416907f2f14cf4ee725545bfe00e4128e96a1c8143718c3738cb5395484377ea6743630600080a3005b50600881901c60ff1615612d9c565b3461021e57612e1e36612f6d565b60085480831015612ee8578290612e3683151561373c565b80612e418484613622565b11612ed7575b5050612e5281613a54565b9160005b828110612e6b57604051806104958682612f83565b612e758183613622565b90600180830180931161148557612ed2926000526003602081815260406000209060405193612ea385613047565b825485528201546001600160a01b03169084015260028101546040840152015460608201526104c282876137ef565b612e56565b612ee192506136fc565b8183612e47565b606460405162461bcd60e51b815260206004820152602060248201527f4f66667365742065786365656473206973737565642066756e6420636f756e746044820152fd5b3461021e57600036600319011261021e576020604051620151808152f35b3461021e57600036600319011261021e576020612f65613ad6565b604051908152f35b604090600319011261021e576004359060243590565b6020908160408183019282815285518094520193019160005b828110612faa575050505090565b9091929382608082612fe56001948951606080918051845260018060a01b036020820151166020850152604081015160408501520151910152565b01950193929101612f9c565b600435906001600160a01b038216820361021e57565b919082519283825260005b848110613033575050826000602080949584010152601f8019910116010190565b602081830181015184830182015201613012565b608081019081106001600160401b038211176108ae57604052565b60e081019081106001600160401b038211176108ae57604052565b60c081019081106001600160401b038211176108ae57604052565b61010081019081106001600160401b038211176108ae57604052565b90601f801991011681019081106001600160401b038211176108ae57604052565b81601f8201121561021e578035906001600160401b0382116108ae5760405192613109601f8401601f1916602001856130b4565b8284526020838301011161021e57816000926020809301838601378301015290565b602080820190808352835180925260409283810182858560051b8401019601946000925b858410613160575050505050505090565b909192939495968580600192603f198582030187528a5190815181528282015183820152848060a01b038783015116878201526131ac6060808401519060c08091850152830190613007565b916080808201519083015260a08091015191015299019401940192959493919061314f565b908151815260018060a01b0360208301511660208201526040820151604082015260e0806132236132116060860151610100806060880152860190613007565b60808601518582036080870152613007565b9360a081015160a085015260c0810151151560c08501520151151591015290565b606090600319011261021e576004356001600160a01b038116810361021e57906024359060443590565b908151815260018060a01b03602083015116602082015260a0806132c06132a4604086015160c0604087015260c0860190613007565b6060860151606086015260808601518582036080870152613007565b93015191015290565b602080820190808352835180925260408301928160408460051b8301019501936000915b8483106132fd5750505050505090565b909192939495848061331b600193603f198682030187528a5161326e565b98019301930191949392906132ed565b600c5481101561336657600790600c600052027fdf6966c971051c3d54ec59162606531493a51404a002842f56009d7e5cf4a8c70190600090565b634e487b7160e01b600052603260045260246000fd5b90600182811c921680156133ac575b602083101461339657565b634e487b7160e01b600052602260045260246000fd5b91607f169161338b565b90604051918260008254926133ca8461337c565b90818452600194858116908160001461343957506001146133f6575b50506133f4925003836130b4565b565b9093915060005260209081600020936000915b8183106134215750506133f4935082010138806133e6565b85548884018501529485019487945091830191613409565b9150506133f494506020925060ff191682840152151560051b82010138806133e6565b602080820190808352835180925260408301928160408460051b8301019501936000915b8483106134905750505050505090565b90919293949584806134ae600193603f198682030187528a516131d1565b9801930193019194939290613480565b90815180825260208080930193019160005b8281106134de575050505090565b83516001600160a01b0316855293810193928101926001016134d0565b90815180825260208080930193019160005b82811061351b575050505090565b83518552938101939281019260010161350d565b6005548110156133665760056000527f036b6384b5eca791c62761152d0c79bb0604c104a5fb6f4eb0703f3154bb3db00190600090565b80548210156133665760005260206000200190600090565b1561358557565b60405162461bcd60e51b815260206004820152602f60248201527f4f6e6c792063656e7472616c20676f7665726e6d656e742063616e207065726660448201526e37b936903a3434b99030b1ba34b7b760891b6064820152608490fd5b156135e957565b60405162461bcd60e51b8152602060048201526011602482015270456e74697479206e6f742061637469766560781b6044820152606490fd5b9190820180921161148557565b60001981146114855760010190565b1561364557565b60405162461bcd60e51b815260206004820152603760248201527f4f6e6c7920616374697665207265676973746572656420656e7469746965732060448201527f63616e20706572666f726d207468697320616374696f6e0000000000000000006064820152608490fd5b156136b757565b60405162461bcd60e51b815260206004820152601d60248201527f446f63756d656e7420686173682063616e6e6f7420626520656d7074790000006044820152606490fd5b9190820391821161148557565b604051906137168261307d565b600060a08382815282602082015260606040820152826060820152606060808201520152565b1561374357565b60405162461bcd60e51b815260206004820152601f60248201527f4c696d6974206d7573742062652067726561746572207468616e207a65726f006044820152606490fd5b6001600160401b0381116108ae5760051b60200190565b906137a982613788565b6137b660405191826130b4565b82815280926137c7601f1991613788565b019060005b8281106137d857505050565b6020906137e3613709565b828285010152016137cc565b80518210156133665760209160051b010190565b1561380a57565b60405162461bcd60e51b815260206004820152601760248201527f4e6f742061207265676973746572656420656e746974790000000000000000006044820152606490fd5b1561385657565b60405162461bcd60e51b815260206004820152601d60248201527f416d6f756e74206d7573742062652067726561746572207468616e20300000006044820152606490fd5b156138a257565b60405162461bcd60e51b8152602060048201526012602482015271125b9d985b1a59081c995c5d595cdd08125160721b6044820152606490fd5b156138e357565b60405162461bcd60e51b815260206004820152601960248201527f5265717565737420616c72656164792070726f636573736564000000000000006044820152606490fd5b6040519061393582613098565b8160e0600091828152826020820152826040820152606080820152606060808201528260a08201528260c08201520152565b9060405161397481613098565b60e060ff600683958054855260018060a01b036001820154166020860152600281015460408601526139a8600382016133b6565b60608601526139b9600482016133b6565b6080860152600581015460a08601520154818116151560c085015260081c161515910152565b906139e982613788565b6139f660405191826130b4565b8281528092613a07601f1991613788565b019060005b828110613a1857505050565b602090613a23613928565b82828501015201613a0c565b60405190613a3c82613047565b60006060838281528260208201528260408201520152565b90613a5e82613788565b613a6b60405191826130b4565b8281528092613a7c601f1991613788565b019060005b828110613a8d57505050565b602090613a98613a2f565b82828501015201613a81565b90613aae82613788565b613abb60405191826130b4565b8281528092613acc601f1991613788565b0190602036910137565b600e546201518081018091116114855780421015613afc57613af99042906136fc565b90565b50600090565b90613b0c82613788565b604090613b1b825191826130b4565b8381528093613b2c601f1991613788565b019160005b838110613b3e5750505050565b6020908251613b4c8161307d565b600081528260008183015260008583015260608083015260006080830152600060a0830152828601015201613b3156fea26469706673582212201607fb2ee93358c09efa74f35232679075f8978fe3ef87a4c38b8b0ee2ba53d764736f6c63430008130033",
  "linkReferences": {},
  "deployedLinkReferences": {}
}