{
  "_format": "hh-sol-artifact-1",
  "contractName": "SimplifiedSpendingRegistry",
  "sourceName": "contracts/SimplifiedSpendingRegistry.sol",
  "abi": [
    {
      "inputs": [],
      "stateMutability": "nonpayable",
      "type": "constructor"
    },
    {
      "anonymous": false,
      "inputs": [
        {
          "indexed": true,
          "internalType": "address",
          "name": "entityAddress",
          "type": "address"
        }
      ],
      "name": "EntityDeactivated",
      "type": "event"
    },
    {
      "anonymous": false,
      "inputs": [
        {
          "indexed": true,
          "internalType": "address",
          "name": "entityAddress",
          "type": "address"
        },
        {
          "indexed": false,
          "internalType": "string",
          "name": "name",
          "type": "string"
        }
      ],
      "name": "EntityRegistered",
      "type": "event"
    },
    {
      "anonymous": false,
      "inputs": [
        {
          "indexed": true,
          "internalType": "uint256",
          "name": "id",
          "type": "uint256"
        },
        {
          "indexed": true,
          "internalType": "address",
          "name": "entity",
          "type": "address"
        }
      ],
      "name": "FundRequestApproved",
      "type": "event"
    },
    {
      "anonymous": false,
      "inputs": [
        {
          "indexed": true,
          "internalType": "uint256",
          "name": "id",
          "type": "uint256"
        },
        {
          "indexed": true,
          "internalType": "address",
          "name": "entity",
          "type": "address"
        }
      ],
      "name": "FundRequestRejected",
      "type": "event"
    },
    {
      "anonymous": false,
      "inputs": [
        {
          "indexed": true,
          "internalType": "uint256",
          "name": "id",
          "type": "uint256"
        },
        {
          "indexed": true,
          "internalType": "address",
          "name": "entity",
          "type": "address"
        },
        {
          "indexed": false,
          "internalType": "uint256",
          "name": "amount",
          "type": "uint256"
        },
        {
          "indexed": false,
          "internalType": "string",
          "name": "reason",
          "type": "string"
        },
        {
          "indexed": false,
          "internalType": "string",
          "name": "documentHash",
          "type": "string"
        }
      ],
      "name": "FundRequested",
      "type": "event"
    },
    {
      "anonymous": false,
      "inputs": [
        {
          "indexed": true,
          "internalType": "address",
          "name": "to",
          "type": "address"
        },
        {
          "indexed": false,
          "internalType": "uint256",
          "name": "amount",
          "type": "uint256"
        }
      ],
      "name": "FundsIssued",
      "type": "event"
    },
    {
      "anonymous": false,
      "inputs": [
        {
          "indexed": true,
          "internalType": "uint256",
          "name": "id",
          "type": "uint256"
        },
        {
          "indexed": true,
          "internalType": "address",
          "name": "entity",
          "type": "address"
        },
        {
          "indexed": false,
          "internalType": "uint256",
          "name": "amount",
          "type": "uint256"
        },
        {
          "indexed": false,
          "internalType": "string",
          "name": "documentHash",
          "type": "string"
        }
      ],
      "name": "SpendingRecorded",
      "type": "event"
    },
    {
      "inputs": [
        {
          "internalType": "uint256",
          "name": "requestId",
          "type": "uint256"
        }
      ],
      "name": "approveFundRequest",
      "outputs": [],
      "stateMutability": "nonpayable",
      "type": "function"
    },
    {
      "inputs": [],
      "name": "centralGovernment",
      "outputs": [
        {
          "internalType": "address",
          "name": "",
          "type": "address"
        }
      ],
      "stateMutability": "view",
      "type": "function"
    },
    {
      "inputs": [
        {
          "internalType": "address",
          "name": "entityAddress",
          "type": "address"
        }
      ],
      "name": "deactivateEntity",
      "outputs": [],
      "stateMutability": "nonpayable",
      "type": "function"
    },
    {
      "inputs": [
        {
          "internalType": "uint256",
          "name": "",
          "type": "uint256"
        }
      ],
      "name": "entityAddresses",
      "outputs": [
        {
          "internalType": "address",
          "name": "",
          "type": "address"
        }
      ],
      "stateMutability": "view",
      "type": "function"
    },
    {
      "inputs": [
        {
          "internalType": "uint256",
          "name": "",
          "type": "uint256"
        }
      ],
      "name": "fundRequests",
      "outputs": [
        {
          "internalType": "uint256",
          "name": "id",
          "type": "uint256"
        },
        {
          "internalType": "address",
          "name": "entity",
          "type": "address"
        },
        {
          "internalType": "uint256",
          "name": "amount",
          "type": "uint256"
        },
        {
          "internalType": "string",
          "name": "reason",
          "type": "string"
        },
        {
          "internalType": "string",
          "name": "documentHash",
          "type": "string"
        },
        {
          "internalType": "uint256",
          "name": "timestamp",
          "type": "uint256"
        },
        {
          "internalType": "bool",
          "name": "isApproved",
          "type": "bool"
        },
        {
          "internalType": "bool",
          "name": "isRejected",
          "type": "bool"
        }
      ],
      "stateMutability": "view",
      "type": "function"
    },
    {
      "inputs": [],
      "name": "getAllEntityAddresses",
      "outputs": [
        {
          "internalType": "address[]",
          "name": "",
          "type": "address[]"
        }
      ],
      "stateMutability": "view",
      "type": "function"
    },
    {
      "inputs": [],
      "name": "getContractBalance",
      "outputs": [
        {
          "internalType": "uint256",
          "name": "",
          "type": "uint256"
        }
      ],
      "stateMutability": "view",
      "type": "function"
    },
    {
      "inputs": [],
      "name": "getEntityCount",
      "outputs": [
        {
          "internalType": "uint256",
          "name": "",
          "type": "uint256"
        }
      ],
      "stateMutability": "view",
      "type": "function"
    },
    {
      "inputs": [
        {
          "internalType": "address",
          "name": "entityAddress",
          "type": "address"
        }
      ],
      "name": "getEntityDetails",
      "outputs": [
        {
          "internalType": "string",
          "name": "name",
          "type": "string"
        },
        {
          "internalType": "bool",
          "name": "isActive",
          "type": "bool"
        },
        {
          "internalType": "uint256",
          "name": "balance",
          "type": "uint256"
        }
      ],
      "stateMutability": "view",
      "type": "function"
    },
    {
      "inputs": [
        {
          "internalType": "address",
          "name": "entityAddress",
          "type": "address"
        },
        {
          "internalType": "uint256",
          "name": "offset",
          "type": "uint256"
        },
        {
          "internalType": "uint256",
          "name": "limit",
          "type": "uint256"
        }
      ],
      "name": "getEntityFundRequests",
      "outputs": [
        {
          "components": [
            {
              "internalType": "uint256",
              "name": "id",
              "type": "uint256"
            },
            {
              "internalType": "address",
              "name": "entity",
              "type": "address"
            },
            {
              "internalType": "uint256",
              "name": "amount",
              "type": "uint256"
            },
            {
              "internalType": "string",
              "name": "reason",
              "type": "string"
            },
            {
              "internalType": "string",
              "name": "documentHash",
              "type": "string"
            },
            {
              "internalType": "uint256",
              "name": "timestamp",
              "type": "uint256"
            },
            {
              "internalType": "bool",
              "name": "isApproved",
              "type": "bool"
            },
            {
              "internalType": "bool",
              "name": "isRejected",
              "type": "bool"
            }
          ],
          "internalType": "struct SimplifiedSpendingRegistry.FundRequest[]",
          "name": "",
          "type": "tuple[]"
        }
      ],
      "stateMutability": "view",
      "type": "function"
    },
    {
      "inputs": [
        {
          "internalType": "address",
          "name": "entityAddress",
          "type": "address"
        },
        {
          "internalType": "uint256",
          "name": "offset",
          "type": "uint256"
        },
        {
          "internalType": "uint256",
          "name": "limit",
          "type": "uint256"
        }
      ],
      "name": "getEntitySpendingRecords",
      "outputs": [
        {
          "components": [
            {
              "internalType": "uint256",
              "name": "id",
              "type": "uint256"
            },
            {
              "internalType": "address",
              "name": "entity",
              "type": "address"
            },
            {
              "internalType": "string",
              "name": "purpose",
              "type": "string"
            },
            {
              "internalType": "uint256",
              "name": "amount",
              "type": "uint256"
            },
            {
              "internalType": "string",
              "name": "documentHash",
              "type": "string"
            },
            {
              "internalType": "uint256",
              "name": "timestamp",
              "type": "uint256"
            }
          ],
          "internalType": "struct SimplifiedSpendingRegistry.SpendingRecord[]",
          "name": "",
          "type": "tuple[]"
        }
      ],
      "stateMutability": "view",
      "type": "function"
    },
    {
      "inputs": [
        {
          "internalType": "uint256",
          "name": "requestId",
          "type": "uint256"
        }
      ],
      "name": "getFundRequest",
      "outputs": [
        {
          "components": [
            {
              "internalType": "uint256",
              "name": "id",
              "type": "uint256"
            },
            {
              "internalType": "address",
              "name": "entity",
              "type": "address"
            },
            {
              "internalType": "uint256",
              "name": "amount",
              "type": "uint256"
            },
            {
              "internalType": "string",
              "name": "reason",
              "type": "string"
            },
            {
              "internalType": "string",
              "name": "documentHash",
              "type": "string"
            },
            {
              "internalType": "uint256",
              "name": "timestamp",
              "type": "uint256"
            },
            {
              "internalType": "bool",
              "name": "isApproved",
              "type": "bool"
            },
            {
              "internalType": "bool",
              "name": "isRejected",
              "type": "bool"
            }
          ],
          "internalType": "struct SimplifiedSpendingRegistry.FundRequest",
          "name": "",
          "type": "tuple"
        }
      ],
      "stateMutability": "view",
      "type": "function"
    },
    {
      "inputs": [
        {
          "internalType": "uint256",
          "name": "offset",
          "type": "uint256"
        },
        {
          "internalType": "uint256",
          "name": "limit",
          "type": "uint256"
        }
      ],
      "name": "getFundRequests",
      "outputs": [
        {
          "components": [
            {
              "internalType": "uint256",
              "name": "id",
              "type": "uint256"
            },
            {
              "internalType": "address",
              "name": "entity",
              "type": "address"
            },
            {
              "internalType": "uint256",
              "name": "amount",
              "type": "uint256"
            },
            {
              "internalType": "string",
              "name": "reason",
              "type": "string"
            },
            {
              "internalType": "string",
              "name": "documentHash",
              "type": "string"
            },
            {
              "internalType": "uint256",
              "name": "timestamp",
              "type": "uint256"
            },
            {
              "internalType": "bool",
              "name": "isApproved",
              "type": "bool"
            },
            {
              "internalType": "bool",
              "name": "isRejected",
              "type": "bool"
            }
          ],
          "internalType": "struct SimplifiedSpendingRegistry.FundRequest[]",
          "name": "",
          "type": "tuple[]"
        }
      ],
      "stateMutability": "view",
      "type": "function"
    },
    {
      "inputs": [
        {
          "internalType": "uint256",
          "name": "recordId",
          "type": "uint256"
        }
      ],
      "name": "getSpendingRecord",
      "outputs": [
        {
          "components": [
            {
              "internalType": "uint256",
              "name": "id",
              "type": "uint256"
            },
            {
              "internalType": "address",
              "name": "entity",
              "type": "address"
            },
            {
              "internalType": "string",
              "name": "purpose",
              "type": "string"
            },
            {
              "internalType": "uint256",
              "name": "amount",
              "type": "uint256"
            },
            {
              "internalType": "string",
              "name": "documentHash",
              "type": "string"
            },
            {
              "internalType": "uint256",
              "name": "timestamp",
              "type": "uint256"
            }
          ],
          "internalType": "struct SimplifiedSpendingRegistry.SpendingRecord",
          "name": "",
          "type": "tuple"
        }
      ],
      "stateMutability": "view",
      "type": "function"
    },
    {
      "inputs": [
        {
          "internalType": "uint256",
          "name": "offset",
          "type": "uint256"
        },
        {
          "internalType": "uint256",
          "name": "limit",
          "type": "uint256"
        }
      ],
      "name": "getSpendingRecords",
      "outputs": [
        {
          "components": [
            {
              "internalType": "uint256",
              "name": "id",
              "type": "uint256"
            },
            {
              "internalType": "address",
              "name": "entity",
              "type": "address"
            },
            {
              "internalType": "string",
              "name": "purpose",
              "type": "string"
            },
            {
              "internalType": "uint256",
              "name": "amount",
              "type": "uint256"
            },
            {
              "internalType": "string",
              "name": "documentHash",
              "type": "string"
            },
            {
              "internalType": "uint256",
              "name": "timestamp",
              "type": "uint256"
            }
          ],
          "internalType": "struct SimplifiedSpendingRegistry.SpendingRecord[]",
          "name": "",
          "type": "tuple[]"
        }
      ],
      "stateMutability": "view",
      "type": "function"
    },
    {
      "inputs": [
        {
          "internalType": "address",
          "name": "",
          "type": "address"
        }
      ],
      "name": "governmentEntities",
      "outputs": [
        {
          "internalType": "string",
          "name": "name",
          "type": "string"
        },
        {
          "internalType": "bool",
          "name": "isActive",
          "type": "bool"
        },
        {
          "internalType": "uint256",
          "name": "balance",
          "type": "uint256"
        }
      ],
      "stateMutability": "view",
      "type": "function"
    },
    {
      "inputs": [
        {
          "internalType": "address",
          "name": "entityAddress",
          "type": "address"
        },
        {
          "internalType": "uint256",
          "name": "amount",
          "type": "uint256"
        }
      ],
      "name": "issueFunds",
      "outputs": [],
      "stateMutability": "payable",
      "type": "function"
    },
    {
      "inputs": [],
      "name": "recordCount",
      "outputs": [
        {
          "internalType": "uint256",
          "name": "",
          "type": "uint256"
        }
      ],
      "stateMutability": "view",
      "type": "function"
    },
    {
      "inputs": [
        {
          "internalType": "string",
          "name": "purpose",
          "type": "string"
        },
        {
          "internalType": "uint256",
          "name": "amount",
          "type": "uint256"
        },
        {
          "internalType": "string",
          "name": "documentHash",
          "type": "string"
        }
      ],
      "name": "recordSpending",
      "outputs": [
        {
          "internalType": "uint256",
          "name": "",
          "type": "uint256"
        }
      ],
      "stateMutability": "nonpayable",
      "type": "function"
    },
    {
      "inputs": [
        {
          "internalType": "address",
          "name": "entityAddress",
          "type": "address"
        },
        {
          "internalType": "string",
          "name": "name",
          "type": "string"
        }
      ],
      "name": "registerEntity",
      "outputs": [],
      "stateMutability": "nonpayable",
      "type": "function"
    },
    {
      "inputs": [
        {
          "internalType": "uint256",
          "name": "requestId",
          "type": "uint256"
        }
      ],
      "name": "rejectFundRequest",
      "outputs": [],
      "stateMutability": "nonpayable",
      "type": "function"
    },
    {
      "inputs": [],
      "name": "requestCount",
      "outputs": [
        {
          "internalType": "uint256",
          "name": "",
          "type": "uint256"
        }
      ],
      "stateMutability": "view",
      "type": "function"
    },
    {
      "inputs": [
        {
          "internalType": "uint256",
          "name": "amount",
          "type": "uint256"
        },
        {
          "internalType": "string",
          "name": "reason",
          "type": "string"
        },
        {
          "internalType": "string",
          "name": "documentHash",
          "type": "string"
        }
      ],
      "name": "requestFunds",
      "outputs": [],
      "stateMutability": "nonpayable",
      "type": "function"
    },
    {
      "inputs": [
        {
          "internalType": "uint256",
          "name": "",
          "type": "uint256"
        }
      ],
      "name": "spendingRecords",
      "outputs": [
        {
          "internalType": "uint256",
          "name": "id",
          "type": "uint256"
        },
        {
          "internalType": "address",
          "name": "entity",
          "type": "address"
        },
        {
          "internalType": "string",
          "name": "purpose",
          "type": "string"
        },
        {
          "internalType": "uint256",
          "name": "amount",
          "type": "uint256"
        },
        {
          "internalType": "string",
          "name": "documentHash",
          "type": "string"
        },
        {
          "internalType": "uint256",
          "name": "timestamp",
          "type": "uint256"
        }
      ],
      "stateMutability": "view",
      "type": "function"
    }
  ],
  "bytecode": "0x608060405234801561001057600080fd5b5033600660006101000a81548173ffffffffffffffffffffffffffffffffffffffff021916908373ffffffffffffffffffffffffffffffffffffffff160217905550614e5d806100616000396000f3fe60806040526004361061014b5760003560e01c8063a089126d116100b6578063dea1f5811161006f578063dea1f581146104ec578063df619ad714610529578063e620f3a014610568578063ea949519146105a5578063ec10be39146105c1578063f24f8241146105fe5761014b565b8063a089126d1461039f578063a30c3519146103dc578063a88c113a14610419578063b041f48014610456578063b17972f91461047f578063bac5d8f9146104aa5761014b565b80635badbe4c116101085780635badbe4c146102845780635d1b45b5146102af5780635dbe526f146102da5780636f9fb98a1461030557806380ee37fa14610330578063900407bc146103745761014b565b806321464bfe146101505780632be837ec1461017957806332b3f568146101b85780634dfa8434146101e15780634fb1c4be1461021e57806358e9f12e1461025b575b600080fd5b34801561015c57600080fd5b5061017760048036038101906101729190613450565b610627565b005b34801561018557600080fd5b506101a0600480360381019061019b91906134db565b610897565b6040516101af939291906135c2565b60405180910390f35b3480156101c457600080fd5b506101df60048036038101906101da9190613735565b610aa2565b005b3480156101ed57600080fd5b5061020860048036038101906102039190613450565b610dc9565b60405161021591906138bf565b60405180910390f35b34801561022a57600080fd5b50610245600480360381019061024091906138e1565b611018565b6040516102529190613a86565b60405180910390f35b34801561026757600080fd5b50610282600480360381019061027d9190613450565b611545565b005b34801561029057600080fd5b50610299611735565b6040516102a69190613aa8565b60405180910390f35b3480156102bb57600080fd5b506102c461173b565b6040516102d19190613aa8565b60405180910390f35b3480156102e657600080fd5b506102ef611748565b6040516102fc9190613ad2565b60405180910390f35b34801561031157600080fd5b5061031a61176e565b6040516103279190613aa8565b60405180910390f35b34801561033c57600080fd5b5061035760048036038101906103529190613450565b611806565b60405161036b989796959493929190613aed565b60405180910390f35b34801561038057600080fd5b506103896119a8565b6040516103969190613aa8565b60405180910390f35b3480156103ab57600080fd5b506103c660048036038101906103c19190613b79565b6119ae565b6040516103d39190613a86565b60405180910390f35b3480156103e857600080fd5b5061040360048036038101906103fe91906138e1565b611ccf565b6040516104109190613d32565b60405180910390f35b34801561042557600080fd5b50610440600480360381019061043b9190613450565b6120ee565b60405161044d9190613de4565b60405180910390f35b34801561046257600080fd5b5061047d60048036038101906104789190613e06565b612304565b005b34801561048b57600080fd5b50610494612625565b6040516104a19190613f40565b60405180910390f35b3480156104b657600080fd5b506104d160048036038101906104cc9190613450565b6126b3565b6040516104e396959493929190613f62565b60405180910390f35b3480156104f857600080fd5b50610513600480360381019061050e9190613fd1565b61281f565b6040516105209190613aa8565b60405180910390f35b34801561053557600080fd5b50610550600480360381019061054b91906134db565b612bbb565b60405161055f939291906135c2565b60405180910390f35b34801561057457600080fd5b5061058f600480360381019061058a9190613b79565b612c7a565b60405161059c9190613d32565b60405180910390f35b6105bf60048036038101906105ba919061405c565b612f54565b005b3480156105cd57600080fd5b506105e860048036038101906105e39190613450565b61315e565b6040516105f59190613ad2565b60405180910390f35b34801561060a57600080fd5b50610625600480360381019061062091906134db565b61319d565b005b600660009054906101000a900473ffffffffffffffffffffffffffffffffffffffff1673ffffffffffffffffffffffffffffffffffffffff163373ffffffffffffffffffffffffffffffffffffffff16146106b7576040517f08c379a00000000000000000000000000000000000000000000000000000000081526004016106ae9061410e565b60405180910390fd5b60045481106106fb576040517f08c379a00000000000000000000000000000000000000000000000000000000081526004016106f29061417a565b60405180910390fd5b6000600582815481106107115761071061419a565b5b906000526020600020906007020190508060060160009054906101000a900460ff1615801561074f57508060060160019054906101000a900460ff16155b61078e576040517f08c379a000000000000000000000000000000000000000000000000000000000815260040161078590614215565b60405180910390fd5b60018160060160006101000a81548160ff02191690831515021790555080600201546000808360010160009054906101000a900473ffffffffffffffffffffffffffffffffffffffff1673ffffffffffffffffffffffffffffffffffffffff1673ffffffffffffffffffffffffffffffffffffffff16815260200190815260200160002060020160008282546108249190614264565b925050819055508060010160009054906101000a900473ffffffffffffffffffffffffffffffffffffffff1673ffffffffffffffffffffffffffffffffffffffff16827f2f14cf4ee725545bfe00e4128e96a1c8143718c3738cb5395484377ea674363060405160405180910390a35050565b60606000806000808573ffffffffffffffffffffffffffffffffffffffff1673ffffffffffffffffffffffffffffffffffffffff16815260200190815260200160002060010160009054906101000a900460ff168061094257506000808573ffffffffffffffffffffffffffffffffffffffff1673ffffffffffffffffffffffffffffffffffffffff16815260200190815260200160002060010160009054906101000a900460ff16155b610981576040517f08c379a0000000000000000000000000000000000000000000000000000000008152600401610978906142e4565b60405180910390fd5b60008060008673ffffffffffffffffffffffffffffffffffffffff1673ffffffffffffffffffffffffffffffffffffffff1681526020019081526020016000206040518060600160405290816000820180546109dc90614333565b80601f0160208091040260200160405190810160405280929190818152602001828054610a0890614333565b8015610a555780601f10610a2a57610100808354040283529160200191610a55565b820191906000526020600020905b815481529060010190602001808311610a3857829003601f168201915b505050505081526020016001820160009054906101000a900460ff161515151581526020016002820154815250509050806000015181602001518260400151935093509350509193909250565b600660009054906101000a900473ffffffffffffffffffffffffffffffffffffffff1673ffffffffffffffffffffffffffffffffffffffff163373ffffffffffffffffffffffffffffffffffffffff1614610b32576040517f08c379a0000000000000000000000000000000000000000000000000000000008152600401610b299061410e565b60405180910390fd5b600073ffffffffffffffffffffffffffffffffffffffff168273ffffffffffffffffffffffffffffffffffffffff1603610ba1576040517f08c379a0000000000000000000000000000000000000000000000000000000008152600401610b98906143b0565b60405180910390fd5b6000815111610be5576040517f08c379a0000000000000000000000000000000000000000000000000000000008152600401610bdc9061441c565b60405180910390fd5b6000808373ffffffffffffffffffffffffffffffffffffffff1673ffffffffffffffffffffffffffffffffffffffff16815260200190815260200160002060010160009054906101000a900460ff1615610c74576040517f08c379a0000000000000000000000000000000000000000000000000000000008152600401610c6b906144ae565b60405180910390fd5b604051806060016040528082815260200160011515815260200160008152506000808473ffffffffffffffffffffffffffffffffffffffff1673ffffffffffffffffffffffffffffffffffffffff1681526020019081526020016000206000820151816000019081610ce6919061467a565b5060208201518160010160006101000a81548160ff021916908315150217905550604082015181600201559050506002829080600181540180825580915050600190039060005260206000200160009091909190916101000a81548173ffffffffffffffffffffffffffffffffffffffff021916908373ffffffffffffffffffffffffffffffffffffffff1602179055508173ffffffffffffffffffffffffffffffffffffffff167f1b7e3d9f922be54960ce9bea1d47b9b6ea18bbafb4e0fdeedc5e2a668e8fdaf882604051610dbd919061474c565b60405180910390a25050565b610dd161335b565b6004548210610e15576040517f08c379a0000000000000000000000000000000000000000000000000000000008152600401610e0c9061417a565b60405180910390fd5b60058281548110610e2957610e2861419a565b5b906000526020600020906007020160405180610100016040529081600082015481526020016001820160009054906101000a900473ffffffffffffffffffffffffffffffffffffffff1673ffffffffffffffffffffffffffffffffffffffff1673ffffffffffffffffffffffffffffffffffffffff16815260200160028201548152602001600382018054610ebd90614333565b80601f0160208091040260200160405190810160405280929190818152602001828054610ee990614333565b8015610f365780601f10610f0b57610100808354040283529160200191610f36565b820191906000526020600020905b815481529060010190602001808311610f1957829003601f168201915b50505050508152602001600482018054610f4f90614333565b80601f0160208091040260200160405190810160405280929190818152602001828054610f7b90614333565b8015610fc85780601f10610f9d57610100808354040283529160200191610fc8565b820191906000526020600020905b815481529060010190602001808311610fab57829003601f168201915b50505050508152602001600582015481526020016006820160009054906101000a900460ff161515151581526020016006820160019054906101000a900460ff1615151515815250509050919050565b60606000808573ffffffffffffffffffffffffffffffffffffffff1673ffffffffffffffffffffffffffffffffffffffff16815260200190815260200160002060010160009054906101000a900460ff16806110c057506000808573ffffffffffffffffffffffffffffffffffffffff1673ffffffffffffffffffffffffffffffffffffffff16815260200190815260200160002060010160009054906101000a900460ff16155b6110ff576040517f08c379a00000000000000000000000000000000000000000000000000000000081526004016110f6906142e4565b60405180910390fd5b600080600190505b600354811161119b578573ffffffffffffffffffffffffffffffffffffffff166001600083815260200190815260200160002060010160009054906101000a900473ffffffffffffffffffffffffffffffffffffffff1673ffffffffffffffffffffffffffffffffffffffff16036111885781806111849061476e565b9250505b80806111939061476e565b915050611107565b508084106111de576040517f08c379a00000000000000000000000000000000000000000000000000000000081526004016111d590614828565b60405180910390fd5b60008311611221576040517f08c379a000000000000000000000000000000000000000000000000000000000815260040161121890614894565b60405180910390fd5b60008390508184866112339190614264565b111561124857848261124591906148b4565b90505b60008167ffffffffffffffff8111156112645761126361360a565b5b60405190808252806020026020018201604052801561129d57816020015b61128a6133ba565b8152602001906001900390816112825790505b5090506000806000600190505b60035481111580156112bb57508482105b15611535578973ffffffffffffffffffffffffffffffffffffffff166001600083815260200190815260200160002060010160009054906101000a900473ffffffffffffffffffffffffffffffffffffffff1673ffffffffffffffffffffffffffffffffffffffff16036115225788831061151357600160008281526020019081526020016000206040518060c0016040529081600082015481526020016001820160009054906101000a900473ffffffffffffffffffffffffffffffffffffffff1673ffffffffffffffffffffffffffffffffffffffff1673ffffffffffffffffffffffffffffffffffffffff1681526020016002820180546113be90614333565b80601f01602080910402602001604051908101604052809291908181526020018280546113ea90614333565b80156114375780601f1061140c57610100808354040283529160200191611437565b820191906000526020600020905b81548152906001019060200180831161141a57829003601f168201915b505050505081526020016003820154815260200160048201805461145a90614333565b80601f016020809104026020016040519081016040528092919081815260200182805461148690614333565b80156114d35780601f106114a8576101008083540402835291602001916114d3565b820191906000526020600020905b8154815290600101906020018083116114b657829003601f168201915b505050505081526020016005820154815250508483815181106114f9576114f861419a565b5b6020026020010181905250818061150f9061476e565b9250505b828061151e9061476e565b9350505b808061152d9061476e565b9150506112aa565b5082955050505050509392505050565b600660009054906101000a900473ffffffffffffffffffffffffffffffffffffffff1673ffffffffffffffffffffffffffffffffffffffff163373ffffffffffffffffffffffffffffffffffffffff16146115d5576040517f08c379a00000000000000000000000000000000000000000000000000000000081526004016115cc9061410e565b60405180910390fd5b6004548110611619576040517f08c379a00000000000000000000000000000000000000000000000000000000081526004016116109061417a565b60405180910390fd5b60006005828154811061162f5761162e61419a565b5b906000526020600020906007020190508060060160009054906101000a900460ff1615801561166d57508060060160019054906101000a900460ff16155b6116ac576040517f08c379a00000000000000000000000000000000000000000000000000000000081526004016116a390614215565b60405180910390fd5b60018160060160016101000a81548160ff0219169083151502179055508060010160009054906101000a900473ffffffffffffffffffffffffffffffffffffffff1673ffffffffffffffffffffffffffffffffffffffff16827f4323a3f8bbbcf284e67a4932738f0f8fe465297d522b256e4f863ffbbf22c7ee60405160405180910390a35050565b60045481565b6000600280549050905090565b600660009054906101000a900473ffffffffffffffffffffffffffffffffffffffff1681565b6000600660009054906101000a900473ffffffffffffffffffffffffffffffffffffffff1673ffffffffffffffffffffffffffffffffffffffff163373ffffffffffffffffffffffffffffffffffffffff1614611800576040517f08c379a00000000000000000000000000000000000000000000000000000000081526004016117f79061410e565b60405180910390fd5b47905090565b6005818154811061181657600080fd5b90600052602060002090600702016000915090508060000154908060010160009054906101000a900473ffffffffffffffffffffffffffffffffffffffff169080600201549080600301805461186b90614333565b80601f016020809104026020016040519081016040528092919081815260200182805461189790614333565b80156118e45780601f106118b9576101008083540402835291602001916118e4565b820191906000526020600020905b8154815290600101906020018083116118c757829003601f168201915b5050505050908060040180546118f990614333565b80601f016020809104026020016040519081016040528092919081815260200182805461192590614333565b80156119725780601f1061194757610100808354040283529160200191611972565b820191906000526020600020905b81548152906001019060200180831161195557829003601f168201915b5050505050908060050154908060060160009054906101000a900460ff16908060060160019054906101000a900460ff16905088565b60035481565b606060035483106119f4576040517f08c379a00000000000000000000000000000000000000000000000000000000081526004016119eb90614934565b60405180910390fd5b60008211611a37576040517f08c379a0000000000000000000000000000000000000000000000000000000008152600401611a2e90614894565b60405180910390fd5b60008290506003548385611a4b9190614264565b1115611a625783600354611a5f91906148b4565b90505b60008167ffffffffffffffff811115611a7e57611a7d61360a565b5b604051908082528060200260200182016040528015611ab757816020015b611aa46133ba565b815260200190600190039081611a9c5790505b50905060005b82811015611cc3576001600060018389611ad79190614264565b611ae19190614264565b81526020019081526020016000206040518060c0016040529081600082015481526020016001820160009054906101000a900473ffffffffffffffffffffffffffffffffffffffff1673ffffffffffffffffffffffffffffffffffffffff1673ffffffffffffffffffffffffffffffffffffffff168152602001600282018054611b6a90614333565b80601f0160208091040260200160405190810160405280929190818152602001828054611b9690614333565b8015611be35780601f10611bb857610100808354040283529160200191611be3565b820191906000526020600020905b815481529060010190602001808311611bc657829003601f168201915b5050505050815260200160038201548152602001600482018054611c0690614333565b80601f0160208091040260200160405190810160405280929190818152602001828054611c3290614333565b8015611c7f5780601f10611c5457610100808354040283529160200191611c7f565b820191906000526020600020905b815481529060010190602001808311611c6257829003601f168201915b50505050508152602001600582015481525050828281518110611ca557611ca461419a565b5b60200260200101819052508080611cbb9061476e565b915050611abd565b50809250505092915050565b60606000805b600454811015611d79578573ffffffffffffffffffffffffffffffffffffffff1660058281548110611d0a57611d0961419a565b5b906000526020600020906007020160010160009054906101000a900473ffffffffffffffffffffffffffffffffffffffff1673ffffffffffffffffffffffffffffffffffffffff1603611d66578180611d629061476e565b9250505b8080611d719061476e565b915050611cd5565b5060008385611d889190614264565b905081811115611d96578190505b60008582611da491906148b4565b905060008167ffffffffffffffff811115611dc257611dc161360a565b5b604051908082528060200260200182016040528015611dfb57816020015b611de861335b565b815260200190600190039081611de05790505b5090506000805b60045481108015611e1257508382105b156120de578973ffffffffffffffffffffffffffffffffffffffff1660058281548110611e4257611e4161419a565b5b906000526020600020906007020160010160009054906101000a900473ffffffffffffffffffffffffffffffffffffffff1673ffffffffffffffffffffffffffffffffffffffff16036120cb578882106120bc5760058181548110611eaa57611ea961419a565b5b906000526020600020906007020160405180610100016040529081600082015481526020016001820160009054906101000a900473ffffffffffffffffffffffffffffffffffffffff1673ffffffffffffffffffffffffffffffffffffffff1673ffffffffffffffffffffffffffffffffffffffff16815260200160028201548152602001600382018054611f3e90614333565b80601f0160208091040260200160405190810160405280929190818152602001828054611f6a90614333565b8015611fb75780601f10611f8c57610100808354040283529160200191611fb7565b820191906000526020600020905b815481529060010190602001808311611f9a57829003601f168201915b50505050508152602001600482018054611fd090614333565b80601f0160208091040260200160405190810160405280929190818152602001828054611ffc90614333565b80156120495780601f1061201e57610100808354040283529160200191612049565b820191906000526020600020905b81548152906001019060200180831161202c57829003601f168201915b50505050508152602001600582015481526020016006820160009054906101000a900460ff161515151581526020016006820160019054906101000a900460ff161515151581525050838a8461209f91906148b4565b815181106120b0576120af61419a565b5b60200260200101819052505b81806120c79061476e565b9250505b80806120d69061476e565b915050611e02565b5081955050505050509392505050565b6120f66133ba565b60008211801561210857506003548211155b612147576040517f08c379a000000000000000000000000000000000000000000000000000000000815260040161213e906149a0565b60405180910390fd5b600160008381526020019081526020016000206040518060c0016040529081600082015481526020016001820160009054906101000a900473ffffffffffffffffffffffffffffffffffffffff1673ffffffffffffffffffffffffffffffffffffffff1673ffffffffffffffffffffffffffffffffffffffff1681526020016002820180546121d590614333565b80601f016020809104026020016040519081016040528092919081815260200182805461220190614333565b801561224e5780601f106122235761010080835404028352916020019161224e565b820191906000526020600020905b81548152906001019060200180831161223157829003601f168201915b505050505081526020016003820154815260200160048201805461227190614333565b80601f016020809104026020016040519081016040528092919081815260200182805461229d90614333565b80156122ea5780601f106122bf576101008083540402835291602001916122ea565b820191906000526020600020905b8154815290600101906020018083116122cd57829003601f168201915b505050505081526020016005820154815250509050919050565b6000803373ffffffffffffffffffffffffffffffffffffffff1673ffffffffffffffffffffffffffffffffffffffff16815260200190815260200160002060010160009054906101000a900460ff16612392576040517f08c379a000000000000000000000000000000000000000000000000000000000815260040161238990614a32565b60405180910390fd5b600083116123d5576040517f08c379a00000000000000000000000000000000000000000000000000000000081526004016123cc90614a9e565b60405180910390fd5b6000825111612419576040517f08c379a000000000000000000000000000000000000000000000000000000000815260040161241090614b0a565b60405180910390fd5b600081511161245d576040517f08c379a000000000000000000000000000000000000000000000000000000000815260040161245490614b76565b60405180910390fd5b6000600460008154809291906124729061476e565b91905055905060056040518061010001604052808381526020013373ffffffffffffffffffffffffffffffffffffffff1681526020018681526020018581526020018481526020014281526020016000151581526020016000151581525090806001815401808255809150506001900390600052602060002090600702016000909190919091506000820151816000015560208201518160010160006101000a81548173ffffffffffffffffffffffffffffffffffffffff021916908373ffffffffffffffffffffffffffffffffffffffff160217905550604082015181600201556060820151816003019081612569919061467a565b50608082015181600401908161257f919061467a565b5060a0820151816005015560c08201518160060160006101000a81548160ff02191690831515021790555060e08201518160060160016101000a81548160ff02191690831515021790555050503373ffffffffffffffffffffffffffffffffffffffff16817f09569327b0ebac7ebd8d677c9f6449afaf57b97a2a0d523adc4a0ad31b3f00c786868660405161261793929190614b96565b60405180910390a350505050565b606060028054806020026020016040519081016040528092919081815260200182805480156126a957602002820191906000526020600020905b8160009054906101000a900473ffffffffffffffffffffffffffffffffffffffff1673ffffffffffffffffffffffffffffffffffffffff168152602001906001019080831161265f575b5050505050905090565b60016020528060005260406000206000915090508060000154908060010160009054906101000a900473ffffffffffffffffffffffffffffffffffffffff169080600201805461270290614333565b80601f016020809104026020016040519081016040528092919081815260200182805461272e90614333565b801561277b5780601f106127505761010080835404028352916020019161277b565b820191906000526020600020905b81548152906001019060200180831161275e57829003601f168201915b50505050509080600301549080600401805461279690614333565b80601f01602080910402602001604051908101604052809291908181526020018280546127c290614333565b801561280f5780601f106127e45761010080835404028352916020019161280f565b820191906000526020600020905b8154815290600101906020018083116127f257829003601f168201915b5050505050908060050154905086565b60008060003373ffffffffffffffffffffffffffffffffffffffff1673ffffffffffffffffffffffffffffffffffffffff16815260200190815260200160002060010160009054906101000a900460ff166128af576040517f08c379a00000000000000000000000000000000000000000000000000000000081526004016128a690614a32565b60405180910390fd5b60008451116128f3576040517f08c379a00000000000000000000000000000000000000000000000000000000081526004016128ea90614c27565b60405180910390fd5b60008311612936576040517f08c379a000000000000000000000000000000000000000000000000000000000815260040161292d90614c93565b60405180910390fd5b600082511161297a576040517f08c379a000000000000000000000000000000000000000000000000000000000815260040161297190614b76565b60405180910390fd5b826000803373ffffffffffffffffffffffffffffffffffffffff1673ffffffffffffffffffffffffffffffffffffffff1681526020019081526020016000206002015410156129fe576040517f08c379a00000000000000000000000000000000000000000000000000000000081526004016129f590614cff565b60405180910390fd5b826000803373ffffffffffffffffffffffffffffffffffffffff1673ffffffffffffffffffffffffffffffffffffffff1681526020019081526020016000206002016000828254612a4f91906148b4565b9250508190555060036000815480929190612a699061476e565b91905055506040518060c0016040528060035481526020013373ffffffffffffffffffffffffffffffffffffffff168152602001858152602001848152602001838152602001428152506001600060035481526020019081526020016000206000820151816000015560208201518160010160006101000a81548173ffffffffffffffffffffffffffffffffffffffff021916908373ffffffffffffffffffffffffffffffffffffffff1602179055506040820151816002019081612b2e919061467a565b50606082015181600301556080820151816004019081612b4e919061467a565b5060a082015181600501559050503373ffffffffffffffffffffffffffffffffffffffff166003547f1243a0379e4e37663c88f3bc1d8bdb9a3ca74f533be3a0cf855f3f80cbf467158585604051612ba7929190614d1f565b60405180910390a360035490509392505050565b6000602052806000526040600020600091509050806000018054612bde90614333565b80601f0160208091040260200160405190810160405280929190818152602001828054612c0a90614333565b8015612c575780601f10612c2c57610100808354040283529160200191612c57565b820191906000526020600020905b815481529060010190602001808311612c3a57829003601f168201915b5050505050908060010160009054906101000a900460ff16908060020154905083565b606060008284612c8a9190614264565b9050600454811115612c9c5760045490505b60008482612caa91906148b4565b905060008167ffffffffffffffff811115612cc857612cc761360a565b5b604051908082528060200260200182016040528015612d0157816020015b612cee61335b565b815260200190600190039081612ce65790505b50905060005b82811015612f475760058188612d1d9190614264565b81548110612d2e57612d2d61419a565b5b906000526020600020906007020160405180610100016040529081600082015481526020016001820160009054906101000a900473ffffffffffffffffffffffffffffffffffffffff1673ffffffffffffffffffffffffffffffffffffffff1673ffffffffffffffffffffffffffffffffffffffff16815260200160028201548152602001600382018054612dc290614333565b80601f0160208091040260200160405190810160405280929190818152602001828054612dee90614333565b8015612e3b5780601f10612e1057610100808354040283529160200191612e3b565b820191906000526020600020905b815481529060010190602001808311612e1e57829003601f168201915b50505050508152602001600482018054612e5490614333565b80601f0160208091040260200160405190810160405280929190818152602001828054612e8090614333565b8015612ecd5780601f10612ea257610100808354040283529160200191612ecd565b820191906000526020600020905b815481529060010190602001808311612eb057829003601f168201915b50505050508152602001600582015481526020016006820160009054906101000a900460ff161515151581526020016006820160019054906101000a900460ff161515151581525050828281518110612f2957612f2861419a565b5b60200260200101819052508080612f3f9061476e565b915050612d07565b5080935050505092915050565b600660009054906101000a900473ffffffffffffffffffffffffffffffffffffffff1673ffffffffffffffffffffffffffffffffffffffff163373ffffffffffffffffffffffffffffffffffffffff1614612fe4576040517f08c379a0000000000000000000000000000000000000000000000000000000008152600401612fdb9061410e565b60405180910390fd5b6000808373ffffffffffffffffffffffffffffffffffffffff1673ffffffffffffffffffffffffffffffffffffffff16815260200190815260200160002060010160009054906101000a900460ff16613072576040517f08c379a000000000000000000000000000000000000000000000000000000000815260040161306990614d9b565b60405180910390fd5b8034146130b4576040517f08c379a00000000000000000000000000000000000000000000000000000000081526004016130ab90614e07565b60405180910390fd5b806000808473ffffffffffffffffffffffffffffffffffffffff1673ffffffffffffffffffffffffffffffffffffffff16815260200190815260200160002060020160008282546131059190614264565b925050819055508173ffffffffffffffffffffffffffffffffffffffff167f4d612c29c987a674e77e69b88ea3cc652b97759eac1a534811c4fded2fc3bd76826040516131529190613aa8565b60405180910390a25050565b6002818154811061316e57600080fd5b906000526020600020016000915054906101000a900473ffffffffffffffffffffffffffffffffffffffff1681565b600660009054906101000a900473ffffffffffffffffffffffffffffffffffffffff1673ffffffffffffffffffffffffffffffffffffffff163373ffffffffffffffffffffffffffffffffffffffff161461322d576040517f08c379a00000000000000000000000000000000000000000000000000000000081526004016132249061410e565b60405180910390fd5b6000808273ffffffffffffffffffffffffffffffffffffffff1673ffffffffffffffffffffffffffffffffffffffff16815260200190815260200160002060010160009054906101000a900460ff166132bb576040517f08c379a00000000000000000000000000000000000000000000000000000000081526004016132b290614d9b565b60405180910390fd5b60008060008373ffffffffffffffffffffffffffffffffffffffff1673ffffffffffffffffffffffffffffffffffffffff16815260200190815260200160002060010160006101000a81548160ff0219169083151502179055508073ffffffffffffffffffffffffffffffffffffffff167f99fdeeec075823d23f0e1926979b27aaab3c6d7fccdbbea8914592d98896d74160405160405180910390a250565b60405180610100016040528060008152602001600073ffffffffffffffffffffffffffffffffffffffff168152602001600081526020016060815260200160608152602001600081526020016000151581526020016000151581525090565b6040518060c0016040528060008152602001600073ffffffffffffffffffffffffffffffffffffffff168152602001606081526020016000815260200160608152602001600081525090565b6000604051905090565b600080fd5b600080fd5b6000819050919050565b61342d8161341a565b811461343857600080fd5b50565b60008135905061344a81613424565b92915050565b60006020828403121561346657613465613410565b5b60006134748482850161343b565b91505092915050565b600073ffffffffffffffffffffffffffffffffffffffff82169050919050565b60006134a88261347d565b9050919050565b6134b88161349d565b81146134c357600080fd5b50565b6000813590506134d5816134af565b92915050565b6000602082840312156134f1576134f0613410565b5b60006134ff848285016134c6565b91505092915050565b600081519050919050565b600082825260208201905092915050565b60005b83811015613542578082015181840152602081019050613527565b60008484015250505050565b6000601f19601f8301169050919050565b600061356a82613508565b6135748185613513565b9350613584818560208601613524565b61358d8161354e565b840191505092915050565b60008115159050919050565b6135ad81613598565b82525050565b6135bc8161341a565b82525050565b600060608201905081810360008301526135dc818661355f565b90506135eb60208301856135a4565b6135f860408301846135b3565b949350505050565b600080fd5b600080fd5b7f4e487b7100000000000000000000000000000000000000000000000000000000600052604160045260246000fd5b6136428261354e565b810181811067ffffffffffffffff821117156136615761366061360a565b5b80604052505050565b6000613674613406565b90506136808282613639565b919050565b600067ffffffffffffffff8211156136a05761369f61360a565b5b6136a98261354e565b9050602081019050919050565b82818337600083830152505050565b60006136d86136d384613685565b61366a565b9050828152602081018484840111156136f4576136f3613605565b5b6136ff8482856136b6565b509392505050565b600082601f83011261371c5761371b613600565b5b813561372c8482602086016136c5565b91505092915050565b6000806040838503121561374c5761374b613410565b5b600061375a858286016134c6565b925050602083013567ffffffffffffffff81111561377b5761377a613415565b5b61378785828601613707565b9150509250929050565b61379a8161341a565b82525050565b6137a98161349d565b82525050565b600082825260208201905092915050565b60006137cb82613508565b6137d581856137af565b93506137e5818560208601613524565b6137ee8161354e565b840191505092915050565b61380281613598565b82525050565b6000610100830160008301516138216000860182613791565b50602083015161383460208601826137a0565b5060408301516138476040860182613791565b506060830151848203606086015261385f82826137c0565b9150506080830151848203608086015261387982826137c0565b91505060a083015161388e60a0860182613791565b5060c08301516138a160c08601826137f9565b5060e08301516138b460e08601826137f9565b508091505092915050565b600060208201905081810360008301526138d98184613808565b905092915050565b6000806000606084860312156138fa576138f9613410565b5b6000613908868287016134c6565b93505060206139198682870161343b565b925050604061392a8682870161343b565b9150509250925092565b600081519050919050565b600082825260208201905092915050565b6000819050602082019050919050565b600060c0830160008301516139786000860182613791565b50602083015161398b60208601826137a0565b50604083015184820360408601526139a382826137c0565b91505060608301516139b86060860182613791565b50608083015184820360808601526139d082826137c0565b91505060a08301516139e560a0860182613791565b508091505092915050565b60006139fc8383613960565b905092915050565b6000602082019050919050565b6000613a1c82613934565b613a26818561393f565b935083602082028501613a3885613950565b8060005b85811015613a745784840389528151613a5585826139f0565b9450613a6083613a04565b925060208a01995050600181019050613a3c565b50829750879550505050505092915050565b60006020820190508181036000830152613aa08184613a11565b905092915050565b6000602082019050613abd60008301846135b3565b92915050565b613acc8161349d565b82525050565b6000602082019050613ae76000830184613ac3565b92915050565b600061010082019050613b03600083018b6135b3565b613b10602083018a613ac3565b613b1d60408301896135b3565b8181036060830152613b2f818861355f565b90508181036080830152613b43818761355f565b9050613b5260a08301866135b3565b613b5f60c08301856135a4565b613b6c60e08301846135a4565b9998505050505050505050565b60008060408385031215613b9057613b8f613410565b5b6000613b9e8582860161343b565b9250506020613baf8582860161343b565b9150509250929050565b600081519050919050565b600082825260208201905092915050565b6000819050602082019050919050565b600061010083016000830151613bfe6000860182613791565b506020830151613c1160208601826137a0565b506040830151613c246040860182613791565b5060608301518482036060860152613c3c82826137c0565b91505060808301518482036080860152613c5682826137c0565b91505060a0830151613c6b60a0860182613791565b5060c0830151613c7e60c08601826137f9565b5060e0830151613c9160e08601826137f9565b508091505092915050565b6000613ca88383613be5565b905092915050565b6000602082019050919050565b6000613cc882613bb9565b613cd28185613bc4565b935083602082028501613ce485613bd5565b8060005b85811015613d205784840389528151613d018582613c9c565b9450613d0c83613cb0565b925060208a01995050600181019050613ce8565b50829750879550505050505092915050565b60006020820190508181036000830152613d4c8184613cbd565b905092915050565b600060c083016000830151613d6c6000860182613791565b506020830151613d7f60208601826137a0565b5060408301518482036040860152613d9782826137c0565b9150506060830151613dac6060860182613791565b5060808301518482036080860152613dc482826137c0565b91505060a0830151613dd960a0860182613791565b508091505092915050565b60006020820190508181036000830152613dfe8184613d54565b905092915050565b600080600060608486031215613e1f57613e1e613410565b5b6000613e2d8682870161343b565b935050602084013567ffffffffffffffff811115613e4e57613e4d613415565b5b613e5a86828701613707565b925050604084013567ffffffffffffffff811115613e7b57613e7a613415565b5b613e8786828701613707565b9150509250925092565b600081519050919050565b600082825260208201905092915050565b6000819050602082019050919050565b6000613ec983836137a0565b60208301905092915050565b6000602082019050919050565b6000613eed82613e91565b613ef78185613e9c565b9350613f0283613ead565b8060005b83811015613f33578151613f1a8882613ebd565b9750613f2583613ed5565b925050600181019050613f06565b5085935050505092915050565b60006020820190508181036000830152613f5a8184613ee2565b905092915050565b600060c082019050613f7760008301896135b3565b613f846020830188613ac3565b8181036040830152613f96818761355f565b9050613fa560608301866135b3565b8181036080830152613fb7818561355f565b9050613fc660a08301846135b3565b979650505050505050565b600080600060608486031215613fea57613fe9613410565b5b600084013567ffffffffffffffff81111561400857614007613415565b5b61401486828701613707565b93505060206140258682870161343b565b925050604084013567ffffffffffffffff81111561404657614045613415565b5b61405286828701613707565b9150509250925092565b6000806040838503121561407357614072613410565b5b6000614081858286016134c6565b92505060206140928582860161343b565b9150509250929050565b7f4f6e6c792063656e7472616c20676f7665726e6d656e742063616e207065726660008201527f6f726d207468697320616374696f6e0000000000000000000000000000000000602082015250565b60006140f8602f83613513565b91506141038261409c565b604082019050919050565b60006020820190508181036000830152614127816140eb565b9050919050565b7f496e76616c696420726571756573742049440000000000000000000000000000600082015250565b6000614164601283613513565b915061416f8261412e565b602082019050919050565b6000602082019050818103600083015261419381614157565b9050919050565b7f4e487b7100000000000000000000000000000000000000000000000000000000600052603260045260246000fd5b7f5265717565737420616c72656164792070726f63657373656400000000000000600082015250565b60006141ff601983613513565b915061420a826141c9565b602082019050919050565b6000602082019050818103600083015261422e816141f2565b9050919050565b7f4e487b7100000000000000000000000000000000000000000000000000000000600052601160045260246000fd5b600061426f8261341a565b915061427a8361341a565b925082820190508082111561429257614291614235565b5b92915050565b7f4e6f742061207265676973746572656420656e74697479000000000000000000600082015250565b60006142ce601783613513565b91506142d982614298565b602082019050919050565b600060208201905081810360008301526142fd816142c1565b9050919050565b7f4e487b7100000000000000000000000000000000000000000000000000000000600052602260045260246000fd5b6000600282049050600182168061434b57607f821691505b60208210810361435e5761435d614304565b5b50919050565b7f456e7469747920616464726573732063616e6e6f74206265207a65726f000000600082015250565b600061439a601d83613513565b91506143a582614364565b602082019050919050565b600060208201905081810360008301526143c98161438d565b9050919050565b7f456e74697479206e616d652063616e6e6f7420626520656d7074790000000000600082015250565b6000614406601b83613513565b9150614411826143d0565b602082019050919050565b60006020820190508181036000830152614435816143f9565b9050919050565b7f456e7469747920616c7265616479207265676973746572656420616e6420616360008201527f7469766500000000000000000000000000000000000000000000000000000000602082015250565b6000614498602483613513565b91506144a38261443c565b604082019050919050565b600060208201905081810360008301526144c78161448b565b9050919050565b60008190508160005260206000209050919050565b60006020601f8301049050919050565b600082821b905092915050565b6000600883026145307fffffffffffffffffffffffffffffffffffffffffffffffffffffffffffffffff826144f3565b61453a86836144f3565b95508019841693508086168417925050509392505050565b6000819050919050565b600061457761457261456d8461341a565b614552565b61341a565b9050919050565b6000819050919050565b6145918361455c565b6145a561459d8261457e565b848454614500565b825550505050565b600090565b6145ba6145ad565b6145c5818484614588565b505050565b5b818110156145e9576145de6000826145b2565b6001810190506145cb565b5050565b601f82111561462e576145ff816144ce565b614608846144e3565b81016020851015614617578190505b61462b614623856144e3565b8301826145ca565b50505b505050565b600082821c905092915050565b600061465160001984600802614633565b1980831691505092915050565b600061466a8383614640565b9150826002028217905092915050565b61468382613508565b67ffffffffffffffff81111561469c5761469b61360a565b5b6146a68254614333565b6146b18282856145ed565b600060209050601f8311600181146146e457600084156146d2578287015190505b6146dc858261465e565b865550614744565b601f1984166146f2866144ce565b60005b8281101561471a578489015182556001820191506020850194506020810190506146f5565b868310156147375784890151614733601f891682614640565b8355505b6001600288020188555050505b505050505050565b60006020820190508181036000830152614766818461355f565b905092915050565b60006147798261341a565b91507fffffffffffffffffffffffffffffffffffffffffffffffffffffffffffffffff82036147ab576147aa614235565b5b600182019050919050565b7f4f6666736574206578636565647320656e74697479207265636f726420636f7560008201527f6e74000000000000000000000000000000000000000000000000000000000000602082015250565b6000614812602283613513565b915061481d826147b6565b604082019050919050565b6000602082019050818103600083015261484181614805565b9050919050565b7f4c696d6974206d7573742062652067726561746572207468616e207a65726f00600082015250565b600061487e601f83613513565b915061488982614848565b602082019050919050565b600060208201905081810360008301526148ad81614871565b9050919050565b60006148bf8261341a565b91506148ca8361341a565b92508282039050818111156148e2576148e1614235565b5b92915050565b7f4f66667365742065786365656473207265636f726420636f756e740000000000600082015250565b600061491e601b83613513565b9150614929826148e8565b602082019050919050565b6000602082019050818103600083015261494d81614911565b9050919050565b7f496e76616c6964207265636f7264204944000000000000000000000000000000600082015250565b600061498a601183613513565b915061499582614954565b602082019050919050565b600060208201905081810360008301526149b98161497d565b9050919050565b7f4f6e6c7920616374697665207265676973746572656420656e7469746965732060008201527f63616e20706572666f726d207468697320616374696f6e000000000000000000602082015250565b6000614a1c603783613513565b9150614a27826149c0565b604082019050919050565b60006020820190508181036000830152614a4b81614a0f565b9050919050565b7f416d6f756e74206d7573742062652067726561746572207468616e2030000000600082015250565b6000614a88601d83613513565b9150614a9382614a52565b602082019050919050565b60006020820190508181036000830152614ab781614a7b565b9050919050565b7f526561736f6e2063616e6e6f7420626520656d70747900000000000000000000600082015250565b6000614af4601683613513565b9150614aff82614abe565b602082019050919050565b60006020820190508181036000830152614b2381614ae7565b9050919050565b7f446f63756d656e7420686173682063616e6e6f7420626520656d707479000000600082015250565b6000614b60601d83613513565b9150614b6b82614b2a565b602082019050919050565b60006020820190508181036000830152614b8f81614b53565b9050919050565b6000606082019050614bab60008301866135b3565b8181036020830152614bbd818561355f565b90508181036040830152614bd1818461355f565b9050949350505050565b7f507572706f73652063616e6e6f7420626520656d707479000000000000000000600082015250565b6000614c11601783613513565b9150614c1c82614bdb565b602082019050919050565b60006020820190508181036000830152614c4081614c04565b9050919050565b7f416d6f756e74206d7573742062652067726561746572207468616e207a65726f600082015250565b6000614c7d602083613513565b9150614c8882614c47565b602082019050919050565b60006020820190508181036000830152614cac81614c70565b9050919050565b7f496e73756666696369656e742062616c616e6365000000000000000000000000600082015250565b6000614ce9601483613513565b9150614cf482614cb3565b602082019050919050565b60006020820190508181036000830152614d1881614cdc565b9050919050565b6000604082019050614d3460008301856135b3565b8181036020830152614d46818461355f565b90509392505050565b7f456e74697479206e6f7420616374697665000000000000000000000000000000600082015250565b6000614d85601183613513565b9150614d9082614d4f565b602082019050919050565b60006020820190508181036000830152614db481614d78565b9050919050565b7f53656e742076616c7565206d757374206d617463682074686520616d6f756e74600082015250565b6000614df1602083613513565b9150614dfc82614dbb565b602082019050919050565b60006020820190508181036000830152614e2081614de4565b905091905056fea26469706673582212204affef6354b639a2bad7215a27d8e4856f9487f54281dea3781bc7e6eb2c451d64736f6c63430008110033",
  "linkReferences": {},
  "deployedLinkReferences": {}
}