{
  "_format": "hh-sol-artifact-1",
  "contractName": "SimplifiedSpendingRegistry",
  "sourceName": "contracts/SimplifiedSpendingRegistry.sol",
  "abi": [
    {
      "inputs": [],
      "stateMutability": "nonpayable",
      "type": "constructor"
    },
    {
      "anonymous": false,
      "inputs": [
        {
          "indexed": true,
          "internalType": "uint256",
          "name": "tenderId",
          "type": "uint256"
        },
        {
          "indexed": true,
          "internalType": "uint256",
          "name": "bidId",
          "type": "uint256"
        },
        {
          "indexed": true,
          "internalType": "address",
          "name": "bidder",
          "type": "address"
        },
        {
          "indexed": false,
          "internalType": "uint256",
          "name": "amount",
          "type": "uint256"
        }
      ],
      "name": "BidPlaced",
      "type": "event"
    },
    {
      "anonymous": false,
      "inputs": [
        {
          "indexed": true,
          "internalType": "uint256",
          "name": "tenderId",
          "type": "uint256"
        },
        {
          "indexed": true,
          "internalType": "uint256",
          "name": "bidId",
          "type": "uint256"
        },
        {
          "indexed": true,
          "internalType": "address",
          "name": "bidder",
          "type": "address"
        }
      ],
      "name": "BidWithdrawn",
      "type": "event"
    },
    {
      "anonymous": false,
      "inputs": [
        {
          "indexed": true,
          "internalType": "address",
          "name": "entity",
          "type": "address"
        },
        {
          "indexed": false,
          "internalType": "uint256",
          "name": "amount",
          "type": "uint256"
        }
      ],
      "name": "BonusDistributed",
      "type": "event"
    },
    {
      "anonymous": false,
      "inputs": [
        {
          "indexed": true,
          "internalType": "address",
          "name": "entityAddress",
          "type": "address"
        }
      ],
      "name": "EntityDeactivated",
      "type": "event"
    },
    {
      "anonymous": false,
      "inputs": [
        {
          "indexed": true,
          "internalType": "address",
          "name": "entityAddress",
          "type": "address"
        },
        {
          "indexed": false,
          "internalType": "string",
          "name": "name",
          "type": "string"
        }
      ],
      "name": "EntityRegistered",
      "type": "event"
    },
    {
      "anonymous": false,
      "inputs": [
        {
          "indexed": true,
          "internalType": "uint256",
          "name": "id",
          "type": "uint256"
        },
        {
          "indexed": true,
          "internalType": "address",
          "name": "entity",
          "type": "address"
        }
      ],
      "name": "FundRequestApproved",
      "type": "event"
    },
    {
      "anonymous": false,
      "inputs": [
        {
          "indexed": true,
          "internalType": "uint256",
          "name": "id",
          "type": "uint256"
        },
        {
          "indexed": true,
          "internalType": "address",
          "name": "entity",
          "type": "address"
        }
      ],
      "name": "FundRequestRejected",
      "type": "event"
    },
    {
      "anonymous": false,
      "inputs": [
        {
          "indexed": true,
          "internalType": "uint256",
          "name": "id",
          "type": "uint256"
        },
        {
          "indexed": true,
          "internalType": "address",
          "name": "entity",
          "type": "address"
        },
        {
          "indexed": false,
          "internalType": "uint256",
          "name": "amount",
          "type": "uint256"
        },
        {
          "indexed": false,
          "internalType": "string",
          "name": "reason",
          "type": "string"
        },
        {
          "indexed": false,
          "internalType": "string",
          "name": "documentHash",
          "type": "string"
        }
      ],
      "name": "FundRequested",
      "type": "event"
    },
    {
      "anonymous": false,
      "inputs": [
        {
          "indexed": true,
          "internalType": "uint256",
          "name": "id",
          "type": "uint256"
        },
        {
          "indexed": true,
          "internalType": "address",
          "name": "to",
          "type": "address"
        },
        {
          "indexed": false,
          "internalType": "uint256",
          "name": "amount",
          "type": "uint256"
        }
      ],
      "name": "FundsIssued",
      "type": "event"
    },
    {
      "anonymous": false,
      "inputs": [
        {
          "indexed": true,
          "internalType": "uint256",
          "name": "id",
          "type": "uint256"
        },
        {
          "indexed": true,
          "internalType": "uint256",
          "name": "spendingRecordId",
          "type": "uint256"
        },
        {
          "indexed": true,
          "internalType": "address",
          "name": "entity",
          "type": "address"
        },
        {
          "indexed": false,
          "internalType": "string",
          "name": "description",
          "type": "string"
        },
        {
          "indexed": false,
          "internalType": "uint256",
          "name": "amount",
          "type": "uint256"
        }
      ],
      "name": "MicroTransactionRecorded",
      "type": "event"
    },
    {
      "anonymous": false,
      "inputs": [
        {
          "indexed": true,
          "internalType": "uint256",
          "name": "id",
          "type": "uint256"
        },
        {
          "indexed": true,
          "internalType": "address",
          "name": "entity",
          "type": "address"
        },
        {
          "indexed": false,
          "internalType": "uint256",
          "name": "amount",
          "type": "uint256"
        },
        {
          "indexed": false,
          "internalType": "string",
          "name": "documentHash",
          "type": "string"
        }
      ],
      "name": "SpendingRecorded",
      "type": "event"
    },
    {
      "anonymous": false,
      "inputs": [
        {
          "indexed": true,
          "internalType": "uint256",
          "name": "tenderId",
          "type": "uint256"
        },
        {
          "indexed": true,
          "internalType": "address",
          "name": "winner",
          "type": "address"
        },
        {
          "indexed": false,
          "internalType": "uint256",
          "name": "amount",
          "type": "uint256"
        }
      ],
      "name": "TenderAwarded",
      "type": "event"
    },
    {
      "anonymous": false,
      "inputs": [
        {
          "indexed": true,
          "internalType": "uint256",
          "name": "tenderId",
          "type": "uint256"
        },
        {
          "indexed": true,
          "internalType": "address",
          "name": "issuer",
          "type": "address"
        }
      ],
      "name": "TenderCancelled",
      "type": "event"
    },
    {
      "anonymous": false,
      "inputs": [
        {
          "indexed": true,
          "internalType": "uint256",
          "name": "id",
          "type": "uint256"
        },
        {
          "indexed": true,
          "internalType": "address",
          "name": "issuer",
          "type": "address"
        },
        {
          "indexed": false,
          "internalType": "string",
          "name": "title",
          "type": "string"
        },
        {
          "indexed": false,
          "internalType": "uint256",
          "name": "amount",
          "type": "uint256"
        },
        {
          "indexed": false,
          "internalType": "uint256",
          "name": "deadline",
          "type": "uint256"
        }
      ],
      "name": "TenderIssued",
      "type": "event"
    },
    {
      "anonymous": false,
      "inputs": [
        {
          "indexed": true,
          "internalType": "address",
          "name": "voter",
          "type": "address"
        },
        {
          "indexed": true,
          "internalType": "address",
          "name": "entity",
          "type": "address"
        },
        {
          "indexed": false,
          "internalType": "uint256",
          "name": "rating",
          "type": "uint256"
        }
      ],
      "name": "Voted",
      "type": "event"
    },
    {
      "inputs": [],
      "name": "BONUS_AMOUNT",
      "outputs": [
        {
          "internalType": "uint256",
          "name": "",
          "type": "uint256"
        }
      ],
      "stateMutability": "view",
      "type": "function"
    },
    {
      "inputs": [],
      "name": "VOTING_COOLDOWN",
      "outputs": [
        {
          "internalType": "uint256",
          "name": "",
          "type": "uint256"
        }
      ],
      "stateMutability": "view",
      "type": "function"
    },
    {
      "inputs": [
        {
          "internalType": "uint256",
          "name": "requestId",
          "type": "uint256"
        }
      ],
      "name": "approveFundRequest",
      "outputs": [],
      "stateMutability": "nonpayable",
      "type": "function"
    },
    {
      "inputs": [
        {
          "internalType": "uint256",
          "name": "tenderId",
          "type": "uint256"
        }
      ],
      "name": "awardTender",
      "outputs": [],
      "stateMutability": "nonpayable",
      "type": "function"
    },
    {
      "inputs": [
        {
          "internalType": "uint256",
          "name": "",
          "type": "uint256"
        },
        {
          "internalType": "uint256",
          "name": "",
          "type": "uint256"
        }
      ],
      "name": "bids",
      "outputs": [
        {
          "internalType": "uint256",
          "name": "id",
          "type": "uint256"
        },
        {
          "internalType": "address",
          "name": "bidder",
          "type": "address"
        },
        {
          "internalType": "uint256",
          "name": "amount",
          "type": "uint256"
        },
        {
          "internalType": "uint256",
          "name": "timestamp",
          "type": "uint256"
        },
        {
          "internalType": "bool",
          "name": "isWithdrawn",
          "type": "bool"
        }
      ],
      "stateMutability": "view",
      "type": "function"
    },
    {
      "inputs": [
        {
          "internalType": "uint256",
          "name": "tenderId",
          "type": "uint256"
        }
      ],
      "name": "cancelTender",
      "outputs": [],
      "stateMutability": "nonpayable",
      "type": "function"
    },
    {
      "inputs": [],
      "name": "centralGovernment",
      "outputs": [
        {
          "internalType": "address",
          "name": "",
          "type": "address"
        }
      ],
      "stateMutability": "view",
      "type": "function"
    },
    {
      "inputs": [
        {
          "internalType": "address",
          "name": "voter",
          "type": "address"
        }
      ],
      "name": "checkVotingStatus",
      "outputs": [
        {
          "internalType": "bool",
          "name": "",
          "type": "bool"
        }
      ],
      "stateMutability": "view",
      "type": "function"
    },
    {
      "inputs": [
        {
          "internalType": "address",
          "name": "entityAddress",
          "type": "address"
        }
      ],
      "name": "deactivateEntity",
      "outputs": [],
      "stateMutability": "nonpayable",
      "type": "function"
    },
    {
      "inputs": [],
      "name": "distributeBonus",
      "outputs": [],
      "stateMutability": "nonpayable",
      "type": "function"
    },
    {
      "inputs": [
        {
          "internalType": "uint256",
          "name": "",
          "type": "uint256"
        }
      ],
      "name": "entityAddresses",
      "outputs": [
        {
          "internalType": "address",
          "name": "",
          "type": "address"
        }
      ],
      "stateMutability": "view",
      "type": "function"
    },
    {
      "inputs": [
        {
          "internalType": "uint256",
          "name": "",
          "type": "uint256"
        }
      ],
      "name": "fundRequests",
      "outputs": [
        {
          "internalType": "uint256",
          "name": "id",
          "type": "uint256"
        },
        {
          "internalType": "address",
          "name": "entity",
          "type": "address"
        },
        {
          "internalType": "uint256",
          "name": "amount",
          "type": "uint256"
        },
        {
          "internalType": "string",
          "name": "reason",
          "type": "string"
        },
        {
          "internalType": "string",
          "name": "documentHash",
          "type": "string"
        },
        {
          "internalType": "uint256",
          "name": "timestamp",
          "type": "uint256"
        },
        {
          "internalType": "bool",
          "name": "isApproved",
          "type": "bool"
        },
        {
          "internalType": "bool",
          "name": "isRejected",
          "type": "bool"
        }
      ],
      "stateMutability": "view",
      "type": "function"
    },
    {
      "inputs": [],
      "name": "getAllEntityAddresses",
      "outputs": [
        {
          "internalType": "address[]",
          "name": "",
          "type": "address[]"
        }
      ],
      "stateMutability": "view",
      "type": "function"
    },
    {
      "inputs": [],
      "name": "getAllEntityRatings",
      "outputs": [
        {
          "internalType": "address[]",
          "name": "addresses",
          "type": "address[]"
        },
        {
          "internalType": "uint256[]",
          "name": "ratings",
          "type": "uint256[]"
        },
        {
          "internalType": "uint256[]",
          "name": "votes",
          "type": "uint256[]"
        }
      ],
      "stateMutability": "view",
      "type": "function"
    },
    {
      "inputs": [
        {
          "internalType": "uint256",
          "name": "tenderId",
          "type": "uint256"
        }
      ],
      "name": "getBids",
      "outputs": [
        {
          "components": [
            {
              "internalType": "uint256",
              "name": "id",
              "type": "uint256"
            },
            {
              "internalType": "address",
              "name": "bidder",
              "type": "address"
            },
            {
              "internalType": "uint256",
              "name": "amount",
              "type": "uint256"
            },
            {
              "internalType": "uint256",
              "name": "timestamp",
              "type": "uint256"
            },
            {
              "internalType": "bool",
              "name": "isWithdrawn",
              "type": "bool"
            }
          ],
          "internalType": "struct SimplifiedSpendingRegistry.Bid[]",
          "name": "",
          "type": "tuple[]"
        }
      ],
      "stateMutability": "view",
      "type": "function"
    },
    {
      "inputs": [],
      "name": "getContractBalance",
      "outputs": [
        {
          "internalType": "uint256",
          "name": "",
          "type": "uint256"
        }
      ],
      "stateMutability": "view",
      "type": "function"
    },
    {
      "inputs": [],
      "name": "getEntityCount",
      "outputs": [
        {
          "internalType": "uint256",
          "name": "",
          "type": "uint256"
        }
      ],
      "stateMutability": "view",
      "type": "function"
    },
    {
      "inputs": [
        {
          "internalType": "address",
          "name": "entityAddress",
          "type": "address"
        }
      ],
      "name": "getEntityDetails",
      "outputs": [
        {
          "internalType": "string",
          "name": "name",
          "type": "string"
        },
        {
          "internalType": "bool",
          "name": "isActive",
          "type": "bool"
        },
        {
          "internalType": "uint256",
          "name": "balance",
          "type": "uint256"
        },
        {
          "internalType": "uint256",
          "name": "needToSpend",
          "type": "uint256"
        }
      ],
      "stateMutability": "view",
      "type": "function"
    },
    {
      "inputs": [
        {
          "internalType": "address",
          "name": "entityAddress",
          "type": "address"
        },
        {
          "internalType": "uint256",
          "name": "offset",
          "type": "uint256"
        },
        {
          "internalType": "uint256",
          "name": "limit",
          "type": "uint256"
        }
      ],
      "name": "getEntityFundRequests",
      "outputs": [
        {
          "components": [
            {
              "internalType": "uint256",
              "name": "id",
              "type": "uint256"
            },
            {
              "internalType": "address",
              "name": "entity",
              "type": "address"
            },
            {
              "internalType": "uint256",
              "name": "amount",
              "type": "uint256"
            },
            {
              "internalType": "string",
              "name": "reason",
              "type": "string"
            },
            {
              "internalType": "string",
              "name": "documentHash",
              "type": "string"
            },
            {
              "internalType": "uint256",
              "name": "timestamp",
              "type": "uint256"
            },
            {
              "internalType": "bool",
              "name": "isApproved",
              "type": "bool"
            },
            {
              "internalType": "bool",
              "name": "isRejected",
              "type": "bool"
            }
          ],
          "internalType": "struct SimplifiedSpendingRegistry.FundRequest[]",
          "name": "",
          "type": "tuple[]"
        }
      ],
      "stateMutability": "view",
      "type": "function"
    },
    {
      "inputs": [
        {
          "internalType": "address",
          "name": "entityAddress",
          "type": "address"
        }
      ],
      "name": "getEntityHappinessRating",
      "outputs": [
        {
          "internalType": "uint256",
          "name": "rating",
          "type": "uint256"
        },
        {
          "internalType": "uint256",
          "name": "totalVotes",
          "type": "uint256"
        },
        {
          "internalType": "uint256",
          "name": "lastVoteTime",
          "type": "uint256"
        }
      ],
      "stateMutability": "view",
      "type": "function"
    },
    {
      "inputs": [
        {
          "internalType": "address",
          "name": "entityAddress",
          "type": "address"
        },
        {
          "internalType": "uint256",
          "name": "offset",
          "type": "uint256"
        },
        {
          "internalType": "uint256",
          "name": "limit",
          "type": "uint256"
        }
      ],
      "name": "getEntityIssuedFunds",
      "outputs": [
        {
          "components": [
            {
              "internalType": "uint256",
              "name": "id",
              "type": "uint256"
            },
            {
              "internalType": "address",
              "name": "entity",
              "type": "address"
            },
            {
              "internalType": "uint256",
              "name": "amount",
              "type": "uint256"
            },
            {
              "internalType": "uint256",
              "name": "timestamp",
              "type": "uint256"
            }
          ],
          "internalType": "struct SimplifiedSpendingRegistry.IssuedFund[]",
          "name": "",
          "type": "tuple[]"
        }
      ],
      "stateMutability": "view",
      "type": "function"
    },
    {
      "inputs": [
        {
          "internalType": "address",
          "name": "entityAddress",
          "type": "address"
        },
        {
          "internalType": "uint256",
          "name": "offset",
          "type": "uint256"
        },
        {
          "internalType": "uint256",
          "name": "limit",
          "type": "uint256"
        }
      ],
      "name": "getEntitySpendingRecords",
      "outputs": [
        {
          "components": [
            {
              "internalType": "uint256",
              "name": "id",
              "type": "uint256"
            },
            {
              "internalType": "address",
              "name": "entity",
              "type": "address"
            },
            {
              "internalType": "string",
              "name": "purpose",
              "type": "string"
            },
            {
              "internalType": "uint256",
              "name": "amount",
              "type": "uint256"
            },
            {
              "internalType": "string",
              "name": "documentHash",
              "type": "string"
            },
            {
              "internalType": "uint256",
              "name": "timestamp",
              "type": "uint256"
            }
          ],
          "internalType": "struct SimplifiedSpendingRegistry.SpendingRecord[]",
          "name": "",
          "type": "tuple[]"
        }
      ],
      "stateMutability": "view",
      "type": "function"
    },
    {
      "inputs": [
        {
          "internalType": "uint256",
          "name": "requestId",
          "type": "uint256"
        }
      ],
      "name": "getFundRequest",
      "outputs": [
        {
          "components": [
            {
              "internalType": "uint256",
              "name": "id",
              "type": "uint256"
            },
            {
              "internalType": "address",
              "name": "entity",
              "type": "address"
            },
            {
              "internalType": "uint256",
              "name": "amount",
              "type": "uint256"
            },
            {
              "internalType": "string",
              "name": "reason",
              "type": "string"
            },
            {
              "internalType": "string",
              "name": "documentHash",
              "type": "string"
            },
            {
              "internalType": "uint256",
              "name": "timestamp",
              "type": "uint256"
            },
            {
              "internalType": "bool",
              "name": "isApproved",
              "type": "bool"
            },
            {
              "internalType": "bool",
              "name": "isRejected",
              "type": "bool"
            }
          ],
          "internalType": "struct SimplifiedSpendingRegistry.FundRequest",
          "name": "",
          "type": "tuple"
        }
      ],
      "stateMutability": "view",
      "type": "function"
    },
    {
      "inputs": [
        {
          "internalType": "uint256",
          "name": "offset",
          "type": "uint256"
        },
        {
          "internalType": "uint256",
          "name": "limit",
          "type": "uint256"
        }
      ],
      "name": "getFundRequests",
      "outputs": [
        {
          "components": [
            {
              "internalType": "uint256",
              "name": "id",
              "type": "uint256"
            },
            {
              "internalType": "address",
              "name": "entity",
              "type": "address"
            },
            {
              "internalType": "uint256",
              "name": "amount",
              "type": "uint256"
            },
            {
              "internalType": "string",
              "name": "reason",
              "type": "string"
            },
            {
              "internalType": "string",
              "name": "documentHash",
              "type": "string"
            },
            {
              "internalType": "uint256",
              "name": "timestamp",
              "type": "uint256"
            },
            {
              "internalType": "bool",
              "name": "isApproved",
              "type": "bool"
            },
            {
              "internalType": "bool",
              "name": "isRejected",
              "type": "bool"
            }
          ],
          "internalType": "struct SimplifiedSpendingRegistry.FundRequest[]",
          "name": "",
          "type": "tuple[]"
        }
      ],
      "stateMutability": "view",
      "type": "function"
    },
    {
      "inputs": [
        {
          "internalType": "uint256",
          "name": "fundId",
          "type": "uint256"
        }
      ],
      "name": "getIssuedFund",
      "outputs": [
        {
          "components": [
            {
              "internalType": "uint256",
              "name": "id",
              "type": "uint256"
            },
            {
              "internalType": "address",
              "name": "entity",
              "type": "address"
            },
            {
              "internalType": "uint256",
              "name": "amount",
              "type": "uint256"
            },
            {
              "internalType": "uint256",
              "name": "timestamp",
              "type": "uint256"
            }
          ],
          "internalType": "struct SimplifiedSpendingRegistry.IssuedFund",
          "name": "",
          "type": "tuple"
        }
      ],
      "stateMutability": "view",
      "type": "function"
    },
    {
      "inputs": [
        {
          "internalType": "uint256",
          "name": "offset",
          "type": "uint256"
        },
        {
          "internalType": "uint256",
          "name": "limit",
          "type": "uint256"
        }
      ],
      "name": "getIssuedFunds",
      "outputs": [
        {
          "components": [
            {
              "internalType": "uint256",
              "name": "id",
              "type": "uint256"
            },
            {
              "internalType": "address",
              "name": "entity",
              "type": "address"
            },
            {
              "internalType": "uint256",
              "name": "amount",
              "type": "uint256"
            },
            {
              "internalType": "uint256",
              "name": "timestamp",
              "type": "uint256"
            }
          ],
          "internalType": "struct SimplifiedSpendingRegistry.IssuedFund[]",
          "name": "",
          "type": "tuple[]"
        }
      ],
      "stateMutability": "view",
      "type": "function"
    },
    {
      "inputs": [
        {
          "internalType": "uint256",
          "name": "offset",
          "type": "uint256"
        },
        {
          "internalType": "uint256",
          "name": "limit",
          "type": "uint256"
        }
      ],
      "name": "getMicroTransactions",
      "outputs": [
        {
          "components": [
            {
              "internalType": "uint256",
              "name": "id",
              "type": "uint256"
            },
            {
              "internalType": "uint256",
              "name": "spendingRecordId",
              "type": "uint256"
            },
            {
              "internalType": "address",
              "name": "entity",
              "type": "address"
            },
            {
              "internalType": "string",
              "name": "description",
              "type": "string"
            },
            {
              "internalType": "uint256",
              "name": "amount",
              "type": "uint256"
            },
            {
              "internalType": "uint256",
              "name": "timestamp",
              "type": "uint256"
            }
          ],
          "internalType": "struct SimplifiedSpendingRegistry.MicroTransaction[]",
          "name": "",
          "type": "tuple[]"
        }
      ],
      "stateMutability": "view",
      "type": "function"
    },
    {
      "inputs": [
        {
          "internalType": "uint256",
          "name": "recordId",
          "type": "uint256"
        }
      ],
      "name": "getSpendingRecord",
      "outputs": [
        {
          "components": [
            {
              "internalType": "uint256",
              "name": "id",
              "type": "uint256"
            },
            {
              "internalType": "address",
              "name": "entity",
              "type": "address"
            },
            {
              "internalType": "string",
              "name": "purpose",
              "type": "string"
            },
            {
              "internalType": "uint256",
              "name": "amount",
              "type": "uint256"
            },
            {
              "internalType": "string",
              "name": "documentHash",
              "type": "string"
            },
            {
              "internalType": "uint256",
              "name": "timestamp",
              "type": "uint256"
            }
          ],
          "internalType": "struct SimplifiedSpendingRegistry.SpendingRecord",
          "name": "",
          "type": "tuple"
        }
      ],
      "stateMutability": "view",
      "type": "function"
    },
    {
      "inputs": [
        {
          "internalType": "uint256",
          "name": "spendingRecordId",
          "type": "uint256"
        }
      ],
      "name": "getSpendingRecordMicroTransactions",
      "outputs": [
        {
          "components": [
            {
              "internalType": "uint256",
              "name": "id",
              "type": "uint256"
            },
            {
              "internalType": "uint256",
              "name": "spendingRecordId",
              "type": "uint256"
            },
            {
              "internalType": "address",
              "name": "entity",
              "type": "address"
            },
            {
              "internalType": "string",
              "name": "description",
              "type": "string"
            },
            {
              "internalType": "uint256",
              "name": "amount",
              "type": "uint256"
            },
            {
              "internalType": "uint256",
              "name": "timestamp",
              "type": "uint256"
            }
          ],
          "internalType": "struct SimplifiedSpendingRegistry.MicroTransaction[]",
          "name": "",
          "type": "tuple[]"
        }
      ],
      "stateMutability": "view",
      "type": "function"
    },
    {
      "inputs": [
        {
          "internalType": "uint256",
          "name": "offset",
          "type": "uint256"
        },
        {
          "internalType": "uint256",
          "name": "limit",
          "type": "uint256"
        }
      ],
      "name": "getSpendingRecords",
      "outputs": [
        {
          "components": [
            {
              "internalType": "uint256",
              "name": "id",
              "type": "uint256"
            },
            {
              "internalType": "address",
              "name": "entity",
              "type": "address"
            },
            {
              "internalType": "string",
              "name": "purpose",
              "type": "string"
            },
            {
              "internalType": "uint256",
              "name": "amount",
              "type": "uint256"
            },
            {
              "internalType": "string",
              "name": "documentHash",
              "type": "string"
            },
            {
              "internalType": "uint256",
              "name": "timestamp",
              "type": "uint256"
            }
          ],
          "internalType": "struct SimplifiedSpendingRegistry.SpendingRecord[]",
          "name": "",
          "type": "tuple[]"
        }
      ],
      "stateMutability": "view",
      "type": "function"
    },
    {
      "inputs": [
        {
          "internalType": "uint256",
          "name": "tenderId",
          "type": "uint256"
        }
      ],
      "name": "getTenderDetails",
      "outputs": [
        {
          "components": [
            {
              "internalType": "uint256",
              "name": "id",
              "type": "uint256"
            },
            {
              "internalType": "string",
              "name": "title",
              "type": "string"
            },
            {
              "internalType": "string",
              "name": "description",
              "type": "string"
            },
            {
              "internalType": "uint256",
              "name": "amount",
              "type": "uint256"
            },
            {
              "internalType": "uint256",
              "name": "deadline",
              "type": "uint256"
            },
            {
              "internalType": "address",
              "name": "issuer",
              "type": "address"
            },
            {
              "internalType": "bool",
              "name": "isActive",
              "type": "bool"
            },
            {
              "internalType": "address",
              "name": "winner",
              "type": "address"
            },
            {
              "internalType": "uint256",
              "name": "winningBid",
              "type": "uint256"
            },
            {
              "internalType": "uint256",
              "name": "minBidAmount",
              "type": "uint256"
            },
            {
              "internalType": "uint256",
              "name": "maxBidAmount",
              "type": "uint256"
            },
            {
              "internalType": "uint256",
              "name": "bidCount",
              "type": "uint256"
            }
          ],
          "internalType": "struct SimplifiedSpendingRegistry.Tender",
          "name": "",
          "type": "tuple"
        }
      ],
      "stateMutability": "view",
      "type": "function"
    },
    {
      "inputs": [
        {
          "internalType": "uint256",
          "name": "offset",
          "type": "uint256"
        },
        {
          "internalType": "uint256",
          "name": "limit",
          "type": "uint256"
        }
      ],
      "name": "getTenders",
      "outputs": [
        {
          "components": [
            {
              "internalType": "uint256",
              "name": "id",
              "type": "uint256"
            },
            {
              "internalType": "string",
              "name": "title",
              "type": "string"
            },
            {
              "internalType": "string",
              "name": "description",
              "type": "string"
            },
            {
              "internalType": "uint256",
              "name": "amount",
              "type": "uint256"
            },
            {
              "internalType": "uint256",
              "name": "deadline",
              "type": "uint256"
            },
            {
              "internalType": "address",
              "name": "issuer",
              "type": "address"
            },
            {
              "internalType": "bool",
              "name": "isActive",
              "type": "bool"
            },
            {
              "internalType": "address",
              "name": "winner",
              "type": "address"
            },
            {
              "internalType": "uint256",
              "name": "winningBid",
              "type": "uint256"
            },
            {
              "internalType": "uint256",
              "name": "minBidAmount",
              "type": "uint256"
            },
            {
              "internalType": "uint256",
              "name": "maxBidAmount",
              "type": "uint256"
            },
            {
              "internalType": "uint256",
              "name": "bidCount",
              "type": "uint256"
            }
          ],
          "internalType": "struct SimplifiedSpendingRegistry.Tender[]",
          "name": "",
          "type": "tuple[]"
        }
      ],
      "stateMutability": "view",
      "type": "function"
    },
    {
      "inputs": [],
      "name": "getTimeUntilNextBonus",
      "outputs": [
        {
          "internalType": "uint256",
          "name": "",
          "type": "uint256"
        }
      ],
      "stateMutability": "view",
      "type": "function"
    },
    {
      "inputs": [
        {
          "internalType": "address",
          "name": "",
          "type": "address"
        }
      ],
      "name": "governmentEntities",
      "outputs": [
        {
          "internalType": "string",
          "name": "name",
          "type": "string"
        },
        {
          "internalType": "bool",
          "name": "isActive",
          "type": "bool"
        },
        {
          "internalType": "uint256",
          "name": "balance",
          "type": "uint256"
        },
        {
          "internalType": "uint256",
          "name": "needToSpend",
          "type": "uint256"
        },
        {
          "internalType": "uint256",
          "name": "happinessRating",
          "type": "uint256"
        },
        {
          "internalType": "uint256",
          "name": "totalVotes",
          "type": "uint256"
        },
        {
          "internalType": "uint256",
          "name": "lastVoteTimestamp",
          "type": "uint256"
        }
      ],
      "stateMutability": "view",
      "type": "function"
    },
    {
      "inputs": [
        {
          "internalType": "address",
          "name": "",
          "type": "address"
        },
        {
          "internalType": "address",
          "name": "",
          "type": "address"
        }
      ],
      "name": "hasVoted",
      "outputs": [
        {
          "internalType": "bool",
          "name": "",
          "type": "bool"
        }
      ],
      "stateMutability": "view",
      "type": "function"
    },
    {
      "inputs": [
        {
          "internalType": "address",
          "name": "entityAddress",
          "type": "address"
        },
        {
          "internalType": "uint256",
          "name": "amount",
          "type": "uint256"
        }
      ],
      "name": "issueFunds",
      "outputs": [],
      "stateMutability": "payable",
      "type": "function"
    },
    {
      "inputs": [
        {
          "internalType": "string",
          "name": "title",
          "type": "string"
        },
        {
          "internalType": "string",
          "name": "description",
          "type": "string"
        },
        {
          "internalType": "uint256",
          "name": "amount",
          "type": "uint256"
        },
        {
          "internalType": "uint256",
          "name": "deadline",
          "type": "uint256"
        },
        {
          "internalType": "uint256",
          "name": "minBidAmount",
          "type": "uint256"
        },
        {
          "internalType": "uint256",
          "name": "maxBidAmount",
          "type": "uint256"
        }
      ],
      "name": "issueTender",
      "outputs": [],
      "stateMutability": "nonpayable",
      "type": "function"
    },
    {
      "inputs": [],
      "name": "issuedFundCount",
      "outputs": [
        {
          "internalType": "uint256",
          "name": "",
          "type": "uint256"
        }
      ],
      "stateMutability": "view",
      "type": "function"
    },
    {
      "inputs": [
        {
          "internalType": "uint256",
          "name": "",
          "type": "uint256"
        }
      ],
      "name": "issuedFunds",
      "outputs": [
        {
          "internalType": "uint256",
          "name": "id",
          "type": "uint256"
        },
        {
          "internalType": "address",
          "name": "entity",
          "type": "address"
        },
        {
          "internalType": "uint256",
          "name": "amount",
          "type": "uint256"
        },
        {
          "internalType": "uint256",
          "name": "timestamp",
          "type": "uint256"
        }
      ],
      "stateMutability": "view",
      "type": "function"
    },
    {
      "inputs": [],
      "name": "lastBonusDistribution",
      "outputs": [
        {
          "internalType": "uint256",
          "name": "",
          "type": "uint256"
        }
      ],
      "stateMutability": "view",
      "type": "function"
    },
    {
      "inputs": [
        {
          "internalType": "uint256",
          "name": "",
          "type": "uint256"
        }
      ],
      "name": "microTransactions",
      "outputs": [
        {
          "internalType": "uint256",
          "name": "id",
          "type": "uint256"
        },
        {
          "internalType": "uint256",
          "name": "spendingRecordId",
          "type": "uint256"
        },
        {
          "internalType": "address",
          "name": "entity",
          "type": "address"
        },
        {
          "internalType": "string",
          "name": "description",
          "type": "string"
        },
        {
          "internalType": "uint256",
          "name": "amount",
          "type": "uint256"
        },
        {
          "internalType": "uint256",
          "name": "timestamp",
          "type": "uint256"
        }
      ],
      "stateMutability": "view",
      "type": "function"
    },
    {
      "inputs": [
        {
          "internalType": "uint256",
          "name": "tenderId",
          "type": "uint256"
        },
        {
          "internalType": "uint256",
          "name": "amount",
          "type": "uint256"
        }
      ],
      "name": "placeBid",
      "outputs": [],
      "stateMutability": "nonpayable",
      "type": "function"
    },
    {
      "inputs": [],
      "name": "recordCount",
      "outputs": [
        {
          "internalType": "uint256",
          "name": "",
          "type": "uint256"
        }
      ],
      "stateMutability": "view",
      "type": "function"
    },
    {
      "inputs": [
        {
          "internalType": "uint256",
          "name": "spendingRecordId",
          "type": "uint256"
        },
        {
          "internalType": "string",
          "name": "description",
          "type": "string"
        },
        {
          "internalType": "uint256",
          "name": "amount",
          "type": "uint256"
        }
      ],
      "name": "recordMicroTransaction",
      "outputs": [],
      "stateMutability": "nonpayable",
      "type": "function"
    },
    {
      "inputs": [
        {
          "internalType": "string",
          "name": "purpose",
          "type": "string"
        },
        {
          "internalType": "uint256",
          "name": "amount",
          "type": "uint256"
        },
        {
          "internalType": "string",
          "name": "documentHash",
          "type": "string"
        }
      ],
      "name": "recordSpending",
      "outputs": [],
      "stateMutability": "nonpayable",
      "type": "function"
    },
    {
      "inputs": [
        {
          "internalType": "address",
          "name": "entityAddress",
          "type": "address"
        },
        {
          "internalType": "string",
          "name": "name",
          "type": "string"
        }
      ],
      "name": "registerEntity",
      "outputs": [],
      "stateMutability": "nonpayable",
      "type": "function"
    },
    {
      "inputs": [
        {
          "internalType": "uint256",
          "name": "requestId",
          "type": "uint256"
        }
      ],
      "name": "rejectFundRequest",
      "outputs": [],
      "stateMutability": "nonpayable",
      "type": "function"
    },
    {
      "inputs": [],
      "name": "requestCount",
      "outputs": [
        {
          "internalType": "uint256",
          "name": "",
          "type": "uint256"
        }
      ],
      "stateMutability": "view",
      "type": "function"
    },
    {
      "inputs": [
        {
          "internalType": "uint256",
          "name": "amount",
          "type": "uint256"
        },
        {
          "internalType": "string",
          "name": "reason",
          "type": "string"
        },
        {
          "internalType": "string",
          "name": "documentHash",
          "type": "string"
        }
      ],
      "name": "requestFunds",
      "outputs": [],
      "stateMutability": "nonpayable",
      "type": "function"
    },
    {
      "inputs": [
        {
          "internalType": "uint256",
          "name": "",
          "type": "uint256"
        },
        {
          "internalType": "uint256",
          "name": "",
          "type": "uint256"
        }
      ],
      "name": "spendingRecordMicroTransactions",
      "outputs": [
        {
          "internalType": "uint256",
          "name": "",
          "type": "uint256"
        }
      ],
      "stateMutability": "view",
      "type": "function"
    },
    {
      "inputs": [
        {
          "internalType": "uint256",
          "name": "",
          "type": "uint256"
        }
      ],
      "name": "spendingRecords",
      "outputs": [
        {
          "internalType": "uint256",
          "name": "id",
          "type": "uint256"
        },
        {
          "internalType": "address",
          "name": "entity",
          "type": "address"
        },
        {
          "internalType": "string",
          "name": "purpose",
          "type": "string"
        },
        {
          "internalType": "uint256",
          "name": "amount",
          "type": "uint256"
        },
        {
          "internalType": "string",
          "name": "documentHash",
          "type": "string"
        },
        {
          "internalType": "uint256",
          "name": "timestamp",
          "type": "uint256"
        }
      ],
      "stateMutability": "view",
      "type": "function"
    },
    {
      "inputs": [
        {
          "internalType": "uint256",
          "name": "",
          "type": "uint256"
        }
      ],
      "name": "tenderBidCount",
      "outputs": [
        {
          "internalType": "uint256",
          "name": "",
          "type": "uint256"
        }
      ],
      "stateMutability": "view",
      "type": "function"
    },
    {
      "inputs": [],
      "name": "tenderCount",
      "outputs": [
        {
          "internalType": "uint256",
          "name": "",
          "type": "uint256"
        }
      ],
      "stateMutability": "view",
      "type": "function"
    },
    {
      "inputs": [
        {
          "internalType": "uint256",
          "name": "",
          "type": "uint256"
        }
      ],
      "name": "tenders",
      "outputs": [
        {
          "internalType": "uint256",
          "name": "id",
          "type": "uint256"
        },
        {
          "internalType": "string",
          "name": "title",
          "type": "string"
        },
        {
          "internalType": "string",
          "name": "description",
          "type": "string"
        },
        {
          "internalType": "uint256",
          "name": "amount",
          "type": "uint256"
        },
        {
          "internalType": "uint256",
          "name": "deadline",
          "type": "uint256"
        },
        {
          "internalType": "address",
          "name": "issuer",
          "type": "address"
        },
        {
          "internalType": "bool",
          "name": "isActive",
          "type": "bool"
        },
        {
          "internalType": "address",
          "name": "winner",
          "type": "address"
        },
        {
          "internalType": "uint256",
          "name": "winningBid",
          "type": "uint256"
        },
        {
          "internalType": "uint256",
          "name": "minBidAmount",
          "type": "uint256"
        },
        {
          "internalType": "uint256",
          "name": "maxBidAmount",
          "type": "uint256"
        },
        {
          "internalType": "uint256",
          "name": "bidCount",
          "type": "uint256"
        }
      ],
      "stateMutability": "view",
      "type": "function"
    },
    {
      "inputs": [
        {
          "internalType": "address",
          "name": "entityAddress",
          "type": "address"
        },
        {
          "internalType": "uint256",
          "name": "rating",
          "type": "uint256"
        }
      ],
      "name": "voteForEntity",
      "outputs": [],
      "stateMutability": "nonpayable",
      "type": "function"
    },
    {
      "inputs": [
        {
          "internalType": "uint256",
          "name": "tenderId",
          "type": "uint256"
        },
        {
          "internalType": "uint256",
          "name": "bidId",
          "type": "uint256"
        }
      ],
      "name": "withdrawBid",
      "outputs": [],
      "stateMutability": "nonpayable",
      "type": "function"
    }
  ],
  "bytecode": "0x6080806040523461002c57601180546001600160a01b03191633179055426012556152b590816100328239f35b600080fdfe6080604052600436101561001257600080fd5b60003560e01c80630241a4431461448b5780630f780b561461446d57806312216c0714614351578063131d9a27146141ca57806315cf4b6e1461419e5780631dfd954214613f885780631f05877614613f6a57806321464bfe14613ea25780632a9544d714613dba5780632be837ec14613cdc5780632c71474d14613c865780632f0b6f721461389757806332b3f568146134ff5780633a74e070146133c657806344c6bc77146132e1578063465e1def146131ff5780634a572ae3146131e15780634d4d2b1c146131875780634dfa8434146131405780634fb1c4be14612f1357806353ee895d14612de357806357c90de514612b3457806358e9f12e14612a925780635badbe4c14612a745780635d1b45b514612a565780635dbe526f14612a2d5780636f9fb98a146129fc578063709eddb0146129b157806373236a5b1461276a57806373901f9f1461255757806374863d90146125345780637b3c4baa146124c957806380ee37fa14612410578063818f994d1461238e5780638876ac41146122c05780638fdee0c5146120e2578063900407bc146120c45780639a0fc03614611ff65780639a35646f14611e08578063a089126d14611cc9578063a30c351914611b87578063a5735662146118b9578063a88c113a146117cf578063b041f4801461133f578063b17972f9146112aa578063ba51f8221461117f578063bac5d8f9146110e8578063c4bce41814610b0d578063c7c258f214610ace578063dea1f581146105fe578063df619ad714610564578063e620f3a0146104c9578063ea9495191461037a578063ec10be3914610338578063f24f8241146102a75763f349c1e51461028457600080fd5b346102a25760003660031901126102a2576020601254604051908152f35b600080fd5b346102a25760203660031901126102a2576102c0614612565b6011546001600160a01b0391906102da9083163314614b96565b168060005260006020526102f860ff60016040600020015416614bfa565b806000526000602052600160406000200160ff1981541690557f99fdeeec075823d23f0e1926979b27aaab3c6d7fccdbbea8914592d98896d741600080a2005b346102a25760203660031901126102a2576004356005548110156102a257610361602091614b47565b905460405160039290921b1c6001600160a01b03168152f35b60403660031901126102a25761038e614612565b60243560018060a01b0380926103a982601154163314614b96565b169182600052602090600082526103ca60ff60016040600020015416614bfa565b82340361048657907f8102f9a1d31f6501d6c7e7dc50bc98598b6a71cfb3548fcb29a3bcec04b63655918460005260008252600260406000200161040f858254614c3a565b9055600361041e600854614c47565b806008556040519261042f84614628565b81845284840188815260408501918883526060860193428552600052848752604060002095518655600186019151166001600160601b0360a01b8254161790555160028401555191015560085492604051908152a3005b6064826040519062461bcd60e51b825280600483015260248201527f53656e742076616c7565206d757374206d617463682074686520616d6f756e746044820152fd5b346102a2576104e66104f76104dd366144ae565b92819382614c3a565b60075480821161055c575b50614d14565b61050081614ff7565b9160005b82811061051d57604051806105198682614a74565b0390f35b8061053c6105366105316105579486614c3a565b614a23565b50614f7f565b6105468287614e07565b526105518186614e07565b50614c47565b610504565b9050846104f1565b346102a25760203660031901126102a2576001600160a01b03610585614612565b1660005260006020526105d9604060002061059f81614823565b9060ff600182015416906002810154906003810154600482015490600660058401549301549360405197889760e0895260e0890190614532565b951515602088015260408701526060860152608085015260a084015260c08301520390f35b346102a25760603660031901126102a2576004356001600160401b0381116102a25761062e9036906004016146ed565b6044356001600160401b0381116102a25761064d9036906004016146ed565b33600052600060205261066a60ff60016040600020015416614c56565b815115610a895760243515610a455761068581511515614cc8565b33600052600060205260243560026040600020015410610a095733600052600060205260026040600020016106bd6024358254614d14565b905533600052600060205260036040600020016106dd6024358254614c3a565b90556106ea600954614c47565b80600955604051926106fb84614695565b81845260208401913383526040850191825260243560608601528360808601524260a0860152600052600160205260406000209184518355600183019060018060a01b039051166001600160601b0360a01b825416179055519283516001600160401b0381116109325761077260028401546147e9565b601f81116109c2575b506020601f8211600114610953578192939495600092610948575b50508160011b916000199060031b1c19161760028301555b6060810151600383015560808101518051906001600160401b038211610932576107db60048501546147e9565b601f81116108e7575b50602090601f83116001146108745791806005949260a094600092610869575b50508160011b916000199060031b1c19161760048501555b01519101556009547f1243a0379e4e37663c88f3bc1d8bdb9a3ca74f533be3a0cf855f3f80cbf467156040516024358152604060208201528061086433956040830190614532565b0390a3005b015190508780610804565b90601f198316916004860160005260206000209260005b8181106108cf575092600192859260a09660059896106108b6575b505050811b01600485015561081c565b015160001960f88460031b161c191690558780806108a6565b9293602060018192878601518155019501930161088b565b600485016000526020600020601f840160051c81019160208510610928575b601f0160051c01905b81811061091c57506107e4565b6000815560010161090f565b9091508190610906565b634e487b7160e01b600052604160045260246000fd5b015190508580610796565b6002840160005260206000209060005b601f19841681106109aa575060019394959683601f19811610610991575b505050811b0160028301556107ae565b015160001960f88460031b161c19169055858080610981565b9091602060018192858b015181550193019101610963565b600284016000526020600020601f830160051c810160208410610a02575b601f830160051c820181106109f657505061077b565b600081556001016109e0565b50806109e0565b60405162461bcd60e51b8152602060048201526014602482015273496e73756666696369656e742062616c616e636560601b6044820152606490fd5b606460405162461bcd60e51b815260206004820152602060248201527f416d6f756e74206d7573742062652067726561746572207468616e207a65726f6044820152fd5b60405162461bcd60e51b815260206004820152601760248201527f507572706f73652063616e6e6f7420626520656d7074790000000000000000006044820152606490fd5b346102a257610adc366144ae565b90600052600b602052604060002080548210156102a257602091610aff91614b7e565b90546040519160031b1c8152f35b346102a25760c03660031901126102a2576004356001600160401b0381116102a257610b3d9036906004016146ed565b6024356001600160401b0381116102a257610b5c9036906004016146ed565b90336000526000602052610b7a60ff60016040600020015416614c56565b610b876044351515614e67565b4260643511156110a3576084351561104c5760843560a4351115610fe15733600052600060205260443560026040600020015410610f9057610bca601054614c47565b8060105560405192610bdb8461465e565b8184528260208501526040840152604435606084015260643560808401523360a0840152600160c0840152600060e0840152600061010084015260843561012084015260a4356101408401526000610160840152600052600d60205260406000208251815560208301519283516001600160401b03811161093257610c6360018401546147e9565b601f8111610f49575b506020601f8211600114610eda578192939495600092610ecf575b50508160011b916000199060031b1c19161760018301555b60408101518051906001600160401b03821161093257610cc260028501546147e9565b601f8111610e88575b50602090601f8311600114610e12579180600a949261016094600092610e07575b50508160011b916000199060031b1c19161760028501555b60608101516003850155608081015160048501556005840160018060a01b03908160a08401511681549060ff60a01b60c0860151151560a01b16916affffffffffffffffffffff60a81b1617179055600685019060e0830151166001600160601b0360a01b82541617905561010081015160078501556101208101516008850155610140810151600985015501519101553360005260006020526002604060002001610db36044358254614d14565b90556010547fa57590356b27448860a006f0265445002790351fe29648717df7ec7481c9e4df610dee60405193606085526060850190614532565b92604435602082015260643560408201528033940390a3005b015190508780610cec565b906002850160005260206000209160005b601f1985168110610e70575092600a94926001926101609583601f19811610610e57575b505050811b016002850155610d04565b015160001960f88460031b161c19169055878080610e47565b91926020600181928685015181550194019201610e23565b600285016000526020600020601f840160051c810160208510610ec8575b601f830160051c82018110610ebc575050610ccb565b60008155600101610ea6565b5080610ea6565b015190508580610c87565b6001840160005260206000209060005b601f1984168110610f31575060019394959683601f19811610610f18575b505050811b016001830155610c9f565b015160001960f88460031b161c19169055858080610f08565b9091602060018192858b015181550193019101610eea565b600184016000526020600020601f830160051c810160208410610f89575b601f830160051c82018110610f7d575050610c6c565b60008155600101610f67565b5080610f67565b60405162461bcd60e51b8152602060048201526024808201527f496e73756666696369656e742062616c616e636520746f206973737565207465604482015263373232b960e11b6064820152608490fd5b60405162461bcd60e51b815260206004820152603a60248201527f4d6178696d756d2062696420616d6f756e74206d75737420626520677265617460448201527f6572207468616e206d696e696d756d2062696420616d6f756e740000000000006064820152608490fd5b60405162461bcd60e51b815260206004820152602960248201527f4d696e696d756d2062696420616d6f756e74206d75737420626520677265617460448201526806572207468616e20360bc1b6064820152608490fd5b60405162461bcd60e51b815260206004820152601e60248201527f446561646c696e65206d75737420626520696e207468652066757475726500006044820152606490fd5b346102a25760203660031901126102a25760043560005260016020526040600020805460018060a01b036001830154169161117561112860028301614823565b91600381015490611162600561114060048401614823565b920154946040519788978852602088015260c0604088015260c0870190614532565b9160608601528482036080860152614532565b9060a08301520390f35b346102a25760003660031901126102a257600580549061119e82614da0565b906111ac60405192836146cc565b828252601f196111bb84614da0565b019260209336858501376111ce816150bc565b906111d8816150bc565b9260005b82811061121f5761120486610519876112118b89604051968796606088526060880190614ad6565b9186830390870152614b13565b908382036040850152614b13565b8061122c6112a592614b47565b90546001600160a01b039160039190821b1c821661124a848b614e07565b528161125584614b47565b905490831b1c1660005260008a526004604060002001546112768489614e07565b5261128083614b47565b9054911b1c1660005260008852826040600020015461129f8288614e07565b52614c47565b6111dc565b346102a25760003660031901126102a2576040518060055480825282602080930160056000527f036b6384b5eca791c62761152d0c79bb0604c104a5fb6f4eb0703f3154bb3db09260005b858282106113205750505061130c925003836146cc565b610519604051928284938452830190614ad6565b85546001600160a01b03168452600195860195889550930192016112f5565b346102a25760603660031901126102a2576024356001600160401b0381116102a25761136f9036906004016146ed565b6044356001600160401b0381116102a25761138e9036906004016146ed565b903360005260006020526113ac60ff60016040600020015416614c56565b6113b96004351515614e67565b805115611791576113cc82511515614cc8565b600754906113d982614c47565b6007556040516113e8816146b0565b8281526020810133815260408201600435815260608301908482528660808501524260a0850152600060c0850152600060e0850152600c54600160401b8110156109325780600161143c9201600c55614a23565b93909361177b5784518455516001840180546001600160a01b0319166001600160a01b0392909216919091179055516002830155518051906001600160401b03821161093257819061149160038501546147e9565b601f8111611728575b50602090601f83116001146116b6576000926116ab575b50508160011b916000199060031b1c19161760038201555b60808201518051906001600160401b038211610932576114ec60048401546147e9565b601f8111611664575b50602090601f83116001146115cb577f09569327b0ebac7ebd8d677c9f6449afaf57b97a2a0d523adc4a0ad31b3f00c79593836115b1969460e0946006946000926115c0575b50508160011b916000199060031b1c19161760048201555b60a08401516005820155019161157b60c08201511515849060ff801983541691151516179055565b0151151561ff0082549160081b169061ff0019161790556108646040519283926004358452606060208501526060840190614532565b82810360408401523396614532565b015190508b8061153b565b90601f198316916004850160005260206000209260005b81811061164c57508460e0946006947f09569327b0ebac7ebd8d677c9f6449afaf57b97a2a0d523adc4a0ad31b3f00c79a98946115b19a9860019510611633575b505050811b016004820155611553565b015160001960f88460031b161c191690558b8080611623565b929360206001819287860151815501950193016115e2565b600484016000526020600020601f840160051c8101602085106116a4575b601f830160051c820181106116985750506114f5565b60008155600101611682565b5080611682565b0151905087806114b1565b9250600384016000526020600020906000935b601f198416851061170d576001945083601f198116106116f4575b505050811b0160038201556114c9565b015160001960f88460031b161c191690558780806116e4565b818101518355602094850194600190930192909101906116c9565b909150600384016000526020600020601f840160051c810160208510611774575b90849392915b601f830160051c8201811061176557505061149a565b6000815585945060010161174f565b5080611749565b634e487b7160e01b600052600060045260246000fd5b60405162461bcd60e51b8152602060048201526016602482015275526561736f6e2063616e6e6f7420626520656d70747960501b6044820152606490fd5b346102a2576020806003193601126102a2576004356117ec614d21565b50801515806118ad575b15611874576000526001815260406000209060056040519261181784614695565b8054845260018101546001600160a01b03168385015261183960028201614823565b60408501526003810154606085015261185460048201614823565b6080850152015460a0830152610519604051928284938452830190614966565b60405162461bcd60e51b8152600481018390526011602482015270125b9d985b1a59081c9958dbdc99081251607a1b6044820152606490fd5b506009548111156117f6565b346102a2576118c7366144ae565b3360005260206000815260ff60016118e782826040600020015416614c56565b84600052600d83526119058260056040600020015460a01c16615194565b84600052600d835261192060046040600020015442106151d7565b84600052600e92838152604060002085600052815260018060a01b0392338484604060002001541603611b42578660005284825260406000208660005282528060046040600020015416611b055786600052848252604060002086600052825260046040600020018360ff1982541617905586600052600d8252600a60406000200180548015611aef5760001901905586600052600d8252836006604060002001541633146119f4575b3386887fb41c9b05054be45850ccc1da7d90c7b819cff855cfe0d14f16427398b286c9b6600080a4005b600092600095816000905b611a3c575b5050505090600d600692876000525260406000209060078201550191166001600160601b0360a01b82541617905582808080806119ca565b89600052600f8552604060002054811015611aea57818552604060002081600052855283600460406000200154161580611abf575b611a88575b90611a818392614c47565b90916119ff565b60008a815282865260408082208383528752808220600201548c835284885281832084845288529120840154881698509550611a76565b50851580611a7157508960005281855260406000208160005285528560026040600020015410611a71565b611a04565b634e487b7160e01b600052601160045260246000fd5b60405162461bcd60e51b81526004810183905260156024820152742134b21030b63932b0b23c903bb4ba34323930bbb760591b6044820152606490fd5b60405162461bcd60e51b815260048101839052601c60248201527f4f6e6c79206269646465722063616e20776974686472617720626964000000006044820152606490fd5b346102a257611b953661493c565b90600081600093600754945b858110611c7f575091611bb7611bc59383614c3a565b90808211611c775750614d14565b611bce81614ff7565b9360009160005b85811080611c6e575b15611c60576001611bee82614a23565b50818060a01b0391829101541690841614611c12575b611c0d90614c47565b611bd5565b92611c278186611c0d931015611c2f57614c47565b939050611c04565b610551611c3b87614a23565b50611c4f611c498a85614d14565b91614f7f565b611c59828d614e07565b528a614e07565b604051806105198982614a74565b50818410611bde565b9050866104f1565b9091506001611c8d82614a23565b50818060a01b0391829101541690871614611cb4575b611cac90614c47565b908391611ba1565b91611cc1611cac91614c47565b929050611ca3565b346102a257611cd7366144ae565b60095480831015611dc3578290611cef831515614d54565b80611cfa8484614c3a565b11611db2575b5050611d0b81614db7565b9160005b828110611d24576040518061051986826149c1565b611d2e8183614c3a565b906001808301809311611aef57611dad926000526005602082815260406000209060405193611d5c85614695565b825485528201546001600160a01b031690840152611d7c60028201614823565b604084015260038101546060840152611d9760048201614823565b6080840152015460a08201526105468287614e07565b611d0f565b611dbc9250614d14565b8183611d00565b60405162461bcd60e51b815260206004820152601b60248201527f4f66667365742065786365656473207265636f726420636f756e7400000000006044820152606490fd5b346102a25760003660031901126102a2576011546001600160a01b0390611e329082163314614b96565b601254620151808101809111611aef574210611fb157670de0b6b3a764000090814710611f6c5760055460009081805b828110611f0a5750505016908115611ec5578160005260006020526002604060002001805491808301809311611aef577f8e3a90176f65d9f17b62ae9970b50ff21e66bba05788435310f6e12c942b0b37926020925542601255604051908152a2005b60405162461bcd60e51b815260206004820152601a60248201527f4e6f20656c696769626c6520656e74697469657320666f756e640000000000006044820152606490fd5b84611f1482614b47565b90549060031b1c16806000526000602052604060002060ff60018201541680611f5f575b611f4d575b5050611f4890614c47565b611e62565b600401549094509150611f4887611f3d565b5083600482015411611f38565b60405162461bcd60e51b815260206004820152601d60248201527f496e73756666696369656e7420636f6e74726163742062616c616e63650000006044820152606490fd5b60405162461bcd60e51b815260206004820152601c60248201527f546f6f20736f6f6e20746f206469737472696275746520626f6e7573000000006044820152606490fd5b346102a25761200a61201a6104dd366144ae565b600a5480821161055c5750614d14565b6120238161511a565b9160005b82811061203c57604051806105198682614743565b6120468183614c3a565b906001808301809311611aef576120bf92600052600560026020908082526040600020916040519461207786614695565b83548652830154908501528101546001600160a01b0316604084015261209f60038201614823565b606084015260048101546080840152015460a08201526105468287614e07565b612027565b346102a25760003660031901126102a2576020600654604051908152f35b346102a2576020806003193601126102a257600435336000526000825261211360ff60016040600020015416614c56565b80600052600d825261213260ff60056040600020015460a01c16615194565b80600052600d8252600460406000200154421061227b576000818152600d835260409020600601546001600160a01b0392908316156122415781600052600d8152826005604060002001541633036121fd577fb6da2d97c7be1b795c416cc5e17d479a1a6fb59b6e95214ee25aaaf42796c8029082600052600d815260076040600020946005860160ff60a01b1981541690556003860154600687019082825416600052600085526121ed6002604060002001918254614c3a565b90555416940154604051908152a3005b6064906040519062461bcd60e51b82526004820152601c60248201527f4f6e6c79206973737565722063616e2061776172642074656e646572000000006044820152fd5b6064906040519062461bcd60e51b825260048201526013602482015272139bc81d985b1a5908189a591cc8199bdd5b99606a1b6044820152fd5b60405162461bcd60e51b815260048101839052601e60248201527f54656e64657220646561646c696e6520686173206e6f742070617373656400006044820152606490fd5b346102a25760203660031901126102a2576001600160a01b036122e1614612565b1680600052600060205261230860ff60016040600020015416801580612386575b50614e1b565b60005260006020526060604060002060c0604051916123268361467a565b61232f81614823565b835260ff600182015416151560208401526002810154604084015260038101548484015260048101549283608082015260066005830154928360a08401520154928391015260405192835260208301526040820152f35b905083612302565b346102a25760203660031901126102a25760043560005260026020526040600020805460018201549160018060a01b036002820154166124016123d360038401614823565b600560048501549401549260405196879687526020870152604086015260c0606086015260c0850190614532565b91608084015260a08301520390f35b346102a25760203660031901126102a257600435600c548110156102a25761243790614a23565b50805460018060a01b036001830154169160ff60028201546124aa61245e60038501614823565b61249c61246d60048701614823565b916006600588015497015494604051998a998a5260208a015260408901526101008060608a0152880190614532565b908682036080880152614532565b9260a0850152818116151560c085015260081c16151560e08301520390f35b346102a2576124d7366144ae565b90600052600e60205260406000209060005260205260a06040600020805490600180841b0360018201541690600281015460ff60046003840154930154169260405194855260208501526040840152606083015215156080820152f35b346102a25760003660031901126102a2576020604051670de0b6b3a76400008152f35b346102a2576125653661493c565b9060018060a01b0380931691826000526020936000855260019361259a60ff8660406000200154168015806127625750614e1b565b600854906000865b838111156127265750808610156126e357908587926125c2871515614d54565b806125cd8884614c3a565b116126d0575b505090506125e08461506c565b9660009460009388805b6125fd575b604051806105198d826144c4565b81811115806126c7575b156126c25790818a959493926000528b60038086526040600020908a898301541691888314612648575b5050505061263e90614c47565b90919293946125ea565b8d8d959d101561266f575b5050505061266361263e91614c47565b9890508b8d8080612631565b8a612663946126b89461263e979d94610551946040519261268f84614628565b815484528d84015260028101546040840152015460608201526126b28383614e07565b52614e07565b97918d918f612653565b6125ef565b50828610612607565b6126db929650614d14565b9385896125d3565b6064886040519062461bcd60e51b825280600483015260248201527f4f6666736574206578636565647320656e746974792066756e6420636f756e746044820152fd5b806000526003895282858960406000200154161461274d575b61274890614c47565b6125a2565b9061275a61274891614c47565b91905061273f565b905088612302565b346102a25760403660031901126102a257612783614612565b6001600160a01b0316600081815260208181526040909120600101546024929183359160ff16156129775760018210158061296c575b15612929573360005260048152604060002083600052815260ff604060002054166128d757826000526000815260406000206005600482015491015490818102908082048314901517156128ad578361281191614c3a565b600182018092116128ad5781156128c257600591856000526000845260406000209104600482015501805490600182018092116128ad57907f174ba19ba3c8bb5c679c87e51db79fff7c3f04bb84c1fd55b7dacb470b674aa6929155836000526000815242600660406000200155336000526004815260406000208460005281526040600020600160ff198254161790556040519283523392a3005b85634e487b7160e01b60005260116004526000fd5b85634e487b7160e01b60005260126004526000fd5b6084906026856040519262461bcd60e51b845260048401528201527f596f75206861766520616c726561647920766f74656420666f72207468697320604482015265656e7469747960d01b6064820152fd5b606490601e856040519262461bcd60e51b845260048401528201527f526174696e67206d757374206265206265747765656e203120616e64203500006044820152fd5b5060058211156127b9565b6064906014856040519262461bcd60e51b8452600484015282015273456e74697479206973206e6f742061637469766560601b6044820152fd5b346102a25760203660031901126102a2576001600160a01b036129d2614612565b166000526004602052604060002033600052602052602060ff604060002054166040519015158152f35b346102a25760003660031901126102a257612a2260018060a01b03601154163314614b96565b602047604051908152f35b346102a25760003660031901126102a2576011546040516001600160a01b039091168152602090f35b346102a25760003660031901126102a2576020600554604051908152f35b346102a25760003660031901126102a2576020600754604051908152f35b346102a25760203660031901126102a25760043560018060a01b03612abc81601154163314614b96565b612ac96007548310614eb3565b6001612ad483614a23565b5060068101610100815460ff81161580612b25575b612af290614ef4565b61ff001916179055015416907f4323a3f8bbbcf284e67a4932738f0f8fe465297d522b256e4f863ffbbf22c7ee600080a3005b50600881901c60ff1615612ae9565b346102a257612b42366144ae565b33600052602060008152612b6060ff60016040600020015416614c56565b82600052600d90818152612b8160ff60056040600020015460a01c16615194565b83600052818152612b9b60046040600020015442106151d7565b600084815282825260409020600501546001600160a01b03949085163314612d9e57806000528282526008604060002001548410612d5957806000528282526009604060002001548411612d145780600052600f82526040600020805490612c0282614c47565b9055612c90604051612c1381614643565b828152600485820198338a5260408301898152606084019042825260808501926000845288600052600e8a526040600020886000528a52604060002095518655600186019c51169b6001600160601b0360a01b9c8d82541617905551600285015551600384015551151591019060ff801983541691151516179055565b81600052838352600a604060002001612ca98154614c47565b905560405190858252827f6f7e354ea3ab5c288aea37fce29c603f9a98a3b040f6d8f32f10e192ec47ff6a853394a4600052526040600020600781019182548015908115612d0a575b50612cf957005b909155600601805490911633179055005b9050811085612cf2565b60405162461bcd60e51b815260048101839052601860248201527f42696420616d6f756e742061626f7665206d6178696d756d00000000000000006044820152606490fd5b60405162461bcd60e51b815260048101839052601860248201527f42696420616d6f756e742062656c6f77206d696e696d756d00000000000000006044820152606490fd5b60405162461bcd60e51b815260048101839052601760248201527f4973737565722063616e6e6f7420706c616365206269640000000000000000006044820152606490fd5b346102a2576020806003193601126102a257600435612e00615223565b5080151580612f07575b15612ece57600052600d8152604060002090600a60405192612e2b8461465e565b80548452612e3b60018201614823565b83850152612e4b60028201614823565b60408501526003810154606085015260048101546080850152600581015460ff60018060a01b039182811660a088015260a01c16151560c086015260068201541660e08501526007810154610100850152600881015461012085015260098101546101408501520154610160830152610519604051928284938452830190614572565b60405162461bcd60e51b8152600481018390526011602482015270125b9d985b1a59081d195b99195c881251607a1b6044820152606490fd5b50601054811115612e0a565b346102a257612f213661493c565b9060018060a01b038093169182600052602060008152600193612f5560ff8660406000200154168015806127625750614e1b565b600954906000865b838111156131055750808610156130b5578590612f7b861515614d54565b80612f868784614c3a565b116130a2575b5050612f9784614db7565b9660009460009388805b612fb4575b604051806105198d826149c1565b8181111580613099575b156130945790818a9493926000528488528b6040600020858782015416888114612ff8575b505050612fef90614c47565b90919293612fa1565b908a918d8d959d1015613021575b50505050613016612fef91614c47565b9890508b8d80612fe3565b8a61301694613087946005612fef989e95610551956040519361304385614695565b8254855284015261305660028201614823565b60408401526003810154606084015261307160048201614823565b6080840152015460a08201526126b28383614e07565b979150508b888e80613006565b612fa6565b50828610612fbe565b6130ad929550614d14565b928488612f8c565b60405162461bcd60e51b815260048101859052602260248201527f4f6666736574206578636565647320656e74697479207265636f726420636f756044820152611b9d60f21b6064820152608490fd5b8060005287855282898960406000200154161461312b575b61312690614c47565b612f5d565b9061313861312691614c47565b91905061311d565b346102a25760203660031901126102a257610519613173610536600435613165614f40565b506105316007548210614eb3565b6040519182916020835260208301906148c9565b346102a25760403660031901126102a2576131a0614612565b6001600160a01b0360243581811692908390036102a257166000526004602052604060002090600052602052602060ff604060002054166040519015158152f35b346102a25760003660031901126102a2576020600854604051908152f35b346102a25760203660031901126102a257600435600052600d6020526040600020805461322e60018301614823565b9161323b60028201614823565b6003820154916004810154600582015460018060a01b039060ff82600686015416916007860154936008870154956132a3600a60098a0154990154996132956040519e8f9e8f908152610180908160208201520190614532565b8d810360408f015290614532565b9960608c015260808b0152811660a08a015260a01c16151560c088015260e08701526101008601526101208501526101408401526101608301520390f35b346102a2576020806003193601126102a257600435600052600b81526040600020604051808284829454938481520190600052846000209260005b868282106133b05784613331818603826146cc565b61333b815161511a565b9160005b82518110156133a2578061335661339d9285614e07565b516000526002808452600560406000206040519261337384614695565b815484526001820154878501528101546001600160a01b0316604084015261209f60038201614823565b61333f565b604051806105198682614743565b855484526001958601958795509301920161331c565b346102a2576020806003193601126102a2576004359033600052600081526133f860ff60016040600020015416614c56565b81600052600d815261341760ff60056040600020015460a01c16615194565b6000828152600d825260409020600501546001600160a01b039190821633036134bb57600090838252600d8152613456600460408420015442106151d7565b838252600d815260408220926003600585019485549560ff60a01b1987169055015493168252526134906002604060002001918254614c3a565b905533907f116bcf29f123d8a1761e1b9bebbc345a1f08879dafde27b887a89e6e0b7af019600080a3005b6064906040519062461bcd60e51b82526004820152601d60248201527f4f6e6c79206973737565722063616e2063616e63656c2074656e6465720000006044820152fd5b346102a25760403660031901126102a257613518614612565b6001600160401b03906024358281116102a2576135399036906004016146ed565b9161354f60018060a01b03601154163314614b96565b6001600160a01b038216156138525782511561380d576001600160a01b03821660009081526020819052604090206001015460ff166137bc576040516135948161467a565b83815260016020820152600060408201526000606082015260006080820152600060a0820152600060c082015260018060a01b038316600052600060205260406000209181518051918211610932576135ed84546147e9565b601f8111613778575b50602090601f83116001146137095791806006949260c0946000926136fe575b50508160011b916000199060031b1c19161784555b61364a60208201511515600186019060ff801983541691151516179055565b60408101516002850155606081015160038501556080810151600485015560a081015160058501550151910155600554600160401b811015610932577f1b7e3d9f922be54960ce9bea1d47b9b6ea18bbafb4e0fdeedc5e2a668e8fdaf8916136bb8260016136f99401600555614b47565b81549060031b9060018060a01b038416821b9160018060a01b03901b19161790556040519182916020835260018060a01b0316946020830190614532565b0390a2005b015190508880613616565b908460005260206000209160005b601f19851681106137605750926006949260019260c09583601f19811610613747575b505050811b01845561362b565b015160001960f88460031b161c1916905588808061373a565b91926020600181928685015181550194019201613717565b846000526020600020601f840160051c8101602085106137b5575b601f830160051c820181106137a95750506135f6565b60008155600101613793565b5080613793565b60405162461bcd60e51b8152602060048201526024808201527f456e7469747920616c7265616479207265676973746572656420616e642061636044820152637469766560e01b6064820152608490fd5b60405162461bcd60e51b815260206004820152601b60248201527f456e74697479206e616d652063616e6e6f7420626520656d70747900000000006044820152606490fd5b60405162461bcd60e51b815260206004820152601d60248201527f456e7469747920616464726573732063616e6e6f74206265207a65726f0000006044820152606490fd5b346102a25760603660031901126102a2576001600160401b036024358181116102a2576138c89036906004016146ed565b903360005260006020526138e660ff60016040600020015416614c56565b600435600052600160205260018060a01b039033826001604060002001541603613c1c576139176044351515614e67565b825115613bd75733600052600060205260443560036040600020015410613b935733600052600060205260036040600020016139566044358254614d14565b9055613963600a54614c47565b9081600a556040519161397583614695565b808352602083019360043585526040840190338252606085019287845260443560808701524260a0870152600052600260205260406000209585518755516001870155600286019151166001600160601b0360a01b825416179055518051918211610932576139e760038501546147e9565b601f8111613b4c575b50602090601f8311600114613ad75791806005949260a094600092613acc575b50508160011b916000199060031b1c19161760038501555b608081015160048501550151910155600435600052600b6020526040600020600a54908054600160401b81101561093257613a6891600182018155614b7e565b819291549060031b91821b91600019901b1916179055600a54613a9660405192604084526040840190614532565b9060443560208401527f6a6b3e9a68b09e7e4efa25d186c63204b5ceb3777d516eb58090aff71935dbc1339380600435940390a4005b015190508780613a10565b906003850160005260206000209160005b601f1985168110613b345750926005949260019260a09583601f19811610613b1b575b505050811b016003850155613a28565b015160001960f88460031b161c19169055878080613b0b565b91926020600181928685015181550194019201613ae8565b600385016000526020600020601f840160051c810160208510613b8c575b601f830160051c82018110613b805750506139f0565b60008155600101613b6a565b5080613b6a565b606460405162461bcd60e51b815260206004820152602060248201527f496e73756666696369656e74206e656564546f5370656e642062616c616e63656044820152fd5b60405162461bcd60e51b815260206004820152601b60248201527f4465736372697074696f6e2063616e6e6f7420626520656d70747900000000006044820152606490fd5b608460405162461bcd60e51b815260206004820152604060248201527f4e6f7420617574686f72697a656420746f20616464206d6963726f2d7472616e60448201527f73616374696f6e7320746f2074686973207370656e64696e67207265636f72646064820152fd5b346102a25760203660031901126102a25760043560005260036020526080604060002080549060018060a01b03600182015416906003600282015491015491604051938452602084015260408301526060820152f35b346102a25760203660031901126102a2576001600160a01b03613cfd614612565b16806000526000602052613d2360ff600160406000200154168015806123865750614e1b565b6000526000602052613da66040600020604051613d3f8161467a565b613d4882614823565b9182825260ff60018201541615159182602082015260028201549081604082015260c0600660038501549485606085015260048101546080850152600581015460a08501520154910152604051948594608086526080860190614532565b926020850152604084015260608301520390f35b346102a25760203660031901126102a257600435613dd6615047565b5080151580613e96575b15613e5f57600052600360205260806040600020600360405191613e0383614628565b8054835260018060a01b0360018201541660208401526002810154604084015201546060820152613e5d6040518092606080918051845260018060a01b036020820151166020850152604081015160408501520151910152565bf35b60405162461bcd60e51b815260206004820152600f60248201526e125b9d985b1a5908199d5b99081251608a1b6044820152606490fd5b50600854811115613de0565b346102a25760203660031901126102a25760043560018060a01b03613ecc81601154163314614b96565b613ed96007548310614eb3565b613ee282614a23565b50600681016001815460ff81161580613f5b575b613eff90614ef4565b60ff191617905560016002820154910190828254166000526000602052613f2f6002604060002001918254614c3a565b90555416907f2f14cf4ee725545bfe00e4128e96a1c8143718c3738cb5395484377ea6743630600080a3005b50600881901c60ff1615613ef6565b346102a25760003660031901126102a2576020601054604051908152f35b346102a257613f96366144ae565b60105480831015614159578290613fae831515614d54565b80613fb98484614c3a565b11614148575b5050613fca81614da0565b91613fd860405193846146cc565b818352601f19613fe783614da0565b0160005b81811061413157505060005b82811061405d576040805160208082528651818301819052600093600582901b8401810192808a01929185015b8287106140315785850386f35b90919293828061404d600193603f198a82030186528851614572565b9601920196019592919092614024565b6140678183614c3a565b906001808301809311611aef5761412c92600052600a6020600d81526040600020906140a4604051946140998661465e565b835486528301614823565b908401526140b460028201614823565b60408401526003810154606084015260048101546080840152600581015460ff60018060a01b039160a0838216818801521c16151560c085015260068201541660e084015260078101546101008401526008810154610120840152600981015461014084015201546101608201526105468287614e07565b613ff7565b60209061413c615223565b82828801015201613feb565b6141529250614d14565b8183613fbf565b60405162461bcd60e51b815260206004820152601b60248201527f4f666673657420657863656564732074656e64657220636f756e7400000000006044820152606490fd5b346102a25760203660031901126102a257600435600052600f6020526020604060002054604051908152f35b346102a2576020806003193601126102a2576004359081600052600f81526040600020546141f781614da0565b9261420560405194856146cc565b818452601f1961421483614da0565b018360005b8281106143185750505060005b82811061429d57604080518581528651818701819052878701928201908760005b8281106142545784840385f35b855180518552808301516001600160a01b03168584015260408082015190860152606080820151908601526080908101511515908501529481019460a090930192600101614247565b6143139082600052600e85526040600020816000528552604060002060ff6004604051926142ca84614643565b8054845260018101546001600160a01b0316898501526002810154604085015260038101546060850152015416151560808201526143088288614e07565b526105518187614e07565b614226565b60405161432481614643565b60008152600083820152600060408201526000606082015260006080820152828289010152018490614219565b346102a25761435f366144ae565b60085480831015614429578290614377831515614d54565b806143828484614c3a565b11614418575b50506143938161506c565b9160005b8281106143ac576040518061051986826144c4565b6143b68183614c3a565b906001808301809311611aef576144139260005260036020818152604060002090604051936143e485614628565b825485528201546001600160a01b03169084015260028101546040840152015460608201526105468287614e07565b614397565b6144229250614d14565b8183614388565b606460405162461bcd60e51b815260206004820152602060248201527f4f66667365742065786365656473206973737565642066756e6420636f756e746044820152fd5b346102a25760003660031901126102a2576020604051620151808152f35b346102a25760003660031901126102a25760206144a66150ee565b604051908152f35b60409060031901126102a2576004359060243590565b6020908160408183019282815285518094520193019160005b8281106144eb575050505090565b90919293826080826145266001948951606080918051845260018060a01b036020820151166020850152604081015160408501520151910152565b019501939291016144dd565b919082519283825260005b84811061455e575050826000602080949584010152601f8019910116010190565b60208183018101518483018201520161453d565b90815181526145a56145936020840151610180806020860152840190614532565b60408401518382036040850152614532565b91606081015160608301526080810151608083015260018060a01b038060a08301511660a084015260c0820151151560c084015260e08201511660e08301526101008082015190830152610120808201519083015261014080820151908301526101608091015191015290565b600435906001600160a01b03821682036102a257565b608081019081106001600160401b0382111761093257604052565b60a081019081106001600160401b0382111761093257604052565b61018081019081106001600160401b0382111761093257604052565b60e081019081106001600160401b0382111761093257604052565b60c081019081106001600160401b0382111761093257604052565b61010081019081106001600160401b0382111761093257604052565b90601f801991011681019081106001600160401b0382111761093257604052565b81601f820112156102a2578035906001600160401b0382116109325760405192614721601f8401601f1916602001856146cc565b828452602083830101116102a257816000926020809301838601378301015290565b602080820190808352835180925260409283810182858560051b8401019601946000925b858410614778575050505050505090565b909192939495968580600192603f198582030187528a5190815181528282015183820152848060a01b038783015116878201526147c46060808401519060c08091850152830190614532565b916080808201519083015260a080910151910152990194019401929594939190614767565b90600182811c92168015614819575b602083101461480357565b634e487b7160e01b600052602260045260246000fd5b91607f16916147f8565b9060405191826000825492614837846147e9565b9081845260019485811690816000146148a65750600114614863575b5050614861925003836146cc565b565b9093915060005260209081600020936000915b81831061488e57505061486193508201013880614853565b85548884018501529485019487945091830191614876565b91505061486194506020925060ff191682840152151560051b8201013880614853565b908151815260018060a01b0360208301511660208201526040820151604082015260e08061491b6149096060860151610100806060880152860190614532565b60808601518582036080870152614532565b9360a081015160a085015260c0810151151560c08501520151151591015290565b60609060031901126102a2576004356001600160a01b03811681036102a257906024359060443590565b908151815260018060a01b03602083015116602082015260a0806149b861499c604086015160c0604087015260c0860190614532565b6060860151606086015260808601518582036080870152614532565b93015191015290565b602080820190808352835180925260408301928160408460051b8301019501936000915b8483106149f55750505050505090565b9091929394958480614a13600193603f198682030187528a51614966565b98019301930191949392906149e5565b600c54811015614a5e57600790600c600052027fdf6966c971051c3d54ec59162606531493a51404a002842f56009d7e5cf4a8c70190600090565b634e487b7160e01b600052603260045260246000fd5b602080820190808352835180925260408301928160408460051b8301019501936000915b848310614aa85750505050505090565b9091929394958480614ac6600193603f198682030187528a516148c9565b9801930193019194939290614a98565b90815180825260208080930193019160005b828110614af6575050505090565b83516001600160a01b031685529381019392810192600101614ae8565b90815180825260208080930193019160005b828110614b33575050505090565b835185529381019392810192600101614b25565b600554811015614a5e5760056000527f036b6384b5eca791c62761152d0c79bb0604c104a5fb6f4eb0703f3154bb3db00190600090565b8054821015614a5e5760005260206000200190600090565b15614b9d57565b60405162461bcd60e51b815260206004820152602f60248201527f4f6e6c792063656e7472616c20676f7665726e6d656e742063616e207065726660448201526e37b936903a3434b99030b1ba34b7b760891b6064820152608490fd5b15614c0157565b60405162461bcd60e51b8152602060048201526011602482015270456e74697479206e6f742061637469766560781b6044820152606490fd5b91908201809211611aef57565b6000198114611aef5760010190565b15614c5d57565b60405162461bcd60e51b815260206004820152603760248201527f4f6e6c7920616374697665207265676973746572656420656e7469746965732060448201527f63616e20706572666f726d207468697320616374696f6e0000000000000000006064820152608490fd5b15614ccf57565b60405162461bcd60e51b815260206004820152601d60248201527f446f63756d656e7420686173682063616e6e6f7420626520656d7074790000006044820152606490fd5b91908203918211611aef57565b60405190614d2e82614695565b600060a08382815282602082015260606040820152826060820152606060808201520152565b15614d5b57565b60405162461bcd60e51b815260206004820152601f60248201527f4c696d6974206d7573742062652067726561746572207468616e207a65726f006044820152606490fd5b6001600160401b0381116109325760051b60200190565b90614dc182614da0565b614dce60405191826146cc565b8281528092614ddf601f1991614da0565b019060005b828110614df057505050565b602090614dfb614d21565b82828501015201614de4565b8051821015614a5e5760209160051b010190565b15614e2257565b60405162461bcd60e51b815260206004820152601760248201527f4e6f742061207265676973746572656420656e746974790000000000000000006044820152606490fd5b15614e6e57565b60405162461bcd60e51b815260206004820152601d60248201527f416d6f756e74206d7573742062652067726561746572207468616e20300000006044820152606490fd5b15614eba57565b60405162461bcd60e51b8152602060048201526012602482015271125b9d985b1a59081c995c5d595cdd08125160721b6044820152606490fd5b15614efb57565b60405162461bcd60e51b815260206004820152601960248201527f5265717565737420616c72656164792070726f636573736564000000000000006044820152606490fd5b60405190614f4d826146b0565b8160e0600091828152826020820152826040820152606080820152606060808201528260a08201528260c08201520152565b90604051614f8c816146b0565b60e060ff600683958054855260018060a01b03600182015416602086015260028101546040860152614fc060038201614823565b6060860152614fd160048201614823565b6080860152600581015460a08601520154818116151560c085015260081c161515910152565b9061500182614da0565b61500e60405191826146cc565b828152809261501f601f1991614da0565b019060005b82811061503057505050565b60209061503b614f40565b82828501015201615024565b6040519061505482614628565b60006060838281528260208201528260408201520152565b9061507682614da0565b61508360405191826146cc565b8281528092615094601f1991614da0565b019060005b8281106150a557505050565b6020906150b0615047565b82828501015201615099565b906150c682614da0565b6150d360405191826146cc565b82815280926150e4601f1991614da0565b0190602036910137565b601254620151808101809111611aef578042101561511457615111904290614d14565b90565b50600090565b9061512482614da0565b604090615133825191826146cc565b8381528093615144601f1991614da0565b019160005b8381106151565750505050565b602090825161516481614695565b600081528260008183015260008583015260608083015260006080830152600060a0830152828601015201615149565b1561519b57565b60405162461bcd60e51b815260206004820152601460248201527354656e646572206973206e6f742061637469766560601b6044820152606490fd5b156151de57565b60405162461bcd60e51b815260206004820152601a60248201527f54656e64657220646561646c696e6520686173207061737365640000000000006044820152606490fd5b604051906152308261465e565b8161016060009182815260606020820152606060408201528260608201528260808201528260a08201528260c08201528260e0820152826101008201528261012082015282610140820152015256fea26469706673582212201ec896a30e796a216c3d651aaf66d31bc7f908fc2c590d643b95fba952ff515c64736f6c63430008130033",
  "linkReferences": {},
  "deployedLinkReferences": {}
}