{
  "_format": "hh-sol-artifact-1",
  "contractName": "SimplifiedSpendingRegistry",
  "sourceName": "contracts/SimplifiedSpendingRegistry.sol",
  "abi": [
    {
      "inputs": [],
      "stateMutability": "nonpayable",
      "type": "constructor"
    },
    {
      "anonymous": false,
      "inputs": [
        {
          "indexed": true,
          "internalType": "uint256",
          "name": "tenderId",
          "type": "uint256"
        },
        {
          "indexed": true,
          "internalType": "uint256",
          "name": "bidId",
          "type": "uint256"
        },
        {
          "indexed": true,
          "internalType": "address",
          "name": "bidder",
          "type": "address"
        },
        {
          "indexed": false,
          "internalType": "uint256",
          "name": "amount",
          "type": "uint256"
        }
      ],
      "name": "BidPlaced",
      "type": "event"
    },
    {
      "anonymous": false,
      "inputs": [
        {
          "indexed": true,
          "internalType": "uint256",
          "name": "tenderId",
          "type": "uint256"
        },
        {
          "indexed": true,
          "internalType": "uint256",
          "name": "bidId",
          "type": "uint256"
        },
        {
          "indexed": true,
          "internalType": "address",
          "name": "bidder",
          "type": "address"
        }
      ],
      "name": "BidWithdrawn",
      "type": "event"
    },
    {
      "anonymous": false,
      "inputs": [
        {
          "indexed": true,
          "internalType": "address",
          "name": "entity",
          "type": "address"
        },
        {
          "indexed": false,
          "internalType": "uint256",
          "name": "amount",
          "type": "uint256"
        }
      ],
      "name": "BonusDistributed",
      "type": "event"
    },
    {
      "anonymous": false,
      "inputs": [
        {
          "indexed": true,
          "internalType": "address",
          "name": "entityAddress",
          "type": "address"
        }
      ],
      "name": "EntityDeactivated",
      "type": "event"
    },
    {
      "anonymous": false,
      "inputs": [
        {
          "indexed": true,
          "internalType": "address",
          "name": "entityAddress",
          "type": "address"
        },
        {
          "indexed": false,
          "internalType": "string",
          "name": "name",
          "type": "string"
        }
      ],
      "name": "EntityRegistered",
      "type": "event"
    },
    {
      "anonymous": false,
      "inputs": [
        {
          "indexed": true,
          "internalType": "uint256",
          "name": "id",
          "type": "uint256"
        },
        {
          "indexed": true,
          "internalType": "address",
          "name": "entity",
          "type": "address"
        }
      ],
      "name": "FundRequestApproved",
      "type": "event"
    },
    {
      "anonymous": false,
      "inputs": [
        {
          "indexed": true,
          "internalType": "uint256",
          "name": "id",
          "type": "uint256"
        },
        {
          "indexed": true,
          "internalType": "address",
          "name": "entity",
          "type": "address"
        }
      ],
      "name": "FundRequestRejected",
      "type": "event"
    },
    {
      "anonymous": false,
      "inputs": [
        {
          "indexed": true,
          "internalType": "uint256",
          "name": "id",
          "type": "uint256"
        },
        {
          "indexed": true,
          "internalType": "address",
          "name": "entity",
          "type": "address"
        },
        {
          "indexed": false,
          "internalType": "uint256",
          "name": "amount",
          "type": "uint256"
        },
        {
          "indexed": false,
          "internalType": "string",
          "name": "reason",
          "type": "string"
        },
        {
          "indexed": false,
          "internalType": "string",
          "name": "documentHash",
          "type": "string"
        }
      ],
      "name": "FundRequested",
      "type": "event"
    },
    {
      "anonymous": false,
      "inputs": [
        {
          "indexed": true,
          "internalType": "uint256",
          "name": "id",
          "type": "uint256"
        },
        {
          "indexed": true,
          "internalType": "address",
          "name": "to",
          "type": "address"
        },
        {
          "indexed": false,
          "internalType": "uint256",
          "name": "amount",
          "type": "uint256"
        }
      ],
      "name": "FundsIssued",
      "type": "event"
    },
    {
      "anonymous": false,
      "inputs": [
        {
          "indexed": true,
          "internalType": "uint256",
          "name": "id",
          "type": "uint256"
        },
        {
          "indexed": true,
          "internalType": "uint256",
          "name": "spendingRecordId",
          "type": "uint256"
        },
        {
          "indexed": true,
          "internalType": "address",
          "name": "entity",
          "type": "address"
        },
        {
          "indexed": false,
          "internalType": "string",
          "name": "description",
          "type": "string"
        },
        {
          "indexed": false,
          "internalType": "uint256",
          "name": "amount",
          "type": "uint256"
        }
      ],
      "name": "MicroTransactionRecorded",
      "type": "event"
    },
    {
      "anonymous": false,
      "inputs": [
        {
          "indexed": true,
          "internalType": "uint256",
          "name": "id",
          "type": "uint256"
        },
        {
          "indexed": true,
          "internalType": "address",
          "name": "entity",
          "type": "address"
        },
        {
          "indexed": false,
          "internalType": "uint256",
          "name": "amount",
          "type": "uint256"
        },
        {
          "indexed": false,
          "internalType": "string",
          "name": "documentHash",
          "type": "string"
        }
      ],
      "name": "SpendingRecorded",
      "type": "event"
    },
    {
      "anonymous": false,
      "inputs": [
        {
          "indexed": true,
          "internalType": "uint256",
          "name": "tenderId",
          "type": "uint256"
        },
        {
          "indexed": true,
          "internalType": "address",
          "name": "winner",
          "type": "address"
        },
        {
          "indexed": false,
          "internalType": "uint256",
          "name": "amount",
          "type": "uint256"
        }
      ],
      "name": "TenderAwarded",
      "type": "event"
    },
    {
      "anonymous": false,
      "inputs": [
        {
          "indexed": true,
          "internalType": "uint256",
          "name": "tenderId",
          "type": "uint256"
        },
        {
          "indexed": true,
          "internalType": "address",
          "name": "issuer",
          "type": "address"
        }
      ],
      "name": "TenderCancelled",
      "type": "event"
    },
    {
      "anonymous": false,
      "inputs": [
        {
          "indexed": true,
          "internalType": "uint256",
          "name": "id",
          "type": "uint256"
        },
        {
          "indexed": true,
          "internalType": "address",
          "name": "issuer",
          "type": "address"
        },
        {
          "indexed": false,
          "internalType": "string",
          "name": "title",
          "type": "string"
        },
        {
          "indexed": false,
          "internalType": "uint256",
          "name": "amount",
          "type": "uint256"
        },
        {
          "indexed": false,
          "internalType": "uint256",
          "name": "deadline",
          "type": "uint256"
        }
      ],
      "name": "TenderIssued",
      "type": "event"
    },
    {
      "anonymous": false,
      "inputs": [
        {
          "indexed": true,
          "internalType": "address",
          "name": "voter",
          "type": "address"
        },
        {
          "indexed": true,
          "internalType": "address",
          "name": "entity",
          "type": "address"
        },
        {
          "indexed": false,
          "internalType": "uint256",
          "name": "rating",
          "type": "uint256"
        }
      ],
      "name": "Voted",
      "type": "event"
    },
    {
      "inputs": [],
      "name": "BONUS_AMOUNT",
      "outputs": [
        {
          "internalType": "uint256",
          "name": "",
          "type": "uint256"
        }
      ],
      "stateMutability": "view",
      "type": "function"
    },
    {
      "inputs": [],
      "name": "VOTING_COOLDOWN",
      "outputs": [
        {
          "internalType": "uint256",
          "name": "",
          "type": "uint256"
        }
      ],
      "stateMutability": "view",
      "type": "function"
    },
    {
      "inputs": [
        {
          "internalType": "uint256",
          "name": "requestId",
          "type": "uint256"
        }
      ],
      "name": "approveFundRequest",
      "outputs": [],
      "stateMutability": "nonpayable",
      "type": "function"
    },
    {
      "inputs": [
        {
          "internalType": "uint256",
          "name": "tenderId",
          "type": "uint256"
        }
      ],
      "name": "awardTender",
      "outputs": [],
      "stateMutability": "nonpayable",
      "type": "function"
    },
    {
      "inputs": [
        {
          "internalType": "uint256",
          "name": "",
          "type": "uint256"
        },
        {
          "internalType": "uint256",
          "name": "",
          "type": "uint256"
        }
      ],
      "name": "bids",
      "outputs": [
        {
          "internalType": "uint256",
          "name": "id",
          "type": "uint256"
        },
        {
          "internalType": "address",
          "name": "bidder",
          "type": "address"
        },
        {
          "internalType": "uint256",
          "name": "amount",
          "type": "uint256"
        },
        {
          "internalType": "uint256",
          "name": "timestamp",
          "type": "uint256"
        },
        {
          "internalType": "bool",
          "name": "isWithdrawn",
          "type": "bool"
        }
      ],
      "stateMutability": "view",
      "type": "function"
    },
    {
      "inputs": [
        {
          "internalType": "uint256",
          "name": "tenderId",
          "type": "uint256"
        }
      ],
      "name": "cancelTender",
      "outputs": [],
      "stateMutability": "nonpayable",
      "type": "function"
    },
    {
      "inputs": [],
      "name": "centralGovernment",
      "outputs": [
        {
          "internalType": "address",
          "name": "",
          "type": "address"
        }
      ],
      "stateMutability": "view",
      "type": "function"
    },
    {
      "inputs": [
        {
          "internalType": "address",
          "name": "voter",
          "type": "address"
        }
      ],
      "name": "checkVotingStatus",
      "outputs": [
        {
          "internalType": "bool",
          "name": "",
          "type": "bool"
        }
      ],
      "stateMutability": "view",
      "type": "function"
    },
    {
      "inputs": [
        {
          "internalType": "address",
          "name": "entityAddress",
          "type": "address"
        }
      ],
      "name": "deactivateEntity",
      "outputs": [],
      "stateMutability": "nonpayable",
      "type": "function"
    },
    {
      "inputs": [],
      "name": "distributeBonus",
      "outputs": [],
      "stateMutability": "nonpayable",
      "type": "function"
    },
    {
      "inputs": [
        {
          "internalType": "uint256",
          "name": "",
          "type": "uint256"
        }
      ],
      "name": "entityAddresses",
      "outputs": [
        {
          "internalType": "address",
          "name": "",
          "type": "address"
        }
      ],
      "stateMutability": "view",
      "type": "function"
    },
    {
      "inputs": [
        {
          "internalType": "uint256",
          "name": "",
          "type": "uint256"
        }
      ],
      "name": "fundRequests",
      "outputs": [
        {
          "internalType": "uint256",
          "name": "id",
          "type": "uint256"
        },
        {
          "internalType": "address",
          "name": "entity",
          "type": "address"
        },
        {
          "internalType": "uint256",
          "name": "amount",
          "type": "uint256"
        },
        {
          "internalType": "string",
          "name": "reason",
          "type": "string"
        },
        {
          "internalType": "string",
          "name": "documentHash",
          "type": "string"
        },
        {
          "internalType": "uint256",
          "name": "timestamp",
          "type": "uint256"
        },
        {
          "internalType": "bool",
          "name": "isApproved",
          "type": "bool"
        },
        {
          "internalType": "bool",
          "name": "isRejected",
          "type": "bool"
        }
      ],
      "stateMutability": "view",
      "type": "function"
    },
    {
      "inputs": [],
      "name": "getAllEntityAddresses",
      "outputs": [
        {
          "internalType": "address[]",
          "name": "",
          "type": "address[]"
        }
      ],
      "stateMutability": "view",
      "type": "function"
    },
    {
      "inputs": [],
      "name": "getAllEntityRatings",
      "outputs": [
        {
          "internalType": "address[]",
          "name": "addresses",
          "type": "address[]"
        },
        {
          "internalType": "uint256[]",
          "name": "ratings",
          "type": "uint256[]"
        },
        {
          "internalType": "uint256[]",
          "name": "votes",
          "type": "uint256[]"
        }
      ],
      "stateMutability": "view",
      "type": "function"
    },
    {
      "inputs": [
        {
          "internalType": "uint256",
          "name": "tenderId",
          "type": "uint256"
        }
      ],
      "name": "getBids",
      "outputs": [
        {
          "components": [
            {
              "internalType": "uint256",
              "name": "id",
              "type": "uint256"
            },
            {
              "internalType": "address",
              "name": "bidder",
              "type": "address"
            },
            {
              "internalType": "uint256",
              "name": "amount",
              "type": "uint256"
            },
            {
              "internalType": "uint256",
              "name": "timestamp",
              "type": "uint256"
            },
            {
              "internalType": "bool",
              "name": "isWithdrawn",
              "type": "bool"
            }
          ],
          "internalType": "struct SimplifiedSpendingRegistry.Bid[]",
          "name": "",
          "type": "tuple[]"
        }
      ],
      "stateMutability": "view",
      "type": "function"
    },
    {
      "inputs": [],
      "name": "getContractBalance",
      "outputs": [
        {
          "internalType": "uint256",
          "name": "",
          "type": "uint256"
        }
      ],
      "stateMutability": "view",
      "type": "function"
    },
    {
      "inputs": [],
      "name": "getEntityCount",
      "outputs": [
        {
          "internalType": "uint256",
          "name": "",
          "type": "uint256"
        }
      ],
      "stateMutability": "view",
      "type": "function"
    },
    {
      "inputs": [
        {
          "internalType": "address",
          "name": "entityAddress",
          "type": "address"
        }
      ],
      "name": "getEntityDetails",
      "outputs": [
        {
          "internalType": "string",
          "name": "name",
          "type": "string"
        },
        {
          "internalType": "bool",
          "name": "isActive",
          "type": "bool"
        },
        {
          "internalType": "uint256",
          "name": "balance",
          "type": "uint256"
        },
        {
          "internalType": "uint256",
          "name": "needToSpend",
          "type": "uint256"
        }
      ],
      "stateMutability": "view",
      "type": "function"
    },
    {
      "inputs": [
        {
          "internalType": "address",
          "name": "entityAddress",
          "type": "address"
        },
        {
          "internalType": "uint256",
          "name": "offset",
          "type": "uint256"
        },
        {
          "internalType": "uint256",
          "name": "limit",
          "type": "uint256"
        }
      ],
      "name": "getEntityFundRequests",
      "outputs": [
        {
          "components": [
            {
              "internalType": "uint256",
              "name": "id",
              "type": "uint256"
            },
            {
              "internalType": "address",
              "name": "entity",
              "type": "address"
            },
            {
              "internalType": "uint256",
              "name": "amount",
              "type": "uint256"
            },
            {
              "internalType": "string",
              "name": "reason",
              "type": "string"
            },
            {
              "internalType": "string",
              "name": "documentHash",
              "type": "string"
            },
            {
              "internalType": "uint256",
              "name": "timestamp",
              "type": "uint256"
            },
            {
              "internalType": "bool",
              "name": "isApproved",
              "type": "bool"
            },
            {
              "internalType": "bool",
              "name": "isRejected",
              "type": "bool"
            }
          ],
          "internalType": "struct SimplifiedSpendingRegistry.FundRequest[]",
          "name": "",
          "type": "tuple[]"
        }
      ],
      "stateMutability": "view",
      "type": "function"
    },
    {
      "inputs": [
        {
          "internalType": "address",
          "name": "entityAddress",
          "type": "address"
        }
      ],
      "name": "getEntityHappinessRating",
      "outputs": [
        {
          "internalType": "uint256",
          "name": "rating",
          "type": "uint256"
        },
        {
          "internalType": "uint256",
          "name": "totalVotes",
          "type": "uint256"
        },
        {
          "internalType": "uint256",
          "name": "lastVoteTime",
          "type": "uint256"
        }
      ],
      "stateMutability": "view",
      "type": "function"
    },
    {
      "inputs": [
        {
          "internalType": "address",
          "name": "entityAddress",
          "type": "address"
        },
        {
          "internalType": "uint256",
          "name": "offset",
          "type": "uint256"
        },
        {
          "internalType": "uint256",
          "name": "limit",
          "type": "uint256"
        }
      ],
      "name": "getEntityIssuedFunds",
      "outputs": [
        {
          "components": [
            {
              "internalType": "uint256",
              "name": "id",
              "type": "uint256"
            },
            {
              "internalType": "address",
              "name": "entity",
              "type": "address"
            },
            {
              "internalType": "uint256",
              "name": "amount",
              "type": "uint256"
            },
            {
              "internalType": "uint256",
              "name": "timestamp",
              "type": "uint256"
            }
          ],
          "internalType": "struct SimplifiedSpendingRegistry.IssuedFund[]",
          "name": "",
          "type": "tuple[]"
        }
      ],
      "stateMutability": "view",
      "type": "function"
    },
    {
      "inputs": [
        {
          "internalType": "address",
          "name": "entityAddress",
          "type": "address"
        },
        {
          "internalType": "uint256",
          "name": "offset",
          "type": "uint256"
        },
        {
          "internalType": "uint256",
          "name": "limit",
          "type": "uint256"
        }
      ],
      "name": "getEntitySpendingRecords",
      "outputs": [
        {
          "components": [
            {
              "internalType": "uint256",
              "name": "id",
              "type": "uint256"
            },
            {
              "internalType": "address",
              "name": "entity",
              "type": "address"
            },
            {
              "internalType": "string",
              "name": "purpose",
              "type": "string"
            },
            {
              "internalType": "uint256",
              "name": "amount",
              "type": "uint256"
            },
            {
              "internalType": "string",
              "name": "documentHash",
              "type": "string"
            },
            {
              "internalType": "uint256",
              "name": "timestamp",
              "type": "uint256"
            }
          ],
          "internalType": "struct SimplifiedSpendingRegistry.SpendingRecord[]",
          "name": "",
          "type": "tuple[]"
        }
      ],
      "stateMutability": "view",
      "type": "function"
    },
    {
      "inputs": [
        {
          "internalType": "uint256",
          "name": "requestId",
          "type": "uint256"
        }
      ],
      "name": "getFundRequest",
      "outputs": [
        {
          "components": [
            {
              "internalType": "uint256",
              "name": "id",
              "type": "uint256"
            },
            {
              "internalType": "address",
              "name": "entity",
              "type": "address"
            },
            {
              "internalType": "uint256",
              "name": "amount",
              "type": "uint256"
            },
            {
              "internalType": "string",
              "name": "reason",
              "type": "string"
            },
            {
              "internalType": "string",
              "name": "documentHash",
              "type": "string"
            },
            {
              "internalType": "uint256",
              "name": "timestamp",
              "type": "uint256"
            },
            {
              "internalType": "bool",
              "name": "isApproved",
              "type": "bool"
            },
            {
              "internalType": "bool",
              "name": "isRejected",
              "type": "bool"
            }
          ],
          "internalType": "struct SimplifiedSpendingRegistry.FundRequest",
          "name": "",
          "type": "tuple"
        }
      ],
      "stateMutability": "view",
      "type": "function"
    },
    {
      "inputs": [
        {
          "internalType": "uint256",
          "name": "offset",
          "type": "uint256"
        },
        {
          "internalType": "uint256",
          "name": "limit",
          "type": "uint256"
        }
      ],
      "name": "getFundRequests",
      "outputs": [
        {
          "components": [
            {
              "internalType": "uint256",
              "name": "id",
              "type": "uint256"
            },
            {
              "internalType": "address",
              "name": "entity",
              "type": "address"
            },
            {
              "internalType": "uint256",
              "name": "amount",
              "type": "uint256"
            },
            {
              "internalType": "string",
              "name": "reason",
              "type": "string"
            },
            {
              "internalType": "string",
              "name": "documentHash",
              "type": "string"
            },
            {
              "internalType": "uint256",
              "name": "timestamp",
              "type": "uint256"
            },
            {
              "internalType": "bool",
              "name": "isApproved",
              "type": "bool"
            },
            {
              "internalType": "bool",
              "name": "isRejected",
              "type": "bool"
            }
          ],
          "internalType": "struct SimplifiedSpendingRegistry.FundRequest[]",
          "name": "",
          "type": "tuple[]"
        }
      ],
      "stateMutability": "view",
      "type": "function"
    },
    {
      "inputs": [
        {
          "internalType": "uint256",
          "name": "fundId",
          "type": "uint256"
        }
      ],
      "name": "getIssuedFund",
      "outputs": [
        {
          "components": [
            {
              "internalType": "uint256",
              "name": "id",
              "type": "uint256"
            },
            {
              "internalType": "address",
              "name": "entity",
              "type": "address"
            },
            {
              "internalType": "uint256",
              "name": "amount",
              "type": "uint256"
            },
            {
              "internalType": "uint256",
              "name": "timestamp",
              "type": "uint256"
            }
          ],
          "internalType": "struct SimplifiedSpendingRegistry.IssuedFund",
          "name": "",
          "type": "tuple"
        }
      ],
      "stateMutability": "view",
      "type": "function"
    },
    {
      "inputs": [
        {
          "internalType": "uint256",
          "name": "offset",
          "type": "uint256"
        },
        {
          "internalType": "uint256",
          "name": "limit",
          "type": "uint256"
        }
      ],
      "name": "getIssuedFunds",
      "outputs": [
        {
          "components": [
            {
              "internalType": "uint256",
              "name": "id",
              "type": "uint256"
            },
            {
              "internalType": "address",
              "name": "entity",
              "type": "address"
            },
            {
              "internalType": "uint256",
              "name": "amount",
              "type": "uint256"
            },
            {
              "internalType": "uint256",
              "name": "timestamp",
              "type": "uint256"
            }
          ],
          "internalType": "struct SimplifiedSpendingRegistry.IssuedFund[]",
          "name": "",
          "type": "tuple[]"
        }
      ],
      "stateMutability": "view",
      "type": "function"
    },
    {
      "inputs": [
        {
          "internalType": "uint256",
          "name": "offset",
          "type": "uint256"
        },
        {
          "internalType": "uint256",
          "name": "limit",
          "type": "uint256"
        }
      ],
      "name": "getMicroTransactions",
      "outputs": [
        {
          "components": [
            {
              "internalType": "uint256",
              "name": "id",
              "type": "uint256"
            },
            {
              "internalType": "uint256",
              "name": "spendingRecordId",
              "type": "uint256"
            },
            {
              "internalType": "address",
              "name": "entity",
              "type": "address"
            },
            {
              "internalType": "string",
              "name": "description",
              "type": "string"
            },
            {
              "internalType": "uint256",
              "name": "amount",
              "type": "uint256"
            },
            {
              "internalType": "uint256",
              "name": "timestamp",
              "type": "uint256"
            }
          ],
          "internalType": "struct SimplifiedSpendingRegistry.MicroTransaction[]",
          "name": "",
          "type": "tuple[]"
        }
      ],
      "stateMutability": "view",
      "type": "function"
    },
    {
      "inputs": [
        {
          "internalType": "uint256",
          "name": "recordId",
          "type": "uint256"
        }
      ],
      "name": "getSpendingRecord",
      "outputs": [
        {
          "components": [
            {
              "internalType": "uint256",
              "name": "id",
              "type": "uint256"
            },
            {
              "internalType": "address",
              "name": "entity",
              "type": "address"
            },
            {
              "internalType": "string",
              "name": "purpose",
              "type": "string"
            },
            {
              "internalType": "uint256",
              "name": "amount",
              "type": "uint256"
            },
            {
              "internalType": "string",
              "name": "documentHash",
              "type": "string"
            },
            {
              "internalType": "uint256",
              "name": "timestamp",
              "type": "uint256"
            }
          ],
          "internalType": "struct SimplifiedSpendingRegistry.SpendingRecord",
          "name": "",
          "type": "tuple"
        }
      ],
      "stateMutability": "view",
      "type": "function"
    },
    {
      "inputs": [
        {
          "internalType": "uint256",
          "name": "spendingRecordId",
          "type": "uint256"
        }
      ],
      "name": "getSpendingRecordMicroTransactions",
      "outputs": [
        {
          "components": [
            {
              "internalType": "uint256",
              "name": "id",
              "type": "uint256"
            },
            {
              "internalType": "uint256",
              "name": "spendingRecordId",
              "type": "uint256"
            },
            {
              "internalType": "address",
              "name": "entity",
              "type": "address"
            },
            {
              "internalType": "string",
              "name": "description",
              "type": "string"
            },
            {
              "internalType": "uint256",
              "name": "amount",
              "type": "uint256"
            },
            {
              "internalType": "uint256",
              "name": "timestamp",
              "type": "uint256"
            }
          ],
          "internalType": "struct SimplifiedSpendingRegistry.MicroTransaction[]",
          "name": "",
          "type": "tuple[]"
        }
      ],
      "stateMutability": "view",
      "type": "function"
    },
    {
      "inputs": [
        {
          "internalType": "uint256",
          "name": "offset",
          "type": "uint256"
        },
        {
          "internalType": "uint256",
          "name": "limit",
          "type": "uint256"
        }
      ],
      "name": "getSpendingRecords",
      "outputs": [
        {
          "components": [
            {
              "internalType": "uint256",
              "name": "id",
              "type": "uint256"
            },
            {
              "internalType": "address",
              "name": "entity",
              "type": "address"
            },
            {
              "internalType": "string",
              "name": "purpose",
              "type": "string"
            },
            {
              "internalType": "uint256",
              "name": "amount",
              "type": "uint256"
            },
            {
              "internalType": "string",
              "name": "documentHash",
              "type": "string"
            },
            {
              "internalType": "uint256",
              "name": "timestamp",
              "type": "uint256"
            }
          ],
          "internalType": "struct SimplifiedSpendingRegistry.SpendingRecord[]",
          "name": "",
          "type": "tuple[]"
        }
      ],
      "stateMutability": "view",
      "type": "function"
    },
    {
      "inputs": [
        {
          "internalType": "uint256",
          "name": "tenderId",
          "type": "uint256"
        }
      ],
      "name": "getTenderDetails",
      "outputs": [
        {
          "components": [
            {
              "internalType": "uint256",
              "name": "id",
              "type": "uint256"
            },
            {
              "internalType": "string",
              "name": "title",
              "type": "string"
            },
            {
              "internalType": "string",
              "name": "description",
              "type": "string"
            },
            {
              "internalType": "uint256",
              "name": "amount",
              "type": "uint256"
            },
            {
              "internalType": "uint256",
              "name": "deadline",
              "type": "uint256"
            },
            {
              "internalType": "address",
              "name": "issuer",
              "type": "address"
            },
            {
              "internalType": "bool",
              "name": "isActive",
              "type": "bool"
            },
            {
              "internalType": "address",
              "name": "winner",
              "type": "address"
            },
            {
              "internalType": "uint256",
              "name": "winningBid",
              "type": "uint256"
            },
            {
              "internalType": "uint256",
              "name": "minBidAmount",
              "type": "uint256"
            },
            {
              "internalType": "uint256",
              "name": "maxBidAmount",
              "type": "uint256"
            },
            {
              "internalType": "uint256",
              "name": "bidCount",
              "type": "uint256"
            }
          ],
          "internalType": "struct SimplifiedSpendingRegistry.Tender",
          "name": "",
          "type": "tuple"
        }
      ],
      "stateMutability": "view",
      "type": "function"
    },
    {
      "inputs": [
        {
          "internalType": "uint256",
          "name": "offset",
          "type": "uint256"
        },
        {
          "internalType": "uint256",
          "name": "limit",
          "type": "uint256"
        }
      ],
      "name": "getTenders",
      "outputs": [
        {
          "components": [
            {
              "internalType": "uint256",
              "name": "id",
              "type": "uint256"
            },
            {
              "internalType": "string",
              "name": "title",
              "type": "string"
            },
            {
              "internalType": "string",
              "name": "description",
              "type": "string"
            },
            {
              "internalType": "uint256",
              "name": "amount",
              "type": "uint256"
            },
            {
              "internalType": "uint256",
              "name": "deadline",
              "type": "uint256"
            },
            {
              "internalType": "address",
              "name": "issuer",
              "type": "address"
            },
            {
              "internalType": "bool",
              "name": "isActive",
              "type": "bool"
            },
            {
              "internalType": "address",
              "name": "winner",
              "type": "address"
            },
            {
              "internalType": "uint256",
              "name": "winningBid",
              "type": "uint256"
            },
            {
              "internalType": "uint256",
              "name": "minBidAmount",
              "type": "uint256"
            },
            {
              "internalType": "uint256",
              "name": "maxBidAmount",
              "type": "uint256"
            },
            {
              "internalType": "uint256",
              "name": "bidCount",
              "type": "uint256"
            }
          ],
          "internalType": "struct SimplifiedSpendingRegistry.Tender[]",
          "name": "",
          "type": "tuple[]"
        }
      ],
      "stateMutability": "view",
      "type": "function"
    },
    {
      "inputs": [],
      "name": "getTimeUntilNextBonus",
      "outputs": [
        {
          "internalType": "uint256",
          "name": "",
          "type": "uint256"
        }
      ],
      "stateMutability": "view",
      "type": "function"
    },
    {
      "inputs": [
        {
          "internalType": "address",
          "name": "",
          "type": "address"
        }
      ],
      "name": "governmentEntities",
      "outputs": [
        {
          "internalType": "string",
          "name": "name",
          "type": "string"
        },
        {
          "internalType": "bool",
          "name": "isActive",
          "type": "bool"
        },
        {
          "internalType": "uint256",
          "name": "balance",
          "type": "uint256"
        },
        {
          "internalType": "uint256",
          "name": "needToSpend",
          "type": "uint256"
        },
        {
          "internalType": "uint256",
          "name": "happinessRating",
          "type": "uint256"
        },
        {
          "internalType": "uint256",
          "name": "totalVotes",
          "type": "uint256"
        },
        {
          "internalType": "uint256",
          "name": "lastVoteTimestamp",
          "type": "uint256"
        }
      ],
      "stateMutability": "view",
      "type": "function"
    },
    {
      "inputs": [
        {
          "internalType": "address",
          "name": "",
          "type": "address"
        },
        {
          "internalType": "address",
          "name": "",
          "type": "address"
        }
      ],
      "name": "hasVoted",
      "outputs": [
        {
          "internalType": "bool",
          "name": "",
          "type": "bool"
        }
      ],
      "stateMutability": "view",
      "type": "function"
    },
    {
      "inputs": [
        {
          "internalType": "address",
          "name": "entityAddress",
          "type": "address"
        },
        {
          "internalType": "uint256",
          "name": "amount",
          "type": "uint256"
        }
      ],
      "name": "issueFunds",
      "outputs": [],
      "stateMutability": "payable",
      "type": "function"
    },
    {
      "inputs": [
        {
          "internalType": "string",
          "name": "title",
          "type": "string"
        },
        {
          "internalType": "string",
          "name": "description",
          "type": "string"
        },
        {
          "internalType": "uint256",
          "name": "amount",
          "type": "uint256"
        },
        {
          "internalType": "uint256",
          "name": "deadline",
          "type": "uint256"
        },
        {
          "internalType": "uint256",
          "name": "minBidAmount",
          "type": "uint256"
        },
        {
          "internalType": "uint256",
          "name": "maxBidAmount",
          "type": "uint256"
        }
      ],
      "name": "issueTender",
      "outputs": [],
      "stateMutability": "nonpayable",
      "type": "function"
    },
    {
      "inputs": [],
      "name": "issuedFundCount",
      "outputs": [
        {
          "internalType": "uint256",
          "name": "",
          "type": "uint256"
        }
      ],
      "stateMutability": "view",
      "type": "function"
    },
    {
      "inputs": [
        {
          "internalType": "uint256",
          "name": "",
          "type": "uint256"
        }
      ],
      "name": "issuedFunds",
      "outputs": [
        {
          "internalType": "uint256",
          "name": "id",
          "type": "uint256"
        },
        {
          "internalType": "address",
          "name": "entity",
          "type": "address"
        },
        {
          "internalType": "uint256",
          "name": "amount",
          "type": "uint256"
        },
        {
          "internalType": "uint256",
          "name": "timestamp",
          "type": "uint256"
        }
      ],
      "stateMutability": "view",
      "type": "function"
    },
    {
      "inputs": [],
      "name": "lastBonusDistribution",
      "outputs": [
        {
          "internalType": "uint256",
          "name": "",
          "type": "uint256"
        }
      ],
      "stateMutability": "view",
      "type": "function"
    },
    {
      "inputs": [
        {
          "internalType": "uint256",
          "name": "",
          "type": "uint256"
        }
      ],
      "name": "microTransactions",
      "outputs": [
        {
          "internalType": "uint256",
          "name": "id",
          "type": "uint256"
        },
        {
          "internalType": "uint256",
          "name": "spendingRecordId",
          "type": "uint256"
        },
        {
          "internalType": "address",
          "name": "entity",
          "type": "address"
        },
        {
          "internalType": "string",
          "name": "description",
          "type": "string"
        },
        {
          "internalType": "uint256",
          "name": "amount",
          "type": "uint256"
        },
        {
          "internalType": "uint256",
          "name": "timestamp",
          "type": "uint256"
        }
      ],
      "stateMutability": "view",
      "type": "function"
    },
    {
      "inputs": [
        {
          "internalType": "uint256",
          "name": "tenderId",
          "type": "uint256"
        },
        {
          "internalType": "uint256",
          "name": "amount",
          "type": "uint256"
        }
      ],
      "name": "placeBid",
      "outputs": [],
      "stateMutability": "payable",
      "type": "function"
    },
    {
      "inputs": [],
      "name": "recordCount",
      "outputs": [
        {
          "internalType": "uint256",
          "name": "",
          "type": "uint256"
        }
      ],
      "stateMutability": "view",
      "type": "function"
    },
    {
      "inputs": [
        {
          "internalType": "uint256",
          "name": "spendingRecordId",
          "type": "uint256"
        },
        {
          "internalType": "string",
          "name": "description",
          "type": "string"
        },
        {
          "internalType": "uint256",
          "name": "amount",
          "type": "uint256"
        }
      ],
      "name": "recordMicroTransaction",
      "outputs": [],
      "stateMutability": "nonpayable",
      "type": "function"
    },
    {
      "inputs": [
        {
          "internalType": "string",
          "name": "purpose",
          "type": "string"
        },
        {
          "internalType": "uint256",
          "name": "amount",
          "type": "uint256"
        },
        {
          "internalType": "string",
          "name": "documentHash",
          "type": "string"
        }
      ],
      "name": "recordSpending",
      "outputs": [],
      "stateMutability": "nonpayable",
      "type": "function"
    },
    {
      "inputs": [
        {
          "internalType": "address",
          "name": "entityAddress",
          "type": "address"
        },
        {
          "internalType": "string",
          "name": "name",
          "type": "string"
        }
      ],
      "name": "registerEntity",
      "outputs": [],
      "stateMutability": "nonpayable",
      "type": "function"
    },
    {
      "inputs": [
        {
          "internalType": "uint256",
          "name": "requestId",
          "type": "uint256"
        }
      ],
      "name": "rejectFundRequest",
      "outputs": [],
      "stateMutability": "nonpayable",
      "type": "function"
    },
    {
      "inputs": [],
      "name": "requestCount",
      "outputs": [
        {
          "internalType": "uint256",
          "name": "",
          "type": "uint256"
        }
      ],
      "stateMutability": "view",
      "type": "function"
    },
    {
      "inputs": [
        {
          "internalType": "uint256",
          "name": "amount",
          "type": "uint256"
        },
        {
          "internalType": "string",
          "name": "reason",
          "type": "string"
        },
        {
          "internalType": "string",
          "name": "documentHash",
          "type": "string"
        }
      ],
      "name": "requestFunds",
      "outputs": [],
      "stateMutability": "nonpayable",
      "type": "function"
    },
    {
      "inputs": [
        {
          "internalType": "uint256",
          "name": "",
          "type": "uint256"
        },
        {
          "internalType": "uint256",
          "name": "",
          "type": "uint256"
        }
      ],
      "name": "spendingRecordMicroTransactions",
      "outputs": [
        {
          "internalType": "uint256",
          "name": "",
          "type": "uint256"
        }
      ],
      "stateMutability": "view",
      "type": "function"
    },
    {
      "inputs": [
        {
          "internalType": "uint256",
          "name": "",
          "type": "uint256"
        }
      ],
      "name": "spendingRecords",
      "outputs": [
        {
          "internalType": "uint256",
          "name": "id",
          "type": "uint256"
        },
        {
          "internalType": "address",
          "name": "entity",
          "type": "address"
        },
        {
          "internalType": "string",
          "name": "purpose",
          "type": "string"
        },
        {
          "internalType": "uint256",
          "name": "amount",
          "type": "uint256"
        },
        {
          "internalType": "string",
          "name": "documentHash",
          "type": "string"
        },
        {
          "internalType": "uint256",
          "name": "timestamp",
          "type": "uint256"
        }
      ],
      "stateMutability": "view",
      "type": "function"
    },
    {
      "inputs": [
        {
          "internalType": "uint256",
          "name": "",
          "type": "uint256"
        }
      ],
      "name": "tenderBidCount",
      "outputs": [
        {
          "internalType": "uint256",
          "name": "",
          "type": "uint256"
        }
      ],
      "stateMutability": "view",
      "type": "function"
    },
    {
      "inputs": [],
      "name": "tenderCount",
      "outputs": [
        {
          "internalType": "uint256",
          "name": "",
          "type": "uint256"
        }
      ],
      "stateMutability": "view",
      "type": "function"
    },
    {
      "inputs": [
        {
          "internalType": "uint256",
          "name": "",
          "type": "uint256"
        }
      ],
      "name": "tenders",
      "outputs": [
        {
          "internalType": "uint256",
          "name": "id",
          "type": "uint256"
        },
        {
          "internalType": "string",
          "name": "title",
          "type": "string"
        },
        {
          "internalType": "string",
          "name": "description",
          "type": "string"
        },
        {
          "internalType": "uint256",
          "name": "amount",
          "type": "uint256"
        },
        {
          "internalType": "uint256",
          "name": "deadline",
          "type": "uint256"
        },
        {
          "internalType": "address",
          "name": "issuer",
          "type": "address"
        },
        {
          "internalType": "bool",
          "name": "isActive",
          "type": "bool"
        },
        {
          "internalType": "address",
          "name": "winner",
          "type": "address"
        },
        {
          "internalType": "uint256",
          "name": "winningBid",
          "type": "uint256"
        },
        {
          "internalType": "uint256",
          "name": "minBidAmount",
          "type": "uint256"
        },
        {
          "internalType": "uint256",
          "name": "maxBidAmount",
          "type": "uint256"
        },
        {
          "internalType": "uint256",
          "name": "bidCount",
          "type": "uint256"
        }
      ],
      "stateMutability": "view",
      "type": "function"
    },
    {
      "inputs": [
        {
          "internalType": "address",
          "name": "entityAddress",
          "type": "address"
        },
        {
          "internalType": "uint256",
          "name": "rating",
          "type": "uint256"
        }
      ],
      "name": "voteForEntity",
      "outputs": [],
      "stateMutability": "nonpayable",
      "type": "function"
    },
    {
      "inputs": [
        {
          "internalType": "uint256",
          "name": "tenderId",
          "type": "uint256"
        },
        {
          "internalType": "uint256",
          "name": "bidId",
          "type": "uint256"
        }
      ],
      "name": "withdrawBid",
      "outputs": [],
      "stateMutability": "nonpayable",
      "type": "function"
    }
  ],
  "bytecode": "0x6080806040523461002c57601180546001600160a01b03191633179055426012556152d290816100328239f35b600080fdfe6080604052600436101561001257600080fd5b60003560e01c80630241a443146143175780630f780b56146142f957806312216c07146141dd578063131d9a271461405657806315cf4b6e1461402a5780631dfd954214613fb25780631f05877614613f9457806321464bfe14613ecc5780632a9544d714613de45780632be837ec14613d065780632c71474d14613cb05780632f0b6f72146138c157806332b3f568146135295780633a74e070146133f057806344c6bc771461330b578063465e1def146132295780634a572ae31461320b5780634d4d2b1c146131b15780634dfa84341461316a5780634fb1c4be14612f3d57806353ee895d14612e0d57806357c90de514612b3457806358e9f12e14612a925780635badbe4c14612a745780635d1b45b514612a565780635dbe526f14612a2d5780636f9fb98a146129fc578063709eddb0146129b157806373236a5b1461276a57806373901f9f1461255757806374863d90146125345780637b3c4baa146124c957806380ee37fa14612410578063818f994d1461238e5780638876ac41146122c05780638fdee0c5146120e2578063900407bc146120c45780639a0fc03614611ff65780639a35646f14611e08578063a089126d14611cc9578063a30c351914611b87578063a5735662146118b9578063a88c113a146117cf578063b041f4801461133f578063b17972f9146112aa578063ba51f8221461117f578063bac5d8f9146110e8578063c4bce41814610b0d578063c7c258f214610ace578063dea1f581146105fe578063df619ad714610564578063e620f3a0146104c9578063ea9495191461037a578063ec10be3914610338578063f24f8241146102a75763f349c1e51461028457600080fd5b346102a25760003660031901126102a2576020601254604051908152f35b600080fd5b346102a25760203660031901126102a2576102c061449e565b6011546001600160a01b0391906102da9083163314614a22565b168060005260006020526102f860ff60016040600020015416614a86565b806000526000602052600160406000200160ff1981541690557f99fdeeec075823d23f0e1926979b27aaab3c6d7fccdbbea8914592d98896d741600080a2005b346102a25760203660031901126102a2576004356005548110156102a2576103616020916149d3565b905460405160039290921b1c6001600160a01b03168152f35b60403660031901126102a25761038e61449e565b60243560018060a01b0380926103a982601154163314614a22565b169182600052602090600082526103ca60ff60016040600020015416614a86565b82340361048657907f8102f9a1d31f6501d6c7e7dc50bc98598b6a71cfb3548fcb29a3bcec04b63655918460005260008252600260406000200161040f858254614ac6565b9055600361041e600854614ad3565b806008556040519261042f846144b4565b81845284840188815260408501918883526060860193428552600052848752604060002095518655600186019151166001600160601b0360a01b8254161790555160028401555191015560085492604051908152a3005b6064826040519062461bcd60e51b825280600483015260248201527f53656e742076616c7565206d757374206d617463682074686520616d6f756e746044820152fd5b346102a2576104e66104f76104dd3661433a565b92819382614ac6565b60075480821161055c575b50614ba0565b61050081614e83565b9160005b82811061051d57604051806105198682614900565b0390f35b8061053c6105366105316105579486614ac6565b6148af565b50614e0b565b6105468287614c93565b526105518186614c93565b50614ad3565b610504565b9050846104f1565b346102a25760203660031901126102a2576001600160a01b0361058561449e565b1660005260006020526105d9604060002061059f816146af565b9060ff600182015416906002810154906003810154600482015490600660058401549301549360405197889760e0895260e08901906143be565b951515602088015260408701526060860152608085015260a084015260c08301520390f35b346102a25760603660031901126102a2576004356001600160401b0381116102a25761062e903690600401614579565b6044356001600160401b0381116102a25761064d903690600401614579565b33600052600060205261066a60ff60016040600020015416614ae2565b815115610a895760243515610a455761068581511515614b54565b33600052600060205260243560026040600020015410610a095733600052600060205260026040600020016106bd6024358254614ba0565b905533600052600060205260036040600020016106dd6024358254614ac6565b90556106ea600954614ad3565b80600955604051926106fb84614505565b81845260208401913383526040850191825260243560608601528360808601524260a0860152600052600160205260406000209184518355600183019060018060a01b039051166001600160601b0360a01b825416179055519283516001600160401b038111610932576107726002840154614675565b601f81116109c2575b506020601f8211600114610953578192939495600092610948575b50508160011b916000199060031b1c19161760028301555b6060810151600383015560808101518051906001600160401b038211610932576107db6004850154614675565b601f81116108e7575b50602090601f83116001146108745791806005949260a094600092610869575b50508160011b916000199060031b1c19161760048501555b01519101556009547f1243a0379e4e37663c88f3bc1d8bdb9a3ca74f533be3a0cf855f3f80cbf4671560405160243581526040602082015280610864339560408301906143be565b0390a3005b015190508780610804565b90601f198316916004860160005260206000209260005b8181106108cf575092600192859260a09660059896106108b6575b505050811b01600485015561081c565b015160001960f88460031b161c191690558780806108a6565b9293602060018192878601518155019501930161088b565b600485016000526020600020601f840160051c81019160208510610928575b601f0160051c01905b81811061091c57506107e4565b6000815560010161090f565b9091508190610906565b634e487b7160e01b600052604160045260246000fd5b015190508580610796565b6002840160005260206000209060005b601f19841681106109aa575060019394959683601f19811610610991575b505050811b0160028301556107ae565b015160001960f88460031b161c19169055858080610981565b9091602060018192858b015181550193019101610963565b600284016000526020600020601f830160051c810160208410610a02575b601f830160051c820181106109f657505061077b565b600081556001016109e0565b50806109e0565b60405162461bcd60e51b8152602060048201526014602482015273496e73756666696369656e742062616c616e636560601b6044820152606490fd5b606460405162461bcd60e51b815260206004820152602060248201527f416d6f756e74206d7573742062652067726561746572207468616e207a65726f6044820152fd5b60405162461bcd60e51b815260206004820152601760248201527f507572706f73652063616e6e6f7420626520656d7074790000000000000000006044820152606490fd5b346102a257610adc3661433a565b90600052600b602052604060002080548210156102a257602091610aff91614a0a565b90546040519160031b1c8152f35b346102a25760c03660031901126102a2576004356001600160401b0381116102a257610b3d903690600401614579565b6024356001600160401b0381116102a257610b5c903690600401614579565b90336000526000602052610b7a60ff60016040600020015416614ae2565b610b876044351515614cf3565b4260643511156110a3576084351561104c5760843560a4351115610fe15733600052600060205260443560026040600020015410610f9057610bca601054614ad3565b8060105560405192610bdb84614520565b8184528260208501526040840152604435606084015260643560808401523360a0840152600160c0840152600060e0840152600061010084015260843561012084015260a4356101408401526000610160840152600052600d60205260406000208251815560208301519283516001600160401b03811161093257610c636001840154614675565b601f8111610f49575b506020601f8211600114610eda578192939495600092610ecf575b50508160011b916000199060031b1c19161760018301555b60408101518051906001600160401b03821161093257610cc26002850154614675565b601f8111610e88575b50602090601f8311600114610e12579180600a949261016094600092610e07575b50508160011b916000199060031b1c19161760028501555b60608101516003850155608081015160048501556005840160018060a01b03908160a08401511681549060ff60a01b60c0860151151560a01b16916affffffffffffffffffffff60a81b1617179055600685019060e0830151166001600160601b0360a01b82541617905561010081015160078501556101208101516008850155610140810151600985015501519101553360005260006020526002604060002001610db36044358254614ba0565b90556010547fa57590356b27448860a006f0265445002790351fe29648717df7ec7481c9e4df610dee604051936060855260608501906143be565b92604435602082015260643560408201528033940390a3005b015190508780610cec565b906002850160005260206000209160005b601f1985168110610e70575092600a94926001926101609583601f19811610610e57575b505050811b016002850155610d04565b015160001960f88460031b161c19169055878080610e47565b91926020600181928685015181550194019201610e23565b600285016000526020600020601f840160051c810160208510610ec8575b601f830160051c82018110610ebc575050610ccb565b60008155600101610ea6565b5080610ea6565b015190508580610c87565b6001840160005260206000209060005b601f1984168110610f31575060019394959683601f19811610610f18575b505050811b016001830155610c9f565b015160001960f88460031b161c19169055858080610f08565b9091602060018192858b015181550193019101610eea565b600184016000526020600020601f830160051c810160208410610f89575b601f830160051c82018110610f7d575050610c6c565b60008155600101610f67565b5080610f67565b60405162461bcd60e51b8152602060048201526024808201527f496e73756666696369656e742062616c616e636520746f206973737565207465604482015263373232b960e11b6064820152608490fd5b60405162461bcd60e51b815260206004820152603a60248201527f4d6178696d756d2062696420616d6f756e74206d75737420626520677265617460448201527f6572207468616e206d696e696d756d2062696420616d6f756e740000000000006064820152608490fd5b60405162461bcd60e51b815260206004820152602960248201527f4d696e696d756d2062696420616d6f756e74206d75737420626520677265617460448201526806572207468616e20360bc1b6064820152608490fd5b60405162461bcd60e51b815260206004820152601e60248201527f446561646c696e65206d75737420626520696e207468652066757475726500006044820152606490fd5b346102a25760203660031901126102a25760043560005260016020526040600020805460018060a01b0360018301541691611175611128600283016146af565b916003810154906111626005611140600484016146af565b920154946040519788978852602088015260c0604088015260c08701906143be565b91606086015284820360808601526143be565b9060a08301520390f35b346102a25760003660031901126102a257600580549061119e82614c2c565b906111ac6040519283614558565b828252601f196111bb84614c2c565b019260209336858501376111ce81614f48565b906111d881614f48565b9260005b82811061121f5761120486610519876112118b89604051968796606088526060880190614962565b918683039087015261499f565b90838203604085015261499f565b8061122c6112a5926149d3565b90546001600160a01b039160039190821b1c821661124a848b614c93565b5281611255846149d3565b905490831b1c1660005260008a526004604060002001546112768489614c93565b52611280836149d3565b9054911b1c1660005260008852826040600020015461129f8288614c93565b52614ad3565b6111dc565b346102a25760003660031901126102a2576040518060055480825282602080930160056000527f036b6384b5eca791c62761152d0c79bb0604c104a5fb6f4eb0703f3154bb3db09260005b858282106113205750505061130c92500383614558565b610519604051928284938452830190614962565b85546001600160a01b03168452600195860195889550930192016112f5565b346102a25760603660031901126102a2576024356001600160401b0381116102a25761136f903690600401614579565b6044356001600160401b0381116102a25761138e903690600401614579565b903360005260006020526113ac60ff60016040600020015416614ae2565b6113b96004351515614cf3565b805115611791576113cc82511515614b54565b600754906113d982614ad3565b6007556040516113e88161453c565b8281526020810133815260408201600435815260608301908482528660808501524260a0850152600060c0850152600060e0850152600c54600160401b8110156109325780600161143c9201600c556148af565b93909361177b5784518455516001840180546001600160a01b0319166001600160a01b0392909216919091179055516002830155518051906001600160401b0382116109325781906114916003850154614675565b601f8111611728575b50602090601f83116001146116b6576000926116ab575b50508160011b916000199060031b1c19161760038201555b60808201518051906001600160401b038211610932576114ec6004840154614675565b601f8111611664575b50602090601f83116001146115cb577f09569327b0ebac7ebd8d677c9f6449afaf57b97a2a0d523adc4a0ad31b3f00c79593836115b1969460e0946006946000926115c0575b50508160011b916000199060031b1c19161760048201555b60a08401516005820155019161157b60c08201511515849060ff801983541691151516179055565b0151151561ff0082549160081b169061ff00191617905561086460405192839260043584526060602085015260608401906143be565b828103604084015233966143be565b015190508b8061153b565b90601f198316916004850160005260206000209260005b81811061164c57508460e0946006947f09569327b0ebac7ebd8d677c9f6449afaf57b97a2a0d523adc4a0ad31b3f00c79a98946115b19a9860019510611633575b505050811b016004820155611553565b015160001960f88460031b161c191690558b8080611623565b929360206001819287860151815501950193016115e2565b600484016000526020600020601f840160051c8101602085106116a4575b601f830160051c820181106116985750506114f5565b60008155600101611682565b5080611682565b0151905087806114b1565b9250600384016000526020600020906000935b601f198416851061170d576001945083601f198116106116f4575b505050811b0160038201556114c9565b015160001960f88460031b161c191690558780806116e4565b818101518355602094850194600190930192909101906116c9565b909150600384016000526020600020601f840160051c810160208510611774575b90849392915b601f830160051c8201811061176557505061149a565b6000815585945060010161174f565b5080611749565b634e487b7160e01b600052600060045260246000fd5b60405162461bcd60e51b8152602060048201526016602482015275526561736f6e2063616e6e6f7420626520656d70747960501b6044820152606490fd5b346102a2576020806003193601126102a2576004356117ec614bad565b50801515806118ad575b15611874576000526001815260406000209060056040519261181784614505565b8054845260018101546001600160a01b031683850152611839600282016146af565b604085015260038101546060850152611854600482016146af565b6080850152015460a08301526105196040519282849384528301906147f2565b60405162461bcd60e51b8152600481018390526011602482015270125b9d985b1a59081c9958dbdc99081251607a1b6044820152606490fd5b506009548111156117f6565b346102a2576118c73661433a565b3360005260206000815260ff60016118e782826040600020015416614ae2565b84600052600d83526119058260056040600020015460a01c16615020565b84600052600d83526119206004604060002001544210615063565b84600052600e92838152604060002085600052815260018060a01b0392338484604060002001541603611b42578660005284825260406000208660005282528060046040600020015416611b055786600052848252604060002086600052825260046040600020018360ff1982541617905586600052600d8252600a60406000200180548015611aef5760001901905586600052600d8252836006604060002001541633146119f4575b3386887fb41c9b05054be45850ccc1da7d90c7b819cff855cfe0d14f16427398b286c9b6600080a4005b600092600095816000905b611a3c575b5050505090600d600692876000525260406000209060078201550191166001600160601b0360a01b82541617905582808080806119ca565b89600052600f8552604060002054811015611aea57818552604060002081600052855283600460406000200154161580611abf575b611a88575b90611a818392614ad3565b90916119ff565b60008a815282865260408082208383528752808220600201548c835284885281832084845288529120840154881698509550611a76565b50851580611a7157508960005281855260406000208160005285528560026040600020015410611a71565b611a04565b634e487b7160e01b600052601160045260246000fd5b60405162461bcd60e51b81526004810183905260156024820152742134b21030b63932b0b23c903bb4ba34323930bbb760591b6044820152606490fd5b60405162461bcd60e51b815260048101839052601c60248201527f4f6e6c79206269646465722063616e20776974686472617720626964000000006044820152606490fd5b346102a257611b95366147c8565b90600081600093600754945b858110611c7f575091611bb7611bc59383614ac6565b90808211611c775750614ba0565b611bce81614e83565b9360009160005b85811080611c6e575b15611c60576001611bee826148af565b50818060a01b0391829101541690841614611c12575b611c0d90614ad3565b611bd5565b92611c278186611c0d931015611c2f57614ad3565b939050611c04565b610551611c3b876148af565b50611c4f611c498a85614ba0565b91614e0b565b611c59828d614c93565b528a614c93565b604051806105198982614900565b50818410611bde565b9050866104f1565b9091506001611c8d826148af565b50818060a01b0391829101541690871614611cb4575b611cac90614ad3565b908391611ba1565b91611cc1611cac91614ad3565b929050611ca3565b346102a257611cd73661433a565b60095480831015611dc3578290611cef831515614be0565b80611cfa8484614ac6565b11611db2575b5050611d0b81614c43565b9160005b828110611d245760405180610519868261484d565b611d2e8183614ac6565b906001808301809311611aef57611dad926000526005602082815260406000209060405193611d5c85614505565b825485528201546001600160a01b031690840152611d7c600282016146af565b604084015260038101546060840152611d97600482016146af565b6080840152015460a08201526105468287614c93565b611d0f565b611dbc9250614ba0565b8183611d00565b60405162461bcd60e51b815260206004820152601b60248201527f4f66667365742065786365656473207265636f726420636f756e7400000000006044820152606490fd5b346102a25760003660031901126102a2576011546001600160a01b0390611e329082163314614a22565b601254620151808101809111611aef574210611fb157670de0b6b3a764000090814710611f6c5760055460009081805b828110611f0a5750505016908115611ec5578160005260006020526002604060002001805491808301809311611aef577f8e3a90176f65d9f17b62ae9970b50ff21e66bba05788435310f6e12c942b0b37926020925542601255604051908152a2005b60405162461bcd60e51b815260206004820152601a60248201527f4e6f20656c696769626c6520656e74697469657320666f756e640000000000006044820152606490fd5b84611f14826149d3565b90549060031b1c16806000526000602052604060002060ff60018201541680611f5f575b611f4d575b5050611f4890614ad3565b611e62565b600401549094509150611f4887611f3d565b5083600482015411611f38565b60405162461bcd60e51b815260206004820152601d60248201527f496e73756666696369656e7420636f6e74726163742062616c616e63650000006044820152606490fd5b60405162461bcd60e51b815260206004820152601c60248201527f546f6f20736f6f6e20746f206469737472696275746520626f6e7573000000006044820152606490fd5b346102a25761200a61201a6104dd3661433a565b600a5480821161055c5750614ba0565b61202381614fa6565b9160005b82811061203c576040518061051986826145cf565b6120468183614ac6565b906001808301809311611aef576120bf92600052600560026020908082526040600020916040519461207786614505565b83548652830154908501528101546001600160a01b0316604084015261209f600382016146af565b606084015260048101546080840152015460a08201526105468287614c93565b612027565b346102a25760003660031901126102a2576020600654604051908152f35b346102a2576020806003193601126102a257600435336000526000825261211360ff60016040600020015416614ae2565b80600052600d825261213260ff60056040600020015460a01c16615020565b80600052600d8252600460406000200154421061227b576000818152600d835260409020600601546001600160a01b0392908316156122415781600052600d8152826005604060002001541633036121fd577fb6da2d97c7be1b795c416cc5e17d479a1a6fb59b6e95214ee25aaaf42796c8029082600052600d815260076040600020946005860160ff60a01b1981541690556003860154600687019082825416600052600085526121ed6002604060002001918254614ac6565b90555416940154604051908152a3005b6064906040519062461bcd60e51b82526004820152601c60248201527f4f6e6c79206973737565722063616e2061776172642074656e646572000000006044820152fd5b6064906040519062461bcd60e51b825260048201526013602482015272139bc81d985b1a5908189a591cc8199bdd5b99606a1b6044820152fd5b60405162461bcd60e51b815260048101839052601e60248201527f54656e64657220646561646c696e6520686173206e6f742070617373656400006044820152606490fd5b346102a25760203660031901126102a2576001600160a01b036122e161449e565b1680600052600060205261230860ff60016040600020015416801580612386575b50614ca7565b60005260006020526060604060002060c060405191612326836144ea565b61232f816146af565b835260ff600182015416151560208401526002810154604084015260038101548484015260048101549283608082015260066005830154928360a08401520154928391015260405192835260208301526040820152f35b905083612302565b346102a25760203660031901126102a25760043560005260026020526040600020805460018201549160018060a01b036002820154166124016123d3600384016146af565b600560048501549401549260405196879687526020870152604086015260c0606086015260c08501906143be565b91608084015260a08301520390f35b346102a25760203660031901126102a257600435600c548110156102a257612437906148af565b50805460018060a01b036001830154169160ff60028201546124aa61245e600385016146af565b61249c61246d600487016146af565b916006600588015497015494604051998a998a5260208a015260408901526101008060608a01528801906143be565b9086820360808801526143be565b9260a0850152818116151560c085015260081c16151560e08301520390f35b346102a2576124d73661433a565b90600052600e60205260406000209060005260205260a06040600020805490600180841b0360018201541690600281015460ff60046003840154930154169260405194855260208501526040840152606083015215156080820152f35b346102a25760003660031901126102a2576020604051670de0b6b3a76400008152f35b346102a257612565366147c8565b9060018060a01b0380931691826000526020936000855260019361259a60ff8660406000200154168015806127625750614ca7565b600854906000865b838111156127265750808610156126e357908587926125c2871515614be0565b806125cd8884614ac6565b116126d0575b505090506125e084614ef8565b9660009460009388805b6125fd575b604051806105198d82614350565b81811115806126c7575b156126c25790818a959493926000528b60038086526040600020908a898301541691888314612648575b5050505061263e90614ad3565b90919293946125ea565b8d8d959d101561266f575b5050505061266361263e91614ad3565b9890508b8d8080612631565b8a612663946126b89461263e979d94610551946040519261268f846144b4565b815484528d84015260028101546040840152015460608201526126b28383614c93565b52614c93565b97918d918f612653565b6125ef565b50828610612607565b6126db929650614ba0565b9385896125d3565b6064886040519062461bcd60e51b825280600483015260248201527f4f6666736574206578636565647320656e746974792066756e6420636f756e746044820152fd5b806000526003895282858960406000200154161461274d575b61274890614ad3565b6125a2565b9061275a61274891614ad3565b91905061273f565b905088612302565b346102a25760403660031901126102a25761278361449e565b6001600160a01b0316600081815260208181526040909120600101546024929183359160ff16156129775760018210158061296c575b15612929573360005260048152604060002083600052815260ff604060002054166128d757826000526000815260406000206005600482015491015490818102908082048314901517156128ad578361281191614ac6565b600182018092116128ad5781156128c257600591856000526000845260406000209104600482015501805490600182018092116128ad57907f174ba19ba3c8bb5c679c87e51db79fff7c3f04bb84c1fd55b7dacb470b674aa6929155836000526000815242600660406000200155336000526004815260406000208460005281526040600020600160ff198254161790556040519283523392a3005b85634e487b7160e01b60005260116004526000fd5b85634e487b7160e01b60005260126004526000fd5b6084906026856040519262461bcd60e51b845260048401528201527f596f75206861766520616c726561647920766f74656420666f72207468697320604482015265656e7469747960d01b6064820152fd5b606490601e856040519262461bcd60e51b845260048401528201527f526174696e67206d757374206265206265747765656e203120616e64203500006044820152fd5b5060058211156127b9565b6064906014856040519262461bcd60e51b8452600484015282015273456e74697479206973206e6f742061637469766560601b6044820152fd5b346102a25760203660031901126102a2576001600160a01b036129d261449e565b166000526004602052604060002033600052602052602060ff604060002054166040519015158152f35b346102a25760003660031901126102a257612a2260018060a01b03601154163314614a22565b602047604051908152f35b346102a25760003660031901126102a2576011546040516001600160a01b039091168152602090f35b346102a25760003660031901126102a2576020600554604051908152f35b346102a25760003660031901126102a2576020600754604051908152f35b346102a25760203660031901126102a25760043560018060a01b03612abc81601154163314614a22565b612ac96007548310614d3f565b6001612ad4836148af565b5060068101610100815460ff81161580612b25575b612af290614d80565b61ff001916179055015416907f4323a3f8bbbcf284e67a4932738f0f8fe465297d522b256e4f863ffbbf22c7ee600080a3005b50600881901c60ff1615612ae9565b612b3d3661433a565b81600052600d6020818152612b5f60ff60056040600020015460a01c16615020565b83600052818152612b796004604060002001544210615063565b600084815282825260409020600501546001600160a01b03949085163314612dc857806000528282526008604060002001548410612d8357806000528282526009604060002001548411612d3e57833403612cf95780600052600f82526040600020805490612be782614ad3565b9055612c75604051612bf8816144cf565b828152600485820198338a5260408301898152606084019042825260808501926000845288600052600e8a526040600020886000528a52604060002095518655600186019c51169b6001600160601b0360a01b9c8d82541617905551600285015551600384015551151591019060ff801983541691151516179055565b81600052838352600a604060002001612c8e8154614ad3565b905560405190858252827f6f7e354ea3ab5c288aea37fce29c603f9a98a3b040f6d8f32f10e192ec47ff6a853394a4600052526040600020600781019182548015908115612cef575b50612cde57005b909155600601805490911633179055005b9050811085612cd7565b60405162461bcd60e51b815260048101839052601960248201527f496e636f72726563742045544820616d6f756e742073656e74000000000000006044820152606490fd5b60405162461bcd60e51b815260048101839052601860248201527f42696420616d6f756e742061626f7665206d6178696d756d00000000000000006044820152606490fd5b60405162461bcd60e51b815260048101839052601860248201527f42696420616d6f756e742062656c6f77206d696e696d756d00000000000000006044820152606490fd5b60405162461bcd60e51b815260048101839052601760248201527f4973737565722063616e6e6f7420706c616365206269640000000000000000006044820152606490fd5b346102a2576020806003193601126102a257600435612e2a6150af565b5080151580612f31575b15612ef857600052600d8152604060002090600a60405192612e5584614520565b80548452612e65600182016146af565b83850152612e75600282016146af565b60408501526003810154606085015260048101546080850152600581015460ff60018060a01b039182811660a088015260a01c16151560c086015260068201541660e085015260078101546101008501526008810154610120850152600981015461014085015201546101608301526105196040519282849384528301906143fe565b60405162461bcd60e51b8152600481018390526011602482015270125b9d985b1a59081d195b99195c881251607a1b6044820152606490fd5b50601054811115612e34565b346102a257612f4b366147c8565b9060018060a01b038093169182600052602060008152600193612f7f60ff8660406000200154168015806127625750614ca7565b600954906000865b8381111561312f5750808610156130df578590612fa5861515614be0565b80612fb08784614ac6565b116130cc575b5050612fc184614c43565b9660009460009388805b612fde575b604051806105198d8261484d565b81811115806130c3575b156130be5790818a9493926000528488528b6040600020858782015416888114613022575b50505061301990614ad3565b90919293612fcb565b908a918d8d959d101561304b575b5050505061304061301991614ad3565b9890508b8d8061300d565b8a613040946130b1946005613019989e95610551956040519361306d85614505565b82548552840152613080600282016146af565b60408401526003810154606084015261309b600482016146af565b6080840152015460a08201526126b28383614c93565b979150508b888e80613030565b612fd0565b50828610612fe8565b6130d7929550614ba0565b928488612fb6565b60405162461bcd60e51b815260048101859052602260248201527f4f6666736574206578636565647320656e74697479207265636f726420636f756044820152611b9d60f21b6064820152608490fd5b80600052878552828989604060002001541614613155575b61315090614ad3565b612f87565b9061316261315091614ad3565b919050613147565b346102a25760203660031901126102a25761051961319d61053660043561318f614dcc565b506105316007548210614d3f565b604051918291602083526020830190614755565b346102a25760403660031901126102a2576131ca61449e565b6001600160a01b0360243581811692908390036102a257166000526004602052604060002090600052602052602060ff604060002054166040519015158152f35b346102a25760003660031901126102a2576020600854604051908152f35b346102a25760203660031901126102a257600435600052600d60205260406000208054613258600183016146af565b91613265600282016146af565b6003820154916004810154600582015460018060a01b039060ff82600686015416916007860154936008870154956132cd600a60098a0154990154996132bf6040519e8f9e8f9081526101809081602082015201906143be565b8d810360408f0152906143be565b9960608c015260808b0152811660a08a015260a01c16151560c088015260e08701526101008601526101208501526101408401526101608301520390f35b346102a2576020806003193601126102a257600435600052600b81526040600020604051808284829454938481520190600052846000209260005b868282106133da578461335b81860382614558565b6133658151614fa6565b9160005b82518110156133cc57806133806133c79285614c93565b516000526002808452600560406000206040519261339d84614505565b815484526001820154878501528101546001600160a01b0316604084015261209f600382016146af565b613369565b6040518061051986826145cf565b8554845260019586019587955093019201613346565b346102a2576020806003193601126102a25760043590336000526000815261342260ff60016040600020015416614ae2565b81600052600d815261344160ff60056040600020015460a01c16615020565b6000828152600d825260409020600501546001600160a01b039190821633036134e557600090838252600d815261348060046040842001544210615063565b838252600d815260408220926003600585019485549560ff60a01b1987169055015493168252526134ba6002604060002001918254614ac6565b905533907f116bcf29f123d8a1761e1b9bebbc345a1f08879dafde27b887a89e6e0b7af019600080a3005b6064906040519062461bcd60e51b82526004820152601d60248201527f4f6e6c79206973737565722063616e2063616e63656c2074656e6465720000006044820152fd5b346102a25760403660031901126102a25761354261449e565b6001600160401b03906024358281116102a257613563903690600401614579565b9161357960018060a01b03601154163314614a22565b6001600160a01b0382161561387c57825115613837576001600160a01b03821660009081526020819052604090206001015460ff166137e6576040516135be816144ea565b83815260016020820152600060408201526000606082015260006080820152600060a0820152600060c082015260018060a01b038316600052600060205260406000209181518051918211610932576136178454614675565b601f81116137a2575b50602090601f83116001146137335791806006949260c094600092613728575b50508160011b916000199060031b1c19161784555b61367460208201511515600186019060ff801983541691151516179055565b60408101516002850155606081015160038501556080810151600485015560a081015160058501550151910155600554600160401b811015610932577f1b7e3d9f922be54960ce9bea1d47b9b6ea18bbafb4e0fdeedc5e2a668e8fdaf8916136e582600161372394016005556149d3565b81549060031b9060018060a01b038416821b9160018060a01b03901b19161790556040519182916020835260018060a01b03169460208301906143be565b0390a2005b015190508880613640565b908460005260206000209160005b601f198516811061378a5750926006949260019260c09583601f19811610613771575b505050811b018455613655565b015160001960f88460031b161c19169055888080613764565b91926020600181928685015181550194019201613741565b846000526020600020601f840160051c8101602085106137df575b601f830160051c820181106137d3575050613620565b600081556001016137bd565b50806137bd565b60405162461bcd60e51b8152602060048201526024808201527f456e7469747920616c7265616479207265676973746572656420616e642061636044820152637469766560e01b6064820152608490fd5b60405162461bcd60e51b815260206004820152601b60248201527f456e74697479206e616d652063616e6e6f7420626520656d70747900000000006044820152606490fd5b60405162461bcd60e51b815260206004820152601d60248201527f456e7469747920616464726573732063616e6e6f74206265207a65726f0000006044820152606490fd5b346102a25760603660031901126102a2576001600160401b036024358181116102a2576138f2903690600401614579565b9033600052600060205261391060ff60016040600020015416614ae2565b600435600052600160205260018060a01b039033826001604060002001541603613c46576139416044351515614cf3565b825115613c015733600052600060205260443560036040600020015410613bbd5733600052600060205260036040600020016139806044358254614ba0565b905561398d600a54614ad3565b9081600a556040519161399f83614505565b808352602083019360043585526040840190338252606085019287845260443560808701524260a0870152600052600260205260406000209585518755516001870155600286019151166001600160601b0360a01b82541617905551805191821161093257613a116003850154614675565b601f8111613b76575b50602090601f8311600114613b015791806005949260a094600092613af6575b50508160011b916000199060031b1c19161760038501555b608081015160048501550151910155600435600052600b6020526040600020600a54908054600160401b81101561093257613a9291600182018155614a0a565b819291549060031b91821b91600019901b1916179055600a54613ac0604051926040845260408401906143be565b9060443560208401527f6a6b3e9a68b09e7e4efa25d186c63204b5ceb3777d516eb58090aff71935dbc1339380600435940390a4005b015190508780613a3a565b906003850160005260206000209160005b601f1985168110613b5e5750926005949260019260a09583601f19811610613b45575b505050811b016003850155613a52565b015160001960f88460031b161c19169055878080613b35565b91926020600181928685015181550194019201613b12565b600385016000526020600020601f840160051c810160208510613bb6575b601f830160051c82018110613baa575050613a1a565b60008155600101613b94565b5080613b94565b606460405162461bcd60e51b815260206004820152602060248201527f496e73756666696369656e74206e656564546f5370656e642062616c616e63656044820152fd5b60405162461bcd60e51b815260206004820152601b60248201527f4465736372697074696f6e2063616e6e6f7420626520656d70747900000000006044820152606490fd5b608460405162461bcd60e51b815260206004820152604060248201527f4e6f7420617574686f72697a656420746f20616464206d6963726f2d7472616e60448201527f73616374696f6e7320746f2074686973207370656e64696e67207265636f72646064820152fd5b346102a25760203660031901126102a25760043560005260036020526080604060002080549060018060a01b03600182015416906003600282015491015491604051938452602084015260408301526060820152f35b346102a25760203660031901126102a2576001600160a01b03613d2761449e565b16806000526000602052613d4d60ff600160406000200154168015806123865750614ca7565b6000526000602052613dd06040600020604051613d69816144ea565b613d72826146af565b9182825260ff60018201541615159182602082015260028201549081604082015260c0600660038501549485606085015260048101546080850152600581015460a085015201549101526040519485946080865260808601906143be565b926020850152604084015260608301520390f35b346102a25760203660031901126102a257600435613e00614ed3565b5080151580613ec0575b15613e8957600052600360205260806040600020600360405191613e2d836144b4565b8054835260018060a01b0360018201541660208401526002810154604084015201546060820152613e876040518092606080918051845260018060a01b036020820151166020850152604081015160408501520151910152565bf35b60405162461bcd60e51b815260206004820152600f60248201526e125b9d985b1a5908199d5b99081251608a1b6044820152606490fd5b50600854811115613e0a565b346102a25760203660031901126102a25760043560018060a01b03613ef681601154163314614a22565b613f036007548310614d3f565b613f0c826148af565b50600681016001815460ff81161580613f85575b613f2990614d80565b60ff191617905560016002820154910190828254166000526000602052613f596002604060002001918254614ac6565b90555416907f2f14cf4ee725545bfe00e4128e96a1c8143718c3738cb5395484377ea6743630600080a3005b50600881901c60ff1615613f20565b346102a25760003660031901126102a2576020601054604051908152f35b346102a257613fc9613fc33661433a565b9061510b565b60405160209182820192808352815180945260408301938160408260051b8601019301916000955b828710613ffe5785850386f35b90919293828061401a600193603f198a820301865288516143fe565b9601920196019592919092613ff1565b346102a25760203660031901126102a257600435600052600f6020526020604060002054604051908152f35b346102a2576020806003193601126102a2576004359081600052600f815260406000205461408381614c2c565b926140916040519485614558565b818452601f196140a083614c2c565b018360005b8281106141a45750505060005b82811061412957604080518581528651818701819052878701928201908760005b8281106140e05784840385f35b855180518552808301516001600160a01b03168584015260408082015190860152606080820151908601526080908101511515908501529481019460a0909301926001016140d3565b61419f9082600052600e85526040600020816000528552604060002060ff600460405192614156846144cf565b8054845260018101546001600160a01b0316898501526002810154604085015260038101546060850152015416151560808201526141948288614c93565b526105518187614c93565b6140b2565b6040516141b0816144cf565b600081526000838201526000604082015260006060820152600060808201528282890101520184906140a5565b346102a2576141eb3661433a565b600854808310156142b5578290614203831515614be0565b8061420e8484614ac6565b116142a4575b505061421f81614ef8565b9160005b82811061423857604051806105198682614350565b6142428183614ac6565b906001808301809311611aef5761429f926000526003602081815260406000209060405193614270856144b4565b825485528201546001600160a01b03169084015260028101546040840152015460608201526105468287614c93565b614223565b6142ae9250614ba0565b8183614214565b606460405162461bcd60e51b815260206004820152602060248201527f4f66667365742065786365656473206973737565642066756e6420636f756e746044820152fd5b346102a25760003660031901126102a2576020604051620151808152f35b346102a25760003660031901126102a2576020614332614f7a565b604051908152f35b60409060031901126102a2576004359060243590565b6020908160408183019282815285518094520193019160005b828110614377575050505090565b90919293826080826143b26001948951606080918051845260018060a01b036020820151166020850152604081015160408501520151910152565b01950193929101614369565b919082519283825260005b8481106143ea575050826000602080949584010152601f8019910116010190565b6020818301810151848301820152016143c9565b908151815261443161441f60208401516101808060208601528401906143be565b604084015183820360408501526143be565b91606081015160608301526080810151608083015260018060a01b038060a08301511660a084015260c0820151151560c084015260e08201511660e08301526101008082015190830152610120808201519083015261014080820151908301526101608091015191015290565b600435906001600160a01b03821682036102a257565b608081019081106001600160401b0382111761093257604052565b60a081019081106001600160401b0382111761093257604052565b60e081019081106001600160401b0382111761093257604052565b60c081019081106001600160401b0382111761093257604052565b61018081019081106001600160401b0382111761093257604052565b61010081019081106001600160401b0382111761093257604052565b90601f801991011681019081106001600160401b0382111761093257604052565b81601f820112156102a2578035906001600160401b03821161093257604051926145ad601f8401601f191660200185614558565b828452602083830101116102a257816000926020809301838601378301015290565b602080820190808352835180925260409283810182858560051b8401019601946000925b858410614604575050505050505090565b909192939495968580600192603f198582030187528a5190815181528282015183820152848060a01b038783015116878201526146506060808401519060c080918501528301906143be565b916080808201519083015260a0809101519101529901940194019295949391906145f3565b90600182811c921680156146a5575b602083101461468f57565b634e487b7160e01b600052602260045260246000fd5b91607f1691614684565b90604051918260008254926146c384614675565b90818452600194858116908160001461473257506001146146ef575b50506146ed92500383614558565b565b9093915060005260209081600020936000915b81831061471a5750506146ed935082010138806146df565b85548884018501529485019487945091830191614702565b9150506146ed94506020925060ff191682840152151560051b82010138806146df565b908151815260018060a01b0360208301511660208201526040820151604082015260e0806147a761479560608601516101008060608801528601906143be565b608086015185820360808701526143be565b9360a081015160a085015260c0810151151560c08501520151151591015290565b60609060031901126102a2576004356001600160a01b03811681036102a257906024359060443590565b908151815260018060a01b03602083015116602082015260a080614844614828604086015160c0604087015260c08601906143be565b60608601516060860152608086015185820360808701526143be565b93015191015290565b602080820190808352835180925260408301928160408460051b8301019501936000915b8483106148815750505050505090565b909192939495848061489f600193603f198682030187528a516147f2565b9801930193019194939290614871565b600c548110156148ea57600790600c600052027fdf6966c971051c3d54ec59162606531493a51404a002842f56009d7e5cf4a8c70190600090565b634e487b7160e01b600052603260045260246000fd5b602080820190808352835180925260408301928160408460051b8301019501936000915b8483106149345750505050505090565b9091929394958480614952600193603f198682030187528a51614755565b9801930193019194939290614924565b90815180825260208080930193019160005b828110614982575050505090565b83516001600160a01b031685529381019392810192600101614974565b90815180825260208080930193019160005b8281106149bf575050505090565b8351855293810193928101926001016149b1565b6005548110156148ea5760056000527f036b6384b5eca791c62761152d0c79bb0604c104a5fb6f4eb0703f3154bb3db00190600090565b80548210156148ea5760005260206000200190600090565b15614a2957565b60405162461bcd60e51b815260206004820152602f60248201527f4f6e6c792063656e7472616c20676f7665726e6d656e742063616e207065726660448201526e37b936903a3434b99030b1ba34b7b760891b6064820152608490fd5b15614a8d57565b60405162461bcd60e51b8152602060048201526011602482015270456e74697479206e6f742061637469766560781b6044820152606490fd5b91908201809211611aef57565b6000198114611aef5760010190565b15614ae957565b60405162461bcd60e51b815260206004820152603760248201527f4f6e6c7920616374697665207265676973746572656420656e7469746965732060448201527f63616e20706572666f726d207468697320616374696f6e0000000000000000006064820152608490fd5b15614b5b57565b60405162461bcd60e51b815260206004820152601d60248201527f446f63756d656e7420686173682063616e6e6f7420626520656d7074790000006044820152606490fd5b91908203918211611aef57565b60405190614bba82614505565b600060a08382815282602082015260606040820152826060820152606060808201520152565b15614be757565b60405162461bcd60e51b815260206004820152601f60248201527f4c696d6974206d7573742062652067726561746572207468616e207a65726f006044820152606490fd5b6001600160401b0381116109325760051b60200190565b90614c4d82614c2c565b614c5a6040519182614558565b8281528092614c6b601f1991614c2c565b019060005b828110614c7c57505050565b602090614c87614bad565b82828501015201614c70565b80518210156148ea5760209160051b010190565b15614cae57565b60405162461bcd60e51b815260206004820152601760248201527f4e6f742061207265676973746572656420656e746974790000000000000000006044820152606490fd5b15614cfa57565b60405162461bcd60e51b815260206004820152601d60248201527f416d6f756e74206d7573742062652067726561746572207468616e20300000006044820152606490fd5b15614d4657565b60405162461bcd60e51b8152602060048201526012602482015271125b9d985b1a59081c995c5d595cdd08125160721b6044820152606490fd5b15614d8757565b60405162461bcd60e51b815260206004820152601960248201527f5265717565737420616c72656164792070726f636573736564000000000000006044820152606490fd5b60405190614dd98261453c565b8160e0600091828152826020820152826040820152606080820152606060808201528260a08201528260c08201520152565b90604051614e188161453c565b60e060ff600683958054855260018060a01b03600182015416602086015260028101546040860152614e4c600382016146af565b6060860152614e5d600482016146af565b6080860152600581015460a08601520154818116151560c085015260081c161515910152565b90614e8d82614c2c565b614e9a6040519182614558565b8281528092614eab601f1991614c2c565b019060005b828110614ebc57505050565b602090614ec7614dcc565b82828501015201614eb0565b60405190614ee0826144b4565b60006060838281528260208201528260408201520152565b90614f0282614c2c565b614f0f6040519182614558565b8281528092614f20601f1991614c2c565b019060005b828110614f3157505050565b602090614f3c614ed3565b82828501015201614f25565b90614f5282614c2c565b614f5f6040519182614558565b8281528092614f70601f1991614c2c565b0190602036910137565b601254620151808101809111611aef5780421015614fa057614f9d904290614ba0565b90565b50600090565b90614fb082614c2c565b604090614fbf82519182614558565b8381528093614fd0601f1991614c2c565b019160005b838110614fe25750505050565b6020908251614ff081614505565b600081528260008183015260008583015260608083015260006080830152600060a0830152828601015201614fd5565b1561502757565b60405162461bcd60e51b815260206004820152601460248201527354656e646572206973206e6f742061637469766560601b6044820152606490fd5b1561506a57565b60405162461bcd60e51b815260206004820152601a60248201527f54656e64657220646561646c696e6520686173207061737365640000000000006044820152606490fd5b604051906150bc82614520565b8161016060009182815260606020820152606060408201528260608201528260808201528260a08201528260c08201528260e08201528261010082015282610120820152826101408201520152565b9060105480831015615276578290615124831515614be0565b8061512f8484614ac6565b11615265575b505061514081614c2c565b9160409061515082519485614558565b828452601f1961515f84614c2c565b0160005b81811061524e57505060005b83811061517d575050505090565b6151878183614ac6565b906001808301809311611aef5761524992600052600a6020600d815286600020906151c28851946151b786614520565b8354865283016146af565b908401526151d2600282016146af565b878401526003810154606084015260048101546080840152600581015460ff60018060a01b039160a0838216818801521c16151560c085015260068201541660e084015260078101546101008401526008810154610120840152600981015461014084015201546101608201526141948288614c93565b61516f565b6020906152596150af565b82828901015201615163565b61526f9250614ba0565b8138615135565b505050604051602081018181106001600160401b0382111761093257604052600081529056fea26469706673582212206480b7b3dfc59a0469dc7f0eb2044579cd8d6c514f1d4fc4b33b455205a013e764736f6c63430008130033",
  "linkReferences": {},
  "deployedLinkReferences": {}
}